{
	"contracts/PenERC20V2.sol": {
		"PenERC20V2": {
			"abi": [
				{
					"inputs": [
						{
							"internalType": "string",
							"name": "name_",
							"type": "string"
						},
						{
							"internalType": "string",
							"name": "symbol_",
							"type": "string"
						},
						{
							"internalType": "address",
							"name": "owner_",
							"type": "address"
						}
					],
					"stateMutability": "nonpayable",
					"type": "constructor"
				},
				{
					"anonymous": false,
					"inputs": [
						{
							"indexed": true,
							"internalType": "address",
							"name": "owner",
							"type": "address"
						},
						{
							"indexed": true,
							"internalType": "address",
							"name": "spender",
							"type": "address"
						},
						{
							"indexed": false,
							"internalType": "uint256",
							"name": "value",
							"type": "uint256"
						}
					],
					"name": "Approval",
					"type": "event"
				},
				{
					"anonymous": false,
					"inputs": [
						{
							"indexed": true,
							"internalType": "address",
							"name": "user",
							"type": "address"
						},
						{
							"indexed": false,
							"internalType": "uint256",
							"name": "reward",
							"type": "uint256"
						},
						{
							"indexed": false,
							"internalType": "uint256",
							"name": "streak",
							"type": "uint256"
						}
					],
					"name": "Checkin",
					"type": "event"
				},
				{
					"anonymous": false,
					"inputs": [
						{
							"indexed": true,
							"internalType": "address",
							"name": "user",
							"type": "address"
						},
						{
							"indexed": false,
							"internalType": "string",
							"name": "reward",
							"type": "string"
						},
						{
							"indexed": false,
							"internalType": "uint256",
							"name": "cost",
							"type": "uint256"
						}
					],
					"name": "LuckyDraw",
					"type": "event"
				},
				{
					"anonymous": false,
					"inputs": [
						{
							"indexed": true,
							"internalType": "address",
							"name": "from",
							"type": "address"
						},
						{
							"indexed": true,
							"internalType": "address",
							"name": "to",
							"type": "address"
						},
						{
							"indexed": false,
							"internalType": "uint256",
							"name": "value",
							"type": "uint256"
						}
					],
					"name": "Transfer",
					"type": "event"
				},
				{
					"inputs": [
						{
							"internalType": "address",
							"name": "",
							"type": "address"
						},
						{
							"internalType": "address",
							"name": "",
							"type": "address"
						}
					],
					"name": "allowance",
					"outputs": [
						{
							"internalType": "uint256",
							"name": "",
							"type": "uint256"
						}
					],
					"stateMutability": "view",
					"type": "function"
				},
				{
					"inputs": [
						{
							"internalType": "address",
							"name": "spender",
							"type": "address"
						},
						{
							"internalType": "uint256",
							"name": "amount",
							"type": "uint256"
						}
					],
					"name": "approve",
					"outputs": [
						{
							"internalType": "bool",
							"name": "",
							"type": "bool"
						}
					],
					"stateMutability": "nonpayable",
					"type": "function"
				},
				{
					"inputs": [
						{
							"internalType": "address",
							"name": "",
							"type": "address"
						}
					],
					"name": "balanceOf",
					"outputs": [
						{
							"internalType": "uint256",
							"name": "",
							"type": "uint256"
						}
					],
					"stateMutability": "view",
					"type": "function"
				},
				{
					"inputs": [
						{
							"internalType": "uint256",
							"name": "amount",
							"type": "uint256"
						}
					],
					"name": "burn",
					"outputs": [],
					"stateMutability": "nonpayable",
					"type": "function"
				},
				{
					"inputs": [],
					"name": "checkin",
					"outputs": [
						{
							"internalType": "uint256",
							"name": "reward",
							"type": "uint256"
						}
					],
					"stateMutability": "nonpayable",
					"type": "function"
				},
				{
					"inputs": [],
					"name": "checkinBase",
					"outputs": [
						{
							"internalType": "uint256",
							"name": "",
							"type": "uint256"
						}
					],
					"stateMutability": "view",
					"type": "function"
				},
				{
					"inputs": [
						{
							"internalType": "address",
							"name": "",
							"type": "address"
						}
					],
					"name": "checkinDate",
					"outputs": [
						{
							"internalType": "uint256",
							"name": "",
							"type": "uint256"
						}
					],
					"stateMutability": "view",
					"type": "function"
				},
				{
					"inputs": [
						{
							"internalType": "address",
							"name": "",
							"type": "address"
						}
					],
					"name": "checkinStreak",
					"outputs": [
						{
							"internalType": "uint256",
							"name": "",
							"type": "uint256"
						}
					],
					"stateMutability": "view",
					"type": "function"
				},
				{
					"inputs": [],
					"name": "decimals",
					"outputs": [
						{
							"internalType": "uint8",
							"name": "",
							"type": "uint8"
						}
					],
					"stateMutability": "view",
					"type": "function"
				},
				{
					"inputs": [
						{
							"internalType": "uint256",
							"name": "oldCheckinStreak",
							"type": "uint256"
						}
					],
					"name": "getCheckinReward",
					"outputs": [
						{
							"internalType": "uint256",
							"name": "",
							"type": "uint256"
						}
					],
					"stateMutability": "view",
					"type": "function"
				},
				{
					"inputs": [
						{
							"internalType": "uint256",
							"name": "seed",
							"type": "uint256"
						}
					],
					"name": "luckyDraw",
					"outputs": [
						{
							"internalType": "string",
							"name": "reward",
							"type": "string"
						}
					],
					"stateMutability": "nonpayable",
					"type": "function"
				},
				{
					"inputs": [
						{
							"internalType": "address",
							"name": "",
							"type": "address"
						}
					],
					"name": "luckyDrawCount",
					"outputs": [
						{
							"internalType": "uint256",
							"name": "",
							"type": "uint256"
						}
					],
					"stateMutability": "view",
					"type": "function"
				},
				{
					"inputs": [
						{
							"internalType": "address",
							"name": "",
							"type": "address"
						}
					],
					"name": "luckyDrawDate",
					"outputs": [
						{
							"internalType": "uint256",
							"name": "",
							"type": "uint256"
						}
					],
					"stateMutability": "view",
					"type": "function"
				},
				{
					"inputs": [],
					"name": "name",
					"outputs": [
						{
							"internalType": "string",
							"name": "",
							"type": "string"
						}
					],
					"stateMutability": "view",
					"type": "function"
				},
				{
					"inputs": [
						{
							"internalType": "uint256",
							"name": "seed",
							"type": "uint256"
						}
					],
					"name": "random",
					"outputs": [
						{
							"internalType": "uint256",
							"name": "",
							"type": "uint256"
						}
					],
					"stateMutability": "view",
					"type": "function"
				},
				{
					"inputs": [],
					"name": "symbol",
					"outputs": [
						{
							"internalType": "string",
							"name": "",
							"type": "string"
						}
					],
					"stateMutability": "view",
					"type": "function"
				},
				{
					"inputs": [],
					"name": "totalSupply",
					"outputs": [
						{
							"internalType": "uint256",
							"name": "",
							"type": "uint256"
						}
					],
					"stateMutability": "view",
					"type": "function"
				},
				{
					"inputs": [
						{
							"internalType": "address",
							"name": "recipient",
							"type": "address"
						},
						{
							"internalType": "uint256",
							"name": "amount",
							"type": "uint256"
						}
					],
					"name": "transfer",
					"outputs": [
						{
							"internalType": "bool",
							"name": "",
							"type": "bool"
						}
					],
					"stateMutability": "nonpayable",
					"type": "function"
				},
				{
					"inputs": [
						{
							"internalType": "address",
							"name": "sender",
							"type": "address"
						},
						{
							"internalType": "address",
							"name": "recipient",
							"type": "address"
						},
						{
							"internalType": "uint256",
							"name": "amount",
							"type": "uint256"
						}
					],
					"name": "transferFrom",
					"outputs": [
						{
							"internalType": "bool",
							"name": "",
							"type": "bool"
						}
					],
					"stateMutability": "nonpayable",
					"type": "function"
				}
			],
			"devdoc": {
				"kind": "dev",
				"methods": {
					"approve(address,uint256)": {
						"details": "调用者账户给`spender`账户授权 `amount`数量代币。 如果成功，返回 `true`. 释放 {Approval} 事件."
					}
				},
				"version": 1
			},
			"evm": {
				"assembly": "    /* \"contracts/PenERC20V2.sol\":90:4603  contract PenERC20V2 is ERC20 {\r... */\n  mstore(0x40, 0x80)\n    /* \"contracts/base/ERC20.sol\":391:393  18 */\n  0x12\n    /* \"contracts/base/ERC20.sol\":367:393  uint8 public decimals = 18 */\n  0x05\n  exp(0x0100, 0x00)\n  dup2\n  sload\n  dup2\n  0xff\n  mul\n  not\n  and\n  swap1\n  dup4\n  0xff\n  and\n  mul\n  or\n  swap1\n  sstore\n  pop\n    /* \"contracts/PenERC20V2.sol\":424:427  100 */\n  0x64\n    /* \"contracts/PenERC20V2.sol\":395:427  uint256 public checkinBase = 100 */\n  0x08\n  sstore\n    /* \"contracts/PenERC20V2.sol\":545:655  constructor(string memory name_, string memory symbol_, address owner_) ERC20(name_, symbol_, owner_) {\r... */\n  callvalue\n  dup1\n  iszero\n  tag_1\n  jumpi\n  0x00\n  dup1\n  revert\ntag_1:\n  pop\n  mload(0x40)\n  sub(codesize, bytecodeSize)\n  dup1\n  bytecodeSize\n  dup4\n  codecopy\n  dup2\n  dup2\n  add\n  0x40\n  mstore\n  dup2\n  add\n  swap1\n  tag_2\n  swap2\n  swap1\n  tag_3\n  jump\t// in\ntag_2:\n    /* \"contracts/PenERC20V2.sol\":623:628  name_ */\n  dup3\n    /* \"contracts/PenERC20V2.sol\":630:637  symbol_ */\n  dup3\n    /* \"contracts/PenERC20V2.sol\":639:645  owner_ */\n  dup3\n    /* \"contracts/base/ERC20.sol\":492:497  name_ */\n  dup3\n    /* \"contracts/base/ERC20.sol\":485:489  name */\n  0x03\n    /* \"contracts/base/ERC20.sol\":485:497  name = name_ */\n  swap1\n  dup1\n  mload\n  swap1\n  0x20\n  add\n  swap1\n  tag_7\n  swap3\n  swap2\n  swap1\n  tag_8\n  jump\t// in\ntag_7:\n  pop\n    /* \"contracts/base/ERC20.sol\":517:524  symbol_ */\n  dup2\n    /* \"contracts/base/ERC20.sol\":508:514  symbol */\n  0x04\n    /* \"contracts/base/ERC20.sol\":508:524  symbol = symbol_ */\n  swap1\n  dup1\n  mload\n  swap1\n  0x20\n  add\n  swap1\n  tag_9\n  swap3\n  swap2\n  swap1\n  tag_8\n  jump\t// in\ntag_9:\n  pop\n    /* \"contracts/base/ERC20.sol\":626:672  mint(owner_, 200000 * 10 ** uint256(decimals)) */\n  tag_10\n    /* \"contracts/base/ERC20.sol\":631:637  owner_ */\n  dup2\n    /* \"contracts/base/ERC20.sol\":662:670  decimals */\n  0x05\n  0x00\n  swap1\n  sload\n  swap1\n  0x0100\n  exp\n  swap1\n  div\n  0xff\n  and\n    /* \"contracts/base/ERC20.sol\":654:671  uint256(decimals) */\n  0xff\n  and\n    /* \"contracts/base/ERC20.sol\":648:650  10 */\n  0x0a\n    /* \"contracts/base/ERC20.sol\":648:671  10 ** uint256(decimals) */\n  exp\n    /* \"contracts/base/ERC20.sol\":639:645  200000 */\n  0x030d40\n    /* \"contracts/base/ERC20.sol\":639:671  200000 * 10 ** uint256(decimals) */\n  mul\n    /* \"contracts/base/ERC20.sol\":626:630  mint */\n  shl(0x20, tag_11)\n    /* \"contracts/base/ERC20.sol\":626:672  mint(owner_, 200000 * 10 ** uint256(decimals)) */\n  0x20\n  shr\n  jump\t// in\ntag_10:\n    /* \"contracts/base/ERC20.sol\":402:691  constructor(string memory name_, string memory symbol_, address owner_) {\r... */\n  pop\n  pop\n  pop\n    /* \"contracts/PenERC20V2.sol\":545:655  constructor(string memory name_, string memory symbol_, address owner_) ERC20(name_, symbol_, owner_) {\r... */\n  pop\n  pop\n  pop\n    /* \"contracts/PenERC20V2.sol\":90:4603  contract PenERC20V2 is ERC20 {\r... */\n  jump(tag_13)\n    /* \"contracts/base/ERC20.sol\":1775:1969  function mint(address recipient, uint256 amount) internal {\r... */\ntag_11:\n    /* \"contracts/base/ERC20.sol\":1868:1874  amount */\n  dup1\n    /* \"contracts/base/ERC20.sol\":1844:1853  balanceOf */\n  0x00\n    /* \"contracts/base/ERC20.sol\":1844:1864  balanceOf[recipient] */\n  dup1\n    /* \"contracts/base/ERC20.sol\":1854:1863  recipient */\n  dup5\n    /* \"contracts/base/ERC20.sol\":1844:1864  balanceOf[recipient] */\n  0xffffffffffffffffffffffffffffffffffffffff\n  and\n  0xffffffffffffffffffffffffffffffffffffffff\n  and\n  dup2\n  mstore\n  0x20\n  add\n  swap1\n  dup2\n  mstore\n  0x20\n  add\n  0x00\n  keccak256\n  0x00\n    /* \"contracts/base/ERC20.sol\":1844:1874  balanceOf[recipient] += amount */\n  dup3\n  dup3\n  sload\n  tag_15\n  swap2\n  swap1\n  tag_16\n  jump\t// in\ntag_15:\n  swap3\n  pop\n  pop\n  dup2\n  swap1\n  sstore\n  pop\n    /* \"contracts/base/ERC20.sol\":1900:1906  amount */\n  dup1\n    /* \"contracts/base/ERC20.sol\":1885:1896  totalSupply */\n  0x02\n  0x00\n    /* \"contracts/base/ERC20.sol\":1885:1906  totalSupply += amount */\n  dup3\n  dup3\n  sload\n  tag_17\n  swap2\n  swap1\n  tag_16\n  jump\t// in\ntag_17:\n  swap3\n  pop\n  pop\n  dup2\n  swap1\n  sstore\n  pop\n    /* \"contracts/base/ERC20.sol\":1943:1952  recipient */\n  dup2\n    /* \"contracts/base/ERC20.sol\":1922:1961  Transfer(address(0), recipient, amount) */\n  0xffffffffffffffffffffffffffffffffffffffff\n  and\n    /* \"contracts/base/ERC20.sol\":1939:1940  0 */\n  0x00\n    /* \"contracts/base/ERC20.sol\":1922:1961  Transfer(address(0), recipient, amount) */\n  0xffffffffffffffffffffffffffffffffffffffff\n  and\n  0xddf252ad1be2c89b69c2b068fc378daa952ba7f163c4a11628f55a4df523b3ef\n    /* \"contracts/base/ERC20.sol\":1954:1960  amount */\n  dup4\n    /* \"contracts/base/ERC20.sol\":1922:1961  Transfer(address(0), recipient, amount) */\n  mload(0x40)\n  tag_18\n  swap2\n  swap1\n  tag_19\n  jump\t// in\ntag_18:\n  mload(0x40)\n  dup1\n  swap2\n  sub\n  swap1\n  log3\n    /* \"contracts/base/ERC20.sol\":1775:1969  function mint(address recipient, uint256 amount) internal {\r... */\n  pop\n  pop\n  jump\t// out\n    /* \"contracts/PenERC20V2.sol\":90:4603  contract PenERC20V2 is ERC20 {\r... */\ntag_8:\n  dup3\n  dup1\n  sload\n  tag_20\n  swap1\n  tag_21\n  jump\t// in\ntag_20:\n  swap1\n  0x00\n  mstore\n  keccak256(0x00, 0x20)\n  swap1\n  0x1f\n  add\n  0x20\n  swap1\n  div\n  dup2\n  add\n  swap3\n  dup3\n  tag_23\n  jumpi\n  0x00\n  dup6\n  sstore\n  jump(tag_22)\ntag_23:\n  dup3\n  0x1f\n  lt\n  tag_24\n  jumpi\n  dup1\n  mload\n  not(0xff)\n  and\n  dup4\n  dup1\n  add\n  or\n  dup6\n  sstore\n  jump(tag_22)\ntag_24:\n  dup3\n  dup1\n  add\n  0x01\n  add\n  dup6\n  sstore\n  dup3\n  iszero\n  tag_22\n  jumpi\n  swap2\n  dup3\n  add\ntag_25:\n  dup3\n  dup2\n  gt\n  iszero\n  tag_26\n  jumpi\n  dup3\n  mload\n  dup3\n  sstore\n  swap2\n  0x20\n  add\n  swap2\n  swap1\n  0x01\n  add\n  swap1\n  jump(tag_25)\ntag_26:\ntag_22:\n  pop\n  swap1\n  pop\n  tag_27\n  swap2\n  swap1\n  tag_28\n  jump\t// in\ntag_27:\n  pop\n  swap1\n  jump\t// out\ntag_28:\ntag_29:\n  dup1\n  dup3\n  gt\n  iszero\n  tag_30\n  jumpi\n  0x00\n  dup2\n  0x00\n  swap1\n  sstore\n  pop\n  0x01\n  add\n  jump(tag_29)\ntag_30:\n  pop\n  swap1\n  jump\t// out\n    /* \"#utility.yul\":7:361   */\ntag_32:\n    /* \"#utility.yul\":96:101   */\n  0x00\n    /* \"#utility.yul\":121:187   */\n  tag_34\n    /* \"#utility.yul\":137:186   */\n  tag_35\n    /* \"#utility.yul\":179:185   */\n  dup5\n    /* \"#utility.yul\":137:186   */\n  tag_36\n  jump\t// in\ntag_35:\n    /* \"#utility.yul\":121:187   */\n  tag_37\n  jump\t// in\ntag_34:\n    /* \"#utility.yul\":112:187   */\n  swap1\n  pop\n    /* \"#utility.yul\":210:216   */\n  dup3\n    /* \"#utility.yul\":203:208   */\n  dup2\n    /* \"#utility.yul\":196:217   */\n  mstore\n    /* \"#utility.yul\":248:252   */\n  0x20\n    /* \"#utility.yul\":241:246   */\n  dup2\n    /* \"#utility.yul\":237:253   */\n  add\n    /* \"#utility.yul\":286:289   */\n  dup5\n    /* \"#utility.yul\":277:283   */\n  dup5\n    /* \"#utility.yul\":272:275   */\n  dup5\n    /* \"#utility.yul\":268:284   */\n  add\n    /* \"#utility.yul\":265:290   */\n  gt\n    /* \"#utility.yul\":262:264   */\n  iszero\n  tag_38\n  jumpi\n    /* \"#utility.yul\":303:304   */\n  0x00\n    /* \"#utility.yul\":300:301   */\n  dup1\n    /* \"#utility.yul\":293:305   */\n  revert\n    /* \"#utility.yul\":262:264   */\ntag_38:\n    /* \"#utility.yul\":316:355   */\n  tag_39\n    /* \"#utility.yul\":348:354   */\n  dup5\n    /* \"#utility.yul\":343:346   */\n  dup3\n    /* \"#utility.yul\":338:341   */\n  dup6\n    /* \"#utility.yul\":316:355   */\n  tag_40\n  jump\t// in\ntag_39:\n    /* \"#utility.yul\":102:361   */\n  pop\n  swap4\n  swap3\n  pop\n  pop\n  pop\n  jump\t// out\n    /* \"#utility.yul\":367:510   */\ntag_41:\n    /* \"#utility.yul\":424:429   */\n  0x00\n    /* \"#utility.yul\":455:461   */\n  dup2\n    /* \"#utility.yul\":449:462   */\n  mload\n    /* \"#utility.yul\":440:462   */\n  swap1\n  pop\n    /* \"#utility.yul\":471:504   */\n  tag_43\n    /* \"#utility.yul\":498:503   */\n  dup2\n    /* \"#utility.yul\":471:504   */\n  tag_44\n  jump\t// in\ntag_43:\n    /* \"#utility.yul\":430:510   */\n  swap3\n  swap2\n  pop\n  pop\n  jump\t// out\n    /* \"#utility.yul\":530:818   */\ntag_45:\n    /* \"#utility.yul\":597:602   */\n  0x00\n    /* \"#utility.yul\":646:649   */\n  dup3\n    /* \"#utility.yul\":639:643   */\n  0x1f\n    /* \"#utility.yul\":631:637   */\n  dup4\n    /* \"#utility.yul\":627:644   */\n  add\n    /* \"#utility.yul\":623:650   */\n  slt\n    /* \"#utility.yul\":613:615   */\n  tag_47\n  jumpi\n    /* \"#utility.yul\":664:665   */\n  0x00\n    /* \"#utility.yul\":661:662   */\n  dup1\n    /* \"#utility.yul\":654:666   */\n  revert\n    /* \"#utility.yul\":613:615   */\ntag_47:\n    /* \"#utility.yul\":697:703   */\n  dup2\n    /* \"#utility.yul\":691:704   */\n  mload\n    /* \"#utility.yul\":722:812   */\n  tag_48\n    /* \"#utility.yul\":808:811   */\n  dup5\n    /* \"#utility.yul\":800:806   */\n  dup3\n    /* \"#utility.yul\":793:797   */\n  0x20\n    /* \"#utility.yul\":785:791   */\n  dup7\n    /* \"#utility.yul\":781:798   */\n  add\n    /* \"#utility.yul\":722:812   */\n  tag_32\n  jump\t// in\ntag_48:\n    /* \"#utility.yul\":713:812   */\n  swap2\n  pop\n    /* \"#utility.yul\":603:818   */\n  pop\n  swap3\n  swap2\n  pop\n  pop\n  jump\t// out\n    /* \"#utility.yul\":824:1632   */\ntag_3:\n    /* \"#utility.yul\":932:938   */\n  0x00\n    /* \"#utility.yul\":940:946   */\n  dup1\n    /* \"#utility.yul\":948:954   */\n  0x00\n    /* \"#utility.yul\":997:999   */\n  0x60\n    /* \"#utility.yul\":985:994   */\n  dup5\n    /* \"#utility.yul\":976:983   */\n  dup7\n    /* \"#utility.yul\":972:995   */\n  sub\n    /* \"#utility.yul\":968:1000   */\n  slt\n    /* \"#utility.yul\":965:967   */\n  iszero\n  tag_50\n  jumpi\n    /* \"#utility.yul\":1013:1014   */\n  0x00\n    /* \"#utility.yul\":1010:1011   */\n  dup1\n    /* \"#utility.yul\":1003:1015   */\n  revert\n    /* \"#utility.yul\":965:967   */\ntag_50:\n    /* \"#utility.yul\":1077:1078   */\n  0x00\n    /* \"#utility.yul\":1066:1075   */\n  dup5\n    /* \"#utility.yul\":1062:1079   */\n  add\n    /* \"#utility.yul\":1056:1080   */\n  mload\n    /* \"#utility.yul\":1107:1125   */\n  0xffffffffffffffff\n    /* \"#utility.yul\":1099:1105   */\n  dup2\n    /* \"#utility.yul\":1096:1126   */\n  gt\n    /* \"#utility.yul\":1093:1095   */\n  iszero\n  tag_51\n  jumpi\n    /* \"#utility.yul\":1139:1140   */\n  0x00\n    /* \"#utility.yul\":1136:1137   */\n  dup1\n    /* \"#utility.yul\":1129:1141   */\n  revert\n    /* \"#utility.yul\":1093:1095   */\ntag_51:\n    /* \"#utility.yul\":1167:1241   */\n  tag_52\n    /* \"#utility.yul\":1233:1240   */\n  dup7\n    /* \"#utility.yul\":1224:1230   */\n  dup3\n    /* \"#utility.yul\":1213:1222   */\n  dup8\n    /* \"#utility.yul\":1209:1231   */\n  add\n    /* \"#utility.yul\":1167:1241   */\n  tag_45\n  jump\t// in\ntag_52:\n    /* \"#utility.yul\":1157:1241   */\n  swap4\n  pop\n    /* \"#utility.yul\":1027:1251   */\n  pop\n    /* \"#utility.yul\":1311:1313   */\n  0x20\n    /* \"#utility.yul\":1300:1309   */\n  dup5\n    /* \"#utility.yul\":1296:1314   */\n  add\n    /* \"#utility.yul\":1290:1315   */\n  mload\n    /* \"#utility.yul\":1342:1360   */\n  0xffffffffffffffff\n    /* \"#utility.yul\":1334:1340   */\n  dup2\n    /* \"#utility.yul\":1331:1361   */\n  gt\n    /* \"#utility.yul\":1328:1330   */\n  iszero\n  tag_53\n  jumpi\n    /* \"#utility.yul\":1374:1375   */\n  0x00\n    /* \"#utility.yul\":1371:1372   */\n  dup1\n    /* \"#utility.yul\":1364:1376   */\n  revert\n    /* \"#utility.yul\":1328:1330   */\ntag_53:\n    /* \"#utility.yul\":1402:1476   */\n  tag_54\n    /* \"#utility.yul\":1468:1475   */\n  dup7\n    /* \"#utility.yul\":1459:1465   */\n  dup3\n    /* \"#utility.yul\":1448:1457   */\n  dup8\n    /* \"#utility.yul\":1444:1466   */\n  add\n    /* \"#utility.yul\":1402:1476   */\n  tag_45\n  jump\t// in\ntag_54:\n    /* \"#utility.yul\":1392:1476   */\n  swap3\n  pop\n    /* \"#utility.yul\":1261:1486   */\n  pop\n    /* \"#utility.yul\":1525:1527   */\n  0x40\n    /* \"#utility.yul\":1551:1615   */\n  tag_55\n    /* \"#utility.yul\":1607:1614   */\n  dup7\n    /* \"#utility.yul\":1598:1604   */\n  dup3\n    /* \"#utility.yul\":1587:1596   */\n  dup8\n    /* \"#utility.yul\":1583:1605   */\n  add\n    /* \"#utility.yul\":1551:1615   */\n  tag_41\n  jump\t// in\ntag_55:\n    /* \"#utility.yul\":1541:1615   */\n  swap2\n  pop\n    /* \"#utility.yul\":1496:1625   */\n  pop\n    /* \"#utility.yul\":955:1632   */\n  swap3\n  pop\n  swap3\n  pop\n  swap3\n  jump\t// out\n    /* \"#utility.yul\":1638:1756   */\ntag_56:\n    /* \"#utility.yul\":1725:1749   */\n  tag_58\n    /* \"#utility.yul\":1743:1748   */\n  dup2\n    /* \"#utility.yul\":1725:1749   */\n  tag_59\n  jump\t// in\ntag_58:\n    /* \"#utility.yul\":1720:1723   */\n  dup3\n    /* \"#utility.yul\":1713:1750   */\n  mstore\n    /* \"#utility.yul\":1703:1756   */\n  pop\n  pop\n  jump\t// out\n    /* \"#utility.yul\":1762:1984   */\ntag_19:\n    /* \"#utility.yul\":1855:1859   */\n  0x00\n    /* \"#utility.yul\":1893:1895   */\n  0x20\n    /* \"#utility.yul\":1882:1891   */\n  dup3\n    /* \"#utility.yul\":1878:1896   */\n  add\n    /* \"#utility.yul\":1870:1896   */\n  swap1\n  pop\n    /* \"#utility.yul\":1906:1977   */\n  tag_61\n    /* \"#utility.yul\":1974:1975   */\n  0x00\n    /* \"#utility.yul\":1963:1972   */\n  dup4\n    /* \"#utility.yul\":1959:1976   */\n  add\n    /* \"#utility.yul\":1950:1956   */\n  dup5\n    /* \"#utility.yul\":1906:1977   */\n  tag_56\n  jump\t// in\ntag_61:\n    /* \"#utility.yul\":1860:1984   */\n  swap3\n  swap2\n  pop\n  pop\n  jump\t// out\n    /* \"#utility.yul\":1990:2119   */\ntag_37:\n    /* \"#utility.yul\":2024:2030   */\n  0x00\n    /* \"#utility.yul\":2051:2071   */\n  tag_63\n  tag_64\n  jump\t// in\ntag_63:\n    /* \"#utility.yul\":2041:2071   */\n  swap1\n  pop\n    /* \"#utility.yul\":2080:2113   */\n  tag_65\n    /* \"#utility.yul\":2108:2112   */\n  dup3\n    /* \"#utility.yul\":2100:2106   */\n  dup3\n    /* \"#utility.yul\":2080:2113   */\n  tag_66\n  jump\t// in\ntag_65:\n    /* \"#utility.yul\":2031:2119   */\n  swap2\n  swap1\n  pop\n  jump\t// out\n    /* \"#utility.yul\":2125:2200   */\ntag_64:\n    /* \"#utility.yul\":2158:2164   */\n  0x00\n    /* \"#utility.yul\":2191:2193   */\n  0x40\n    /* \"#utility.yul\":2185:2194   */\n  mload\n    /* \"#utility.yul\":2175:2194   */\n  swap1\n  pop\n    /* \"#utility.yul\":2165:2200   */\n  swap1\n  jump\t// out\n    /* \"#utility.yul\":2206:2514   */\ntag_36:\n    /* \"#utility.yul\":2268:2272   */\n  0x00\n    /* \"#utility.yul\":2358:2376   */\n  0xffffffffffffffff\n    /* \"#utility.yul\":2350:2356   */\n  dup3\n    /* \"#utility.yul\":2347:2377   */\n  gt\n    /* \"#utility.yul\":2344:2346   */\n  iszero\n  tag_69\n  jumpi\n    /* \"#utility.yul\":2380:2398   */\n  tag_70\n  tag_71\n  jump\t// in\ntag_70:\n    /* \"#utility.yul\":2344:2346   */\ntag_69:\n    /* \"#utility.yul\":2418:2447   */\n  tag_72\n    /* \"#utility.yul\":2440:2446   */\n  dup3\n    /* \"#utility.yul\":2418:2447   */\n  tag_73\n  jump\t// in\ntag_72:\n    /* \"#utility.yul\":2410:2447   */\n  swap1\n  pop\n    /* \"#utility.yul\":2502:2506   */\n  0x20\n    /* \"#utility.yul\":2496:2500   */\n  dup2\n    /* \"#utility.yul\":2492:2507   */\n  add\n    /* \"#utility.yul\":2484:2507   */\n  swap1\n  pop\n    /* \"#utility.yul\":2273:2514   */\n  swap2\n  swap1\n  pop\n  jump\t// out\n    /* \"#utility.yul\":2520:2825   */\ntag_16:\n    /* \"#utility.yul\":2560:2563   */\n  0x00\n    /* \"#utility.yul\":2579:2599   */\n  tag_75\n    /* \"#utility.yul\":2597:2598   */\n  dup3\n    /* \"#utility.yul\":2579:2599   */\n  tag_59\n  jump\t// in\ntag_75:\n    /* \"#utility.yul\":2574:2599   */\n  swap2\n  pop\n    /* \"#utility.yul\":2613:2633   */\n  tag_76\n    /* \"#utility.yul\":2631:2632   */\n  dup4\n    /* \"#utility.yul\":2613:2633   */\n  tag_59\n  jump\t// in\ntag_76:\n    /* \"#utility.yul\":2608:2633   */\n  swap3\n  pop\n    /* \"#utility.yul\":2767:2768   */\n  dup3\n    /* \"#utility.yul\":2699:2765   */\n  0xffffffffffffffffffffffffffffffffffffffffffffffffffffffffffffffff\n    /* \"#utility.yul\":2695:2769   */\n  sub\n    /* \"#utility.yul\":2692:2693   */\n  dup3\n    /* \"#utility.yul\":2689:2770   */\n  gt\n    /* \"#utility.yul\":2686:2688   */\n  iszero\n  tag_77\n  jumpi\n    /* \"#utility.yul\":2773:2791   */\n  tag_78\n  tag_79\n  jump\t// in\ntag_78:\n    /* \"#utility.yul\":2686:2688   */\ntag_77:\n    /* \"#utility.yul\":2817:2818   */\n  dup3\n    /* \"#utility.yul\":2814:2815   */\n  dup3\n    /* \"#utility.yul\":2810:2819   */\n  add\n    /* \"#utility.yul\":2803:2819   */\n  swap1\n  pop\n    /* \"#utility.yul\":2564:2825   */\n  swap3\n  swap2\n  pop\n  pop\n  jump\t// out\n    /* \"#utility.yul\":2831:2927   */\ntag_80:\n    /* \"#utility.yul\":2868:2875   */\n  0x00\n    /* \"#utility.yul\":2897:2921   */\n  tag_82\n    /* \"#utility.yul\":2915:2920   */\n  dup3\n    /* \"#utility.yul\":2897:2921   */\n  tag_83\n  jump\t// in\ntag_82:\n    /* \"#utility.yul\":2886:2921   */\n  swap1\n  pop\n    /* \"#utility.yul\":2876:2927   */\n  swap2\n  swap1\n  pop\n  jump\t// out\n    /* \"#utility.yul\":2933:3059   */\ntag_83:\n    /* \"#utility.yul\":2970:2977   */\n  0x00\n    /* \"#utility.yul\":3010:3052   */\n  0xffffffffffffffffffffffffffffffffffffffff\n    /* \"#utility.yul\":3003:3008   */\n  dup3\n    /* \"#utility.yul\":2999:3053   */\n  and\n    /* \"#utility.yul\":2988:3053   */\n  swap1\n  pop\n    /* \"#utility.yul\":2978:3059   */\n  swap2\n  swap1\n  pop\n  jump\t// out\n    /* \"#utility.yul\":3065:3142   */\ntag_59:\n    /* \"#utility.yul\":3102:3109   */\n  0x00\n    /* \"#utility.yul\":3131:3136   */\n  dup2\n    /* \"#utility.yul\":3120:3136   */\n  swap1\n  pop\n    /* \"#utility.yul\":3110:3142   */\n  swap2\n  swap1\n  pop\n  jump\t// out\n    /* \"#utility.yul\":3148:3455   */\ntag_40:\n    /* \"#utility.yul\":3216:3217   */\n  0x00\n    /* \"#utility.yul\":3226:3339   */\ntag_87:\n    /* \"#utility.yul\":3240:3246   */\n  dup4\n    /* \"#utility.yul\":3237:3238   */\n  dup2\n    /* \"#utility.yul\":3234:3247   */\n  lt\n    /* \"#utility.yul\":3226:3339   */\n  iszero\n  tag_89\n  jumpi\n    /* \"#utility.yul\":3325:3326   */\n  dup1\n    /* \"#utility.yul\":3320:3323   */\n  dup3\n    /* \"#utility.yul\":3316:3327   */\n  add\n    /* \"#utility.yul\":3310:3328   */\n  mload\n    /* \"#utility.yul\":3306:3307   */\n  dup2\n    /* \"#utility.yul\":3301:3304   */\n  dup5\n    /* \"#utility.yul\":3297:3308   */\n  add\n    /* \"#utility.yul\":3290:3329   */\n  mstore\n    /* \"#utility.yul\":3262:3264   */\n  0x20\n    /* \"#utility.yul\":3259:3260   */\n  dup2\n    /* \"#utility.yul\":3255:3265   */\n  add\n    /* \"#utility.yul\":3250:3265   */\n  swap1\n  pop\n    /* \"#utility.yul\":3226:3339   */\n  jump(tag_87)\ntag_89:\n    /* \"#utility.yul\":3357:3363   */\n  dup4\n    /* \"#utility.yul\":3354:3355   */\n  dup2\n    /* \"#utility.yul\":3351:3364   */\n  gt\n    /* \"#utility.yul\":3348:3350   */\n  iszero\n  tag_90\n  jumpi\n    /* \"#utility.yul\":3437:3438   */\n  0x00\n    /* \"#utility.yul\":3428:3434   */\n  dup5\n    /* \"#utility.yul\":3423:3426   */\n  dup5\n    /* \"#utility.yul\":3419:3435   */\n  add\n    /* \"#utility.yul\":3412:3439   */\n  mstore\n    /* \"#utility.yul\":3348:3350   */\ntag_90:\n    /* \"#utility.yul\":3197:3455   */\n  pop\n  pop\n  pop\n  pop\n  jump\t// out\n    /* \"#utility.yul\":3461:3781   */\ntag_21:\n    /* \"#utility.yul\":3505:3511   */\n  0x00\n    /* \"#utility.yul\":3542:3543   */\n  0x02\n    /* \"#utility.yul\":3536:3540   */\n  dup3\n    /* \"#utility.yul\":3532:3544   */\n  div\n    /* \"#utility.yul\":3522:3544   */\n  swap1\n  pop\n    /* \"#utility.yul\":3589:3590   */\n  0x01\n    /* \"#utility.yul\":3583:3587   */\n  dup3\n    /* \"#utility.yul\":3579:3591   */\n  and\n    /* \"#utility.yul\":3610:3628   */\n  dup1\n    /* \"#utility.yul\":3600:3602   */\n  tag_92\n  jumpi\n    /* \"#utility.yul\":3666:3670   */\n  0x7f\n    /* \"#utility.yul\":3658:3664   */\n  dup3\n    /* \"#utility.yul\":3654:3671   */\n  and\n    /* \"#utility.yul\":3644:3671   */\n  swap2\n  pop\n    /* \"#utility.yul\":3600:3602   */\ntag_92:\n    /* \"#utility.yul\":3728:3730   */\n  0x20\n    /* \"#utility.yul\":3720:3726   */\n  dup3\n    /* \"#utility.yul\":3717:3731   */\n  lt\n    /* \"#utility.yul\":3697:3715   */\n  dup2\n    /* \"#utility.yul\":3694:3732   */\n  eq\n    /* \"#utility.yul\":3691:3693   */\n  iszero\n  tag_93\n  jumpi\n    /* \"#utility.yul\":3747:3765   */\n  tag_94\n  tag_95\n  jump\t// in\ntag_94:\n    /* \"#utility.yul\":3691:3693   */\ntag_93:\n    /* \"#utility.yul\":3512:3781   */\n  pop\n  swap2\n  swap1\n  pop\n  jump\t// out\n    /* \"#utility.yul\":3787:4068   */\ntag_66:\n    /* \"#utility.yul\":3870:3897   */\n  tag_97\n    /* \"#utility.yul\":3892:3896   */\n  dup3\n    /* \"#utility.yul\":3870:3897   */\n  tag_73\n  jump\t// in\ntag_97:\n    /* \"#utility.yul\":3862:3868   */\n  dup2\n    /* \"#utility.yul\":3858:3898   */\n  add\n    /* \"#utility.yul\":4000:4006   */\n  dup2\n    /* \"#utility.yul\":3988:3998   */\n  dup2\n    /* \"#utility.yul\":3985:4007   */\n  lt\n    /* \"#utility.yul\":3964:3982   */\n  0xffffffffffffffff\n    /* \"#utility.yul\":3952:3962   */\n  dup3\n    /* \"#utility.yul\":3949:3983   */\n  gt\n    /* \"#utility.yul\":3946:4008   */\n  or\n    /* \"#utility.yul\":3943:3945   */\n  iszero\n  tag_98\n  jumpi\n    /* \"#utility.yul\":4011:4029   */\n  tag_99\n  tag_71\n  jump\t// in\ntag_99:\n    /* \"#utility.yul\":3943:3945   */\ntag_98:\n    /* \"#utility.yul\":4051:4061   */\n  dup1\n    /* \"#utility.yul\":4047:4049   */\n  0x40\n    /* \"#utility.yul\":4040:4062   */\n  mstore\n    /* \"#utility.yul\":3830:4068   */\n  pop\n  pop\n  pop\n  jump\t// out\n    /* \"#utility.yul\":4074:4254   */\ntag_79:\n    /* \"#utility.yul\":4122:4199   */\n  0x4e487b7100000000000000000000000000000000000000000000000000000000\n    /* \"#utility.yul\":4119:4120   */\n  0x00\n    /* \"#utility.yul\":4112:4200   */\n  mstore\n    /* \"#utility.yul\":4219:4223   */\n  0x11\n    /* \"#utility.yul\":4216:4217   */\n  0x04\n    /* \"#utility.yul\":4209:4224   */\n  mstore\n    /* \"#utility.yul\":4243:4247   */\n  0x24\n    /* \"#utility.yul\":4240:4241   */\n  0x00\n    /* \"#utility.yul\":4233:4248   */\n  revert\n    /* \"#utility.yul\":4260:4440   */\ntag_95:\n    /* \"#utility.yul\":4308:4385   */\n  0x4e487b7100000000000000000000000000000000000000000000000000000000\n    /* \"#utility.yul\":4305:4306   */\n  0x00\n    /* \"#utility.yul\":4298:4386   */\n  mstore\n    /* \"#utility.yul\":4405:4409   */\n  0x22\n    /* \"#utility.yul\":4402:4403   */\n  0x04\n    /* \"#utility.yul\":4395:4410   */\n  mstore\n    /* \"#utility.yul\":4429:4433   */\n  0x24\n    /* \"#utility.yul\":4426:4427   */\n  0x00\n    /* \"#utility.yul\":4419:4434   */\n  revert\n    /* \"#utility.yul\":4446:4626   */\ntag_71:\n    /* \"#utility.yul\":4494:4571   */\n  0x4e487b7100000000000000000000000000000000000000000000000000000000\n    /* \"#utility.yul\":4491:4492   */\n  0x00\n    /* \"#utility.yul\":4484:4572   */\n  mstore\n    /* \"#utility.yul\":4591:4595   */\n  0x41\n    /* \"#utility.yul\":4588:4589   */\n  0x04\n    /* \"#utility.yul\":4581:4596   */\n  mstore\n    /* \"#utility.yul\":4615:4619   */\n  0x24\n    /* \"#utility.yul\":4612:4613   */\n  0x00\n    /* \"#utility.yul\":4605:4620   */\n  revert\n    /* \"#utility.yul\":4632:4734   */\ntag_73:\n    /* \"#utility.yul\":4673:4679   */\n  0x00\n    /* \"#utility.yul\":4724:4726   */\n  0x1f\n    /* \"#utility.yul\":4720:4727   */\n  not\n    /* \"#utility.yul\":4715:4717   */\n  0x1f\n    /* \"#utility.yul\":4708:4713   */\n  dup4\n    /* \"#utility.yul\":4704:4718   */\n  add\n    /* \"#utility.yul\":4700:4728   */\n  and\n    /* \"#utility.yul\":4690:4728   */\n  swap1\n  pop\n    /* \"#utility.yul\":4680:4734   */\n  swap2\n  swap1\n  pop\n  jump\t// out\n    /* \"#utility.yul\":4740:4862   */\ntag_44:\n    /* \"#utility.yul\":4813:4837   */\n  tag_105\n    /* \"#utility.yul\":4831:4836   */\n  dup2\n    /* \"#utility.yul\":4813:4837   */\n  tag_80\n  jump\t// in\ntag_105:\n    /* \"#utility.yul\":4806:4811   */\n  dup2\n    /* \"#utility.yul\":4803:4838   */\n  eq\n    /* \"#utility.yul\":4793:4795   */\n  tag_106\n  jumpi\n    /* \"#utility.yul\":4852:4853   */\n  0x00\n    /* \"#utility.yul\":4849:4850   */\n  dup1\n    /* \"#utility.yul\":4842:4854   */\n  revert\n    /* \"#utility.yul\":4793:4795   */\ntag_106:\n    /* \"#utility.yul\":4783:4862   */\n  pop\n  jump\t// out\n    /* \"contracts/PenERC20V2.sol\":90:4603  contract PenERC20V2 is ERC20 {\r... */\ntag_13:\n  dataSize(sub_0)\n  dup1\n  dataOffset(sub_0)\n  0x00\n  codecopy\n  0x00\n  return\nstop\n\nsub_0: assembly {\n        /* \"contracts/PenERC20V2.sol\":90:4603  contract PenERC20V2 is ERC20 {\r... */\n      mstore(0x40, 0x80)\n      callvalue\n      dup1\n      iszero\n      tag_1\n      jumpi\n      0x00\n      dup1\n      revert\n    tag_1:\n      pop\n      jumpi(tag_2, lt(calldatasize, 0x04))\n      shr(0xe0, calldataload(0x00))\n      dup1\n      0x7f93ee98\n      gt\n      tag_22\n      jumpi\n      dup1\n      0xbaeb0718\n      gt\n      tag_23\n      jumpi\n      dup1\n      0xbaeb0718\n      eq\n      tag_17\n      jumpi\n      dup1\n      0xbb47e61a\n      eq\n      tag_18\n      jumpi\n      dup1\n      0xbd6e4e75\n      eq\n      tag_19\n      jumpi\n      dup1\n      0xdd62ed3e\n      eq\n      tag_20\n      jumpi\n      dup1\n      0xf1a19b6c\n      eq\n      tag_21\n      jumpi\n      jump(tag_2)\n    tag_23:\n      dup1\n      0x7f93ee98\n      eq\n      tag_12\n      jumpi\n      dup1\n      0x95d89b41\n      eq\n      tag_13\n      jumpi\n      dup1\n      0xa6c1ba5f\n      eq\n      tag_14\n      jumpi\n      dup1\n      0xa9059cbb\n      eq\n      tag_15\n      jumpi\n      dup1\n      0xb863bd37\n      eq\n      tag_16\n      jumpi\n      jump(tag_2)\n    tag_22:\n      dup1\n      0x313ce567\n      gt\n      tag_24\n      jumpi\n      dup1\n      0x313ce567\n      eq\n      tag_7\n      jumpi\n      dup1\n      0x35edf0b0\n      eq\n      tag_8\n      jumpi\n      dup1\n      0x42966c68\n      eq\n      tag_9\n      jumpi\n      dup1\n      0x6d6ae1a8\n      eq\n      tag_10\n      jumpi\n      dup1\n      0x70a08231\n      eq\n      tag_11\n      jumpi\n      jump(tag_2)\n    tag_24:\n      dup1\n      0x06fdde03\n      eq\n      tag_3\n      jumpi\n      dup1\n      0x095ea7b3\n      eq\n      tag_4\n      jumpi\n      dup1\n      0x18160ddd\n      eq\n      tag_5\n      jumpi\n      dup1\n      0x23b872dd\n      eq\n      tag_6\n      jumpi\n    tag_2:\n      0x00\n      dup1\n      revert\n        /* \"contracts/base/ERC20.sol\":315:333  string public name */\n    tag_3:\n      tag_25\n      tag_26\n      jump\t// in\n    tag_25:\n      mload(0x40)\n      tag_27\n      swap2\n      swap1\n      tag_28\n      jump\t// in\n    tag_27:\n      mload(0x40)\n      dup1\n      swap2\n      sub\n      swap1\n      return\n        /* \"contracts/base/ERC20.sol\":1038:1249  function approve(address spender, uint amount) public override returns (bool) {\r... */\n    tag_4:\n      tag_29\n      0x04\n      dup1\n      calldatasize\n      sub\n      dup2\n      add\n      swap1\n      tag_30\n      swap2\n      swap1\n      tag_31\n      jump\t// in\n    tag_30:\n      tag_32\n      jump\t// in\n    tag_29:\n      mload(0x40)\n      tag_33\n      swap2\n      swap1\n      tag_34\n      jump\t// in\n    tag_33:\n      mload(0x40)\n      dup1\n      swap2\n      sub\n      swap1\n      return\n        /* \"contracts/base/ERC20.sol\":271:306  uint256 public override totalSupply */\n    tag_5:\n      tag_35\n      tag_36\n      jump\t// in\n    tag_35:\n      mload(0x40)\n      tag_37\n      swap2\n      swap1\n      tag_38\n      jump\t// in\n    tag_37:\n      mload(0x40)\n      dup1\n      swap2\n      sub\n      swap1\n      return\n        /* \"contracts/base/ERC20.sol\":1257:1767  function transferFrom(\r... */\n    tag_6:\n      tag_39\n      0x04\n      dup1\n      calldatasize\n      sub\n      dup2\n      add\n      swap1\n      tag_40\n      swap2\n      swap1\n      tag_41\n      jump\t// in\n    tag_40:\n      tag_42\n      jump\t// in\n    tag_39:\n      mload(0x40)\n      tag_43\n      swap2\n      swap1\n      tag_34\n      jump\t// in\n    tag_43:\n      mload(0x40)\n      dup1\n      swap2\n      sub\n      swap1\n      return\n        /* \"contracts/base/ERC20.sol\":367:393  uint8 public decimals = 18 */\n    tag_7:\n      tag_44\n      tag_45\n      jump\t// in\n    tag_44:\n      mload(0x40)\n      tag_46\n      swap2\n      swap1\n      tag_47\n      jump\t// in\n    tag_46:\n      mload(0x40)\n      dup1\n      swap2\n      sub\n      swap1\n      return\n        /* \"contracts/PenERC20V2.sol\":311:359  mapping(address => uint256) public checkinStreak */\n    tag_8:\n      tag_48\n      0x04\n      dup1\n      calldatasize\n      sub\n      dup2\n      add\n      swap1\n      tag_49\n      swap2\n      swap1\n      tag_50\n      jump\t// in\n    tag_49:\n      tag_51\n      jump\t// in\n    tag_48:\n      mload(0x40)\n      tag_52\n      swap2\n      swap1\n      tag_38\n      jump\t// in\n    tag_52:\n      mload(0x40)\n      dup1\n      swap2\n      sub\n      swap1\n      return\n        /* \"contracts/base/ERC20.sol\":1981:2248  function burn(uint256 amount) external {\r... */\n    tag_9:\n      tag_53\n      0x04\n      dup1\n      calldatasize\n      sub\n      dup2\n      add\n      swap1\n      tag_54\n      swap2\n      swap1\n      tag_55\n      jump\t// in\n    tag_54:\n      tag_56\n      jump\t// in\n    tag_53:\n      stop\n        /* \"contracts/PenERC20V2.sol\":2459:4400  function luckyDraw(uint seed) external returns (string memory reward) {\r... */\n    tag_10:\n      tag_57\n      0x04\n      dup1\n      calldatasize\n      sub\n      dup2\n      add\n      swap1\n      tag_58\n      swap2\n      swap1\n      tag_55\n      jump\t// in\n    tag_58:\n      tag_59\n      jump\t// in\n    tag_57:\n      mload(0x40)\n      tag_60\n      swap2\n      swap1\n      tag_28\n      jump\t// in\n    tag_60:\n      mload(0x40)\n      dup1\n      swap2\n      sub\n      swap1\n      return\n        /* \"contracts/base/ERC20.sol\":131:184  mapping(address => uint256) public override balanceOf */\n    tag_11:\n      tag_61\n      0x04\n      dup1\n      calldatasize\n      sub\n      dup2\n      add\n      swap1\n      tag_62\n      swap2\n      swap1\n      tag_50\n      jump\t// in\n    tag_62:\n      tag_63\n      jump\t// in\n    tag_61:\n      mload(0x40)\n      tag_64\n      swap2\n      swap1\n      tag_38\n      jump\t// in\n    tag_64:\n      mload(0x40)\n      dup1\n      swap2\n      sub\n      swap1\n      return\n        /* \"contracts/PenERC20V2.sol\":2271:2320  mapping(address => uint256) public luckyDrawCount */\n    tag_12:\n      tag_65\n      0x04\n      dup1\n      calldatasize\n      sub\n      dup2\n      add\n      swap1\n      tag_66\n      swap2\n      swap1\n      tag_50\n      jump\t// in\n    tag_66:\n      tag_67\n      jump\t// in\n    tag_65:\n      mload(0x40)\n      tag_68\n      swap2\n      swap1\n      tag_38\n      jump\t// in\n    tag_68:\n      mload(0x40)\n      dup1\n      swap2\n      sub\n      swap1\n      return\n        /* \"contracts/base/ERC20.sol\":340:360  string public symbol */\n    tag_13:\n      tag_69\n      tag_70\n      jump\t// in\n    tag_69:\n      mload(0x40)\n      tag_71\n      swap2\n      swap1\n      tag_28\n      jump\t// in\n    tag_71:\n      mload(0x40)\n      dup1\n      swap2\n      sub\n      swap1\n      return\n        /* \"contracts/PenERC20V2.sol\":1540:2082  function getCheckinReward(uint256 oldCheckinStreak) public view returns (uint256) {\r... */\n    tag_14:\n      tag_72\n      0x04\n      dup1\n      calldatasize\n      sub\n      dup2\n      add\n      swap1\n      tag_73\n      swap2\n      swap1\n      tag_55\n      jump\t// in\n    tag_73:\n      tag_74\n      jump\t// in\n    tag_72:\n      mload(0x40)\n      tag_75\n      swap2\n      swap1\n      tag_38\n      jump\t// in\n    tag_75:\n      mload(0x40)\n      dup1\n      swap2\n      sub\n      swap1\n      return\n        /* \"contracts/base/ERC20.sol\":699:1030  function transfer(address recipient, uint amount) public override returns (bool) {\r... */\n    tag_15:\n      tag_76\n      0x04\n      dup1\n      calldatasize\n      sub\n      dup2\n      add\n      swap1\n      tag_77\n      swap2\n      swap1\n      tag_31\n      jump\t// in\n    tag_77:\n      tag_78\n      jump\t// in\n    tag_76:\n      mload(0x40)\n      tag_79\n      swap2\n      swap1\n      tag_34\n      jump\t// in\n    tag_79:\n      mload(0x40)\n      dup1\n      swap2\n      sub\n      swap1\n      return\n        /* \"contracts/PenERC20V2.sol\":4408:4598  function random(uint seed) public view returns (uint) {\r... */\n    tag_16:\n      tag_80\n      0x04\n      dup1\n      calldatasize\n      sub\n      dup2\n      add\n      swap1\n      tag_81\n      swap2\n      swap1\n      tag_55\n      jump\t// in\n    tag_81:\n      tag_82\n      jump\t// in\n    tag_80:\n      mload(0x40)\n      tag_83\n      swap2\n      swap1\n      tag_38\n      jump\t// in\n    tag_83:\n      mload(0x40)\n      dup1\n      swap2\n      sub\n      swap1\n      return\n        /* \"contracts/PenERC20V2.sol\":692:1532  function checkin() external returns (uint256 reward) {\r... */\n    tag_17:\n      tag_84\n      tag_85\n      jump\t// in\n    tag_84:\n      mload(0x40)\n      tag_86\n      swap2\n      swap1\n      tag_38\n      jump\t// in\n    tag_86:\n      mload(0x40)\n      dup1\n      swap2\n      sub\n      swap1\n      return\n        /* \"contracts/PenERC20V2.sol\":395:427  uint256 public checkinBase = 100 */\n    tag_18:\n      tag_87\n      tag_88\n      jump\t// in\n    tag_87:\n      mload(0x40)\n      tag_89\n      swap2\n      swap1\n      tag_38\n      jump\t// in\n    tag_89:\n      mload(0x40)\n      dup1\n      swap2\n      sub\n      swap1\n      return\n        /* \"contracts/PenERC20V2.sol\":2192:2240  mapping(address => uint256) public luckyDrawDate */\n    tag_19:\n      tag_90\n      0x04\n      dup1\n      calldatasize\n      sub\n      dup2\n      add\n      swap1\n      tag_91\n      swap2\n      swap1\n      tag_50\n      jump\t// in\n    tag_91:\n      tag_92\n      jump\t// in\n    tag_90:\n      mload(0x40)\n      tag_93\n      swap2\n      swap1\n      tag_38\n      jump\t// in\n    tag_93:\n      mload(0x40)\n      dup1\n      swap2\n      sub\n      swap1\n      return\n        /* \"contracts/base/ERC20.sol\":191:264  mapping(address => mapping(address => uint256)) public override allowance */\n    tag_20:\n      tag_94\n      0x04\n      dup1\n      calldatasize\n      sub\n      dup2\n      add\n      swap1\n      tag_95\n      swap2\n      swap1\n      tag_96\n      jump\t// in\n    tag_95:\n      tag_97\n      jump\t// in\n    tag_94:\n      mload(0x40)\n      tag_98\n      swap2\n      swap1\n      tag_38\n      jump\t// in\n    tag_98:\n      mload(0x40)\n      dup1\n      swap2\n      sub\n      swap1\n      return\n        /* \"contracts/PenERC20V2.sol\":227:273  mapping(address => uint256) public checkinDate */\n    tag_21:\n      tag_99\n      0x04\n      dup1\n      calldatasize\n      sub\n      dup2\n      add\n      swap1\n      tag_100\n      swap2\n      swap1\n      tag_50\n      jump\t// in\n    tag_100:\n      tag_101\n      jump\t// in\n    tag_99:\n      mload(0x40)\n      tag_102\n      swap2\n      swap1\n      tag_38\n      jump\t// in\n    tag_102:\n      mload(0x40)\n      dup1\n      swap2\n      sub\n      swap1\n      return\n        /* \"contracts/base/ERC20.sol\":315:333  string public name */\n    tag_26:\n      0x03\n      dup1\n      sload\n      tag_103\n      swap1\n      tag_104\n      jump\t// in\n    tag_103:\n      dup1\n      0x1f\n      add\n      0x20\n      dup1\n      swap2\n      div\n      mul\n      0x20\n      add\n      mload(0x40)\n      swap1\n      dup2\n      add\n      0x40\n      mstore\n      dup1\n      swap3\n      swap2\n      swap1\n      dup2\n      dup2\n      mstore\n      0x20\n      add\n      dup3\n      dup1\n      sload\n      tag_105\n      swap1\n      tag_104\n      jump\t// in\n    tag_105:\n      dup1\n      iszero\n      tag_106\n      jumpi\n      dup1\n      0x1f\n      lt\n      tag_107\n      jumpi\n      0x0100\n      dup1\n      dup4\n      sload\n      div\n      mul\n      dup4\n      mstore\n      swap2\n      0x20\n      add\n      swap2\n      jump(tag_106)\n    tag_107:\n      dup3\n      add\n      swap2\n      swap1\n      0x00\n      mstore\n      keccak256(0x00, 0x20)\n      swap1\n    tag_108:\n      dup2\n      sload\n      dup2\n      mstore\n      swap1\n      0x01\n      add\n      swap1\n      0x20\n      add\n      dup1\n      dup4\n      gt\n      tag_108\n      jumpi\n      dup3\n      swap1\n      sub\n      0x1f\n      and\n      dup3\n      add\n      swap2\n    tag_106:\n      pop\n      pop\n      pop\n      pop\n      pop\n      dup2\n      jump\t// out\n        /* \"contracts/base/ERC20.sol\":1038:1249  function approve(address spender, uint amount) public override returns (bool) {\r... */\n    tag_32:\n        /* \"contracts/base/ERC20.sol\":1110:1114  bool */\n      0x00\n        /* \"contracts/base/ERC20.sol\":1160:1166  amount */\n      dup2\n        /* \"contracts/base/ERC20.sol\":1127:1136  allowance */\n      0x01\n        /* \"contracts/base/ERC20.sol\":1127:1148  allowance[msg.sender] */\n      0x00\n        /* \"contracts/base/ERC20.sol\":1137:1147  msg.sender */\n      caller\n        /* \"contracts/base/ERC20.sol\":1127:1148  allowance[msg.sender] */\n      0xffffffffffffffffffffffffffffffffffffffff\n      and\n      0xffffffffffffffffffffffffffffffffffffffff\n      and\n      dup2\n      mstore\n      0x20\n      add\n      swap1\n      dup2\n      mstore\n      0x20\n      add\n      0x00\n      keccak256\n        /* \"contracts/base/ERC20.sol\":1127:1157  allowance[msg.sender][spender] */\n      0x00\n        /* \"contracts/base/ERC20.sol\":1149:1156  spender */\n      dup6\n        /* \"contracts/base/ERC20.sol\":1127:1157  allowance[msg.sender][spender] */\n      0xffffffffffffffffffffffffffffffffffffffff\n      and\n      0xffffffffffffffffffffffffffffffffffffffff\n      and\n      dup2\n      mstore\n      0x20\n      add\n      swap1\n      dup2\n      mstore\n      0x20\n      add\n      0x00\n      keccak256\n        /* \"contracts/base/ERC20.sol\":1127:1166  allowance[msg.sender][spender] = amount */\n      dup2\n      swap1\n      sstore\n      pop\n        /* \"contracts/base/ERC20.sol\":1203:1210  spender */\n      dup3\n        /* \"contracts/base/ERC20.sol\":1182:1219  Approval(msg.sender, spender, amount) */\n      0xffffffffffffffffffffffffffffffffffffffff\n      and\n        /* \"contracts/base/ERC20.sol\":1191:1201  msg.sender */\n      caller\n        /* \"contracts/base/ERC20.sol\":1182:1219  Approval(msg.sender, spender, amount) */\n      0xffffffffffffffffffffffffffffffffffffffff\n      and\n      0x8c5be1e5ebec7d5bd14f71427d1e84f3dd0314c0f7b2291e5b200ac8c7c3b925\n        /* \"contracts/base/ERC20.sol\":1212:1218  amount */\n      dup5\n        /* \"contracts/base/ERC20.sol\":1182:1219  Approval(msg.sender, spender, amount) */\n      mload(0x40)\n      tag_110\n      swap2\n      swap1\n      tag_38\n      jump\t// in\n    tag_110:\n      mload(0x40)\n      dup1\n      swap2\n      sub\n      swap1\n      log3\n        /* \"contracts/base/ERC20.sol\":1237:1241  true */\n      0x01\n        /* \"contracts/base/ERC20.sol\":1230:1241  return true */\n      swap1\n      pop\n        /* \"contracts/base/ERC20.sol\":1038:1249  function approve(address spender, uint amount) public override returns (bool) {\r... */\n      swap3\n      swap2\n      pop\n      pop\n      jump\t// out\n        /* \"contracts/base/ERC20.sol\":271:306  uint256 public override totalSupply */\n    tag_36:\n      sload(0x02)\n      dup2\n      jump\t// out\n        /* \"contracts/base/ERC20.sol\":1257:1767  function transferFrom(\r... */\n    tag_42:\n        /* \"contracts/base/ERC20.sol\":1386:1390  bool */\n      0x00\n        /* \"contracts/base/ERC20.sol\":1432:1438  amount */\n      dup2\n        /* \"contracts/base/ERC20.sol\":1411:1420  balanceOf */\n      0x00\n        /* \"contracts/base/ERC20.sol\":1411:1428  balanceOf[sender] */\n      dup1\n        /* \"contracts/base/ERC20.sol\":1421:1427  sender */\n      dup7\n        /* \"contracts/base/ERC20.sol\":1411:1428  balanceOf[sender] */\n      0xffffffffffffffffffffffffffffffffffffffff\n      and\n      0xffffffffffffffffffffffffffffffffffffffff\n      and\n      dup2\n      mstore\n      0x20\n      add\n      swap1\n      dup2\n      mstore\n      0x20\n      add\n      0x00\n      keccak256\n      sload\n        /* \"contracts/base/ERC20.sol\":1411:1438  balanceOf[sender] >= amount */\n      lt\n      iszero\n        /* \"contracts/base/ERC20.sol\":1403:1470  require(balanceOf[sender] >= amount, \"ERC20: insufficient balance\") */\n      tag_112\n      jumpi\n      mload(0x40)\n      0x08c379a000000000000000000000000000000000000000000000000000000000\n      dup2\n      mstore\n      0x04\n      add\n      tag_113\n      swap1\n      tag_114\n      jump\t// in\n    tag_113:\n      mload(0x40)\n      dup1\n      swap2\n      sub\n      swap1\n      revert\n    tag_112:\n        /* \"contracts/base/ERC20.sol\":1522:1528  amount */\n      dup2\n        /* \"contracts/base/ERC20.sol\":1489:1498  allowance */\n      0x01\n        /* \"contracts/base/ERC20.sol\":1489:1506  allowance[sender] */\n      0x00\n        /* \"contracts/base/ERC20.sol\":1499:1505  sender */\n      dup7\n        /* \"contracts/base/ERC20.sol\":1489:1506  allowance[sender] */\n      0xffffffffffffffffffffffffffffffffffffffff\n      and\n      0xffffffffffffffffffffffffffffffffffffffff\n      and\n      dup2\n      mstore\n      0x20\n      add\n      swap1\n      dup2\n      mstore\n      0x20\n      add\n      0x00\n      keccak256\n        /* \"contracts/base/ERC20.sol\":1489:1518  allowance[sender][msg.sender] */\n      0x00\n        /* \"contracts/base/ERC20.sol\":1507:1517  msg.sender */\n      caller\n        /* \"contracts/base/ERC20.sol\":1489:1518  allowance[sender][msg.sender] */\n      0xffffffffffffffffffffffffffffffffffffffff\n      and\n      0xffffffffffffffffffffffffffffffffffffffff\n      and\n      dup2\n      mstore\n      0x20\n      add\n      swap1\n      dup2\n      mstore\n      0x20\n      add\n      0x00\n      keccak256\n      sload\n        /* \"contracts/base/ERC20.sol\":1489:1528  allowance[sender][msg.sender] >= amount */\n      lt\n      iszero\n        /* \"contracts/base/ERC20.sol\":1481:1557  require(allowance[sender][msg.sender] >= amount, \"ERC20: allowance too low\") */\n      tag_115\n      jumpi\n      mload(0x40)\n      0x08c379a000000000000000000000000000000000000000000000000000000000\n      dup2\n      mstore\n      0x04\n      add\n      tag_116\n      swap1\n      tag_117\n      jump\t// in\n    tag_116:\n      mload(0x40)\n      dup1\n      swap2\n      sub\n      swap1\n      revert\n    tag_115:\n        /* \"contracts/base/ERC20.sol\":1601:1607  amount */\n      dup2\n        /* \"contracts/base/ERC20.sol\":1568:1577  allowance */\n      0x01\n        /* \"contracts/base/ERC20.sol\":1568:1585  allowance[sender] */\n      0x00\n        /* \"contracts/base/ERC20.sol\":1578:1584  sender */\n      dup7\n        /* \"contracts/base/ERC20.sol\":1568:1585  allowance[sender] */\n      0xffffffffffffffffffffffffffffffffffffffff\n      and\n      0xffffffffffffffffffffffffffffffffffffffff\n      and\n      dup2\n      mstore\n      0x20\n      add\n      swap1\n      dup2\n      mstore\n      0x20\n      add\n      0x00\n      keccak256\n        /* \"contracts/base/ERC20.sol\":1568:1597  allowance[sender][msg.sender] */\n      0x00\n        /* \"contracts/base/ERC20.sol\":1586:1596  msg.sender */\n      caller\n        /* \"contracts/base/ERC20.sol\":1568:1597  allowance[sender][msg.sender] */\n      0xffffffffffffffffffffffffffffffffffffffff\n      and\n      0xffffffffffffffffffffffffffffffffffffffff\n      and\n      dup2\n      mstore\n      0x20\n      add\n      swap1\n      dup2\n      mstore\n      0x20\n      add\n      0x00\n      keccak256\n      0x00\n        /* \"contracts/base/ERC20.sol\":1568:1607  allowance[sender][msg.sender] -= amount */\n      dup3\n      dup3\n      sload\n      tag_118\n      swap2\n      swap1\n      tag_119\n      jump\t// in\n    tag_118:\n      swap3\n      pop\n      pop\n      dup2\n      swap1\n      sstore\n      pop\n        /* \"contracts/base/ERC20.sol\":1639:1645  amount */\n      dup2\n        /* \"contracts/base/ERC20.sol\":1618:1627  balanceOf */\n      0x00\n        /* \"contracts/base/ERC20.sol\":1618:1635  balanceOf[sender] */\n      dup1\n        /* \"contracts/base/ERC20.sol\":1628:1634  sender */\n      dup7\n        /* \"contracts/base/ERC20.sol\":1618:1635  balanceOf[sender] */\n      0xffffffffffffffffffffffffffffffffffffffff\n      and\n      0xffffffffffffffffffffffffffffffffffffffff\n      and\n      dup2\n      mstore\n      0x20\n      add\n      swap1\n      dup2\n      mstore\n      0x20\n      add\n      0x00\n      keccak256\n      0x00\n        /* \"contracts/base/ERC20.sol\":1618:1645  balanceOf[sender] -= amount */\n      dup3\n      dup3\n      sload\n      tag_120\n      swap2\n      swap1\n      tag_119\n      jump\t// in\n    tag_120:\n      swap3\n      pop\n      pop\n      dup2\n      swap1\n      sstore\n      pop\n        /* \"contracts/base/ERC20.sol\":1680:1686  amount */\n      dup2\n        /* \"contracts/base/ERC20.sol\":1656:1665  balanceOf */\n      0x00\n        /* \"contracts/base/ERC20.sol\":1656:1676  balanceOf[recipient] */\n      dup1\n        /* \"contracts/base/ERC20.sol\":1666:1675  recipient */\n      dup6\n        /* \"contracts/base/ERC20.sol\":1656:1676  balanceOf[recipient] */\n      0xffffffffffffffffffffffffffffffffffffffff\n      and\n      0xffffffffffffffffffffffffffffffffffffffff\n      and\n      dup2\n      mstore\n      0x20\n      add\n      swap1\n      dup2\n      mstore\n      0x20\n      add\n      0x00\n      keccak256\n      0x00\n        /* \"contracts/base/ERC20.sol\":1656:1686  balanceOf[recipient] += amount */\n      dup3\n      dup3\n      sload\n      tag_121\n      swap2\n      swap1\n      tag_122\n      jump\t// in\n    tag_121:\n      swap3\n      pop\n      pop\n      dup2\n      swap1\n      sstore\n      pop\n        /* \"contracts/base/ERC20.sol\":1719:1728  recipient */\n      dup3\n        /* \"contracts/base/ERC20.sol\":1702:1737  Transfer(sender, recipient, amount) */\n      0xffffffffffffffffffffffffffffffffffffffff\n      and\n        /* \"contracts/base/ERC20.sol\":1711:1717  sender */\n      dup5\n        /* \"contracts/base/ERC20.sol\":1702:1737  Transfer(sender, recipient, amount) */\n      0xffffffffffffffffffffffffffffffffffffffff\n      and\n      0xddf252ad1be2c89b69c2b068fc378daa952ba7f163c4a11628f55a4df523b3ef\n        /* \"contracts/base/ERC20.sol\":1730:1736  amount */\n      dup5\n        /* \"contracts/base/ERC20.sol\":1702:1737  Transfer(sender, recipient, amount) */\n      mload(0x40)\n      tag_123\n      swap2\n      swap1\n      tag_38\n      jump\t// in\n    tag_123:\n      mload(0x40)\n      dup1\n      swap2\n      sub\n      swap1\n      log3\n        /* \"contracts/base/ERC20.sol\":1755:1759  true */\n      0x01\n        /* \"contracts/base/ERC20.sol\":1748:1759  return true */\n      swap1\n      pop\n        /* \"contracts/base/ERC20.sol\":1257:1767  function transferFrom(\r... */\n      swap4\n      swap3\n      pop\n      pop\n      pop\n      jump\t// out\n        /* \"contracts/base/ERC20.sol\":367:393  uint8 public decimals = 18 */\n    tag_45:\n      0x05\n      0x00\n      swap1\n      sload\n      swap1\n      0x0100\n      exp\n      swap1\n      div\n      0xff\n      and\n      dup2\n      jump\t// out\n        /* \"contracts/PenERC20V2.sol\":311:359  mapping(address => uint256) public checkinStreak */\n    tag_51:\n      mstore(0x20, 0x07)\n      dup1\n      0x00\n      mstore\n      keccak256(0x00, 0x40)\n      0x00\n      swap2\n      pop\n      swap1\n      pop\n      sload\n      dup2\n      jump\t// out\n        /* \"contracts/base/ERC20.sol\":1981:2248  function burn(uint256 amount) external {\r... */\n    tag_56:\n        /* \"contracts/base/ERC20.sol\":2064:2070  amount */\n      dup1\n        /* \"contracts/base/ERC20.sol\":2039:2048  balanceOf */\n      0x00\n        /* \"contracts/base/ERC20.sol\":2039:2060  balanceOf[msg.sender] */\n      dup1\n        /* \"contracts/base/ERC20.sol\":2049:2059  msg.sender */\n      caller\n        /* \"contracts/base/ERC20.sol\":2039:2060  balanceOf[msg.sender] */\n      0xffffffffffffffffffffffffffffffffffffffff\n      and\n      0xffffffffffffffffffffffffffffffffffffffff\n      and\n      dup2\n      mstore\n      0x20\n      add\n      swap1\n      dup2\n      mstore\n      0x20\n      add\n      0x00\n      keccak256\n      sload\n        /* \"contracts/base/ERC20.sol\":2039:2070  balanceOf[msg.sender] >= amount */\n      lt\n      iszero\n        /* \"contracts/base/ERC20.sol\":2031:2110  require(balanceOf[msg.sender] >= amount, \"ERC20: insufficient balance to burn\") */\n      tag_125\n      jumpi\n      mload(0x40)\n      0x08c379a000000000000000000000000000000000000000000000000000000000\n      dup2\n      mstore\n      0x04\n      add\n      tag_126\n      swap1\n      tag_127\n      jump\t// in\n    tag_126:\n      mload(0x40)\n      dup1\n      swap2\n      sub\n      swap1\n      revert\n    tag_125:\n        /* \"contracts/base/ERC20.sol\":2146:2152  amount */\n      dup1\n        /* \"contracts/base/ERC20.sol\":2121:2130  balanceOf */\n      0x00\n        /* \"contracts/base/ERC20.sol\":2121:2142  balanceOf[msg.sender] */\n      dup1\n        /* \"contracts/base/ERC20.sol\":2131:2141  msg.sender */\n      caller\n        /* \"contracts/base/ERC20.sol\":2121:2142  balanceOf[msg.sender] */\n      0xffffffffffffffffffffffffffffffffffffffff\n      and\n      0xffffffffffffffffffffffffffffffffffffffff\n      and\n      dup2\n      mstore\n      0x20\n      add\n      swap1\n      dup2\n      mstore\n      0x20\n      add\n      0x00\n      keccak256\n      0x00\n        /* \"contracts/base/ERC20.sol\":2121:2152  balanceOf[msg.sender] -= amount */\n      dup3\n      dup3\n      sload\n      tag_128\n      swap2\n      swap1\n      tag_119\n      jump\t// in\n    tag_128:\n      swap3\n      pop\n      pop\n      dup2\n      swap1\n      sstore\n      pop\n        /* \"contracts/base/ERC20.sol\":2178:2184  amount */\n      dup1\n        /* \"contracts/base/ERC20.sol\":2163:2174  totalSupply */\n      0x02\n      0x00\n        /* \"contracts/base/ERC20.sol\":2163:2184  totalSupply -= amount */\n      dup3\n      dup3\n      sload\n      tag_129\n      swap2\n      swap1\n      tag_119\n      jump\t// in\n    tag_129:\n      swap3\n      pop\n      pop\n      dup2\n      swap1\n      sstore\n      pop\n        /* \"contracts/base/ERC20.sol\":2229:2230  0 */\n      0x00\n        /* \"contracts/base/ERC20.sol\":2200:2240  Transfer(msg.sender, address(0), amount) */\n      0xffffffffffffffffffffffffffffffffffffffff\n      and\n        /* \"contracts/base/ERC20.sol\":2209:2219  msg.sender */\n      caller\n        /* \"contracts/base/ERC20.sol\":2200:2240  Transfer(msg.sender, address(0), amount) */\n      0xffffffffffffffffffffffffffffffffffffffff\n      and\n      0xddf252ad1be2c89b69c2b068fc378daa952ba7f163c4a11628f55a4df523b3ef\n        /* \"contracts/base/ERC20.sol\":2233:2239  amount */\n      dup4\n        /* \"contracts/base/ERC20.sol\":2200:2240  Transfer(msg.sender, address(0), amount) */\n      mload(0x40)\n      tag_130\n      swap2\n      swap1\n      tag_38\n      jump\t// in\n    tag_130:\n      mload(0x40)\n      dup1\n      swap2\n      sub\n      swap1\n      log3\n        /* \"contracts/base/ERC20.sol\":1981:2248  function burn(uint256 amount) external {\r... */\n      pop\n      jump\t// out\n        /* \"contracts/PenERC20V2.sol\":2459:4400  function luckyDraw(uint seed) external returns (string memory reward) {\r... */\n    tag_59:\n        /* \"contracts/PenERC20V2.sol\":2507:2527  string memory reward */\n      0x60\n        /* \"contracts/PenERC20V2.sol\":2540:2553  uint256 today */\n      0x00\n        /* \"contracts/PenERC20V2.sol\":2586:2592  1 days */\n      0x015180\n        /* \"contracts/PenERC20V2.sol\":2575:2582  8 hours */\n      0x7080\n        /* \"contracts/PenERC20V2.sol\":2557:2572  block.timestamp */\n      timestamp\n        /* \"contracts/PenERC20V2.sol\":2557:2582  block.timestamp + 8 hours */\n      tag_132\n      swap2\n      swap1\n      tag_122\n      jump\t// in\n    tag_132:\n        /* \"contracts/PenERC20V2.sol\":2556:2592  (block.timestamp + 8 hours) / 1 days */\n      tag_133\n      swap2\n      swap1\n      tag_134\n      jump\t// in\n    tag_133:\n        /* \"contracts/PenERC20V2.sol\":2540:2592  uint256 today = (block.timestamp + 8 hours) / 1 days */\n      swap1\n      pop\n        /* \"contracts/PenERC20V2.sol\":2603:2615  uint256 cost */\n      0x00\n        /* \"contracts/PenERC20V2.sol\":2719:2724  today */\n      dup2\n        /* \"contracts/PenERC20V2.sol\":2691:2704  luckyDrawDate */\n      0x09\n        /* \"contracts/PenERC20V2.sol\":2691:2716  luckyDrawDate[msg.sender] */\n      0x00\n        /* \"contracts/PenERC20V2.sol\":2705:2715  msg.sender */\n      caller\n        /* \"contracts/PenERC20V2.sol\":2691:2716  luckyDrawDate[msg.sender] */\n      0xffffffffffffffffffffffffffffffffffffffff\n      and\n      0xffffffffffffffffffffffffffffffffffffffff\n      and\n      dup2\n      mstore\n      0x20\n      add\n      swap1\n      dup2\n      mstore\n      0x20\n      add\n      0x00\n      keccak256\n      sload\n        /* \"contracts/PenERC20V2.sol\":2691:2724  luckyDrawDate[msg.sender] < today */\n      lt\n        /* \"contracts/PenERC20V2.sol\":2687:2831  if (luckyDrawDate[msg.sender] < today) {\r... */\n      iszero\n      tag_135\n      jumpi\n        /* \"contracts/PenERC20V2.sol\":2769:2774  today */\n      dup2\n        /* \"contracts/PenERC20V2.sol\":2741:2754  luckyDrawDate */\n      0x09\n        /* \"contracts/PenERC20V2.sol\":2741:2766  luckyDrawDate[msg.sender] */\n      0x00\n        /* \"contracts/PenERC20V2.sol\":2755:2765  msg.sender */\n      caller\n        /* \"contracts/PenERC20V2.sol\":2741:2766  luckyDrawDate[msg.sender] */\n      0xffffffffffffffffffffffffffffffffffffffff\n      and\n      0xffffffffffffffffffffffffffffffffffffffff\n      and\n      dup2\n      mstore\n      0x20\n      add\n      swap1\n      dup2\n      mstore\n      0x20\n      add\n      0x00\n      keccak256\n        /* \"contracts/PenERC20V2.sol\":2741:2774  luckyDrawDate[msg.sender] = today */\n      dup2\n      swap1\n      sstore\n      pop\n        /* \"contracts/PenERC20V2.sol\":2818:2819  0 */\n      0x00\n        /* \"contracts/PenERC20V2.sol\":2789:2803  luckyDrawCount */\n      0x0a\n        /* \"contracts/PenERC20V2.sol\":2789:2815  luckyDrawCount[msg.sender] */\n      0x00\n        /* \"contracts/PenERC20V2.sol\":2804:2814  msg.sender */\n      caller\n        /* \"contracts/PenERC20V2.sol\":2789:2815  luckyDrawCount[msg.sender] */\n      0xffffffffffffffffffffffffffffffffffffffff\n      and\n      0xffffffffffffffffffffffffffffffffffffffff\n      and\n      dup2\n      mstore\n      0x20\n      add\n      swap1\n      dup2\n      mstore\n      0x20\n      add\n      0x00\n      keccak256\n        /* \"contracts/PenERC20V2.sol\":2789:2819  luckyDrawCount[msg.sender] = 0 */\n      dup2\n      swap1\n      sstore\n      pop\n        /* \"contracts/PenERC20V2.sol\":2687:2831  if (luckyDrawDate[msg.sender] < today) {\r... */\n    tag_135:\n        /* \"contracts/PenERC20V2.sol\":2880:2881  3 */\n      0x03\n        /* \"contracts/PenERC20V2.sol\":2851:2865  luckyDrawCount */\n      0x0a\n        /* \"contracts/PenERC20V2.sol\":2851:2877  luckyDrawCount[msg.sender] */\n      0x00\n        /* \"contracts/PenERC20V2.sol\":2866:2876  msg.sender */\n      caller\n        /* \"contracts/PenERC20V2.sol\":2851:2877  luckyDrawCount[msg.sender] */\n      0xffffffffffffffffffffffffffffffffffffffff\n      and\n      0xffffffffffffffffffffffffffffffffffffffff\n      and\n      dup2\n      mstore\n      0x20\n      add\n      swap1\n      dup2\n      mstore\n      0x20\n      add\n      0x00\n      keccak256\n      sload\n        /* \"contracts/PenERC20V2.sol\":2851:2881  luckyDrawCount[msg.sender] < 3 */\n      lt\n        /* \"contracts/PenERC20V2.sol\":2843:2905  require(luckyDrawCount[msg.sender] < 3, \"Max 3 draws per day\") */\n      tag_136\n      jumpi\n      mload(0x40)\n      0x08c379a000000000000000000000000000000000000000000000000000000000\n      dup2\n      mstore\n      0x04\n      add\n      tag_137\n      swap1\n      tag_138\n      jump\t// in\n    tag_137:\n      mload(0x40)\n      dup1\n      swap2\n      sub\n      swap1\n      revert\n    tag_136:\n        /* \"contracts/PenERC20V2.sol\":2989:2990  1 */\n      0x01\n        /* \"contracts/PenERC20V2.sol\":2959:2973  luckyDrawCount */\n      0x0a\n        /* \"contracts/PenERC20V2.sol\":2959:2985  luckyDrawCount[msg.sender] */\n      0x00\n        /* \"contracts/PenERC20V2.sol\":2974:2984  msg.sender */\n      caller\n        /* \"contracts/PenERC20V2.sol\":2959:2985  luckyDrawCount[msg.sender] */\n      0xffffffffffffffffffffffffffffffffffffffff\n      and\n      0xffffffffffffffffffffffffffffffffffffffff\n      and\n      dup2\n      mstore\n      0x20\n      add\n      swap1\n      dup2\n      mstore\n      0x20\n      add\n      0x00\n      keccak256\n      sload\n        /* \"contracts/PenERC20V2.sol\":2959:2990  luckyDrawCount[msg.sender] == 1 */\n      eq\n        /* \"contracts/PenERC20V2.sol\":2955:3595  if (luckyDrawCount[msg.sender] == 1) {\r... */\n      iszero\n      tag_139\n      jumpi\n        /* \"contracts/PenERC20V2.sol\":3034:3042  decimals */\n      0x05\n      0x00\n      swap1\n      sload\n      swap1\n      0x0100\n      exp\n      swap1\n      div\n      0xff\n      and\n        /* \"contracts/PenERC20V2.sol\":3026:3043  uint256(decimals) */\n      0xff\n      and\n        /* \"contracts/PenERC20V2.sol\":3020:3022  10 */\n      0x0a\n        /* \"contracts/PenERC20V2.sol\":3020:3043  10 ** uint256(decimals) */\n      tag_140\n      swap2\n      swap1\n      tag_141\n      jump\t// in\n    tag_140:\n        /* \"contracts/PenERC20V2.sol\":3014:3017  100 */\n      0x64\n        /* \"contracts/PenERC20V2.sol\":3014:3043  100 * 10 ** uint256(decimals) */\n      tag_142\n      swap2\n      swap1\n      tag_143\n      jump\t// in\n    tag_142:\n        /* \"contracts/PenERC20V2.sol\":3007:3043  cost = 100 * 10 ** uint256(decimals) */\n      swap1\n      pop\n        /* \"contracts/PenERC20V2.sol\":3091:3095  cost */\n      dup1\n        /* \"contracts/PenERC20V2.sol\":3066:3075  balanceOf */\n      0x00\n        /* \"contracts/PenERC20V2.sol\":3066:3087  balanceOf[msg.sender] */\n      dup1\n        /* \"contracts/PenERC20V2.sol\":3076:3086  msg.sender */\n      caller\n        /* \"contracts/PenERC20V2.sol\":3066:3087  balanceOf[msg.sender] */\n      0xffffffffffffffffffffffffffffffffffffffff\n      and\n      0xffffffffffffffffffffffffffffffffffffffff\n      and\n      dup2\n      mstore\n      0x20\n      add\n      swap1\n      dup2\n      mstore\n      0x20\n      add\n      0x00\n      keccak256\n      sload\n        /* \"contracts/PenERC20V2.sol\":3066:3095  balanceOf[msg.sender] >= cost */\n      lt\n      iszero\n        /* \"contracts/PenERC20V2.sol\":3058:3114  require(balanceOf[msg.sender] >= cost, \"Not enough PEN\") */\n      tag_144\n      jumpi\n      mload(0x40)\n      0x08c379a000000000000000000000000000000000000000000000000000000000\n      dup2\n      mstore\n      0x04\n      add\n      tag_145\n      swap1\n      tag_146\n      jump\t// in\n    tag_145:\n      mload(0x40)\n      dup1\n      swap2\n      sub\n      swap1\n      revert\n    tag_144:\n        /* \"contracts/PenERC20V2.sol\":3154:3158  cost */\n      dup1\n        /* \"contracts/PenERC20V2.sol\":3129:3138  balanceOf */\n      0x00\n        /* \"contracts/PenERC20V2.sol\":3129:3150  balanceOf[msg.sender] */\n      dup1\n        /* \"contracts/PenERC20V2.sol\":3139:3149  msg.sender */\n      caller\n        /* \"contracts/PenERC20V2.sol\":3129:3150  balanceOf[msg.sender] */\n      0xffffffffffffffffffffffffffffffffffffffff\n      and\n      0xffffffffffffffffffffffffffffffffffffffff\n      and\n      dup2\n      mstore\n      0x20\n      add\n      swap1\n      dup2\n      mstore\n      0x20\n      add\n      0x00\n      keccak256\n      0x00\n        /* \"contracts/PenERC20V2.sol\":3129:3158  balanceOf[msg.sender] -= cost */\n      dup3\n      dup3\n      sload\n      tag_147\n      swap2\n      swap1\n      tag_119\n      jump\t// in\n    tag_147:\n      swap3\n      pop\n      pop\n      dup2\n      swap1\n      sstore\n      pop\n        /* \"contracts/PenERC20V2.sol\":3188:3192  cost */\n      dup1\n        /* \"contracts/PenERC20V2.sol\":3173:3184  totalSupply */\n      0x02\n      0x00\n        /* \"contracts/PenERC20V2.sol\":3173:3192  totalSupply -= cost */\n      dup3\n      dup3\n      sload\n      tag_148\n      swap2\n      swap1\n      tag_119\n      jump\t// in\n    tag_148:\n      swap3\n      pop\n      pop\n      dup2\n      swap1\n      sstore\n      pop\n        /* \"contracts/PenERC20V2.sol\":3251:3252  0 */\n      0x00\n        /* \"contracts/PenERC20V2.sol\":3222:3260  Transfer(msg.sender, address(0), cost) */\n      0xffffffffffffffffffffffffffffffffffffffff\n      and\n        /* \"contracts/PenERC20V2.sol\":3231:3241  msg.sender */\n      caller\n        /* \"contracts/PenERC20V2.sol\":3222:3260  Transfer(msg.sender, address(0), cost) */\n      0xffffffffffffffffffffffffffffffffffffffff\n      and\n      0xddf252ad1be2c89b69c2b068fc378daa952ba7f163c4a11628f55a4df523b3ef\n        /* \"contracts/PenERC20V2.sol\":3255:3259  cost */\n      dup4\n        /* \"contracts/PenERC20V2.sol\":3222:3260  Transfer(msg.sender, address(0), cost) */\n      mload(0x40)\n      tag_149\n      swap2\n      swap1\n      tag_38\n      jump\t// in\n    tag_149:\n      mload(0x40)\n      dup1\n      swap2\n      sub\n      swap1\n      log3\n        /* \"contracts/PenERC20V2.sol\":2955:3595  if (luckyDrawCount[msg.sender] == 1) {\r... */\n      jump(tag_150)\n    tag_139:\n        /* \"contracts/PenERC20V2.sol\":3312:3313  2 */\n      0x02\n        /* \"contracts/PenERC20V2.sol\":3282:3296  luckyDrawCount */\n      0x0a\n        /* \"contracts/PenERC20V2.sol\":3282:3308  luckyDrawCount[msg.sender] */\n      0x00\n        /* \"contracts/PenERC20V2.sol\":3297:3307  msg.sender */\n      caller\n        /* \"contracts/PenERC20V2.sol\":3282:3308  luckyDrawCount[msg.sender] */\n      0xffffffffffffffffffffffffffffffffffffffff\n      and\n      0xffffffffffffffffffffffffffffffffffffffff\n      and\n      dup2\n      mstore\n      0x20\n      add\n      swap1\n      dup2\n      mstore\n      0x20\n      add\n      0x00\n      keccak256\n      sload\n        /* \"contracts/PenERC20V2.sol\":3282:3313  luckyDrawCount[msg.sender] == 2 */\n      eq\n        /* \"contracts/PenERC20V2.sol\":3278:3595  if (luckyDrawCount[msg.sender] == 2) {\r... */\n      iszero\n      tag_151\n      jumpi\n        /* \"contracts/PenERC20V2.sol\":3357:3365  decimals */\n      0x05\n      0x00\n      swap1\n      sload\n      swap1\n      0x0100\n      exp\n      swap1\n      div\n      0xff\n      and\n        /* \"contracts/PenERC20V2.sol\":3349:3366  uint256(decimals) */\n      0xff\n      and\n        /* \"contracts/PenERC20V2.sol\":3343:3345  10 */\n      0x0a\n        /* \"contracts/PenERC20V2.sol\":3343:3366  10 ** uint256(decimals) */\n      tag_152\n      swap2\n      swap1\n      tag_141\n      jump\t// in\n    tag_152:\n        /* \"contracts/PenERC20V2.sol\":3337:3340  200 */\n      0xc8\n        /* \"contracts/PenERC20V2.sol\":3337:3366  200 * 10 ** uint256(decimals) */\n      tag_153\n      swap2\n      swap1\n      tag_143\n      jump\t// in\n    tag_153:\n        /* \"contracts/PenERC20V2.sol\":3330:3366  cost = 200 * 10 ** uint256(decimals) */\n      swap1\n      pop\n        /* \"contracts/PenERC20V2.sol\":3414:3418  cost */\n      dup1\n        /* \"contracts/PenERC20V2.sol\":3389:3398  balanceOf */\n      0x00\n        /* \"contracts/PenERC20V2.sol\":3389:3410  balanceOf[msg.sender] */\n      dup1\n        /* \"contracts/PenERC20V2.sol\":3399:3409  msg.sender */\n      caller\n        /* \"contracts/PenERC20V2.sol\":3389:3410  balanceOf[msg.sender] */\n      0xffffffffffffffffffffffffffffffffffffffff\n      and\n      0xffffffffffffffffffffffffffffffffffffffff\n      and\n      dup2\n      mstore\n      0x20\n      add\n      swap1\n      dup2\n      mstore\n      0x20\n      add\n      0x00\n      keccak256\n      sload\n        /* \"contracts/PenERC20V2.sol\":3389:3418  balanceOf[msg.sender] >= cost */\n      lt\n      iszero\n        /* \"contracts/PenERC20V2.sol\":3381:3437  require(balanceOf[msg.sender] >= cost, \"Not enough PEN\") */\n      tag_154\n      jumpi\n      mload(0x40)\n      0x08c379a000000000000000000000000000000000000000000000000000000000\n      dup2\n      mstore\n      0x04\n      add\n      tag_155\n      swap1\n      tag_146\n      jump\t// in\n    tag_155:\n      mload(0x40)\n      dup1\n      swap2\n      sub\n      swap1\n      revert\n    tag_154:\n        /* \"contracts/PenERC20V2.sol\":3477:3481  cost */\n      dup1\n        /* \"contracts/PenERC20V2.sol\":3452:3461  balanceOf */\n      0x00\n        /* \"contracts/PenERC20V2.sol\":3452:3473  balanceOf[msg.sender] */\n      dup1\n        /* \"contracts/PenERC20V2.sol\":3462:3472  msg.sender */\n      caller\n        /* \"contracts/PenERC20V2.sol\":3452:3473  balanceOf[msg.sender] */\n      0xffffffffffffffffffffffffffffffffffffffff\n      and\n      0xffffffffffffffffffffffffffffffffffffffff\n      and\n      dup2\n      mstore\n      0x20\n      add\n      swap1\n      dup2\n      mstore\n      0x20\n      add\n      0x00\n      keccak256\n      0x00\n        /* \"contracts/PenERC20V2.sol\":3452:3481  balanceOf[msg.sender] -= cost */\n      dup3\n      dup3\n      sload\n      tag_156\n      swap2\n      swap1\n      tag_119\n      jump\t// in\n    tag_156:\n      swap3\n      pop\n      pop\n      dup2\n      swap1\n      sstore\n      pop\n        /* \"contracts/PenERC20V2.sol\":3511:3515  cost */\n      dup1\n        /* \"contracts/PenERC20V2.sol\":3496:3507  totalSupply */\n      0x02\n      0x00\n        /* \"contracts/PenERC20V2.sol\":3496:3515  totalSupply -= cost */\n      dup3\n      dup3\n      sload\n      tag_157\n      swap2\n      swap1\n      tag_119\n      jump\t// in\n    tag_157:\n      swap3\n      pop\n      pop\n      dup2\n      swap1\n      sstore\n      pop\n        /* \"contracts/PenERC20V2.sol\":3574:3575  0 */\n      0x00\n        /* \"contracts/PenERC20V2.sol\":3545:3583  Transfer(msg.sender, address(0), cost) */\n      0xffffffffffffffffffffffffffffffffffffffff\n      and\n        /* \"contracts/PenERC20V2.sol\":3554:3564  msg.sender */\n      caller\n        /* \"contracts/PenERC20V2.sol\":3545:3583  Transfer(msg.sender, address(0), cost) */\n      0xffffffffffffffffffffffffffffffffffffffff\n      and\n      0xddf252ad1be2c89b69c2b068fc378daa952ba7f163c4a11628f55a4df523b3ef\n        /* \"contracts/PenERC20V2.sol\":3578:3582  cost */\n      dup4\n        /* \"contracts/PenERC20V2.sol\":3545:3583  Transfer(msg.sender, address(0), cost) */\n      mload(0x40)\n      tag_158\n      swap2\n      swap1\n      tag_38\n      jump\t// in\n    tag_158:\n      mload(0x40)\n      dup1\n      swap2\n      sub\n      swap1\n      log3\n        /* \"contracts/PenERC20V2.sol\":3278:3595  if (luckyDrawCount[msg.sender] == 2) {\r... */\n    tag_151:\n        /* \"contracts/PenERC20V2.sol\":2955:3595  if (luckyDrawCount[msg.sender] == 1) {\r... */\n    tag_150:\n        /* \"contracts/PenERC20V2.sol\":3635:3636  1 */\n      0x01\n        /* \"contracts/PenERC20V2.sol\":3605:3619  luckyDrawCount */\n      0x0a\n        /* \"contracts/PenERC20V2.sol\":3605:3631  luckyDrawCount[msg.sender] */\n      0x00\n        /* \"contracts/PenERC20V2.sol\":3620:3630  msg.sender */\n      caller\n        /* \"contracts/PenERC20V2.sol\":3605:3631  luckyDrawCount[msg.sender] */\n      0xffffffffffffffffffffffffffffffffffffffff\n      and\n      0xffffffffffffffffffffffffffffffffffffffff\n      and\n      dup2\n      mstore\n      0x20\n      add\n      swap1\n      dup2\n      mstore\n      0x20\n      add\n      0x00\n      keccak256\n      0x00\n        /* \"contracts/PenERC20V2.sol\":3605:3636  luckyDrawCount[msg.sender] += 1 */\n      dup3\n      dup3\n      sload\n      tag_159\n      swap2\n      swap1\n      tag_122\n      jump\t// in\n    tag_159:\n      swap3\n      pop\n      pop\n      dup2\n      swap1\n      sstore\n      pop\n        /* \"contracts/PenERC20V2.sol\":3674:3683  uint code */\n      0x00\n        /* \"contracts/PenERC20V2.sol\":3708:3709  1 */\n      0x01\n        /* \"contracts/PenERC20V2.sol\":3702:3705  100 */\n      0x64\n        /* \"contracts/PenERC20V2.sol\":3687:3699  random(seed) */\n      tag_160\n        /* \"contracts/PenERC20V2.sol\":3694:3698  seed */\n      dup8\n        /* \"contracts/PenERC20V2.sol\":3687:3693  random */\n      tag_82\n        /* \"contracts/PenERC20V2.sol\":3687:3699  random(seed) */\n      jump\t// in\n    tag_160:\n        /* \"contracts/PenERC20V2.sol\":3687:3705  random(seed) % 100 */\n      tag_161\n      swap2\n      swap1\n      tag_162\n      jump\t// in\n    tag_161:\n        /* \"contracts/PenERC20V2.sol\":3687:3709  random(seed) % 100 + 1 */\n      tag_163\n      swap2\n      swap1\n      tag_122\n      jump\t// in\n    tag_163:\n        /* \"contracts/PenERC20V2.sol\":3674:3710  uint code = (random(seed) % 100 + 1) */\n      swap1\n      pop\n        /* \"contracts/PenERC20V2.sol\":3737:3738  1 */\n      0x01\n        /* \"contracts/PenERC20V2.sol\":3729:3733  code */\n      dup2\n        /* \"contracts/PenERC20V2.sol\":3729:3738  code <= 1 */\n      gt\n        /* \"contracts/PenERC20V2.sol\":3725:4340  if (code <= 1) {\r... */\n      tag_164\n      jumpi\n        /* \"contracts/PenERC20V2.sol\":3755:3771  reward = \"token\" */\n      mload(0x40)\n      dup1\n      0x40\n      add\n      0x40\n      mstore\n      dup1\n      0x05\n      dup2\n      mstore\n      0x20\n      add\n      0x746f6b656e000000000000000000000000000000000000000000000000000000\n      dup2\n      mstore\n      pop\n      swap4\n      pop\n        /* \"contracts/PenERC20V2.sol\":3725:4340  if (code <= 1) {\r... */\n      jump(tag_165)\n    tag_164:\n        /* \"contracts/PenERC20V2.sol\":3801:3802  5 */\n      0x05\n        /* \"contracts/PenERC20V2.sol\":3793:3797  code */\n      dup2\n        /* \"contracts/PenERC20V2.sol\":3793:3802  code <= 5 */\n      gt\n        /* \"contracts/PenERC20V2.sol\":3789:4340  if (code <= 5) {\r... */\n      tag_166\n      jumpi\n        /* \"contracts/PenERC20V2.sol\":3819:3835  reward = \"reset\" */\n      mload(0x40)\n      dup1\n      0x40\n      add\n      0x40\n      mstore\n      dup1\n      0x05\n      dup2\n      mstore\n      0x20\n      add\n      0x7265736574000000000000000000000000000000000000000000000000000000\n      dup2\n      mstore\n      pop\n      swap4\n      pop\n        /* \"contracts/PenERC20V2.sol\":3879:3880  0 */\n      0x00\n        /* \"contracts/PenERC20V2.sol\":3850:3864  luckyDrawCount */\n      0x0a\n        /* \"contracts/PenERC20V2.sol\":3850:3876  luckyDrawCount[msg.sender] */\n      0x00\n        /* \"contracts/PenERC20V2.sol\":3865:3875  msg.sender */\n      caller\n        /* \"contracts/PenERC20V2.sol\":3850:3876  luckyDrawCount[msg.sender] */\n      0xffffffffffffffffffffffffffffffffffffffff\n      and\n      0xffffffffffffffffffffffffffffffffffffffff\n      and\n      dup2\n      mstore\n      0x20\n      add\n      swap1\n      dup2\n      mstore\n      0x20\n      add\n      0x00\n      keccak256\n        /* \"contracts/PenERC20V2.sol\":3850:3880  luckyDrawCount[msg.sender] = 0 */\n      dup2\n      swap1\n      sstore\n      pop\n        /* \"contracts/PenERC20V2.sol\":3789:4340  if (code <= 5) {\r... */\n      jump(tag_167)\n    tag_166:\n        /* \"contracts/PenERC20V2.sol\":3910:3912  10 */\n      0x0a\n        /* \"contracts/PenERC20V2.sol\":3902:3906  code */\n      dup2\n        /* \"contracts/PenERC20V2.sol\":3902:3912  code <= 10 */\n      gt\n        /* \"contracts/PenERC20V2.sol\":3898:4340  if (code <= 10) {\r... */\n      tag_168\n      jumpi\n        /* \"contracts/PenERC20V2.sol\":3929:3947  reward = \"888 PEN\" */\n      mload(0x40)\n      dup1\n      0x40\n      add\n      0x40\n      mstore\n      dup1\n      0x07\n      dup2\n      mstore\n      0x20\n      add\n      0x3838382050454e00000000000000000000000000000000000000000000000000\n      dup2\n      mstore\n      pop\n      swap4\n      pop\n        /* \"contracts/PenERC20V2.sol\":3962:4009  mint(msg.sender, 888 * 10 ** uint256(decimals)) */\n      tag_169\n        /* \"contracts/PenERC20V2.sol\":3967:3977  msg.sender */\n      caller\n        /* \"contracts/PenERC20V2.sol\":3999:4007  decimals */\n      0x05\n      0x00\n      swap1\n      sload\n      swap1\n      0x0100\n      exp\n      swap1\n      div\n      0xff\n      and\n        /* \"contracts/PenERC20V2.sol\":3991:4008  uint256(decimals) */\n      0xff\n      and\n        /* \"contracts/PenERC20V2.sol\":3985:3987  10 */\n      0x0a\n        /* \"contracts/PenERC20V2.sol\":3985:4008  10 ** uint256(decimals) */\n      tag_170\n      swap2\n      swap1\n      tag_141\n      jump\t// in\n    tag_170:\n        /* \"contracts/PenERC20V2.sol\":3979:3982  888 */\n      0x0378\n        /* \"contracts/PenERC20V2.sol\":3979:4008  888 * 10 ** uint256(decimals) */\n      tag_171\n      swap2\n      swap1\n      tag_143\n      jump\t// in\n    tag_171:\n        /* \"contracts/PenERC20V2.sol\":3962:3966  mint */\n      tag_172\n        /* \"contracts/PenERC20V2.sol\":3962:4009  mint(msg.sender, 888 * 10 ** uint256(decimals)) */\n      jump\t// in\n    tag_169:\n        /* \"contracts/PenERC20V2.sol\":3898:4340  if (code <= 10) {\r... */\n      jump(tag_173)\n    tag_168:\n        /* \"contracts/PenERC20V2.sol\":4039:4041  20 */\n      0x14\n        /* \"contracts/PenERC20V2.sol\":4031:4035  code */\n      dup2\n        /* \"contracts/PenERC20V2.sol\":4031:4041  code <= 20 */\n      gt\n        /* \"contracts/PenERC20V2.sol\":4027:4340  if (code <= 20) {\r... */\n      tag_174\n      jumpi\n        /* \"contracts/PenERC20V2.sol\":4058:4076  reward = \"nothing\" */\n      mload(0x40)\n      dup1\n      0x40\n      add\n      0x40\n      mstore\n      dup1\n      0x07\n      dup2\n      mstore\n      0x20\n      add\n      0x6e6f7468696e6700000000000000000000000000000000000000000000000000\n      dup2\n      mstore\n      pop\n      swap4\n      pop\n        /* \"contracts/PenERC20V2.sol\":4027:4340  if (code <= 20) {\r... */\n      jump(tag_175)\n    tag_174:\n        /* \"contracts/PenERC20V2.sol\":4106:4108  50 */\n      0x32\n        /* \"contracts/PenERC20V2.sol\":4098:4102  code */\n      dup2\n        /* \"contracts/PenERC20V2.sol\":4098:4108  code <= 50 */\n      gt\n        /* \"contracts/PenERC20V2.sol\":4094:4340  if (code <= 50) {\r... */\n      tag_176\n      jumpi\n        /* \"contracts/PenERC20V2.sol\":4125:4143  reward = \"200 PEN\" */\n      mload(0x40)\n      dup1\n      0x40\n      add\n      0x40\n      mstore\n      dup1\n      0x07\n      dup2\n      mstore\n      0x20\n      add\n      0x3230302050454e00000000000000000000000000000000000000000000000000\n      dup2\n      mstore\n      pop\n      swap4\n      pop\n        /* \"contracts/PenERC20V2.sol\":4158:4205  mint(msg.sender, 200 * 10 ** uint256(decimals)) */\n      tag_177\n        /* \"contracts/PenERC20V2.sol\":4163:4173  msg.sender */\n      caller\n        /* \"contracts/PenERC20V2.sol\":4195:4203  decimals */\n      0x05\n      0x00\n      swap1\n      sload\n      swap1\n      0x0100\n      exp\n      swap1\n      div\n      0xff\n      and\n        /* \"contracts/PenERC20V2.sol\":4187:4204  uint256(decimals) */\n      0xff\n      and\n        /* \"contracts/PenERC20V2.sol\":4181:4183  10 */\n      0x0a\n        /* \"contracts/PenERC20V2.sol\":4181:4204  10 ** uint256(decimals) */\n      tag_178\n      swap2\n      swap1\n      tag_141\n      jump\t// in\n    tag_178:\n        /* \"contracts/PenERC20V2.sol\":4175:4178  200 */\n      0xc8\n        /* \"contracts/PenERC20V2.sol\":4175:4204  200 * 10 ** uint256(decimals) */\n      tag_179\n      swap2\n      swap1\n      tag_143\n      jump\t// in\n    tag_179:\n        /* \"contracts/PenERC20V2.sol\":4158:4162  mint */\n      tag_172\n        /* \"contracts/PenERC20V2.sol\":4158:4205  mint(msg.sender, 200 * 10 ** uint256(decimals)) */\n      jump\t// in\n    tag_177:\n        /* \"contracts/PenERC20V2.sol\":4094:4340  if (code <= 50) {\r... */\n      jump(tag_180)\n    tag_176:\n        /* \"contracts/PenERC20V2.sol\":4238:4256  reward = \"100 PEN\" */\n      mload(0x40)\n      dup1\n      0x40\n      add\n      0x40\n      mstore\n      dup1\n      0x07\n      dup2\n      mstore\n      0x20\n      add\n      0x3130302050454e00000000000000000000000000000000000000000000000000\n      dup2\n      mstore\n      pop\n      swap4\n      pop\n        /* \"contracts/PenERC20V2.sol\":4281:4328  mint(msg.sender, 100 * 10 ** uint256(decimals)) */\n      tag_181\n        /* \"contracts/PenERC20V2.sol\":4286:4296  msg.sender */\n      caller\n        /* \"contracts/PenERC20V2.sol\":4318:4326  decimals */\n      0x05\n      0x00\n      swap1\n      sload\n      swap1\n      0x0100\n      exp\n      swap1\n      div\n      0xff\n      and\n        /* \"contracts/PenERC20V2.sol\":4310:4327  uint256(decimals) */\n      0xff\n      and\n        /* \"contracts/PenERC20V2.sol\":4304:4306  10 */\n      0x0a\n        /* \"contracts/PenERC20V2.sol\":4304:4327  10 ** uint256(decimals) */\n      tag_182\n      swap2\n      swap1\n      tag_141\n      jump\t// in\n    tag_182:\n        /* \"contracts/PenERC20V2.sol\":4298:4301  100 */\n      0x64\n        /* \"contracts/PenERC20V2.sol\":4298:4327  100 * 10 ** uint256(decimals) */\n      tag_183\n      swap2\n      swap1\n      tag_143\n      jump\t// in\n    tag_183:\n        /* \"contracts/PenERC20V2.sol\":4281:4285  mint */\n      tag_172\n        /* \"contracts/PenERC20V2.sol\":4281:4328  mint(msg.sender, 100 * 10 ** uint256(decimals)) */\n      jump\t// in\n    tag_181:\n        /* \"contracts/PenERC20V2.sol\":4094:4340  if (code <= 50) {\r... */\n    tag_180:\n        /* \"contracts/PenERC20V2.sol\":4027:4340  if (code <= 20) {\r... */\n    tag_175:\n        /* \"contracts/PenERC20V2.sol\":3898:4340  if (code <= 10) {\r... */\n    tag_173:\n        /* \"contracts/PenERC20V2.sol\":3789:4340  if (code <= 5) {\r... */\n    tag_167:\n        /* \"contracts/PenERC20V2.sol\":3725:4340  if (code <= 1) {\r... */\n    tag_165:\n        /* \"contracts/PenERC20V2.sol\":4367:4377  msg.sender */\n      caller\n        /* \"contracts/PenERC20V2.sol\":4357:4392  LuckyDraw(msg.sender, reward, cost) */\n      0xffffffffffffffffffffffffffffffffffffffff\n      and\n      0x76775f6fd80273d051ffb53fcafdf73d3f7933b79207e60a978184a1fb72b32d\n        /* \"contracts/PenERC20V2.sol\":4379:4385  reward */\n      dup6\n        /* \"contracts/PenERC20V2.sol\":4387:4391  cost */\n      dup5\n        /* \"contracts/PenERC20V2.sol\":4357:4392  LuckyDraw(msg.sender, reward, cost) */\n      mload(0x40)\n      tag_184\n      swap3\n      swap2\n      swap1\n      tag_185\n      jump\t// in\n    tag_184:\n      mload(0x40)\n      dup1\n      swap2\n      sub\n      swap1\n      log2\n        /* \"contracts/PenERC20V2.sol\":2459:4400  function luckyDraw(uint seed) external returns (string memory reward) {\r... */\n      pop\n      pop\n      pop\n      swap2\n      swap1\n      pop\n      jump\t// out\n        /* \"contracts/base/ERC20.sol\":131:184  mapping(address => uint256) public override balanceOf */\n    tag_63:\n      mstore(0x20, 0x00)\n      dup1\n      0x00\n      mstore\n      keccak256(0x00, 0x40)\n      0x00\n      swap2\n      pop\n      swap1\n      pop\n      sload\n      dup2\n      jump\t// out\n        /* \"contracts/PenERC20V2.sol\":2271:2320  mapping(address => uint256) public luckyDrawCount */\n    tag_67:\n      mstore(0x20, 0x0a)\n      dup1\n      0x00\n      mstore\n      keccak256(0x00, 0x40)\n      0x00\n      swap2\n      pop\n      swap1\n      pop\n      sload\n      dup2\n      jump\t// out\n        /* \"contracts/base/ERC20.sol\":340:360  string public symbol */\n    tag_70:\n      0x04\n      dup1\n      sload\n      tag_186\n      swap1\n      tag_104\n      jump\t// in\n    tag_186:\n      dup1\n      0x1f\n      add\n      0x20\n      dup1\n      swap2\n      div\n      mul\n      0x20\n      add\n      mload(0x40)\n      swap1\n      dup2\n      add\n      0x40\n      mstore\n      dup1\n      swap3\n      swap2\n      swap1\n      dup2\n      dup2\n      mstore\n      0x20\n      add\n      dup3\n      dup1\n      sload\n      tag_187\n      swap1\n      tag_104\n      jump\t// in\n    tag_187:\n      dup1\n      iszero\n      tag_188\n      jumpi\n      dup1\n      0x1f\n      lt\n      tag_189\n      jumpi\n      0x0100\n      dup1\n      dup4\n      sload\n      div\n      mul\n      dup4\n      mstore\n      swap2\n      0x20\n      add\n      swap2\n      jump(tag_188)\n    tag_189:\n      dup3\n      add\n      swap2\n      swap1\n      0x00\n      mstore\n      keccak256(0x00, 0x20)\n      swap1\n    tag_190:\n      dup2\n      sload\n      dup2\n      mstore\n      swap1\n      0x01\n      add\n      swap1\n      0x20\n      add\n      dup1\n      dup4\n      gt\n      tag_190\n      jumpi\n      dup3\n      swap1\n      sub\n      0x1f\n      and\n      dup3\n      add\n      swap2\n    tag_188:\n      pop\n      pop\n      pop\n      pop\n      pop\n      dup2\n      jump\t// out\n        /* \"contracts/PenERC20V2.sol\":1540:2082  function getCheckinReward(uint256 oldCheckinStreak) public view returns (uint256) {\r... */\n    tag_74:\n        /* \"contracts/PenERC20V2.sol\":1613:1620  uint256 */\n      0x00\n        /* \"contracts/PenERC20V2.sol\":1633:1644  uint256 res */\n      dup1\n        /* \"contracts/PenERC20V2.sol\":1647:1648  1 */\n      0x01\n        /* \"contracts/PenERC20V2.sol\":1633:1648  uint256 res = 1 */\n      swap1\n      pop\n        /* \"contracts/PenERC20V2.sol\":1683:1684  0 */\n      0x00\n        /* \"contracts/PenERC20V2.sol\":1663:1679  oldCheckinStreak */\n      dup4\n        /* \"contracts/PenERC20V2.sol\":1663:1684  oldCheckinStreak == 0 */\n      eq\n        /* \"contracts/PenERC20V2.sol\":1659:1721  if (oldCheckinStreak == 0) {\r... */\n      iszero\n      tag_192\n      jumpi\n        /* \"contracts/PenERC20V2.sol\":1708:1709  9 */\n      0x09\n        /* \"contracts/PenERC20V2.sol\":1701:1709  res += 9 */\n      dup2\n      tag_193\n      swap2\n      swap1\n      tag_122\n      jump\t// in\n    tag_193:\n      swap1\n      pop\n        /* \"contracts/PenERC20V2.sol\":1659:1721  if (oldCheckinStreak == 0) {\r... */\n    tag_192:\n        /* \"contracts/PenERC20V2.sol\":1766:1767  0 */\n      0x00\n        /* \"contracts/PenERC20V2.sol\":1761:1762  5 */\n      0x05\n        /* \"contracts/PenERC20V2.sol\":1735:1748  checkinStreak */\n      0x07\n        /* \"contracts/PenERC20V2.sol\":1735:1760  checkinStreak[msg.sender] */\n      0x00\n        /* \"contracts/PenERC20V2.sol\":1749:1759  msg.sender */\n      caller\n        /* \"contracts/PenERC20V2.sol\":1735:1760  checkinStreak[msg.sender] */\n      0xffffffffffffffffffffffffffffffffffffffff\n      and\n      0xffffffffffffffffffffffffffffffffffffffff\n      and\n      dup2\n      mstore\n      0x20\n      add\n      swap1\n      dup2\n      mstore\n      0x20\n      add\n      0x00\n      keccak256\n      sload\n        /* \"contracts/PenERC20V2.sol\":1735:1762  checkinStreak[msg.sender]%5 */\n      tag_194\n      swap2\n      swap1\n      tag_162\n      jump\t// in\n    tag_194:\n        /* \"contracts/PenERC20V2.sol\":1735:1767  checkinStreak[msg.sender]%5 == 0 */\n      eq\n        /* \"contracts/PenERC20V2.sol\":1731:1804  if (checkinStreak[msg.sender]%5 == 0) {\r... */\n      iszero\n      tag_195\n      jumpi\n        /* \"contracts/PenERC20V2.sol\":1791:1792  1 */\n      0x01\n        /* \"contracts/PenERC20V2.sol\":1784:1792  res += 1 */\n      dup2\n      tag_196\n      swap2\n      swap1\n      tag_122\n      jump\t// in\n    tag_196:\n      swap1\n      pop\n        /* \"contracts/PenERC20V2.sol\":1731:1804  if (checkinStreak[msg.sender]%5 == 0) {\r... */\n    tag_195:\n        /* \"contracts/PenERC20V2.sol\":1814:1827  uint256 today */\n      0x00\n        /* \"contracts/PenERC20V2.sol\":1860:1866  1 days */\n      0x015180\n        /* \"contracts/PenERC20V2.sol\":1849:1856  8 hours */\n      0x7080\n        /* \"contracts/PenERC20V2.sol\":1831:1846  block.timestamp */\n      timestamp\n        /* \"contracts/PenERC20V2.sol\":1831:1856  block.timestamp + 8 hours */\n      tag_197\n      swap2\n      swap1\n      tag_122\n      jump\t// in\n    tag_197:\n        /* \"contracts/PenERC20V2.sol\":1830:1866  (block.timestamp + 8 hours) / 1 days */\n      tag_198\n      swap2\n      swap1\n      tag_134\n      jump\t// in\n    tag_198:\n        /* \"contracts/PenERC20V2.sol\":1814:1866  uint256 today = (block.timestamp + 8 hours) / 1 days */\n      swap1\n      pop\n        /* \"contracts/PenERC20V2.sol\":1877:1892  uint256 weekday */\n      0x00\n        /* \"contracts/PenERC20V2.sol\":1909:1910  7 */\n      0x07\n        /* \"contracts/PenERC20V2.sol\":1904:1905  4 */\n      0x04\n        /* \"contracts/PenERC20V2.sol\":1896:1901  today */\n      dup4\n        /* \"contracts/PenERC20V2.sol\":1896:1905  today + 4 */\n      tag_199\n      swap2\n      swap1\n      tag_122\n      jump\t// in\n    tag_199:\n        /* \"contracts/PenERC20V2.sol\":1895:1910  (today + 4) % 7 */\n      tag_200\n      swap2\n      swap1\n      tag_162\n      jump\t// in\n    tag_200:\n        /* \"contracts/PenERC20V2.sol\":1877:1910  uint256 weekday = (today + 4) % 7 */\n      swap1\n      pop\n        /* \"contracts/PenERC20V2.sol\":1936:1937  0 */\n      0x00\n        /* \"contracts/PenERC20V2.sol\":1925:1932  weekday */\n      dup2\n        /* \"contracts/PenERC20V2.sol\":1925:1937  weekday == 0 */\n      eq\n        /* \"contracts/PenERC20V2.sol\":1925:1962  weekday == 0 && oldCheckinStreak != 0 */\n      dup1\n      iszero\n      tag_201\n      jumpi\n      pop\n        /* \"contracts/PenERC20V2.sol\":1961:1962  0 */\n      0x00\n        /* \"contracts/PenERC20V2.sol\":1941:1957  oldCheckinStreak */\n      dup6\n        /* \"contracts/PenERC20V2.sol\":1941:1962  oldCheckinStreak != 0 */\n      eq\n      iszero\n        /* \"contracts/PenERC20V2.sol\":1925:1962  weekday == 0 && oldCheckinStreak != 0 */\n    tag_201:\n        /* \"contracts/PenERC20V2.sol\":1921:1999  if (weekday == 0 && oldCheckinStreak != 0) {\r... */\n      iszero\n      tag_202\n      jumpi\n        /* \"contracts/PenERC20V2.sol\":1986:1987  1 */\n      0x01\n        /* \"contracts/PenERC20V2.sol\":1979:1987  res += 1 */\n      dup4\n      tag_203\n      swap2\n      swap1\n      tag_122\n      jump\t// in\n    tag_203:\n      swap3\n      pop\n        /* \"contracts/PenERC20V2.sol\":1921:1999  if (weekday == 0 && oldCheckinStreak != 0) {\r... */\n    tag_202:\n        /* \"contracts/PenERC20V2.sol\":2044:2052  decimals */\n      0x05\n      0x00\n      swap1\n      sload\n      swap1\n      0x0100\n      exp\n      swap1\n      div\n      0xff\n      and\n        /* \"contracts/PenERC20V2.sol\":2036:2053  uint256(decimals) */\n      0xff\n      and\n        /* \"contracts/PenERC20V2.sol\":2030:2032  10 */\n      0x0a\n        /* \"contracts/PenERC20V2.sol\":2030:2053  10 ** uint256(decimals) */\n      tag_204\n      swap2\n      swap1\n      tag_141\n      jump\t// in\n    tag_204:\n        /* \"contracts/PenERC20V2.sol\":2016:2027  checkinBase */\n      sload(0x08)\n        /* \"contracts/PenERC20V2.sol\":2016:2053  checkinBase * 10 ** uint256(decimals) */\n      tag_205\n      swap2\n      swap1\n      tag_143\n      jump\t// in\n    tag_205:\n        /* \"contracts/PenERC20V2.sol\":2009:2053  res *= checkinBase * 10 ** uint256(decimals) */\n      dup4\n      tag_206\n      swap2\n      swap1\n      tag_143\n      jump\t// in\n    tag_206:\n      swap3\n      pop\n        /* \"contracts/PenERC20V2.sol\":2071:2074  res */\n      dup3\n        /* \"contracts/PenERC20V2.sol\":2064:2074  return res */\n      swap4\n      pop\n      pop\n      pop\n      pop\n        /* \"contracts/PenERC20V2.sol\":1540:2082  function getCheckinReward(uint256 oldCheckinStreak) public view returns (uint256) {\r... */\n      swap2\n      swap1\n      pop\n      jump\t// out\n        /* \"contracts/base/ERC20.sol\":699:1030  function transfer(address recipient, uint amount) public override returns (bool) {\r... */\n    tag_78:\n        /* \"contracts/base/ERC20.sol\":774:778  bool */\n      0x00\n        /* \"contracts/base/ERC20.sol\":824:830  amount */\n      dup2\n        /* \"contracts/base/ERC20.sol\":799:808  balanceOf */\n      0x00\n        /* \"contracts/base/ERC20.sol\":799:820  balanceOf[msg.sender] */\n      dup1\n        /* \"contracts/base/ERC20.sol\":809:819  msg.sender */\n      caller\n        /* \"contracts/base/ERC20.sol\":799:820  balanceOf[msg.sender] */\n      0xffffffffffffffffffffffffffffffffffffffff\n      and\n      0xffffffffffffffffffffffffffffffffffffffff\n      and\n      dup2\n      mstore\n      0x20\n      add\n      swap1\n      dup2\n      mstore\n      0x20\n      add\n      0x00\n      keccak256\n      sload\n        /* \"contracts/base/ERC20.sol\":799:830  balanceOf[msg.sender] >= amount */\n      lt\n      iszero\n        /* \"contracts/base/ERC20.sol\":791:862  require(balanceOf[msg.sender] >= amount, \"ERC20: insufficient balance\") */\n      tag_208\n      jumpi\n      mload(0x40)\n      0x08c379a000000000000000000000000000000000000000000000000000000000\n      dup2\n      mstore\n      0x04\n      add\n      tag_209\n      swap1\n      tag_114\n      jump\t// in\n    tag_209:\n      mload(0x40)\n      dup1\n      swap2\n      sub\n      swap1\n      revert\n    tag_208:\n        /* \"contracts/base/ERC20.sol\":898:904  amount */\n      dup2\n        /* \"contracts/base/ERC20.sol\":873:882  balanceOf */\n      0x00\n        /* \"contracts/base/ERC20.sol\":873:894  balanceOf[msg.sender] */\n      dup1\n        /* \"contracts/base/ERC20.sol\":883:893  msg.sender */\n      caller\n        /* \"contracts/base/ERC20.sol\":873:894  balanceOf[msg.sender] */\n      0xffffffffffffffffffffffffffffffffffffffff\n      and\n      0xffffffffffffffffffffffffffffffffffffffff\n      and\n      dup2\n      mstore\n      0x20\n      add\n      swap1\n      dup2\n      mstore\n      0x20\n      add\n      0x00\n      keccak256\n      0x00\n        /* \"contracts/base/ERC20.sol\":873:904  balanceOf[msg.sender] -= amount */\n      dup3\n      dup3\n      sload\n      tag_210\n      swap2\n      swap1\n      tag_119\n      jump\t// in\n    tag_210:\n      swap3\n      pop\n      pop\n      dup2\n      swap1\n      sstore\n      pop\n        /* \"contracts/base/ERC20.sol\":939:945  amount */\n      dup2\n        /* \"contracts/base/ERC20.sol\":915:924  balanceOf */\n      0x00\n        /* \"contracts/base/ERC20.sol\":915:935  balanceOf[recipient] */\n      dup1\n        /* \"contracts/base/ERC20.sol\":925:934  recipient */\n      dup6\n        /* \"contracts/base/ERC20.sol\":915:935  balanceOf[recipient] */\n      0xffffffffffffffffffffffffffffffffffffffff\n      and\n      0xffffffffffffffffffffffffffffffffffffffff\n      and\n      dup2\n      mstore\n      0x20\n      add\n      swap1\n      dup2\n      mstore\n      0x20\n      add\n      0x00\n      keccak256\n      0x00\n        /* \"contracts/base/ERC20.sol\":915:945  balanceOf[recipient] += amount */\n      dup3\n      dup3\n      sload\n      tag_211\n      swap2\n      swap1\n      tag_122\n      jump\t// in\n    tag_211:\n      swap3\n      pop\n      pop\n      dup2\n      swap1\n      sstore\n      pop\n        /* \"contracts/base/ERC20.sol\":982:991  recipient */\n      dup3\n        /* \"contracts/base/ERC20.sol\":961:1000  Transfer(msg.sender, recipient, amount) */\n      0xffffffffffffffffffffffffffffffffffffffff\n      and\n        /* \"contracts/base/ERC20.sol\":970:980  msg.sender */\n      caller\n        /* \"contracts/base/ERC20.sol\":961:1000  Transfer(msg.sender, recipient, amount) */\n      0xffffffffffffffffffffffffffffffffffffffff\n      and\n      0xddf252ad1be2c89b69c2b068fc378daa952ba7f163c4a11628f55a4df523b3ef\n        /* \"contracts/base/ERC20.sol\":993:999  amount */\n      dup5\n        /* \"contracts/base/ERC20.sol\":961:1000  Transfer(msg.sender, recipient, amount) */\n      mload(0x40)\n      tag_212\n      swap2\n      swap1\n      tag_38\n      jump\t// in\n    tag_212:\n      mload(0x40)\n      dup1\n      swap2\n      sub\n      swap1\n      log3\n        /* \"contracts/base/ERC20.sol\":1018:1022  true */\n      0x01\n        /* \"contracts/base/ERC20.sol\":1011:1022  return true */\n      swap1\n      pop\n        /* \"contracts/base/ERC20.sol\":699:1030  function transfer(address recipient, uint amount) public override returns (bool) {\r... */\n      swap3\n      swap2\n      pop\n      pop\n      jump\t// out\n        /* \"contracts/PenERC20V2.sol\":4408:4598  function random(uint seed) public view returns (uint) {\r... */\n    tag_82:\n        /* \"contracts/PenERC20V2.sol\":4456:4460  uint */\n      0x00\n        /* \"contracts/PenERC20V2.sol\":4526:4541  block.timestamp */\n      timestamp\n        /* \"contracts/PenERC20V2.sol\":4543:4559  block.difficulty */\n      difficulty\n        /* \"contracts/PenERC20V2.sol\":4561:4571  msg.sender */\n      caller\n        /* \"contracts/PenERC20V2.sol\":4573:4577  seed */\n      dup5\n        /* \"contracts/PenERC20V2.sol\":4509:4578  abi.encodePacked(block.timestamp, block.difficulty, msg.sender, seed) */\n      add(0x20, mload(0x40))\n      tag_214\n      swap5\n      swap4\n      swap3\n      swap2\n      swap1\n      tag_215\n      jump\t// in\n    tag_214:\n      mload(0x40)\n      0x20\n      dup2\n      dup4\n      sub\n      sub\n      dup2\n      mstore\n      swap1\n      0x40\n      mstore\n        /* \"contracts/PenERC20V2.sol\":4485:4589  keccak256(\r... */\n      dup1\n      mload\n      swap1\n      0x20\n      add\n      keccak256\n        /* \"contracts/PenERC20V2.sol\":4480:4590  uint(keccak256(\r... */\n      0x00\n      shr\n        /* \"contracts/PenERC20V2.sol\":4473:4590  return uint(keccak256(\r... */\n      swap1\n      pop\n        /* \"contracts/PenERC20V2.sol\":4408:4598  function random(uint seed) public view returns (uint) {\r... */\n      swap2\n      swap1\n      pop\n      jump\t// out\n        /* \"contracts/PenERC20V2.sol\":692:1532  function checkin() external returns (uint256 reward) {\r... */\n    tag_85:\n        /* \"contracts/PenERC20V2.sol\":729:743  uint256 reward */\n      0x00\n        /* \"contracts/PenERC20V2.sol\":791:804  uint256 today */\n      dup1\n        /* \"contracts/PenERC20V2.sol\":837:843  1 days */\n      0x015180\n        /* \"contracts/PenERC20V2.sol\":826:833  8 hours */\n      0x7080\n        /* \"contracts/PenERC20V2.sol\":808:823  block.timestamp */\n      timestamp\n        /* \"contracts/PenERC20V2.sol\":808:833  block.timestamp + 8 hours */\n      tag_217\n      swap2\n      swap1\n      tag_122\n      jump\t// in\n    tag_217:\n        /* \"contracts/PenERC20V2.sol\":807:843  (block.timestamp + 8 hours) / 1 days */\n      tag_218\n      swap2\n      swap1\n      tag_134\n      jump\t// in\n    tag_218:\n        /* \"contracts/PenERC20V2.sol\":791:843  uint256 today = (block.timestamp + 8 hours) / 1 days */\n      swap1\n      pop\n        /* \"contracts/PenERC20V2.sol\":854:878  uint256 oldCheckinStreak */\n      0x00\n        /* \"contracts/PenERC20V2.sol\":881:894  checkinStreak */\n      0x07\n        /* \"contracts/PenERC20V2.sol\":881:906  checkinStreak[msg.sender] */\n      0x00\n        /* \"contracts/PenERC20V2.sol\":895:905  msg.sender */\n      caller\n        /* \"contracts/PenERC20V2.sol\":881:906  checkinStreak[msg.sender] */\n      0xffffffffffffffffffffffffffffffffffffffff\n      and\n      0xffffffffffffffffffffffffffffffffffffffff\n      and\n      dup2\n      mstore\n      0x20\n      add\n      swap1\n      dup2\n      mstore\n      0x20\n      add\n      0x00\n      keccak256\n      sload\n        /* \"contracts/PenERC20V2.sol\":854:906  uint256 oldCheckinStreak = checkinStreak[msg.sender] */\n      swap1\n      pop\n        /* \"contracts/PenERC20V2.sol\":953:958  today */\n      dup2\n        /* \"contracts/PenERC20V2.sol\":927:938  checkinDate */\n      0x06\n        /* \"contracts/PenERC20V2.sol\":927:950  checkinDate[msg.sender] */\n      0x00\n        /* \"contracts/PenERC20V2.sol\":939:949  msg.sender */\n      caller\n        /* \"contracts/PenERC20V2.sol\":927:950  checkinDate[msg.sender] */\n      0xffffffffffffffffffffffffffffffffffffffff\n      and\n      0xffffffffffffffffffffffffffffffffffffffff\n      and\n      dup2\n      mstore\n      0x20\n      add\n      swap1\n      dup2\n      mstore\n      0x20\n      add\n      0x00\n      keccak256\n      sload\n        /* \"contracts/PenERC20V2.sol\":927:958  checkinDate[msg.sender] < today */\n      lt\n        /* \"contracts/PenERC20V2.sol\":919:987  require(checkinDate[msg.sender] < today, \"Already checked in today\") */\n      tag_219\n      jumpi\n      mload(0x40)\n      0x08c379a000000000000000000000000000000000000000000000000000000000\n      dup2\n      mstore\n      0x04\n      add\n      tag_220\n      swap1\n      tag_221\n      jump\t// in\n    tag_220:\n      mload(0x40)\n      dup1\n      swap2\n      sub\n      swap1\n      revert\n    tag_219:\n        /* \"contracts/PenERC20V2.sol\":1039:1040  1 */\n      0x01\n        /* \"contracts/PenERC20V2.sol\":1031:1036  today */\n      dup3\n        /* \"contracts/PenERC20V2.sol\":1031:1040  today - 1 */\n      tag_222\n      swap2\n      swap1\n      tag_119\n      jump\t// in\n    tag_222:\n        /* \"contracts/PenERC20V2.sol\":1004:1015  checkinDate */\n      0x06\n        /* \"contracts/PenERC20V2.sol\":1004:1027  checkinDate[msg.sender] */\n      0x00\n        /* \"contracts/PenERC20V2.sol\":1016:1026  msg.sender */\n      caller\n        /* \"contracts/PenERC20V2.sol\":1004:1027  checkinDate[msg.sender] */\n      0xffffffffffffffffffffffffffffffffffffffff\n      and\n      0xffffffffffffffffffffffffffffffffffffffff\n      and\n      dup2\n      mstore\n      0x20\n      add\n      swap1\n      dup2\n      mstore\n      0x20\n      add\n      0x00\n      keccak256\n      sload\n        /* \"contracts/PenERC20V2.sol\":1004:1040  checkinDate[msg.sender] == today - 1 */\n      eq\n        /* \"contracts/PenERC20V2.sol\":1000:1226  if (checkinDate[msg.sender] == today - 1) {\r... */\n      iszero\n      tag_223\n      jumpi\n        /* \"contracts/PenERC20V2.sol\":1115:1116  1 */\n      0x01\n        /* \"contracts/PenERC20V2.sol\":1086:1099  checkinStreak */\n      0x07\n        /* \"contracts/PenERC20V2.sol\":1086:1111  checkinStreak[msg.sender] */\n      0x00\n        /* \"contracts/PenERC20V2.sol\":1100:1110  msg.sender */\n      caller\n        /* \"contracts/PenERC20V2.sol\":1086:1111  checkinStreak[msg.sender] */\n      0xffffffffffffffffffffffffffffffffffffffff\n      and\n      0xffffffffffffffffffffffffffffffffffffffff\n      and\n      dup2\n      mstore\n      0x20\n      add\n      swap1\n      dup2\n      mstore\n      0x20\n      add\n      0x00\n      keccak256\n      0x00\n        /* \"contracts/PenERC20V2.sol\":1086:1116  checkinStreak[msg.sender] += 1 */\n      dup3\n      dup3\n      sload\n      tag_224\n      swap2\n      swap1\n      tag_122\n      jump\t// in\n    tag_224:\n      swap3\n      pop\n      pop\n      dup2\n      swap1\n      sstore\n      pop\n        /* \"contracts/PenERC20V2.sol\":1000:1226  if (checkinDate[msg.sender] == today - 1) {\r... */\n      jump(tag_225)\n    tag_223:\n        /* \"contracts/PenERC20V2.sol\":1213:1214  1 */\n      0x01\n        /* \"contracts/PenERC20V2.sol\":1185:1198  checkinStreak */\n      0x07\n        /* \"contracts/PenERC20V2.sol\":1185:1210  checkinStreak[msg.sender] */\n      0x00\n        /* \"contracts/PenERC20V2.sol\":1199:1209  msg.sender */\n      caller\n        /* \"contracts/PenERC20V2.sol\":1185:1210  checkinStreak[msg.sender] */\n      0xffffffffffffffffffffffffffffffffffffffff\n      and\n      0xffffffffffffffffffffffffffffffffffffffff\n      and\n      dup2\n      mstore\n      0x20\n      add\n      swap1\n      dup2\n      mstore\n      0x20\n      add\n      0x00\n      keccak256\n        /* \"contracts/PenERC20V2.sol\":1185:1214  checkinStreak[msg.sender] = 1 */\n      dup2\n      swap1\n      sstore\n      pop\n        /* \"contracts/PenERC20V2.sol\":1000:1226  if (checkinDate[msg.sender] == today - 1) {\r... */\n    tag_225:\n        /* \"contracts/PenERC20V2.sol\":1301:1306  today */\n      dup2\n        /* \"contracts/PenERC20V2.sol\":1275:1286  checkinDate */\n      0x06\n        /* \"contracts/PenERC20V2.sol\":1275:1298  checkinDate[msg.sender] */\n      0x00\n        /* \"contracts/PenERC20V2.sol\":1287:1297  msg.sender */\n      caller\n        /* \"contracts/PenERC20V2.sol\":1275:1298  checkinDate[msg.sender] */\n      0xffffffffffffffffffffffffffffffffffffffff\n      and\n      0xffffffffffffffffffffffffffffffffffffffff\n      and\n      dup2\n      mstore\n      0x20\n      add\n      swap1\n      dup2\n      mstore\n      0x20\n      add\n      0x00\n      keccak256\n        /* \"contracts/PenERC20V2.sol\":1275:1306  checkinDate[msg.sender] = today */\n      dup2\n      swap1\n      sstore\n      pop\n        /* \"contracts/PenERC20V2.sol\":1383:1417  getCheckinReward(oldCheckinStreak) */\n      tag_226\n        /* \"contracts/PenERC20V2.sol\":1400:1416  oldCheckinStreak */\n      dup2\n        /* \"contracts/PenERC20V2.sol\":1383:1399  getCheckinReward */\n      tag_74\n        /* \"contracts/PenERC20V2.sol\":1383:1417  getCheckinReward(oldCheckinStreak) */\n      jump\t// in\n    tag_226:\n        /* \"contracts/PenERC20V2.sol\":1374:1417  reward = getCheckinReward(oldCheckinStreak) */\n      swap3\n      pop\n        /* \"contracts/PenERC20V2.sol\":1428:1452  mint(msg.sender, reward) */\n      tag_227\n        /* \"contracts/PenERC20V2.sol\":1433:1443  msg.sender */\n      caller\n        /* \"contracts/PenERC20V2.sol\":1445:1451  reward */\n      dup5\n        /* \"contracts/PenERC20V2.sol\":1428:1432  mint */\n      tag_172\n        /* \"contracts/PenERC20V2.sol\":1428:1452  mint(msg.sender, reward) */\n      jump\t// in\n    tag_227:\n        /* \"contracts/PenERC20V2.sol\":1478:1488  msg.sender */\n      caller\n        /* \"contracts/PenERC20V2.sol\":1470:1524  Checkin(msg.sender, reward, checkinStreak[msg.sender]) */\n      0xffffffffffffffffffffffffffffffffffffffff\n      and\n      0xb1ea073ac09a6b73cc1842f3dbda1736e0c0d94b33aac1983f2612a5d115b4c7\n        /* \"contracts/PenERC20V2.sol\":1490:1496  reward */\n      dup5\n        /* \"contracts/PenERC20V2.sol\":1498:1511  checkinStreak */\n      0x07\n        /* \"contracts/PenERC20V2.sol\":1498:1523  checkinStreak[msg.sender] */\n      0x00\n        /* \"contracts/PenERC20V2.sol\":1512:1522  msg.sender */\n      caller\n        /* \"contracts/PenERC20V2.sol\":1498:1523  checkinStreak[msg.sender] */\n      0xffffffffffffffffffffffffffffffffffffffff\n      and\n      0xffffffffffffffffffffffffffffffffffffffff\n      and\n      dup2\n      mstore\n      0x20\n      add\n      swap1\n      dup2\n      mstore\n      0x20\n      add\n      0x00\n      keccak256\n      sload\n        /* \"contracts/PenERC20V2.sol\":1470:1524  Checkin(msg.sender, reward, checkinStreak[msg.sender]) */\n      mload(0x40)\n      tag_228\n      swap3\n      swap2\n      swap1\n      tag_229\n      jump\t// in\n    tag_228:\n      mload(0x40)\n      dup1\n      swap2\n      sub\n      swap1\n      log2\n        /* \"contracts/PenERC20V2.sol\":692:1532  function checkin() external returns (uint256 reward) {\r... */\n      pop\n      pop\n      swap1\n      jump\t// out\n        /* \"contracts/PenERC20V2.sol\":395:427  uint256 public checkinBase = 100 */\n    tag_88:\n      sload(0x08)\n      dup2\n      jump\t// out\n        /* \"contracts/PenERC20V2.sol\":2192:2240  mapping(address => uint256) public luckyDrawDate */\n    tag_92:\n      mstore(0x20, 0x09)\n      dup1\n      0x00\n      mstore\n      keccak256(0x00, 0x40)\n      0x00\n      swap2\n      pop\n      swap1\n      pop\n      sload\n      dup2\n      jump\t// out\n        /* \"contracts/base/ERC20.sol\":191:264  mapping(address => mapping(address => uint256)) public override allowance */\n    tag_97:\n      mstore(0x20, 0x01)\n      dup2\n      0x00\n      mstore\n      mstore(0x20, keccak256(0x00, 0x40))\n      dup1\n      0x00\n      mstore\n      keccak256(0x00, 0x40)\n      0x00\n      swap2\n      pop\n      swap2\n      pop\n      pop\n      sload\n      dup2\n      jump\t// out\n        /* \"contracts/PenERC20V2.sol\":227:273  mapping(address => uint256) public checkinDate */\n    tag_101:\n      mstore(0x20, 0x06)\n      dup1\n      0x00\n      mstore\n      keccak256(0x00, 0x40)\n      0x00\n      swap2\n      pop\n      swap1\n      pop\n      sload\n      dup2\n      jump\t// out\n        /* \"contracts/base/ERC20.sol\":1775:1969  function mint(address recipient, uint256 amount) internal {\r... */\n    tag_172:\n        /* \"contracts/base/ERC20.sol\":1868:1874  amount */\n      dup1\n        /* \"contracts/base/ERC20.sol\":1844:1853  balanceOf */\n      0x00\n        /* \"contracts/base/ERC20.sol\":1844:1864  balanceOf[recipient] */\n      dup1\n        /* \"contracts/base/ERC20.sol\":1854:1863  recipient */\n      dup5\n        /* \"contracts/base/ERC20.sol\":1844:1864  balanceOf[recipient] */\n      0xffffffffffffffffffffffffffffffffffffffff\n      and\n      0xffffffffffffffffffffffffffffffffffffffff\n      and\n      dup2\n      mstore\n      0x20\n      add\n      swap1\n      dup2\n      mstore\n      0x20\n      add\n      0x00\n      keccak256\n      0x00\n        /* \"contracts/base/ERC20.sol\":1844:1874  balanceOf[recipient] += amount */\n      dup3\n      dup3\n      sload\n      tag_231\n      swap2\n      swap1\n      tag_122\n      jump\t// in\n    tag_231:\n      swap3\n      pop\n      pop\n      dup2\n      swap1\n      sstore\n      pop\n        /* \"contracts/base/ERC20.sol\":1900:1906  amount */\n      dup1\n        /* \"contracts/base/ERC20.sol\":1885:1896  totalSupply */\n      0x02\n      0x00\n        /* \"contracts/base/ERC20.sol\":1885:1906  totalSupply += amount */\n      dup3\n      dup3\n      sload\n      tag_232\n      swap2\n      swap1\n      tag_122\n      jump\t// in\n    tag_232:\n      swap3\n      pop\n      pop\n      dup2\n      swap1\n      sstore\n      pop\n        /* \"contracts/base/ERC20.sol\":1943:1952  recipient */\n      dup2\n        /* \"contracts/base/ERC20.sol\":1922:1961  Transfer(address(0), recipient, amount) */\n      0xffffffffffffffffffffffffffffffffffffffff\n      and\n        /* \"contracts/base/ERC20.sol\":1939:1940  0 */\n      0x00\n        /* \"contracts/base/ERC20.sol\":1922:1961  Transfer(address(0), recipient, amount) */\n      0xffffffffffffffffffffffffffffffffffffffff\n      and\n      0xddf252ad1be2c89b69c2b068fc378daa952ba7f163c4a11628f55a4df523b3ef\n        /* \"contracts/base/ERC20.sol\":1954:1960  amount */\n      dup4\n        /* \"contracts/base/ERC20.sol\":1922:1961  Transfer(address(0), recipient, amount) */\n      mload(0x40)\n      tag_233\n      swap2\n      swap1\n      tag_38\n      jump\t// in\n    tag_233:\n      mload(0x40)\n      dup1\n      swap2\n      sub\n      swap1\n      log3\n        /* \"contracts/base/ERC20.sol\":1775:1969  function mint(address recipient, uint256 amount) internal {\r... */\n      pop\n      pop\n      jump\t// out\n        /* \"#utility.yul\":7:146   */\n    tag_235:\n        /* \"#utility.yul\":53:58   */\n      0x00\n        /* \"#utility.yul\":91:97   */\n      dup2\n        /* \"#utility.yul\":78:98   */\n      calldataload\n        /* \"#utility.yul\":69:98   */\n      swap1\n      pop\n        /* \"#utility.yul\":107:140   */\n      tag_237\n        /* \"#utility.yul\":134:139   */\n      dup2\n        /* \"#utility.yul\":107:140   */\n      tag_238\n      jump\t// in\n    tag_237:\n        /* \"#utility.yul\":59:146   */\n      swap3\n      swap2\n      pop\n      pop\n      jump\t// out\n        /* \"#utility.yul\":152:291   */\n    tag_239:\n        /* \"#utility.yul\":198:203   */\n      0x00\n        /* \"#utility.yul\":236:242   */\n      dup2\n        /* \"#utility.yul\":223:243   */\n      calldataload\n        /* \"#utility.yul\":214:243   */\n      swap1\n      pop\n        /* \"#utility.yul\":252:285   */\n      tag_241\n        /* \"#utility.yul\":279:284   */\n      dup2\n        /* \"#utility.yul\":252:285   */\n      tag_242\n      jump\t// in\n    tag_241:\n        /* \"#utility.yul\":204:291   */\n      swap3\n      swap2\n      pop\n      pop\n      jump\t// out\n        /* \"#utility.yul\":297:559   */\n    tag_50:\n        /* \"#utility.yul\":356:362   */\n      0x00\n        /* \"#utility.yul\":405:407   */\n      0x20\n        /* \"#utility.yul\":393:402   */\n      dup3\n        /* \"#utility.yul\":384:391   */\n      dup5\n        /* \"#utility.yul\":380:403   */\n      sub\n        /* \"#utility.yul\":376:408   */\n      slt\n        /* \"#utility.yul\":373:375   */\n      iszero\n      tag_244\n      jumpi\n        /* \"#utility.yul\":421:422   */\n      0x00\n        /* \"#utility.yul\":418:419   */\n      dup1\n        /* \"#utility.yul\":411:423   */\n      revert\n        /* \"#utility.yul\":373:375   */\n    tag_244:\n        /* \"#utility.yul\":464:465   */\n      0x00\n        /* \"#utility.yul\":489:542   */\n      tag_245\n        /* \"#utility.yul\":534:541   */\n      dup5\n        /* \"#utility.yul\":525:531   */\n      dup3\n        /* \"#utility.yul\":514:523   */\n      dup6\n        /* \"#utility.yul\":510:532   */\n      add\n        /* \"#utility.yul\":489:542   */\n      tag_235\n      jump\t// in\n    tag_245:\n        /* \"#utility.yul\":479:542   */\n      swap2\n      pop\n        /* \"#utility.yul\":435:552   */\n      pop\n        /* \"#utility.yul\":363:559   */\n      swap3\n      swap2\n      pop\n      pop\n      jump\t// out\n        /* \"#utility.yul\":565:972   */\n    tag_96:\n        /* \"#utility.yul\":633:639   */\n      0x00\n        /* \"#utility.yul\":641:647   */\n      dup1\n        /* \"#utility.yul\":690:692   */\n      0x40\n        /* \"#utility.yul\":678:687   */\n      dup4\n        /* \"#utility.yul\":669:676   */\n      dup6\n        /* \"#utility.yul\":665:688   */\n      sub\n        /* \"#utility.yul\":661:693   */\n      slt\n        /* \"#utility.yul\":658:660   */\n      iszero\n      tag_247\n      jumpi\n        /* \"#utility.yul\":706:707   */\n      0x00\n        /* \"#utility.yul\":703:704   */\n      dup1\n        /* \"#utility.yul\":696:708   */\n      revert\n        /* \"#utility.yul\":658:660   */\n    tag_247:\n        /* \"#utility.yul\":749:750   */\n      0x00\n        /* \"#utility.yul\":774:827   */\n      tag_248\n        /* \"#utility.yul\":819:826   */\n      dup6\n        /* \"#utility.yul\":810:816   */\n      dup3\n        /* \"#utility.yul\":799:808   */\n      dup7\n        /* \"#utility.yul\":795:817   */\n      add\n        /* \"#utility.yul\":774:827   */\n      tag_235\n      jump\t// in\n    tag_248:\n        /* \"#utility.yul\":764:827   */\n      swap3\n      pop\n        /* \"#utility.yul\":720:837   */\n      pop\n        /* \"#utility.yul\":876:878   */\n      0x20\n        /* \"#utility.yul\":902:955   */\n      tag_249\n        /* \"#utility.yul\":947:954   */\n      dup6\n        /* \"#utility.yul\":938:944   */\n      dup3\n        /* \"#utility.yul\":927:936   */\n      dup7\n        /* \"#utility.yul\":923:945   */\n      add\n        /* \"#utility.yul\":902:955   */\n      tag_235\n      jump\t// in\n    tag_249:\n        /* \"#utility.yul\":892:955   */\n      swap2\n      pop\n        /* \"#utility.yul\":847:965   */\n      pop\n        /* \"#utility.yul\":648:972   */\n      swap3\n      pop\n      swap3\n      swap1\n      pop\n      jump\t// out\n        /* \"#utility.yul\":978:1530   */\n    tag_41:\n        /* \"#utility.yul\":1055:1061   */\n      0x00\n        /* \"#utility.yul\":1063:1069   */\n      dup1\n        /* \"#utility.yul\":1071:1077   */\n      0x00\n        /* \"#utility.yul\":1120:1122   */\n      0x60\n        /* \"#utility.yul\":1108:1117   */\n      dup5\n        /* \"#utility.yul\":1099:1106   */\n      dup7\n        /* \"#utility.yul\":1095:1118   */\n      sub\n        /* \"#utility.yul\":1091:1123   */\n      slt\n        /* \"#utility.yul\":1088:1090   */\n      iszero\n      tag_251\n      jumpi\n        /* \"#utility.yul\":1136:1137   */\n      0x00\n        /* \"#utility.yul\":1133:1134   */\n      dup1\n        /* \"#utility.yul\":1126:1138   */\n      revert\n        /* \"#utility.yul\":1088:1090   */\n    tag_251:\n        /* \"#utility.yul\":1179:1180   */\n      0x00\n        /* \"#utility.yul\":1204:1257   */\n      tag_252\n        /* \"#utility.yul\":1249:1256   */\n      dup7\n        /* \"#utility.yul\":1240:1246   */\n      dup3\n        /* \"#utility.yul\":1229:1238   */\n      dup8\n        /* \"#utility.yul\":1225:1247   */\n      add\n        /* \"#utility.yul\":1204:1257   */\n      tag_235\n      jump\t// in\n    tag_252:\n        /* \"#utility.yul\":1194:1257   */\n      swap4\n      pop\n        /* \"#utility.yul\":1150:1267   */\n      pop\n        /* \"#utility.yul\":1306:1308   */\n      0x20\n        /* \"#utility.yul\":1332:1385   */\n      tag_253\n        /* \"#utility.yul\":1377:1384   */\n      dup7\n        /* \"#utility.yul\":1368:1374   */\n      dup3\n        /* \"#utility.yul\":1357:1366   */\n      dup8\n        /* \"#utility.yul\":1353:1375   */\n      add\n        /* \"#utility.yul\":1332:1385   */\n      tag_235\n      jump\t// in\n    tag_253:\n        /* \"#utility.yul\":1322:1385   */\n      swap3\n      pop\n        /* \"#utility.yul\":1277:1395   */\n      pop\n        /* \"#utility.yul\":1434:1436   */\n      0x40\n        /* \"#utility.yul\":1460:1513   */\n      tag_254\n        /* \"#utility.yul\":1505:1512   */\n      dup7\n        /* \"#utility.yul\":1496:1502   */\n      dup3\n        /* \"#utility.yul\":1485:1494   */\n      dup8\n        /* \"#utility.yul\":1481:1503   */\n      add\n        /* \"#utility.yul\":1460:1513   */\n      tag_239\n      jump\t// in\n    tag_254:\n        /* \"#utility.yul\":1450:1513   */\n      swap2\n      pop\n        /* \"#utility.yul\":1405:1523   */\n      pop\n        /* \"#utility.yul\":1078:1530   */\n      swap3\n      pop\n      swap3\n      pop\n      swap3\n      jump\t// out\n        /* \"#utility.yul\":1536:1943   */\n    tag_31:\n        /* \"#utility.yul\":1604:1610   */\n      0x00\n        /* \"#utility.yul\":1612:1618   */\n      dup1\n        /* \"#utility.yul\":1661:1663   */\n      0x40\n        /* \"#utility.yul\":1649:1658   */\n      dup4\n        /* \"#utility.yul\":1640:1647   */\n      dup6\n        /* \"#utility.yul\":1636:1659   */\n      sub\n        /* \"#utility.yul\":1632:1664   */\n      slt\n        /* \"#utility.yul\":1629:1631   */\n      iszero\n      tag_256\n      jumpi\n        /* \"#utility.yul\":1677:1678   */\n      0x00\n        /* \"#utility.yul\":1674:1675   */\n      dup1\n        /* \"#utility.yul\":1667:1679   */\n      revert\n        /* \"#utility.yul\":1629:1631   */\n    tag_256:\n        /* \"#utility.yul\":1720:1721   */\n      0x00\n        /* \"#utility.yul\":1745:1798   */\n      tag_257\n        /* \"#utility.yul\":1790:1797   */\n      dup6\n        /* \"#utility.yul\":1781:1787   */\n      dup3\n        /* \"#utility.yul\":1770:1779   */\n      dup7\n        /* \"#utility.yul\":1766:1788   */\n      add\n        /* \"#utility.yul\":1745:1798   */\n      tag_235\n      jump\t// in\n    tag_257:\n        /* \"#utility.yul\":1735:1798   */\n      swap3\n      pop\n        /* \"#utility.yul\":1691:1808   */\n      pop\n        /* \"#utility.yul\":1847:1849   */\n      0x20\n        /* \"#utility.yul\":1873:1926   */\n      tag_258\n        /* \"#utility.yul\":1918:1925   */\n      dup6\n        /* \"#utility.yul\":1909:1915   */\n      dup3\n        /* \"#utility.yul\":1898:1907   */\n      dup7\n        /* \"#utility.yul\":1894:1916   */\n      add\n        /* \"#utility.yul\":1873:1926   */\n      tag_239\n      jump\t// in\n    tag_258:\n        /* \"#utility.yul\":1863:1926   */\n      swap2\n      pop\n        /* \"#utility.yul\":1818:1936   */\n      pop\n        /* \"#utility.yul\":1619:1943   */\n      swap3\n      pop\n      swap3\n      swap1\n      pop\n      jump\t// out\n        /* \"#utility.yul\":1949:2211   */\n    tag_55:\n        /* \"#utility.yul\":2008:2014   */\n      0x00\n        /* \"#utility.yul\":2057:2059   */\n      0x20\n        /* \"#utility.yul\":2045:2054   */\n      dup3\n        /* \"#utility.yul\":2036:2043   */\n      dup5\n        /* \"#utility.yul\":2032:2055   */\n      sub\n        /* \"#utility.yul\":2028:2060   */\n      slt\n        /* \"#utility.yul\":2025:2027   */\n      iszero\n      tag_260\n      jumpi\n        /* \"#utility.yul\":2073:2074   */\n      0x00\n        /* \"#utility.yul\":2070:2071   */\n      dup1\n        /* \"#utility.yul\":2063:2075   */\n      revert\n        /* \"#utility.yul\":2025:2027   */\n    tag_260:\n        /* \"#utility.yul\":2116:2117   */\n      0x00\n        /* \"#utility.yul\":2141:2194   */\n      tag_261\n        /* \"#utility.yul\":2186:2193   */\n      dup5\n        /* \"#utility.yul\":2177:2183   */\n      dup3\n        /* \"#utility.yul\":2166:2175   */\n      dup6\n        /* \"#utility.yul\":2162:2184   */\n      add\n        /* \"#utility.yul\":2141:2194   */\n      tag_239\n      jump\t// in\n    tag_261:\n        /* \"#utility.yul\":2131:2194   */\n      swap2\n      pop\n        /* \"#utility.yul\":2087:2204   */\n      pop\n        /* \"#utility.yul\":2015:2211   */\n      swap3\n      swap2\n      pop\n      pop\n      jump\t// out\n        /* \"#utility.yul\":2217:2374   */\n    tag_262:\n        /* \"#utility.yul\":2322:2367   */\n      tag_264\n        /* \"#utility.yul\":2342:2366   */\n      tag_265\n        /* \"#utility.yul\":2360:2365   */\n      dup3\n        /* \"#utility.yul\":2342:2366   */\n      tag_266\n      jump\t// in\n    tag_265:\n        /* \"#utility.yul\":2322:2367   */\n      tag_267\n      jump\t// in\n    tag_264:\n        /* \"#utility.yul\":2317:2320   */\n      dup3\n        /* \"#utility.yul\":2310:2368   */\n      mstore\n        /* \"#utility.yul\":2300:2374   */\n      pop\n      pop\n      jump\t// out\n        /* \"#utility.yul\":2380:2489   */\n    tag_268:\n        /* \"#utility.yul\":2461:2482   */\n      tag_270\n        /* \"#utility.yul\":2476:2481   */\n      dup2\n        /* \"#utility.yul\":2461:2482   */\n      tag_271\n      jump\t// in\n    tag_270:\n        /* \"#utility.yul\":2456:2459   */\n      dup3\n        /* \"#utility.yul\":2449:2483   */\n      mstore\n        /* \"#utility.yul\":2439:2489   */\n      pop\n      pop\n      jump\t// out\n        /* \"#utility.yul\":2495:2859   */\n    tag_272:\n        /* \"#utility.yul\":2583:2586   */\n      0x00\n        /* \"#utility.yul\":2611:2650   */\n      tag_274\n        /* \"#utility.yul\":2644:2649   */\n      dup3\n        /* \"#utility.yul\":2611:2650   */\n      tag_275\n      jump\t// in\n    tag_274:\n        /* \"#utility.yul\":2666:2737   */\n      tag_276\n        /* \"#utility.yul\":2730:2736   */\n      dup2\n        /* \"#utility.yul\":2725:2728   */\n      dup6\n        /* \"#utility.yul\":2666:2737   */\n      tag_277\n      jump\t// in\n    tag_276:\n        /* \"#utility.yul\":2659:2737   */\n      swap4\n      pop\n        /* \"#utility.yul\":2746:2798   */\n      tag_278\n        /* \"#utility.yul\":2791:2797   */\n      dup2\n        /* \"#utility.yul\":2786:2789   */\n      dup6\n        /* \"#utility.yul\":2779:2783   */\n      0x20\n        /* \"#utility.yul\":2772:2777   */\n      dup7\n        /* \"#utility.yul\":2768:2784   */\n      add\n        /* \"#utility.yul\":2746:2798   */\n      tag_279\n      jump\t// in\n    tag_278:\n        /* \"#utility.yul\":2823:2852   */\n      tag_280\n        /* \"#utility.yul\":2845:2851   */\n      dup2\n        /* \"#utility.yul\":2823:2852   */\n      tag_281\n      jump\t// in\n    tag_280:\n        /* \"#utility.yul\":2818:2821   */\n      dup5\n        /* \"#utility.yul\":2814:2853   */\n      add\n        /* \"#utility.yul\":2807:2853   */\n      swap2\n      pop\n        /* \"#utility.yul\":2587:2859   */\n      pop\n      swap3\n      swap2\n      pop\n      pop\n      jump\t// out\n        /* \"#utility.yul\":2865:3231   */\n    tag_282:\n        /* \"#utility.yul\":3007:3010   */\n      0x00\n        /* \"#utility.yul\":3028:3095   */\n      tag_284\n        /* \"#utility.yul\":3092:3094   */\n      0x1b\n        /* \"#utility.yul\":3087:3090   */\n      dup4\n        /* \"#utility.yul\":3028:3095   */\n      tag_277\n      jump\t// in\n    tag_284:\n        /* \"#utility.yul\":3021:3095   */\n      swap2\n      pop\n        /* \"#utility.yul\":3104:3197   */\n      tag_285\n        /* \"#utility.yul\":3193:3196   */\n      dup3\n        /* \"#utility.yul\":3104:3197   */\n      tag_286\n      jump\t// in\n    tag_285:\n        /* \"#utility.yul\":3222:3224   */\n      0x20\n        /* \"#utility.yul\":3217:3220   */\n      dup3\n        /* \"#utility.yul\":3213:3225   */\n      add\n        /* \"#utility.yul\":3206:3225   */\n      swap1\n      pop\n        /* \"#utility.yul\":3011:3231   */\n      swap2\n      swap1\n      pop\n      jump\t// out\n        /* \"#utility.yul\":3237:3603   */\n    tag_287:\n        /* \"#utility.yul\":3379:3382   */\n      0x00\n        /* \"#utility.yul\":3400:3467   */\n      tag_289\n        /* \"#utility.yul\":3464:3466   */\n      0x18\n        /* \"#utility.yul\":3459:3462   */\n      dup4\n        /* \"#utility.yul\":3400:3467   */\n      tag_277\n      jump\t// in\n    tag_289:\n        /* \"#utility.yul\":3393:3467   */\n      swap2\n      pop\n        /* \"#utility.yul\":3476:3569   */\n      tag_290\n        /* \"#utility.yul\":3565:3568   */\n      dup3\n        /* \"#utility.yul\":3476:3569   */\n      tag_291\n      jump\t// in\n    tag_290:\n        /* \"#utility.yul\":3594:3596   */\n      0x20\n        /* \"#utility.yul\":3589:3592   */\n      dup3\n        /* \"#utility.yul\":3585:3597   */\n      add\n        /* \"#utility.yul\":3578:3597   */\n      swap1\n      pop\n        /* \"#utility.yul\":3383:3603   */\n      swap2\n      swap1\n      pop\n      jump\t// out\n        /* \"#utility.yul\":3609:3975   */\n    tag_292:\n        /* \"#utility.yul\":3751:3754   */\n      0x00\n        /* \"#utility.yul\":3772:3839   */\n      tag_294\n        /* \"#utility.yul\":3836:3838   */\n      0x13\n        /* \"#utility.yul\":3831:3834   */\n      dup4\n        /* \"#utility.yul\":3772:3839   */\n      tag_277\n      jump\t// in\n    tag_294:\n        /* \"#utility.yul\":3765:3839   */\n      swap2\n      pop\n        /* \"#utility.yul\":3848:3941   */\n      tag_295\n        /* \"#utility.yul\":3937:3940   */\n      dup3\n        /* \"#utility.yul\":3848:3941   */\n      tag_296\n      jump\t// in\n    tag_295:\n        /* \"#utility.yul\":3966:3968   */\n      0x20\n        /* \"#utility.yul\":3961:3964   */\n      dup3\n        /* \"#utility.yul\":3957:3969   */\n      add\n        /* \"#utility.yul\":3950:3969   */\n      swap1\n      pop\n        /* \"#utility.yul\":3755:3975   */\n      swap2\n      swap1\n      pop\n      jump\t// out\n        /* \"#utility.yul\":3981:4347   */\n    tag_297:\n        /* \"#utility.yul\":4123:4126   */\n      0x00\n        /* \"#utility.yul\":4144:4211   */\n      tag_299\n        /* \"#utility.yul\":4208:4210   */\n      0x23\n        /* \"#utility.yul\":4203:4206   */\n      dup4\n        /* \"#utility.yul\":4144:4211   */\n      tag_277\n      jump\t// in\n    tag_299:\n        /* \"#utility.yul\":4137:4211   */\n      swap2\n      pop\n        /* \"#utility.yul\":4220:4313   */\n      tag_300\n        /* \"#utility.yul\":4309:4312   */\n      dup3\n        /* \"#utility.yul\":4220:4313   */\n      tag_301\n      jump\t// in\n    tag_300:\n        /* \"#utility.yul\":4338:4340   */\n      0x40\n        /* \"#utility.yul\":4333:4336   */\n      dup3\n        /* \"#utility.yul\":4329:4341   */\n      add\n        /* \"#utility.yul\":4322:4341   */\n      swap1\n      pop\n        /* \"#utility.yul\":4127:4347   */\n      swap2\n      swap1\n      pop\n      jump\t// out\n        /* \"#utility.yul\":4353:4719   */\n    tag_302:\n        /* \"#utility.yul\":4495:4498   */\n      0x00\n        /* \"#utility.yul\":4516:4583   */\n      tag_304\n        /* \"#utility.yul\":4580:4582   */\n      0x0e\n        /* \"#utility.yul\":4575:4578   */\n      dup4\n        /* \"#utility.yul\":4516:4583   */\n      tag_277\n      jump\t// in\n    tag_304:\n        /* \"#utility.yul\":4509:4583   */\n      swap2\n      pop\n        /* \"#utility.yul\":4592:4685   */\n      tag_305\n        /* \"#utility.yul\":4681:4684   */\n      dup3\n        /* \"#utility.yul\":4592:4685   */\n      tag_306\n      jump\t// in\n    tag_305:\n        /* \"#utility.yul\":4710:4712   */\n      0x20\n        /* \"#utility.yul\":4705:4708   */\n      dup3\n        /* \"#utility.yul\":4701:4713   */\n      add\n        /* \"#utility.yul\":4694:4713   */\n      swap1\n      pop\n        /* \"#utility.yul\":4499:4719   */\n      swap2\n      swap1\n      pop\n      jump\t// out\n        /* \"#utility.yul\":4725:5091   */\n    tag_307:\n        /* \"#utility.yul\":4867:4870   */\n      0x00\n        /* \"#utility.yul\":4888:4955   */\n      tag_309\n        /* \"#utility.yul\":4952:4954   */\n      0x18\n        /* \"#utility.yul\":4947:4950   */\n      dup4\n        /* \"#utility.yul\":4888:4955   */\n      tag_277\n      jump\t// in\n    tag_309:\n        /* \"#utility.yul\":4881:4955   */\n      swap2\n      pop\n        /* \"#utility.yul\":4964:5057   */\n      tag_310\n        /* \"#utility.yul\":5053:5056   */\n      dup3\n        /* \"#utility.yul\":4964:5057   */\n      tag_311\n      jump\t// in\n    tag_310:\n        /* \"#utility.yul\":5082:5084   */\n      0x20\n        /* \"#utility.yul\":5077:5080   */\n      dup3\n        /* \"#utility.yul\":5073:5085   */\n      add\n        /* \"#utility.yul\":5066:5085   */\n      swap1\n      pop\n        /* \"#utility.yul\":4871:5091   */\n      swap2\n      swap1\n      pop\n      jump\t// out\n        /* \"#utility.yul\":5097:5215   */\n    tag_312:\n        /* \"#utility.yul\":5184:5208   */\n      tag_314\n        /* \"#utility.yul\":5202:5207   */\n      dup2\n        /* \"#utility.yul\":5184:5208   */\n      tag_315\n      jump\t// in\n    tag_314:\n        /* \"#utility.yul\":5179:5182   */\n      dup3\n        /* \"#utility.yul\":5172:5209   */\n      mstore\n        /* \"#utility.yul\":5162:5215   */\n      pop\n      pop\n      jump\t// out\n        /* \"#utility.yul\":5221:5378   */\n    tag_316:\n        /* \"#utility.yul\":5326:5371   */\n      tag_318\n        /* \"#utility.yul\":5346:5370   */\n      tag_319\n        /* \"#utility.yul\":5364:5369   */\n      dup3\n        /* \"#utility.yul\":5346:5370   */\n      tag_315\n      jump\t// in\n    tag_319:\n        /* \"#utility.yul\":5326:5371   */\n      tag_320\n      jump\t// in\n    tag_318:\n        /* \"#utility.yul\":5321:5324   */\n      dup3\n        /* \"#utility.yul\":5314:5372   */\n      mstore\n        /* \"#utility.yul\":5304:5378   */\n      pop\n      pop\n      jump\t// out\n        /* \"#utility.yul\":5384:5496   */\n    tag_321:\n        /* \"#utility.yul\":5467:5489   */\n      tag_323\n        /* \"#utility.yul\":5483:5488   */\n      dup2\n        /* \"#utility.yul\":5467:5489   */\n      tag_324\n      jump\t// in\n    tag_323:\n        /* \"#utility.yul\":5462:5465   */\n      dup3\n        /* \"#utility.yul\":5455:5490   */\n      mstore\n        /* \"#utility.yul\":5445:5496   */\n      pop\n      pop\n      jump\t// out\n        /* \"#utility.yul\":5502:6181   */\n    tag_215:\n        /* \"#utility.yul\":5698:5701   */\n      0x00\n        /* \"#utility.yul\":5713:5788   */\n      tag_326\n        /* \"#utility.yul\":5784:5787   */\n      dup3\n        /* \"#utility.yul\":5775:5781   */\n      dup8\n        /* \"#utility.yul\":5713:5788   */\n      tag_316\n      jump\t// in\n    tag_326:\n        /* \"#utility.yul\":5813:5815   */\n      0x20\n        /* \"#utility.yul\":5808:5811   */\n      dup3\n        /* \"#utility.yul\":5804:5816   */\n      add\n        /* \"#utility.yul\":5797:5816   */\n      swap2\n      pop\n        /* \"#utility.yul\":5826:5901   */\n      tag_327\n        /* \"#utility.yul\":5897:5900   */\n      dup3\n        /* \"#utility.yul\":5888:5894   */\n      dup7\n        /* \"#utility.yul\":5826:5901   */\n      tag_316\n      jump\t// in\n    tag_327:\n        /* \"#utility.yul\":5926:5928   */\n      0x20\n        /* \"#utility.yul\":5921:5924   */\n      dup3\n        /* \"#utility.yul\":5917:5929   */\n      add\n        /* \"#utility.yul\":5910:5929   */\n      swap2\n      pop\n        /* \"#utility.yul\":5939:6014   */\n      tag_328\n        /* \"#utility.yul\":6010:6013   */\n      dup3\n        /* \"#utility.yul\":6001:6007   */\n      dup6\n        /* \"#utility.yul\":5939:6014   */\n      tag_262\n      jump\t// in\n    tag_328:\n        /* \"#utility.yul\":6039:6041   */\n      0x14\n        /* \"#utility.yul\":6034:6037   */\n      dup3\n        /* \"#utility.yul\":6030:6042   */\n      add\n        /* \"#utility.yul\":6023:6042   */\n      swap2\n      pop\n        /* \"#utility.yul\":6052:6127   */\n      tag_329\n        /* \"#utility.yul\":6123:6126   */\n      dup3\n        /* \"#utility.yul\":6114:6120   */\n      dup5\n        /* \"#utility.yul\":6052:6127   */\n      tag_316\n      jump\t// in\n    tag_329:\n        /* \"#utility.yul\":6152:6154   */\n      0x20\n        /* \"#utility.yul\":6147:6150   */\n      dup3\n        /* \"#utility.yul\":6143:6155   */\n      add\n        /* \"#utility.yul\":6136:6155   */\n      swap2\n      pop\n        /* \"#utility.yul\":6172:6175   */\n      dup2\n        /* \"#utility.yul\":6165:6175   */\n      swap1\n      pop\n        /* \"#utility.yul\":5702:6181   */\n      swap6\n      swap5\n      pop\n      pop\n      pop\n      pop\n      pop\n      jump\t// out\n        /* \"#utility.yul\":6187:6397   */\n    tag_34:\n        /* \"#utility.yul\":6274:6278   */\n      0x00\n        /* \"#utility.yul\":6312:6314   */\n      0x20\n        /* \"#utility.yul\":6301:6310   */\n      dup3\n        /* \"#utility.yul\":6297:6315   */\n      add\n        /* \"#utility.yul\":6289:6315   */\n      swap1\n      pop\n        /* \"#utility.yul\":6325:6390   */\n      tag_331\n        /* \"#utility.yul\":6387:6388   */\n      0x00\n        /* \"#utility.yul\":6376:6385   */\n      dup4\n        /* \"#utility.yul\":6372:6389   */\n      add\n        /* \"#utility.yul\":6363:6369   */\n      dup5\n        /* \"#utility.yul\":6325:6390   */\n      tag_268\n      jump\t// in\n    tag_331:\n        /* \"#utility.yul\":6279:6397   */\n      swap3\n      swap2\n      pop\n      pop\n      jump\t// out\n        /* \"#utility.yul\":6403:6716   */\n    tag_28:\n        /* \"#utility.yul\":6516:6520   */\n      0x00\n        /* \"#utility.yul\":6554:6556   */\n      0x20\n        /* \"#utility.yul\":6543:6552   */\n      dup3\n        /* \"#utility.yul\":6539:6557   */\n      add\n        /* \"#utility.yul\":6531:6557   */\n      swap1\n      pop\n        /* \"#utility.yul\":6603:6612   */\n      dup2\n        /* \"#utility.yul\":6597:6601   */\n      dup2\n        /* \"#utility.yul\":6593:6613   */\n      sub\n        /* \"#utility.yul\":6589:6590   */\n      0x00\n        /* \"#utility.yul\":6578:6587   */\n      dup4\n        /* \"#utility.yul\":6574:6591   */\n      add\n        /* \"#utility.yul\":6567:6614   */\n      mstore\n        /* \"#utility.yul\":6631:6709   */\n      tag_333\n        /* \"#utility.yul\":6704:6708   */\n      dup2\n        /* \"#utility.yul\":6695:6701   */\n      dup5\n        /* \"#utility.yul\":6631:6709   */\n      tag_272\n      jump\t// in\n    tag_333:\n        /* \"#utility.yul\":6623:6709   */\n      swap1\n      pop\n        /* \"#utility.yul\":6521:6716   */\n      swap3\n      swap2\n      pop\n      pop\n      jump\t// out\n        /* \"#utility.yul\":6722:7145   */\n    tag_185:\n        /* \"#utility.yul\":6863:6867   */\n      0x00\n        /* \"#utility.yul\":6901:6903   */\n      0x40\n        /* \"#utility.yul\":6890:6899   */\n      dup3\n        /* \"#utility.yul\":6886:6904   */\n      add\n        /* \"#utility.yul\":6878:6904   */\n      swap1\n      pop\n        /* \"#utility.yul\":6950:6959   */\n      dup2\n        /* \"#utility.yul\":6944:6948   */\n      dup2\n        /* \"#utility.yul\":6940:6960   */\n      sub\n        /* \"#utility.yul\":6936:6937   */\n      0x00\n        /* \"#utility.yul\":6925:6934   */\n      dup4\n        /* \"#utility.yul\":6921:6938   */\n      add\n        /* \"#utility.yul\":6914:6961   */\n      mstore\n        /* \"#utility.yul\":6978:7056   */\n      tag_335\n        /* \"#utility.yul\":7051:7055   */\n      dup2\n        /* \"#utility.yul\":7042:7048   */\n      dup6\n        /* \"#utility.yul\":6978:7056   */\n      tag_272\n      jump\t// in\n    tag_335:\n        /* \"#utility.yul\":6970:7056   */\n      swap1\n      pop\n        /* \"#utility.yul\":7066:7138   */\n      tag_336\n        /* \"#utility.yul\":7134:7136   */\n      0x20\n        /* \"#utility.yul\":7123:7132   */\n      dup4\n        /* \"#utility.yul\":7119:7137   */\n      add\n        /* \"#utility.yul\":7110:7116   */\n      dup5\n        /* \"#utility.yul\":7066:7138   */\n      tag_312\n      jump\t// in\n    tag_336:\n        /* \"#utility.yul\":6868:7145   */\n      swap4\n      swap3\n      pop\n      pop\n      pop\n      jump\t// out\n        /* \"#utility.yul\":7151:7570   */\n    tag_114:\n        /* \"#utility.yul\":7317:7321   */\n      0x00\n        /* \"#utility.yul\":7355:7357   */\n      0x20\n        /* \"#utility.yul\":7344:7353   */\n      dup3\n        /* \"#utility.yul\":7340:7358   */\n      add\n        /* \"#utility.yul\":7332:7358   */\n      swap1\n      pop\n        /* \"#utility.yul\":7404:7413   */\n      dup2\n        /* \"#utility.yul\":7398:7402   */\n      dup2\n        /* \"#utility.yul\":7394:7414   */\n      sub\n        /* \"#utility.yul\":7390:7391   */\n      0x00\n        /* \"#utility.yul\":7379:7388   */\n      dup4\n        /* \"#utility.yul\":7375:7392   */\n      add\n        /* \"#utility.yul\":7368:7415   */\n      mstore\n        /* \"#utility.yul\":7432:7563   */\n      tag_338\n        /* \"#utility.yul\":7558:7562   */\n      dup2\n        /* \"#utility.yul\":7432:7563   */\n      tag_282\n      jump\t// in\n    tag_338:\n        /* \"#utility.yul\":7424:7563   */\n      swap1\n      pop\n        /* \"#utility.yul\":7322:7570   */\n      swap2\n      swap1\n      pop\n      jump\t// out\n        /* \"#utility.yul\":7576:7995   */\n    tag_117:\n        /* \"#utility.yul\":7742:7746   */\n      0x00\n        /* \"#utility.yul\":7780:7782   */\n      0x20\n        /* \"#utility.yul\":7769:7778   */\n      dup3\n        /* \"#utility.yul\":7765:7783   */\n      add\n        /* \"#utility.yul\":7757:7783   */\n      swap1\n      pop\n        /* \"#utility.yul\":7829:7838   */\n      dup2\n        /* \"#utility.yul\":7823:7827   */\n      dup2\n        /* \"#utility.yul\":7819:7839   */\n      sub\n        /* \"#utility.yul\":7815:7816   */\n      0x00\n        /* \"#utility.yul\":7804:7813   */\n      dup4\n        /* \"#utility.yul\":7800:7817   */\n      add\n        /* \"#utility.yul\":7793:7840   */\n      mstore\n        /* \"#utility.yul\":7857:7988   */\n      tag_340\n        /* \"#utility.yul\":7983:7987   */\n      dup2\n        /* \"#utility.yul\":7857:7988   */\n      tag_287\n      jump\t// in\n    tag_340:\n        /* \"#utility.yul\":7849:7988   */\n      swap1\n      pop\n        /* \"#utility.yul\":7747:7995   */\n      swap2\n      swap1\n      pop\n      jump\t// out\n        /* \"#utility.yul\":8001:8420   */\n    tag_138:\n        /* \"#utility.yul\":8167:8171   */\n      0x00\n        /* \"#utility.yul\":8205:8207   */\n      0x20\n        /* \"#utility.yul\":8194:8203   */\n      dup3\n        /* \"#utility.yul\":8190:8208   */\n      add\n        /* \"#utility.yul\":8182:8208   */\n      swap1\n      pop\n        /* \"#utility.yul\":8254:8263   */\n      dup2\n        /* \"#utility.yul\":8248:8252   */\n      dup2\n        /* \"#utility.yul\":8244:8264   */\n      sub\n        /* \"#utility.yul\":8240:8241   */\n      0x00\n        /* \"#utility.yul\":8229:8238   */\n      dup4\n        /* \"#utility.yul\":8225:8242   */\n      add\n        /* \"#utility.yul\":8218:8265   */\n      mstore\n        /* \"#utility.yul\":8282:8413   */\n      tag_342\n        /* \"#utility.yul\":8408:8412   */\n      dup2\n        /* \"#utility.yul\":8282:8413   */\n      tag_292\n      jump\t// in\n    tag_342:\n        /* \"#utility.yul\":8274:8413   */\n      swap1\n      pop\n        /* \"#utility.yul\":8172:8420   */\n      swap2\n      swap1\n      pop\n      jump\t// out\n        /* \"#utility.yul\":8426:8845   */\n    tag_127:\n        /* \"#utility.yul\":8592:8596   */\n      0x00\n        /* \"#utility.yul\":8630:8632   */\n      0x20\n        /* \"#utility.yul\":8619:8628   */\n      dup3\n        /* \"#utility.yul\":8615:8633   */\n      add\n        /* \"#utility.yul\":8607:8633   */\n      swap1\n      pop\n        /* \"#utility.yul\":8679:8688   */\n      dup2\n        /* \"#utility.yul\":8673:8677   */\n      dup2\n        /* \"#utility.yul\":8669:8689   */\n      sub\n        /* \"#utility.yul\":8665:8666   */\n      0x00\n        /* \"#utility.yul\":8654:8663   */\n      dup4\n        /* \"#utility.yul\":8650:8667   */\n      add\n        /* \"#utility.yul\":8643:8690   */\n      mstore\n        /* \"#utility.yul\":8707:8838   */\n      tag_344\n        /* \"#utility.yul\":8833:8837   */\n      dup2\n        /* \"#utility.yul\":8707:8838   */\n      tag_297\n      jump\t// in\n    tag_344:\n        /* \"#utility.yul\":8699:8838   */\n      swap1\n      pop\n        /* \"#utility.yul\":8597:8845   */\n      swap2\n      swap1\n      pop\n      jump\t// out\n        /* \"#utility.yul\":8851:9270   */\n    tag_146:\n        /* \"#utility.yul\":9017:9021   */\n      0x00\n        /* \"#utility.yul\":9055:9057   */\n      0x20\n        /* \"#utility.yul\":9044:9053   */\n      dup3\n        /* \"#utility.yul\":9040:9058   */\n      add\n        /* \"#utility.yul\":9032:9058   */\n      swap1\n      pop\n        /* \"#utility.yul\":9104:9113   */\n      dup2\n        /* \"#utility.yul\":9098:9102   */\n      dup2\n        /* \"#utility.yul\":9094:9114   */\n      sub\n        /* \"#utility.yul\":9090:9091   */\n      0x00\n        /* \"#utility.yul\":9079:9088   */\n      dup4\n        /* \"#utility.yul\":9075:9092   */\n      add\n        /* \"#utility.yul\":9068:9115   */\n      mstore\n        /* \"#utility.yul\":9132:9263   */\n      tag_346\n        /* \"#utility.yul\":9258:9262   */\n      dup2\n        /* \"#utility.yul\":9132:9263   */\n      tag_302\n      jump\t// in\n    tag_346:\n        /* \"#utility.yul\":9124:9263   */\n      swap1\n      pop\n        /* \"#utility.yul\":9022:9270   */\n      swap2\n      swap1\n      pop\n      jump\t// out\n        /* \"#utility.yul\":9276:9695   */\n    tag_221:\n        /* \"#utility.yul\":9442:9446   */\n      0x00\n        /* \"#utility.yul\":9480:9482   */\n      0x20\n        /* \"#utility.yul\":9469:9478   */\n      dup3\n        /* \"#utility.yul\":9465:9483   */\n      add\n        /* \"#utility.yul\":9457:9483   */\n      swap1\n      pop\n        /* \"#utility.yul\":9529:9538   */\n      dup2\n        /* \"#utility.yul\":9523:9527   */\n      dup2\n        /* \"#utility.yul\":9519:9539   */\n      sub\n        /* \"#utility.yul\":9515:9516   */\n      0x00\n        /* \"#utility.yul\":9504:9513   */\n      dup4\n        /* \"#utility.yul\":9500:9517   */\n      add\n        /* \"#utility.yul\":9493:9540   */\n      mstore\n        /* \"#utility.yul\":9557:9688   */\n      tag_348\n        /* \"#utility.yul\":9683:9687   */\n      dup2\n        /* \"#utility.yul\":9557:9688   */\n      tag_307\n      jump\t// in\n    tag_348:\n        /* \"#utility.yul\":9549:9688   */\n      swap1\n      pop\n        /* \"#utility.yul\":9447:9695   */\n      swap2\n      swap1\n      pop\n      jump\t// out\n        /* \"#utility.yul\":9701:9923   */\n    tag_38:\n        /* \"#utility.yul\":9794:9798   */\n      0x00\n        /* \"#utility.yul\":9832:9834   */\n      0x20\n        /* \"#utility.yul\":9821:9830   */\n      dup3\n        /* \"#utility.yul\":9817:9835   */\n      add\n        /* \"#utility.yul\":9809:9835   */\n      swap1\n      pop\n        /* \"#utility.yul\":9845:9916   */\n      tag_350\n        /* \"#utility.yul\":9913:9914   */\n      0x00\n        /* \"#utility.yul\":9902:9911   */\n      dup4\n        /* \"#utility.yul\":9898:9915   */\n      add\n        /* \"#utility.yul\":9889:9895   */\n      dup5\n        /* \"#utility.yul\":9845:9916   */\n      tag_312\n      jump\t// in\n    tag_350:\n        /* \"#utility.yul\":9799:9923   */\n      swap3\n      swap2\n      pop\n      pop\n      jump\t// out\n        /* \"#utility.yul\":9929:10261   */\n    tag_229:\n        /* \"#utility.yul\":10050:10054   */\n      0x00\n        /* \"#utility.yul\":10088:10090   */\n      0x40\n        /* \"#utility.yul\":10077:10086   */\n      dup3\n        /* \"#utility.yul\":10073:10091   */\n      add\n        /* \"#utility.yul\":10065:10091   */\n      swap1\n      pop\n        /* \"#utility.yul\":10101:10172   */\n      tag_352\n        /* \"#utility.yul\":10169:10170   */\n      0x00\n        /* \"#utility.yul\":10158:10167   */\n      dup4\n        /* \"#utility.yul\":10154:10171   */\n      add\n        /* \"#utility.yul\":10145:10151   */\n      dup6\n        /* \"#utility.yul\":10101:10172   */\n      tag_312\n      jump\t// in\n    tag_352:\n        /* \"#utility.yul\":10182:10254   */\n      tag_353\n        /* \"#utility.yul\":10250:10252   */\n      0x20\n        /* \"#utility.yul\":10239:10248   */\n      dup4\n        /* \"#utility.yul\":10235:10253   */\n      add\n        /* \"#utility.yul\":10226:10232   */\n      dup5\n        /* \"#utility.yul\":10182:10254   */\n      tag_312\n      jump\t// in\n    tag_353:\n        /* \"#utility.yul\":10055:10261   */\n      swap4\n      swap3\n      pop\n      pop\n      pop\n      jump\t// out\n        /* \"#utility.yul\":10267:10481   */\n    tag_47:\n        /* \"#utility.yul\":10356:10360   */\n      0x00\n        /* \"#utility.yul\":10394:10396   */\n      0x20\n        /* \"#utility.yul\":10383:10392   */\n      dup3\n        /* \"#utility.yul\":10379:10397   */\n      add\n        /* \"#utility.yul\":10371:10397   */\n      swap1\n      pop\n        /* \"#utility.yul\":10407:10474   */\n      tag_355\n        /* \"#utility.yul\":10471:10472   */\n      0x00\n        /* \"#utility.yul\":10460:10469   */\n      dup4\n        /* \"#utility.yul\":10456:10473   */\n      add\n        /* \"#utility.yul\":10447:10453   */\n      dup5\n        /* \"#utility.yul\":10407:10474   */\n      tag_321\n      jump\t// in\n    tag_355:\n        /* \"#utility.yul\":10361:10481   */\n      swap3\n      swap2\n      pop\n      pop\n      jump\t// out\n        /* \"#utility.yul\":10487:10586   */\n    tag_275:\n        /* \"#utility.yul\":10539:10545   */\n      0x00\n        /* \"#utility.yul\":10573:10578   */\n      dup2\n        /* \"#utility.yul\":10567:10579   */\n      mload\n        /* \"#utility.yul\":10557:10579   */\n      swap1\n      pop\n        /* \"#utility.yul\":10546:10586   */\n      swap2\n      swap1\n      pop\n      jump\t// out\n        /* \"#utility.yul\":10592:10761   */\n    tag_277:\n        /* \"#utility.yul\":10676:10687   */\n      0x00\n        /* \"#utility.yul\":10710:10716   */\n      dup3\n        /* \"#utility.yul\":10705:10708   */\n      dup3\n        /* \"#utility.yul\":10698:10717   */\n      mstore\n        /* \"#utility.yul\":10750:10754   */\n      0x20\n        /* \"#utility.yul\":10745:10748   */\n      dup3\n        /* \"#utility.yul\":10741:10755   */\n      add\n        /* \"#utility.yul\":10726:10755   */\n      swap1\n      pop\n        /* \"#utility.yul\":10688:10761   */\n      swap3\n      swap2\n      pop\n      pop\n      jump\t// out\n        /* \"#utility.yul\":10767:11072   */\n    tag_122:\n        /* \"#utility.yul\":10807:10810   */\n      0x00\n        /* \"#utility.yul\":10826:10846   */\n      tag_359\n        /* \"#utility.yul\":10844:10845   */\n      dup3\n        /* \"#utility.yul\":10826:10846   */\n      tag_315\n      jump\t// in\n    tag_359:\n        /* \"#utility.yul\":10821:10846   */\n      swap2\n      pop\n        /* \"#utility.yul\":10860:10880   */\n      tag_360\n        /* \"#utility.yul\":10878:10879   */\n      dup4\n        /* \"#utility.yul\":10860:10880   */\n      tag_315\n      jump\t// in\n    tag_360:\n        /* \"#utility.yul\":10855:10880   */\n      swap3\n      pop\n        /* \"#utility.yul\":11014:11015   */\n      dup3\n        /* \"#utility.yul\":10946:11012   */\n      0xffffffffffffffffffffffffffffffffffffffffffffffffffffffffffffffff\n        /* \"#utility.yul\":10942:11016   */\n      sub\n        /* \"#utility.yul\":10939:10940   */\n      dup3\n        /* \"#utility.yul\":10936:11017   */\n      gt\n        /* \"#utility.yul\":10933:10935   */\n      iszero\n      tag_361\n      jumpi\n        /* \"#utility.yul\":11020:11038   */\n      tag_362\n      tag_363\n      jump\t// in\n    tag_362:\n        /* \"#utility.yul\":10933:10935   */\n    tag_361:\n        /* \"#utility.yul\":11064:11065   */\n      dup3\n        /* \"#utility.yul\":11061:11062   */\n      dup3\n        /* \"#utility.yul\":11057:11066   */\n      add\n        /* \"#utility.yul\":11050:11066   */\n      swap1\n      pop\n        /* \"#utility.yul\":10811:11072   */\n      swap3\n      swap2\n      pop\n      pop\n      jump\t// out\n        /* \"#utility.yul\":11078:11263   */\n    tag_134:\n        /* \"#utility.yul\":11118:11119   */\n      0x00\n        /* \"#utility.yul\":11135:11155   */\n      tag_365\n        /* \"#utility.yul\":11153:11154   */\n      dup3\n        /* \"#utility.yul\":11135:11155   */\n      tag_315\n      jump\t// in\n    tag_365:\n        /* \"#utility.yul\":11130:11155   */\n      swap2\n      pop\n        /* \"#utility.yul\":11169:11189   */\n      tag_366\n        /* \"#utility.yul\":11187:11188   */\n      dup4\n        /* \"#utility.yul\":11169:11189   */\n      tag_315\n      jump\t// in\n    tag_366:\n        /* \"#utility.yul\":11164:11189   */\n      swap3\n      pop\n        /* \"#utility.yul\":11208:11209   */\n      dup3\n        /* \"#utility.yul\":11198:11200   */\n      tag_367\n      jumpi\n        /* \"#utility.yul\":11213:11231   */\n      tag_368\n      tag_369\n      jump\t// in\n    tag_368:\n        /* \"#utility.yul\":11198:11200   */\n    tag_367:\n        /* \"#utility.yul\":11255:11256   */\n      dup3\n        /* \"#utility.yul\":11252:11253   */\n      dup3\n        /* \"#utility.yul\":11248:11257   */\n      div\n        /* \"#utility.yul\":11243:11257   */\n      swap1\n      pop\n        /* \"#utility.yul\":11120:11263   */\n      swap3\n      swap2\n      pop\n      pop\n      jump\t// out\n        /* \"#utility.yul\":11269:12117   */\n    tag_370:\n        /* \"#utility.yul\":11330:11335   */\n      0x00\n        /* \"#utility.yul\":11337:11341   */\n      dup1\n        /* \"#utility.yul\":11361:11367   */\n      dup3\n        /* \"#utility.yul\":11352:11367   */\n      swap2\n      pop\n        /* \"#utility.yul\":11385:11390   */\n      dup4\n        /* \"#utility.yul\":11376:11390   */\n      swap1\n      pop\n        /* \"#utility.yul\":11399:12111   */\n    tag_372:\n        /* \"#utility.yul\":11420:11421   */\n      0x01\n        /* \"#utility.yul\":11410:11418   */\n      dup6\n        /* \"#utility.yul\":11407:11422   */\n      gt\n        /* \"#utility.yul\":11399:12111   */\n      iszero\n      tag_374\n      jumpi\n        /* \"#utility.yul\":11515:11519   */\n      dup1\n        /* \"#utility.yul\":11510:11513   */\n      dup7\n        /* \"#utility.yul\":11506:11520   */\n      div\n        /* \"#utility.yul\":11500:11504   */\n      dup2\n        /* \"#utility.yul\":11497:11521   */\n      gt\n        /* \"#utility.yul\":11494:11496   */\n      iszero\n      tag_375\n      jumpi\n        /* \"#utility.yul\":11524:11542   */\n      tag_376\n      tag_363\n      jump\t// in\n    tag_376:\n        /* \"#utility.yul\":11494:11496   */\n    tag_375:\n        /* \"#utility.yul\":11574:11575   */\n      0x01\n        /* \"#utility.yul\":11564:11572   */\n      dup6\n        /* \"#utility.yul\":11560:11576   */\n      and\n        /* \"#utility.yul\":11557:11559   */\n      iszero\n      tag_377\n      jumpi\n        /* \"#utility.yul\":11989:11993   */\n      dup1\n        /* \"#utility.yul\":11982:11987   */\n      dup3\n        /* \"#utility.yul\":11978:11994   */\n      mul\n        /* \"#utility.yul\":11969:11994   */\n      swap2\n      pop\n        /* \"#utility.yul\":11557:11559   */\n    tag_377:\n        /* \"#utility.yul\":12039:12043   */\n      dup1\n        /* \"#utility.yul\":12033:12037   */\n      dup2\n        /* \"#utility.yul\":12029:12044   */\n      mul\n        /* \"#utility.yul\":12021:12044   */\n      swap1\n      pop\n        /* \"#utility.yul\":12069:12101   */\n      tag_378\n        /* \"#utility.yul\":12092:12100   */\n      dup6\n        /* \"#utility.yul\":12069:12101   */\n      tag_379\n      jump\t// in\n    tag_378:\n        /* \"#utility.yul\":12057:12101   */\n      swap5\n      pop\n        /* \"#utility.yul\":11399:12111   */\n      jump(tag_372)\n    tag_374:\n        /* \"#utility.yul\":11342:12117   */\n      swap5\n      pop\n      swap5\n      swap3\n      pop\n      pop\n      pop\n      jump\t// out\n        /* \"#utility.yul\":12123:12408   */\n    tag_141:\n        /* \"#utility.yul\":12183:12188   */\n      0x00\n        /* \"#utility.yul\":12207:12230   */\n      tag_381\n        /* \"#utility.yul\":12225:12229   */\n      dup3\n        /* \"#utility.yul\":12207:12230   */\n      tag_315\n      jump\t// in\n    tag_381:\n        /* \"#utility.yul\":12199:12230   */\n      swap2\n      pop\n        /* \"#utility.yul\":12251:12278   */\n      tag_382\n        /* \"#utility.yul\":12269:12277   */\n      dup4\n        /* \"#utility.yul\":12251:12278   */\n      tag_315\n      jump\t// in\n    tag_382:\n        /* \"#utility.yul\":12239:12278   */\n      swap3\n      pop\n        /* \"#utility.yul\":12297:12401   */\n      tag_383\n        /* \"#utility.yul\":12334:12400   */\n      0xffffffffffffffffffffffffffffffffffffffffffffffffffffffffffffffff\n        /* \"#utility.yul\":12324:12332   */\n      dup5\n        /* \"#utility.yul\":12318:12322   */\n      dup5\n        /* \"#utility.yul\":12297:12401   */\n      tag_384\n      jump\t// in\n    tag_383:\n        /* \"#utility.yul\":12288:12401   */\n      swap1\n      pop\n        /* \"#utility.yul\":12189:12408   */\n      swap3\n      swap2\n      pop\n      pop\n      jump\t// out\n        /* \"#utility.yul\":12414:13487   */\n    tag_384:\n        /* \"#utility.yul\":12468:12473   */\n      0x00\n        /* \"#utility.yul\":12659:12667   */\n      dup3\n        /* \"#utility.yul\":12649:12651   */\n      tag_386\n      jumpi\n        /* \"#utility.yul\":12680:12681   */\n      0x01\n        /* \"#utility.yul\":12671:12681   */\n      swap1\n      pop\n        /* \"#utility.yul\":12682:12687   */\n      jump(tag_385)\n        /* \"#utility.yul\":12649:12651   */\n    tag_386:\n        /* \"#utility.yul\":12708:12712   */\n      dup2\n        /* \"#utility.yul\":12698:12700   */\n      tag_387\n      jumpi\n        /* \"#utility.yul\":12725:12726   */\n      0x00\n        /* \"#utility.yul\":12716:12726   */\n      swap1\n      pop\n        /* \"#utility.yul\":12727:12732   */\n      jump(tag_385)\n        /* \"#utility.yul\":12698:12700   */\n    tag_387:\n        /* \"#utility.yul\":12794:12798   */\n      dup2\n        /* \"#utility.yul\":12842:12843   */\n      0x01\n        /* \"#utility.yul\":12837:12864   */\n      dup2\n      eq\n      tag_389\n      jumpi\n        /* \"#utility.yul\":12878:12879   */\n      0x02\n        /* \"#utility.yul\":12873:13064   */\n      dup2\n      eq\n      tag_390\n      jumpi\n        /* \"#utility.yul\":12787:13064   */\n      jump(tag_388)\n        /* \"#utility.yul\":12837:12864   */\n    tag_389:\n        /* \"#utility.yul\":12855:12856   */\n      0x01\n        /* \"#utility.yul\":12846:12856   */\n      swap2\n      pop\n        /* \"#utility.yul\":12857:12862   */\n      pop\n      jump(tag_385)\n        /* \"#utility.yul\":12873:13064   */\n    tag_390:\n        /* \"#utility.yul\":12918:12921   */\n      0xff\n        /* \"#utility.yul\":12908:12916   */\n      dup5\n        /* \"#utility.yul\":12905:12922   */\n      gt\n        /* \"#utility.yul\":12902:12904   */\n      iszero\n      tag_391\n      jumpi\n        /* \"#utility.yul\":12925:12943   */\n      tag_392\n      tag_363\n      jump\t// in\n    tag_392:\n        /* \"#utility.yul\":12902:12904   */\n    tag_391:\n        /* \"#utility.yul\":12974:12982   */\n      dup4\n        /* \"#utility.yul\":12971:12972   */\n      0x02\n        /* \"#utility.yul\":12967:12983   */\n      exp\n        /* \"#utility.yul\":12958:12983   */\n      swap2\n      pop\n        /* \"#utility.yul\":13009:13012   */\n      dup5\n        /* \"#utility.yul\":13002:13007   */\n      dup3\n        /* \"#utility.yul\":12999:13013   */\n      gt\n        /* \"#utility.yul\":12996:12998   */\n      iszero\n      tag_393\n      jumpi\n        /* \"#utility.yul\":13016:13034   */\n      tag_394\n      tag_363\n      jump\t// in\n    tag_394:\n        /* \"#utility.yul\":12996:12998   */\n    tag_393:\n        /* \"#utility.yul\":13049:13054   */\n      pop\n      jump(tag_385)\n        /* \"#utility.yul\":12787:13064   */\n    tag_388:\n      pop\n        /* \"#utility.yul\":13173:13175   */\n      0x20\n        /* \"#utility.yul\":13163:13171   */\n      dup4\n        /* \"#utility.yul\":13160:13176   */\n      lt\n        /* \"#utility.yul\":13154:13157   */\n      0x0133\n        /* \"#utility.yul\":13148:13152   */\n      dup4\n        /* \"#utility.yul\":13145:13158   */\n      lt\n        /* \"#utility.yul\":13141:13177   */\n      and\n        /* \"#utility.yul\":13123:13125   */\n      0x4e\n        /* \"#utility.yul\":13113:13121   */\n      dup5\n        /* \"#utility.yul\":13110:13126   */\n      lt\n        /* \"#utility.yul\":13105:13107   */\n      0x0b\n        /* \"#utility.yul\":13099:13103   */\n      dup5\n        /* \"#utility.yul\":13096:13108   */\n      lt\n        /* \"#utility.yul\":13092:13127   */\n      and\n        /* \"#utility.yul\":13076:13187   */\n      or\n        /* \"#utility.yul\":13073:13075   */\n      iszero\n      tag_395\n      jumpi\n        /* \"#utility.yul\":13229:13237   */\n      dup3\n        /* \"#utility.yul\":13223:13227   */\n      dup3\n        /* \"#utility.yul\":13219:13238   */\n      exp\n        /* \"#utility.yul\":13210:13238   */\n      swap1\n      pop\n        /* \"#utility.yul\":13264:13267   */\n      dup4\n        /* \"#utility.yul\":13257:13262   */\n      dup2\n        /* \"#utility.yul\":13254:13268   */\n      gt\n        /* \"#utility.yul\":13251:13253   */\n      iszero\n      tag_396\n      jumpi\n        /* \"#utility.yul\":13271:13289   */\n      tag_397\n      tag_363\n      jump\t// in\n    tag_397:\n        /* \"#utility.yul\":13251:13253   */\n    tag_396:\n        /* \"#utility.yul\":13304:13309   */\n      jump(tag_385)\n        /* \"#utility.yul\":13073:13075   */\n    tag_395:\n        /* \"#utility.yul\":13344:13386   */\n      tag_398\n        /* \"#utility.yul\":13382:13385   */\n      dup5\n        /* \"#utility.yul\":13372:13380   */\n      dup5\n        /* \"#utility.yul\":13366:13370   */\n      dup5\n        /* \"#utility.yul\":13363:13364   */\n      0x01\n        /* \"#utility.yul\":13344:13386   */\n      tag_370\n      jump\t// in\n    tag_398:\n        /* \"#utility.yul\":13329:13386   */\n      swap3\n      pop\n      swap1\n      pop\n        /* \"#utility.yul\":13418:13422   */\n      dup2\n        /* \"#utility.yul\":13413:13416   */\n      dup5\n        /* \"#utility.yul\":13409:13423   */\n      div\n        /* \"#utility.yul\":13402:13407   */\n      dup2\n        /* \"#utility.yul\":13399:13424   */\n      gt\n        /* \"#utility.yul\":13396:13398   */\n      iszero\n      tag_399\n      jumpi\n        /* \"#utility.yul\":13427:13445   */\n      tag_400\n      tag_363\n      jump\t// in\n    tag_400:\n        /* \"#utility.yul\":13396:13398   */\n    tag_399:\n        /* \"#utility.yul\":13476:13480   */\n      dup2\n        /* \"#utility.yul\":13469:13474   */\n      dup2\n        /* \"#utility.yul\":13465:13481   */\n      mul\n        /* \"#utility.yul\":13456:13481   */\n      swap1\n      pop\n        /* \"#utility.yul\":12474:13487   */\n    tag_385:\n      swap4\n      swap3\n      pop\n      pop\n      pop\n      jump\t// out\n        /* \"#utility.yul\":13493:13841   */\n    tag_143:\n        /* \"#utility.yul\":13533:13540   */\n      0x00\n        /* \"#utility.yul\":13556:13576   */\n      tag_402\n        /* \"#utility.yul\":13574:13575   */\n      dup3\n        /* \"#utility.yul\":13556:13576   */\n      tag_315\n      jump\t// in\n    tag_402:\n        /* \"#utility.yul\":13551:13576   */\n      swap2\n      pop\n        /* \"#utility.yul\":13590:13610   */\n      tag_403\n        /* \"#utility.yul\":13608:13609   */\n      dup4\n        /* \"#utility.yul\":13590:13610   */\n      tag_315\n      jump\t// in\n    tag_403:\n        /* \"#utility.yul\":13585:13610   */\n      swap3\n      pop\n        /* \"#utility.yul\":13778:13779   */\n      dup2\n        /* \"#utility.yul\":13710:13776   */\n      0xffffffffffffffffffffffffffffffffffffffffffffffffffffffffffffffff\n        /* \"#utility.yul\":13706:13780   */\n      div\n        /* \"#utility.yul\":13703:13704   */\n      dup4\n        /* \"#utility.yul\":13700:13781   */\n      gt\n        /* \"#utility.yul\":13695:13696   */\n      dup3\n        /* \"#utility.yul\":13688:13697   */\n      iszero\n        /* \"#utility.yul\":13681:13698   */\n      iszero\n        /* \"#utility.yul\":13677:13782   */\n      and\n        /* \"#utility.yul\":13674:13676   */\n      iszero\n      tag_404\n      jumpi\n        /* \"#utility.yul\":13785:13803   */\n      tag_405\n      tag_363\n      jump\t// in\n    tag_405:\n        /* \"#utility.yul\":13674:13676   */\n    tag_404:\n        /* \"#utility.yul\":13833:13834   */\n      dup3\n        /* \"#utility.yul\":13830:13831   */\n      dup3\n        /* \"#utility.yul\":13826:13835   */\n      mul\n        /* \"#utility.yul\":13815:13835   */\n      swap1\n      pop\n        /* \"#utility.yul\":13541:13841   */\n      swap3\n      swap2\n      pop\n      pop\n      jump\t// out\n        /* \"#utility.yul\":13847:14038   */\n    tag_119:\n        /* \"#utility.yul\":13887:13891   */\n      0x00\n        /* \"#utility.yul\":13907:13927   */\n      tag_407\n        /* \"#utility.yul\":13925:13926   */\n      dup3\n        /* \"#utility.yul\":13907:13927   */\n      tag_315\n      jump\t// in\n    tag_407:\n        /* \"#utility.yul\":13902:13927   */\n      swap2\n      pop\n        /* \"#utility.yul\":13941:13961   */\n      tag_408\n        /* \"#utility.yul\":13959:13960   */\n      dup4\n        /* \"#utility.yul\":13941:13961   */\n      tag_315\n      jump\t// in\n    tag_408:\n        /* \"#utility.yul\":13936:13961   */\n      swap3\n      pop\n        /* \"#utility.yul\":13980:13981   */\n      dup3\n        /* \"#utility.yul\":13977:13978   */\n      dup3\n        /* \"#utility.yul\":13974:13982   */\n      lt\n        /* \"#utility.yul\":13971:13973   */\n      iszero\n      tag_409\n      jumpi\n        /* \"#utility.yul\":13985:14003   */\n      tag_410\n      tag_363\n      jump\t// in\n    tag_410:\n        /* \"#utility.yul\":13971:13973   */\n    tag_409:\n        /* \"#utility.yul\":14030:14031   */\n      dup3\n        /* \"#utility.yul\":14027:14028   */\n      dup3\n        /* \"#utility.yul\":14023:14032   */\n      sub\n        /* \"#utility.yul\":14015:14032   */\n      swap1\n      pop\n        /* \"#utility.yul\":13892:14038   */\n      swap3\n      swap2\n      pop\n      pop\n      jump\t// out\n        /* \"#utility.yul\":14044:14140   */\n    tag_266:\n        /* \"#utility.yul\":14081:14088   */\n      0x00\n        /* \"#utility.yul\":14110:14134   */\n      tag_412\n        /* \"#utility.yul\":14128:14133   */\n      dup3\n        /* \"#utility.yul\":14110:14134   */\n      tag_413\n      jump\t// in\n    tag_412:\n        /* \"#utility.yul\":14099:14134   */\n      swap1\n      pop\n        /* \"#utility.yul\":14089:14140   */\n      swap2\n      swap1\n      pop\n      jump\t// out\n        /* \"#utility.yul\":14146:14236   */\n    tag_271:\n        /* \"#utility.yul\":14180:14187   */\n      0x00\n        /* \"#utility.yul\":14223:14228   */\n      dup2\n        /* \"#utility.yul\":14216:14229   */\n      iszero\n        /* \"#utility.yul\":14209:14230   */\n      iszero\n        /* \"#utility.yul\":14198:14230   */\n      swap1\n      pop\n        /* \"#utility.yul\":14188:14236   */\n      swap2\n      swap1\n      pop\n      jump\t// out\n        /* \"#utility.yul\":14242:14368   */\n    tag_413:\n        /* \"#utility.yul\":14279:14286   */\n      0x00\n        /* \"#utility.yul\":14319:14361   */\n      0xffffffffffffffffffffffffffffffffffffffff\n        /* \"#utility.yul\":14312:14317   */\n      dup3\n        /* \"#utility.yul\":14308:14362   */\n      and\n        /* \"#utility.yul\":14297:14362   */\n      swap1\n      pop\n        /* \"#utility.yul\":14287:14368   */\n      swap2\n      swap1\n      pop\n      jump\t// out\n        /* \"#utility.yul\":14374:14451   */\n    tag_315:\n        /* \"#utility.yul\":14411:14418   */\n      0x00\n        /* \"#utility.yul\":14440:14445   */\n      dup2\n        /* \"#utility.yul\":14429:14445   */\n      swap1\n      pop\n        /* \"#utility.yul\":14419:14451   */\n      swap2\n      swap1\n      pop\n      jump\t// out\n        /* \"#utility.yul\":14457:14543   */\n    tag_324:\n        /* \"#utility.yul\":14492:14499   */\n      0x00\n        /* \"#utility.yul\":14532:14536   */\n      0xff\n        /* \"#utility.yul\":14525:14530   */\n      dup3\n        /* \"#utility.yul\":14521:14537   */\n      and\n        /* \"#utility.yul\":14510:14537   */\n      swap1\n      pop\n        /* \"#utility.yul\":14500:14543   */\n      swap2\n      swap1\n      pop\n      jump\t// out\n        /* \"#utility.yul\":14549:14856   */\n    tag_279:\n        /* \"#utility.yul\":14617:14618   */\n      0x00\n        /* \"#utility.yul\":14627:14740   */\n    tag_419:\n        /* \"#utility.yul\":14641:14647   */\n      dup4\n        /* \"#utility.yul\":14638:14639   */\n      dup2\n        /* \"#utility.yul\":14635:14648   */\n      lt\n        /* \"#utility.yul\":14627:14740   */\n      iszero\n      tag_421\n      jumpi\n        /* \"#utility.yul\":14726:14727   */\n      dup1\n        /* \"#utility.yul\":14721:14724   */\n      dup3\n        /* \"#utility.yul\":14717:14728   */\n      add\n        /* \"#utility.yul\":14711:14729   */\n      mload\n        /* \"#utility.yul\":14707:14708   */\n      dup2\n        /* \"#utility.yul\":14702:14705   */\n      dup5\n        /* \"#utility.yul\":14698:14709   */\n      add\n        /* \"#utility.yul\":14691:14730   */\n      mstore\n        /* \"#utility.yul\":14663:14665   */\n      0x20\n        /* \"#utility.yul\":14660:14661   */\n      dup2\n        /* \"#utility.yul\":14656:14666   */\n      add\n        /* \"#utility.yul\":14651:14666   */\n      swap1\n      pop\n        /* \"#utility.yul\":14627:14740   */\n      jump(tag_419)\n    tag_421:\n        /* \"#utility.yul\":14758:14764   */\n      dup4\n        /* \"#utility.yul\":14755:14756   */\n      dup2\n        /* \"#utility.yul\":14752:14765   */\n      gt\n        /* \"#utility.yul\":14749:14751   */\n      iszero\n      tag_422\n      jumpi\n        /* \"#utility.yul\":14838:14839   */\n      0x00\n        /* \"#utility.yul\":14829:14835   */\n      dup5\n        /* \"#utility.yul\":14824:14827   */\n      dup5\n        /* \"#utility.yul\":14820:14836   */\n      add\n        /* \"#utility.yul\":14813:14840   */\n      mstore\n        /* \"#utility.yul\":14749:14751   */\n    tag_422:\n        /* \"#utility.yul\":14598:14856   */\n      pop\n      pop\n      pop\n      pop\n      jump\t// out\n        /* \"#utility.yul\":14862:15182   */\n    tag_104:\n        /* \"#utility.yul\":14906:14912   */\n      0x00\n        /* \"#utility.yul\":14943:14944   */\n      0x02\n        /* \"#utility.yul\":14937:14941   */\n      dup3\n        /* \"#utility.yul\":14933:14945   */\n      div\n        /* \"#utility.yul\":14923:14945   */\n      swap1\n      pop\n        /* \"#utility.yul\":14990:14991   */\n      0x01\n        /* \"#utility.yul\":14984:14988   */\n      dup3\n        /* \"#utility.yul\":14980:14992   */\n      and\n        /* \"#utility.yul\":15011:15029   */\n      dup1\n        /* \"#utility.yul\":15001:15003   */\n      tag_424\n      jumpi\n        /* \"#utility.yul\":15067:15071   */\n      0x7f\n        /* \"#utility.yul\":15059:15065   */\n      dup3\n        /* \"#utility.yul\":15055:15072   */\n      and\n        /* \"#utility.yul\":15045:15072   */\n      swap2\n      pop\n        /* \"#utility.yul\":15001:15003   */\n    tag_424:\n        /* \"#utility.yul\":15129:15131   */\n      0x20\n        /* \"#utility.yul\":15121:15127   */\n      dup3\n        /* \"#utility.yul\":15118:15132   */\n      lt\n        /* \"#utility.yul\":15098:15116   */\n      dup2\n        /* \"#utility.yul\":15095:15133   */\n      eq\n        /* \"#utility.yul\":15092:15094   */\n      iszero\n      tag_425\n      jumpi\n        /* \"#utility.yul\":15148:15166   */\n      tag_426\n      tag_427\n      jump\t// in\n    tag_426:\n        /* \"#utility.yul\":15092:15094   */\n    tag_425:\n        /* \"#utility.yul\":14913:15182   */\n      pop\n      swap2\n      swap1\n      pop\n      jump\t// out\n        /* \"#utility.yul\":15188:15288   */\n    tag_267:\n        /* \"#utility.yul\":15227:15234   */\n      0x00\n        /* \"#utility.yul\":15256:15282   */\n      tag_429\n        /* \"#utility.yul\":15276:15281   */\n      dup3\n        /* \"#utility.yul\":15256:15282   */\n      tag_430\n      jump\t// in\n    tag_429:\n        /* \"#utility.yul\":15245:15282   */\n      swap1\n      pop\n        /* \"#utility.yul\":15235:15288   */\n      swap2\n      swap1\n      pop\n      jump\t// out\n        /* \"#utility.yul\":15294:15388   */\n    tag_430:\n        /* \"#utility.yul\":15333:15340   */\n      0x00\n        /* \"#utility.yul\":15362:15382   */\n      tag_432\n        /* \"#utility.yul\":15376:15381   */\n      dup3\n        /* \"#utility.yul\":15362:15382   */\n      tag_433\n      jump\t// in\n    tag_432:\n        /* \"#utility.yul\":15351:15382   */\n      swap1\n      pop\n        /* \"#utility.yul\":15341:15388   */\n      swap2\n      swap1\n      pop\n      jump\t// out\n        /* \"#utility.yul\":15394:15473   */\n    tag_320:\n        /* \"#utility.yul\":15433:15440   */\n      0x00\n        /* \"#utility.yul\":15462:15467   */\n      dup2\n        /* \"#utility.yul\":15451:15467   */\n      swap1\n      pop\n        /* \"#utility.yul\":15441:15473   */\n      swap2\n      swap1\n      pop\n      jump\t// out\n        /* \"#utility.yul\":15479:15655   */\n    tag_162:\n        /* \"#utility.yul\":15511:15512   */\n      0x00\n        /* \"#utility.yul\":15528:15548   */\n      tag_436\n        /* \"#utility.yul\":15546:15547   */\n      dup3\n        /* \"#utility.yul\":15528:15548   */\n      tag_315\n      jump\t// in\n    tag_436:\n        /* \"#utility.yul\":15523:15548   */\n      swap2\n      pop\n        /* \"#utility.yul\":15562:15582   */\n      tag_437\n        /* \"#utility.yul\":15580:15581   */\n      dup4\n        /* \"#utility.yul\":15562:15582   */\n      tag_315\n      jump\t// in\n    tag_437:\n        /* \"#utility.yul\":15557:15582   */\n      swap3\n      pop\n        /* \"#utility.yul\":15601:15602   */\n      dup3\n        /* \"#utility.yul\":15591:15593   */\n      tag_438\n      jumpi\n        /* \"#utility.yul\":15606:15624   */\n      tag_439\n      tag_369\n      jump\t// in\n    tag_439:\n        /* \"#utility.yul\":15591:15593   */\n    tag_438:\n        /* \"#utility.yul\":15647:15648   */\n      dup3\n        /* \"#utility.yul\":15644:15645   */\n      dup3\n        /* \"#utility.yul\":15640:15649   */\n      mod\n        /* \"#utility.yul\":15635:15649   */\n      swap1\n      pop\n        /* \"#utility.yul\":15513:15655   */\n      swap3\n      swap2\n      pop\n      pop\n      jump\t// out\n        /* \"#utility.yul\":15661:15841   */\n    tag_363:\n        /* \"#utility.yul\":15709:15786   */\n      0x4e487b7100000000000000000000000000000000000000000000000000000000\n        /* \"#utility.yul\":15706:15707   */\n      0x00\n        /* \"#utility.yul\":15699:15787   */\n      mstore\n        /* \"#utility.yul\":15806:15810   */\n      0x11\n        /* \"#utility.yul\":15803:15804   */\n      0x04\n        /* \"#utility.yul\":15796:15811   */\n      mstore\n        /* \"#utility.yul\":15830:15834   */\n      0x24\n        /* \"#utility.yul\":15827:15828   */\n      0x00\n        /* \"#utility.yul\":15820:15835   */\n      revert\n        /* \"#utility.yul\":15847:16027   */\n    tag_369:\n        /* \"#utility.yul\":15895:15972   */\n      0x4e487b7100000000000000000000000000000000000000000000000000000000\n        /* \"#utility.yul\":15892:15893   */\n      0x00\n        /* \"#utility.yul\":15885:15973   */\n      mstore\n        /* \"#utility.yul\":15992:15996   */\n      0x12\n        /* \"#utility.yul\":15989:15990   */\n      0x04\n        /* \"#utility.yul\":15982:15997   */\n      mstore\n        /* \"#utility.yul\":16016:16020   */\n      0x24\n        /* \"#utility.yul\":16013:16014   */\n      0x00\n        /* \"#utility.yul\":16006:16021   */\n      revert\n        /* \"#utility.yul\":16033:16213   */\n    tag_427:\n        /* \"#utility.yul\":16081:16158   */\n      0x4e487b7100000000000000000000000000000000000000000000000000000000\n        /* \"#utility.yul\":16078:16079   */\n      0x00\n        /* \"#utility.yul\":16071:16159   */\n      mstore\n        /* \"#utility.yul\":16178:16182   */\n      0x22\n        /* \"#utility.yul\":16175:16176   */\n      0x04\n        /* \"#utility.yul\":16168:16183   */\n      mstore\n        /* \"#utility.yul\":16202:16206   */\n      0x24\n        /* \"#utility.yul\":16199:16200   */\n      0x00\n        /* \"#utility.yul\":16192:16207   */\n      revert\n        /* \"#utility.yul\":16219:16321   */\n    tag_281:\n        /* \"#utility.yul\":16260:16266   */\n      0x00\n        /* \"#utility.yul\":16311:16313   */\n      0x1f\n        /* \"#utility.yul\":16307:16314   */\n      not\n        /* \"#utility.yul\":16302:16304   */\n      0x1f\n        /* \"#utility.yul\":16295:16300   */\n      dup4\n        /* \"#utility.yul\":16291:16305   */\n      add\n        /* \"#utility.yul\":16287:16315   */\n      and\n        /* \"#utility.yul\":16277:16315   */\n      swap1\n      pop\n        /* \"#utility.yul\":16267:16321   */\n      swap2\n      swap1\n      pop\n      jump\t// out\n        /* \"#utility.yul\":16327:16421   */\n    tag_433:\n        /* \"#utility.yul\":16360:16368   */\n      0x00\n        /* \"#utility.yul\":16408:16413   */\n      dup2\n        /* \"#utility.yul\":16404:16406   */\n      0x60\n        /* \"#utility.yul\":16400:16414   */\n      shl\n        /* \"#utility.yul\":16379:16414   */\n      swap1\n      pop\n        /* \"#utility.yul\":16369:16421   */\n      swap2\n      swap1\n      pop\n      jump\t// out\n        /* \"#utility.yul\":16427:16529   */\n    tag_379:\n        /* \"#utility.yul\":16469:16477   */\n      0x00\n        /* \"#utility.yul\":16516:16521   */\n      dup2\n        /* \"#utility.yul\":16513:16514   */\n      0x01\n        /* \"#utility.yul\":16509:16522   */\n      shr\n        /* \"#utility.yul\":16488:16522   */\n      swap1\n      pop\n        /* \"#utility.yul\":16478:16529   */\n      swap2\n      swap1\n      pop\n      jump\t// out\n        /* \"#utility.yul\":16535:16712   */\n    tag_286:\n        /* \"#utility.yul\":16675:16704   */\n      0x45524332303a20696e73756666696369656e742062616c616e63650000000000\n        /* \"#utility.yul\":16671:16672   */\n      0x00\n        /* \"#utility.yul\":16663:16669   */\n      dup3\n        /* \"#utility.yul\":16659:16673   */\n      add\n        /* \"#utility.yul\":16652:16705   */\n      mstore\n        /* \"#utility.yul\":16641:16712   */\n      pop\n      jump\t// out\n        /* \"#utility.yul\":16718:16892   */\n    tag_291:\n        /* \"#utility.yul\":16858:16884   */\n      0x45524332303a20616c6c6f77616e636520746f6f206c6f770000000000000000\n        /* \"#utility.yul\":16854:16855   */\n      0x00\n        /* \"#utility.yul\":16846:16852   */\n      dup3\n        /* \"#utility.yul\":16842:16856   */\n      add\n        /* \"#utility.yul\":16835:16885   */\n      mstore\n        /* \"#utility.yul\":16824:16892   */\n      pop\n      jump\t// out\n        /* \"#utility.yul\":16898:17067   */\n    tag_296:\n        /* \"#utility.yul\":17038:17059   */\n      0x4d61782033206472617773207065722064617900000000000000000000000000\n        /* \"#utility.yul\":17034:17035   */\n      0x00\n        /* \"#utility.yul\":17026:17032   */\n      dup3\n        /* \"#utility.yul\":17022:17036   */\n      add\n        /* \"#utility.yul\":17015:17060   */\n      mstore\n        /* \"#utility.yul\":17004:17067   */\n      pop\n      jump\t// out\n        /* \"#utility.yul\":17073:17295   */\n    tag_301:\n        /* \"#utility.yul\":17213:17247   */\n      0x45524332303a20696e73756666696369656e742062616c616e636520746f2062\n        /* \"#utility.yul\":17209:17210   */\n      0x00\n        /* \"#utility.yul\":17201:17207   */\n      dup3\n        /* \"#utility.yul\":17197:17211   */\n      add\n        /* \"#utility.yul\":17190:17248   */\n      mstore\n        /* \"#utility.yul\":17282:17287   */\n      0x75726e0000000000000000000000000000000000000000000000000000000000\n        /* \"#utility.yul\":17277:17279   */\n      0x20\n        /* \"#utility.yul\":17269:17275   */\n      dup3\n        /* \"#utility.yul\":17265:17280   */\n      add\n        /* \"#utility.yul\":17258:17288   */\n      mstore\n        /* \"#utility.yul\":17179:17295   */\n      pop\n      jump\t// out\n        /* \"#utility.yul\":17301:17465   */\n    tag_306:\n        /* \"#utility.yul\":17441:17457   */\n      0x4e6f7420656e6f7567682050454e000000000000000000000000000000000000\n        /* \"#utility.yul\":17437:17438   */\n      0x00\n        /* \"#utility.yul\":17429:17435   */\n      dup3\n        /* \"#utility.yul\":17425:17439   */\n      add\n        /* \"#utility.yul\":17418:17458   */\n      mstore\n        /* \"#utility.yul\":17407:17465   */\n      pop\n      jump\t// out\n        /* \"#utility.yul\":17471:17645   */\n    tag_311:\n        /* \"#utility.yul\":17611:17637   */\n      0x416c726561647920636865636b656420696e20746f6461790000000000000000\n        /* \"#utility.yul\":17607:17608   */\n      0x00\n        /* \"#utility.yul\":17599:17605   */\n      dup3\n        /* \"#utility.yul\":17595:17609   */\n      add\n        /* \"#utility.yul\":17588:17638   */\n      mstore\n        /* \"#utility.yul\":17577:17645   */\n      pop\n      jump\t// out\n        /* \"#utility.yul\":17651:17773   */\n    tag_238:\n        /* \"#utility.yul\":17724:17748   */\n      tag_453\n        /* \"#utility.yul\":17742:17747   */\n      dup2\n        /* \"#utility.yul\":17724:17748   */\n      tag_266\n      jump\t// in\n    tag_453:\n        /* \"#utility.yul\":17717:17722   */\n      dup2\n        /* \"#utility.yul\":17714:17749   */\n      eq\n        /* \"#utility.yul\":17704:17706   */\n      tag_454\n      jumpi\n        /* \"#utility.yul\":17763:17764   */\n      0x00\n        /* \"#utility.yul\":17760:17761   */\n      dup1\n        /* \"#utility.yul\":17753:17765   */\n      revert\n        /* \"#utility.yul\":17704:17706   */\n    tag_454:\n        /* \"#utility.yul\":17694:17773   */\n      pop\n      jump\t// out\n        /* \"#utility.yul\":17779:17901   */\n    tag_242:\n        /* \"#utility.yul\":17852:17876   */\n      tag_456\n        /* \"#utility.yul\":17870:17875   */\n      dup2\n        /* \"#utility.yul\":17852:17876   */\n      tag_315\n      jump\t// in\n    tag_456:\n        /* \"#utility.yul\":17845:17850   */\n      dup2\n        /* \"#utility.yul\":17842:17877   */\n      eq\n        /* \"#utility.yul\":17832:17834   */\n      tag_457\n      jumpi\n        /* \"#utility.yul\":17891:17892   */\n      0x00\n        /* \"#utility.yul\":17888:17889   */\n      dup1\n        /* \"#utility.yul\":17881:17893   */\n      revert\n        /* \"#utility.yul\":17832:17834   */\n    tag_457:\n        /* \"#utility.yul\":17822:17901   */\n      pop\n      jump\t// out\n\n    auxdata: 0xa26469706673582212203ee1e2e58985eb8231d99c5ca091481dbe02948622ac35e334fcf2b3d6b8fa7a64736f6c63430008040033\n}\n",
				"bytecode": {
					"linkReferences": {},
					"object": "60806040526012600560006101000a81548160ff021916908360ff16021790555060646008553480156200003257600080fd5b5060405162002ab138038062002ab18339818101604052810190620000589190620002dc565b828282826003908051906020019062000073929190620001a3565b5081600490805190602001906200008c929190620001a3565b50620000b981600560009054906101000a900460ff1660ff16600a0a62030d4002620000c560201b60201c565b505050505050620005e6565b806000808473ffffffffffffffffffffffffffffffffffffffff1673ffffffffffffffffffffffffffffffffffffffff1681526020019081526020016000206000828254620001159190620003f1565b925050819055508060026000828254620001309190620003f1565b925050819055508173ffffffffffffffffffffffffffffffffffffffff16600073ffffffffffffffffffffffffffffffffffffffff167fddf252ad1be2c89b69c2b068fc378daa952ba7f163c4a11628f55a4df523b3ef8360405162000197919062000375565b60405180910390a35050565b828054620001b190620004c2565b90600052602060002090601f016020900481019282620001d5576000855562000221565b82601f10620001f057805160ff191683800117855562000221565b8280016001018555821562000221579182015b828111156200022057825182559160200191906001019062000203565b5b50905062000230919062000234565b5090565b5b808211156200024f57600081600090555060010162000235565b5090565b60006200026a6200026484620003bb565b62000392565b9050828152602081018484840111156200028357600080fd5b620002908482856200048c565b509392505050565b600081519050620002a981620005cc565b92915050565b600082601f830112620002c157600080fd5b8151620002d384826020860162000253565b91505092915050565b600080600060608486031215620002f257600080fd5b600084015167ffffffffffffffff8111156200030d57600080fd5b6200031b86828701620002af565b935050602084015167ffffffffffffffff8111156200033957600080fd5b6200034786828701620002af565b92505060406200035a8682870162000298565b9150509250925092565b6200036f8162000482565b82525050565b60006020820190506200038c600083018462000364565b92915050565b60006200039e620003b1565b9050620003ac8282620004f8565b919050565b6000604051905090565b600067ffffffffffffffff821115620003d957620003d86200058c565b5b620003e482620005bb565b9050602081019050919050565b6000620003fe8262000482565b91506200040b8362000482565b9250827fffffffffffffffffffffffffffffffffffffffffffffffffffffffffffffffff038211156200044357620004426200052e565b5b828201905092915050565b60006200045b8262000462565b9050919050565b600073ffffffffffffffffffffffffffffffffffffffff82169050919050565b6000819050919050565b60005b83811015620004ac5780820151818401526020810190506200048f565b83811115620004bc576000848401525b50505050565b60006002820490506001821680620004db57607f821691505b60208210811415620004f257620004f16200055d565b5b50919050565b6200050382620005bb565b810181811067ffffffffffffffff821117156200052557620005246200058c565b5b80604052505050565b7f4e487b7100000000000000000000000000000000000000000000000000000000600052601160045260246000fd5b7f4e487b7100000000000000000000000000000000000000000000000000000000600052602260045260246000fd5b7f4e487b7100000000000000000000000000000000000000000000000000000000600052604160045260246000fd5b6000601f19601f8301169050919050565b620005d7816200044e565b8114620005e357600080fd5b50565b6124bb80620005f66000396000f3fe608060405234801561001057600080fd5b50600436106101215760003560e01c80637f93ee98116100ad578063baeb071811610071578063baeb07181461036a578063bb47e61a14610388578063bd6e4e75146103a6578063dd62ed3e146103d6578063f1a19b6c1461040657610121565b80637f93ee981461028c57806395d89b41146102bc578063a6c1ba5f146102da578063a9059cbb1461030a578063b863bd371461033a57610121565b8063313ce567116100f4578063313ce567146101c257806335edf0b0146101e057806342966c68146102105780636d6ae1a81461022c57806370a082311461025c57610121565b806306fdde0314610126578063095ea7b31461014457806318160ddd1461017457806323b872dd14610192575b600080fd5b61012e610436565b60405161013b9190611d57565b60405180910390f35b61015e60048036038101906101599190611b23565b6104c4565b60405161016b9190611d3c565b60405180910390f35b61017c6105b6565b6040516101899190611e69565b60405180910390f35b6101ac60048036038101906101a79190611ad4565b6105bc565b6040516101b99190611d3c565b60405180910390f35b6101ca6108ab565b6040516101d79190611ead565b60405180910390f35b6101fa60048036038101906101f59190611a6f565b6108be565b6040516102079190611e69565b60405180910390f35b61022a60048036038101906102259190611b5f565b6108d6565b005b61024660048036038101906102419190611b5f565b610a2e565b6040516102539190611d57565b60405180910390f35b61027660048036038101906102719190611a6f565b61128c565b6040516102839190611e69565b60405180910390f35b6102a660048036038101906102a19190611a6f565b6112a4565b6040516102b39190611e69565b60405180910390f35b6102c46112bc565b6040516102d19190611d57565b60405180910390f35b6102f460048036038101906102ef9190611b5f565b61134a565b6040516103019190611e69565b60405180910390f35b610324600480360381019061031f9190611b23565b611475565b6040516103319190611d3c565b60405180910390f35b610354600480360381019061034f9190611b5f565b611611565b6040516103619190611e69565b60405180910390f35b61037261164a565b60405161037f9190611e69565b60405180910390f35b610390611912565b60405161039d9190611e69565b60405180910390f35b6103c060048036038101906103bb9190611a6f565b611918565b6040516103cd9190611e69565b60405180910390f35b6103f060048036038101906103eb9190611a98565b611930565b6040516103fd9190611e69565b60405180910390f35b610420600480360381019061041b9190611a6f565b611955565b60405161042d9190611e69565b60405180910390f35b60038054610443906121f2565b80601f016020809104026020016040519081016040528092919081815260200182805461046f906121f2565b80156104bc5780601f10610491576101008083540402835291602001916104bc565b820191906000526020600020905b81548152906001019060200180831161049f57829003601f168201915b505050505081565b600081600160003373ffffffffffffffffffffffffffffffffffffffff1673ffffffffffffffffffffffffffffffffffffffff16815260200190815260200160002060008573ffffffffffffffffffffffffffffffffffffffff1673ffffffffffffffffffffffffffffffffffffffff168152602001908152602001600020819055508273ffffffffffffffffffffffffffffffffffffffff163373ffffffffffffffffffffffffffffffffffffffff167f8c5be1e5ebec7d5bd14f71427d1e84f3dd0314c0f7b2291e5b200ac8c7c3b925846040516105a49190611e69565b60405180910390a36001905092915050565b60025481565b6000816000808673ffffffffffffffffffffffffffffffffffffffff1673ffffffffffffffffffffffffffffffffffffffff16815260200190815260200160002054101561063f576040517f08c379a000000000000000000000000000000000000000000000000000000000815260040161063690611da9565b60405180910390fd5b81600160008673ffffffffffffffffffffffffffffffffffffffff1673ffffffffffffffffffffffffffffffffffffffff16815260200190815260200160002060003373ffffffffffffffffffffffffffffffffffffffff1673ffffffffffffffffffffffffffffffffffffffff1681526020019081526020016000205410156106fe576040517f08c379a00000000000000000000000000000000000000000000000000000000081526004016106f590611dc9565b60405180910390fd5b81600160008673ffffffffffffffffffffffffffffffffffffffff1673ffffffffffffffffffffffffffffffffffffffff16815260200190815260200160002060003373ffffffffffffffffffffffffffffffffffffffff1673ffffffffffffffffffffffffffffffffffffffff168152602001908152602001600020600082825461078a9190612136565b92505081905550816000808673ffffffffffffffffffffffffffffffffffffffff1673ffffffffffffffffffffffffffffffffffffffff16815260200190815260200160002060008282546107df9190612136565b92505081905550816000808573ffffffffffffffffffffffffffffffffffffffff1673ffffffffffffffffffffffffffffffffffffffff16815260200190815260200160002060008282546108349190611ee4565b925050819055508273ffffffffffffffffffffffffffffffffffffffff168473ffffffffffffffffffffffffffffffffffffffff167fddf252ad1be2c89b69c2b068fc378daa952ba7f163c4a11628f55a4df523b3ef846040516108989190611e69565b60405180910390a3600190509392505050565b600560009054906101000a900460ff1681565b60076020528060005260406000206000915090505481565b806000803373ffffffffffffffffffffffffffffffffffffffff1673ffffffffffffffffffffffffffffffffffffffff168152602001908152602001600020541015610957576040517f08c379a000000000000000000000000000000000000000000000000000000000815260040161094e90611e09565b60405180910390fd5b806000803373ffffffffffffffffffffffffffffffffffffffff1673ffffffffffffffffffffffffffffffffffffffff16815260200190815260200160002060008282546109a59190612136565b9250508190555080600260008282546109be9190612136565b92505081905550600073ffffffffffffffffffffffffffffffffffffffff163373ffffffffffffffffffffffffffffffffffffffff167fddf252ad1be2c89b69c2b068fc378daa952ba7f163c4a11628f55a4df523b3ef83604051610a239190611e69565b60405180910390a350565b606060006201518061708042610a449190611ee4565b610a4e9190611f3a565b9050600081600960003373ffffffffffffffffffffffffffffffffffffffff1673ffffffffffffffffffffffffffffffffffffffff168152602001908152602001600020541015610b235781600960003373ffffffffffffffffffffffffffffffffffffffff1673ffffffffffffffffffffffffffffffffffffffff168152602001908152602001600020819055506000600a60003373ffffffffffffffffffffffffffffffffffffffff1673ffffffffffffffffffffffffffffffffffffffff168152602001908152602001600020819055505b6003600a60003373ffffffffffffffffffffffffffffffffffffffff1673ffffffffffffffffffffffffffffffffffffffff1681526020019081526020016000205410610ba5576040517f08c379a0000000000000000000000000000000000000000000000000000000008152600401610b9c90611de9565b60405180910390fd5b6001600a60003373ffffffffffffffffffffffffffffffffffffffff1673ffffffffffffffffffffffffffffffffffffffff168152602001908152602001600020541415610d7457600560009054906101000a900460ff1660ff16600a610c0c9190611fbe565b6064610c1891906120dc565b9050806000803373ffffffffffffffffffffffffffffffffffffffff1673ffffffffffffffffffffffffffffffffffffffff168152602001908152602001600020541015610c9b576040517f08c379a0000000000000000000000000000000000000000000000000000000008152600401610c9290611e29565b60405180910390fd5b806000803373ffffffffffffffffffffffffffffffffffffffff1673ffffffffffffffffffffffffffffffffffffffff1681526020019081526020016000206000828254610ce99190612136565b925050819055508060026000828254610d029190612136565b92505081905550600073ffffffffffffffffffffffffffffffffffffffff163373ffffffffffffffffffffffffffffffffffffffff167fddf252ad1be2c89b69c2b068fc378daa952ba7f163c4a11628f55a4df523b3ef83604051610d679190611e69565b60405180910390a3610f40565b6002600a60003373ffffffffffffffffffffffffffffffffffffffff1673ffffffffffffffffffffffffffffffffffffffff168152602001908152602001600020541415610f3f57600560009054906101000a900460ff1660ff16600a610ddb9190611fbe565b60c8610de791906120dc565b9050806000803373ffffffffffffffffffffffffffffffffffffffff1673ffffffffffffffffffffffffffffffffffffffff168152602001908152602001600020541015610e6a576040517f08c379a0000000000000000000000000000000000000000000000000000000008152600401610e6190611e29565b60405180910390fd5b806000803373ffffffffffffffffffffffffffffffffffffffff1673ffffffffffffffffffffffffffffffffffffffff1681526020019081526020016000206000828254610eb89190612136565b925050819055508060026000828254610ed19190612136565b92505081905550600073ffffffffffffffffffffffffffffffffffffffff163373ffffffffffffffffffffffffffffffffffffffff167fddf252ad1be2c89b69c2b068fc378daa952ba7f163c4a11628f55a4df523b3ef83604051610f369190611e69565b60405180910390a35b5b6001600a60003373ffffffffffffffffffffffffffffffffffffffff1673ffffffffffffffffffffffffffffffffffffffff1681526020019081526020016000206000828254610f909190611ee4565b92505081905550600060016064610fa687611611565b610fb09190612252565b610fba9190611ee4565b905060018111611001576040518060400160405280600581526020017f746f6b656e0000000000000000000000000000000000000000000000000000008152509350611234565b6005811161108b576040518060400160405280600581526020017f726573657400000000000000000000000000000000000000000000000000000081525093506000600a60003373ffffffffffffffffffffffffffffffffffffffff1673ffffffffffffffffffffffffffffffffffffffff16815260200190815260200160002081905550611233565b600a8111611105576040518060400160405280600781526020017f3838382050454e00000000000000000000000000000000000000000000000000815250935061110033600560009054906101000a900460ff1660ff16600a6110ee9190611fbe565b6103786110fb91906120dc565b61196d565b611232565b6014811161114a576040518060400160405280600781526020017f6e6f7468696e67000000000000000000000000000000000000000000000000008152509350611231565b603281116111c3576040518060400160405280600781526020017f3230302050454e0000000000000000000000000000000000000000000000000081525093506111be33600560009054906101000a900460ff1660ff16600a6111ad9190611fbe565b60c86111b991906120dc565b61196d565b611230565b6040518060400160405280600781526020017f3130302050454e00000000000000000000000000000000000000000000000000815250935061122f33600560009054906101000a900460ff1660ff16600a61121e9190611fbe565b606461122a91906120dc565b61196d565b5b5b5b5b5b3373ffffffffffffffffffffffffffffffffffffffff167f76775f6fd80273d051ffb53fcafdf73d3f7933b79207e60a978184a1fb72b32d858460405161127c929190611d79565b60405180910390a2505050919050565b60006020528060005260406000206000915090505481565b600a6020528060005260406000206000915090505481565b600480546112c9906121f2565b80601f01602080910402602001604051908101604052809291908181526020018280546112f5906121f2565b80156113425780601f1061131757610100808354040283529160200191611342565b820191906000526020600020905b81548152906001019060200180831161132557829003601f168201915b505050505081565b60008060019050600083141561136a576009816113679190611ee4565b90505b60006005600760003373ffffffffffffffffffffffffffffffffffffffff1673ffffffffffffffffffffffffffffffffffffffff168152602001908152602001600020546113b89190612252565b14156113ce576001816113cb9190611ee4565b90505b600062015180617080426113e29190611ee4565b6113ec9190611f3a565b9050600060076004836113ff9190611ee4565b6114099190612252565b905060008114801561141c575060008514155b156114315760018361142e9190611ee4565b92505b600560009054906101000a900460ff1660ff16600a6114509190611fbe565b60085461145d91906120dc565b8361146891906120dc565b9250829350505050919050565b6000816000803373ffffffffffffffffffffffffffffffffffffffff1673ffffffffffffffffffffffffffffffffffffffff1681526020019081526020016000205410156114f8576040517f08c379a00000000000000000000000000000000000000000000000000000000081526004016114ef90611da9565b60405180910390fd5b816000803373ffffffffffffffffffffffffffffffffffffffff1673ffffffffffffffffffffffffffffffffffffffff16815260200190815260200160002060008282546115469190612136565b92505081905550816000808573ffffffffffffffffffffffffffffffffffffffff1673ffffffffffffffffffffffffffffffffffffffff168152602001908152602001600020600082825461159b9190611ee4565b925050819055508273ffffffffffffffffffffffffffffffffffffffff163373ffffffffffffffffffffffffffffffffffffffff167fddf252ad1be2c89b69c2b068fc378daa952ba7f163c4a11628f55a4df523b3ef846040516115ff9190611e69565b60405180910390a36001905092915050565b60004244338460405160200161162a9493929190611cee565b6040516020818303038152906040528051906020012060001c9050919050565b600080620151806170804261165f9190611ee4565b6116699190611f3a565b90506000600760003373ffffffffffffffffffffffffffffffffffffffff1673ffffffffffffffffffffffffffffffffffffffff16815260200190815260200160002054905081600660003373ffffffffffffffffffffffffffffffffffffffff1673ffffffffffffffffffffffffffffffffffffffff1681526020019081526020016000205410611730576040517f08c379a000000000000000000000000000000000000000000000000000000000815260040161172790611e49565b60405180910390fd5b60018261173d9190612136565b600660003373ffffffffffffffffffffffffffffffffffffffff1673ffffffffffffffffffffffffffffffffffffffff1681526020019081526020016000205414156117df576001600760003373ffffffffffffffffffffffffffffffffffffffff1673ffffffffffffffffffffffffffffffffffffffff16815260200190815260200160002060008282546117d39190611ee4565b92505081905550611825565b6001600760003373ffffffffffffffffffffffffffffffffffffffff1673ffffffffffffffffffffffffffffffffffffffff168152602001908152602001600020819055505b81600660003373ffffffffffffffffffffffffffffffffffffffff1673ffffffffffffffffffffffffffffffffffffffff168152602001908152602001600020819055506118728161134a565b925061187e338461196d565b3373ffffffffffffffffffffffffffffffffffffffff167fb1ea073ac09a6b73cc1842f3dbda1736e0c0d94b33aac1983f2612a5d115b4c784600760003373ffffffffffffffffffffffffffffffffffffffff1673ffffffffffffffffffffffffffffffffffffffff16815260200190815260200160002054604051611905929190611e84565b60405180910390a2505090565b60085481565b60096020528060005260406000206000915090505481565b6001602052816000526040600020602052806000526040600020600091509150505481565b60066020528060005260406000206000915090505481565b806000808473ffffffffffffffffffffffffffffffffffffffff1673ffffffffffffffffffffffffffffffffffffffff16815260200190815260200160002060008282546119bb9190611ee4565b9250508190555080600260008282546119d49190611ee4565b925050819055508173ffffffffffffffffffffffffffffffffffffffff16600073ffffffffffffffffffffffffffffffffffffffff167fddf252ad1be2c89b69c2b068fc378daa952ba7f163c4a11628f55a4df523b3ef83604051611a399190611e69565b60405180910390a35050565b600081359050611a5481612457565b92915050565b600081359050611a698161246e565b92915050565b600060208284031215611a8157600080fd5b6000611a8f84828501611a45565b91505092915050565b60008060408385031215611aab57600080fd5b6000611ab985828601611a45565b9250506020611aca85828601611a45565b9150509250929050565b600080600060608486031215611ae957600080fd5b6000611af786828701611a45565b9350506020611b0886828701611a45565b9250506040611b1986828701611a5a565b9150509250925092565b60008060408385031215611b3657600080fd5b6000611b4485828601611a45565b9250506020611b5585828601611a5a565b9150509250929050565b600060208284031215611b7157600080fd5b6000611b7f84828501611a5a565b91505092915050565b611b99611b948261216a565b612224565b82525050565b611ba88161217c565b82525050565b6000611bb982611ec8565b611bc38185611ed3565b9350611bd38185602086016121bf565b611bdc81612310565b840191505092915050565b6000611bf4601b83611ed3565b9150611bff8261233b565b602082019050919050565b6000611c17601883611ed3565b9150611c2282612364565b602082019050919050565b6000611c3a601383611ed3565b9150611c458261238d565b602082019050919050565b6000611c5d602383611ed3565b9150611c68826123b6565b604082019050919050565b6000611c80600e83611ed3565b9150611c8b82612405565b602082019050919050565b6000611ca3601883611ed3565b9150611cae8261242e565b602082019050919050565b611cc2816121a8565b82525050565b611cd9611cd4826121a8565b612248565b82525050565b611ce8816121b2565b82525050565b6000611cfa8287611cc8565b602082019150611d0a8286611cc8565b602082019150611d1a8285611b88565b601482019150611d2a8284611cc8565b60208201915081905095945050505050565b6000602082019050611d516000830184611b9f565b92915050565b60006020820190508181036000830152611d718184611bae565b905092915050565b60006040820190508181036000830152611d938185611bae565b9050611da26020830184611cb9565b9392505050565b60006020820190508181036000830152611dc281611be7565b9050919050565b60006020820190508181036000830152611de281611c0a565b9050919050565b60006020820190508181036000830152611e0281611c2d565b9050919050565b60006020820190508181036000830152611e2281611c50565b9050919050565b60006020820190508181036000830152611e4281611c73565b9050919050565b60006020820190508181036000830152611e6281611c96565b9050919050565b6000602082019050611e7e6000830184611cb9565b92915050565b6000604082019050611e996000830185611cb9565b611ea66020830184611cb9565b9392505050565b6000602082019050611ec26000830184611cdf565b92915050565b600081519050919050565b600082825260208201905092915050565b6000611eef826121a8565b9150611efa836121a8565b9250827fffffffffffffffffffffffffffffffffffffffffffffffffffffffffffffffff03821115611f2f57611f2e612283565b5b828201905092915050565b6000611f45826121a8565b9150611f50836121a8565b925082611f6057611f5f6122b2565b5b828204905092915050565b6000808291508390505b6001851115611fb557808604811115611f9157611f90612283565b5b6001851615611fa05780820291505b8081029050611fae8561232e565b9450611f75565b94509492505050565b6000611fc9826121a8565b9150611fd4836121a8565b92506120017fffffffffffffffffffffffffffffffffffffffffffffffffffffffffffffffff8484612009565b905092915050565b60008261201957600190506120d5565b8161202757600090506120d5565b816001811461203d576002811461204757612076565b60019150506120d5565b60ff84111561205957612058612283565b5b8360020a9150848211156120705761206f612283565b5b506120d5565b5060208310610133831016604e8410600b84101617156120ab5782820a9050838111156120a6576120a5612283565b5b6120d5565b6120b88484846001611f6b565b925090508184048111156120cf576120ce612283565b5b81810290505b9392505050565b60006120e7826121a8565b91506120f2836121a8565b9250817fffffffffffffffffffffffffffffffffffffffffffffffffffffffffffffffff048311821515161561212b5761212a612283565b5b828202905092915050565b6000612141826121a8565b915061214c836121a8565b92508282101561215f5761215e612283565b5b828203905092915050565b600061217582612188565b9050919050565b60008115159050919050565b600073ffffffffffffffffffffffffffffffffffffffff82169050919050565b6000819050919050565b600060ff82169050919050565b60005b838110156121dd5780820151818401526020810190506121c2565b838111156121ec576000848401525b50505050565b6000600282049050600182168061220a57607f821691505b6020821081141561221e5761221d6122e1565b5b50919050565b600061222f82612236565b9050919050565b600061224182612321565b9050919050565b6000819050919050565b600061225d826121a8565b9150612268836121a8565b925082612278576122776122b2565b5b828206905092915050565b7f4e487b7100000000000000000000000000000000000000000000000000000000600052601160045260246000fd5b7f4e487b7100000000000000000000000000000000000000000000000000000000600052601260045260246000fd5b7f4e487b7100000000000000000000000000000000000000000000000000000000600052602260045260246000fd5b6000601f19601f8301169050919050565b60008160601b9050919050565b60008160011c9050919050565b7f45524332303a20696e73756666696369656e742062616c616e63650000000000600082015250565b7f45524332303a20616c6c6f77616e636520746f6f206c6f770000000000000000600082015250565b7f4d61782033206472617773207065722064617900000000000000000000000000600082015250565b7f45524332303a20696e73756666696369656e742062616c616e636520746f206260008201527f75726e0000000000000000000000000000000000000000000000000000000000602082015250565b7f4e6f7420656e6f7567682050454e000000000000000000000000000000000000600082015250565b7f416c726561647920636865636b656420696e20746f6461790000000000000000600082015250565b6124608161216a565b811461246b57600080fd5b50565b612477816121a8565b811461248257600080fd5b5056fea26469706673582212203ee1e2e58985eb8231d99c5ca091481dbe02948622ac35e334fcf2b3d6b8fa7a64736f6c63430008040033",
					"opcodes": "PUSH1 0x80 PUSH1 0x40 MSTORE PUSH1 0x12 PUSH1 0x5 PUSH1 0x0 PUSH2 0x100 EXP DUP2 SLOAD DUP2 PUSH1 0xFF MUL NOT AND SWAP1 DUP4 PUSH1 0xFF AND MUL OR SWAP1 SSTORE POP PUSH1 0x64 PUSH1 0x8 SSTORE CALLVALUE DUP1 ISZERO PUSH3 0x32 JUMPI PUSH1 0x0 DUP1 REVERT JUMPDEST POP PUSH1 0x40 MLOAD PUSH3 0x2AB1 CODESIZE SUB DUP1 PUSH3 0x2AB1 DUP4 CODECOPY DUP2 DUP2 ADD PUSH1 0x40 MSTORE DUP2 ADD SWAP1 PUSH3 0x58 SWAP2 SWAP1 PUSH3 0x2DC JUMP JUMPDEST DUP3 DUP3 DUP3 DUP3 PUSH1 0x3 SWAP1 DUP1 MLOAD SWAP1 PUSH1 0x20 ADD SWAP1 PUSH3 0x73 SWAP3 SWAP2 SWAP1 PUSH3 0x1A3 JUMP JUMPDEST POP DUP2 PUSH1 0x4 SWAP1 DUP1 MLOAD SWAP1 PUSH1 0x20 ADD SWAP1 PUSH3 0x8C SWAP3 SWAP2 SWAP1 PUSH3 0x1A3 JUMP JUMPDEST POP PUSH3 0xB9 DUP2 PUSH1 0x5 PUSH1 0x0 SWAP1 SLOAD SWAP1 PUSH2 0x100 EXP SWAP1 DIV PUSH1 0xFF AND PUSH1 0xFF AND PUSH1 0xA EXP PUSH3 0x30D40 MUL PUSH3 0xC5 PUSH1 0x20 SHL PUSH1 0x20 SHR JUMP JUMPDEST POP POP POP POP POP POP PUSH3 0x5E6 JUMP JUMPDEST DUP1 PUSH1 0x0 DUP1 DUP5 PUSH20 0xFFFFFFFFFFFFFFFFFFFFFFFFFFFFFFFFFFFFFFFF AND PUSH20 0xFFFFFFFFFFFFFFFFFFFFFFFFFFFFFFFFFFFFFFFF AND DUP2 MSTORE PUSH1 0x20 ADD SWAP1 DUP2 MSTORE PUSH1 0x20 ADD PUSH1 0x0 KECCAK256 PUSH1 0x0 DUP3 DUP3 SLOAD PUSH3 0x115 SWAP2 SWAP1 PUSH3 0x3F1 JUMP JUMPDEST SWAP3 POP POP DUP2 SWAP1 SSTORE POP DUP1 PUSH1 0x2 PUSH1 0x0 DUP3 DUP3 SLOAD PUSH3 0x130 SWAP2 SWAP1 PUSH3 0x3F1 JUMP JUMPDEST SWAP3 POP POP DUP2 SWAP1 SSTORE POP DUP2 PUSH20 0xFFFFFFFFFFFFFFFFFFFFFFFFFFFFFFFFFFFFFFFF AND PUSH1 0x0 PUSH20 0xFFFFFFFFFFFFFFFFFFFFFFFFFFFFFFFFFFFFFFFF AND PUSH32 0xDDF252AD1BE2C89B69C2B068FC378DAA952BA7F163C4A11628F55A4DF523B3EF DUP4 PUSH1 0x40 MLOAD PUSH3 0x197 SWAP2 SWAP1 PUSH3 0x375 JUMP JUMPDEST PUSH1 0x40 MLOAD DUP1 SWAP2 SUB SWAP1 LOG3 POP POP JUMP JUMPDEST DUP3 DUP1 SLOAD PUSH3 0x1B1 SWAP1 PUSH3 0x4C2 JUMP JUMPDEST SWAP1 PUSH1 0x0 MSTORE PUSH1 0x20 PUSH1 0x0 KECCAK256 SWAP1 PUSH1 0x1F ADD PUSH1 0x20 SWAP1 DIV DUP2 ADD SWAP3 DUP3 PUSH3 0x1D5 JUMPI PUSH1 0x0 DUP6 SSTORE PUSH3 0x221 JUMP JUMPDEST DUP3 PUSH1 0x1F LT PUSH3 0x1F0 JUMPI DUP1 MLOAD PUSH1 0xFF NOT AND DUP4 DUP1 ADD OR DUP6 SSTORE PUSH3 0x221 JUMP JUMPDEST DUP3 DUP1 ADD PUSH1 0x1 ADD DUP6 SSTORE DUP3 ISZERO PUSH3 0x221 JUMPI SWAP2 DUP3 ADD JUMPDEST DUP3 DUP2 GT ISZERO PUSH3 0x220 JUMPI DUP3 MLOAD DUP3 SSTORE SWAP2 PUSH1 0x20 ADD SWAP2 SWAP1 PUSH1 0x1 ADD SWAP1 PUSH3 0x203 JUMP JUMPDEST JUMPDEST POP SWAP1 POP PUSH3 0x230 SWAP2 SWAP1 PUSH3 0x234 JUMP JUMPDEST POP SWAP1 JUMP JUMPDEST JUMPDEST DUP1 DUP3 GT ISZERO PUSH3 0x24F JUMPI PUSH1 0x0 DUP2 PUSH1 0x0 SWAP1 SSTORE POP PUSH1 0x1 ADD PUSH3 0x235 JUMP JUMPDEST POP SWAP1 JUMP JUMPDEST PUSH1 0x0 PUSH3 0x26A PUSH3 0x264 DUP5 PUSH3 0x3BB JUMP JUMPDEST PUSH3 0x392 JUMP JUMPDEST SWAP1 POP DUP3 DUP2 MSTORE PUSH1 0x20 DUP2 ADD DUP5 DUP5 DUP5 ADD GT ISZERO PUSH3 0x283 JUMPI PUSH1 0x0 DUP1 REVERT JUMPDEST PUSH3 0x290 DUP5 DUP3 DUP6 PUSH3 0x48C JUMP JUMPDEST POP SWAP4 SWAP3 POP POP POP JUMP JUMPDEST PUSH1 0x0 DUP2 MLOAD SWAP1 POP PUSH3 0x2A9 DUP2 PUSH3 0x5CC JUMP JUMPDEST SWAP3 SWAP2 POP POP JUMP JUMPDEST PUSH1 0x0 DUP3 PUSH1 0x1F DUP4 ADD SLT PUSH3 0x2C1 JUMPI PUSH1 0x0 DUP1 REVERT JUMPDEST DUP2 MLOAD PUSH3 0x2D3 DUP5 DUP3 PUSH1 0x20 DUP7 ADD PUSH3 0x253 JUMP JUMPDEST SWAP2 POP POP SWAP3 SWAP2 POP POP JUMP JUMPDEST PUSH1 0x0 DUP1 PUSH1 0x0 PUSH1 0x60 DUP5 DUP7 SUB SLT ISZERO PUSH3 0x2F2 JUMPI PUSH1 0x0 DUP1 REVERT JUMPDEST PUSH1 0x0 DUP5 ADD MLOAD PUSH8 0xFFFFFFFFFFFFFFFF DUP2 GT ISZERO PUSH3 0x30D JUMPI PUSH1 0x0 DUP1 REVERT JUMPDEST PUSH3 0x31B DUP7 DUP3 DUP8 ADD PUSH3 0x2AF JUMP JUMPDEST SWAP4 POP POP PUSH1 0x20 DUP5 ADD MLOAD PUSH8 0xFFFFFFFFFFFFFFFF DUP2 GT ISZERO PUSH3 0x339 JUMPI PUSH1 0x0 DUP1 REVERT JUMPDEST PUSH3 0x347 DUP7 DUP3 DUP8 ADD PUSH3 0x2AF JUMP JUMPDEST SWAP3 POP POP PUSH1 0x40 PUSH3 0x35A DUP7 DUP3 DUP8 ADD PUSH3 0x298 JUMP JUMPDEST SWAP2 POP POP SWAP3 POP SWAP3 POP SWAP3 JUMP JUMPDEST PUSH3 0x36F DUP2 PUSH3 0x482 JUMP JUMPDEST DUP3 MSTORE POP POP JUMP JUMPDEST PUSH1 0x0 PUSH1 0x20 DUP3 ADD SWAP1 POP PUSH3 0x38C PUSH1 0x0 DUP4 ADD DUP5 PUSH3 0x364 JUMP JUMPDEST SWAP3 SWAP2 POP POP JUMP JUMPDEST PUSH1 0x0 PUSH3 0x39E PUSH3 0x3B1 JUMP JUMPDEST SWAP1 POP PUSH3 0x3AC DUP3 DUP3 PUSH3 0x4F8 JUMP JUMPDEST SWAP2 SWAP1 POP JUMP JUMPDEST PUSH1 0x0 PUSH1 0x40 MLOAD SWAP1 POP SWAP1 JUMP JUMPDEST PUSH1 0x0 PUSH8 0xFFFFFFFFFFFFFFFF DUP3 GT ISZERO PUSH3 0x3D9 JUMPI PUSH3 0x3D8 PUSH3 0x58C JUMP JUMPDEST JUMPDEST PUSH3 0x3E4 DUP3 PUSH3 0x5BB JUMP JUMPDEST SWAP1 POP PUSH1 0x20 DUP2 ADD SWAP1 POP SWAP2 SWAP1 POP JUMP JUMPDEST PUSH1 0x0 PUSH3 0x3FE DUP3 PUSH3 0x482 JUMP JUMPDEST SWAP2 POP PUSH3 0x40B DUP4 PUSH3 0x482 JUMP JUMPDEST SWAP3 POP DUP3 PUSH32 0xFFFFFFFFFFFFFFFFFFFFFFFFFFFFFFFFFFFFFFFFFFFFFFFFFFFFFFFFFFFFFFFF SUB DUP3 GT ISZERO PUSH3 0x443 JUMPI PUSH3 0x442 PUSH3 0x52E JUMP JUMPDEST JUMPDEST DUP3 DUP3 ADD SWAP1 POP SWAP3 SWAP2 POP POP JUMP JUMPDEST PUSH1 0x0 PUSH3 0x45B DUP3 PUSH3 0x462 JUMP JUMPDEST SWAP1 POP SWAP2 SWAP1 POP JUMP JUMPDEST PUSH1 0x0 PUSH20 0xFFFFFFFFFFFFFFFFFFFFFFFFFFFFFFFFFFFFFFFF DUP3 AND SWAP1 POP SWAP2 SWAP1 POP JUMP JUMPDEST PUSH1 0x0 DUP2 SWAP1 POP SWAP2 SWAP1 POP JUMP JUMPDEST PUSH1 0x0 JUMPDEST DUP4 DUP2 LT ISZERO PUSH3 0x4AC JUMPI DUP1 DUP3 ADD MLOAD DUP2 DUP5 ADD MSTORE PUSH1 0x20 DUP2 ADD SWAP1 POP PUSH3 0x48F JUMP JUMPDEST DUP4 DUP2 GT ISZERO PUSH3 0x4BC JUMPI PUSH1 0x0 DUP5 DUP5 ADD MSTORE JUMPDEST POP POP POP POP JUMP JUMPDEST PUSH1 0x0 PUSH1 0x2 DUP3 DIV SWAP1 POP PUSH1 0x1 DUP3 AND DUP1 PUSH3 0x4DB JUMPI PUSH1 0x7F DUP3 AND SWAP2 POP JUMPDEST PUSH1 0x20 DUP3 LT DUP2 EQ ISZERO PUSH3 0x4F2 JUMPI PUSH3 0x4F1 PUSH3 0x55D JUMP JUMPDEST JUMPDEST POP SWAP2 SWAP1 POP JUMP JUMPDEST PUSH3 0x503 DUP3 PUSH3 0x5BB JUMP JUMPDEST DUP2 ADD DUP2 DUP2 LT PUSH8 0xFFFFFFFFFFFFFFFF DUP3 GT OR ISZERO PUSH3 0x525 JUMPI PUSH3 0x524 PUSH3 0x58C JUMP JUMPDEST JUMPDEST DUP1 PUSH1 0x40 MSTORE POP POP POP JUMP JUMPDEST PUSH32 0x4E487B7100000000000000000000000000000000000000000000000000000000 PUSH1 0x0 MSTORE PUSH1 0x11 PUSH1 0x4 MSTORE PUSH1 0x24 PUSH1 0x0 REVERT JUMPDEST PUSH32 0x4E487B7100000000000000000000000000000000000000000000000000000000 PUSH1 0x0 MSTORE PUSH1 0x22 PUSH1 0x4 MSTORE PUSH1 0x24 PUSH1 0x0 REVERT JUMPDEST PUSH32 0x4E487B7100000000000000000000000000000000000000000000000000000000 PUSH1 0x0 MSTORE PUSH1 0x41 PUSH1 0x4 MSTORE PUSH1 0x24 PUSH1 0x0 REVERT JUMPDEST PUSH1 0x0 PUSH1 0x1F NOT PUSH1 0x1F DUP4 ADD AND SWAP1 POP SWAP2 SWAP1 POP JUMP JUMPDEST PUSH3 0x5D7 DUP2 PUSH3 0x44E JUMP JUMPDEST DUP2 EQ PUSH3 0x5E3 JUMPI PUSH1 0x0 DUP1 REVERT JUMPDEST POP JUMP JUMPDEST PUSH2 0x24BB DUP1 PUSH3 0x5F6 PUSH1 0x0 CODECOPY PUSH1 0x0 RETURN INVALID PUSH1 0x80 PUSH1 0x40 MSTORE CALLVALUE DUP1 ISZERO PUSH2 0x10 JUMPI PUSH1 0x0 DUP1 REVERT JUMPDEST POP PUSH1 0x4 CALLDATASIZE LT PUSH2 0x121 JUMPI PUSH1 0x0 CALLDATALOAD PUSH1 0xE0 SHR DUP1 PUSH4 0x7F93EE98 GT PUSH2 0xAD JUMPI DUP1 PUSH4 0xBAEB0718 GT PUSH2 0x71 JUMPI DUP1 PUSH4 0xBAEB0718 EQ PUSH2 0x36A JUMPI DUP1 PUSH4 0xBB47E61A EQ PUSH2 0x388 JUMPI DUP1 PUSH4 0xBD6E4E75 EQ PUSH2 0x3A6 JUMPI DUP1 PUSH4 0xDD62ED3E EQ PUSH2 0x3D6 JUMPI DUP1 PUSH4 0xF1A19B6C EQ PUSH2 0x406 JUMPI PUSH2 0x121 JUMP JUMPDEST DUP1 PUSH4 0x7F93EE98 EQ PUSH2 0x28C JUMPI DUP1 PUSH4 0x95D89B41 EQ PUSH2 0x2BC JUMPI DUP1 PUSH4 0xA6C1BA5F EQ PUSH2 0x2DA JUMPI DUP1 PUSH4 0xA9059CBB EQ PUSH2 0x30A JUMPI DUP1 PUSH4 0xB863BD37 EQ PUSH2 0x33A JUMPI PUSH2 0x121 JUMP JUMPDEST DUP1 PUSH4 0x313CE567 GT PUSH2 0xF4 JUMPI DUP1 PUSH4 0x313CE567 EQ PUSH2 0x1C2 JUMPI DUP1 PUSH4 0x35EDF0B0 EQ PUSH2 0x1E0 JUMPI DUP1 PUSH4 0x42966C68 EQ PUSH2 0x210 JUMPI DUP1 PUSH4 0x6D6AE1A8 EQ PUSH2 0x22C JUMPI DUP1 PUSH4 0x70A08231 EQ PUSH2 0x25C JUMPI PUSH2 0x121 JUMP JUMPDEST DUP1 PUSH4 0x6FDDE03 EQ PUSH2 0x126 JUMPI DUP1 PUSH4 0x95EA7B3 EQ PUSH2 0x144 JUMPI DUP1 PUSH4 0x18160DDD EQ PUSH2 0x174 JUMPI DUP1 PUSH4 0x23B872DD EQ PUSH2 0x192 JUMPI JUMPDEST PUSH1 0x0 DUP1 REVERT JUMPDEST PUSH2 0x12E PUSH2 0x436 JUMP JUMPDEST PUSH1 0x40 MLOAD PUSH2 0x13B SWAP2 SWAP1 PUSH2 0x1D57 JUMP JUMPDEST PUSH1 0x40 MLOAD DUP1 SWAP2 SUB SWAP1 RETURN JUMPDEST PUSH2 0x15E PUSH1 0x4 DUP1 CALLDATASIZE SUB DUP2 ADD SWAP1 PUSH2 0x159 SWAP2 SWAP1 PUSH2 0x1B23 JUMP JUMPDEST PUSH2 0x4C4 JUMP JUMPDEST PUSH1 0x40 MLOAD PUSH2 0x16B SWAP2 SWAP1 PUSH2 0x1D3C JUMP JUMPDEST PUSH1 0x40 MLOAD DUP1 SWAP2 SUB SWAP1 RETURN JUMPDEST PUSH2 0x17C PUSH2 0x5B6 JUMP JUMPDEST PUSH1 0x40 MLOAD PUSH2 0x189 SWAP2 SWAP1 PUSH2 0x1E69 JUMP JUMPDEST PUSH1 0x40 MLOAD DUP1 SWAP2 SUB SWAP1 RETURN JUMPDEST PUSH2 0x1AC PUSH1 0x4 DUP1 CALLDATASIZE SUB DUP2 ADD SWAP1 PUSH2 0x1A7 SWAP2 SWAP1 PUSH2 0x1AD4 JUMP JUMPDEST PUSH2 0x5BC JUMP JUMPDEST PUSH1 0x40 MLOAD PUSH2 0x1B9 SWAP2 SWAP1 PUSH2 0x1D3C JUMP JUMPDEST PUSH1 0x40 MLOAD DUP1 SWAP2 SUB SWAP1 RETURN JUMPDEST PUSH2 0x1CA PUSH2 0x8AB JUMP JUMPDEST PUSH1 0x40 MLOAD PUSH2 0x1D7 SWAP2 SWAP1 PUSH2 0x1EAD JUMP JUMPDEST PUSH1 0x40 MLOAD DUP1 SWAP2 SUB SWAP1 RETURN JUMPDEST PUSH2 0x1FA PUSH1 0x4 DUP1 CALLDATASIZE SUB DUP2 ADD SWAP1 PUSH2 0x1F5 SWAP2 SWAP1 PUSH2 0x1A6F JUMP JUMPDEST PUSH2 0x8BE JUMP JUMPDEST PUSH1 0x40 MLOAD PUSH2 0x207 SWAP2 SWAP1 PUSH2 0x1E69 JUMP JUMPDEST PUSH1 0x40 MLOAD DUP1 SWAP2 SUB SWAP1 RETURN JUMPDEST PUSH2 0x22A PUSH1 0x4 DUP1 CALLDATASIZE SUB DUP2 ADD SWAP1 PUSH2 0x225 SWAP2 SWAP1 PUSH2 0x1B5F JUMP JUMPDEST PUSH2 0x8D6 JUMP JUMPDEST STOP JUMPDEST PUSH2 0x246 PUSH1 0x4 DUP1 CALLDATASIZE SUB DUP2 ADD SWAP1 PUSH2 0x241 SWAP2 SWAP1 PUSH2 0x1B5F JUMP JUMPDEST PUSH2 0xA2E JUMP JUMPDEST PUSH1 0x40 MLOAD PUSH2 0x253 SWAP2 SWAP1 PUSH2 0x1D57 JUMP JUMPDEST PUSH1 0x40 MLOAD DUP1 SWAP2 SUB SWAP1 RETURN JUMPDEST PUSH2 0x276 PUSH1 0x4 DUP1 CALLDATASIZE SUB DUP2 ADD SWAP1 PUSH2 0x271 SWAP2 SWAP1 PUSH2 0x1A6F JUMP JUMPDEST PUSH2 0x128C JUMP JUMPDEST PUSH1 0x40 MLOAD PUSH2 0x283 SWAP2 SWAP1 PUSH2 0x1E69 JUMP JUMPDEST PUSH1 0x40 MLOAD DUP1 SWAP2 SUB SWAP1 RETURN JUMPDEST PUSH2 0x2A6 PUSH1 0x4 DUP1 CALLDATASIZE SUB DUP2 ADD SWAP1 PUSH2 0x2A1 SWAP2 SWAP1 PUSH2 0x1A6F JUMP JUMPDEST PUSH2 0x12A4 JUMP JUMPDEST PUSH1 0x40 MLOAD PUSH2 0x2B3 SWAP2 SWAP1 PUSH2 0x1E69 JUMP JUMPDEST PUSH1 0x40 MLOAD DUP1 SWAP2 SUB SWAP1 RETURN JUMPDEST PUSH2 0x2C4 PUSH2 0x12BC JUMP JUMPDEST PUSH1 0x40 MLOAD PUSH2 0x2D1 SWAP2 SWAP1 PUSH2 0x1D57 JUMP JUMPDEST PUSH1 0x40 MLOAD DUP1 SWAP2 SUB SWAP1 RETURN JUMPDEST PUSH2 0x2F4 PUSH1 0x4 DUP1 CALLDATASIZE SUB DUP2 ADD SWAP1 PUSH2 0x2EF SWAP2 SWAP1 PUSH2 0x1B5F JUMP JUMPDEST PUSH2 0x134A JUMP JUMPDEST PUSH1 0x40 MLOAD PUSH2 0x301 SWAP2 SWAP1 PUSH2 0x1E69 JUMP JUMPDEST PUSH1 0x40 MLOAD DUP1 SWAP2 SUB SWAP1 RETURN JUMPDEST PUSH2 0x324 PUSH1 0x4 DUP1 CALLDATASIZE SUB DUP2 ADD SWAP1 PUSH2 0x31F SWAP2 SWAP1 PUSH2 0x1B23 JUMP JUMPDEST PUSH2 0x1475 JUMP JUMPDEST PUSH1 0x40 MLOAD PUSH2 0x331 SWAP2 SWAP1 PUSH2 0x1D3C JUMP JUMPDEST PUSH1 0x40 MLOAD DUP1 SWAP2 SUB SWAP1 RETURN JUMPDEST PUSH2 0x354 PUSH1 0x4 DUP1 CALLDATASIZE SUB DUP2 ADD SWAP1 PUSH2 0x34F SWAP2 SWAP1 PUSH2 0x1B5F JUMP JUMPDEST PUSH2 0x1611 JUMP JUMPDEST PUSH1 0x40 MLOAD PUSH2 0x361 SWAP2 SWAP1 PUSH2 0x1E69 JUMP JUMPDEST PUSH1 0x40 MLOAD DUP1 SWAP2 SUB SWAP1 RETURN JUMPDEST PUSH2 0x372 PUSH2 0x164A JUMP JUMPDEST PUSH1 0x40 MLOAD PUSH2 0x37F SWAP2 SWAP1 PUSH2 0x1E69 JUMP JUMPDEST PUSH1 0x40 MLOAD DUP1 SWAP2 SUB SWAP1 RETURN JUMPDEST PUSH2 0x390 PUSH2 0x1912 JUMP JUMPDEST PUSH1 0x40 MLOAD PUSH2 0x39D SWAP2 SWAP1 PUSH2 0x1E69 JUMP JUMPDEST PUSH1 0x40 MLOAD DUP1 SWAP2 SUB SWAP1 RETURN JUMPDEST PUSH2 0x3C0 PUSH1 0x4 DUP1 CALLDATASIZE SUB DUP2 ADD SWAP1 PUSH2 0x3BB SWAP2 SWAP1 PUSH2 0x1A6F JUMP JUMPDEST PUSH2 0x1918 JUMP JUMPDEST PUSH1 0x40 MLOAD PUSH2 0x3CD SWAP2 SWAP1 PUSH2 0x1E69 JUMP JUMPDEST PUSH1 0x40 MLOAD DUP1 SWAP2 SUB SWAP1 RETURN JUMPDEST PUSH2 0x3F0 PUSH1 0x4 DUP1 CALLDATASIZE SUB DUP2 ADD SWAP1 PUSH2 0x3EB SWAP2 SWAP1 PUSH2 0x1A98 JUMP JUMPDEST PUSH2 0x1930 JUMP JUMPDEST PUSH1 0x40 MLOAD PUSH2 0x3FD SWAP2 SWAP1 PUSH2 0x1E69 JUMP JUMPDEST PUSH1 0x40 MLOAD DUP1 SWAP2 SUB SWAP1 RETURN JUMPDEST PUSH2 0x420 PUSH1 0x4 DUP1 CALLDATASIZE SUB DUP2 ADD SWAP1 PUSH2 0x41B SWAP2 SWAP1 PUSH2 0x1A6F JUMP JUMPDEST PUSH2 0x1955 JUMP JUMPDEST PUSH1 0x40 MLOAD PUSH2 0x42D SWAP2 SWAP1 PUSH2 0x1E69 JUMP JUMPDEST PUSH1 0x40 MLOAD DUP1 SWAP2 SUB SWAP1 RETURN JUMPDEST PUSH1 0x3 DUP1 SLOAD PUSH2 0x443 SWAP1 PUSH2 0x21F2 JUMP JUMPDEST DUP1 PUSH1 0x1F ADD PUSH1 0x20 DUP1 SWAP2 DIV MUL PUSH1 0x20 ADD PUSH1 0x40 MLOAD SWAP1 DUP2 ADD PUSH1 0x40 MSTORE DUP1 SWAP3 SWAP2 SWAP1 DUP2 DUP2 MSTORE PUSH1 0x20 ADD DUP3 DUP1 SLOAD PUSH2 0x46F SWAP1 PUSH2 0x21F2 JUMP JUMPDEST DUP1 ISZERO PUSH2 0x4BC JUMPI DUP1 PUSH1 0x1F LT PUSH2 0x491 JUMPI PUSH2 0x100 DUP1 DUP4 SLOAD DIV MUL DUP4 MSTORE SWAP2 PUSH1 0x20 ADD SWAP2 PUSH2 0x4BC JUMP JUMPDEST DUP3 ADD SWAP2 SWAP1 PUSH1 0x0 MSTORE PUSH1 0x20 PUSH1 0x0 KECCAK256 SWAP1 JUMPDEST DUP2 SLOAD DUP2 MSTORE SWAP1 PUSH1 0x1 ADD SWAP1 PUSH1 0x20 ADD DUP1 DUP4 GT PUSH2 0x49F JUMPI DUP3 SWAP1 SUB PUSH1 0x1F AND DUP3 ADD SWAP2 JUMPDEST POP POP POP POP POP DUP2 JUMP JUMPDEST PUSH1 0x0 DUP2 PUSH1 0x1 PUSH1 0x0 CALLER PUSH20 0xFFFFFFFFFFFFFFFFFFFFFFFFFFFFFFFFFFFFFFFF AND PUSH20 0xFFFFFFFFFFFFFFFFFFFFFFFFFFFFFFFFFFFFFFFF AND DUP2 MSTORE PUSH1 0x20 ADD SWAP1 DUP2 MSTORE PUSH1 0x20 ADD PUSH1 0x0 KECCAK256 PUSH1 0x0 DUP6 PUSH20 0xFFFFFFFFFFFFFFFFFFFFFFFFFFFFFFFFFFFFFFFF AND PUSH20 0xFFFFFFFFFFFFFFFFFFFFFFFFFFFFFFFFFFFFFFFF AND DUP2 MSTORE PUSH1 0x20 ADD SWAP1 DUP2 MSTORE PUSH1 0x20 ADD PUSH1 0x0 KECCAK256 DUP2 SWAP1 SSTORE POP DUP3 PUSH20 0xFFFFFFFFFFFFFFFFFFFFFFFFFFFFFFFFFFFFFFFF AND CALLER PUSH20 0xFFFFFFFFFFFFFFFFFFFFFFFFFFFFFFFFFFFFFFFF AND PUSH32 0x8C5BE1E5EBEC7D5BD14F71427D1E84F3DD0314C0F7B2291E5B200AC8C7C3B925 DUP5 PUSH1 0x40 MLOAD PUSH2 0x5A4 SWAP2 SWAP1 PUSH2 0x1E69 JUMP JUMPDEST PUSH1 0x40 MLOAD DUP1 SWAP2 SUB SWAP1 LOG3 PUSH1 0x1 SWAP1 POP SWAP3 SWAP2 POP POP JUMP JUMPDEST PUSH1 0x2 SLOAD DUP2 JUMP JUMPDEST PUSH1 0x0 DUP2 PUSH1 0x0 DUP1 DUP7 PUSH20 0xFFFFFFFFFFFFFFFFFFFFFFFFFFFFFFFFFFFFFFFF AND PUSH20 0xFFFFFFFFFFFFFFFFFFFFFFFFFFFFFFFFFFFFFFFF AND DUP2 MSTORE PUSH1 0x20 ADD SWAP1 DUP2 MSTORE PUSH1 0x20 ADD PUSH1 0x0 KECCAK256 SLOAD LT ISZERO PUSH2 0x63F JUMPI PUSH1 0x40 MLOAD PUSH32 0x8C379A000000000000000000000000000000000000000000000000000000000 DUP2 MSTORE PUSH1 0x4 ADD PUSH2 0x636 SWAP1 PUSH2 0x1DA9 JUMP JUMPDEST PUSH1 0x40 MLOAD DUP1 SWAP2 SUB SWAP1 REVERT JUMPDEST DUP2 PUSH1 0x1 PUSH1 0x0 DUP7 PUSH20 0xFFFFFFFFFFFFFFFFFFFFFFFFFFFFFFFFFFFFFFFF AND PUSH20 0xFFFFFFFFFFFFFFFFFFFFFFFFFFFFFFFFFFFFFFFF AND DUP2 MSTORE PUSH1 0x20 ADD SWAP1 DUP2 MSTORE PUSH1 0x20 ADD PUSH1 0x0 KECCAK256 PUSH1 0x0 CALLER PUSH20 0xFFFFFFFFFFFFFFFFFFFFFFFFFFFFFFFFFFFFFFFF AND PUSH20 0xFFFFFFFFFFFFFFFFFFFFFFFFFFFFFFFFFFFFFFFF AND DUP2 MSTORE PUSH1 0x20 ADD SWAP1 DUP2 MSTORE PUSH1 0x20 ADD PUSH1 0x0 KECCAK256 SLOAD LT ISZERO PUSH2 0x6FE JUMPI PUSH1 0x40 MLOAD PUSH32 0x8C379A000000000000000000000000000000000000000000000000000000000 DUP2 MSTORE PUSH1 0x4 ADD PUSH2 0x6F5 SWAP1 PUSH2 0x1DC9 JUMP JUMPDEST PUSH1 0x40 MLOAD DUP1 SWAP2 SUB SWAP1 REVERT JUMPDEST DUP2 PUSH1 0x1 PUSH1 0x0 DUP7 PUSH20 0xFFFFFFFFFFFFFFFFFFFFFFFFFFFFFFFFFFFFFFFF AND PUSH20 0xFFFFFFFFFFFFFFFFFFFFFFFFFFFFFFFFFFFFFFFF AND DUP2 MSTORE PUSH1 0x20 ADD SWAP1 DUP2 MSTORE PUSH1 0x20 ADD PUSH1 0x0 KECCAK256 PUSH1 0x0 CALLER PUSH20 0xFFFFFFFFFFFFFFFFFFFFFFFFFFFFFFFFFFFFFFFF AND PUSH20 0xFFFFFFFFFFFFFFFFFFFFFFFFFFFFFFFFFFFFFFFF AND DUP2 MSTORE PUSH1 0x20 ADD SWAP1 DUP2 MSTORE PUSH1 0x20 ADD PUSH1 0x0 KECCAK256 PUSH1 0x0 DUP3 DUP3 SLOAD PUSH2 0x78A SWAP2 SWAP1 PUSH2 0x2136 JUMP JUMPDEST SWAP3 POP POP DUP2 SWAP1 SSTORE POP DUP2 PUSH1 0x0 DUP1 DUP7 PUSH20 0xFFFFFFFFFFFFFFFFFFFFFFFFFFFFFFFFFFFFFFFF AND PUSH20 0xFFFFFFFFFFFFFFFFFFFFFFFFFFFFFFFFFFFFFFFF AND DUP2 MSTORE PUSH1 0x20 ADD SWAP1 DUP2 MSTORE PUSH1 0x20 ADD PUSH1 0x0 KECCAK256 PUSH1 0x0 DUP3 DUP3 SLOAD PUSH2 0x7DF SWAP2 SWAP1 PUSH2 0x2136 JUMP JUMPDEST SWAP3 POP POP DUP2 SWAP1 SSTORE POP DUP2 PUSH1 0x0 DUP1 DUP6 PUSH20 0xFFFFFFFFFFFFFFFFFFFFFFFFFFFFFFFFFFFFFFFF AND PUSH20 0xFFFFFFFFFFFFFFFFFFFFFFFFFFFFFFFFFFFFFFFF AND DUP2 MSTORE PUSH1 0x20 ADD SWAP1 DUP2 MSTORE PUSH1 0x20 ADD PUSH1 0x0 KECCAK256 PUSH1 0x0 DUP3 DUP3 SLOAD PUSH2 0x834 SWAP2 SWAP1 PUSH2 0x1EE4 JUMP JUMPDEST SWAP3 POP POP DUP2 SWAP1 SSTORE POP DUP3 PUSH20 0xFFFFFFFFFFFFFFFFFFFFFFFFFFFFFFFFFFFFFFFF AND DUP5 PUSH20 0xFFFFFFFFFFFFFFFFFFFFFFFFFFFFFFFFFFFFFFFF AND PUSH32 0xDDF252AD1BE2C89B69C2B068FC378DAA952BA7F163C4A11628F55A4DF523B3EF DUP5 PUSH1 0x40 MLOAD PUSH2 0x898 SWAP2 SWAP1 PUSH2 0x1E69 JUMP JUMPDEST PUSH1 0x40 MLOAD DUP1 SWAP2 SUB SWAP1 LOG3 PUSH1 0x1 SWAP1 POP SWAP4 SWAP3 POP POP POP JUMP JUMPDEST PUSH1 0x5 PUSH1 0x0 SWAP1 SLOAD SWAP1 PUSH2 0x100 EXP SWAP1 DIV PUSH1 0xFF AND DUP2 JUMP JUMPDEST PUSH1 0x7 PUSH1 0x20 MSTORE DUP1 PUSH1 0x0 MSTORE PUSH1 0x40 PUSH1 0x0 KECCAK256 PUSH1 0x0 SWAP2 POP SWAP1 POP SLOAD DUP2 JUMP JUMPDEST DUP1 PUSH1 0x0 DUP1 CALLER PUSH20 0xFFFFFFFFFFFFFFFFFFFFFFFFFFFFFFFFFFFFFFFF AND PUSH20 0xFFFFFFFFFFFFFFFFFFFFFFFFFFFFFFFFFFFFFFFF AND DUP2 MSTORE PUSH1 0x20 ADD SWAP1 DUP2 MSTORE PUSH1 0x20 ADD PUSH1 0x0 KECCAK256 SLOAD LT ISZERO PUSH2 0x957 JUMPI PUSH1 0x40 MLOAD PUSH32 0x8C379A000000000000000000000000000000000000000000000000000000000 DUP2 MSTORE PUSH1 0x4 ADD PUSH2 0x94E SWAP1 PUSH2 0x1E09 JUMP JUMPDEST PUSH1 0x40 MLOAD DUP1 SWAP2 SUB SWAP1 REVERT JUMPDEST DUP1 PUSH1 0x0 DUP1 CALLER PUSH20 0xFFFFFFFFFFFFFFFFFFFFFFFFFFFFFFFFFFFFFFFF AND PUSH20 0xFFFFFFFFFFFFFFFFFFFFFFFFFFFFFFFFFFFFFFFF AND DUP2 MSTORE PUSH1 0x20 ADD SWAP1 DUP2 MSTORE PUSH1 0x20 ADD PUSH1 0x0 KECCAK256 PUSH1 0x0 DUP3 DUP3 SLOAD PUSH2 0x9A5 SWAP2 SWAP1 PUSH2 0x2136 JUMP JUMPDEST SWAP3 POP POP DUP2 SWAP1 SSTORE POP DUP1 PUSH1 0x2 PUSH1 0x0 DUP3 DUP3 SLOAD PUSH2 0x9BE SWAP2 SWAP1 PUSH2 0x2136 JUMP JUMPDEST SWAP3 POP POP DUP2 SWAP1 SSTORE POP PUSH1 0x0 PUSH20 0xFFFFFFFFFFFFFFFFFFFFFFFFFFFFFFFFFFFFFFFF AND CALLER PUSH20 0xFFFFFFFFFFFFFFFFFFFFFFFFFFFFFFFFFFFFFFFF AND PUSH32 0xDDF252AD1BE2C89B69C2B068FC378DAA952BA7F163C4A11628F55A4DF523B3EF DUP4 PUSH1 0x40 MLOAD PUSH2 0xA23 SWAP2 SWAP1 PUSH2 0x1E69 JUMP JUMPDEST PUSH1 0x40 MLOAD DUP1 SWAP2 SUB SWAP1 LOG3 POP JUMP JUMPDEST PUSH1 0x60 PUSH1 0x0 PUSH3 0x15180 PUSH2 0x7080 TIMESTAMP PUSH2 0xA44 SWAP2 SWAP1 PUSH2 0x1EE4 JUMP JUMPDEST PUSH2 0xA4E SWAP2 SWAP1 PUSH2 0x1F3A JUMP JUMPDEST SWAP1 POP PUSH1 0x0 DUP2 PUSH1 0x9 PUSH1 0x0 CALLER PUSH20 0xFFFFFFFFFFFFFFFFFFFFFFFFFFFFFFFFFFFFFFFF AND PUSH20 0xFFFFFFFFFFFFFFFFFFFFFFFFFFFFFFFFFFFFFFFF AND DUP2 MSTORE PUSH1 0x20 ADD SWAP1 DUP2 MSTORE PUSH1 0x20 ADD PUSH1 0x0 KECCAK256 SLOAD LT ISZERO PUSH2 0xB23 JUMPI DUP2 PUSH1 0x9 PUSH1 0x0 CALLER PUSH20 0xFFFFFFFFFFFFFFFFFFFFFFFFFFFFFFFFFFFFFFFF AND PUSH20 0xFFFFFFFFFFFFFFFFFFFFFFFFFFFFFFFFFFFFFFFF AND DUP2 MSTORE PUSH1 0x20 ADD SWAP1 DUP2 MSTORE PUSH1 0x20 ADD PUSH1 0x0 KECCAK256 DUP2 SWAP1 SSTORE POP PUSH1 0x0 PUSH1 0xA PUSH1 0x0 CALLER PUSH20 0xFFFFFFFFFFFFFFFFFFFFFFFFFFFFFFFFFFFFFFFF AND PUSH20 0xFFFFFFFFFFFFFFFFFFFFFFFFFFFFFFFFFFFFFFFF AND DUP2 MSTORE PUSH1 0x20 ADD SWAP1 DUP2 MSTORE PUSH1 0x20 ADD PUSH1 0x0 KECCAK256 DUP2 SWAP1 SSTORE POP JUMPDEST PUSH1 0x3 PUSH1 0xA PUSH1 0x0 CALLER PUSH20 0xFFFFFFFFFFFFFFFFFFFFFFFFFFFFFFFFFFFFFFFF AND PUSH20 0xFFFFFFFFFFFFFFFFFFFFFFFFFFFFFFFFFFFFFFFF AND DUP2 MSTORE PUSH1 0x20 ADD SWAP1 DUP2 MSTORE PUSH1 0x20 ADD PUSH1 0x0 KECCAK256 SLOAD LT PUSH2 0xBA5 JUMPI PUSH1 0x40 MLOAD PUSH32 0x8C379A000000000000000000000000000000000000000000000000000000000 DUP2 MSTORE PUSH1 0x4 ADD PUSH2 0xB9C SWAP1 PUSH2 0x1DE9 JUMP JUMPDEST PUSH1 0x40 MLOAD DUP1 SWAP2 SUB SWAP1 REVERT JUMPDEST PUSH1 0x1 PUSH1 0xA PUSH1 0x0 CALLER PUSH20 0xFFFFFFFFFFFFFFFFFFFFFFFFFFFFFFFFFFFFFFFF AND PUSH20 0xFFFFFFFFFFFFFFFFFFFFFFFFFFFFFFFFFFFFFFFF AND DUP2 MSTORE PUSH1 0x20 ADD SWAP1 DUP2 MSTORE PUSH1 0x20 ADD PUSH1 0x0 KECCAK256 SLOAD EQ ISZERO PUSH2 0xD74 JUMPI PUSH1 0x5 PUSH1 0x0 SWAP1 SLOAD SWAP1 PUSH2 0x100 EXP SWAP1 DIV PUSH1 0xFF AND PUSH1 0xFF AND PUSH1 0xA PUSH2 0xC0C SWAP2 SWAP1 PUSH2 0x1FBE JUMP JUMPDEST PUSH1 0x64 PUSH2 0xC18 SWAP2 SWAP1 PUSH2 0x20DC JUMP JUMPDEST SWAP1 POP DUP1 PUSH1 0x0 DUP1 CALLER PUSH20 0xFFFFFFFFFFFFFFFFFFFFFFFFFFFFFFFFFFFFFFFF AND PUSH20 0xFFFFFFFFFFFFFFFFFFFFFFFFFFFFFFFFFFFFFFFF AND DUP2 MSTORE PUSH1 0x20 ADD SWAP1 DUP2 MSTORE PUSH1 0x20 ADD PUSH1 0x0 KECCAK256 SLOAD LT ISZERO PUSH2 0xC9B JUMPI PUSH1 0x40 MLOAD PUSH32 0x8C379A000000000000000000000000000000000000000000000000000000000 DUP2 MSTORE PUSH1 0x4 ADD PUSH2 0xC92 SWAP1 PUSH2 0x1E29 JUMP JUMPDEST PUSH1 0x40 MLOAD DUP1 SWAP2 SUB SWAP1 REVERT JUMPDEST DUP1 PUSH1 0x0 DUP1 CALLER PUSH20 0xFFFFFFFFFFFFFFFFFFFFFFFFFFFFFFFFFFFFFFFF AND PUSH20 0xFFFFFFFFFFFFFFFFFFFFFFFFFFFFFFFFFFFFFFFF AND DUP2 MSTORE PUSH1 0x20 ADD SWAP1 DUP2 MSTORE PUSH1 0x20 ADD PUSH1 0x0 KECCAK256 PUSH1 0x0 DUP3 DUP3 SLOAD PUSH2 0xCE9 SWAP2 SWAP1 PUSH2 0x2136 JUMP JUMPDEST SWAP3 POP POP DUP2 SWAP1 SSTORE POP DUP1 PUSH1 0x2 PUSH1 0x0 DUP3 DUP3 SLOAD PUSH2 0xD02 SWAP2 SWAP1 PUSH2 0x2136 JUMP JUMPDEST SWAP3 POP POP DUP2 SWAP1 SSTORE POP PUSH1 0x0 PUSH20 0xFFFFFFFFFFFFFFFFFFFFFFFFFFFFFFFFFFFFFFFF AND CALLER PUSH20 0xFFFFFFFFFFFFFFFFFFFFFFFFFFFFFFFFFFFFFFFF AND PUSH32 0xDDF252AD1BE2C89B69C2B068FC378DAA952BA7F163C4A11628F55A4DF523B3EF DUP4 PUSH1 0x40 MLOAD PUSH2 0xD67 SWAP2 SWAP1 PUSH2 0x1E69 JUMP JUMPDEST PUSH1 0x40 MLOAD DUP1 SWAP2 SUB SWAP1 LOG3 PUSH2 0xF40 JUMP JUMPDEST PUSH1 0x2 PUSH1 0xA PUSH1 0x0 CALLER PUSH20 0xFFFFFFFFFFFFFFFFFFFFFFFFFFFFFFFFFFFFFFFF AND PUSH20 0xFFFFFFFFFFFFFFFFFFFFFFFFFFFFFFFFFFFFFFFF AND DUP2 MSTORE PUSH1 0x20 ADD SWAP1 DUP2 MSTORE PUSH1 0x20 ADD PUSH1 0x0 KECCAK256 SLOAD EQ ISZERO PUSH2 0xF3F JUMPI PUSH1 0x5 PUSH1 0x0 SWAP1 SLOAD SWAP1 PUSH2 0x100 EXP SWAP1 DIV PUSH1 0xFF AND PUSH1 0xFF AND PUSH1 0xA PUSH2 0xDDB SWAP2 SWAP1 PUSH2 0x1FBE JUMP JUMPDEST PUSH1 0xC8 PUSH2 0xDE7 SWAP2 SWAP1 PUSH2 0x20DC JUMP JUMPDEST SWAP1 POP DUP1 PUSH1 0x0 DUP1 CALLER PUSH20 0xFFFFFFFFFFFFFFFFFFFFFFFFFFFFFFFFFFFFFFFF AND PUSH20 0xFFFFFFFFFFFFFFFFFFFFFFFFFFFFFFFFFFFFFFFF AND DUP2 MSTORE PUSH1 0x20 ADD SWAP1 DUP2 MSTORE PUSH1 0x20 ADD PUSH1 0x0 KECCAK256 SLOAD LT ISZERO PUSH2 0xE6A JUMPI PUSH1 0x40 MLOAD PUSH32 0x8C379A000000000000000000000000000000000000000000000000000000000 DUP2 MSTORE PUSH1 0x4 ADD PUSH2 0xE61 SWAP1 PUSH2 0x1E29 JUMP JUMPDEST PUSH1 0x40 MLOAD DUP1 SWAP2 SUB SWAP1 REVERT JUMPDEST DUP1 PUSH1 0x0 DUP1 CALLER PUSH20 0xFFFFFFFFFFFFFFFFFFFFFFFFFFFFFFFFFFFFFFFF AND PUSH20 0xFFFFFFFFFFFFFFFFFFFFFFFFFFFFFFFFFFFFFFFF AND DUP2 MSTORE PUSH1 0x20 ADD SWAP1 DUP2 MSTORE PUSH1 0x20 ADD PUSH1 0x0 KECCAK256 PUSH1 0x0 DUP3 DUP3 SLOAD PUSH2 0xEB8 SWAP2 SWAP1 PUSH2 0x2136 JUMP JUMPDEST SWAP3 POP POP DUP2 SWAP1 SSTORE POP DUP1 PUSH1 0x2 PUSH1 0x0 DUP3 DUP3 SLOAD PUSH2 0xED1 SWAP2 SWAP1 PUSH2 0x2136 JUMP JUMPDEST SWAP3 POP POP DUP2 SWAP1 SSTORE POP PUSH1 0x0 PUSH20 0xFFFFFFFFFFFFFFFFFFFFFFFFFFFFFFFFFFFFFFFF AND CALLER PUSH20 0xFFFFFFFFFFFFFFFFFFFFFFFFFFFFFFFFFFFFFFFF AND PUSH32 0xDDF252AD1BE2C89B69C2B068FC378DAA952BA7F163C4A11628F55A4DF523B3EF DUP4 PUSH1 0x40 MLOAD PUSH2 0xF36 SWAP2 SWAP1 PUSH2 0x1E69 JUMP JUMPDEST PUSH1 0x40 MLOAD DUP1 SWAP2 SUB SWAP1 LOG3 JUMPDEST JUMPDEST PUSH1 0x1 PUSH1 0xA PUSH1 0x0 CALLER PUSH20 0xFFFFFFFFFFFFFFFFFFFFFFFFFFFFFFFFFFFFFFFF AND PUSH20 0xFFFFFFFFFFFFFFFFFFFFFFFFFFFFFFFFFFFFFFFF AND DUP2 MSTORE PUSH1 0x20 ADD SWAP1 DUP2 MSTORE PUSH1 0x20 ADD PUSH1 0x0 KECCAK256 PUSH1 0x0 DUP3 DUP3 SLOAD PUSH2 0xF90 SWAP2 SWAP1 PUSH2 0x1EE4 JUMP JUMPDEST SWAP3 POP POP DUP2 SWAP1 SSTORE POP PUSH1 0x0 PUSH1 0x1 PUSH1 0x64 PUSH2 0xFA6 DUP8 PUSH2 0x1611 JUMP JUMPDEST PUSH2 0xFB0 SWAP2 SWAP1 PUSH2 0x2252 JUMP JUMPDEST PUSH2 0xFBA SWAP2 SWAP1 PUSH2 0x1EE4 JUMP JUMPDEST SWAP1 POP PUSH1 0x1 DUP2 GT PUSH2 0x1001 JUMPI PUSH1 0x40 MLOAD DUP1 PUSH1 0x40 ADD PUSH1 0x40 MSTORE DUP1 PUSH1 0x5 DUP2 MSTORE PUSH1 0x20 ADD PUSH32 0x746F6B656E000000000000000000000000000000000000000000000000000000 DUP2 MSTORE POP SWAP4 POP PUSH2 0x1234 JUMP JUMPDEST PUSH1 0x5 DUP2 GT PUSH2 0x108B JUMPI PUSH1 0x40 MLOAD DUP1 PUSH1 0x40 ADD PUSH1 0x40 MSTORE DUP1 PUSH1 0x5 DUP2 MSTORE PUSH1 0x20 ADD PUSH32 0x7265736574000000000000000000000000000000000000000000000000000000 DUP2 MSTORE POP SWAP4 POP PUSH1 0x0 PUSH1 0xA PUSH1 0x0 CALLER PUSH20 0xFFFFFFFFFFFFFFFFFFFFFFFFFFFFFFFFFFFFFFFF AND PUSH20 0xFFFFFFFFFFFFFFFFFFFFFFFFFFFFFFFFFFFFFFFF AND DUP2 MSTORE PUSH1 0x20 ADD SWAP1 DUP2 MSTORE PUSH1 0x20 ADD PUSH1 0x0 KECCAK256 DUP2 SWAP1 SSTORE POP PUSH2 0x1233 JUMP JUMPDEST PUSH1 0xA DUP2 GT PUSH2 0x1105 JUMPI PUSH1 0x40 MLOAD DUP1 PUSH1 0x40 ADD PUSH1 0x40 MSTORE DUP1 PUSH1 0x7 DUP2 MSTORE PUSH1 0x20 ADD PUSH32 0x3838382050454E00000000000000000000000000000000000000000000000000 DUP2 MSTORE POP SWAP4 POP PUSH2 0x1100 CALLER PUSH1 0x5 PUSH1 0x0 SWAP1 SLOAD SWAP1 PUSH2 0x100 EXP SWAP1 DIV PUSH1 0xFF AND PUSH1 0xFF AND PUSH1 0xA PUSH2 0x10EE SWAP2 SWAP1 PUSH2 0x1FBE JUMP JUMPDEST PUSH2 0x378 PUSH2 0x10FB SWAP2 SWAP1 PUSH2 0x20DC JUMP JUMPDEST PUSH2 0x196D JUMP JUMPDEST PUSH2 0x1232 JUMP JUMPDEST PUSH1 0x14 DUP2 GT PUSH2 0x114A JUMPI PUSH1 0x40 MLOAD DUP1 PUSH1 0x40 ADD PUSH1 0x40 MSTORE DUP1 PUSH1 0x7 DUP2 MSTORE PUSH1 0x20 ADD PUSH32 0x6E6F7468696E6700000000000000000000000000000000000000000000000000 DUP2 MSTORE POP SWAP4 POP PUSH2 0x1231 JUMP JUMPDEST PUSH1 0x32 DUP2 GT PUSH2 0x11C3 JUMPI PUSH1 0x40 MLOAD DUP1 PUSH1 0x40 ADD PUSH1 0x40 MSTORE DUP1 PUSH1 0x7 DUP2 MSTORE PUSH1 0x20 ADD PUSH32 0x3230302050454E00000000000000000000000000000000000000000000000000 DUP2 MSTORE POP SWAP4 POP PUSH2 0x11BE CALLER PUSH1 0x5 PUSH1 0x0 SWAP1 SLOAD SWAP1 PUSH2 0x100 EXP SWAP1 DIV PUSH1 0xFF AND PUSH1 0xFF AND PUSH1 0xA PUSH2 0x11AD SWAP2 SWAP1 PUSH2 0x1FBE JUMP JUMPDEST PUSH1 0xC8 PUSH2 0x11B9 SWAP2 SWAP1 PUSH2 0x20DC JUMP JUMPDEST PUSH2 0x196D JUMP JUMPDEST PUSH2 0x1230 JUMP JUMPDEST PUSH1 0x40 MLOAD DUP1 PUSH1 0x40 ADD PUSH1 0x40 MSTORE DUP1 PUSH1 0x7 DUP2 MSTORE PUSH1 0x20 ADD PUSH32 0x3130302050454E00000000000000000000000000000000000000000000000000 DUP2 MSTORE POP SWAP4 POP PUSH2 0x122F CALLER PUSH1 0x5 PUSH1 0x0 SWAP1 SLOAD SWAP1 PUSH2 0x100 EXP SWAP1 DIV PUSH1 0xFF AND PUSH1 0xFF AND PUSH1 0xA PUSH2 0x121E SWAP2 SWAP1 PUSH2 0x1FBE JUMP JUMPDEST PUSH1 0x64 PUSH2 0x122A SWAP2 SWAP1 PUSH2 0x20DC JUMP JUMPDEST PUSH2 0x196D JUMP JUMPDEST JUMPDEST JUMPDEST JUMPDEST JUMPDEST JUMPDEST CALLER PUSH20 0xFFFFFFFFFFFFFFFFFFFFFFFFFFFFFFFFFFFFFFFF AND PUSH32 0x76775F6FD80273D051FFB53FCAFDF73D3F7933B79207E60A978184A1FB72B32D DUP6 DUP5 PUSH1 0x40 MLOAD PUSH2 0x127C SWAP3 SWAP2 SWAP1 PUSH2 0x1D79 JUMP JUMPDEST PUSH1 0x40 MLOAD DUP1 SWAP2 SUB SWAP1 LOG2 POP POP POP SWAP2 SWAP1 POP JUMP JUMPDEST PUSH1 0x0 PUSH1 0x20 MSTORE DUP1 PUSH1 0x0 MSTORE PUSH1 0x40 PUSH1 0x0 KECCAK256 PUSH1 0x0 SWAP2 POP SWAP1 POP SLOAD DUP2 JUMP JUMPDEST PUSH1 0xA PUSH1 0x20 MSTORE DUP1 PUSH1 0x0 MSTORE PUSH1 0x40 PUSH1 0x0 KECCAK256 PUSH1 0x0 SWAP2 POP SWAP1 POP SLOAD DUP2 JUMP JUMPDEST PUSH1 0x4 DUP1 SLOAD PUSH2 0x12C9 SWAP1 PUSH2 0x21F2 JUMP JUMPDEST DUP1 PUSH1 0x1F ADD PUSH1 0x20 DUP1 SWAP2 DIV MUL PUSH1 0x20 ADD PUSH1 0x40 MLOAD SWAP1 DUP2 ADD PUSH1 0x40 MSTORE DUP1 SWAP3 SWAP2 SWAP1 DUP2 DUP2 MSTORE PUSH1 0x20 ADD DUP3 DUP1 SLOAD PUSH2 0x12F5 SWAP1 PUSH2 0x21F2 JUMP JUMPDEST DUP1 ISZERO PUSH2 0x1342 JUMPI DUP1 PUSH1 0x1F LT PUSH2 0x1317 JUMPI PUSH2 0x100 DUP1 DUP4 SLOAD DIV MUL DUP4 MSTORE SWAP2 PUSH1 0x20 ADD SWAP2 PUSH2 0x1342 JUMP JUMPDEST DUP3 ADD SWAP2 SWAP1 PUSH1 0x0 MSTORE PUSH1 0x20 PUSH1 0x0 KECCAK256 SWAP1 JUMPDEST DUP2 SLOAD DUP2 MSTORE SWAP1 PUSH1 0x1 ADD SWAP1 PUSH1 0x20 ADD DUP1 DUP4 GT PUSH2 0x1325 JUMPI DUP3 SWAP1 SUB PUSH1 0x1F AND DUP3 ADD SWAP2 JUMPDEST POP POP POP POP POP DUP2 JUMP JUMPDEST PUSH1 0x0 DUP1 PUSH1 0x1 SWAP1 POP PUSH1 0x0 DUP4 EQ ISZERO PUSH2 0x136A JUMPI PUSH1 0x9 DUP2 PUSH2 0x1367 SWAP2 SWAP1 PUSH2 0x1EE4 JUMP JUMPDEST SWAP1 POP JUMPDEST PUSH1 0x0 PUSH1 0x5 PUSH1 0x7 PUSH1 0x0 CALLER PUSH20 0xFFFFFFFFFFFFFFFFFFFFFFFFFFFFFFFFFFFFFFFF AND PUSH20 0xFFFFFFFFFFFFFFFFFFFFFFFFFFFFFFFFFFFFFFFF AND DUP2 MSTORE PUSH1 0x20 ADD SWAP1 DUP2 MSTORE PUSH1 0x20 ADD PUSH1 0x0 KECCAK256 SLOAD PUSH2 0x13B8 SWAP2 SWAP1 PUSH2 0x2252 JUMP JUMPDEST EQ ISZERO PUSH2 0x13CE JUMPI PUSH1 0x1 DUP2 PUSH2 0x13CB SWAP2 SWAP1 PUSH2 0x1EE4 JUMP JUMPDEST SWAP1 POP JUMPDEST PUSH1 0x0 PUSH3 0x15180 PUSH2 0x7080 TIMESTAMP PUSH2 0x13E2 SWAP2 SWAP1 PUSH2 0x1EE4 JUMP JUMPDEST PUSH2 0x13EC SWAP2 SWAP1 PUSH2 0x1F3A JUMP JUMPDEST SWAP1 POP PUSH1 0x0 PUSH1 0x7 PUSH1 0x4 DUP4 PUSH2 0x13FF SWAP2 SWAP1 PUSH2 0x1EE4 JUMP JUMPDEST PUSH2 0x1409 SWAP2 SWAP1 PUSH2 0x2252 JUMP JUMPDEST SWAP1 POP PUSH1 0x0 DUP2 EQ DUP1 ISZERO PUSH2 0x141C JUMPI POP PUSH1 0x0 DUP6 EQ ISZERO JUMPDEST ISZERO PUSH2 0x1431 JUMPI PUSH1 0x1 DUP4 PUSH2 0x142E SWAP2 SWAP1 PUSH2 0x1EE4 JUMP JUMPDEST SWAP3 POP JUMPDEST PUSH1 0x5 PUSH1 0x0 SWAP1 SLOAD SWAP1 PUSH2 0x100 EXP SWAP1 DIV PUSH1 0xFF AND PUSH1 0xFF AND PUSH1 0xA PUSH2 0x1450 SWAP2 SWAP1 PUSH2 0x1FBE JUMP JUMPDEST PUSH1 0x8 SLOAD PUSH2 0x145D SWAP2 SWAP1 PUSH2 0x20DC JUMP JUMPDEST DUP4 PUSH2 0x1468 SWAP2 SWAP1 PUSH2 0x20DC JUMP JUMPDEST SWAP3 POP DUP3 SWAP4 POP POP POP POP SWAP2 SWAP1 POP JUMP JUMPDEST PUSH1 0x0 DUP2 PUSH1 0x0 DUP1 CALLER PUSH20 0xFFFFFFFFFFFFFFFFFFFFFFFFFFFFFFFFFFFFFFFF AND PUSH20 0xFFFFFFFFFFFFFFFFFFFFFFFFFFFFFFFFFFFFFFFF AND DUP2 MSTORE PUSH1 0x20 ADD SWAP1 DUP2 MSTORE PUSH1 0x20 ADD PUSH1 0x0 KECCAK256 SLOAD LT ISZERO PUSH2 0x14F8 JUMPI PUSH1 0x40 MLOAD PUSH32 0x8C379A000000000000000000000000000000000000000000000000000000000 DUP2 MSTORE PUSH1 0x4 ADD PUSH2 0x14EF SWAP1 PUSH2 0x1DA9 JUMP JUMPDEST PUSH1 0x40 MLOAD DUP1 SWAP2 SUB SWAP1 REVERT JUMPDEST DUP2 PUSH1 0x0 DUP1 CALLER PUSH20 0xFFFFFFFFFFFFFFFFFFFFFFFFFFFFFFFFFFFFFFFF AND PUSH20 0xFFFFFFFFFFFFFFFFFFFFFFFFFFFFFFFFFFFFFFFF AND DUP2 MSTORE PUSH1 0x20 ADD SWAP1 DUP2 MSTORE PUSH1 0x20 ADD PUSH1 0x0 KECCAK256 PUSH1 0x0 DUP3 DUP3 SLOAD PUSH2 0x1546 SWAP2 SWAP1 PUSH2 0x2136 JUMP JUMPDEST SWAP3 POP POP DUP2 SWAP1 SSTORE POP DUP2 PUSH1 0x0 DUP1 DUP6 PUSH20 0xFFFFFFFFFFFFFFFFFFFFFFFFFFFFFFFFFFFFFFFF AND PUSH20 0xFFFFFFFFFFFFFFFFFFFFFFFFFFFFFFFFFFFFFFFF AND DUP2 MSTORE PUSH1 0x20 ADD SWAP1 DUP2 MSTORE PUSH1 0x20 ADD PUSH1 0x0 KECCAK256 PUSH1 0x0 DUP3 DUP3 SLOAD PUSH2 0x159B SWAP2 SWAP1 PUSH2 0x1EE4 JUMP JUMPDEST SWAP3 POP POP DUP2 SWAP1 SSTORE POP DUP3 PUSH20 0xFFFFFFFFFFFFFFFFFFFFFFFFFFFFFFFFFFFFFFFF AND CALLER PUSH20 0xFFFFFFFFFFFFFFFFFFFFFFFFFFFFFFFFFFFFFFFF AND PUSH32 0xDDF252AD1BE2C89B69C2B068FC378DAA952BA7F163C4A11628F55A4DF523B3EF DUP5 PUSH1 0x40 MLOAD PUSH2 0x15FF SWAP2 SWAP1 PUSH2 0x1E69 JUMP JUMPDEST PUSH1 0x40 MLOAD DUP1 SWAP2 SUB SWAP1 LOG3 PUSH1 0x1 SWAP1 POP SWAP3 SWAP2 POP POP JUMP JUMPDEST PUSH1 0x0 TIMESTAMP DIFFICULTY CALLER DUP5 PUSH1 0x40 MLOAD PUSH1 0x20 ADD PUSH2 0x162A SWAP5 SWAP4 SWAP3 SWAP2 SWAP1 PUSH2 0x1CEE JUMP JUMPDEST PUSH1 0x40 MLOAD PUSH1 0x20 DUP2 DUP4 SUB SUB DUP2 MSTORE SWAP1 PUSH1 0x40 MSTORE DUP1 MLOAD SWAP1 PUSH1 0x20 ADD KECCAK256 PUSH1 0x0 SHR SWAP1 POP SWAP2 SWAP1 POP JUMP JUMPDEST PUSH1 0x0 DUP1 PUSH3 0x15180 PUSH2 0x7080 TIMESTAMP PUSH2 0x165F SWAP2 SWAP1 PUSH2 0x1EE4 JUMP JUMPDEST PUSH2 0x1669 SWAP2 SWAP1 PUSH2 0x1F3A JUMP JUMPDEST SWAP1 POP PUSH1 0x0 PUSH1 0x7 PUSH1 0x0 CALLER PUSH20 0xFFFFFFFFFFFFFFFFFFFFFFFFFFFFFFFFFFFFFFFF AND PUSH20 0xFFFFFFFFFFFFFFFFFFFFFFFFFFFFFFFFFFFFFFFF AND DUP2 MSTORE PUSH1 0x20 ADD SWAP1 DUP2 MSTORE PUSH1 0x20 ADD PUSH1 0x0 KECCAK256 SLOAD SWAP1 POP DUP2 PUSH1 0x6 PUSH1 0x0 CALLER PUSH20 0xFFFFFFFFFFFFFFFFFFFFFFFFFFFFFFFFFFFFFFFF AND PUSH20 0xFFFFFFFFFFFFFFFFFFFFFFFFFFFFFFFFFFFFFFFF AND DUP2 MSTORE PUSH1 0x20 ADD SWAP1 DUP2 MSTORE PUSH1 0x20 ADD PUSH1 0x0 KECCAK256 SLOAD LT PUSH2 0x1730 JUMPI PUSH1 0x40 MLOAD PUSH32 0x8C379A000000000000000000000000000000000000000000000000000000000 DUP2 MSTORE PUSH1 0x4 ADD PUSH2 0x1727 SWAP1 PUSH2 0x1E49 JUMP JUMPDEST PUSH1 0x40 MLOAD DUP1 SWAP2 SUB SWAP1 REVERT JUMPDEST PUSH1 0x1 DUP3 PUSH2 0x173D SWAP2 SWAP1 PUSH2 0x2136 JUMP JUMPDEST PUSH1 0x6 PUSH1 0x0 CALLER PUSH20 0xFFFFFFFFFFFFFFFFFFFFFFFFFFFFFFFFFFFFFFFF AND PUSH20 0xFFFFFFFFFFFFFFFFFFFFFFFFFFFFFFFFFFFFFFFF AND DUP2 MSTORE PUSH1 0x20 ADD SWAP1 DUP2 MSTORE PUSH1 0x20 ADD PUSH1 0x0 KECCAK256 SLOAD EQ ISZERO PUSH2 0x17DF JUMPI PUSH1 0x1 PUSH1 0x7 PUSH1 0x0 CALLER PUSH20 0xFFFFFFFFFFFFFFFFFFFFFFFFFFFFFFFFFFFFFFFF AND PUSH20 0xFFFFFFFFFFFFFFFFFFFFFFFFFFFFFFFFFFFFFFFF AND DUP2 MSTORE PUSH1 0x20 ADD SWAP1 DUP2 MSTORE PUSH1 0x20 ADD PUSH1 0x0 KECCAK256 PUSH1 0x0 DUP3 DUP3 SLOAD PUSH2 0x17D3 SWAP2 SWAP1 PUSH2 0x1EE4 JUMP JUMPDEST SWAP3 POP POP DUP2 SWAP1 SSTORE POP PUSH2 0x1825 JUMP JUMPDEST PUSH1 0x1 PUSH1 0x7 PUSH1 0x0 CALLER PUSH20 0xFFFFFFFFFFFFFFFFFFFFFFFFFFFFFFFFFFFFFFFF AND PUSH20 0xFFFFFFFFFFFFFFFFFFFFFFFFFFFFFFFFFFFFFFFF AND DUP2 MSTORE PUSH1 0x20 ADD SWAP1 DUP2 MSTORE PUSH1 0x20 ADD PUSH1 0x0 KECCAK256 DUP2 SWAP1 SSTORE POP JUMPDEST DUP2 PUSH1 0x6 PUSH1 0x0 CALLER PUSH20 0xFFFFFFFFFFFFFFFFFFFFFFFFFFFFFFFFFFFFFFFF AND PUSH20 0xFFFFFFFFFFFFFFFFFFFFFFFFFFFFFFFFFFFFFFFF AND DUP2 MSTORE PUSH1 0x20 ADD SWAP1 DUP2 MSTORE PUSH1 0x20 ADD PUSH1 0x0 KECCAK256 DUP2 SWAP1 SSTORE POP PUSH2 0x1872 DUP2 PUSH2 0x134A JUMP JUMPDEST SWAP3 POP PUSH2 0x187E CALLER DUP5 PUSH2 0x196D JUMP JUMPDEST CALLER PUSH20 0xFFFFFFFFFFFFFFFFFFFFFFFFFFFFFFFFFFFFFFFF AND PUSH32 0xB1EA073AC09A6B73CC1842F3DBDA1736E0C0D94B33AAC1983F2612A5D115B4C7 DUP5 PUSH1 0x7 PUSH1 0x0 CALLER PUSH20 0xFFFFFFFFFFFFFFFFFFFFFFFFFFFFFFFFFFFFFFFF AND PUSH20 0xFFFFFFFFFFFFFFFFFFFFFFFFFFFFFFFFFFFFFFFF AND DUP2 MSTORE PUSH1 0x20 ADD SWAP1 DUP2 MSTORE PUSH1 0x20 ADD PUSH1 0x0 KECCAK256 SLOAD PUSH1 0x40 MLOAD PUSH2 0x1905 SWAP3 SWAP2 SWAP1 PUSH2 0x1E84 JUMP JUMPDEST PUSH1 0x40 MLOAD DUP1 SWAP2 SUB SWAP1 LOG2 POP POP SWAP1 JUMP JUMPDEST PUSH1 0x8 SLOAD DUP2 JUMP JUMPDEST PUSH1 0x9 PUSH1 0x20 MSTORE DUP1 PUSH1 0x0 MSTORE PUSH1 0x40 PUSH1 0x0 KECCAK256 PUSH1 0x0 SWAP2 POP SWAP1 POP SLOAD DUP2 JUMP JUMPDEST PUSH1 0x1 PUSH1 0x20 MSTORE DUP2 PUSH1 0x0 MSTORE PUSH1 0x40 PUSH1 0x0 KECCAK256 PUSH1 0x20 MSTORE DUP1 PUSH1 0x0 MSTORE PUSH1 0x40 PUSH1 0x0 KECCAK256 PUSH1 0x0 SWAP2 POP SWAP2 POP POP SLOAD DUP2 JUMP JUMPDEST PUSH1 0x6 PUSH1 0x20 MSTORE DUP1 PUSH1 0x0 MSTORE PUSH1 0x40 PUSH1 0x0 KECCAK256 PUSH1 0x0 SWAP2 POP SWAP1 POP SLOAD DUP2 JUMP JUMPDEST DUP1 PUSH1 0x0 DUP1 DUP5 PUSH20 0xFFFFFFFFFFFFFFFFFFFFFFFFFFFFFFFFFFFFFFFF AND PUSH20 0xFFFFFFFFFFFFFFFFFFFFFFFFFFFFFFFFFFFFFFFF AND DUP2 MSTORE PUSH1 0x20 ADD SWAP1 DUP2 MSTORE PUSH1 0x20 ADD PUSH1 0x0 KECCAK256 PUSH1 0x0 DUP3 DUP3 SLOAD PUSH2 0x19BB SWAP2 SWAP1 PUSH2 0x1EE4 JUMP JUMPDEST SWAP3 POP POP DUP2 SWAP1 SSTORE POP DUP1 PUSH1 0x2 PUSH1 0x0 DUP3 DUP3 SLOAD PUSH2 0x19D4 SWAP2 SWAP1 PUSH2 0x1EE4 JUMP JUMPDEST SWAP3 POP POP DUP2 SWAP1 SSTORE POP DUP2 PUSH20 0xFFFFFFFFFFFFFFFFFFFFFFFFFFFFFFFFFFFFFFFF AND PUSH1 0x0 PUSH20 0xFFFFFFFFFFFFFFFFFFFFFFFFFFFFFFFFFFFFFFFF AND PUSH32 0xDDF252AD1BE2C89B69C2B068FC378DAA952BA7F163C4A11628F55A4DF523B3EF DUP4 PUSH1 0x40 MLOAD PUSH2 0x1A39 SWAP2 SWAP1 PUSH2 0x1E69 JUMP JUMPDEST PUSH1 0x40 MLOAD DUP1 SWAP2 SUB SWAP1 LOG3 POP POP JUMP JUMPDEST PUSH1 0x0 DUP2 CALLDATALOAD SWAP1 POP PUSH2 0x1A54 DUP2 PUSH2 0x2457 JUMP JUMPDEST SWAP3 SWAP2 POP POP JUMP JUMPDEST PUSH1 0x0 DUP2 CALLDATALOAD SWAP1 POP PUSH2 0x1A69 DUP2 PUSH2 0x246E JUMP JUMPDEST SWAP3 SWAP2 POP POP JUMP JUMPDEST PUSH1 0x0 PUSH1 0x20 DUP3 DUP5 SUB SLT ISZERO PUSH2 0x1A81 JUMPI PUSH1 0x0 DUP1 REVERT JUMPDEST PUSH1 0x0 PUSH2 0x1A8F DUP5 DUP3 DUP6 ADD PUSH2 0x1A45 JUMP JUMPDEST SWAP2 POP POP SWAP3 SWAP2 POP POP JUMP JUMPDEST PUSH1 0x0 DUP1 PUSH1 0x40 DUP4 DUP6 SUB SLT ISZERO PUSH2 0x1AAB JUMPI PUSH1 0x0 DUP1 REVERT JUMPDEST PUSH1 0x0 PUSH2 0x1AB9 DUP6 DUP3 DUP7 ADD PUSH2 0x1A45 JUMP JUMPDEST SWAP3 POP POP PUSH1 0x20 PUSH2 0x1ACA DUP6 DUP3 DUP7 ADD PUSH2 0x1A45 JUMP JUMPDEST SWAP2 POP POP SWAP3 POP SWAP3 SWAP1 POP JUMP JUMPDEST PUSH1 0x0 DUP1 PUSH1 0x0 PUSH1 0x60 DUP5 DUP7 SUB SLT ISZERO PUSH2 0x1AE9 JUMPI PUSH1 0x0 DUP1 REVERT JUMPDEST PUSH1 0x0 PUSH2 0x1AF7 DUP7 DUP3 DUP8 ADD PUSH2 0x1A45 JUMP JUMPDEST SWAP4 POP POP PUSH1 0x20 PUSH2 0x1B08 DUP7 DUP3 DUP8 ADD PUSH2 0x1A45 JUMP JUMPDEST SWAP3 POP POP PUSH1 0x40 PUSH2 0x1B19 DUP7 DUP3 DUP8 ADD PUSH2 0x1A5A JUMP JUMPDEST SWAP2 POP POP SWAP3 POP SWAP3 POP SWAP3 JUMP JUMPDEST PUSH1 0x0 DUP1 PUSH1 0x40 DUP4 DUP6 SUB SLT ISZERO PUSH2 0x1B36 JUMPI PUSH1 0x0 DUP1 REVERT JUMPDEST PUSH1 0x0 PUSH2 0x1B44 DUP6 DUP3 DUP7 ADD PUSH2 0x1A45 JUMP JUMPDEST SWAP3 POP POP PUSH1 0x20 PUSH2 0x1B55 DUP6 DUP3 DUP7 ADD PUSH2 0x1A5A JUMP JUMPDEST SWAP2 POP POP SWAP3 POP SWAP3 SWAP1 POP JUMP JUMPDEST PUSH1 0x0 PUSH1 0x20 DUP3 DUP5 SUB SLT ISZERO PUSH2 0x1B71 JUMPI PUSH1 0x0 DUP1 REVERT JUMPDEST PUSH1 0x0 PUSH2 0x1B7F DUP5 DUP3 DUP6 ADD PUSH2 0x1A5A JUMP JUMPDEST SWAP2 POP POP SWAP3 SWAP2 POP POP JUMP JUMPDEST PUSH2 0x1B99 PUSH2 0x1B94 DUP3 PUSH2 0x216A JUMP JUMPDEST PUSH2 0x2224 JUMP JUMPDEST DUP3 MSTORE POP POP JUMP JUMPDEST PUSH2 0x1BA8 DUP2 PUSH2 0x217C JUMP JUMPDEST DUP3 MSTORE POP POP JUMP JUMPDEST PUSH1 0x0 PUSH2 0x1BB9 DUP3 PUSH2 0x1EC8 JUMP JUMPDEST PUSH2 0x1BC3 DUP2 DUP6 PUSH2 0x1ED3 JUMP JUMPDEST SWAP4 POP PUSH2 0x1BD3 DUP2 DUP6 PUSH1 0x20 DUP7 ADD PUSH2 0x21BF JUMP JUMPDEST PUSH2 0x1BDC DUP2 PUSH2 0x2310 JUMP JUMPDEST DUP5 ADD SWAP2 POP POP SWAP3 SWAP2 POP POP JUMP JUMPDEST PUSH1 0x0 PUSH2 0x1BF4 PUSH1 0x1B DUP4 PUSH2 0x1ED3 JUMP JUMPDEST SWAP2 POP PUSH2 0x1BFF DUP3 PUSH2 0x233B JUMP JUMPDEST PUSH1 0x20 DUP3 ADD SWAP1 POP SWAP2 SWAP1 POP JUMP JUMPDEST PUSH1 0x0 PUSH2 0x1C17 PUSH1 0x18 DUP4 PUSH2 0x1ED3 JUMP JUMPDEST SWAP2 POP PUSH2 0x1C22 DUP3 PUSH2 0x2364 JUMP JUMPDEST PUSH1 0x20 DUP3 ADD SWAP1 POP SWAP2 SWAP1 POP JUMP JUMPDEST PUSH1 0x0 PUSH2 0x1C3A PUSH1 0x13 DUP4 PUSH2 0x1ED3 JUMP JUMPDEST SWAP2 POP PUSH2 0x1C45 DUP3 PUSH2 0x238D JUMP JUMPDEST PUSH1 0x20 DUP3 ADD SWAP1 POP SWAP2 SWAP1 POP JUMP JUMPDEST PUSH1 0x0 PUSH2 0x1C5D PUSH1 0x23 DUP4 PUSH2 0x1ED3 JUMP JUMPDEST SWAP2 POP PUSH2 0x1C68 DUP3 PUSH2 0x23B6 JUMP JUMPDEST PUSH1 0x40 DUP3 ADD SWAP1 POP SWAP2 SWAP1 POP JUMP JUMPDEST PUSH1 0x0 PUSH2 0x1C80 PUSH1 0xE DUP4 PUSH2 0x1ED3 JUMP JUMPDEST SWAP2 POP PUSH2 0x1C8B DUP3 PUSH2 0x2405 JUMP JUMPDEST PUSH1 0x20 DUP3 ADD SWAP1 POP SWAP2 SWAP1 POP JUMP JUMPDEST PUSH1 0x0 PUSH2 0x1CA3 PUSH1 0x18 DUP4 PUSH2 0x1ED3 JUMP JUMPDEST SWAP2 POP PUSH2 0x1CAE DUP3 PUSH2 0x242E JUMP JUMPDEST PUSH1 0x20 DUP3 ADD SWAP1 POP SWAP2 SWAP1 POP JUMP JUMPDEST PUSH2 0x1CC2 DUP2 PUSH2 0x21A8 JUMP JUMPDEST DUP3 MSTORE POP POP JUMP JUMPDEST PUSH2 0x1CD9 PUSH2 0x1CD4 DUP3 PUSH2 0x21A8 JUMP JUMPDEST PUSH2 0x2248 JUMP JUMPDEST DUP3 MSTORE POP POP JUMP JUMPDEST PUSH2 0x1CE8 DUP2 PUSH2 0x21B2 JUMP JUMPDEST DUP3 MSTORE POP POP JUMP JUMPDEST PUSH1 0x0 PUSH2 0x1CFA DUP3 DUP8 PUSH2 0x1CC8 JUMP JUMPDEST PUSH1 0x20 DUP3 ADD SWAP2 POP PUSH2 0x1D0A DUP3 DUP7 PUSH2 0x1CC8 JUMP JUMPDEST PUSH1 0x20 DUP3 ADD SWAP2 POP PUSH2 0x1D1A DUP3 DUP6 PUSH2 0x1B88 JUMP JUMPDEST PUSH1 0x14 DUP3 ADD SWAP2 POP PUSH2 0x1D2A DUP3 DUP5 PUSH2 0x1CC8 JUMP JUMPDEST PUSH1 0x20 DUP3 ADD SWAP2 POP DUP2 SWAP1 POP SWAP6 SWAP5 POP POP POP POP POP JUMP JUMPDEST PUSH1 0x0 PUSH1 0x20 DUP3 ADD SWAP1 POP PUSH2 0x1D51 PUSH1 0x0 DUP4 ADD DUP5 PUSH2 0x1B9F JUMP JUMPDEST SWAP3 SWAP2 POP POP JUMP JUMPDEST PUSH1 0x0 PUSH1 0x20 DUP3 ADD SWAP1 POP DUP2 DUP2 SUB PUSH1 0x0 DUP4 ADD MSTORE PUSH2 0x1D71 DUP2 DUP5 PUSH2 0x1BAE JUMP JUMPDEST SWAP1 POP SWAP3 SWAP2 POP POP JUMP JUMPDEST PUSH1 0x0 PUSH1 0x40 DUP3 ADD SWAP1 POP DUP2 DUP2 SUB PUSH1 0x0 DUP4 ADD MSTORE PUSH2 0x1D93 DUP2 DUP6 PUSH2 0x1BAE JUMP JUMPDEST SWAP1 POP PUSH2 0x1DA2 PUSH1 0x20 DUP4 ADD DUP5 PUSH2 0x1CB9 JUMP JUMPDEST SWAP4 SWAP3 POP POP POP JUMP JUMPDEST PUSH1 0x0 PUSH1 0x20 DUP3 ADD SWAP1 POP DUP2 DUP2 SUB PUSH1 0x0 DUP4 ADD MSTORE PUSH2 0x1DC2 DUP2 PUSH2 0x1BE7 JUMP JUMPDEST SWAP1 POP SWAP2 SWAP1 POP JUMP JUMPDEST PUSH1 0x0 PUSH1 0x20 DUP3 ADD SWAP1 POP DUP2 DUP2 SUB PUSH1 0x0 DUP4 ADD MSTORE PUSH2 0x1DE2 DUP2 PUSH2 0x1C0A JUMP JUMPDEST SWAP1 POP SWAP2 SWAP1 POP JUMP JUMPDEST PUSH1 0x0 PUSH1 0x20 DUP3 ADD SWAP1 POP DUP2 DUP2 SUB PUSH1 0x0 DUP4 ADD MSTORE PUSH2 0x1E02 DUP2 PUSH2 0x1C2D JUMP JUMPDEST SWAP1 POP SWAP2 SWAP1 POP JUMP JUMPDEST PUSH1 0x0 PUSH1 0x20 DUP3 ADD SWAP1 POP DUP2 DUP2 SUB PUSH1 0x0 DUP4 ADD MSTORE PUSH2 0x1E22 DUP2 PUSH2 0x1C50 JUMP JUMPDEST SWAP1 POP SWAP2 SWAP1 POP JUMP JUMPDEST PUSH1 0x0 PUSH1 0x20 DUP3 ADD SWAP1 POP DUP2 DUP2 SUB PUSH1 0x0 DUP4 ADD MSTORE PUSH2 0x1E42 DUP2 PUSH2 0x1C73 JUMP JUMPDEST SWAP1 POP SWAP2 SWAP1 POP JUMP JUMPDEST PUSH1 0x0 PUSH1 0x20 DUP3 ADD SWAP1 POP DUP2 DUP2 SUB PUSH1 0x0 DUP4 ADD MSTORE PUSH2 0x1E62 DUP2 PUSH2 0x1C96 JUMP JUMPDEST SWAP1 POP SWAP2 SWAP1 POP JUMP JUMPDEST PUSH1 0x0 PUSH1 0x20 DUP3 ADD SWAP1 POP PUSH2 0x1E7E PUSH1 0x0 DUP4 ADD DUP5 PUSH2 0x1CB9 JUMP JUMPDEST SWAP3 SWAP2 POP POP JUMP JUMPDEST PUSH1 0x0 PUSH1 0x40 DUP3 ADD SWAP1 POP PUSH2 0x1E99 PUSH1 0x0 DUP4 ADD DUP6 PUSH2 0x1CB9 JUMP JUMPDEST PUSH2 0x1EA6 PUSH1 0x20 DUP4 ADD DUP5 PUSH2 0x1CB9 JUMP JUMPDEST SWAP4 SWAP3 POP POP POP JUMP JUMPDEST PUSH1 0x0 PUSH1 0x20 DUP3 ADD SWAP1 POP PUSH2 0x1EC2 PUSH1 0x0 DUP4 ADD DUP5 PUSH2 0x1CDF JUMP JUMPDEST SWAP3 SWAP2 POP POP JUMP JUMPDEST PUSH1 0x0 DUP2 MLOAD SWAP1 POP SWAP2 SWAP1 POP JUMP JUMPDEST PUSH1 0x0 DUP3 DUP3 MSTORE PUSH1 0x20 DUP3 ADD SWAP1 POP SWAP3 SWAP2 POP POP JUMP JUMPDEST PUSH1 0x0 PUSH2 0x1EEF DUP3 PUSH2 0x21A8 JUMP JUMPDEST SWAP2 POP PUSH2 0x1EFA DUP4 PUSH2 0x21A8 JUMP JUMPDEST SWAP3 POP DUP3 PUSH32 0xFFFFFFFFFFFFFFFFFFFFFFFFFFFFFFFFFFFFFFFFFFFFFFFFFFFFFFFFFFFFFFFF SUB DUP3 GT ISZERO PUSH2 0x1F2F JUMPI PUSH2 0x1F2E PUSH2 0x2283 JUMP JUMPDEST JUMPDEST DUP3 DUP3 ADD SWAP1 POP SWAP3 SWAP2 POP POP JUMP JUMPDEST PUSH1 0x0 PUSH2 0x1F45 DUP3 PUSH2 0x21A8 JUMP JUMPDEST SWAP2 POP PUSH2 0x1F50 DUP4 PUSH2 0x21A8 JUMP JUMPDEST SWAP3 POP DUP3 PUSH2 0x1F60 JUMPI PUSH2 0x1F5F PUSH2 0x22B2 JUMP JUMPDEST JUMPDEST DUP3 DUP3 DIV SWAP1 POP SWAP3 SWAP2 POP POP JUMP JUMPDEST PUSH1 0x0 DUP1 DUP3 SWAP2 POP DUP4 SWAP1 POP JUMPDEST PUSH1 0x1 DUP6 GT ISZERO PUSH2 0x1FB5 JUMPI DUP1 DUP7 DIV DUP2 GT ISZERO PUSH2 0x1F91 JUMPI PUSH2 0x1F90 PUSH2 0x2283 JUMP JUMPDEST JUMPDEST PUSH1 0x1 DUP6 AND ISZERO PUSH2 0x1FA0 JUMPI DUP1 DUP3 MUL SWAP2 POP JUMPDEST DUP1 DUP2 MUL SWAP1 POP PUSH2 0x1FAE DUP6 PUSH2 0x232E JUMP JUMPDEST SWAP5 POP PUSH2 0x1F75 JUMP JUMPDEST SWAP5 POP SWAP5 SWAP3 POP POP POP JUMP JUMPDEST PUSH1 0x0 PUSH2 0x1FC9 DUP3 PUSH2 0x21A8 JUMP JUMPDEST SWAP2 POP PUSH2 0x1FD4 DUP4 PUSH2 0x21A8 JUMP JUMPDEST SWAP3 POP PUSH2 0x2001 PUSH32 0xFFFFFFFFFFFFFFFFFFFFFFFFFFFFFFFFFFFFFFFFFFFFFFFFFFFFFFFFFFFFFFFF DUP5 DUP5 PUSH2 0x2009 JUMP JUMPDEST SWAP1 POP SWAP3 SWAP2 POP POP JUMP JUMPDEST PUSH1 0x0 DUP3 PUSH2 0x2019 JUMPI PUSH1 0x1 SWAP1 POP PUSH2 0x20D5 JUMP JUMPDEST DUP2 PUSH2 0x2027 JUMPI PUSH1 0x0 SWAP1 POP PUSH2 0x20D5 JUMP JUMPDEST DUP2 PUSH1 0x1 DUP2 EQ PUSH2 0x203D JUMPI PUSH1 0x2 DUP2 EQ PUSH2 0x2047 JUMPI PUSH2 0x2076 JUMP JUMPDEST PUSH1 0x1 SWAP2 POP POP PUSH2 0x20D5 JUMP JUMPDEST PUSH1 0xFF DUP5 GT ISZERO PUSH2 0x2059 JUMPI PUSH2 0x2058 PUSH2 0x2283 JUMP JUMPDEST JUMPDEST DUP4 PUSH1 0x2 EXP SWAP2 POP DUP5 DUP3 GT ISZERO PUSH2 0x2070 JUMPI PUSH2 0x206F PUSH2 0x2283 JUMP JUMPDEST JUMPDEST POP PUSH2 0x20D5 JUMP JUMPDEST POP PUSH1 0x20 DUP4 LT PUSH2 0x133 DUP4 LT AND PUSH1 0x4E DUP5 LT PUSH1 0xB DUP5 LT AND OR ISZERO PUSH2 0x20AB JUMPI DUP3 DUP3 EXP SWAP1 POP DUP4 DUP2 GT ISZERO PUSH2 0x20A6 JUMPI PUSH2 0x20A5 PUSH2 0x2283 JUMP JUMPDEST JUMPDEST PUSH2 0x20D5 JUMP JUMPDEST PUSH2 0x20B8 DUP5 DUP5 DUP5 PUSH1 0x1 PUSH2 0x1F6B JUMP JUMPDEST SWAP3 POP SWAP1 POP DUP2 DUP5 DIV DUP2 GT ISZERO PUSH2 0x20CF JUMPI PUSH2 0x20CE PUSH2 0x2283 JUMP JUMPDEST JUMPDEST DUP2 DUP2 MUL SWAP1 POP JUMPDEST SWAP4 SWAP3 POP POP POP JUMP JUMPDEST PUSH1 0x0 PUSH2 0x20E7 DUP3 PUSH2 0x21A8 JUMP JUMPDEST SWAP2 POP PUSH2 0x20F2 DUP4 PUSH2 0x21A8 JUMP JUMPDEST SWAP3 POP DUP2 PUSH32 0xFFFFFFFFFFFFFFFFFFFFFFFFFFFFFFFFFFFFFFFFFFFFFFFFFFFFFFFFFFFFFFFF DIV DUP4 GT DUP3 ISZERO ISZERO AND ISZERO PUSH2 0x212B JUMPI PUSH2 0x212A PUSH2 0x2283 JUMP JUMPDEST JUMPDEST DUP3 DUP3 MUL SWAP1 POP SWAP3 SWAP2 POP POP JUMP JUMPDEST PUSH1 0x0 PUSH2 0x2141 DUP3 PUSH2 0x21A8 JUMP JUMPDEST SWAP2 POP PUSH2 0x214C DUP4 PUSH2 0x21A8 JUMP JUMPDEST SWAP3 POP DUP3 DUP3 LT ISZERO PUSH2 0x215F JUMPI PUSH2 0x215E PUSH2 0x2283 JUMP JUMPDEST JUMPDEST DUP3 DUP3 SUB SWAP1 POP SWAP3 SWAP2 POP POP JUMP JUMPDEST PUSH1 0x0 PUSH2 0x2175 DUP3 PUSH2 0x2188 JUMP JUMPDEST SWAP1 POP SWAP2 SWAP1 POP JUMP JUMPDEST PUSH1 0x0 DUP2 ISZERO ISZERO SWAP1 POP SWAP2 SWAP1 POP JUMP JUMPDEST PUSH1 0x0 PUSH20 0xFFFFFFFFFFFFFFFFFFFFFFFFFFFFFFFFFFFFFFFF DUP3 AND SWAP1 POP SWAP2 SWAP1 POP JUMP JUMPDEST PUSH1 0x0 DUP2 SWAP1 POP SWAP2 SWAP1 POP JUMP JUMPDEST PUSH1 0x0 PUSH1 0xFF DUP3 AND SWAP1 POP SWAP2 SWAP1 POP JUMP JUMPDEST PUSH1 0x0 JUMPDEST DUP4 DUP2 LT ISZERO PUSH2 0x21DD JUMPI DUP1 DUP3 ADD MLOAD DUP2 DUP5 ADD MSTORE PUSH1 0x20 DUP2 ADD SWAP1 POP PUSH2 0x21C2 JUMP JUMPDEST DUP4 DUP2 GT ISZERO PUSH2 0x21EC JUMPI PUSH1 0x0 DUP5 DUP5 ADD MSTORE JUMPDEST POP POP POP POP JUMP JUMPDEST PUSH1 0x0 PUSH1 0x2 DUP3 DIV SWAP1 POP PUSH1 0x1 DUP3 AND DUP1 PUSH2 0x220A JUMPI PUSH1 0x7F DUP3 AND SWAP2 POP JUMPDEST PUSH1 0x20 DUP3 LT DUP2 EQ ISZERO PUSH2 0x221E JUMPI PUSH2 0x221D PUSH2 0x22E1 JUMP JUMPDEST JUMPDEST POP SWAP2 SWAP1 POP JUMP JUMPDEST PUSH1 0x0 PUSH2 0x222F DUP3 PUSH2 0x2236 JUMP JUMPDEST SWAP1 POP SWAP2 SWAP1 POP JUMP JUMPDEST PUSH1 0x0 PUSH2 0x2241 DUP3 PUSH2 0x2321 JUMP JUMPDEST SWAP1 POP SWAP2 SWAP1 POP JUMP JUMPDEST PUSH1 0x0 DUP2 SWAP1 POP SWAP2 SWAP1 POP JUMP JUMPDEST PUSH1 0x0 PUSH2 0x225D DUP3 PUSH2 0x21A8 JUMP JUMPDEST SWAP2 POP PUSH2 0x2268 DUP4 PUSH2 0x21A8 JUMP JUMPDEST SWAP3 POP DUP3 PUSH2 0x2278 JUMPI PUSH2 0x2277 PUSH2 0x22B2 JUMP JUMPDEST JUMPDEST DUP3 DUP3 MOD SWAP1 POP SWAP3 SWAP2 POP POP JUMP JUMPDEST PUSH32 0x4E487B7100000000000000000000000000000000000000000000000000000000 PUSH1 0x0 MSTORE PUSH1 0x11 PUSH1 0x4 MSTORE PUSH1 0x24 PUSH1 0x0 REVERT JUMPDEST PUSH32 0x4E487B7100000000000000000000000000000000000000000000000000000000 PUSH1 0x0 MSTORE PUSH1 0x12 PUSH1 0x4 MSTORE PUSH1 0x24 PUSH1 0x0 REVERT JUMPDEST PUSH32 0x4E487B7100000000000000000000000000000000000000000000000000000000 PUSH1 0x0 MSTORE PUSH1 0x22 PUSH1 0x4 MSTORE PUSH1 0x24 PUSH1 0x0 REVERT JUMPDEST PUSH1 0x0 PUSH1 0x1F NOT PUSH1 0x1F DUP4 ADD AND SWAP1 POP SWAP2 SWAP1 POP JUMP JUMPDEST PUSH1 0x0 DUP2 PUSH1 0x60 SHL SWAP1 POP SWAP2 SWAP1 POP JUMP JUMPDEST PUSH1 0x0 DUP2 PUSH1 0x1 SHR SWAP1 POP SWAP2 SWAP1 POP JUMP JUMPDEST PUSH32 0x45524332303A20696E73756666696369656E742062616C616E63650000000000 PUSH1 0x0 DUP3 ADD MSTORE POP JUMP JUMPDEST PUSH32 0x45524332303A20616C6C6F77616E636520746F6F206C6F770000000000000000 PUSH1 0x0 DUP3 ADD MSTORE POP JUMP JUMPDEST PUSH32 0x4D61782033206472617773207065722064617900000000000000000000000000 PUSH1 0x0 DUP3 ADD MSTORE POP JUMP JUMPDEST PUSH32 0x45524332303A20696E73756666696369656E742062616C616E636520746F2062 PUSH1 0x0 DUP3 ADD MSTORE PUSH32 0x75726E0000000000000000000000000000000000000000000000000000000000 PUSH1 0x20 DUP3 ADD MSTORE POP JUMP JUMPDEST PUSH32 0x4E6F7420656E6F7567682050454E000000000000000000000000000000000000 PUSH1 0x0 DUP3 ADD MSTORE POP JUMP JUMPDEST PUSH32 0x416C726561647920636865636B656420696E20746F6461790000000000000000 PUSH1 0x0 DUP3 ADD MSTORE POP JUMP JUMPDEST PUSH2 0x2460 DUP2 PUSH2 0x216A JUMP JUMPDEST DUP2 EQ PUSH2 0x246B JUMPI PUSH1 0x0 DUP1 REVERT JUMPDEST POP JUMP JUMPDEST PUSH2 0x2477 DUP2 PUSH2 0x21A8 JUMP JUMPDEST DUP2 EQ PUSH2 0x2482 JUMPI PUSH1 0x0 DUP1 REVERT JUMPDEST POP JUMP INVALID LOG2 PUSH5 0x6970667358 0x22 SLT KECCAK256 RETURNDATACOPY 0xE1 0xE2 0xE5 DUP10 DUP6 0xEB DUP3 BALANCE 0xD9 SWAP13 0x5C LOG0 SWAP2 0x48 SAR 0xBE MUL SWAP5 DUP7 0x22 0xAC CALLDATALOAD 0xE3 CALLVALUE 0xFC CALLCODE 0xB3 0xD6 0xB8 STATICCALL PUSH27 0x64736F6C6343000804003300000000000000000000000000000000 "
				},
				"gasEstimates": {
					"creation": {
						"codeDepositCost": "1880600",
						"executionCost": "infinite",
						"totalCost": "infinite"
					},
					"external": {
						"allowance(address,address)": "infinite",
						"approve(address,uint256)": "infinite",
						"balanceOf(address)": "1625",
						"burn(uint256)": "infinite",
						"checkin()": "infinite",
						"checkinBase()": "1173",
						"checkinDate(address)": "1624",
						"checkinStreak(address)": "1559",
						"decimals()": "1194",
						"getCheckinReward(uint256)": "infinite",
						"luckyDraw(uint256)": "infinite",
						"luckyDrawCount(address)": "1537",
						"luckyDrawDate(address)": "1580",
						"name()": "infinite",
						"random(uint256)": "infinite",
						"symbol()": "infinite",
						"totalSupply()": "1197",
						"transfer(address,uint256)": "infinite",
						"transferFrom(address,address,uint256)": "infinite"
					}
				},
				"methodIdentifiers": {
					"allowance(address,address)": "dd62ed3e",
					"approve(address,uint256)": "095ea7b3",
					"balanceOf(address)": "70a08231",
					"burn(uint256)": "42966c68",
					"checkin()": "baeb0718",
					"checkinBase()": "bb47e61a",
					"checkinDate(address)": "f1a19b6c",
					"checkinStreak(address)": "35edf0b0",
					"decimals()": "313ce567",
					"getCheckinReward(uint256)": "a6c1ba5f",
					"luckyDraw(uint256)": "6d6ae1a8",
					"luckyDrawCount(address)": "7f93ee98",
					"luckyDrawDate(address)": "bd6e4e75",
					"name()": "06fdde03",
					"random(uint256)": "b863bd37",
					"symbol()": "95d89b41",
					"totalSupply()": "18160ddd",
					"transfer(address,uint256)": "a9059cbb",
					"transferFrom(address,address,uint256)": "23b872dd"
				}
			},
			"storageLayout": {
				"storage": [
					{
						"astId": 531,
						"contract": "contracts/PenERC20V2.sol:PenERC20V2",
						"label": "balanceOf",
						"offset": 0,
						"slot": "0",
						"type": "t_mapping(t_address,t_uint256)"
					},
					{
						"astId": 538,
						"contract": "contracts/PenERC20V2.sol:PenERC20V2",
						"label": "allowance",
						"offset": 0,
						"slot": "1",
						"type": "t_mapping(t_address,t_mapping(t_address,t_uint256))"
					},
					{
						"astId": 541,
						"contract": "contracts/PenERC20V2.sol:PenERC20V2",
						"label": "totalSupply",
						"offset": 0,
						"slot": "2",
						"type": "t_uint256"
					},
					{
						"astId": 543,
						"contract": "contracts/PenERC20V2.sol:PenERC20V2",
						"label": "name",
						"offset": 0,
						"slot": "3",
						"type": "t_string_storage"
					},
					{
						"astId": 545,
						"contract": "contracts/PenERC20V2.sol:PenERC20V2",
						"label": "symbol",
						"offset": 0,
						"slot": "4",
						"type": "t_string_storage"
					},
					{
						"astId": 548,
						"contract": "contracts/PenERC20V2.sol:PenERC20V2",
						"label": "decimals",
						"offset": 0,
						"slot": "5",
						"type": "t_uint8"
					},
					{
						"astId": 8,
						"contract": "contracts/PenERC20V2.sol:PenERC20V2",
						"label": "checkinDate",
						"offset": 0,
						"slot": "6",
						"type": "t_mapping(t_address,t_uint256)"
					},
					{
						"astId": 12,
						"contract": "contracts/PenERC20V2.sol:PenERC20V2",
						"label": "checkinStreak",
						"offset": 0,
						"slot": "7",
						"type": "t_mapping(t_address,t_uint256)"
					},
					{
						"astId": 15,
						"contract": "contracts/PenERC20V2.sol:PenERC20V2",
						"label": "checkinBase",
						"offset": 0,
						"slot": "8",
						"type": "t_uint256"
					},
					{
						"astId": 209,
						"contract": "contracts/PenERC20V2.sol:PenERC20V2",
						"label": "luckyDrawDate",
						"offset": 0,
						"slot": "9",
						"type": "t_mapping(t_address,t_uint256)"
					},
					{
						"astId": 213,
						"contract": "contracts/PenERC20V2.sol:PenERC20V2",
						"label": "luckyDrawCount",
						"offset": 0,
						"slot": "10",
						"type": "t_mapping(t_address,t_uint256)"
					}
				],
				"types": {
					"t_address": {
						"encoding": "inplace",
						"label": "address",
						"numberOfBytes": "20"
					},
					"t_mapping(t_address,t_mapping(t_address,t_uint256))": {
						"encoding": "mapping",
						"key": "t_address",
						"label": "mapping(address => mapping(address => uint256))",
						"numberOfBytes": "32",
						"value": "t_mapping(t_address,t_uint256)"
					},
					"t_mapping(t_address,t_uint256)": {
						"encoding": "mapping",
						"key": "t_address",
						"label": "mapping(address => uint256)",
						"numberOfBytes": "32",
						"value": "t_uint256"
					},
					"t_string_storage": {
						"encoding": "bytes",
						"label": "string",
						"numberOfBytes": "32"
					},
					"t_uint256": {
						"encoding": "inplace",
						"label": "uint256",
						"numberOfBytes": "32"
					},
					"t_uint8": {
						"encoding": "inplace",
						"label": "uint8",
						"numberOfBytes": "1"
					}
				}
			},
			"userdoc": {
				"kind": "user",
				"methods": {},
				"version": 1
			}
		}
	}
}