{
	"contracts/base/PenERC20V2.sol": {
		"PenERC20V2": {
			"abi": [
				{
					"inputs": [
						{
							"internalType": "string",
							"name": "name_",
							"type": "string"
						},
						{
							"internalType": "string",
							"name": "symbol_",
							"type": "string"
						},
						{
							"internalType": "address",
							"name": "owner_",
							"type": "address"
						}
					],
					"stateMutability": "nonpayable",
					"type": "constructor"
				},
				{
					"anonymous": false,
					"inputs": [
						{
							"indexed": true,
							"internalType": "address",
							"name": "owner",
							"type": "address"
						},
						{
							"indexed": true,
							"internalType": "address",
							"name": "spender",
							"type": "address"
						},
						{
							"indexed": false,
							"internalType": "uint256",
							"name": "value",
							"type": "uint256"
						}
					],
					"name": "Approval",
					"type": "event"
				},
				{
					"anonymous": false,
					"inputs": [
						{
							"indexed": true,
							"internalType": "address",
							"name": "user",
							"type": "address"
						},
						{
							"indexed": false,
							"internalType": "uint256",
							"name": "reward",
							"type": "uint256"
						},
						{
							"indexed": false,
							"internalType": "uint256",
							"name": "streak",
							"type": "uint256"
						}
					],
					"name": "Checkin",
					"type": "event"
				},
				{
					"anonymous": false,
					"inputs": [
						{
							"indexed": true,
							"internalType": "address",
							"name": "user",
							"type": "address"
						},
						{
							"indexed": false,
							"internalType": "string",
							"name": "reward",
							"type": "string"
						},
						{
							"indexed": false,
							"internalType": "uint256",
							"name": "cost",
							"type": "uint256"
						}
					],
					"name": "LuckyDraw",
					"type": "event"
				},
				{
					"anonymous": false,
					"inputs": [
						{
							"indexed": true,
							"internalType": "address",
							"name": "from",
							"type": "address"
						},
						{
							"indexed": true,
							"internalType": "address",
							"name": "to",
							"type": "address"
						},
						{
							"indexed": false,
							"internalType": "uint256",
							"name": "value",
							"type": "uint256"
						}
					],
					"name": "Transfer",
					"type": "event"
				},
				{
					"inputs": [
						{
							"internalType": "address",
							"name": "",
							"type": "address"
						},
						{
							"internalType": "address",
							"name": "",
							"type": "address"
						}
					],
					"name": "allowance",
					"outputs": [
						{
							"internalType": "uint256",
							"name": "",
							"type": "uint256"
						}
					],
					"stateMutability": "view",
					"type": "function"
				},
				{
					"inputs": [
						{
							"internalType": "address",
							"name": "spender",
							"type": "address"
						},
						{
							"internalType": "uint256",
							"name": "amount",
							"type": "uint256"
						}
					],
					"name": "approve",
					"outputs": [
						{
							"internalType": "bool",
							"name": "",
							"type": "bool"
						}
					],
					"stateMutability": "nonpayable",
					"type": "function"
				},
				{
					"inputs": [
						{
							"internalType": "address",
							"name": "",
							"type": "address"
						}
					],
					"name": "balanceOf",
					"outputs": [
						{
							"internalType": "uint256",
							"name": "",
							"type": "uint256"
						}
					],
					"stateMutability": "view",
					"type": "function"
				},
				{
					"inputs": [
						{
							"internalType": "uint256",
							"name": "amount",
							"type": "uint256"
						}
					],
					"name": "burn",
					"outputs": [],
					"stateMutability": "nonpayable",
					"type": "function"
				},
				{
					"inputs": [],
					"name": "checkin",
					"outputs": [
						{
							"internalType": "uint256",
							"name": "reward",
							"type": "uint256"
						}
					],
					"stateMutability": "nonpayable",
					"type": "function"
				},
				{
					"inputs": [],
					"name": "checkinBase",
					"outputs": [
						{
							"internalType": "uint256",
							"name": "",
							"type": "uint256"
						}
					],
					"stateMutability": "view",
					"type": "function"
				},
				{
					"inputs": [
						{
							"internalType": "address",
							"name": "",
							"type": "address"
						}
					],
					"name": "checkinDate",
					"outputs": [
						{
							"internalType": "uint256",
							"name": "",
							"type": "uint256"
						}
					],
					"stateMutability": "view",
					"type": "function"
				},
				{
					"inputs": [
						{
							"internalType": "address",
							"name": "",
							"type": "address"
						}
					],
					"name": "checkinStreak",
					"outputs": [
						{
							"internalType": "uint256",
							"name": "",
							"type": "uint256"
						}
					],
					"stateMutability": "view",
					"type": "function"
				},
				{
					"inputs": [],
					"name": "decimals",
					"outputs": [
						{
							"internalType": "uint8",
							"name": "",
							"type": "uint8"
						}
					],
					"stateMutability": "view",
					"type": "function"
				},
				{
					"inputs": [],
					"name": "getCheckinReward",
					"outputs": [
						{
							"internalType": "uint256",
							"name": "",
							"type": "uint256"
						}
					],
					"stateMutability": "view",
					"type": "function"
				},
				{
					"inputs": [
						{
							"internalType": "address",
							"name": "user",
							"type": "address"
						}
					],
					"name": "getLuckyDrawCount",
					"outputs": [
						{
							"internalType": "uint256",
							"name": "count",
							"type": "uint256"
						}
					],
					"stateMutability": "view",
					"type": "function"
				},
				{
					"inputs": [
						{
							"internalType": "uint256",
							"name": "seed",
							"type": "uint256"
						}
					],
					"name": "luckyDraw",
					"outputs": [
						{
							"internalType": "string",
							"name": "reward",
							"type": "string"
						}
					],
					"stateMutability": "nonpayable",
					"type": "function"
				},
				{
					"inputs": [
						{
							"internalType": "address",
							"name": "",
							"type": "address"
						}
					],
					"name": "luckyDrawCount",
					"outputs": [
						{
							"internalType": "uint256",
							"name": "",
							"type": "uint256"
						}
					],
					"stateMutability": "view",
					"type": "function"
				},
				{
					"inputs": [
						{
							"internalType": "address",
							"name": "",
							"type": "address"
						}
					],
					"name": "luckyDrawDate",
					"outputs": [
						{
							"internalType": "uint256",
							"name": "",
							"type": "uint256"
						}
					],
					"stateMutability": "view",
					"type": "function"
				},
				{
					"inputs": [],
					"name": "name",
					"outputs": [
						{
							"internalType": "string",
							"name": "",
							"type": "string"
						}
					],
					"stateMutability": "view",
					"type": "function"
				},
				{
					"inputs": [
						{
							"internalType": "uint256",
							"name": "seed",
							"type": "uint256"
						}
					],
					"name": "random",
					"outputs": [
						{
							"internalType": "uint256",
							"name": "",
							"type": "uint256"
						}
					],
					"stateMutability": "view",
					"type": "function"
				},
				{
					"inputs": [],
					"name": "symbol",
					"outputs": [
						{
							"internalType": "string",
							"name": "",
							"type": "string"
						}
					],
					"stateMutability": "view",
					"type": "function"
				},
				{
					"inputs": [],
					"name": "totalSupply",
					"outputs": [
						{
							"internalType": "uint256",
							"name": "",
							"type": "uint256"
						}
					],
					"stateMutability": "view",
					"type": "function"
				},
				{
					"inputs": [
						{
							"internalType": "address",
							"name": "recipient",
							"type": "address"
						},
						{
							"internalType": "uint256",
							"name": "amount",
							"type": "uint256"
						}
					],
					"name": "transfer",
					"outputs": [
						{
							"internalType": "bool",
							"name": "",
							"type": "bool"
						}
					],
					"stateMutability": "nonpayable",
					"type": "function"
				},
				{
					"inputs": [
						{
							"internalType": "address",
							"name": "sender",
							"type": "address"
						},
						{
							"internalType": "address",
							"name": "recipient",
							"type": "address"
						},
						{
							"internalType": "uint256",
							"name": "amount",
							"type": "uint256"
						}
					],
					"name": "transferFrom",
					"outputs": [
						{
							"internalType": "bool",
							"name": "",
							"type": "bool"
						}
					],
					"stateMutability": "nonpayable",
					"type": "function"
				}
			],
			"devdoc": {
				"kind": "dev",
				"methods": {
					"approve(address,uint256)": {
						"details": "调用者账户给`spender`账户授权 `amount`数量代币。 如果成功，返回 `true`. 释放 {Approval} 事件."
					}
				},
				"version": 1
			},
			"evm": {
				"assembly": "    /* \"contracts/base/PenERC20V2.sol\":85:4774  contract PenERC20V2 is ERC20 {\r... */\n  mstore(0x40, 0x80)\n    /* \"contracts/base/ERC20.sol\":391:393  18 */\n  0x12\n    /* \"contracts/base/ERC20.sol\":367:393  uint8 public decimals = 18 */\n  0x05\n  exp(0x0100, 0x00)\n  dup2\n  sload\n  dup2\n  0xff\n  mul\n  not\n  and\n  swap1\n  dup4\n  0xff\n  and\n  mul\n  or\n  swap1\n  sstore\n  pop\n    /* \"contracts/base/PenERC20V2.sol\":419:422  100 */\n  0x64\n    /* \"contracts/base/PenERC20V2.sol\":390:422  uint256 public checkinBase = 100 */\n  0x08\n  sstore\n    /* \"contracts/base/PenERC20V2.sol\":540:650  constructor(string memory name_, string memory symbol_, address owner_) ERC20(name_, symbol_, owner_) {\r... */\n  callvalue\n  dup1\n  iszero\n  tag_1\n  jumpi\n  0x00\n  dup1\n  revert\ntag_1:\n  pop\n  mload(0x40)\n  sub(codesize, bytecodeSize)\n  dup1\n  bytecodeSize\n  dup4\n  codecopy\n  dup2\n  dup2\n  add\n  0x40\n  mstore\n  dup2\n  add\n  swap1\n  tag_2\n  swap2\n  swap1\n  tag_3\n  jump\t// in\ntag_2:\n    /* \"contracts/base/PenERC20V2.sol\":618:623  name_ */\n  dup3\n    /* \"contracts/base/PenERC20V2.sol\":625:632  symbol_ */\n  dup3\n    /* \"contracts/base/PenERC20V2.sol\":634:640  owner_ */\n  dup3\n    /* \"contracts/base/ERC20.sol\":492:497  name_ */\n  dup3\n    /* \"contracts/base/ERC20.sol\":485:489  name */\n  0x03\n    /* \"contracts/base/ERC20.sol\":485:497  name = name_ */\n  swap1\n  dup1\n  mload\n  swap1\n  0x20\n  add\n  swap1\n  tag_7\n  swap3\n  swap2\n  swap1\n  tag_8\n  jump\t// in\ntag_7:\n  pop\n    /* \"contracts/base/ERC20.sol\":517:524  symbol_ */\n  dup2\n    /* \"contracts/base/ERC20.sol\":508:514  symbol */\n  0x04\n    /* \"contracts/base/ERC20.sol\":508:524  symbol = symbol_ */\n  swap1\n  dup1\n  mload\n  swap1\n  0x20\n  add\n  swap1\n  tag_9\n  swap3\n  swap2\n  swap1\n  tag_8\n  jump\t// in\ntag_9:\n  pop\n    /* \"contracts/base/ERC20.sol\":626:672  mint(owner_, 200000 * 10 ** uint256(decimals)) */\n  tag_10\n    /* \"contracts/base/ERC20.sol\":631:637  owner_ */\n  dup2\n    /* \"contracts/base/ERC20.sol\":662:670  decimals */\n  0x05\n  0x00\n  swap1\n  sload\n  swap1\n  0x0100\n  exp\n  swap1\n  div\n  0xff\n  and\n    /* \"contracts/base/ERC20.sol\":654:671  uint256(decimals) */\n  0xff\n  and\n    /* \"contracts/base/ERC20.sol\":648:650  10 */\n  0x0a\n    /* \"contracts/base/ERC20.sol\":648:671  10 ** uint256(decimals) */\n  exp\n    /* \"contracts/base/ERC20.sol\":639:645  200000 */\n  0x030d40\n    /* \"contracts/base/ERC20.sol\":639:671  200000 * 10 ** uint256(decimals) */\n  mul\n    /* \"contracts/base/ERC20.sol\":626:630  mint */\n  shl(0x20, tag_11)\n    /* \"contracts/base/ERC20.sol\":626:672  mint(owner_, 200000 * 10 ** uint256(decimals)) */\n  0x20\n  shr\n  jump\t// in\ntag_10:\n    /* \"contracts/base/ERC20.sol\":402:691  constructor(string memory name_, string memory symbol_, address owner_) {\r... */\n  pop\n  pop\n  pop\n    /* \"contracts/base/PenERC20V2.sol\":540:650  constructor(string memory name_, string memory symbol_, address owner_) ERC20(name_, symbol_, owner_) {\r... */\n  pop\n  pop\n  pop\n    /* \"contracts/base/PenERC20V2.sol\":85:4774  contract PenERC20V2 is ERC20 {\r... */\n  jump(tag_13)\n    /* \"contracts/base/ERC20.sol\":1411:1605  function mint(address recipient, uint256 amount) internal {\r... */\ntag_11:\n    /* \"contracts/base/ERC20.sol\":1504:1510  amount */\n  dup1\n    /* \"contracts/base/ERC20.sol\":1480:1489  balanceOf */\n  0x00\n    /* \"contracts/base/ERC20.sol\":1480:1500  balanceOf[recipient] */\n  dup1\n    /* \"contracts/base/ERC20.sol\":1490:1499  recipient */\n  dup5\n    /* \"contracts/base/ERC20.sol\":1480:1500  balanceOf[recipient] */\n  0xffffffffffffffffffffffffffffffffffffffff\n  and\n  0xffffffffffffffffffffffffffffffffffffffff\n  and\n  dup2\n  mstore\n  0x20\n  add\n  swap1\n  dup2\n  mstore\n  0x20\n  add\n  0x00\n  keccak256\n  0x00\n    /* \"contracts/base/ERC20.sol\":1480:1510  balanceOf[recipient] += amount */\n  dup3\n  dup3\n  sload\n  tag_15\n  swap2\n  swap1\n  tag_16\n  jump\t// in\ntag_15:\n  swap3\n  pop\n  pop\n  dup2\n  swap1\n  sstore\n  pop\n    /* \"contracts/base/ERC20.sol\":1536:1542  amount */\n  dup1\n    /* \"contracts/base/ERC20.sol\":1521:1532  totalSupply */\n  0x02\n  0x00\n    /* \"contracts/base/ERC20.sol\":1521:1542  totalSupply += amount */\n  dup3\n  dup3\n  sload\n  tag_17\n  swap2\n  swap1\n  tag_16\n  jump\t// in\ntag_17:\n  swap3\n  pop\n  pop\n  dup2\n  swap1\n  sstore\n  pop\n    /* \"contracts/base/ERC20.sol\":1579:1588  recipient */\n  dup2\n    /* \"contracts/base/ERC20.sol\":1558:1597  Transfer(address(0), recipient, amount) */\n  0xffffffffffffffffffffffffffffffffffffffff\n  and\n    /* \"contracts/base/ERC20.sol\":1575:1576  0 */\n  0x00\n    /* \"contracts/base/ERC20.sol\":1558:1597  Transfer(address(0), recipient, amount) */\n  0xffffffffffffffffffffffffffffffffffffffff\n  and\n  0xddf252ad1be2c89b69c2b068fc378daa952ba7f163c4a11628f55a4df523b3ef\n    /* \"contracts/base/ERC20.sol\":1590:1596  amount */\n  dup4\n    /* \"contracts/base/ERC20.sol\":1558:1597  Transfer(address(0), recipient, amount) */\n  mload(0x40)\n  tag_18\n  swap2\n  swap1\n  tag_19\n  jump\t// in\ntag_18:\n  mload(0x40)\n  dup1\n  swap2\n  sub\n  swap1\n  log3\n    /* \"contracts/base/ERC20.sol\":1411:1605  function mint(address recipient, uint256 amount) internal {\r... */\n  pop\n  pop\n  jump\t// out\n    /* \"contracts/base/PenERC20V2.sol\":85:4774  contract PenERC20V2 is ERC20 {\r... */\ntag_8:\n  dup3\n  dup1\n  sload\n  tag_20\n  swap1\n  tag_21\n  jump\t// in\ntag_20:\n  swap1\n  0x00\n  mstore\n  keccak256(0x00, 0x20)\n  swap1\n  0x1f\n  add\n  0x20\n  swap1\n  div\n  dup2\n  add\n  swap3\n  dup3\n  tag_23\n  jumpi\n  0x00\n  dup6\n  sstore\n  jump(tag_22)\ntag_23:\n  dup3\n  0x1f\n  lt\n  tag_24\n  jumpi\n  dup1\n  mload\n  not(0xff)\n  and\n  dup4\n  dup1\n  add\n  or\n  dup6\n  sstore\n  jump(tag_22)\ntag_24:\n  dup3\n  dup1\n  add\n  0x01\n  add\n  dup6\n  sstore\n  dup3\n  iszero\n  tag_22\n  jumpi\n  swap2\n  dup3\n  add\ntag_25:\n  dup3\n  dup2\n  gt\n  iszero\n  tag_26\n  jumpi\n  dup3\n  mload\n  dup3\n  sstore\n  swap2\n  0x20\n  add\n  swap2\n  swap1\n  0x01\n  add\n  swap1\n  jump(tag_25)\ntag_26:\ntag_22:\n  pop\n  swap1\n  pop\n  tag_27\n  swap2\n  swap1\n  tag_28\n  jump\t// in\ntag_27:\n  pop\n  swap1\n  jump\t// out\ntag_28:\ntag_29:\n  dup1\n  dup3\n  gt\n  iszero\n  tag_30\n  jumpi\n  0x00\n  dup2\n  0x00\n  swap1\n  sstore\n  pop\n  0x01\n  add\n  jump(tag_29)\ntag_30:\n  pop\n  swap1\n  jump\t// out\n    /* \"#utility.yul\":7:361   */\ntag_32:\n    /* \"#utility.yul\":96:101   */\n  0x00\n    /* \"#utility.yul\":121:187   */\n  tag_34\n    /* \"#utility.yul\":137:186   */\n  tag_35\n    /* \"#utility.yul\":179:185   */\n  dup5\n    /* \"#utility.yul\":137:186   */\n  tag_36\n  jump\t// in\ntag_35:\n    /* \"#utility.yul\":121:187   */\n  tag_37\n  jump\t// in\ntag_34:\n    /* \"#utility.yul\":112:187   */\n  swap1\n  pop\n    /* \"#utility.yul\":210:216   */\n  dup3\n    /* \"#utility.yul\":203:208   */\n  dup2\n    /* \"#utility.yul\":196:217   */\n  mstore\n    /* \"#utility.yul\":248:252   */\n  0x20\n    /* \"#utility.yul\":241:246   */\n  dup2\n    /* \"#utility.yul\":237:253   */\n  add\n    /* \"#utility.yul\":286:289   */\n  dup5\n    /* \"#utility.yul\":277:283   */\n  dup5\n    /* \"#utility.yul\":272:275   */\n  dup5\n    /* \"#utility.yul\":268:284   */\n  add\n    /* \"#utility.yul\":265:290   */\n  gt\n    /* \"#utility.yul\":262:264   */\n  iszero\n  tag_38\n  jumpi\n    /* \"#utility.yul\":303:304   */\n  0x00\n    /* \"#utility.yul\":300:301   */\n  dup1\n    /* \"#utility.yul\":293:305   */\n  revert\n    /* \"#utility.yul\":262:264   */\ntag_38:\n    /* \"#utility.yul\":316:355   */\n  tag_39\n    /* \"#utility.yul\":348:354   */\n  dup5\n    /* \"#utility.yul\":343:346   */\n  dup3\n    /* \"#utility.yul\":338:341   */\n  dup6\n    /* \"#utility.yul\":316:355   */\n  tag_40\n  jump\t// in\ntag_39:\n    /* \"#utility.yul\":102:361   */\n  pop\n  swap4\n  swap3\n  pop\n  pop\n  pop\n  jump\t// out\n    /* \"#utility.yul\":367:510   */\ntag_41:\n    /* \"#utility.yul\":424:429   */\n  0x00\n    /* \"#utility.yul\":455:461   */\n  dup2\n    /* \"#utility.yul\":449:462   */\n  mload\n    /* \"#utility.yul\":440:462   */\n  swap1\n  pop\n    /* \"#utility.yul\":471:504   */\n  tag_43\n    /* \"#utility.yul\":498:503   */\n  dup2\n    /* \"#utility.yul\":471:504   */\n  tag_44\n  jump\t// in\ntag_43:\n    /* \"#utility.yul\":430:510   */\n  swap3\n  swap2\n  pop\n  pop\n  jump\t// out\n    /* \"#utility.yul\":530:818   */\ntag_45:\n    /* \"#utility.yul\":597:602   */\n  0x00\n    /* \"#utility.yul\":646:649   */\n  dup3\n    /* \"#utility.yul\":639:643   */\n  0x1f\n    /* \"#utility.yul\":631:637   */\n  dup4\n    /* \"#utility.yul\":627:644   */\n  add\n    /* \"#utility.yul\":623:650   */\n  slt\n    /* \"#utility.yul\":613:615   */\n  tag_47\n  jumpi\n    /* \"#utility.yul\":664:665   */\n  0x00\n    /* \"#utility.yul\":661:662   */\n  dup1\n    /* \"#utility.yul\":654:666   */\n  revert\n    /* \"#utility.yul\":613:615   */\ntag_47:\n    /* \"#utility.yul\":697:703   */\n  dup2\n    /* \"#utility.yul\":691:704   */\n  mload\n    /* \"#utility.yul\":722:812   */\n  tag_48\n    /* \"#utility.yul\":808:811   */\n  dup5\n    /* \"#utility.yul\":800:806   */\n  dup3\n    /* \"#utility.yul\":793:797   */\n  0x20\n    /* \"#utility.yul\":785:791   */\n  dup7\n    /* \"#utility.yul\":781:798   */\n  add\n    /* \"#utility.yul\":722:812   */\n  tag_32\n  jump\t// in\ntag_48:\n    /* \"#utility.yul\":713:812   */\n  swap2\n  pop\n    /* \"#utility.yul\":603:818   */\n  pop\n  swap3\n  swap2\n  pop\n  pop\n  jump\t// out\n    /* \"#utility.yul\":824:1632   */\ntag_3:\n    /* \"#utility.yul\":932:938   */\n  0x00\n    /* \"#utility.yul\":940:946   */\n  dup1\n    /* \"#utility.yul\":948:954   */\n  0x00\n    /* \"#utility.yul\":997:999   */\n  0x60\n    /* \"#utility.yul\":985:994   */\n  dup5\n    /* \"#utility.yul\":976:983   */\n  dup7\n    /* \"#utility.yul\":972:995   */\n  sub\n    /* \"#utility.yul\":968:1000   */\n  slt\n    /* \"#utility.yul\":965:967   */\n  iszero\n  tag_50\n  jumpi\n    /* \"#utility.yul\":1013:1014   */\n  0x00\n    /* \"#utility.yul\":1010:1011   */\n  dup1\n    /* \"#utility.yul\":1003:1015   */\n  revert\n    /* \"#utility.yul\":965:967   */\ntag_50:\n    /* \"#utility.yul\":1077:1078   */\n  0x00\n    /* \"#utility.yul\":1066:1075   */\n  dup5\n    /* \"#utility.yul\":1062:1079   */\n  add\n    /* \"#utility.yul\":1056:1080   */\n  mload\n    /* \"#utility.yul\":1107:1125   */\n  0xffffffffffffffff\n    /* \"#utility.yul\":1099:1105   */\n  dup2\n    /* \"#utility.yul\":1096:1126   */\n  gt\n    /* \"#utility.yul\":1093:1095   */\n  iszero\n  tag_51\n  jumpi\n    /* \"#utility.yul\":1139:1140   */\n  0x00\n    /* \"#utility.yul\":1136:1137   */\n  dup1\n    /* \"#utility.yul\":1129:1141   */\n  revert\n    /* \"#utility.yul\":1093:1095   */\ntag_51:\n    /* \"#utility.yul\":1167:1241   */\n  tag_52\n    /* \"#utility.yul\":1233:1240   */\n  dup7\n    /* \"#utility.yul\":1224:1230   */\n  dup3\n    /* \"#utility.yul\":1213:1222   */\n  dup8\n    /* \"#utility.yul\":1209:1231   */\n  add\n    /* \"#utility.yul\":1167:1241   */\n  tag_45\n  jump\t// in\ntag_52:\n    /* \"#utility.yul\":1157:1241   */\n  swap4\n  pop\n    /* \"#utility.yul\":1027:1251   */\n  pop\n    /* \"#utility.yul\":1311:1313   */\n  0x20\n    /* \"#utility.yul\":1300:1309   */\n  dup5\n    /* \"#utility.yul\":1296:1314   */\n  add\n    /* \"#utility.yul\":1290:1315   */\n  mload\n    /* \"#utility.yul\":1342:1360   */\n  0xffffffffffffffff\n    /* \"#utility.yul\":1334:1340   */\n  dup2\n    /* \"#utility.yul\":1331:1361   */\n  gt\n    /* \"#utility.yul\":1328:1330   */\n  iszero\n  tag_53\n  jumpi\n    /* \"#utility.yul\":1374:1375   */\n  0x00\n    /* \"#utility.yul\":1371:1372   */\n  dup1\n    /* \"#utility.yul\":1364:1376   */\n  revert\n    /* \"#utility.yul\":1328:1330   */\ntag_53:\n    /* \"#utility.yul\":1402:1476   */\n  tag_54\n    /* \"#utility.yul\":1468:1475   */\n  dup7\n    /* \"#utility.yul\":1459:1465   */\n  dup3\n    /* \"#utility.yul\":1448:1457   */\n  dup8\n    /* \"#utility.yul\":1444:1466   */\n  add\n    /* \"#utility.yul\":1402:1476   */\n  tag_45\n  jump\t// in\ntag_54:\n    /* \"#utility.yul\":1392:1476   */\n  swap3\n  pop\n    /* \"#utility.yul\":1261:1486   */\n  pop\n    /* \"#utility.yul\":1525:1527   */\n  0x40\n    /* \"#utility.yul\":1551:1615   */\n  tag_55\n    /* \"#utility.yul\":1607:1614   */\n  dup7\n    /* \"#utility.yul\":1598:1604   */\n  dup3\n    /* \"#utility.yul\":1587:1596   */\n  dup8\n    /* \"#utility.yul\":1583:1605   */\n  add\n    /* \"#utility.yul\":1551:1615   */\n  tag_41\n  jump\t// in\ntag_55:\n    /* \"#utility.yul\":1541:1615   */\n  swap2\n  pop\n    /* \"#utility.yul\":1496:1625   */\n  pop\n    /* \"#utility.yul\":955:1632   */\n  swap3\n  pop\n  swap3\n  pop\n  swap3\n  jump\t// out\n    /* \"#utility.yul\":1638:1756   */\ntag_56:\n    /* \"#utility.yul\":1725:1749   */\n  tag_58\n    /* \"#utility.yul\":1743:1748   */\n  dup2\n    /* \"#utility.yul\":1725:1749   */\n  tag_59\n  jump\t// in\ntag_58:\n    /* \"#utility.yul\":1720:1723   */\n  dup3\n    /* \"#utility.yul\":1713:1750   */\n  mstore\n    /* \"#utility.yul\":1703:1756   */\n  pop\n  pop\n  jump\t// out\n    /* \"#utility.yul\":1762:1984   */\ntag_19:\n    /* \"#utility.yul\":1855:1859   */\n  0x00\n    /* \"#utility.yul\":1893:1895   */\n  0x20\n    /* \"#utility.yul\":1882:1891   */\n  dup3\n    /* \"#utility.yul\":1878:1896   */\n  add\n    /* \"#utility.yul\":1870:1896   */\n  swap1\n  pop\n    /* \"#utility.yul\":1906:1977   */\n  tag_61\n    /* \"#utility.yul\":1974:1975   */\n  0x00\n    /* \"#utility.yul\":1963:1972   */\n  dup4\n    /* \"#utility.yul\":1959:1976   */\n  add\n    /* \"#utility.yul\":1950:1956   */\n  dup5\n    /* \"#utility.yul\":1906:1977   */\n  tag_56\n  jump\t// in\ntag_61:\n    /* \"#utility.yul\":1860:1984   */\n  swap3\n  swap2\n  pop\n  pop\n  jump\t// out\n    /* \"#utility.yul\":1990:2119   */\ntag_37:\n    /* \"#utility.yul\":2024:2030   */\n  0x00\n    /* \"#utility.yul\":2051:2071   */\n  tag_63\n  tag_64\n  jump\t// in\ntag_63:\n    /* \"#utility.yul\":2041:2071   */\n  swap1\n  pop\n    /* \"#utility.yul\":2080:2113   */\n  tag_65\n    /* \"#utility.yul\":2108:2112   */\n  dup3\n    /* \"#utility.yul\":2100:2106   */\n  dup3\n    /* \"#utility.yul\":2080:2113   */\n  tag_66\n  jump\t// in\ntag_65:\n    /* \"#utility.yul\":2031:2119   */\n  swap2\n  swap1\n  pop\n  jump\t// out\n    /* \"#utility.yul\":2125:2200   */\ntag_64:\n    /* \"#utility.yul\":2158:2164   */\n  0x00\n    /* \"#utility.yul\":2191:2193   */\n  0x40\n    /* \"#utility.yul\":2185:2194   */\n  mload\n    /* \"#utility.yul\":2175:2194   */\n  swap1\n  pop\n    /* \"#utility.yul\":2165:2200   */\n  swap1\n  jump\t// out\n    /* \"#utility.yul\":2206:2514   */\ntag_36:\n    /* \"#utility.yul\":2268:2272   */\n  0x00\n    /* \"#utility.yul\":2358:2376   */\n  0xffffffffffffffff\n    /* \"#utility.yul\":2350:2356   */\n  dup3\n    /* \"#utility.yul\":2347:2377   */\n  gt\n    /* \"#utility.yul\":2344:2346   */\n  iszero\n  tag_69\n  jumpi\n    /* \"#utility.yul\":2380:2398   */\n  tag_70\n  tag_71\n  jump\t// in\ntag_70:\n    /* \"#utility.yul\":2344:2346   */\ntag_69:\n    /* \"#utility.yul\":2418:2447   */\n  tag_72\n    /* \"#utility.yul\":2440:2446   */\n  dup3\n    /* \"#utility.yul\":2418:2447   */\n  tag_73\n  jump\t// in\ntag_72:\n    /* \"#utility.yul\":2410:2447   */\n  swap1\n  pop\n    /* \"#utility.yul\":2502:2506   */\n  0x20\n    /* \"#utility.yul\":2496:2500   */\n  dup2\n    /* \"#utility.yul\":2492:2507   */\n  add\n    /* \"#utility.yul\":2484:2507   */\n  swap1\n  pop\n    /* \"#utility.yul\":2273:2514   */\n  swap2\n  swap1\n  pop\n  jump\t// out\n    /* \"#utility.yul\":2520:2825   */\ntag_16:\n    /* \"#utility.yul\":2560:2563   */\n  0x00\n    /* \"#utility.yul\":2579:2599   */\n  tag_75\n    /* \"#utility.yul\":2597:2598   */\n  dup3\n    /* \"#utility.yul\":2579:2599   */\n  tag_59\n  jump\t// in\ntag_75:\n    /* \"#utility.yul\":2574:2599   */\n  swap2\n  pop\n    /* \"#utility.yul\":2613:2633   */\n  tag_76\n    /* \"#utility.yul\":2631:2632   */\n  dup4\n    /* \"#utility.yul\":2613:2633   */\n  tag_59\n  jump\t// in\ntag_76:\n    /* \"#utility.yul\":2608:2633   */\n  swap3\n  pop\n    /* \"#utility.yul\":2767:2768   */\n  dup3\n    /* \"#utility.yul\":2699:2765   */\n  0xffffffffffffffffffffffffffffffffffffffffffffffffffffffffffffffff\n    /* \"#utility.yul\":2695:2769   */\n  sub\n    /* \"#utility.yul\":2692:2693   */\n  dup3\n    /* \"#utility.yul\":2689:2770   */\n  gt\n    /* \"#utility.yul\":2686:2688   */\n  iszero\n  tag_77\n  jumpi\n    /* \"#utility.yul\":2773:2791   */\n  tag_78\n  tag_79\n  jump\t// in\ntag_78:\n    /* \"#utility.yul\":2686:2688   */\ntag_77:\n    /* \"#utility.yul\":2817:2818   */\n  dup3\n    /* \"#utility.yul\":2814:2815   */\n  dup3\n    /* \"#utility.yul\":2810:2819   */\n  add\n    /* \"#utility.yul\":2803:2819   */\n  swap1\n  pop\n    /* \"#utility.yul\":2564:2825   */\n  swap3\n  swap2\n  pop\n  pop\n  jump\t// out\n    /* \"#utility.yul\":2831:2927   */\ntag_80:\n    /* \"#utility.yul\":2868:2875   */\n  0x00\n    /* \"#utility.yul\":2897:2921   */\n  tag_82\n    /* \"#utility.yul\":2915:2920   */\n  dup3\n    /* \"#utility.yul\":2897:2921   */\n  tag_83\n  jump\t// in\ntag_82:\n    /* \"#utility.yul\":2886:2921   */\n  swap1\n  pop\n    /* \"#utility.yul\":2876:2927   */\n  swap2\n  swap1\n  pop\n  jump\t// out\n    /* \"#utility.yul\":2933:3059   */\ntag_83:\n    /* \"#utility.yul\":2970:2977   */\n  0x00\n    /* \"#utility.yul\":3010:3052   */\n  0xffffffffffffffffffffffffffffffffffffffff\n    /* \"#utility.yul\":3003:3008   */\n  dup3\n    /* \"#utility.yul\":2999:3053   */\n  and\n    /* \"#utility.yul\":2988:3053   */\n  swap1\n  pop\n    /* \"#utility.yul\":2978:3059   */\n  swap2\n  swap1\n  pop\n  jump\t// out\n    /* \"#utility.yul\":3065:3142   */\ntag_59:\n    /* \"#utility.yul\":3102:3109   */\n  0x00\n    /* \"#utility.yul\":3131:3136   */\n  dup2\n    /* \"#utility.yul\":3120:3136   */\n  swap1\n  pop\n    /* \"#utility.yul\":3110:3142   */\n  swap2\n  swap1\n  pop\n  jump\t// out\n    /* \"#utility.yul\":3148:3455   */\ntag_40:\n    /* \"#utility.yul\":3216:3217   */\n  0x00\n    /* \"#utility.yul\":3226:3339   */\ntag_87:\n    /* \"#utility.yul\":3240:3246   */\n  dup4\n    /* \"#utility.yul\":3237:3238   */\n  dup2\n    /* \"#utility.yul\":3234:3247   */\n  lt\n    /* \"#utility.yul\":3226:3339   */\n  iszero\n  tag_89\n  jumpi\n    /* \"#utility.yul\":3325:3326   */\n  dup1\n    /* \"#utility.yul\":3320:3323   */\n  dup3\n    /* \"#utility.yul\":3316:3327   */\n  add\n    /* \"#utility.yul\":3310:3328   */\n  mload\n    /* \"#utility.yul\":3306:3307   */\n  dup2\n    /* \"#utility.yul\":3301:3304   */\n  dup5\n    /* \"#utility.yul\":3297:3308   */\n  add\n    /* \"#utility.yul\":3290:3329   */\n  mstore\n    /* \"#utility.yul\":3262:3264   */\n  0x20\n    /* \"#utility.yul\":3259:3260   */\n  dup2\n    /* \"#utility.yul\":3255:3265   */\n  add\n    /* \"#utility.yul\":3250:3265   */\n  swap1\n  pop\n    /* \"#utility.yul\":3226:3339   */\n  jump(tag_87)\ntag_89:\n    /* \"#utility.yul\":3357:3363   */\n  dup4\n    /* \"#utility.yul\":3354:3355   */\n  dup2\n    /* \"#utility.yul\":3351:3364   */\n  gt\n    /* \"#utility.yul\":3348:3350   */\n  iszero\n  tag_90\n  jumpi\n    /* \"#utility.yul\":3437:3438   */\n  0x00\n    /* \"#utility.yul\":3428:3434   */\n  dup5\n    /* \"#utility.yul\":3423:3426   */\n  dup5\n    /* \"#utility.yul\":3419:3435   */\n  add\n    /* \"#utility.yul\":3412:3439   */\n  mstore\n    /* \"#utility.yul\":3348:3350   */\ntag_90:\n    /* \"#utility.yul\":3197:3455   */\n  pop\n  pop\n  pop\n  pop\n  jump\t// out\n    /* \"#utility.yul\":3461:3781   */\ntag_21:\n    /* \"#utility.yul\":3505:3511   */\n  0x00\n    /* \"#utility.yul\":3542:3543   */\n  0x02\n    /* \"#utility.yul\":3536:3540   */\n  dup3\n    /* \"#utility.yul\":3532:3544   */\n  div\n    /* \"#utility.yul\":3522:3544   */\n  swap1\n  pop\n    /* \"#utility.yul\":3589:3590   */\n  0x01\n    /* \"#utility.yul\":3583:3587   */\n  dup3\n    /* \"#utility.yul\":3579:3591   */\n  and\n    /* \"#utility.yul\":3610:3628   */\n  dup1\n    /* \"#utility.yul\":3600:3602   */\n  tag_92\n  jumpi\n    /* \"#utility.yul\":3666:3670   */\n  0x7f\n    /* \"#utility.yul\":3658:3664   */\n  dup3\n    /* \"#utility.yul\":3654:3671   */\n  and\n    /* \"#utility.yul\":3644:3671   */\n  swap2\n  pop\n    /* \"#utility.yul\":3600:3602   */\ntag_92:\n    /* \"#utility.yul\":3728:3730   */\n  0x20\n    /* \"#utility.yul\":3720:3726   */\n  dup3\n    /* \"#utility.yul\":3717:3731   */\n  lt\n    /* \"#utility.yul\":3697:3715   */\n  dup2\n    /* \"#utility.yul\":3694:3732   */\n  eq\n    /* \"#utility.yul\":3691:3693   */\n  iszero\n  tag_93\n  jumpi\n    /* \"#utility.yul\":3747:3765   */\n  tag_94\n  tag_95\n  jump\t// in\ntag_94:\n    /* \"#utility.yul\":3691:3693   */\ntag_93:\n    /* \"#utility.yul\":3512:3781   */\n  pop\n  swap2\n  swap1\n  pop\n  jump\t// out\n    /* \"#utility.yul\":3787:4068   */\ntag_66:\n    /* \"#utility.yul\":3870:3897   */\n  tag_97\n    /* \"#utility.yul\":3892:3896   */\n  dup3\n    /* \"#utility.yul\":3870:3897   */\n  tag_73\n  jump\t// in\ntag_97:\n    /* \"#utility.yul\":3862:3868   */\n  dup2\n    /* \"#utility.yul\":3858:3898   */\n  add\n    /* \"#utility.yul\":4000:4006   */\n  dup2\n    /* \"#utility.yul\":3988:3998   */\n  dup2\n    /* \"#utility.yul\":3985:4007   */\n  lt\n    /* \"#utility.yul\":3964:3982   */\n  0xffffffffffffffff\n    /* \"#utility.yul\":3952:3962   */\n  dup3\n    /* \"#utility.yul\":3949:3983   */\n  gt\n    /* \"#utility.yul\":3946:4008   */\n  or\n    /* \"#utility.yul\":3943:3945   */\n  iszero\n  tag_98\n  jumpi\n    /* \"#utility.yul\":4011:4029   */\n  tag_99\n  tag_71\n  jump\t// in\ntag_99:\n    /* \"#utility.yul\":3943:3945   */\ntag_98:\n    /* \"#utility.yul\":4051:4061   */\n  dup1\n    /* \"#utility.yul\":4047:4049   */\n  0x40\n    /* \"#utility.yul\":4040:4062   */\n  mstore\n    /* \"#utility.yul\":3830:4068   */\n  pop\n  pop\n  pop\n  jump\t// out\n    /* \"#utility.yul\":4074:4254   */\ntag_79:\n    /* \"#utility.yul\":4122:4199   */\n  0x4e487b7100000000000000000000000000000000000000000000000000000000\n    /* \"#utility.yul\":4119:4120   */\n  0x00\n    /* \"#utility.yul\":4112:4200   */\n  mstore\n    /* \"#utility.yul\":4219:4223   */\n  0x11\n    /* \"#utility.yul\":4216:4217   */\n  0x04\n    /* \"#utility.yul\":4209:4224   */\n  mstore\n    /* \"#utility.yul\":4243:4247   */\n  0x24\n    /* \"#utility.yul\":4240:4241   */\n  0x00\n    /* \"#utility.yul\":4233:4248   */\n  revert\n    /* \"#utility.yul\":4260:4440   */\ntag_95:\n    /* \"#utility.yul\":4308:4385   */\n  0x4e487b7100000000000000000000000000000000000000000000000000000000\n    /* \"#utility.yul\":4305:4306   */\n  0x00\n    /* \"#utility.yul\":4298:4386   */\n  mstore\n    /* \"#utility.yul\":4405:4409   */\n  0x22\n    /* \"#utility.yul\":4402:4403   */\n  0x04\n    /* \"#utility.yul\":4395:4410   */\n  mstore\n    /* \"#utility.yul\":4429:4433   */\n  0x24\n    /* \"#utility.yul\":4426:4427   */\n  0x00\n    /* \"#utility.yul\":4419:4434   */\n  revert\n    /* \"#utility.yul\":4446:4626   */\ntag_71:\n    /* \"#utility.yul\":4494:4571   */\n  0x4e487b7100000000000000000000000000000000000000000000000000000000\n    /* \"#utility.yul\":4491:4492   */\n  0x00\n    /* \"#utility.yul\":4484:4572   */\n  mstore\n    /* \"#utility.yul\":4591:4595   */\n  0x41\n    /* \"#utility.yul\":4588:4589   */\n  0x04\n    /* \"#utility.yul\":4581:4596   */\n  mstore\n    /* \"#utility.yul\":4615:4619   */\n  0x24\n    /* \"#utility.yul\":4612:4613   */\n  0x00\n    /* \"#utility.yul\":4605:4620   */\n  revert\n    /* \"#utility.yul\":4632:4734   */\ntag_73:\n    /* \"#utility.yul\":4673:4679   */\n  0x00\n    /* \"#utility.yul\":4724:4726   */\n  0x1f\n    /* \"#utility.yul\":4720:4727   */\n  not\n    /* \"#utility.yul\":4715:4717   */\n  0x1f\n    /* \"#utility.yul\":4708:4713   */\n  dup4\n    /* \"#utility.yul\":4704:4718   */\n  add\n    /* \"#utility.yul\":4700:4728   */\n  and\n    /* \"#utility.yul\":4690:4728   */\n  swap1\n  pop\n    /* \"#utility.yul\":4680:4734   */\n  swap2\n  swap1\n  pop\n  jump\t// out\n    /* \"#utility.yul\":4740:4862   */\ntag_44:\n    /* \"#utility.yul\":4813:4837   */\n  tag_105\n    /* \"#utility.yul\":4831:4836   */\n  dup2\n    /* \"#utility.yul\":4813:4837   */\n  tag_80\n  jump\t// in\ntag_105:\n    /* \"#utility.yul\":4806:4811   */\n  dup2\n    /* \"#utility.yul\":4803:4838   */\n  eq\n    /* \"#utility.yul\":4793:4795   */\n  tag_106\n  jumpi\n    /* \"#utility.yul\":4852:4853   */\n  0x00\n    /* \"#utility.yul\":4849:4850   */\n  dup1\n    /* \"#utility.yul\":4842:4854   */\n  revert\n    /* \"#utility.yul\":4793:4795   */\ntag_106:\n    /* \"#utility.yul\":4783:4862   */\n  pop\n  jump\t// out\n    /* \"contracts/base/PenERC20V2.sol\":85:4774  contract PenERC20V2 is ERC20 {\r... */\ntag_13:\n  dataSize(sub_0)\n  dup1\n  dataOffset(sub_0)\n  0x00\n  codecopy\n  0x00\n  return\nstop\n\nsub_0: assembly {\n        /* \"contracts/base/PenERC20V2.sol\":85:4774  contract PenERC20V2 is ERC20 {\r... */\n      mstore(0x40, 0x80)\n      callvalue\n      dup1\n      iszero\n      tag_1\n      jumpi\n      0x00\n      dup1\n      revert\n    tag_1:\n      pop\n      jumpi(tag_2, lt(calldatasize, 0x04))\n      shr(0xe0, calldataload(0x00))\n      dup1\n      0x7f93ee98\n      gt\n      tag_23\n      jumpi\n      dup1\n      0xbb47e61a\n      gt\n      tag_24\n      jumpi\n      dup1\n      0xbb47e61a\n      eq\n      tag_18\n      jumpi\n      dup1\n      0xbd6e4e75\n      eq\n      tag_19\n      jumpi\n      dup1\n      0xdd62ed3e\n      eq\n      tag_20\n      jumpi\n      dup1\n      0xed04fac8\n      eq\n      tag_21\n      jumpi\n      dup1\n      0xf1a19b6c\n      eq\n      tag_22\n      jumpi\n      jump(tag_2)\n    tag_24:\n      dup1\n      0x7f93ee98\n      eq\n      tag_13\n      jumpi\n      dup1\n      0x95d89b41\n      eq\n      tag_14\n      jumpi\n      dup1\n      0xa9059cbb\n      eq\n      tag_15\n      jumpi\n      dup1\n      0xb863bd37\n      eq\n      tag_16\n      jumpi\n      dup1\n      0xbaeb0718\n      eq\n      tag_17\n      jumpi\n      jump(tag_2)\n    tag_23:\n      dup1\n      0x313ce567\n      gt\n      tag_25\n      jumpi\n      dup1\n      0x313ce567\n      eq\n      tag_8\n      jumpi\n      dup1\n      0x35edf0b0\n      eq\n      tag_9\n      jumpi\n      dup1\n      0x42966c68\n      eq\n      tag_10\n      jumpi\n      dup1\n      0x6d6ae1a8\n      eq\n      tag_11\n      jumpi\n      dup1\n      0x70a08231\n      eq\n      tag_12\n      jumpi\n      jump(tag_2)\n    tag_25:\n      dup1\n      0x06fdde03\n      eq\n      tag_3\n      jumpi\n      dup1\n      0x095ea7b3\n      eq\n      tag_4\n      jumpi\n      dup1\n      0x17d6da82\n      eq\n      tag_5\n      jumpi\n      dup1\n      0x18160ddd\n      eq\n      tag_6\n      jumpi\n      dup1\n      0x23b872dd\n      eq\n      tag_7\n      jumpi\n    tag_2:\n      0x00\n      dup1\n      revert\n        /* \"contracts/base/ERC20.sol\":315:333  string public name */\n    tag_3:\n      tag_26\n      tag_27\n      jump\t// in\n    tag_26:\n      mload(0x40)\n      tag_28\n      swap2\n      swap1\n      tag_29\n      jump\t// in\n    tag_28:\n      mload(0x40)\n      dup1\n      swap2\n      sub\n      swap1\n      return\n        /* \"contracts/base/ERC20.sol\":1192:1403  function approve(address spender, uint amount) public override returns (bool) {\r... */\n    tag_4:\n      tag_30\n      0x04\n      dup1\n      calldatasize\n      sub\n      dup2\n      add\n      swap1\n      tag_31\n      swap2\n      swap1\n      tag_32\n      jump\t// in\n    tag_31:\n      tag_33\n      jump\t// in\n    tag_30:\n      mload(0x40)\n      tag_34\n      swap2\n      swap1\n      tag_35\n      jump\t// in\n    tag_34:\n      mload(0x40)\n      dup1\n      swap2\n      sub\n      swap1\n      return\n        /* \"contracts/base/PenERC20V2.sol\":2337:2590  function getLuckyDrawCount(address user) public view returns (uint256 count) { \r... */\n    tag_5:\n      tag_36\n      0x04\n      dup1\n      calldatasize\n      sub\n      dup2\n      add\n      swap1\n      tag_37\n      swap2\n      swap1\n      tag_38\n      jump\t// in\n    tag_37:\n      tag_39\n      jump\t// in\n    tag_36:\n      mload(0x40)\n      tag_40\n      swap2\n      swap1\n      tag_41\n      jump\t// in\n    tag_40:\n      mload(0x40)\n      dup1\n      swap2\n      sub\n      swap1\n      return\n        /* \"contracts/base/ERC20.sol\":271:306  uint256 public override totalSupply */\n    tag_6:\n      tag_42\n      tag_43\n      jump\t// in\n    tag_42:\n      mload(0x40)\n      tag_44\n      swap2\n      swap1\n      tag_41\n      jump\t// in\n    tag_44:\n      mload(0x40)\n      dup1\n      swap2\n      sub\n      swap1\n      return\n        /* \"contracts/base/ERC20.sol\":869:1184  function transferFrom(address sender, address recipient, uint amount) public override returns (bool) {\r... */\n    tag_7:\n      tag_45\n      0x04\n      dup1\n      calldatasize\n      sub\n      dup2\n      add\n      swap1\n      tag_46\n      swap2\n      swap1\n      tag_47\n      jump\t// in\n    tag_46:\n      tag_48\n      jump\t// in\n    tag_45:\n      mload(0x40)\n      tag_49\n      swap2\n      swap1\n      tag_35\n      jump\t// in\n    tag_49:\n      mload(0x40)\n      dup1\n      swap2\n      sub\n      swap1\n      return\n        /* \"contracts/base/ERC20.sol\":367:393  uint8 public decimals = 18 */\n    tag_8:\n      tag_50\n      tag_51\n      jump\t// in\n    tag_50:\n      mload(0x40)\n      tag_52\n      swap2\n      swap1\n      tag_53\n      jump\t// in\n    tag_52:\n      mload(0x40)\n      dup1\n      swap2\n      sub\n      swap1\n      return\n        /* \"contracts/base/PenERC20V2.sol\":306:354  mapping(address => uint256) public checkinStreak */\n    tag_9:\n      tag_54\n      0x04\n      dup1\n      calldatasize\n      sub\n      dup2\n      add\n      swap1\n      tag_55\n      swap2\n      swap1\n      tag_38\n      jump\t// in\n    tag_55:\n      tag_56\n      jump\t// in\n    tag_54:\n      mload(0x40)\n      tag_57\n      swap2\n      swap1\n      tag_41\n      jump\t// in\n    tag_57:\n      mload(0x40)\n      dup1\n      swap2\n      sub\n      swap1\n      return\n        /* \"contracts/base/ERC20.sol\":1617:1884  function burn(uint256 amount) external {\r... */\n    tag_10:\n      tag_58\n      0x04\n      dup1\n      calldatasize\n      sub\n      dup2\n      add\n      swap1\n      tag_59\n      swap2\n      swap1\n      tag_60\n      jump\t// in\n    tag_59:\n      tag_61\n      jump\t// in\n    tag_58:\n      stop\n        /* \"contracts/base/PenERC20V2.sol\":2630:4571  function luckyDraw(uint seed) external returns (string memory reward) {\r... */\n    tag_11:\n      tag_62\n      0x04\n      dup1\n      calldatasize\n      sub\n      dup2\n      add\n      swap1\n      tag_63\n      swap2\n      swap1\n      tag_60\n      jump\t// in\n    tag_63:\n      tag_64\n      jump\t// in\n    tag_62:\n      mload(0x40)\n      tag_65\n      swap2\n      swap1\n      tag_29\n      jump\t// in\n    tag_65:\n      mload(0x40)\n      dup1\n      swap2\n      sub\n      swap1\n      return\n        /* \"contracts/base/ERC20.sol\":131:184  mapping(address => uint256) public override balanceOf */\n    tag_12:\n      tag_66\n      0x04\n      dup1\n      calldatasize\n      sub\n      dup2\n      add\n      swap1\n      tag_67\n      swap2\n      swap1\n      tag_38\n      jump\t// in\n    tag_67:\n      tag_68\n      jump\t// in\n    tag_66:\n      mload(0x40)\n      tag_69\n      swap2\n      swap1\n      tag_41\n      jump\t// in\n    tag_69:\n      mload(0x40)\n      dup1\n      swap2\n      sub\n      swap1\n      return\n        /* \"contracts/base/PenERC20V2.sol\":2177:2226  mapping(address => uint256) public luckyDrawCount */\n    tag_13:\n      tag_70\n      0x04\n      dup1\n      calldatasize\n      sub\n      dup2\n      add\n      swap1\n      tag_71\n      swap2\n      swap1\n      tag_38\n      jump\t// in\n    tag_71:\n      tag_72\n      jump\t// in\n    tag_70:\n      mload(0x40)\n      tag_73\n      swap2\n      swap1\n      tag_41\n      jump\t// in\n    tag_73:\n      mload(0x40)\n      dup1\n      swap2\n      sub\n      swap1\n      return\n        /* \"contracts/base/ERC20.sol\":340:360  string public symbol */\n    tag_14:\n      tag_74\n      tag_75\n      jump\t// in\n    tag_74:\n      mload(0x40)\n      tag_76\n      swap2\n      swap1\n      tag_29\n      jump\t// in\n    tag_76:\n      mload(0x40)\n      dup1\n      swap2\n      sub\n      swap1\n      return\n        /* \"contracts/base/ERC20.sol\":699:861  function transfer(address recipient, uint amount) public override returns (bool) {\r... */\n    tag_15:\n      tag_77\n      0x04\n      dup1\n      calldatasize\n      sub\n      dup2\n      add\n      swap1\n      tag_78\n      swap2\n      swap1\n      tag_32\n      jump\t// in\n    tag_78:\n      tag_79\n      jump\t// in\n    tag_77:\n      mload(0x40)\n      tag_80\n      swap2\n      swap1\n      tag_35\n      jump\t// in\n    tag_80:\n      mload(0x40)\n      dup1\n      swap2\n      sub\n      swap1\n      return\n        /* \"contracts/base/PenERC20V2.sol\":4579:4769  function random(uint seed) public view returns (uint) {\r... */\n    tag_16:\n      tag_81\n      0x04\n      dup1\n      calldatasize\n      sub\n      dup2\n      add\n      swap1\n      tag_82\n      swap2\n      swap1\n      tag_60\n      jump\t// in\n    tag_82:\n      tag_83\n      jump\t// in\n    tag_81:\n      mload(0x40)\n      tag_84\n      swap2\n      swap1\n      tag_41\n      jump\t// in\n    tag_84:\n      mload(0x40)\n      dup1\n      swap2\n      sub\n      swap1\n      return\n        /* \"contracts/base/PenERC20V2.sol\":687:1448  function checkin() external returns (uint256 reward) {\r... */\n    tag_17:\n      tag_85\n      tag_86\n      jump\t// in\n    tag_85:\n      mload(0x40)\n      tag_87\n      swap2\n      swap1\n      tag_41\n      jump\t// in\n    tag_87:\n      mload(0x40)\n      dup1\n      swap2\n      sub\n      swap1\n      return\n        /* \"contracts/base/PenERC20V2.sol\":390:422  uint256 public checkinBase = 100 */\n    tag_18:\n      tag_88\n      tag_89\n      jump\t// in\n    tag_88:\n      mload(0x40)\n      tag_90\n      swap2\n      swap1\n      tag_41\n      jump\t// in\n    tag_90:\n      mload(0x40)\n      dup1\n      swap2\n      sub\n      swap1\n      return\n        /* \"contracts/base/PenERC20V2.sol\":2098:2146  mapping(address => uint256) public luckyDrawDate */\n    tag_19:\n      tag_91\n      0x04\n      dup1\n      calldatasize\n      sub\n      dup2\n      add\n      swap1\n      tag_92\n      swap2\n      swap1\n      tag_38\n      jump\t// in\n    tag_92:\n      tag_93\n      jump\t// in\n    tag_91:\n      mload(0x40)\n      tag_94\n      swap2\n      swap1\n      tag_41\n      jump\t// in\n    tag_94:\n      mload(0x40)\n      dup1\n      swap2\n      sub\n      swap1\n      return\n        /* \"contracts/base/ERC20.sol\":191:264  mapping(address => mapping(address => uint256)) public override allowance */\n    tag_20:\n      tag_95\n      0x04\n      dup1\n      calldatasize\n      sub\n      dup2\n      add\n      swap1\n      tag_96\n      swap2\n      swap1\n      tag_97\n      jump\t// in\n    tag_96:\n      tag_98\n      jump\t// in\n    tag_95:\n      mload(0x40)\n      tag_99\n      swap2\n      swap1\n      tag_41\n      jump\t// in\n    tag_99:\n      mload(0x40)\n      dup1\n      swap2\n      sub\n      swap1\n      return\n        /* \"contracts/base/PenERC20V2.sol\":1456:1988  function getCheckinReward() public view returns (uint256) {\r... */\n    tag_21:\n      tag_100\n      tag_101\n      jump\t// in\n    tag_100:\n      mload(0x40)\n      tag_102\n      swap2\n      swap1\n      tag_41\n      jump\t// in\n    tag_102:\n      mload(0x40)\n      dup1\n      swap2\n      sub\n      swap1\n      return\n        /* \"contracts/base/PenERC20V2.sol\":222:268  mapping(address => uint256) public checkinDate */\n    tag_22:\n      tag_103\n      0x04\n      dup1\n      calldatasize\n      sub\n      dup2\n      add\n      swap1\n      tag_104\n      swap2\n      swap1\n      tag_38\n      jump\t// in\n    tag_104:\n      tag_105\n      jump\t// in\n    tag_103:\n      mload(0x40)\n      tag_106\n      swap2\n      swap1\n      tag_41\n      jump\t// in\n    tag_106:\n      mload(0x40)\n      dup1\n      swap2\n      sub\n      swap1\n      return\n        /* \"contracts/base/ERC20.sol\":315:333  string public name */\n    tag_27:\n      0x03\n      dup1\n      sload\n      tag_107\n      swap1\n      tag_108\n      jump\t// in\n    tag_107:\n      dup1\n      0x1f\n      add\n      0x20\n      dup1\n      swap2\n      div\n      mul\n      0x20\n      add\n      mload(0x40)\n      swap1\n      dup2\n      add\n      0x40\n      mstore\n      dup1\n      swap3\n      swap2\n      swap1\n      dup2\n      dup2\n      mstore\n      0x20\n      add\n      dup3\n      dup1\n      sload\n      tag_109\n      swap1\n      tag_108\n      jump\t// in\n    tag_109:\n      dup1\n      iszero\n      tag_110\n      jumpi\n      dup1\n      0x1f\n      lt\n      tag_111\n      jumpi\n      0x0100\n      dup1\n      dup4\n      sload\n      div\n      mul\n      dup4\n      mstore\n      swap2\n      0x20\n      add\n      swap2\n      jump(tag_110)\n    tag_111:\n      dup3\n      add\n      swap2\n      swap1\n      0x00\n      mstore\n      keccak256(0x00, 0x20)\n      swap1\n    tag_112:\n      dup2\n      sload\n      dup2\n      mstore\n      swap1\n      0x01\n      add\n      swap1\n      0x20\n      add\n      dup1\n      dup4\n      gt\n      tag_112\n      jumpi\n      dup3\n      swap1\n      sub\n      0x1f\n      and\n      dup3\n      add\n      swap2\n    tag_110:\n      pop\n      pop\n      pop\n      pop\n      pop\n      dup2\n      jump\t// out\n        /* \"contracts/base/ERC20.sol\":1192:1403  function approve(address spender, uint amount) public override returns (bool) {\r... */\n    tag_33:\n        /* \"contracts/base/ERC20.sol\":1264:1268  bool */\n      0x00\n        /* \"contracts/base/ERC20.sol\":1314:1320  amount */\n      dup2\n        /* \"contracts/base/ERC20.sol\":1281:1290  allowance */\n      0x01\n        /* \"contracts/base/ERC20.sol\":1281:1302  allowance[msg.sender] */\n      0x00\n        /* \"contracts/base/ERC20.sol\":1291:1301  msg.sender */\n      caller\n        /* \"contracts/base/ERC20.sol\":1281:1302  allowance[msg.sender] */\n      0xffffffffffffffffffffffffffffffffffffffff\n      and\n      0xffffffffffffffffffffffffffffffffffffffff\n      and\n      dup2\n      mstore\n      0x20\n      add\n      swap1\n      dup2\n      mstore\n      0x20\n      add\n      0x00\n      keccak256\n        /* \"contracts/base/ERC20.sol\":1281:1311  allowance[msg.sender][spender] */\n      0x00\n        /* \"contracts/base/ERC20.sol\":1303:1310  spender */\n      dup6\n        /* \"contracts/base/ERC20.sol\":1281:1311  allowance[msg.sender][spender] */\n      0xffffffffffffffffffffffffffffffffffffffff\n      and\n      0xffffffffffffffffffffffffffffffffffffffff\n      and\n      dup2\n      mstore\n      0x20\n      add\n      swap1\n      dup2\n      mstore\n      0x20\n      add\n      0x00\n      keccak256\n        /* \"contracts/base/ERC20.sol\":1281:1320  allowance[msg.sender][spender] = amount */\n      dup2\n      swap1\n      sstore\n      pop\n        /* \"contracts/base/ERC20.sol\":1357:1364  spender */\n      dup3\n        /* \"contracts/base/ERC20.sol\":1336:1373  Approval(msg.sender, spender, amount) */\n      0xffffffffffffffffffffffffffffffffffffffff\n      and\n        /* \"contracts/base/ERC20.sol\":1345:1355  msg.sender */\n      caller\n        /* \"contracts/base/ERC20.sol\":1336:1373  Approval(msg.sender, spender, amount) */\n      0xffffffffffffffffffffffffffffffffffffffff\n      and\n      0x8c5be1e5ebec7d5bd14f71427d1e84f3dd0314c0f7b2291e5b200ac8c7c3b925\n        /* \"contracts/base/ERC20.sol\":1366:1372  amount */\n      dup5\n        /* \"contracts/base/ERC20.sol\":1336:1373  Approval(msg.sender, spender, amount) */\n      mload(0x40)\n      tag_114\n      swap2\n      swap1\n      tag_41\n      jump\t// in\n    tag_114:\n      mload(0x40)\n      dup1\n      swap2\n      sub\n      swap1\n      log3\n        /* \"contracts/base/ERC20.sol\":1391:1395  true */\n      0x01\n        /* \"contracts/base/ERC20.sol\":1384:1395  return true */\n      swap1\n      pop\n        /* \"contracts/base/ERC20.sol\":1192:1403  function approve(address spender, uint amount) public override returns (bool) {\r... */\n      swap3\n      swap2\n      pop\n      pop\n      jump\t// out\n        /* \"contracts/base/PenERC20V2.sol\":2337:2590  function getLuckyDrawCount(address user) public view returns (uint256 count) { \r... */\n    tag_39:\n        /* \"contracts/base/PenERC20V2.sol\":2399:2412  uint256 count */\n      0x00\n        /* \"contracts/base/PenERC20V2.sol\":2438:2452  luckyDrawCount */\n      0x0a\n        /* \"contracts/base/PenERC20V2.sol\":2438:2458  luckyDrawCount[user] */\n      0x00\n        /* \"contracts/base/PenERC20V2.sol\":2453:2457  user */\n      dup4\n        /* \"contracts/base/PenERC20V2.sol\":2438:2458  luckyDrawCount[user] */\n      0xffffffffffffffffffffffffffffffffffffffff\n      and\n      0xffffffffffffffffffffffffffffffffffffffff\n      and\n      dup2\n      mstore\n      0x20\n      add\n      swap1\n      dup2\n      mstore\n      0x20\n      add\n      0x00\n      keccak256\n      sload\n        /* \"contracts/base/PenERC20V2.sol\":2434:2435  3 */\n      0x03\n        /* \"contracts/base/PenERC20V2.sol\":2434:2458  3 - luckyDrawCount[user] */\n      tag_116\n      swap2\n      swap1\n      tag_117\n      jump\t// in\n    tag_116:\n        /* \"contracts/base/PenERC20V2.sol\":2426:2458  count = 3 - luckyDrawCount[user] */\n      swap1\n      pop\n        /* \"contracts/base/PenERC20V2.sol\":2470:2483  uint256 today */\n      0x00\n        /* \"contracts/base/PenERC20V2.sol\":2516:2522  1 days */\n      0x015180\n        /* \"contracts/base/PenERC20V2.sol\":2505:2512  8 hours */\n      0x7080\n        /* \"contracts/base/PenERC20V2.sol\":2487:2502  block.timestamp */\n      timestamp\n        /* \"contracts/base/PenERC20V2.sol\":2487:2512  block.timestamp + 8 hours */\n      tag_118\n      swap2\n      swap1\n      tag_119\n      jump\t// in\n    tag_118:\n        /* \"contracts/base/PenERC20V2.sol\":2486:2522  (block.timestamp + 8 hours) / 1 days */\n      tag_120\n      swap2\n      swap1\n      tag_121\n      jump\t// in\n    tag_120:\n        /* \"contracts/base/PenERC20V2.sol\":2470:2522  uint256 today = (block.timestamp + 8 hours) / 1 days */\n      swap1\n      pop\n        /* \"contracts/base/PenERC20V2.sol\":2547:2560  luckyDrawDate */\n      0x09\n        /* \"contracts/base/PenERC20V2.sol\":2547:2566  luckyDrawDate[user] */\n      0x00\n        /* \"contracts/base/PenERC20V2.sol\":2561:2565  user */\n      dup5\n        /* \"contracts/base/PenERC20V2.sol\":2547:2566  luckyDrawDate[user] */\n      0xffffffffffffffffffffffffffffffffffffffff\n      and\n      0xffffffffffffffffffffffffffffffffffffffff\n      and\n      dup2\n      mstore\n      0x20\n      add\n      swap1\n      dup2\n      mstore\n      0x20\n      add\n      0x00\n      keccak256\n      sload\n        /* \"contracts/base/PenERC20V2.sol\":2538:2543  today */\n      dup2\n        /* \"contracts/base/PenERC20V2.sol\":2538:2566  today != luckyDrawDate[user] */\n      eq\n        /* \"contracts/base/PenERC20V2.sol\":2534:2582  if (today != luckyDrawDate[user]) { count = 3; } */\n      tag_122\n      jumpi\n        /* \"contracts/base/PenERC20V2.sol\":2578:2579  3 */\n      0x03\n        /* \"contracts/base/PenERC20V2.sol\":2570:2579  count = 3 */\n      swap2\n      pop\n        /* \"contracts/base/PenERC20V2.sol\":2534:2582  if (today != luckyDrawDate[user]) { count = 3; } */\n    tag_122:\n        /* \"contracts/base/PenERC20V2.sol\":2337:2590  function getLuckyDrawCount(address user) public view returns (uint256 count) { \r... */\n      pop\n      swap2\n      swap1\n      pop\n      jump\t// out\n        /* \"contracts/base/ERC20.sol\":271:306  uint256 public override totalSupply */\n    tag_43:\n      sload(0x02)\n      dup2\n      jump\t// out\n        /* \"contracts/base/ERC20.sol\":869:1184  function transferFrom(address sender, address recipient, uint amount) public override returns (bool) {\r... */\n    tag_48:\n        /* \"contracts/base/ERC20.sol\":964:968  bool */\n      0x00\n        /* \"contracts/base/ERC20.sol\":1022:1028  amount */\n      dup2\n        /* \"contracts/base/ERC20.sol\":989:998  allowance */\n      0x01\n        /* \"contracts/base/ERC20.sol\":989:1006  allowance[sender] */\n      0x00\n        /* \"contracts/base/ERC20.sol\":999:1005  sender */\n      dup7\n        /* \"contracts/base/ERC20.sol\":989:1006  allowance[sender] */\n      0xffffffffffffffffffffffffffffffffffffffff\n      and\n      0xffffffffffffffffffffffffffffffffffffffff\n      and\n      dup2\n      mstore\n      0x20\n      add\n      swap1\n      dup2\n      mstore\n      0x20\n      add\n      0x00\n      keccak256\n        /* \"contracts/base/ERC20.sol\":989:1018  allowance[sender][msg.sender] */\n      0x00\n        /* \"contracts/base/ERC20.sol\":1007:1017  msg.sender */\n      caller\n        /* \"contracts/base/ERC20.sol\":989:1018  allowance[sender][msg.sender] */\n      0xffffffffffffffffffffffffffffffffffffffff\n      and\n      0xffffffffffffffffffffffffffffffffffffffff\n      and\n      dup2\n      mstore\n      0x20\n      add\n      swap1\n      dup2\n      mstore\n      0x20\n      add\n      0x00\n      keccak256\n      sload\n        /* \"contracts/base/ERC20.sol\":989:1028  allowance[sender][msg.sender] >= amount */\n      lt\n      iszero\n        /* \"contracts/base/ERC20.sol\":981:1057  require(allowance[sender][msg.sender] >= amount, \"ERC20: allowance too low\") */\n      tag_124\n      jumpi\n      mload(0x40)\n      0x08c379a000000000000000000000000000000000000000000000000000000000\n      dup2\n      mstore\n      0x04\n      add\n      tag_125\n      swap1\n      tag_126\n      jump\t// in\n    tag_125:\n      mload(0x40)\n      dup1\n      swap2\n      sub\n      swap1\n      revert\n    tag_124:\n        /* \"contracts/base/ERC20.sol\":1101:1107  amount */\n      dup2\n        /* \"contracts/base/ERC20.sol\":1068:1077  allowance */\n      0x01\n        /* \"contracts/base/ERC20.sol\":1068:1085  allowance[sender] */\n      0x00\n        /* \"contracts/base/ERC20.sol\":1078:1084  sender */\n      dup7\n        /* \"contracts/base/ERC20.sol\":1068:1085  allowance[sender] */\n      0xffffffffffffffffffffffffffffffffffffffff\n      and\n      0xffffffffffffffffffffffffffffffffffffffff\n      and\n      dup2\n      mstore\n      0x20\n      add\n      swap1\n      dup2\n      mstore\n      0x20\n      add\n      0x00\n      keccak256\n        /* \"contracts/base/ERC20.sol\":1068:1097  allowance[sender][msg.sender] */\n      0x00\n        /* \"contracts/base/ERC20.sol\":1086:1096  msg.sender */\n      caller\n        /* \"contracts/base/ERC20.sol\":1068:1097  allowance[sender][msg.sender] */\n      0xffffffffffffffffffffffffffffffffffffffff\n      and\n      0xffffffffffffffffffffffffffffffffffffffff\n      and\n      dup2\n      mstore\n      0x20\n      add\n      swap1\n      dup2\n      mstore\n      0x20\n      add\n      0x00\n      keccak256\n      0x00\n        /* \"contracts/base/ERC20.sol\":1068:1107  allowance[sender][msg.sender] -= amount */\n      dup3\n      dup3\n      sload\n      tag_127\n      swap2\n      swap1\n      tag_117\n      jump\t// in\n    tag_127:\n      swap3\n      pop\n      pop\n      dup2\n      swap1\n      sstore\n      pop\n        /* \"contracts/base/ERC20.sol\":1118:1154  _transfer(sender, recipient, amount) */\n      tag_128\n        /* \"contracts/base/ERC20.sol\":1128:1134  sender */\n      dup5\n        /* \"contracts/base/ERC20.sol\":1136:1145  recipient */\n      dup5\n        /* \"contracts/base/ERC20.sol\":1147:1153  amount */\n      dup5\n        /* \"contracts/base/ERC20.sol\":1118:1127  _transfer */\n      tag_129\n        /* \"contracts/base/ERC20.sol\":1118:1154  _transfer(sender, recipient, amount) */\n      jump\t// in\n    tag_128:\n        /* \"contracts/base/ERC20.sol\":1172:1176  true */\n      0x01\n        /* \"contracts/base/ERC20.sol\":1165:1176  return true */\n      swap1\n      pop\n        /* \"contracts/base/ERC20.sol\":869:1184  function transferFrom(address sender, address recipient, uint amount) public override returns (bool) {\r... */\n      swap4\n      swap3\n      pop\n      pop\n      pop\n      jump\t// out\n        /* \"contracts/base/ERC20.sol\":367:393  uint8 public decimals = 18 */\n    tag_51:\n      0x05\n      0x00\n      swap1\n      sload\n      swap1\n      0x0100\n      exp\n      swap1\n      div\n      0xff\n      and\n      dup2\n      jump\t// out\n        /* \"contracts/base/PenERC20V2.sol\":306:354  mapping(address => uint256) public checkinStreak */\n    tag_56:\n      mstore(0x20, 0x07)\n      dup1\n      0x00\n      mstore\n      keccak256(0x00, 0x40)\n      0x00\n      swap2\n      pop\n      swap1\n      pop\n      sload\n      dup2\n      jump\t// out\n        /* \"contracts/base/ERC20.sol\":1617:1884  function burn(uint256 amount) external {\r... */\n    tag_61:\n        /* \"contracts/base/ERC20.sol\":1700:1706  amount */\n      dup1\n        /* \"contracts/base/ERC20.sol\":1675:1684  balanceOf */\n      0x00\n        /* \"contracts/base/ERC20.sol\":1675:1696  balanceOf[msg.sender] */\n      dup1\n        /* \"contracts/base/ERC20.sol\":1685:1695  msg.sender */\n      caller\n        /* \"contracts/base/ERC20.sol\":1675:1696  balanceOf[msg.sender] */\n      0xffffffffffffffffffffffffffffffffffffffff\n      and\n      0xffffffffffffffffffffffffffffffffffffffff\n      and\n      dup2\n      mstore\n      0x20\n      add\n      swap1\n      dup2\n      mstore\n      0x20\n      add\n      0x00\n      keccak256\n      sload\n        /* \"contracts/base/ERC20.sol\":1675:1706  balanceOf[msg.sender] >= amount */\n      lt\n      iszero\n        /* \"contracts/base/ERC20.sol\":1667:1746  require(balanceOf[msg.sender] >= amount, \"ERC20: insufficient balance to burn\") */\n      tag_131\n      jumpi\n      mload(0x40)\n      0x08c379a000000000000000000000000000000000000000000000000000000000\n      dup2\n      mstore\n      0x04\n      add\n      tag_132\n      swap1\n      tag_133\n      jump\t// in\n    tag_132:\n      mload(0x40)\n      dup1\n      swap2\n      sub\n      swap1\n      revert\n    tag_131:\n        /* \"contracts/base/ERC20.sol\":1782:1788  amount */\n      dup1\n        /* \"contracts/base/ERC20.sol\":1757:1766  balanceOf */\n      0x00\n        /* \"contracts/base/ERC20.sol\":1757:1778  balanceOf[msg.sender] */\n      dup1\n        /* \"contracts/base/ERC20.sol\":1767:1777  msg.sender */\n      caller\n        /* \"contracts/base/ERC20.sol\":1757:1778  balanceOf[msg.sender] */\n      0xffffffffffffffffffffffffffffffffffffffff\n      and\n      0xffffffffffffffffffffffffffffffffffffffff\n      and\n      dup2\n      mstore\n      0x20\n      add\n      swap1\n      dup2\n      mstore\n      0x20\n      add\n      0x00\n      keccak256\n      0x00\n        /* \"contracts/base/ERC20.sol\":1757:1788  balanceOf[msg.sender] -= amount */\n      dup3\n      dup3\n      sload\n      tag_134\n      swap2\n      swap1\n      tag_117\n      jump\t// in\n    tag_134:\n      swap3\n      pop\n      pop\n      dup2\n      swap1\n      sstore\n      pop\n        /* \"contracts/base/ERC20.sol\":1814:1820  amount */\n      dup1\n        /* \"contracts/base/ERC20.sol\":1799:1810  totalSupply */\n      0x02\n      0x00\n        /* \"contracts/base/ERC20.sol\":1799:1820  totalSupply -= amount */\n      dup3\n      dup3\n      sload\n      tag_135\n      swap2\n      swap1\n      tag_117\n      jump\t// in\n    tag_135:\n      swap3\n      pop\n      pop\n      dup2\n      swap1\n      sstore\n      pop\n        /* \"contracts/base/ERC20.sol\":1865:1866  0 */\n      0x00\n        /* \"contracts/base/ERC20.sol\":1836:1876  Transfer(msg.sender, address(0), amount) */\n      0xffffffffffffffffffffffffffffffffffffffff\n      and\n        /* \"contracts/base/ERC20.sol\":1845:1855  msg.sender */\n      caller\n        /* \"contracts/base/ERC20.sol\":1836:1876  Transfer(msg.sender, address(0), amount) */\n      0xffffffffffffffffffffffffffffffffffffffff\n      and\n      0xddf252ad1be2c89b69c2b068fc378daa952ba7f163c4a11628f55a4df523b3ef\n        /* \"contracts/base/ERC20.sol\":1869:1875  amount */\n      dup4\n        /* \"contracts/base/ERC20.sol\":1836:1876  Transfer(msg.sender, address(0), amount) */\n      mload(0x40)\n      tag_136\n      swap2\n      swap1\n      tag_41\n      jump\t// in\n    tag_136:\n      mload(0x40)\n      dup1\n      swap2\n      sub\n      swap1\n      log3\n        /* \"contracts/base/ERC20.sol\":1617:1884  function burn(uint256 amount) external {\r... */\n      pop\n      jump\t// out\n        /* \"contracts/base/PenERC20V2.sol\":2630:4571  function luckyDraw(uint seed) external returns (string memory reward) {\r... */\n    tag_64:\n        /* \"contracts/base/PenERC20V2.sol\":2678:2698  string memory reward */\n      0x60\n        /* \"contracts/base/PenERC20V2.sol\":2711:2724  uint256 today */\n      0x00\n        /* \"contracts/base/PenERC20V2.sol\":2757:2763  1 days */\n      0x015180\n        /* \"contracts/base/PenERC20V2.sol\":2746:2753  8 hours */\n      0x7080\n        /* \"contracts/base/PenERC20V2.sol\":2728:2743  block.timestamp */\n      timestamp\n        /* \"contracts/base/PenERC20V2.sol\":2728:2753  block.timestamp + 8 hours */\n      tag_138\n      swap2\n      swap1\n      tag_119\n      jump\t// in\n    tag_138:\n        /* \"contracts/base/PenERC20V2.sol\":2727:2763  (block.timestamp + 8 hours) / 1 days */\n      tag_139\n      swap2\n      swap1\n      tag_121\n      jump\t// in\n    tag_139:\n        /* \"contracts/base/PenERC20V2.sol\":2711:2763  uint256 today = (block.timestamp + 8 hours) / 1 days */\n      swap1\n      pop\n        /* \"contracts/base/PenERC20V2.sol\":2774:2786  uint256 cost */\n      0x00\n        /* \"contracts/base/PenERC20V2.sol\":2890:2895  today */\n      dup2\n        /* \"contracts/base/PenERC20V2.sol\":2862:2875  luckyDrawDate */\n      0x09\n        /* \"contracts/base/PenERC20V2.sol\":2862:2887  luckyDrawDate[msg.sender] */\n      0x00\n        /* \"contracts/base/PenERC20V2.sol\":2876:2886  msg.sender */\n      caller\n        /* \"contracts/base/PenERC20V2.sol\":2862:2887  luckyDrawDate[msg.sender] */\n      0xffffffffffffffffffffffffffffffffffffffff\n      and\n      0xffffffffffffffffffffffffffffffffffffffff\n      and\n      dup2\n      mstore\n      0x20\n      add\n      swap1\n      dup2\n      mstore\n      0x20\n      add\n      0x00\n      keccak256\n      sload\n        /* \"contracts/base/PenERC20V2.sol\":2862:2895  luckyDrawDate[msg.sender] < today */\n      lt\n        /* \"contracts/base/PenERC20V2.sol\":2858:3002  if (luckyDrawDate[msg.sender] < today) {\r... */\n      iszero\n      tag_140\n      jumpi\n        /* \"contracts/base/PenERC20V2.sol\":2940:2945  today */\n      dup2\n        /* \"contracts/base/PenERC20V2.sol\":2912:2925  luckyDrawDate */\n      0x09\n        /* \"contracts/base/PenERC20V2.sol\":2912:2937  luckyDrawDate[msg.sender] */\n      0x00\n        /* \"contracts/base/PenERC20V2.sol\":2926:2936  msg.sender */\n      caller\n        /* \"contracts/base/PenERC20V2.sol\":2912:2937  luckyDrawDate[msg.sender] */\n      0xffffffffffffffffffffffffffffffffffffffff\n      and\n      0xffffffffffffffffffffffffffffffffffffffff\n      and\n      dup2\n      mstore\n      0x20\n      add\n      swap1\n      dup2\n      mstore\n      0x20\n      add\n      0x00\n      keccak256\n        /* \"contracts/base/PenERC20V2.sol\":2912:2945  luckyDrawDate[msg.sender] = today */\n      dup2\n      swap1\n      sstore\n      pop\n        /* \"contracts/base/PenERC20V2.sol\":2989:2990  0 */\n      0x00\n        /* \"contracts/base/PenERC20V2.sol\":2960:2974  luckyDrawCount */\n      0x0a\n        /* \"contracts/base/PenERC20V2.sol\":2960:2986  luckyDrawCount[msg.sender] */\n      0x00\n        /* \"contracts/base/PenERC20V2.sol\":2975:2985  msg.sender */\n      caller\n        /* \"contracts/base/PenERC20V2.sol\":2960:2986  luckyDrawCount[msg.sender] */\n      0xffffffffffffffffffffffffffffffffffffffff\n      and\n      0xffffffffffffffffffffffffffffffffffffffff\n      and\n      dup2\n      mstore\n      0x20\n      add\n      swap1\n      dup2\n      mstore\n      0x20\n      add\n      0x00\n      keccak256\n        /* \"contracts/base/PenERC20V2.sol\":2960:2990  luckyDrawCount[msg.sender] = 0 */\n      dup2\n      swap1\n      sstore\n      pop\n        /* \"contracts/base/PenERC20V2.sol\":2858:3002  if (luckyDrawDate[msg.sender] < today) {\r... */\n    tag_140:\n        /* \"contracts/base/PenERC20V2.sol\":3051:3052  3 */\n      0x03\n        /* \"contracts/base/PenERC20V2.sol\":3022:3036  luckyDrawCount */\n      0x0a\n        /* \"contracts/base/PenERC20V2.sol\":3022:3048  luckyDrawCount[msg.sender] */\n      0x00\n        /* \"contracts/base/PenERC20V2.sol\":3037:3047  msg.sender */\n      caller\n        /* \"contracts/base/PenERC20V2.sol\":3022:3048  luckyDrawCount[msg.sender] */\n      0xffffffffffffffffffffffffffffffffffffffff\n      and\n      0xffffffffffffffffffffffffffffffffffffffff\n      and\n      dup2\n      mstore\n      0x20\n      add\n      swap1\n      dup2\n      mstore\n      0x20\n      add\n      0x00\n      keccak256\n      sload\n        /* \"contracts/base/PenERC20V2.sol\":3022:3052  luckyDrawCount[msg.sender] < 3 */\n      lt\n        /* \"contracts/base/PenERC20V2.sol\":3014:3076  require(luckyDrawCount[msg.sender] < 3, \"Max 3 draws per day\") */\n      tag_141\n      jumpi\n      mload(0x40)\n      0x08c379a000000000000000000000000000000000000000000000000000000000\n      dup2\n      mstore\n      0x04\n      add\n      tag_142\n      swap1\n      tag_143\n      jump\t// in\n    tag_142:\n      mload(0x40)\n      dup1\n      swap2\n      sub\n      swap1\n      revert\n    tag_141:\n        /* \"contracts/base/PenERC20V2.sol\":3160:3161  1 */\n      0x01\n        /* \"contracts/base/PenERC20V2.sol\":3130:3144  luckyDrawCount */\n      0x0a\n        /* \"contracts/base/PenERC20V2.sol\":3130:3156  luckyDrawCount[msg.sender] */\n      0x00\n        /* \"contracts/base/PenERC20V2.sol\":3145:3155  msg.sender */\n      caller\n        /* \"contracts/base/PenERC20V2.sol\":3130:3156  luckyDrawCount[msg.sender] */\n      0xffffffffffffffffffffffffffffffffffffffff\n      and\n      0xffffffffffffffffffffffffffffffffffffffff\n      and\n      dup2\n      mstore\n      0x20\n      add\n      swap1\n      dup2\n      mstore\n      0x20\n      add\n      0x00\n      keccak256\n      sload\n        /* \"contracts/base/PenERC20V2.sol\":3130:3161  luckyDrawCount[msg.sender] == 1 */\n      eq\n        /* \"contracts/base/PenERC20V2.sol\":3126:3766  if (luckyDrawCount[msg.sender] == 1) {\r... */\n      iszero\n      tag_144\n      jumpi\n        /* \"contracts/base/PenERC20V2.sol\":3205:3213  decimals */\n      0x05\n      0x00\n      swap1\n      sload\n      swap1\n      0x0100\n      exp\n      swap1\n      div\n      0xff\n      and\n        /* \"contracts/base/PenERC20V2.sol\":3197:3214  uint256(decimals) */\n      0xff\n      and\n        /* \"contracts/base/PenERC20V2.sol\":3191:3193  10 */\n      0x0a\n        /* \"contracts/base/PenERC20V2.sol\":3191:3214  10 ** uint256(decimals) */\n      tag_145\n      swap2\n      swap1\n      tag_146\n      jump\t// in\n    tag_145:\n        /* \"contracts/base/PenERC20V2.sol\":3185:3188  100 */\n      0x64\n        /* \"contracts/base/PenERC20V2.sol\":3185:3214  100 * 10 ** uint256(decimals) */\n      tag_147\n      swap2\n      swap1\n      tag_148\n      jump\t// in\n    tag_147:\n        /* \"contracts/base/PenERC20V2.sol\":3178:3214  cost = 100 * 10 ** uint256(decimals) */\n      swap1\n      pop\n        /* \"contracts/base/PenERC20V2.sol\":3262:3266  cost */\n      dup1\n        /* \"contracts/base/PenERC20V2.sol\":3237:3246  balanceOf */\n      0x00\n        /* \"contracts/base/PenERC20V2.sol\":3237:3258  balanceOf[msg.sender] */\n      dup1\n        /* \"contracts/base/PenERC20V2.sol\":3247:3257  msg.sender */\n      caller\n        /* \"contracts/base/PenERC20V2.sol\":3237:3258  balanceOf[msg.sender] */\n      0xffffffffffffffffffffffffffffffffffffffff\n      and\n      0xffffffffffffffffffffffffffffffffffffffff\n      and\n      dup2\n      mstore\n      0x20\n      add\n      swap1\n      dup2\n      mstore\n      0x20\n      add\n      0x00\n      keccak256\n      sload\n        /* \"contracts/base/PenERC20V2.sol\":3237:3266  balanceOf[msg.sender] >= cost */\n      lt\n      iszero\n        /* \"contracts/base/PenERC20V2.sol\":3229:3285  require(balanceOf[msg.sender] >= cost, \"Not enough PEN\") */\n      tag_149\n      jumpi\n      mload(0x40)\n      0x08c379a000000000000000000000000000000000000000000000000000000000\n      dup2\n      mstore\n      0x04\n      add\n      tag_150\n      swap1\n      tag_151\n      jump\t// in\n    tag_150:\n      mload(0x40)\n      dup1\n      swap2\n      sub\n      swap1\n      revert\n    tag_149:\n        /* \"contracts/base/PenERC20V2.sol\":3325:3329  cost */\n      dup1\n        /* \"contracts/base/PenERC20V2.sol\":3300:3309  balanceOf */\n      0x00\n        /* \"contracts/base/PenERC20V2.sol\":3300:3321  balanceOf[msg.sender] */\n      dup1\n        /* \"contracts/base/PenERC20V2.sol\":3310:3320  msg.sender */\n      caller\n        /* \"contracts/base/PenERC20V2.sol\":3300:3321  balanceOf[msg.sender] */\n      0xffffffffffffffffffffffffffffffffffffffff\n      and\n      0xffffffffffffffffffffffffffffffffffffffff\n      and\n      dup2\n      mstore\n      0x20\n      add\n      swap1\n      dup2\n      mstore\n      0x20\n      add\n      0x00\n      keccak256\n      0x00\n        /* \"contracts/base/PenERC20V2.sol\":3300:3329  balanceOf[msg.sender] -= cost */\n      dup3\n      dup3\n      sload\n      tag_152\n      swap2\n      swap1\n      tag_117\n      jump\t// in\n    tag_152:\n      swap3\n      pop\n      pop\n      dup2\n      swap1\n      sstore\n      pop\n        /* \"contracts/base/PenERC20V2.sol\":3359:3363  cost */\n      dup1\n        /* \"contracts/base/PenERC20V2.sol\":3344:3355  totalSupply */\n      0x02\n      0x00\n        /* \"contracts/base/PenERC20V2.sol\":3344:3363  totalSupply -= cost */\n      dup3\n      dup3\n      sload\n      tag_153\n      swap2\n      swap1\n      tag_117\n      jump\t// in\n    tag_153:\n      swap3\n      pop\n      pop\n      dup2\n      swap1\n      sstore\n      pop\n        /* \"contracts/base/PenERC20V2.sol\":3422:3423  0 */\n      0x00\n        /* \"contracts/base/PenERC20V2.sol\":3393:3431  Transfer(msg.sender, address(0), cost) */\n      0xffffffffffffffffffffffffffffffffffffffff\n      and\n        /* \"contracts/base/PenERC20V2.sol\":3402:3412  msg.sender */\n      caller\n        /* \"contracts/base/PenERC20V2.sol\":3393:3431  Transfer(msg.sender, address(0), cost) */\n      0xffffffffffffffffffffffffffffffffffffffff\n      and\n      0xddf252ad1be2c89b69c2b068fc378daa952ba7f163c4a11628f55a4df523b3ef\n        /* \"contracts/base/PenERC20V2.sol\":3426:3430  cost */\n      dup4\n        /* \"contracts/base/PenERC20V2.sol\":3393:3431  Transfer(msg.sender, address(0), cost) */\n      mload(0x40)\n      tag_154\n      swap2\n      swap1\n      tag_41\n      jump\t// in\n    tag_154:\n      mload(0x40)\n      dup1\n      swap2\n      sub\n      swap1\n      log3\n        /* \"contracts/base/PenERC20V2.sol\":3126:3766  if (luckyDrawCount[msg.sender] == 1) {\r... */\n      jump(tag_155)\n    tag_144:\n        /* \"contracts/base/PenERC20V2.sol\":3483:3484  2 */\n      0x02\n        /* \"contracts/base/PenERC20V2.sol\":3453:3467  luckyDrawCount */\n      0x0a\n        /* \"contracts/base/PenERC20V2.sol\":3453:3479  luckyDrawCount[msg.sender] */\n      0x00\n        /* \"contracts/base/PenERC20V2.sol\":3468:3478  msg.sender */\n      caller\n        /* \"contracts/base/PenERC20V2.sol\":3453:3479  luckyDrawCount[msg.sender] */\n      0xffffffffffffffffffffffffffffffffffffffff\n      and\n      0xffffffffffffffffffffffffffffffffffffffff\n      and\n      dup2\n      mstore\n      0x20\n      add\n      swap1\n      dup2\n      mstore\n      0x20\n      add\n      0x00\n      keccak256\n      sload\n        /* \"contracts/base/PenERC20V2.sol\":3453:3484  luckyDrawCount[msg.sender] == 2 */\n      eq\n        /* \"contracts/base/PenERC20V2.sol\":3449:3766  if (luckyDrawCount[msg.sender] == 2) {\r... */\n      iszero\n      tag_156\n      jumpi\n        /* \"contracts/base/PenERC20V2.sol\":3528:3536  decimals */\n      0x05\n      0x00\n      swap1\n      sload\n      swap1\n      0x0100\n      exp\n      swap1\n      div\n      0xff\n      and\n        /* \"contracts/base/PenERC20V2.sol\":3520:3537  uint256(decimals) */\n      0xff\n      and\n        /* \"contracts/base/PenERC20V2.sol\":3514:3516  10 */\n      0x0a\n        /* \"contracts/base/PenERC20V2.sol\":3514:3537  10 ** uint256(decimals) */\n      tag_157\n      swap2\n      swap1\n      tag_146\n      jump\t// in\n    tag_157:\n        /* \"contracts/base/PenERC20V2.sol\":3508:3511  200 */\n      0xc8\n        /* \"contracts/base/PenERC20V2.sol\":3508:3537  200 * 10 ** uint256(decimals) */\n      tag_158\n      swap2\n      swap1\n      tag_148\n      jump\t// in\n    tag_158:\n        /* \"contracts/base/PenERC20V2.sol\":3501:3537  cost = 200 * 10 ** uint256(decimals) */\n      swap1\n      pop\n        /* \"contracts/base/PenERC20V2.sol\":3585:3589  cost */\n      dup1\n        /* \"contracts/base/PenERC20V2.sol\":3560:3569  balanceOf */\n      0x00\n        /* \"contracts/base/PenERC20V2.sol\":3560:3581  balanceOf[msg.sender] */\n      dup1\n        /* \"contracts/base/PenERC20V2.sol\":3570:3580  msg.sender */\n      caller\n        /* \"contracts/base/PenERC20V2.sol\":3560:3581  balanceOf[msg.sender] */\n      0xffffffffffffffffffffffffffffffffffffffff\n      and\n      0xffffffffffffffffffffffffffffffffffffffff\n      and\n      dup2\n      mstore\n      0x20\n      add\n      swap1\n      dup2\n      mstore\n      0x20\n      add\n      0x00\n      keccak256\n      sload\n        /* \"contracts/base/PenERC20V2.sol\":3560:3589  balanceOf[msg.sender] >= cost */\n      lt\n      iszero\n        /* \"contracts/base/PenERC20V2.sol\":3552:3608  require(balanceOf[msg.sender] >= cost, \"Not enough PEN\") */\n      tag_159\n      jumpi\n      mload(0x40)\n      0x08c379a000000000000000000000000000000000000000000000000000000000\n      dup2\n      mstore\n      0x04\n      add\n      tag_160\n      swap1\n      tag_151\n      jump\t// in\n    tag_160:\n      mload(0x40)\n      dup1\n      swap2\n      sub\n      swap1\n      revert\n    tag_159:\n        /* \"contracts/base/PenERC20V2.sol\":3648:3652  cost */\n      dup1\n        /* \"contracts/base/PenERC20V2.sol\":3623:3632  balanceOf */\n      0x00\n        /* \"contracts/base/PenERC20V2.sol\":3623:3644  balanceOf[msg.sender] */\n      dup1\n        /* \"contracts/base/PenERC20V2.sol\":3633:3643  msg.sender */\n      caller\n        /* \"contracts/base/PenERC20V2.sol\":3623:3644  balanceOf[msg.sender] */\n      0xffffffffffffffffffffffffffffffffffffffff\n      and\n      0xffffffffffffffffffffffffffffffffffffffff\n      and\n      dup2\n      mstore\n      0x20\n      add\n      swap1\n      dup2\n      mstore\n      0x20\n      add\n      0x00\n      keccak256\n      0x00\n        /* \"contracts/base/PenERC20V2.sol\":3623:3652  balanceOf[msg.sender] -= cost */\n      dup3\n      dup3\n      sload\n      tag_161\n      swap2\n      swap1\n      tag_117\n      jump\t// in\n    tag_161:\n      swap3\n      pop\n      pop\n      dup2\n      swap1\n      sstore\n      pop\n        /* \"contracts/base/PenERC20V2.sol\":3682:3686  cost */\n      dup1\n        /* \"contracts/base/PenERC20V2.sol\":3667:3678  totalSupply */\n      0x02\n      0x00\n        /* \"contracts/base/PenERC20V2.sol\":3667:3686  totalSupply -= cost */\n      dup3\n      dup3\n      sload\n      tag_162\n      swap2\n      swap1\n      tag_117\n      jump\t// in\n    tag_162:\n      swap3\n      pop\n      pop\n      dup2\n      swap1\n      sstore\n      pop\n        /* \"contracts/base/PenERC20V2.sol\":3745:3746  0 */\n      0x00\n        /* \"contracts/base/PenERC20V2.sol\":3716:3754  Transfer(msg.sender, address(0), cost) */\n      0xffffffffffffffffffffffffffffffffffffffff\n      and\n        /* \"contracts/base/PenERC20V2.sol\":3725:3735  msg.sender */\n      caller\n        /* \"contracts/base/PenERC20V2.sol\":3716:3754  Transfer(msg.sender, address(0), cost) */\n      0xffffffffffffffffffffffffffffffffffffffff\n      and\n      0xddf252ad1be2c89b69c2b068fc378daa952ba7f163c4a11628f55a4df523b3ef\n        /* \"contracts/base/PenERC20V2.sol\":3749:3753  cost */\n      dup4\n        /* \"contracts/base/PenERC20V2.sol\":3716:3754  Transfer(msg.sender, address(0), cost) */\n      mload(0x40)\n      tag_163\n      swap2\n      swap1\n      tag_41\n      jump\t// in\n    tag_163:\n      mload(0x40)\n      dup1\n      swap2\n      sub\n      swap1\n      log3\n        /* \"contracts/base/PenERC20V2.sol\":3449:3766  if (luckyDrawCount[msg.sender] == 2) {\r... */\n    tag_156:\n        /* \"contracts/base/PenERC20V2.sol\":3126:3766  if (luckyDrawCount[msg.sender] == 1) {\r... */\n    tag_155:\n        /* \"contracts/base/PenERC20V2.sol\":3806:3807  1 */\n      0x01\n        /* \"contracts/base/PenERC20V2.sol\":3776:3790  luckyDrawCount */\n      0x0a\n        /* \"contracts/base/PenERC20V2.sol\":3776:3802  luckyDrawCount[msg.sender] */\n      0x00\n        /* \"contracts/base/PenERC20V2.sol\":3791:3801  msg.sender */\n      caller\n        /* \"contracts/base/PenERC20V2.sol\":3776:3802  luckyDrawCount[msg.sender] */\n      0xffffffffffffffffffffffffffffffffffffffff\n      and\n      0xffffffffffffffffffffffffffffffffffffffff\n      and\n      dup2\n      mstore\n      0x20\n      add\n      swap1\n      dup2\n      mstore\n      0x20\n      add\n      0x00\n      keccak256\n      0x00\n        /* \"contracts/base/PenERC20V2.sol\":3776:3807  luckyDrawCount[msg.sender] += 1 */\n      dup3\n      dup3\n      sload\n      tag_164\n      swap2\n      swap1\n      tag_119\n      jump\t// in\n    tag_164:\n      swap3\n      pop\n      pop\n      dup2\n      swap1\n      sstore\n      pop\n        /* \"contracts/base/PenERC20V2.sol\":3845:3854  uint code */\n      0x00\n        /* \"contracts/base/PenERC20V2.sol\":3879:3880  1 */\n      0x01\n        /* \"contracts/base/PenERC20V2.sol\":3873:3876  100 */\n      0x64\n        /* \"contracts/base/PenERC20V2.sol\":3858:3870  random(seed) */\n      tag_165\n        /* \"contracts/base/PenERC20V2.sol\":3865:3869  seed */\n      dup8\n        /* \"contracts/base/PenERC20V2.sol\":3858:3864  random */\n      tag_83\n        /* \"contracts/base/PenERC20V2.sol\":3858:3870  random(seed) */\n      jump\t// in\n    tag_165:\n        /* \"contracts/base/PenERC20V2.sol\":3858:3876  random(seed) % 100 */\n      tag_166\n      swap2\n      swap1\n      tag_167\n      jump\t// in\n    tag_166:\n        /* \"contracts/base/PenERC20V2.sol\":3858:3880  random(seed) % 100 + 1 */\n      tag_168\n      swap2\n      swap1\n      tag_119\n      jump\t// in\n    tag_168:\n        /* \"contracts/base/PenERC20V2.sol\":3845:3881  uint code = (random(seed) % 100 + 1) */\n      swap1\n      pop\n        /* \"contracts/base/PenERC20V2.sol\":3908:3909  1 */\n      0x01\n        /* \"contracts/base/PenERC20V2.sol\":3900:3904  code */\n      dup2\n        /* \"contracts/base/PenERC20V2.sol\":3900:3909  code <= 1 */\n      gt\n        /* \"contracts/base/PenERC20V2.sol\":3896:4511  if (code <= 1) {\r... */\n      tag_169\n      jumpi\n        /* \"contracts/base/PenERC20V2.sol\":3926:3942  reward = \"token\" */\n      mload(0x40)\n      dup1\n      0x40\n      add\n      0x40\n      mstore\n      dup1\n      0x05\n      dup2\n      mstore\n      0x20\n      add\n      0x746f6b656e000000000000000000000000000000000000000000000000000000\n      dup2\n      mstore\n      pop\n      swap4\n      pop\n        /* \"contracts/base/PenERC20V2.sol\":3896:4511  if (code <= 1) {\r... */\n      jump(tag_170)\n    tag_169:\n        /* \"contracts/base/PenERC20V2.sol\":3972:3973  5 */\n      0x05\n        /* \"contracts/base/PenERC20V2.sol\":3964:3968  code */\n      dup2\n        /* \"contracts/base/PenERC20V2.sol\":3964:3973  code <= 5 */\n      gt\n        /* \"contracts/base/PenERC20V2.sol\":3960:4511  if (code <= 5) {\r... */\n      tag_171\n      jumpi\n        /* \"contracts/base/PenERC20V2.sol\":3990:4006  reward = \"reset\" */\n      mload(0x40)\n      dup1\n      0x40\n      add\n      0x40\n      mstore\n      dup1\n      0x05\n      dup2\n      mstore\n      0x20\n      add\n      0x7265736574000000000000000000000000000000000000000000000000000000\n      dup2\n      mstore\n      pop\n      swap4\n      pop\n        /* \"contracts/base/PenERC20V2.sol\":4050:4051  0 */\n      0x00\n        /* \"contracts/base/PenERC20V2.sol\":4021:4035  luckyDrawCount */\n      0x0a\n        /* \"contracts/base/PenERC20V2.sol\":4021:4047  luckyDrawCount[msg.sender] */\n      0x00\n        /* \"contracts/base/PenERC20V2.sol\":4036:4046  msg.sender */\n      caller\n        /* \"contracts/base/PenERC20V2.sol\":4021:4047  luckyDrawCount[msg.sender] */\n      0xffffffffffffffffffffffffffffffffffffffff\n      and\n      0xffffffffffffffffffffffffffffffffffffffff\n      and\n      dup2\n      mstore\n      0x20\n      add\n      swap1\n      dup2\n      mstore\n      0x20\n      add\n      0x00\n      keccak256\n        /* \"contracts/base/PenERC20V2.sol\":4021:4051  luckyDrawCount[msg.sender] = 0 */\n      dup2\n      swap1\n      sstore\n      pop\n        /* \"contracts/base/PenERC20V2.sol\":3960:4511  if (code <= 5) {\r... */\n      jump(tag_172)\n    tag_171:\n        /* \"contracts/base/PenERC20V2.sol\":4081:4083  10 */\n      0x0a\n        /* \"contracts/base/PenERC20V2.sol\":4073:4077  code */\n      dup2\n        /* \"contracts/base/PenERC20V2.sol\":4073:4083  code <= 10 */\n      gt\n        /* \"contracts/base/PenERC20V2.sol\":4069:4511  if (code <= 10) {\r... */\n      tag_173\n      jumpi\n        /* \"contracts/base/PenERC20V2.sol\":4100:4118  reward = \"888 PEN\" */\n      mload(0x40)\n      dup1\n      0x40\n      add\n      0x40\n      mstore\n      dup1\n      0x07\n      dup2\n      mstore\n      0x20\n      add\n      0x3838382050454e00000000000000000000000000000000000000000000000000\n      dup2\n      mstore\n      pop\n      swap4\n      pop\n        /* \"contracts/base/PenERC20V2.sol\":4133:4180  mint(msg.sender, 888 * 10 ** uint256(decimals)) */\n      tag_174\n        /* \"contracts/base/PenERC20V2.sol\":4138:4148  msg.sender */\n      caller\n        /* \"contracts/base/PenERC20V2.sol\":4170:4178  decimals */\n      0x05\n      0x00\n      swap1\n      sload\n      swap1\n      0x0100\n      exp\n      swap1\n      div\n      0xff\n      and\n        /* \"contracts/base/PenERC20V2.sol\":4162:4179  uint256(decimals) */\n      0xff\n      and\n        /* \"contracts/base/PenERC20V2.sol\":4156:4158  10 */\n      0x0a\n        /* \"contracts/base/PenERC20V2.sol\":4156:4179  10 ** uint256(decimals) */\n      tag_175\n      swap2\n      swap1\n      tag_146\n      jump\t// in\n    tag_175:\n        /* \"contracts/base/PenERC20V2.sol\":4150:4153  888 */\n      0x0378\n        /* \"contracts/base/PenERC20V2.sol\":4150:4179  888 * 10 ** uint256(decimals) */\n      tag_176\n      swap2\n      swap1\n      tag_148\n      jump\t// in\n    tag_176:\n        /* \"contracts/base/PenERC20V2.sol\":4133:4137  mint */\n      tag_177\n        /* \"contracts/base/PenERC20V2.sol\":4133:4180  mint(msg.sender, 888 * 10 ** uint256(decimals)) */\n      jump\t// in\n    tag_174:\n        /* \"contracts/base/PenERC20V2.sol\":4069:4511  if (code <= 10) {\r... */\n      jump(tag_178)\n    tag_173:\n        /* \"contracts/base/PenERC20V2.sol\":4210:4212  20 */\n      0x14\n        /* \"contracts/base/PenERC20V2.sol\":4202:4206  code */\n      dup2\n        /* \"contracts/base/PenERC20V2.sol\":4202:4212  code <= 20 */\n      gt\n        /* \"contracts/base/PenERC20V2.sol\":4198:4511  if (code <= 20) {\r... */\n      tag_179\n      jumpi\n        /* \"contracts/base/PenERC20V2.sol\":4229:4247  reward = \"nothing\" */\n      mload(0x40)\n      dup1\n      0x40\n      add\n      0x40\n      mstore\n      dup1\n      0x07\n      dup2\n      mstore\n      0x20\n      add\n      0x6e6f7468696e6700000000000000000000000000000000000000000000000000\n      dup2\n      mstore\n      pop\n      swap4\n      pop\n        /* \"contracts/base/PenERC20V2.sol\":4198:4511  if (code <= 20) {\r... */\n      jump(tag_180)\n    tag_179:\n        /* \"contracts/base/PenERC20V2.sol\":4277:4279  50 */\n      0x32\n        /* \"contracts/base/PenERC20V2.sol\":4269:4273  code */\n      dup2\n        /* \"contracts/base/PenERC20V2.sol\":4269:4279  code <= 50 */\n      gt\n        /* \"contracts/base/PenERC20V2.sol\":4265:4511  if (code <= 50) {\r... */\n      tag_181\n      jumpi\n        /* \"contracts/base/PenERC20V2.sol\":4296:4314  reward = \"200 PEN\" */\n      mload(0x40)\n      dup1\n      0x40\n      add\n      0x40\n      mstore\n      dup1\n      0x07\n      dup2\n      mstore\n      0x20\n      add\n      0x3230302050454e00000000000000000000000000000000000000000000000000\n      dup2\n      mstore\n      pop\n      swap4\n      pop\n        /* \"contracts/base/PenERC20V2.sol\":4329:4376  mint(msg.sender, 200 * 10 ** uint256(decimals)) */\n      tag_182\n        /* \"contracts/base/PenERC20V2.sol\":4334:4344  msg.sender */\n      caller\n        /* \"contracts/base/PenERC20V2.sol\":4366:4374  decimals */\n      0x05\n      0x00\n      swap1\n      sload\n      swap1\n      0x0100\n      exp\n      swap1\n      div\n      0xff\n      and\n        /* \"contracts/base/PenERC20V2.sol\":4358:4375  uint256(decimals) */\n      0xff\n      and\n        /* \"contracts/base/PenERC20V2.sol\":4352:4354  10 */\n      0x0a\n        /* \"contracts/base/PenERC20V2.sol\":4352:4375  10 ** uint256(decimals) */\n      tag_183\n      swap2\n      swap1\n      tag_146\n      jump\t// in\n    tag_183:\n        /* \"contracts/base/PenERC20V2.sol\":4346:4349  200 */\n      0xc8\n        /* \"contracts/base/PenERC20V2.sol\":4346:4375  200 * 10 ** uint256(decimals) */\n      tag_184\n      swap2\n      swap1\n      tag_148\n      jump\t// in\n    tag_184:\n        /* \"contracts/base/PenERC20V2.sol\":4329:4333  mint */\n      tag_177\n        /* \"contracts/base/PenERC20V2.sol\":4329:4376  mint(msg.sender, 200 * 10 ** uint256(decimals)) */\n      jump\t// in\n    tag_182:\n        /* \"contracts/base/PenERC20V2.sol\":4265:4511  if (code <= 50) {\r... */\n      jump(tag_185)\n    tag_181:\n        /* \"contracts/base/PenERC20V2.sol\":4409:4427  reward = \"100 PEN\" */\n      mload(0x40)\n      dup1\n      0x40\n      add\n      0x40\n      mstore\n      dup1\n      0x07\n      dup2\n      mstore\n      0x20\n      add\n      0x3130302050454e00000000000000000000000000000000000000000000000000\n      dup2\n      mstore\n      pop\n      swap4\n      pop\n        /* \"contracts/base/PenERC20V2.sol\":4452:4499  mint(msg.sender, 100 * 10 ** uint256(decimals)) */\n      tag_186\n        /* \"contracts/base/PenERC20V2.sol\":4457:4467  msg.sender */\n      caller\n        /* \"contracts/base/PenERC20V2.sol\":4489:4497  decimals */\n      0x05\n      0x00\n      swap1\n      sload\n      swap1\n      0x0100\n      exp\n      swap1\n      div\n      0xff\n      and\n        /* \"contracts/base/PenERC20V2.sol\":4481:4498  uint256(decimals) */\n      0xff\n      and\n        /* \"contracts/base/PenERC20V2.sol\":4475:4477  10 */\n      0x0a\n        /* \"contracts/base/PenERC20V2.sol\":4475:4498  10 ** uint256(decimals) */\n      tag_187\n      swap2\n      swap1\n      tag_146\n      jump\t// in\n    tag_187:\n        /* \"contracts/base/PenERC20V2.sol\":4469:4472  100 */\n      0x64\n        /* \"contracts/base/PenERC20V2.sol\":4469:4498  100 * 10 ** uint256(decimals) */\n      tag_188\n      swap2\n      swap1\n      tag_148\n      jump\t// in\n    tag_188:\n        /* \"contracts/base/PenERC20V2.sol\":4452:4456  mint */\n      tag_177\n        /* \"contracts/base/PenERC20V2.sol\":4452:4499  mint(msg.sender, 100 * 10 ** uint256(decimals)) */\n      jump\t// in\n    tag_186:\n        /* \"contracts/base/PenERC20V2.sol\":4265:4511  if (code <= 50) {\r... */\n    tag_185:\n        /* \"contracts/base/PenERC20V2.sol\":4198:4511  if (code <= 20) {\r... */\n    tag_180:\n        /* \"contracts/base/PenERC20V2.sol\":4069:4511  if (code <= 10) {\r... */\n    tag_178:\n        /* \"contracts/base/PenERC20V2.sol\":3960:4511  if (code <= 5) {\r... */\n    tag_172:\n        /* \"contracts/base/PenERC20V2.sol\":3896:4511  if (code <= 1) {\r... */\n    tag_170:\n        /* \"contracts/base/PenERC20V2.sol\":4538:4548  msg.sender */\n      caller\n        /* \"contracts/base/PenERC20V2.sol\":4528:4563  LuckyDraw(msg.sender, reward, cost) */\n      0xffffffffffffffffffffffffffffffffffffffff\n      and\n      0x76775f6fd80273d051ffb53fcafdf73d3f7933b79207e60a978184a1fb72b32d\n        /* \"contracts/base/PenERC20V2.sol\":4550:4556  reward */\n      dup6\n        /* \"contracts/base/PenERC20V2.sol\":4558:4562  cost */\n      dup5\n        /* \"contracts/base/PenERC20V2.sol\":4528:4563  LuckyDraw(msg.sender, reward, cost) */\n      mload(0x40)\n      tag_189\n      swap3\n      swap2\n      swap1\n      tag_190\n      jump\t// in\n    tag_189:\n      mload(0x40)\n      dup1\n      swap2\n      sub\n      swap1\n      log2\n        /* \"contracts/base/PenERC20V2.sol\":2630:4571  function luckyDraw(uint seed) external returns (string memory reward) {\r... */\n      pop\n      pop\n      pop\n      swap2\n      swap1\n      pop\n      jump\t// out\n        /* \"contracts/base/ERC20.sol\":131:184  mapping(address => uint256) public override balanceOf */\n    tag_68:\n      mstore(0x20, 0x00)\n      dup1\n      0x00\n      mstore\n      keccak256(0x00, 0x40)\n      0x00\n      swap2\n      pop\n      swap1\n      pop\n      sload\n      dup2\n      jump\t// out\n        /* \"contracts/base/PenERC20V2.sol\":2177:2226  mapping(address => uint256) public luckyDrawCount */\n    tag_72:\n      mstore(0x20, 0x0a)\n      dup1\n      0x00\n      mstore\n      keccak256(0x00, 0x40)\n      0x00\n      swap2\n      pop\n      swap1\n      pop\n      sload\n      dup2\n      jump\t// out\n        /* \"contracts/base/ERC20.sol\":340:360  string public symbol */\n    tag_75:\n      0x04\n      dup1\n      sload\n      tag_191\n      swap1\n      tag_108\n      jump\t// in\n    tag_191:\n      dup1\n      0x1f\n      add\n      0x20\n      dup1\n      swap2\n      div\n      mul\n      0x20\n      add\n      mload(0x40)\n      swap1\n      dup2\n      add\n      0x40\n      mstore\n      dup1\n      swap3\n      swap2\n      swap1\n      dup2\n      dup2\n      mstore\n      0x20\n      add\n      dup3\n      dup1\n      sload\n      tag_192\n      swap1\n      tag_108\n      jump\t// in\n    tag_192:\n      dup1\n      iszero\n      tag_193\n      jumpi\n      dup1\n      0x1f\n      lt\n      tag_194\n      jumpi\n      0x0100\n      dup1\n      dup4\n      sload\n      div\n      mul\n      dup4\n      mstore\n      swap2\n      0x20\n      add\n      swap2\n      jump(tag_193)\n    tag_194:\n      dup3\n      add\n      swap2\n      swap1\n      0x00\n      mstore\n      keccak256(0x00, 0x20)\n      swap1\n    tag_195:\n      dup2\n      sload\n      dup2\n      mstore\n      swap1\n      0x01\n      add\n      swap1\n      0x20\n      add\n      dup1\n      dup4\n      gt\n      tag_195\n      jumpi\n      dup3\n      swap1\n      sub\n      0x1f\n      and\n      dup3\n      add\n      swap2\n    tag_193:\n      pop\n      pop\n      pop\n      pop\n      pop\n      dup2\n      jump\t// out\n        /* \"contracts/base/ERC20.sol\":699:861  function transfer(address recipient, uint amount) public override returns (bool) {\r... */\n    tag_79:\n        /* \"contracts/base/ERC20.sol\":774:778  bool */\n      0x00\n        /* \"contracts/base/ERC20.sol\":791:831  _transfer(msg.sender, recipient, amount) */\n      tag_197\n        /* \"contracts/base/ERC20.sol\":801:811  msg.sender */\n      caller\n        /* \"contracts/base/ERC20.sol\":813:822  recipient */\n      dup5\n        /* \"contracts/base/ERC20.sol\":824:830  amount */\n      dup5\n        /* \"contracts/base/ERC20.sol\":791:800  _transfer */\n      tag_129\n        /* \"contracts/base/ERC20.sol\":791:831  _transfer(msg.sender, recipient, amount) */\n      jump\t// in\n    tag_197:\n        /* \"contracts/base/ERC20.sol\":849:853  true */\n      0x01\n        /* \"contracts/base/ERC20.sol\":842:853  return true */\n      swap1\n      pop\n        /* \"contracts/base/ERC20.sol\":699:861  function transfer(address recipient, uint amount) public override returns (bool) {\r... */\n      swap3\n      swap2\n      pop\n      pop\n      jump\t// out\n        /* \"contracts/base/PenERC20V2.sol\":4579:4769  function random(uint seed) public view returns (uint) {\r... */\n    tag_83:\n        /* \"contracts/base/PenERC20V2.sol\":4627:4631  uint */\n      0x00\n        /* \"contracts/base/PenERC20V2.sol\":4697:4712  block.timestamp */\n      timestamp\n        /* \"contracts/base/PenERC20V2.sol\":4714:4730  block.difficulty */\n      difficulty\n        /* \"contracts/base/PenERC20V2.sol\":4732:4742  msg.sender */\n      caller\n        /* \"contracts/base/PenERC20V2.sol\":4744:4748  seed */\n      dup5\n        /* \"contracts/base/PenERC20V2.sol\":4680:4749  abi.encodePacked(block.timestamp, block.difficulty, msg.sender, seed) */\n      add(0x20, mload(0x40))\n      tag_199\n      swap5\n      swap4\n      swap3\n      swap2\n      swap1\n      tag_200\n      jump\t// in\n    tag_199:\n      mload(0x40)\n      0x20\n      dup2\n      dup4\n      sub\n      sub\n      dup2\n      mstore\n      swap1\n      0x40\n      mstore\n        /* \"contracts/base/PenERC20V2.sol\":4656:4760  keccak256(\r... */\n      dup1\n      mload\n      swap1\n      0x20\n      add\n      keccak256\n        /* \"contracts/base/PenERC20V2.sol\":4651:4761  uint(keccak256(\r... */\n      0x00\n      shr\n        /* \"contracts/base/PenERC20V2.sol\":4644:4761  return uint(keccak256(\r... */\n      swap1\n      pop\n        /* \"contracts/base/PenERC20V2.sol\":4579:4769  function random(uint seed) public view returns (uint) {\r... */\n      swap2\n      swap1\n      pop\n      jump\t// out\n        /* \"contracts/base/PenERC20V2.sol\":687:1448  function checkin() external returns (uint256 reward) {\r... */\n    tag_86:\n        /* \"contracts/base/PenERC20V2.sol\":724:738  uint256 reward */\n      0x00\n        /* \"contracts/base/PenERC20V2.sol\":786:799  uint256 today */\n      dup1\n        /* \"contracts/base/PenERC20V2.sol\":832:838  1 days */\n      0x015180\n        /* \"contracts/base/PenERC20V2.sol\":821:828  8 hours */\n      0x7080\n        /* \"contracts/base/PenERC20V2.sol\":803:818  block.timestamp */\n      timestamp\n        /* \"contracts/base/PenERC20V2.sol\":803:828  block.timestamp + 8 hours */\n      tag_202\n      swap2\n      swap1\n      tag_119\n      jump\t// in\n    tag_202:\n        /* \"contracts/base/PenERC20V2.sol\":802:838  (block.timestamp + 8 hours) / 1 days */\n      tag_203\n      swap2\n      swap1\n      tag_121\n      jump\t// in\n    tag_203:\n        /* \"contracts/base/PenERC20V2.sol\":786:838  uint256 today = (block.timestamp + 8 hours) / 1 days */\n      swap1\n      pop\n        /* \"contracts/base/PenERC20V2.sol\":885:890  today */\n      dup1\n        /* \"contracts/base/PenERC20V2.sol\":859:870  checkinDate */\n      0x06\n        /* \"contracts/base/PenERC20V2.sol\":859:882  checkinDate[msg.sender] */\n      0x00\n        /* \"contracts/base/PenERC20V2.sol\":871:881  msg.sender */\n      caller\n        /* \"contracts/base/PenERC20V2.sol\":859:882  checkinDate[msg.sender] */\n      0xffffffffffffffffffffffffffffffffffffffff\n      and\n      0xffffffffffffffffffffffffffffffffffffffff\n      and\n      dup2\n      mstore\n      0x20\n      add\n      swap1\n      dup2\n      mstore\n      0x20\n      add\n      0x00\n      keccak256\n      sload\n        /* \"contracts/base/PenERC20V2.sol\":859:890  checkinDate[msg.sender] < today */\n      lt\n        /* \"contracts/base/PenERC20V2.sol\":851:919  require(checkinDate[msg.sender] < today, \"Already checked in today\") */\n      tag_204\n      jumpi\n      mload(0x40)\n      0x08c379a000000000000000000000000000000000000000000000000000000000\n      dup2\n      mstore\n      0x04\n      add\n      tag_205\n      swap1\n      tag_206\n      jump\t// in\n    tag_205:\n      mload(0x40)\n      dup1\n      swap2\n      sub\n      swap1\n      revert\n    tag_204:\n        /* \"contracts/base/PenERC20V2.sol\":971:972  1 */\n      0x01\n        /* \"contracts/base/PenERC20V2.sol\":963:968  today */\n      dup2\n        /* \"contracts/base/PenERC20V2.sol\":963:972  today - 1 */\n      tag_207\n      swap2\n      swap1\n      tag_117\n      jump\t// in\n    tag_207:\n        /* \"contracts/base/PenERC20V2.sol\":936:947  checkinDate */\n      0x06\n        /* \"contracts/base/PenERC20V2.sol\":936:959  checkinDate[msg.sender] */\n      0x00\n        /* \"contracts/base/PenERC20V2.sol\":948:958  msg.sender */\n      caller\n        /* \"contracts/base/PenERC20V2.sol\":936:959  checkinDate[msg.sender] */\n      0xffffffffffffffffffffffffffffffffffffffff\n      and\n      0xffffffffffffffffffffffffffffffffffffffff\n      and\n      dup2\n      mstore\n      0x20\n      add\n      swap1\n      dup2\n      mstore\n      0x20\n      add\n      0x00\n      keccak256\n      sload\n        /* \"contracts/base/PenERC20V2.sol\":936:972  checkinDate[msg.sender] == today - 1 */\n      eq\n        /* \"contracts/base/PenERC20V2.sol\":932:1158  if (checkinDate[msg.sender] == today - 1) {\r... */\n      iszero\n      tag_208\n      jumpi\n        /* \"contracts/base/PenERC20V2.sol\":1047:1048  1 */\n      0x01\n        /* \"contracts/base/PenERC20V2.sol\":1018:1031  checkinStreak */\n      0x07\n        /* \"contracts/base/PenERC20V2.sol\":1018:1043  checkinStreak[msg.sender] */\n      0x00\n        /* \"contracts/base/PenERC20V2.sol\":1032:1042  msg.sender */\n      caller\n        /* \"contracts/base/PenERC20V2.sol\":1018:1043  checkinStreak[msg.sender] */\n      0xffffffffffffffffffffffffffffffffffffffff\n      and\n      0xffffffffffffffffffffffffffffffffffffffff\n      and\n      dup2\n      mstore\n      0x20\n      add\n      swap1\n      dup2\n      mstore\n      0x20\n      add\n      0x00\n      keccak256\n      0x00\n        /* \"contracts/base/PenERC20V2.sol\":1018:1048  checkinStreak[msg.sender] += 1 */\n      dup3\n      dup3\n      sload\n      tag_209\n      swap2\n      swap1\n      tag_119\n      jump\t// in\n    tag_209:\n      swap3\n      pop\n      pop\n      dup2\n      swap1\n      sstore\n      pop\n        /* \"contracts/base/PenERC20V2.sol\":932:1158  if (checkinDate[msg.sender] == today - 1) {\r... */\n      jump(tag_210)\n    tag_208:\n        /* \"contracts/base/PenERC20V2.sol\":1145:1146  1 */\n      0x01\n        /* \"contracts/base/PenERC20V2.sol\":1117:1130  checkinStreak */\n      0x07\n        /* \"contracts/base/PenERC20V2.sol\":1117:1142  checkinStreak[msg.sender] */\n      0x00\n        /* \"contracts/base/PenERC20V2.sol\":1131:1141  msg.sender */\n      caller\n        /* \"contracts/base/PenERC20V2.sol\":1117:1142  checkinStreak[msg.sender] */\n      0xffffffffffffffffffffffffffffffffffffffff\n      and\n      0xffffffffffffffffffffffffffffffffffffffff\n      and\n      dup2\n      mstore\n      0x20\n      add\n      swap1\n      dup2\n      mstore\n      0x20\n      add\n      0x00\n      keccak256\n        /* \"contracts/base/PenERC20V2.sol\":1117:1146  checkinStreak[msg.sender] = 1 */\n      dup2\n      swap1\n      sstore\n      pop\n        /* \"contracts/base/PenERC20V2.sol\":932:1158  if (checkinDate[msg.sender] == today - 1) {\r... */\n    tag_210:\n        /* \"contracts/base/PenERC20V2.sol\":1234:1252  getCheckinReward() */\n      tag_211\n        /* \"contracts/base/PenERC20V2.sol\":1234:1250  getCheckinReward */\n      tag_101\n        /* \"contracts/base/PenERC20V2.sol\":1234:1252  getCheckinReward() */\n      jump\t// in\n    tag_211:\n        /* \"contracts/base/PenERC20V2.sol\":1225:1252  reward = getCheckinReward() */\n      swap2\n      pop\n        /* \"contracts/base/PenERC20V2.sol\":1328:1333  today */\n      dup1\n        /* \"contracts/base/PenERC20V2.sol\":1302:1313  checkinDate */\n      0x06\n        /* \"contracts/base/PenERC20V2.sol\":1302:1325  checkinDate[msg.sender] */\n      0x00\n        /* \"contracts/base/PenERC20V2.sol\":1314:1324  msg.sender */\n      caller\n        /* \"contracts/base/PenERC20V2.sol\":1302:1325  checkinDate[msg.sender] */\n      0xffffffffffffffffffffffffffffffffffffffff\n      and\n      0xffffffffffffffffffffffffffffffffffffffff\n      and\n      dup2\n      mstore\n      0x20\n      add\n      swap1\n      dup2\n      mstore\n      0x20\n      add\n      0x00\n      keccak256\n        /* \"contracts/base/PenERC20V2.sol\":1302:1333  checkinDate[msg.sender] = today */\n      dup2\n      swap1\n      sstore\n      pop\n        /* \"contracts/base/PenERC20V2.sol\":1344:1368  mint(msg.sender, reward) */\n      tag_212\n        /* \"contracts/base/PenERC20V2.sol\":1349:1359  msg.sender */\n      caller\n        /* \"contracts/base/PenERC20V2.sol\":1361:1367  reward */\n      dup4\n        /* \"contracts/base/PenERC20V2.sol\":1344:1348  mint */\n      tag_177\n        /* \"contracts/base/PenERC20V2.sol\":1344:1368  mint(msg.sender, reward) */\n      jump\t// in\n    tag_212:\n        /* \"contracts/base/PenERC20V2.sol\":1394:1404  msg.sender */\n      caller\n        /* \"contracts/base/PenERC20V2.sol\":1386:1440  Checkin(msg.sender, reward, checkinStreak[msg.sender]) */\n      0xffffffffffffffffffffffffffffffffffffffff\n      and\n      0xb1ea073ac09a6b73cc1842f3dbda1736e0c0d94b33aac1983f2612a5d115b4c7\n        /* \"contracts/base/PenERC20V2.sol\":1406:1412  reward */\n      dup4\n        /* \"contracts/base/PenERC20V2.sol\":1414:1427  checkinStreak */\n      0x07\n        /* \"contracts/base/PenERC20V2.sol\":1414:1439  checkinStreak[msg.sender] */\n      0x00\n        /* \"contracts/base/PenERC20V2.sol\":1428:1438  msg.sender */\n      caller\n        /* \"contracts/base/PenERC20V2.sol\":1414:1439  checkinStreak[msg.sender] */\n      0xffffffffffffffffffffffffffffffffffffffff\n      and\n      0xffffffffffffffffffffffffffffffffffffffff\n      and\n      dup2\n      mstore\n      0x20\n      add\n      swap1\n      dup2\n      mstore\n      0x20\n      add\n      0x00\n      keccak256\n      sload\n        /* \"contracts/base/PenERC20V2.sol\":1386:1440  Checkin(msg.sender, reward, checkinStreak[msg.sender]) */\n      mload(0x40)\n      tag_213\n      swap3\n      swap2\n      swap1\n      tag_214\n      jump\t// in\n    tag_213:\n      mload(0x40)\n      dup1\n      swap2\n      sub\n      swap1\n      log2\n        /* \"contracts/base/PenERC20V2.sol\":687:1448  function checkin() external returns (uint256 reward) {\r... */\n      pop\n      swap1\n      jump\t// out\n        /* \"contracts/base/PenERC20V2.sol\":390:422  uint256 public checkinBase = 100 */\n    tag_89:\n      sload(0x08)\n      dup2\n      jump\t// out\n        /* \"contracts/base/PenERC20V2.sol\":2098:2146  mapping(address => uint256) public luckyDrawDate */\n    tag_93:\n      mstore(0x20, 0x09)\n      dup1\n      0x00\n      mstore\n      keccak256(0x00, 0x40)\n      0x00\n      swap2\n      pop\n      swap1\n      pop\n      sload\n      dup2\n      jump\t// out\n        /* \"contracts/base/ERC20.sol\":191:264  mapping(address => mapping(address => uint256)) public override allowance */\n    tag_98:\n      mstore(0x20, 0x01)\n      dup2\n      0x00\n      mstore\n      mstore(0x20, keccak256(0x00, 0x40))\n      dup1\n      0x00\n      mstore\n      keccak256(0x00, 0x40)\n      0x00\n      swap2\n      pop\n      swap2\n      pop\n      pop\n      sload\n      dup2\n      jump\t// out\n        /* \"contracts/base/PenERC20V2.sol\":1456:1988  function getCheckinReward() public view returns (uint256) {\r... */\n    tag_101:\n        /* \"contracts/base/PenERC20V2.sol\":1505:1512  uint256 */\n      0x00\n        /* \"contracts/base/PenERC20V2.sol\":1525:1536  uint256 res */\n      dup1\n        /* \"contracts/base/PenERC20V2.sol\":1539:1540  1 */\n      0x01\n        /* \"contracts/base/PenERC20V2.sol\":1525:1540  uint256 res = 1 */\n      swap1\n      pop\n        /* \"contracts/base/PenERC20V2.sol\":1582:1583  0 */\n      0x00\n        /* \"contracts/base/PenERC20V2.sol\":1555:1566  checkinDate */\n      0x06\n        /* \"contracts/base/PenERC20V2.sol\":1555:1578  checkinDate[msg.sender] */\n      0x00\n        /* \"contracts/base/PenERC20V2.sol\":1567:1577  msg.sender */\n      caller\n        /* \"contracts/base/PenERC20V2.sol\":1555:1578  checkinDate[msg.sender] */\n      0xffffffffffffffffffffffffffffffffffffffff\n      and\n      0xffffffffffffffffffffffffffffffffffffffff\n      and\n      dup2\n      mstore\n      0x20\n      add\n      swap1\n      dup2\n      mstore\n      0x20\n      add\n      0x00\n      keccak256\n      sload\n        /* \"contracts/base/PenERC20V2.sol\":1555:1583  checkinDate[msg.sender] == 0 */\n      eq\n        /* \"contracts/base/PenERC20V2.sol\":1551:1620  if (checkinDate[msg.sender] == 0) {\r... */\n      iszero\n      tag_216\n      jumpi\n        /* \"contracts/base/PenERC20V2.sol\":1607:1608  9 */\n      0x09\n        /* \"contracts/base/PenERC20V2.sol\":1600:1608  res += 9 */\n      dup2\n      tag_217\n      swap2\n      swap1\n      tag_119\n      jump\t// in\n    tag_217:\n      swap1\n      pop\n        /* \"contracts/base/PenERC20V2.sol\":1551:1620  if (checkinDate[msg.sender] == 0) {\r... */\n    tag_216:\n        /* \"contracts/base/PenERC20V2.sol\":1665:1666  0 */\n      0x00\n        /* \"contracts/base/PenERC20V2.sol\":1660:1661  5 */\n      0x05\n        /* \"contracts/base/PenERC20V2.sol\":1634:1647  checkinStreak */\n      0x07\n        /* \"contracts/base/PenERC20V2.sol\":1634:1659  checkinStreak[msg.sender] */\n      0x00\n        /* \"contracts/base/PenERC20V2.sol\":1648:1658  msg.sender */\n      caller\n        /* \"contracts/base/PenERC20V2.sol\":1634:1659  checkinStreak[msg.sender] */\n      0xffffffffffffffffffffffffffffffffffffffff\n      and\n      0xffffffffffffffffffffffffffffffffffffffff\n      and\n      dup2\n      mstore\n      0x20\n      add\n      swap1\n      dup2\n      mstore\n      0x20\n      add\n      0x00\n      keccak256\n      sload\n        /* \"contracts/base/PenERC20V2.sol\":1634:1661  checkinStreak[msg.sender]%5 */\n      tag_218\n      swap2\n      swap1\n      tag_167\n      jump\t// in\n    tag_218:\n        /* \"contracts/base/PenERC20V2.sol\":1634:1666  checkinStreak[msg.sender]%5 == 0 */\n      eq\n        /* \"contracts/base/PenERC20V2.sol\":1634:1698  checkinStreak[msg.sender]%5 == 0 && checkinDate[msg.sender] != 0 */\n      dup1\n      iszero\n      tag_219\n      jumpi\n      pop\n        /* \"contracts/base/PenERC20V2.sol\":1697:1698  0 */\n      0x00\n        /* \"contracts/base/PenERC20V2.sol\":1670:1681  checkinDate */\n      0x06\n        /* \"contracts/base/PenERC20V2.sol\":1670:1693  checkinDate[msg.sender] */\n      0x00\n        /* \"contracts/base/PenERC20V2.sol\":1682:1692  msg.sender */\n      caller\n        /* \"contracts/base/PenERC20V2.sol\":1670:1693  checkinDate[msg.sender] */\n      0xffffffffffffffffffffffffffffffffffffffff\n      and\n      0xffffffffffffffffffffffffffffffffffffffff\n      and\n      dup2\n      mstore\n      0x20\n      add\n      swap1\n      dup2\n      mstore\n      0x20\n      add\n      0x00\n      keccak256\n      sload\n        /* \"contracts/base/PenERC20V2.sol\":1670:1698  checkinDate[msg.sender] != 0 */\n      eq\n      iszero\n        /* \"contracts/base/PenERC20V2.sol\":1634:1698  checkinStreak[msg.sender]%5 == 0 && checkinDate[msg.sender] != 0 */\n    tag_219:\n        /* \"contracts/base/PenERC20V2.sol\":1630:1735  if (checkinStreak[msg.sender]%5 == 0 && checkinDate[msg.sender] != 0) {\r... */\n      iszero\n      tag_220\n      jumpi\n        /* \"contracts/base/PenERC20V2.sol\":1722:1723  1 */\n      0x01\n        /* \"contracts/base/PenERC20V2.sol\":1715:1723  res += 1 */\n      dup2\n      tag_221\n      swap2\n      swap1\n      tag_119\n      jump\t// in\n    tag_221:\n      swap1\n      pop\n        /* \"contracts/base/PenERC20V2.sol\":1630:1735  if (checkinStreak[msg.sender]%5 == 0 && checkinDate[msg.sender] != 0) {\r... */\n    tag_220:\n        /* \"contracts/base/PenERC20V2.sol\":1745:1758  uint256 today */\n      0x00\n        /* \"contracts/base/PenERC20V2.sol\":1791:1797  1 days */\n      0x015180\n        /* \"contracts/base/PenERC20V2.sol\":1780:1787  8 hours */\n      0x7080\n        /* \"contracts/base/PenERC20V2.sol\":1762:1777  block.timestamp */\n      timestamp\n        /* \"contracts/base/PenERC20V2.sol\":1762:1787  block.timestamp + 8 hours */\n      tag_222\n      swap2\n      swap1\n      tag_119\n      jump\t// in\n    tag_222:\n        /* \"contracts/base/PenERC20V2.sol\":1761:1797  (block.timestamp + 8 hours) / 1 days */\n      tag_223\n      swap2\n      swap1\n      tag_121\n      jump\t// in\n    tag_223:\n        /* \"contracts/base/PenERC20V2.sol\":1745:1797  uint256 today = (block.timestamp + 8 hours) / 1 days */\n      swap1\n      pop\n        /* \"contracts/base/PenERC20V2.sol\":1808:1823  uint256 weekday */\n      0x00\n        /* \"contracts/base/PenERC20V2.sol\":1840:1841  7 */\n      0x07\n        /* \"contracts/base/PenERC20V2.sol\":1835:1836  4 */\n      0x04\n        /* \"contracts/base/PenERC20V2.sol\":1827:1832  today */\n      dup4\n        /* \"contracts/base/PenERC20V2.sol\":1827:1836  today + 4 */\n      tag_224\n      swap2\n      swap1\n      tag_119\n      jump\t// in\n    tag_224:\n        /* \"contracts/base/PenERC20V2.sol\":1826:1841  (today + 4) % 7 */\n      tag_225\n      swap2\n      swap1\n      tag_167\n      jump\t// in\n    tag_225:\n        /* \"contracts/base/PenERC20V2.sol\":1808:1841  uint256 weekday = (today + 4) % 7 */\n      swap1\n      pop\n        /* \"contracts/base/PenERC20V2.sol\":1867:1868  0 */\n      0x00\n        /* \"contracts/base/PenERC20V2.sol\":1856:1863  weekday */\n      dup2\n        /* \"contracts/base/PenERC20V2.sol\":1856:1868  weekday == 0 */\n      eq\n        /* \"contracts/base/PenERC20V2.sol\":1852:1905  if (weekday == 0) {\r... */\n      iszero\n      tag_226\n      jumpi\n        /* \"contracts/base/PenERC20V2.sol\":1892:1893  1 */\n      0x01\n        /* \"contracts/base/PenERC20V2.sol\":1885:1893  res += 1 */\n      dup4\n      tag_227\n      swap2\n      swap1\n      tag_119\n      jump\t// in\n    tag_227:\n      swap3\n      pop\n        /* \"contracts/base/PenERC20V2.sol\":1852:1905  if (weekday == 0) {\r... */\n    tag_226:\n        /* \"contracts/base/PenERC20V2.sol\":1950:1958  decimals */\n      0x05\n      0x00\n      swap1\n      sload\n      swap1\n      0x0100\n      exp\n      swap1\n      div\n      0xff\n      and\n        /* \"contracts/base/PenERC20V2.sol\":1942:1959  uint256(decimals) */\n      0xff\n      and\n        /* \"contracts/base/PenERC20V2.sol\":1936:1938  10 */\n      0x0a\n        /* \"contracts/base/PenERC20V2.sol\":1936:1959  10 ** uint256(decimals) */\n      tag_228\n      swap2\n      swap1\n      tag_146\n      jump\t// in\n    tag_228:\n        /* \"contracts/base/PenERC20V2.sol\":1922:1933  checkinBase */\n      sload(0x08)\n        /* \"contracts/base/PenERC20V2.sol\":1922:1959  checkinBase * 10 ** uint256(decimals) */\n      tag_229\n      swap2\n      swap1\n      tag_148\n      jump\t// in\n    tag_229:\n        /* \"contracts/base/PenERC20V2.sol\":1915:1959  res *= checkinBase * 10 ** uint256(decimals) */\n      dup4\n      tag_230\n      swap2\n      swap1\n      tag_148\n      jump\t// in\n    tag_230:\n      swap3\n      pop\n        /* \"contracts/base/PenERC20V2.sol\":1977:1980  res */\n      dup3\n        /* \"contracts/base/PenERC20V2.sol\":1970:1980  return res */\n      swap4\n      pop\n      pop\n      pop\n      pop\n        /* \"contracts/base/PenERC20V2.sol\":1456:1988  function getCheckinReward() public view returns (uint256) {\r... */\n      swap1\n      jump\t// out\n        /* \"contracts/base/PenERC20V2.sol\":222:268  mapping(address => uint256) public checkinDate */\n    tag_105:\n      mstore(0x20, 0x06)\n      dup1\n      0x00\n      mstore\n      keccak256(0x00, 0x40)\n      0x00\n      swap2\n      pop\n      swap1\n      pop\n      sload\n      dup2\n      jump\t// out\n        /* \"contracts/base/ERC20.sol\":1892:2341  function _transfer(address from, address to, uint256 value) internal {\r... */\n    tag_129:\n        /* \"contracts/base/ERC20.sol\":1996:1997  0 */\n      0x00\n        /* \"contracts/base/ERC20.sol\":1980:1998  from != address(0) */\n      0xffffffffffffffffffffffffffffffffffffffff\n      and\n        /* \"contracts/base/ERC20.sol\":1980:1984  from */\n      dup4\n        /* \"contracts/base/ERC20.sol\":1980:1998  from != address(0) */\n      0xffffffffffffffffffffffffffffffffffffffff\n      and\n      eq\n      iszero\n        /* \"contracts/base/ERC20.sol\":1972:2036  require(from != address(0), \"ERC20: transfer from zero address\") */\n      tag_232\n      jumpi\n      mload(0x40)\n      0x08c379a000000000000000000000000000000000000000000000000000000000\n      dup2\n      mstore\n      0x04\n      add\n      tag_233\n      swap1\n      tag_234\n      jump\t// in\n    tag_233:\n      mload(0x40)\n      dup1\n      swap2\n      sub\n      swap1\n      revert\n    tag_232:\n        /* \"contracts/base/ERC20.sol\":2069:2070  0 */\n      0x00\n        /* \"contracts/base/ERC20.sol\":2055:2071  to != address(0) */\n      0xffffffffffffffffffffffffffffffffffffffff\n      and\n        /* \"contracts/base/ERC20.sol\":2055:2057  to */\n      dup3\n        /* \"contracts/base/ERC20.sol\":2055:2071  to != address(0) */\n      0xffffffffffffffffffffffffffffffffffffffff\n      and\n      eq\n      iszero\n        /* \"contracts/base/ERC20.sol\":2047:2107  require(to != address(0), \"ERC20: transfer to zero address\") */\n      tag_235\n      jumpi\n      mload(0x40)\n      0x08c379a000000000000000000000000000000000000000000000000000000000\n      dup2\n      mstore\n      0x04\n      add\n      tag_236\n      swap1\n      tag_237\n      jump\t// in\n    tag_236:\n      mload(0x40)\n      dup1\n      swap2\n      sub\n      swap1\n      revert\n    tag_235:\n        /* \"contracts/base/ERC20.sol\":2145:2150  value */\n      dup1\n        /* \"contracts/base/ERC20.sol\":2126:2135  balanceOf */\n      0x00\n        /* \"contracts/base/ERC20.sol\":2126:2141  balanceOf[from] */\n      dup1\n        /* \"contracts/base/ERC20.sol\":2136:2140  from */\n      dup6\n        /* \"contracts/base/ERC20.sol\":2126:2141  balanceOf[from] */\n      0xffffffffffffffffffffffffffffffffffffffff\n      and\n      0xffffffffffffffffffffffffffffffffffffffff\n      and\n      dup2\n      mstore\n      0x20\n      add\n      swap1\n      dup2\n      mstore\n      0x20\n      add\n      0x00\n      keccak256\n      sload\n        /* \"contracts/base/ERC20.sol\":2126:2150  balanceOf[from] >= value */\n      lt\n      iszero\n        /* \"contracts/base/ERC20.sol\":2118:2182  require(balanceOf[from] >= value, \"ERC20: insufficient balance\") */\n      tag_238\n      jumpi\n      mload(0x40)\n      0x08c379a000000000000000000000000000000000000000000000000000000000\n      dup2\n      mstore\n      0x04\n      add\n      tag_239\n      swap1\n      tag_240\n      jump\t// in\n    tag_239:\n      mload(0x40)\n      dup1\n      swap2\n      sub\n      swap1\n      revert\n    tag_238:\n        /* \"contracts/base/ERC20.sol\":2239:2244  value */\n      dup1\n        /* \"contracts/base/ERC20.sol\":2220:2229  balanceOf */\n      0x00\n        /* \"contracts/base/ERC20.sol\":2220:2235  balanceOf[from] */\n      dup1\n        /* \"contracts/base/ERC20.sol\":2230:2234  from */\n      dup6\n        /* \"contracts/base/ERC20.sol\":2220:2235  balanceOf[from] */\n      0xffffffffffffffffffffffffffffffffffffffff\n      and\n      0xffffffffffffffffffffffffffffffffffffffff\n      and\n      dup2\n      mstore\n      0x20\n      add\n      swap1\n      dup2\n      mstore\n      0x20\n      add\n      0x00\n      keccak256\n      0x00\n        /* \"contracts/base/ERC20.sol\":2220:2244  balanceOf[from] -= value */\n      dup3\n      dup3\n      sload\n      sub\n      swap3\n      pop\n      pop\n      dup2\n      swap1\n      sstore\n      pop\n        /* \"contracts/base/ERC20.sol\":2276:2281  value */\n      dup1\n        /* \"contracts/base/ERC20.sol\":2259:2268  balanceOf */\n      0x00\n        /* \"contracts/base/ERC20.sol\":2259:2272  balanceOf[to] */\n      dup1\n        /* \"contracts/base/ERC20.sol\":2269:2271  to */\n      dup5\n        /* \"contracts/base/ERC20.sol\":2259:2272  balanceOf[to] */\n      0xffffffffffffffffffffffffffffffffffffffff\n      and\n      0xffffffffffffffffffffffffffffffffffffffff\n      and\n      dup2\n      mstore\n      0x20\n      add\n      swap1\n      dup2\n      mstore\n      0x20\n      add\n      0x00\n      keccak256\n      0x00\n        /* \"contracts/base/ERC20.sol\":2259:2281  balanceOf[to] += value */\n      dup3\n      dup3\n      sload\n      add\n      swap3\n      pop\n      pop\n      dup2\n      swap1\n      sstore\n      pop\n        /* \"contracts/base/ERC20.sol\":2323:2325  to */\n      dup2\n        /* \"contracts/base/ERC20.sol\":2308:2333  Transfer(from, to, value) */\n      0xffffffffffffffffffffffffffffffffffffffff\n      and\n        /* \"contracts/base/ERC20.sol\":2317:2321  from */\n      dup4\n        /* \"contracts/base/ERC20.sol\":2308:2333  Transfer(from, to, value) */\n      0xffffffffffffffffffffffffffffffffffffffff\n      and\n      0xddf252ad1be2c89b69c2b068fc378daa952ba7f163c4a11628f55a4df523b3ef\n        /* \"contracts/base/ERC20.sol\":2327:2332  value */\n      dup4\n        /* \"contracts/base/ERC20.sol\":2308:2333  Transfer(from, to, value) */\n      mload(0x40)\n      tag_241\n      swap2\n      swap1\n      tag_41\n      jump\t// in\n    tag_241:\n      mload(0x40)\n      dup1\n      swap2\n      sub\n      swap1\n      log3\n        /* \"contracts/base/ERC20.sol\":1892:2341  function _transfer(address from, address to, uint256 value) internal {\r... */\n      pop\n      pop\n      pop\n      jump\t// out\n        /* \"contracts/base/ERC20.sol\":1411:1605  function mint(address recipient, uint256 amount) internal {\r... */\n    tag_177:\n        /* \"contracts/base/ERC20.sol\":1504:1510  amount */\n      dup1\n        /* \"contracts/base/ERC20.sol\":1480:1489  balanceOf */\n      0x00\n        /* \"contracts/base/ERC20.sol\":1480:1500  balanceOf[recipient] */\n      dup1\n        /* \"contracts/base/ERC20.sol\":1490:1499  recipient */\n      dup5\n        /* \"contracts/base/ERC20.sol\":1480:1500  balanceOf[recipient] */\n      0xffffffffffffffffffffffffffffffffffffffff\n      and\n      0xffffffffffffffffffffffffffffffffffffffff\n      and\n      dup2\n      mstore\n      0x20\n      add\n      swap1\n      dup2\n      mstore\n      0x20\n      add\n      0x00\n      keccak256\n      0x00\n        /* \"contracts/base/ERC20.sol\":1480:1510  balanceOf[recipient] += amount */\n      dup3\n      dup3\n      sload\n      tag_243\n      swap2\n      swap1\n      tag_119\n      jump\t// in\n    tag_243:\n      swap3\n      pop\n      pop\n      dup2\n      swap1\n      sstore\n      pop\n        /* \"contracts/base/ERC20.sol\":1536:1542  amount */\n      dup1\n        /* \"contracts/base/ERC20.sol\":1521:1532  totalSupply */\n      0x02\n      0x00\n        /* \"contracts/base/ERC20.sol\":1521:1542  totalSupply += amount */\n      dup3\n      dup3\n      sload\n      tag_244\n      swap2\n      swap1\n      tag_119\n      jump\t// in\n    tag_244:\n      swap3\n      pop\n      pop\n      dup2\n      swap1\n      sstore\n      pop\n        /* \"contracts/base/ERC20.sol\":1579:1588  recipient */\n      dup2\n        /* \"contracts/base/ERC20.sol\":1558:1597  Transfer(address(0), recipient, amount) */\n      0xffffffffffffffffffffffffffffffffffffffff\n      and\n        /* \"contracts/base/ERC20.sol\":1575:1576  0 */\n      0x00\n        /* \"contracts/base/ERC20.sol\":1558:1597  Transfer(address(0), recipient, amount) */\n      0xffffffffffffffffffffffffffffffffffffffff\n      and\n      0xddf252ad1be2c89b69c2b068fc378daa952ba7f163c4a11628f55a4df523b3ef\n        /* \"contracts/base/ERC20.sol\":1590:1596  amount */\n      dup4\n        /* \"contracts/base/ERC20.sol\":1558:1597  Transfer(address(0), recipient, amount) */\n      mload(0x40)\n      tag_245\n      swap2\n      swap1\n      tag_41\n      jump\t// in\n    tag_245:\n      mload(0x40)\n      dup1\n      swap2\n      sub\n      swap1\n      log3\n        /* \"contracts/base/ERC20.sol\":1411:1605  function mint(address recipient, uint256 amount) internal {\r... */\n      pop\n      pop\n      jump\t// out\n        /* \"#utility.yul\":7:146   */\n    tag_247:\n        /* \"#utility.yul\":53:58   */\n      0x00\n        /* \"#utility.yul\":91:97   */\n      dup2\n        /* \"#utility.yul\":78:98   */\n      calldataload\n        /* \"#utility.yul\":69:98   */\n      swap1\n      pop\n        /* \"#utility.yul\":107:140   */\n      tag_249\n        /* \"#utility.yul\":134:139   */\n      dup2\n        /* \"#utility.yul\":107:140   */\n      tag_250\n      jump\t// in\n    tag_249:\n        /* \"#utility.yul\":59:146   */\n      swap3\n      swap2\n      pop\n      pop\n      jump\t// out\n        /* \"#utility.yul\":152:291   */\n    tag_251:\n        /* \"#utility.yul\":198:203   */\n      0x00\n        /* \"#utility.yul\":236:242   */\n      dup2\n        /* \"#utility.yul\":223:243   */\n      calldataload\n        /* \"#utility.yul\":214:243   */\n      swap1\n      pop\n        /* \"#utility.yul\":252:285   */\n      tag_253\n        /* \"#utility.yul\":279:284   */\n      dup2\n        /* \"#utility.yul\":252:285   */\n      tag_254\n      jump\t// in\n    tag_253:\n        /* \"#utility.yul\":204:291   */\n      swap3\n      swap2\n      pop\n      pop\n      jump\t// out\n        /* \"#utility.yul\":297:559   */\n    tag_38:\n        /* \"#utility.yul\":356:362   */\n      0x00\n        /* \"#utility.yul\":405:407   */\n      0x20\n        /* \"#utility.yul\":393:402   */\n      dup3\n        /* \"#utility.yul\":384:391   */\n      dup5\n        /* \"#utility.yul\":380:403   */\n      sub\n        /* \"#utility.yul\":376:408   */\n      slt\n        /* \"#utility.yul\":373:375   */\n      iszero\n      tag_256\n      jumpi\n        /* \"#utility.yul\":421:422   */\n      0x00\n        /* \"#utility.yul\":418:419   */\n      dup1\n        /* \"#utility.yul\":411:423   */\n      revert\n        /* \"#utility.yul\":373:375   */\n    tag_256:\n        /* \"#utility.yul\":464:465   */\n      0x00\n        /* \"#utility.yul\":489:542   */\n      tag_257\n        /* \"#utility.yul\":534:541   */\n      dup5\n        /* \"#utility.yul\":525:531   */\n      dup3\n        /* \"#utility.yul\":514:523   */\n      dup6\n        /* \"#utility.yul\":510:532   */\n      add\n        /* \"#utility.yul\":489:542   */\n      tag_247\n      jump\t// in\n    tag_257:\n        /* \"#utility.yul\":479:542   */\n      swap2\n      pop\n        /* \"#utility.yul\":435:552   */\n      pop\n        /* \"#utility.yul\":363:559   */\n      swap3\n      swap2\n      pop\n      pop\n      jump\t// out\n        /* \"#utility.yul\":565:972   */\n    tag_97:\n        /* \"#utility.yul\":633:639   */\n      0x00\n        /* \"#utility.yul\":641:647   */\n      dup1\n        /* \"#utility.yul\":690:692   */\n      0x40\n        /* \"#utility.yul\":678:687   */\n      dup4\n        /* \"#utility.yul\":669:676   */\n      dup6\n        /* \"#utility.yul\":665:688   */\n      sub\n        /* \"#utility.yul\":661:693   */\n      slt\n        /* \"#utility.yul\":658:660   */\n      iszero\n      tag_259\n      jumpi\n        /* \"#utility.yul\":706:707   */\n      0x00\n        /* \"#utility.yul\":703:704   */\n      dup1\n        /* \"#utility.yul\":696:708   */\n      revert\n        /* \"#utility.yul\":658:660   */\n    tag_259:\n        /* \"#utility.yul\":749:750   */\n      0x00\n        /* \"#utility.yul\":774:827   */\n      tag_260\n        /* \"#utility.yul\":819:826   */\n      dup6\n        /* \"#utility.yul\":810:816   */\n      dup3\n        /* \"#utility.yul\":799:808   */\n      dup7\n        /* \"#utility.yul\":795:817   */\n      add\n        /* \"#utility.yul\":774:827   */\n      tag_247\n      jump\t// in\n    tag_260:\n        /* \"#utility.yul\":764:827   */\n      swap3\n      pop\n        /* \"#utility.yul\":720:837   */\n      pop\n        /* \"#utility.yul\":876:878   */\n      0x20\n        /* \"#utility.yul\":902:955   */\n      tag_261\n        /* \"#utility.yul\":947:954   */\n      dup6\n        /* \"#utility.yul\":938:944   */\n      dup3\n        /* \"#utility.yul\":927:936   */\n      dup7\n        /* \"#utility.yul\":923:945   */\n      add\n        /* \"#utility.yul\":902:955   */\n      tag_247\n      jump\t// in\n    tag_261:\n        /* \"#utility.yul\":892:955   */\n      swap2\n      pop\n        /* \"#utility.yul\":847:965   */\n      pop\n        /* \"#utility.yul\":648:972   */\n      swap3\n      pop\n      swap3\n      swap1\n      pop\n      jump\t// out\n        /* \"#utility.yul\":978:1530   */\n    tag_47:\n        /* \"#utility.yul\":1055:1061   */\n      0x00\n        /* \"#utility.yul\":1063:1069   */\n      dup1\n        /* \"#utility.yul\":1071:1077   */\n      0x00\n        /* \"#utility.yul\":1120:1122   */\n      0x60\n        /* \"#utility.yul\":1108:1117   */\n      dup5\n        /* \"#utility.yul\":1099:1106   */\n      dup7\n        /* \"#utility.yul\":1095:1118   */\n      sub\n        /* \"#utility.yul\":1091:1123   */\n      slt\n        /* \"#utility.yul\":1088:1090   */\n      iszero\n      tag_263\n      jumpi\n        /* \"#utility.yul\":1136:1137   */\n      0x00\n        /* \"#utility.yul\":1133:1134   */\n      dup1\n        /* \"#utility.yul\":1126:1138   */\n      revert\n        /* \"#utility.yul\":1088:1090   */\n    tag_263:\n        /* \"#utility.yul\":1179:1180   */\n      0x00\n        /* \"#utility.yul\":1204:1257   */\n      tag_264\n        /* \"#utility.yul\":1249:1256   */\n      dup7\n        /* \"#utility.yul\":1240:1246   */\n      dup3\n        /* \"#utility.yul\":1229:1238   */\n      dup8\n        /* \"#utility.yul\":1225:1247   */\n      add\n        /* \"#utility.yul\":1204:1257   */\n      tag_247\n      jump\t// in\n    tag_264:\n        /* \"#utility.yul\":1194:1257   */\n      swap4\n      pop\n        /* \"#utility.yul\":1150:1267   */\n      pop\n        /* \"#utility.yul\":1306:1308   */\n      0x20\n        /* \"#utility.yul\":1332:1385   */\n      tag_265\n        /* \"#utility.yul\":1377:1384   */\n      dup7\n        /* \"#utility.yul\":1368:1374   */\n      dup3\n        /* \"#utility.yul\":1357:1366   */\n      dup8\n        /* \"#utility.yul\":1353:1375   */\n      add\n        /* \"#utility.yul\":1332:1385   */\n      tag_247\n      jump\t// in\n    tag_265:\n        /* \"#utility.yul\":1322:1385   */\n      swap3\n      pop\n        /* \"#utility.yul\":1277:1395   */\n      pop\n        /* \"#utility.yul\":1434:1436   */\n      0x40\n        /* \"#utility.yul\":1460:1513   */\n      tag_266\n        /* \"#utility.yul\":1505:1512   */\n      dup7\n        /* \"#utility.yul\":1496:1502   */\n      dup3\n        /* \"#utility.yul\":1485:1494   */\n      dup8\n        /* \"#utility.yul\":1481:1503   */\n      add\n        /* \"#utility.yul\":1460:1513   */\n      tag_251\n      jump\t// in\n    tag_266:\n        /* \"#utility.yul\":1450:1513   */\n      swap2\n      pop\n        /* \"#utility.yul\":1405:1523   */\n      pop\n        /* \"#utility.yul\":1078:1530   */\n      swap3\n      pop\n      swap3\n      pop\n      swap3\n      jump\t// out\n        /* \"#utility.yul\":1536:1943   */\n    tag_32:\n        /* \"#utility.yul\":1604:1610   */\n      0x00\n        /* \"#utility.yul\":1612:1618   */\n      dup1\n        /* \"#utility.yul\":1661:1663   */\n      0x40\n        /* \"#utility.yul\":1649:1658   */\n      dup4\n        /* \"#utility.yul\":1640:1647   */\n      dup6\n        /* \"#utility.yul\":1636:1659   */\n      sub\n        /* \"#utility.yul\":1632:1664   */\n      slt\n        /* \"#utility.yul\":1629:1631   */\n      iszero\n      tag_268\n      jumpi\n        /* \"#utility.yul\":1677:1678   */\n      0x00\n        /* \"#utility.yul\":1674:1675   */\n      dup1\n        /* \"#utility.yul\":1667:1679   */\n      revert\n        /* \"#utility.yul\":1629:1631   */\n    tag_268:\n        /* \"#utility.yul\":1720:1721   */\n      0x00\n        /* \"#utility.yul\":1745:1798   */\n      tag_269\n        /* \"#utility.yul\":1790:1797   */\n      dup6\n        /* \"#utility.yul\":1781:1787   */\n      dup3\n        /* \"#utility.yul\":1770:1779   */\n      dup7\n        /* \"#utility.yul\":1766:1788   */\n      add\n        /* \"#utility.yul\":1745:1798   */\n      tag_247\n      jump\t// in\n    tag_269:\n        /* \"#utility.yul\":1735:1798   */\n      swap3\n      pop\n        /* \"#utility.yul\":1691:1808   */\n      pop\n        /* \"#utility.yul\":1847:1849   */\n      0x20\n        /* \"#utility.yul\":1873:1926   */\n      tag_270\n        /* \"#utility.yul\":1918:1925   */\n      dup6\n        /* \"#utility.yul\":1909:1915   */\n      dup3\n        /* \"#utility.yul\":1898:1907   */\n      dup7\n        /* \"#utility.yul\":1894:1916   */\n      add\n        /* \"#utility.yul\":1873:1926   */\n      tag_251\n      jump\t// in\n    tag_270:\n        /* \"#utility.yul\":1863:1926   */\n      swap2\n      pop\n        /* \"#utility.yul\":1818:1936   */\n      pop\n        /* \"#utility.yul\":1619:1943   */\n      swap3\n      pop\n      swap3\n      swap1\n      pop\n      jump\t// out\n        /* \"#utility.yul\":1949:2211   */\n    tag_60:\n        /* \"#utility.yul\":2008:2014   */\n      0x00\n        /* \"#utility.yul\":2057:2059   */\n      0x20\n        /* \"#utility.yul\":2045:2054   */\n      dup3\n        /* \"#utility.yul\":2036:2043   */\n      dup5\n        /* \"#utility.yul\":2032:2055   */\n      sub\n        /* \"#utility.yul\":2028:2060   */\n      slt\n        /* \"#utility.yul\":2025:2027   */\n      iszero\n      tag_272\n      jumpi\n        /* \"#utility.yul\":2073:2074   */\n      0x00\n        /* \"#utility.yul\":2070:2071   */\n      dup1\n        /* \"#utility.yul\":2063:2075   */\n      revert\n        /* \"#utility.yul\":2025:2027   */\n    tag_272:\n        /* \"#utility.yul\":2116:2117   */\n      0x00\n        /* \"#utility.yul\":2141:2194   */\n      tag_273\n        /* \"#utility.yul\":2186:2193   */\n      dup5\n        /* \"#utility.yul\":2177:2183   */\n      dup3\n        /* \"#utility.yul\":2166:2175   */\n      dup6\n        /* \"#utility.yul\":2162:2184   */\n      add\n        /* \"#utility.yul\":2141:2194   */\n      tag_251\n      jump\t// in\n    tag_273:\n        /* \"#utility.yul\":2131:2194   */\n      swap2\n      pop\n        /* \"#utility.yul\":2087:2204   */\n      pop\n        /* \"#utility.yul\":2015:2211   */\n      swap3\n      swap2\n      pop\n      pop\n      jump\t// out\n        /* \"#utility.yul\":2217:2374   */\n    tag_274:\n        /* \"#utility.yul\":2322:2367   */\n      tag_276\n        /* \"#utility.yul\":2342:2366   */\n      tag_277\n        /* \"#utility.yul\":2360:2365   */\n      dup3\n        /* \"#utility.yul\":2342:2366   */\n      tag_278\n      jump\t// in\n    tag_277:\n        /* \"#utility.yul\":2322:2367   */\n      tag_279\n      jump\t// in\n    tag_276:\n        /* \"#utility.yul\":2317:2320   */\n      dup3\n        /* \"#utility.yul\":2310:2368   */\n      mstore\n        /* \"#utility.yul\":2300:2374   */\n      pop\n      pop\n      jump\t// out\n        /* \"#utility.yul\":2380:2489   */\n    tag_280:\n        /* \"#utility.yul\":2461:2482   */\n      tag_282\n        /* \"#utility.yul\":2476:2481   */\n      dup2\n        /* \"#utility.yul\":2461:2482   */\n      tag_283\n      jump\t// in\n    tag_282:\n        /* \"#utility.yul\":2456:2459   */\n      dup3\n        /* \"#utility.yul\":2449:2483   */\n      mstore\n        /* \"#utility.yul\":2439:2489   */\n      pop\n      pop\n      jump\t// out\n        /* \"#utility.yul\":2495:2859   */\n    tag_284:\n        /* \"#utility.yul\":2583:2586   */\n      0x00\n        /* \"#utility.yul\":2611:2650   */\n      tag_286\n        /* \"#utility.yul\":2644:2649   */\n      dup3\n        /* \"#utility.yul\":2611:2650   */\n      tag_287\n      jump\t// in\n    tag_286:\n        /* \"#utility.yul\":2666:2737   */\n      tag_288\n        /* \"#utility.yul\":2730:2736   */\n      dup2\n        /* \"#utility.yul\":2725:2728   */\n      dup6\n        /* \"#utility.yul\":2666:2737   */\n      tag_289\n      jump\t// in\n    tag_288:\n        /* \"#utility.yul\":2659:2737   */\n      swap4\n      pop\n        /* \"#utility.yul\":2746:2798   */\n      tag_290\n        /* \"#utility.yul\":2791:2797   */\n      dup2\n        /* \"#utility.yul\":2786:2789   */\n      dup6\n        /* \"#utility.yul\":2779:2783   */\n      0x20\n        /* \"#utility.yul\":2772:2777   */\n      dup7\n        /* \"#utility.yul\":2768:2784   */\n      add\n        /* \"#utility.yul\":2746:2798   */\n      tag_291\n      jump\t// in\n    tag_290:\n        /* \"#utility.yul\":2823:2852   */\n      tag_292\n        /* \"#utility.yul\":2845:2851   */\n      dup2\n        /* \"#utility.yul\":2823:2852   */\n      tag_293\n      jump\t// in\n    tag_292:\n        /* \"#utility.yul\":2818:2821   */\n      dup5\n        /* \"#utility.yul\":2814:2853   */\n      add\n        /* \"#utility.yul\":2807:2853   */\n      swap2\n      pop\n        /* \"#utility.yul\":2587:2859   */\n      pop\n      swap3\n      swap2\n      pop\n      pop\n      jump\t// out\n        /* \"#utility.yul\":2865:3231   */\n    tag_294:\n        /* \"#utility.yul\":3007:3010   */\n      0x00\n        /* \"#utility.yul\":3028:3095   */\n      tag_296\n        /* \"#utility.yul\":3092:3094   */\n      0x21\n        /* \"#utility.yul\":3087:3090   */\n      dup4\n        /* \"#utility.yul\":3028:3095   */\n      tag_289\n      jump\t// in\n    tag_296:\n        /* \"#utility.yul\":3021:3095   */\n      swap2\n      pop\n        /* \"#utility.yul\":3104:3197   */\n      tag_297\n        /* \"#utility.yul\":3193:3196   */\n      dup3\n        /* \"#utility.yul\":3104:3197   */\n      tag_298\n      jump\t// in\n    tag_297:\n        /* \"#utility.yul\":3222:3224   */\n      0x40\n        /* \"#utility.yul\":3217:3220   */\n      dup3\n        /* \"#utility.yul\":3213:3225   */\n      add\n        /* \"#utility.yul\":3206:3225   */\n      swap1\n      pop\n        /* \"#utility.yul\":3011:3231   */\n      swap2\n      swap1\n      pop\n      jump\t// out\n        /* \"#utility.yul\":3237:3603   */\n    tag_299:\n        /* \"#utility.yul\":3379:3382   */\n      0x00\n        /* \"#utility.yul\":3400:3467   */\n      tag_301\n        /* \"#utility.yul\":3464:3466   */\n      0x1b\n        /* \"#utility.yul\":3459:3462   */\n      dup4\n        /* \"#utility.yul\":3400:3467   */\n      tag_289\n      jump\t// in\n    tag_301:\n        /* \"#utility.yul\":3393:3467   */\n      swap2\n      pop\n        /* \"#utility.yul\":3476:3569   */\n      tag_302\n        /* \"#utility.yul\":3565:3568   */\n      dup3\n        /* \"#utility.yul\":3476:3569   */\n      tag_303\n      jump\t// in\n    tag_302:\n        /* \"#utility.yul\":3594:3596   */\n      0x20\n        /* \"#utility.yul\":3589:3592   */\n      dup3\n        /* \"#utility.yul\":3585:3597   */\n      add\n        /* \"#utility.yul\":3578:3597   */\n      swap1\n      pop\n        /* \"#utility.yul\":3383:3603   */\n      swap2\n      swap1\n      pop\n      jump\t// out\n        /* \"#utility.yul\":3609:3975   */\n    tag_304:\n        /* \"#utility.yul\":3751:3754   */\n      0x00\n        /* \"#utility.yul\":3772:3839   */\n      tag_306\n        /* \"#utility.yul\":3836:3838   */\n      0x1f\n        /* \"#utility.yul\":3831:3834   */\n      dup4\n        /* \"#utility.yul\":3772:3839   */\n      tag_289\n      jump\t// in\n    tag_306:\n        /* \"#utility.yul\":3765:3839   */\n      swap2\n      pop\n        /* \"#utility.yul\":3848:3941   */\n      tag_307\n        /* \"#utility.yul\":3937:3940   */\n      dup3\n        /* \"#utility.yul\":3848:3941   */\n      tag_308\n      jump\t// in\n    tag_307:\n        /* \"#utility.yul\":3966:3968   */\n      0x20\n        /* \"#utility.yul\":3961:3964   */\n      dup3\n        /* \"#utility.yul\":3957:3969   */\n      add\n        /* \"#utility.yul\":3950:3969   */\n      swap1\n      pop\n        /* \"#utility.yul\":3755:3975   */\n      swap2\n      swap1\n      pop\n      jump\t// out\n        /* \"#utility.yul\":3981:4347   */\n    tag_309:\n        /* \"#utility.yul\":4123:4126   */\n      0x00\n        /* \"#utility.yul\":4144:4211   */\n      tag_311\n        /* \"#utility.yul\":4208:4210   */\n      0x18\n        /* \"#utility.yul\":4203:4206   */\n      dup4\n        /* \"#utility.yul\":4144:4211   */\n      tag_289\n      jump\t// in\n    tag_311:\n        /* \"#utility.yul\":4137:4211   */\n      swap2\n      pop\n        /* \"#utility.yul\":4220:4313   */\n      tag_312\n        /* \"#utility.yul\":4309:4312   */\n      dup3\n        /* \"#utility.yul\":4220:4313   */\n      tag_313\n      jump\t// in\n    tag_312:\n        /* \"#utility.yul\":4338:4340   */\n      0x20\n        /* \"#utility.yul\":4333:4336   */\n      dup3\n        /* \"#utility.yul\":4329:4341   */\n      add\n        /* \"#utility.yul\":4322:4341   */\n      swap1\n      pop\n        /* \"#utility.yul\":4127:4347   */\n      swap2\n      swap1\n      pop\n      jump\t// out\n        /* \"#utility.yul\":4353:4719   */\n    tag_314:\n        /* \"#utility.yul\":4495:4498   */\n      0x00\n        /* \"#utility.yul\":4516:4583   */\n      tag_316\n        /* \"#utility.yul\":4580:4582   */\n      0x13\n        /* \"#utility.yul\":4575:4578   */\n      dup4\n        /* \"#utility.yul\":4516:4583   */\n      tag_289\n      jump\t// in\n    tag_316:\n        /* \"#utility.yul\":4509:4583   */\n      swap2\n      pop\n        /* \"#utility.yul\":4592:4685   */\n      tag_317\n        /* \"#utility.yul\":4681:4684   */\n      dup3\n        /* \"#utility.yul\":4592:4685   */\n      tag_318\n      jump\t// in\n    tag_317:\n        /* \"#utility.yul\":4710:4712   */\n      0x20\n        /* \"#utility.yul\":4705:4708   */\n      dup3\n        /* \"#utility.yul\":4701:4713   */\n      add\n        /* \"#utility.yul\":4694:4713   */\n      swap1\n      pop\n        /* \"#utility.yul\":4499:4719   */\n      swap2\n      swap1\n      pop\n      jump\t// out\n        /* \"#utility.yul\":4725:5091   */\n    tag_319:\n        /* \"#utility.yul\":4867:4870   */\n      0x00\n        /* \"#utility.yul\":4888:4955   */\n      tag_321\n        /* \"#utility.yul\":4952:4954   */\n      0x23\n        /* \"#utility.yul\":4947:4950   */\n      dup4\n        /* \"#utility.yul\":4888:4955   */\n      tag_289\n      jump\t// in\n    tag_321:\n        /* \"#utility.yul\":4881:4955   */\n      swap2\n      pop\n        /* \"#utility.yul\":4964:5057   */\n      tag_322\n        /* \"#utility.yul\":5053:5056   */\n      dup3\n        /* \"#utility.yul\":4964:5057   */\n      tag_323\n      jump\t// in\n    tag_322:\n        /* \"#utility.yul\":5082:5084   */\n      0x40\n        /* \"#utility.yul\":5077:5080   */\n      dup3\n        /* \"#utility.yul\":5073:5085   */\n      add\n        /* \"#utility.yul\":5066:5085   */\n      swap1\n      pop\n        /* \"#utility.yul\":4871:5091   */\n      swap2\n      swap1\n      pop\n      jump\t// out\n        /* \"#utility.yul\":5097:5463   */\n    tag_324:\n        /* \"#utility.yul\":5239:5242   */\n      0x00\n        /* \"#utility.yul\":5260:5327   */\n      tag_326\n        /* \"#utility.yul\":5324:5326   */\n      0x0e\n        /* \"#utility.yul\":5319:5322   */\n      dup4\n        /* \"#utility.yul\":5260:5327   */\n      tag_289\n      jump\t// in\n    tag_326:\n        /* \"#utility.yul\":5253:5327   */\n      swap2\n      pop\n        /* \"#utility.yul\":5336:5429   */\n      tag_327\n        /* \"#utility.yul\":5425:5428   */\n      dup3\n        /* \"#utility.yul\":5336:5429   */\n      tag_328\n      jump\t// in\n    tag_327:\n        /* \"#utility.yul\":5454:5456   */\n      0x20\n        /* \"#utility.yul\":5449:5452   */\n      dup3\n        /* \"#utility.yul\":5445:5457   */\n      add\n        /* \"#utility.yul\":5438:5457   */\n      swap1\n      pop\n        /* \"#utility.yul\":5243:5463   */\n      swap2\n      swap1\n      pop\n      jump\t// out\n        /* \"#utility.yul\":5469:5835   */\n    tag_329:\n        /* \"#utility.yul\":5611:5614   */\n      0x00\n        /* \"#utility.yul\":5632:5699   */\n      tag_331\n        /* \"#utility.yul\":5696:5698   */\n      0x18\n        /* \"#utility.yul\":5691:5694   */\n      dup4\n        /* \"#utility.yul\":5632:5699   */\n      tag_289\n      jump\t// in\n    tag_331:\n        /* \"#utility.yul\":5625:5699   */\n      swap2\n      pop\n        /* \"#utility.yul\":5708:5801   */\n      tag_332\n        /* \"#utility.yul\":5797:5800   */\n      dup3\n        /* \"#utility.yul\":5708:5801   */\n      tag_333\n      jump\t// in\n    tag_332:\n        /* \"#utility.yul\":5826:5828   */\n      0x20\n        /* \"#utility.yul\":5821:5824   */\n      dup3\n        /* \"#utility.yul\":5817:5829   */\n      add\n        /* \"#utility.yul\":5810:5829   */\n      swap1\n      pop\n        /* \"#utility.yul\":5615:5835   */\n      swap2\n      swap1\n      pop\n      jump\t// out\n        /* \"#utility.yul\":5841:5959   */\n    tag_334:\n        /* \"#utility.yul\":5928:5952   */\n      tag_336\n        /* \"#utility.yul\":5946:5951   */\n      dup2\n        /* \"#utility.yul\":5928:5952   */\n      tag_337\n      jump\t// in\n    tag_336:\n        /* \"#utility.yul\":5923:5926   */\n      dup3\n        /* \"#utility.yul\":5916:5953   */\n      mstore\n        /* \"#utility.yul\":5906:5959   */\n      pop\n      pop\n      jump\t// out\n        /* \"#utility.yul\":5965:6122   */\n    tag_338:\n        /* \"#utility.yul\":6070:6115   */\n      tag_340\n        /* \"#utility.yul\":6090:6114   */\n      tag_341\n        /* \"#utility.yul\":6108:6113   */\n      dup3\n        /* \"#utility.yul\":6090:6114   */\n      tag_337\n      jump\t// in\n    tag_341:\n        /* \"#utility.yul\":6070:6115   */\n      tag_342\n      jump\t// in\n    tag_340:\n        /* \"#utility.yul\":6065:6068   */\n      dup3\n        /* \"#utility.yul\":6058:6116   */\n      mstore\n        /* \"#utility.yul\":6048:6122   */\n      pop\n      pop\n      jump\t// out\n        /* \"#utility.yul\":6128:6240   */\n    tag_343:\n        /* \"#utility.yul\":6211:6233   */\n      tag_345\n        /* \"#utility.yul\":6227:6232   */\n      dup2\n        /* \"#utility.yul\":6211:6233   */\n      tag_346\n      jump\t// in\n    tag_345:\n        /* \"#utility.yul\":6206:6209   */\n      dup3\n        /* \"#utility.yul\":6199:6234   */\n      mstore\n        /* \"#utility.yul\":6189:6240   */\n      pop\n      pop\n      jump\t// out\n        /* \"#utility.yul\":6246:6925   */\n    tag_200:\n        /* \"#utility.yul\":6442:6445   */\n      0x00\n        /* \"#utility.yul\":6457:6532   */\n      tag_348\n        /* \"#utility.yul\":6528:6531   */\n      dup3\n        /* \"#utility.yul\":6519:6525   */\n      dup8\n        /* \"#utility.yul\":6457:6532   */\n      tag_338\n      jump\t// in\n    tag_348:\n        /* \"#utility.yul\":6557:6559   */\n      0x20\n        /* \"#utility.yul\":6552:6555   */\n      dup3\n        /* \"#utility.yul\":6548:6560   */\n      add\n        /* \"#utility.yul\":6541:6560   */\n      swap2\n      pop\n        /* \"#utility.yul\":6570:6645   */\n      tag_349\n        /* \"#utility.yul\":6641:6644   */\n      dup3\n        /* \"#utility.yul\":6632:6638   */\n      dup7\n        /* \"#utility.yul\":6570:6645   */\n      tag_338\n      jump\t// in\n    tag_349:\n        /* \"#utility.yul\":6670:6672   */\n      0x20\n        /* \"#utility.yul\":6665:6668   */\n      dup3\n        /* \"#utility.yul\":6661:6673   */\n      add\n        /* \"#utility.yul\":6654:6673   */\n      swap2\n      pop\n        /* \"#utility.yul\":6683:6758   */\n      tag_350\n        /* \"#utility.yul\":6754:6757   */\n      dup3\n        /* \"#utility.yul\":6745:6751   */\n      dup6\n        /* \"#utility.yul\":6683:6758   */\n      tag_274\n      jump\t// in\n    tag_350:\n        /* \"#utility.yul\":6783:6785   */\n      0x14\n        /* \"#utility.yul\":6778:6781   */\n      dup3\n        /* \"#utility.yul\":6774:6786   */\n      add\n        /* \"#utility.yul\":6767:6786   */\n      swap2\n      pop\n        /* \"#utility.yul\":6796:6871   */\n      tag_351\n        /* \"#utility.yul\":6867:6870   */\n      dup3\n        /* \"#utility.yul\":6858:6864   */\n      dup5\n        /* \"#utility.yul\":6796:6871   */\n      tag_338\n      jump\t// in\n    tag_351:\n        /* \"#utility.yul\":6896:6898   */\n      0x20\n        /* \"#utility.yul\":6891:6894   */\n      dup3\n        /* \"#utility.yul\":6887:6899   */\n      add\n        /* \"#utility.yul\":6880:6899   */\n      swap2\n      pop\n        /* \"#utility.yul\":6916:6919   */\n      dup2\n        /* \"#utility.yul\":6909:6919   */\n      swap1\n      pop\n        /* \"#utility.yul\":6446:6925   */\n      swap6\n      swap5\n      pop\n      pop\n      pop\n      pop\n      pop\n      jump\t// out\n        /* \"#utility.yul\":6931:7141   */\n    tag_35:\n        /* \"#utility.yul\":7018:7022   */\n      0x00\n        /* \"#utility.yul\":7056:7058   */\n      0x20\n        /* \"#utility.yul\":7045:7054   */\n      dup3\n        /* \"#utility.yul\":7041:7059   */\n      add\n        /* \"#utility.yul\":7033:7059   */\n      swap1\n      pop\n        /* \"#utility.yul\":7069:7134   */\n      tag_353\n        /* \"#utility.yul\":7131:7132   */\n      0x00\n        /* \"#utility.yul\":7120:7129   */\n      dup4\n        /* \"#utility.yul\":7116:7133   */\n      add\n        /* \"#utility.yul\":7107:7113   */\n      dup5\n        /* \"#utility.yul\":7069:7134   */\n      tag_280\n      jump\t// in\n    tag_353:\n        /* \"#utility.yul\":7023:7141   */\n      swap3\n      swap2\n      pop\n      pop\n      jump\t// out\n        /* \"#utility.yul\":7147:7460   */\n    tag_29:\n        /* \"#utility.yul\":7260:7264   */\n      0x00\n        /* \"#utility.yul\":7298:7300   */\n      0x20\n        /* \"#utility.yul\":7287:7296   */\n      dup3\n        /* \"#utility.yul\":7283:7301   */\n      add\n        /* \"#utility.yul\":7275:7301   */\n      swap1\n      pop\n        /* \"#utility.yul\":7347:7356   */\n      dup2\n        /* \"#utility.yul\":7341:7345   */\n      dup2\n        /* \"#utility.yul\":7337:7357   */\n      sub\n        /* \"#utility.yul\":7333:7334   */\n      0x00\n        /* \"#utility.yul\":7322:7331   */\n      dup4\n        /* \"#utility.yul\":7318:7335   */\n      add\n        /* \"#utility.yul\":7311:7358   */\n      mstore\n        /* \"#utility.yul\":7375:7453   */\n      tag_355\n        /* \"#utility.yul\":7448:7452   */\n      dup2\n        /* \"#utility.yul\":7439:7445   */\n      dup5\n        /* \"#utility.yul\":7375:7453   */\n      tag_284\n      jump\t// in\n    tag_355:\n        /* \"#utility.yul\":7367:7453   */\n      swap1\n      pop\n        /* \"#utility.yul\":7265:7460   */\n      swap3\n      swap2\n      pop\n      pop\n      jump\t// out\n        /* \"#utility.yul\":7466:7889   */\n    tag_190:\n        /* \"#utility.yul\":7607:7611   */\n      0x00\n        /* \"#utility.yul\":7645:7647   */\n      0x40\n        /* \"#utility.yul\":7634:7643   */\n      dup3\n        /* \"#utility.yul\":7630:7648   */\n      add\n        /* \"#utility.yul\":7622:7648   */\n      swap1\n      pop\n        /* \"#utility.yul\":7694:7703   */\n      dup2\n        /* \"#utility.yul\":7688:7692   */\n      dup2\n        /* \"#utility.yul\":7684:7704   */\n      sub\n        /* \"#utility.yul\":7680:7681   */\n      0x00\n        /* \"#utility.yul\":7669:7678   */\n      dup4\n        /* \"#utility.yul\":7665:7682   */\n      add\n        /* \"#utility.yul\":7658:7705   */\n      mstore\n        /* \"#utility.yul\":7722:7800   */\n      tag_357\n        /* \"#utility.yul\":7795:7799   */\n      dup2\n        /* \"#utility.yul\":7786:7792   */\n      dup6\n        /* \"#utility.yul\":7722:7800   */\n      tag_284\n      jump\t// in\n    tag_357:\n        /* \"#utility.yul\":7714:7800   */\n      swap1\n      pop\n        /* \"#utility.yul\":7810:7882   */\n      tag_358\n        /* \"#utility.yul\":7878:7880   */\n      0x20\n        /* \"#utility.yul\":7867:7876   */\n      dup4\n        /* \"#utility.yul\":7863:7881   */\n      add\n        /* \"#utility.yul\":7854:7860   */\n      dup5\n        /* \"#utility.yul\":7810:7882   */\n      tag_334\n      jump\t// in\n    tag_358:\n        /* \"#utility.yul\":7612:7889   */\n      swap4\n      swap3\n      pop\n      pop\n      pop\n      jump\t// out\n        /* \"#utility.yul\":7895:8314   */\n    tag_234:\n        /* \"#utility.yul\":8061:8065   */\n      0x00\n        /* \"#utility.yul\":8099:8101   */\n      0x20\n        /* \"#utility.yul\":8088:8097   */\n      dup3\n        /* \"#utility.yul\":8084:8102   */\n      add\n        /* \"#utility.yul\":8076:8102   */\n      swap1\n      pop\n        /* \"#utility.yul\":8148:8157   */\n      dup2\n        /* \"#utility.yul\":8142:8146   */\n      dup2\n        /* \"#utility.yul\":8138:8158   */\n      sub\n        /* \"#utility.yul\":8134:8135   */\n      0x00\n        /* \"#utility.yul\":8123:8132   */\n      dup4\n        /* \"#utility.yul\":8119:8136   */\n      add\n        /* \"#utility.yul\":8112:8159   */\n      mstore\n        /* \"#utility.yul\":8176:8307   */\n      tag_360\n        /* \"#utility.yul\":8302:8306   */\n      dup2\n        /* \"#utility.yul\":8176:8307   */\n      tag_294\n      jump\t// in\n    tag_360:\n        /* \"#utility.yul\":8168:8307   */\n      swap1\n      pop\n        /* \"#utility.yul\":8066:8314   */\n      swap2\n      swap1\n      pop\n      jump\t// out\n        /* \"#utility.yul\":8320:8739   */\n    tag_240:\n        /* \"#utility.yul\":8486:8490   */\n      0x00\n        /* \"#utility.yul\":8524:8526   */\n      0x20\n        /* \"#utility.yul\":8513:8522   */\n      dup3\n        /* \"#utility.yul\":8509:8527   */\n      add\n        /* \"#utility.yul\":8501:8527   */\n      swap1\n      pop\n        /* \"#utility.yul\":8573:8582   */\n      dup2\n        /* \"#utility.yul\":8567:8571   */\n      dup2\n        /* \"#utility.yul\":8563:8583   */\n      sub\n        /* \"#utility.yul\":8559:8560   */\n      0x00\n        /* \"#utility.yul\":8548:8557   */\n      dup4\n        /* \"#utility.yul\":8544:8561   */\n      add\n        /* \"#utility.yul\":8537:8584   */\n      mstore\n        /* \"#utility.yul\":8601:8732   */\n      tag_362\n        /* \"#utility.yul\":8727:8731   */\n      dup2\n        /* \"#utility.yul\":8601:8732   */\n      tag_299\n      jump\t// in\n    tag_362:\n        /* \"#utility.yul\":8593:8732   */\n      swap1\n      pop\n        /* \"#utility.yul\":8491:8739   */\n      swap2\n      swap1\n      pop\n      jump\t// out\n        /* \"#utility.yul\":8745:9164   */\n    tag_237:\n        /* \"#utility.yul\":8911:8915   */\n      0x00\n        /* \"#utility.yul\":8949:8951   */\n      0x20\n        /* \"#utility.yul\":8938:8947   */\n      dup3\n        /* \"#utility.yul\":8934:8952   */\n      add\n        /* \"#utility.yul\":8926:8952   */\n      swap1\n      pop\n        /* \"#utility.yul\":8998:9007   */\n      dup2\n        /* \"#utility.yul\":8992:8996   */\n      dup2\n        /* \"#utility.yul\":8988:9008   */\n      sub\n        /* \"#utility.yul\":8984:8985   */\n      0x00\n        /* \"#utility.yul\":8973:8982   */\n      dup4\n        /* \"#utility.yul\":8969:8986   */\n      add\n        /* \"#utility.yul\":8962:9009   */\n      mstore\n        /* \"#utility.yul\":9026:9157   */\n      tag_364\n        /* \"#utility.yul\":9152:9156   */\n      dup2\n        /* \"#utility.yul\":9026:9157   */\n      tag_304\n      jump\t// in\n    tag_364:\n        /* \"#utility.yul\":9018:9157   */\n      swap1\n      pop\n        /* \"#utility.yul\":8916:9164   */\n      swap2\n      swap1\n      pop\n      jump\t// out\n        /* \"#utility.yul\":9170:9589   */\n    tag_126:\n        /* \"#utility.yul\":9336:9340   */\n      0x00\n        /* \"#utility.yul\":9374:9376   */\n      0x20\n        /* \"#utility.yul\":9363:9372   */\n      dup3\n        /* \"#utility.yul\":9359:9377   */\n      add\n        /* \"#utility.yul\":9351:9377   */\n      swap1\n      pop\n        /* \"#utility.yul\":9423:9432   */\n      dup2\n        /* \"#utility.yul\":9417:9421   */\n      dup2\n        /* \"#utility.yul\":9413:9433   */\n      sub\n        /* \"#utility.yul\":9409:9410   */\n      0x00\n        /* \"#utility.yul\":9398:9407   */\n      dup4\n        /* \"#utility.yul\":9394:9411   */\n      add\n        /* \"#utility.yul\":9387:9434   */\n      mstore\n        /* \"#utility.yul\":9451:9582   */\n      tag_366\n        /* \"#utility.yul\":9577:9581   */\n      dup2\n        /* \"#utility.yul\":9451:9582   */\n      tag_309\n      jump\t// in\n    tag_366:\n        /* \"#utility.yul\":9443:9582   */\n      swap1\n      pop\n        /* \"#utility.yul\":9341:9589   */\n      swap2\n      swap1\n      pop\n      jump\t// out\n        /* \"#utility.yul\":9595:10014   */\n    tag_143:\n        /* \"#utility.yul\":9761:9765   */\n      0x00\n        /* \"#utility.yul\":9799:9801   */\n      0x20\n        /* \"#utility.yul\":9788:9797   */\n      dup3\n        /* \"#utility.yul\":9784:9802   */\n      add\n        /* \"#utility.yul\":9776:9802   */\n      swap1\n      pop\n        /* \"#utility.yul\":9848:9857   */\n      dup2\n        /* \"#utility.yul\":9842:9846   */\n      dup2\n        /* \"#utility.yul\":9838:9858   */\n      sub\n        /* \"#utility.yul\":9834:9835   */\n      0x00\n        /* \"#utility.yul\":9823:9832   */\n      dup4\n        /* \"#utility.yul\":9819:9836   */\n      add\n        /* \"#utility.yul\":9812:9859   */\n      mstore\n        /* \"#utility.yul\":9876:10007   */\n      tag_368\n        /* \"#utility.yul\":10002:10006   */\n      dup2\n        /* \"#utility.yul\":9876:10007   */\n      tag_314\n      jump\t// in\n    tag_368:\n        /* \"#utility.yul\":9868:10007   */\n      swap1\n      pop\n        /* \"#utility.yul\":9766:10014   */\n      swap2\n      swap1\n      pop\n      jump\t// out\n        /* \"#utility.yul\":10020:10439   */\n    tag_133:\n        /* \"#utility.yul\":10186:10190   */\n      0x00\n        /* \"#utility.yul\":10224:10226   */\n      0x20\n        /* \"#utility.yul\":10213:10222   */\n      dup3\n        /* \"#utility.yul\":10209:10227   */\n      add\n        /* \"#utility.yul\":10201:10227   */\n      swap1\n      pop\n        /* \"#utility.yul\":10273:10282   */\n      dup2\n        /* \"#utility.yul\":10267:10271   */\n      dup2\n        /* \"#utility.yul\":10263:10283   */\n      sub\n        /* \"#utility.yul\":10259:10260   */\n      0x00\n        /* \"#utility.yul\":10248:10257   */\n      dup4\n        /* \"#utility.yul\":10244:10261   */\n      add\n        /* \"#utility.yul\":10237:10284   */\n      mstore\n        /* \"#utility.yul\":10301:10432   */\n      tag_370\n        /* \"#utility.yul\":10427:10431   */\n      dup2\n        /* \"#utility.yul\":10301:10432   */\n      tag_319\n      jump\t// in\n    tag_370:\n        /* \"#utility.yul\":10293:10432   */\n      swap1\n      pop\n        /* \"#utility.yul\":10191:10439   */\n      swap2\n      swap1\n      pop\n      jump\t// out\n        /* \"#utility.yul\":10445:10864   */\n    tag_151:\n        /* \"#utility.yul\":10611:10615   */\n      0x00\n        /* \"#utility.yul\":10649:10651   */\n      0x20\n        /* \"#utility.yul\":10638:10647   */\n      dup3\n        /* \"#utility.yul\":10634:10652   */\n      add\n        /* \"#utility.yul\":10626:10652   */\n      swap1\n      pop\n        /* \"#utility.yul\":10698:10707   */\n      dup2\n        /* \"#utility.yul\":10692:10696   */\n      dup2\n        /* \"#utility.yul\":10688:10708   */\n      sub\n        /* \"#utility.yul\":10684:10685   */\n      0x00\n        /* \"#utility.yul\":10673:10682   */\n      dup4\n        /* \"#utility.yul\":10669:10686   */\n      add\n        /* \"#utility.yul\":10662:10709   */\n      mstore\n        /* \"#utility.yul\":10726:10857   */\n      tag_372\n        /* \"#utility.yul\":10852:10856   */\n      dup2\n        /* \"#utility.yul\":10726:10857   */\n      tag_324\n      jump\t// in\n    tag_372:\n        /* \"#utility.yul\":10718:10857   */\n      swap1\n      pop\n        /* \"#utility.yul\":10616:10864   */\n      swap2\n      swap1\n      pop\n      jump\t// out\n        /* \"#utility.yul\":10870:11289   */\n    tag_206:\n        /* \"#utility.yul\":11036:11040   */\n      0x00\n        /* \"#utility.yul\":11074:11076   */\n      0x20\n        /* \"#utility.yul\":11063:11072   */\n      dup3\n        /* \"#utility.yul\":11059:11077   */\n      add\n        /* \"#utility.yul\":11051:11077   */\n      swap1\n      pop\n        /* \"#utility.yul\":11123:11132   */\n      dup2\n        /* \"#utility.yul\":11117:11121   */\n      dup2\n        /* \"#utility.yul\":11113:11133   */\n      sub\n        /* \"#utility.yul\":11109:11110   */\n      0x00\n        /* \"#utility.yul\":11098:11107   */\n      dup4\n        /* \"#utility.yul\":11094:11111   */\n      add\n        /* \"#utility.yul\":11087:11134   */\n      mstore\n        /* \"#utility.yul\":11151:11282   */\n      tag_374\n        /* \"#utility.yul\":11277:11281   */\n      dup2\n        /* \"#utility.yul\":11151:11282   */\n      tag_329\n      jump\t// in\n    tag_374:\n        /* \"#utility.yul\":11143:11282   */\n      swap1\n      pop\n        /* \"#utility.yul\":11041:11289   */\n      swap2\n      swap1\n      pop\n      jump\t// out\n        /* \"#utility.yul\":11295:11517   */\n    tag_41:\n        /* \"#utility.yul\":11388:11392   */\n      0x00\n        /* \"#utility.yul\":11426:11428   */\n      0x20\n        /* \"#utility.yul\":11415:11424   */\n      dup3\n        /* \"#utility.yul\":11411:11429   */\n      add\n        /* \"#utility.yul\":11403:11429   */\n      swap1\n      pop\n        /* \"#utility.yul\":11439:11510   */\n      tag_376\n        /* \"#utility.yul\":11507:11508   */\n      0x00\n        /* \"#utility.yul\":11496:11505   */\n      dup4\n        /* \"#utility.yul\":11492:11509   */\n      add\n        /* \"#utility.yul\":11483:11489   */\n      dup5\n        /* \"#utility.yul\":11439:11510   */\n      tag_334\n      jump\t// in\n    tag_376:\n        /* \"#utility.yul\":11393:11517   */\n      swap3\n      swap2\n      pop\n      pop\n      jump\t// out\n        /* \"#utility.yul\":11523:11855   */\n    tag_214:\n        /* \"#utility.yul\":11644:11648   */\n      0x00\n        /* \"#utility.yul\":11682:11684   */\n      0x40\n        /* \"#utility.yul\":11671:11680   */\n      dup3\n        /* \"#utility.yul\":11667:11685   */\n      add\n        /* \"#utility.yul\":11659:11685   */\n      swap1\n      pop\n        /* \"#utility.yul\":11695:11766   */\n      tag_378\n        /* \"#utility.yul\":11763:11764   */\n      0x00\n        /* \"#utility.yul\":11752:11761   */\n      dup4\n        /* \"#utility.yul\":11748:11765   */\n      add\n        /* \"#utility.yul\":11739:11745   */\n      dup6\n        /* \"#utility.yul\":11695:11766   */\n      tag_334\n      jump\t// in\n    tag_378:\n        /* \"#utility.yul\":11776:11848   */\n      tag_379\n        /* \"#utility.yul\":11844:11846   */\n      0x20\n        /* \"#utility.yul\":11833:11842   */\n      dup4\n        /* \"#utility.yul\":11829:11847   */\n      add\n        /* \"#utility.yul\":11820:11826   */\n      dup5\n        /* \"#utility.yul\":11776:11848   */\n      tag_334\n      jump\t// in\n    tag_379:\n        /* \"#utility.yul\":11649:11855   */\n      swap4\n      swap3\n      pop\n      pop\n      pop\n      jump\t// out\n        /* \"#utility.yul\":11861:12075   */\n    tag_53:\n        /* \"#utility.yul\":11950:11954   */\n      0x00\n        /* \"#utility.yul\":11988:11990   */\n      0x20\n        /* \"#utility.yul\":11977:11986   */\n      dup3\n        /* \"#utility.yul\":11973:11991   */\n      add\n        /* \"#utility.yul\":11965:11991   */\n      swap1\n      pop\n        /* \"#utility.yul\":12001:12068   */\n      tag_381\n        /* \"#utility.yul\":12065:12066   */\n      0x00\n        /* \"#utility.yul\":12054:12063   */\n      dup4\n        /* \"#utility.yul\":12050:12067   */\n      add\n        /* \"#utility.yul\":12041:12047   */\n      dup5\n        /* \"#utility.yul\":12001:12068   */\n      tag_343\n      jump\t// in\n    tag_381:\n        /* \"#utility.yul\":11955:12075   */\n      swap3\n      swap2\n      pop\n      pop\n      jump\t// out\n        /* \"#utility.yul\":12081:12180   */\n    tag_287:\n        /* \"#utility.yul\":12133:12139   */\n      0x00\n        /* \"#utility.yul\":12167:12172   */\n      dup2\n        /* \"#utility.yul\":12161:12173   */\n      mload\n        /* \"#utility.yul\":12151:12173   */\n      swap1\n      pop\n        /* \"#utility.yul\":12140:12180   */\n      swap2\n      swap1\n      pop\n      jump\t// out\n        /* \"#utility.yul\":12186:12355   */\n    tag_289:\n        /* \"#utility.yul\":12270:12281   */\n      0x00\n        /* \"#utility.yul\":12304:12310   */\n      dup3\n        /* \"#utility.yul\":12299:12302   */\n      dup3\n        /* \"#utility.yul\":12292:12311   */\n      mstore\n        /* \"#utility.yul\":12344:12348   */\n      0x20\n        /* \"#utility.yul\":12339:12342   */\n      dup3\n        /* \"#utility.yul\":12335:12349   */\n      add\n        /* \"#utility.yul\":12320:12349   */\n      swap1\n      pop\n        /* \"#utility.yul\":12282:12355   */\n      swap3\n      swap2\n      pop\n      pop\n      jump\t// out\n        /* \"#utility.yul\":12361:12666   */\n    tag_119:\n        /* \"#utility.yul\":12401:12404   */\n      0x00\n        /* \"#utility.yul\":12420:12440   */\n      tag_385\n        /* \"#utility.yul\":12438:12439   */\n      dup3\n        /* \"#utility.yul\":12420:12440   */\n      tag_337\n      jump\t// in\n    tag_385:\n        /* \"#utility.yul\":12415:12440   */\n      swap2\n      pop\n        /* \"#utility.yul\":12454:12474   */\n      tag_386\n        /* \"#utility.yul\":12472:12473   */\n      dup4\n        /* \"#utility.yul\":12454:12474   */\n      tag_337\n      jump\t// in\n    tag_386:\n        /* \"#utility.yul\":12449:12474   */\n      swap3\n      pop\n        /* \"#utility.yul\":12608:12609   */\n      dup3\n        /* \"#utility.yul\":12540:12606   */\n      0xffffffffffffffffffffffffffffffffffffffffffffffffffffffffffffffff\n        /* \"#utility.yul\":12536:12610   */\n      sub\n        /* \"#utility.yul\":12533:12534   */\n      dup3\n        /* \"#utility.yul\":12530:12611   */\n      gt\n        /* \"#utility.yul\":12527:12529   */\n      iszero\n      tag_387\n      jumpi\n        /* \"#utility.yul\":12614:12632   */\n      tag_388\n      tag_389\n      jump\t// in\n    tag_388:\n        /* \"#utility.yul\":12527:12529   */\n    tag_387:\n        /* \"#utility.yul\":12658:12659   */\n      dup3\n        /* \"#utility.yul\":12655:12656   */\n      dup3\n        /* \"#utility.yul\":12651:12660   */\n      add\n        /* \"#utility.yul\":12644:12660   */\n      swap1\n      pop\n        /* \"#utility.yul\":12405:12666   */\n      swap3\n      swap2\n      pop\n      pop\n      jump\t// out\n        /* \"#utility.yul\":12672:12857   */\n    tag_121:\n        /* \"#utility.yul\":12712:12713   */\n      0x00\n        /* \"#utility.yul\":12729:12749   */\n      tag_391\n        /* \"#utility.yul\":12747:12748   */\n      dup3\n        /* \"#utility.yul\":12729:12749   */\n      tag_337\n      jump\t// in\n    tag_391:\n        /* \"#utility.yul\":12724:12749   */\n      swap2\n      pop\n        /* \"#utility.yul\":12763:12783   */\n      tag_392\n        /* \"#utility.yul\":12781:12782   */\n      dup4\n        /* \"#utility.yul\":12763:12783   */\n      tag_337\n      jump\t// in\n    tag_392:\n        /* \"#utility.yul\":12758:12783   */\n      swap3\n      pop\n        /* \"#utility.yul\":12802:12803   */\n      dup3\n        /* \"#utility.yul\":12792:12794   */\n      tag_393\n      jumpi\n        /* \"#utility.yul\":12807:12825   */\n      tag_394\n      tag_395\n      jump\t// in\n    tag_394:\n        /* \"#utility.yul\":12792:12794   */\n    tag_393:\n        /* \"#utility.yul\":12849:12850   */\n      dup3\n        /* \"#utility.yul\":12846:12847   */\n      dup3\n        /* \"#utility.yul\":12842:12851   */\n      div\n        /* \"#utility.yul\":12837:12851   */\n      swap1\n      pop\n        /* \"#utility.yul\":12714:12857   */\n      swap3\n      swap2\n      pop\n      pop\n      jump\t// out\n        /* \"#utility.yul\":12863:13711   */\n    tag_396:\n        /* \"#utility.yul\":12924:12929   */\n      0x00\n        /* \"#utility.yul\":12931:12935   */\n      dup1\n        /* \"#utility.yul\":12955:12961   */\n      dup3\n        /* \"#utility.yul\":12946:12961   */\n      swap2\n      pop\n        /* \"#utility.yul\":12979:12984   */\n      dup4\n        /* \"#utility.yul\":12970:12984   */\n      swap1\n      pop\n        /* \"#utility.yul\":12993:13705   */\n    tag_398:\n        /* \"#utility.yul\":13014:13015   */\n      0x01\n        /* \"#utility.yul\":13004:13012   */\n      dup6\n        /* \"#utility.yul\":13001:13016   */\n      gt\n        /* \"#utility.yul\":12993:13705   */\n      iszero\n      tag_400\n      jumpi\n        /* \"#utility.yul\":13109:13113   */\n      dup1\n        /* \"#utility.yul\":13104:13107   */\n      dup7\n        /* \"#utility.yul\":13100:13114   */\n      div\n        /* \"#utility.yul\":13094:13098   */\n      dup2\n        /* \"#utility.yul\":13091:13115   */\n      gt\n        /* \"#utility.yul\":13088:13090   */\n      iszero\n      tag_401\n      jumpi\n        /* \"#utility.yul\":13118:13136   */\n      tag_402\n      tag_389\n      jump\t// in\n    tag_402:\n        /* \"#utility.yul\":13088:13090   */\n    tag_401:\n        /* \"#utility.yul\":13168:13169   */\n      0x01\n        /* \"#utility.yul\":13158:13166   */\n      dup6\n        /* \"#utility.yul\":13154:13170   */\n      and\n        /* \"#utility.yul\":13151:13153   */\n      iszero\n      tag_403\n      jumpi\n        /* \"#utility.yul\":13583:13587   */\n      dup1\n        /* \"#utility.yul\":13576:13581   */\n      dup3\n        /* \"#utility.yul\":13572:13588   */\n      mul\n        /* \"#utility.yul\":13563:13588   */\n      swap2\n      pop\n        /* \"#utility.yul\":13151:13153   */\n    tag_403:\n        /* \"#utility.yul\":13633:13637   */\n      dup1\n        /* \"#utility.yul\":13627:13631   */\n      dup2\n        /* \"#utility.yul\":13623:13638   */\n      mul\n        /* \"#utility.yul\":13615:13638   */\n      swap1\n      pop\n        /* \"#utility.yul\":13663:13695   */\n      tag_404\n        /* \"#utility.yul\":13686:13694   */\n      dup6\n        /* \"#utility.yul\":13663:13695   */\n      tag_405\n      jump\t// in\n    tag_404:\n        /* \"#utility.yul\":13651:13695   */\n      swap5\n      pop\n        /* \"#utility.yul\":12993:13705   */\n      jump(tag_398)\n    tag_400:\n        /* \"#utility.yul\":12936:13711   */\n      swap5\n      pop\n      swap5\n      swap3\n      pop\n      pop\n      pop\n      jump\t// out\n        /* \"#utility.yul\":13717:14002   */\n    tag_146:\n        /* \"#utility.yul\":13777:13782   */\n      0x00\n        /* \"#utility.yul\":13801:13824   */\n      tag_407\n        /* \"#utility.yul\":13819:13823   */\n      dup3\n        /* \"#utility.yul\":13801:13824   */\n      tag_337\n      jump\t// in\n    tag_407:\n        /* \"#utility.yul\":13793:13824   */\n      swap2\n      pop\n        /* \"#utility.yul\":13845:13872   */\n      tag_408\n        /* \"#utility.yul\":13863:13871   */\n      dup4\n        /* \"#utility.yul\":13845:13872   */\n      tag_337\n      jump\t// in\n    tag_408:\n        /* \"#utility.yul\":13833:13872   */\n      swap3\n      pop\n        /* \"#utility.yul\":13891:13995   */\n      tag_409\n        /* \"#utility.yul\":13928:13994   */\n      0xffffffffffffffffffffffffffffffffffffffffffffffffffffffffffffffff\n        /* \"#utility.yul\":13918:13926   */\n      dup5\n        /* \"#utility.yul\":13912:13916   */\n      dup5\n        /* \"#utility.yul\":13891:13995   */\n      tag_410\n      jump\t// in\n    tag_409:\n        /* \"#utility.yul\":13882:13995   */\n      swap1\n      pop\n        /* \"#utility.yul\":13783:14002   */\n      swap3\n      swap2\n      pop\n      pop\n      jump\t// out\n        /* \"#utility.yul\":14008:15081   */\n    tag_410:\n        /* \"#utility.yul\":14062:14067   */\n      0x00\n        /* \"#utility.yul\":14253:14261   */\n      dup3\n        /* \"#utility.yul\":14243:14245   */\n      tag_412\n      jumpi\n        /* \"#utility.yul\":14274:14275   */\n      0x01\n        /* \"#utility.yul\":14265:14275   */\n      swap1\n      pop\n        /* \"#utility.yul\":14276:14281   */\n      jump(tag_411)\n        /* \"#utility.yul\":14243:14245   */\n    tag_412:\n        /* \"#utility.yul\":14302:14306   */\n      dup2\n        /* \"#utility.yul\":14292:14294   */\n      tag_413\n      jumpi\n        /* \"#utility.yul\":14319:14320   */\n      0x00\n        /* \"#utility.yul\":14310:14320   */\n      swap1\n      pop\n        /* \"#utility.yul\":14321:14326   */\n      jump(tag_411)\n        /* \"#utility.yul\":14292:14294   */\n    tag_413:\n        /* \"#utility.yul\":14388:14392   */\n      dup2\n        /* \"#utility.yul\":14436:14437   */\n      0x01\n        /* \"#utility.yul\":14431:14458   */\n      dup2\n      eq\n      tag_415\n      jumpi\n        /* \"#utility.yul\":14472:14473   */\n      0x02\n        /* \"#utility.yul\":14467:14658   */\n      dup2\n      eq\n      tag_416\n      jumpi\n        /* \"#utility.yul\":14381:14658   */\n      jump(tag_414)\n        /* \"#utility.yul\":14431:14458   */\n    tag_415:\n        /* \"#utility.yul\":14449:14450   */\n      0x01\n        /* \"#utility.yul\":14440:14450   */\n      swap2\n      pop\n        /* \"#utility.yul\":14451:14456   */\n      pop\n      jump(tag_411)\n        /* \"#utility.yul\":14467:14658   */\n    tag_416:\n        /* \"#utility.yul\":14512:14515   */\n      0xff\n        /* \"#utility.yul\":14502:14510   */\n      dup5\n        /* \"#utility.yul\":14499:14516   */\n      gt\n        /* \"#utility.yul\":14496:14498   */\n      iszero\n      tag_417\n      jumpi\n        /* \"#utility.yul\":14519:14537   */\n      tag_418\n      tag_389\n      jump\t// in\n    tag_418:\n        /* \"#utility.yul\":14496:14498   */\n    tag_417:\n        /* \"#utility.yul\":14568:14576   */\n      dup4\n        /* \"#utility.yul\":14565:14566   */\n      0x02\n        /* \"#utility.yul\":14561:14577   */\n      exp\n        /* \"#utility.yul\":14552:14577   */\n      swap2\n      pop\n        /* \"#utility.yul\":14603:14606   */\n      dup5\n        /* \"#utility.yul\":14596:14601   */\n      dup3\n        /* \"#utility.yul\":14593:14607   */\n      gt\n        /* \"#utility.yul\":14590:14592   */\n      iszero\n      tag_419\n      jumpi\n        /* \"#utility.yul\":14610:14628   */\n      tag_420\n      tag_389\n      jump\t// in\n    tag_420:\n        /* \"#utility.yul\":14590:14592   */\n    tag_419:\n        /* \"#utility.yul\":14643:14648   */\n      pop\n      jump(tag_411)\n        /* \"#utility.yul\":14381:14658   */\n    tag_414:\n      pop\n        /* \"#utility.yul\":14767:14769   */\n      0x20\n        /* \"#utility.yul\":14757:14765   */\n      dup4\n        /* \"#utility.yul\":14754:14770   */\n      lt\n        /* \"#utility.yul\":14748:14751   */\n      0x0133\n        /* \"#utility.yul\":14742:14746   */\n      dup4\n        /* \"#utility.yul\":14739:14752   */\n      lt\n        /* \"#utility.yul\":14735:14771   */\n      and\n        /* \"#utility.yul\":14717:14719   */\n      0x4e\n        /* \"#utility.yul\":14707:14715   */\n      dup5\n        /* \"#utility.yul\":14704:14720   */\n      lt\n        /* \"#utility.yul\":14699:14701   */\n      0x0b\n        /* \"#utility.yul\":14693:14697   */\n      dup5\n        /* \"#utility.yul\":14690:14702   */\n      lt\n        /* \"#utility.yul\":14686:14721   */\n      and\n        /* \"#utility.yul\":14670:14781   */\n      or\n        /* \"#utility.yul\":14667:14669   */\n      iszero\n      tag_421\n      jumpi\n        /* \"#utility.yul\":14823:14831   */\n      dup3\n        /* \"#utility.yul\":14817:14821   */\n      dup3\n        /* \"#utility.yul\":14813:14832   */\n      exp\n        /* \"#utility.yul\":14804:14832   */\n      swap1\n      pop\n        /* \"#utility.yul\":14858:14861   */\n      dup4\n        /* \"#utility.yul\":14851:14856   */\n      dup2\n        /* \"#utility.yul\":14848:14862   */\n      gt\n        /* \"#utility.yul\":14845:14847   */\n      iszero\n      tag_422\n      jumpi\n        /* \"#utility.yul\":14865:14883   */\n      tag_423\n      tag_389\n      jump\t// in\n    tag_423:\n        /* \"#utility.yul\":14845:14847   */\n    tag_422:\n        /* \"#utility.yul\":14898:14903   */\n      jump(tag_411)\n        /* \"#utility.yul\":14667:14669   */\n    tag_421:\n        /* \"#utility.yul\":14938:14980   */\n      tag_424\n        /* \"#utility.yul\":14976:14979   */\n      dup5\n        /* \"#utility.yul\":14966:14974   */\n      dup5\n        /* \"#utility.yul\":14960:14964   */\n      dup5\n        /* \"#utility.yul\":14957:14958   */\n      0x01\n        /* \"#utility.yul\":14938:14980   */\n      tag_396\n      jump\t// in\n    tag_424:\n        /* \"#utility.yul\":14923:14980   */\n      swap3\n      pop\n      swap1\n      pop\n        /* \"#utility.yul\":15012:15016   */\n      dup2\n        /* \"#utility.yul\":15007:15010   */\n      dup5\n        /* \"#utility.yul\":15003:15017   */\n      div\n        /* \"#utility.yul\":14996:15001   */\n      dup2\n        /* \"#utility.yul\":14993:15018   */\n      gt\n        /* \"#utility.yul\":14990:14992   */\n      iszero\n      tag_425\n      jumpi\n        /* \"#utility.yul\":15021:15039   */\n      tag_426\n      tag_389\n      jump\t// in\n    tag_426:\n        /* \"#utility.yul\":14990:14992   */\n    tag_425:\n        /* \"#utility.yul\":15070:15074   */\n      dup2\n        /* \"#utility.yul\":15063:15068   */\n      dup2\n        /* \"#utility.yul\":15059:15075   */\n      mul\n        /* \"#utility.yul\":15050:15075   */\n      swap1\n      pop\n        /* \"#utility.yul\":14068:15081   */\n    tag_411:\n      swap4\n      swap3\n      pop\n      pop\n      pop\n      jump\t// out\n        /* \"#utility.yul\":15087:15435   */\n    tag_148:\n        /* \"#utility.yul\":15127:15134   */\n      0x00\n        /* \"#utility.yul\":15150:15170   */\n      tag_428\n        /* \"#utility.yul\":15168:15169   */\n      dup3\n        /* \"#utility.yul\":15150:15170   */\n      tag_337\n      jump\t// in\n    tag_428:\n        /* \"#utility.yul\":15145:15170   */\n      swap2\n      pop\n        /* \"#utility.yul\":15184:15204   */\n      tag_429\n        /* \"#utility.yul\":15202:15203   */\n      dup4\n        /* \"#utility.yul\":15184:15204   */\n      tag_337\n      jump\t// in\n    tag_429:\n        /* \"#utility.yul\":15179:15204   */\n      swap3\n      pop\n        /* \"#utility.yul\":15372:15373   */\n      dup2\n        /* \"#utility.yul\":15304:15370   */\n      0xffffffffffffffffffffffffffffffffffffffffffffffffffffffffffffffff\n        /* \"#utility.yul\":15300:15374   */\n      div\n        /* \"#utility.yul\":15297:15298   */\n      dup4\n        /* \"#utility.yul\":15294:15375   */\n      gt\n        /* \"#utility.yul\":15289:15290   */\n      dup3\n        /* \"#utility.yul\":15282:15291   */\n      iszero\n        /* \"#utility.yul\":15275:15292   */\n      iszero\n        /* \"#utility.yul\":15271:15376   */\n      and\n        /* \"#utility.yul\":15268:15270   */\n      iszero\n      tag_430\n      jumpi\n        /* \"#utility.yul\":15379:15397   */\n      tag_431\n      tag_389\n      jump\t// in\n    tag_431:\n        /* \"#utility.yul\":15268:15270   */\n    tag_430:\n        /* \"#utility.yul\":15427:15428   */\n      dup3\n        /* \"#utility.yul\":15424:15425   */\n      dup3\n        /* \"#utility.yul\":15420:15429   */\n      mul\n        /* \"#utility.yul\":15409:15429   */\n      swap1\n      pop\n        /* \"#utility.yul\":15135:15435   */\n      swap3\n      swap2\n      pop\n      pop\n      jump\t// out\n        /* \"#utility.yul\":15441:15632   */\n    tag_117:\n        /* \"#utility.yul\":15481:15485   */\n      0x00\n        /* \"#utility.yul\":15501:15521   */\n      tag_433\n        /* \"#utility.yul\":15519:15520   */\n      dup3\n        /* \"#utility.yul\":15501:15521   */\n      tag_337\n      jump\t// in\n    tag_433:\n        /* \"#utility.yul\":15496:15521   */\n      swap2\n      pop\n        /* \"#utility.yul\":15535:15555   */\n      tag_434\n        /* \"#utility.yul\":15553:15554   */\n      dup4\n        /* \"#utility.yul\":15535:15555   */\n      tag_337\n      jump\t// in\n    tag_434:\n        /* \"#utility.yul\":15530:15555   */\n      swap3\n      pop\n        /* \"#utility.yul\":15574:15575   */\n      dup3\n        /* \"#utility.yul\":15571:15572   */\n      dup3\n        /* \"#utility.yul\":15568:15576   */\n      lt\n        /* \"#utility.yul\":15565:15567   */\n      iszero\n      tag_435\n      jumpi\n        /* \"#utility.yul\":15579:15597   */\n      tag_436\n      tag_389\n      jump\t// in\n    tag_436:\n        /* \"#utility.yul\":15565:15567   */\n    tag_435:\n        /* \"#utility.yul\":15624:15625   */\n      dup3\n        /* \"#utility.yul\":15621:15622   */\n      dup3\n        /* \"#utility.yul\":15617:15626   */\n      sub\n        /* \"#utility.yul\":15609:15626   */\n      swap1\n      pop\n        /* \"#utility.yul\":15486:15632   */\n      swap3\n      swap2\n      pop\n      pop\n      jump\t// out\n        /* \"#utility.yul\":15638:15734   */\n    tag_278:\n        /* \"#utility.yul\":15675:15682   */\n      0x00\n        /* \"#utility.yul\":15704:15728   */\n      tag_438\n        /* \"#utility.yul\":15722:15727   */\n      dup3\n        /* \"#utility.yul\":15704:15728   */\n      tag_439\n      jump\t// in\n    tag_438:\n        /* \"#utility.yul\":15693:15728   */\n      swap1\n      pop\n        /* \"#utility.yul\":15683:15734   */\n      swap2\n      swap1\n      pop\n      jump\t// out\n        /* \"#utility.yul\":15740:15830   */\n    tag_283:\n        /* \"#utility.yul\":15774:15781   */\n      0x00\n        /* \"#utility.yul\":15817:15822   */\n      dup2\n        /* \"#utility.yul\":15810:15823   */\n      iszero\n        /* \"#utility.yul\":15803:15824   */\n      iszero\n        /* \"#utility.yul\":15792:15824   */\n      swap1\n      pop\n        /* \"#utility.yul\":15782:15830   */\n      swap2\n      swap1\n      pop\n      jump\t// out\n        /* \"#utility.yul\":15836:15962   */\n    tag_439:\n        /* \"#utility.yul\":15873:15880   */\n      0x00\n        /* \"#utility.yul\":15913:15955   */\n      0xffffffffffffffffffffffffffffffffffffffff\n        /* \"#utility.yul\":15906:15911   */\n      dup3\n        /* \"#utility.yul\":15902:15956   */\n      and\n        /* \"#utility.yul\":15891:15956   */\n      swap1\n      pop\n        /* \"#utility.yul\":15881:15962   */\n      swap2\n      swap1\n      pop\n      jump\t// out\n        /* \"#utility.yul\":15968:16045   */\n    tag_337:\n        /* \"#utility.yul\":16005:16012   */\n      0x00\n        /* \"#utility.yul\":16034:16039   */\n      dup2\n        /* \"#utility.yul\":16023:16039   */\n      swap1\n      pop\n        /* \"#utility.yul\":16013:16045   */\n      swap2\n      swap1\n      pop\n      jump\t// out\n        /* \"#utility.yul\":16051:16137   */\n    tag_346:\n        /* \"#utility.yul\":16086:16093   */\n      0x00\n        /* \"#utility.yul\":16126:16130   */\n      0xff\n        /* \"#utility.yul\":16119:16124   */\n      dup3\n        /* \"#utility.yul\":16115:16131   */\n      and\n        /* \"#utility.yul\":16104:16131   */\n      swap1\n      pop\n        /* \"#utility.yul\":16094:16137   */\n      swap2\n      swap1\n      pop\n      jump\t// out\n        /* \"#utility.yul\":16143:16450   */\n    tag_291:\n        /* \"#utility.yul\":16211:16212   */\n      0x00\n        /* \"#utility.yul\":16221:16334   */\n    tag_445:\n        /* \"#utility.yul\":16235:16241   */\n      dup4\n        /* \"#utility.yul\":16232:16233   */\n      dup2\n        /* \"#utility.yul\":16229:16242   */\n      lt\n        /* \"#utility.yul\":16221:16334   */\n      iszero\n      tag_447\n      jumpi\n        /* \"#utility.yul\":16320:16321   */\n      dup1\n        /* \"#utility.yul\":16315:16318   */\n      dup3\n        /* \"#utility.yul\":16311:16322   */\n      add\n        /* \"#utility.yul\":16305:16323   */\n      mload\n        /* \"#utility.yul\":16301:16302   */\n      dup2\n        /* \"#utility.yul\":16296:16299   */\n      dup5\n        /* \"#utility.yul\":16292:16303   */\n      add\n        /* \"#utility.yul\":16285:16324   */\n      mstore\n        /* \"#utility.yul\":16257:16259   */\n      0x20\n        /* \"#utility.yul\":16254:16255   */\n      dup2\n        /* \"#utility.yul\":16250:16260   */\n      add\n        /* \"#utility.yul\":16245:16260   */\n      swap1\n      pop\n        /* \"#utility.yul\":16221:16334   */\n      jump(tag_445)\n    tag_447:\n        /* \"#utility.yul\":16352:16358   */\n      dup4\n        /* \"#utility.yul\":16349:16350   */\n      dup2\n        /* \"#utility.yul\":16346:16359   */\n      gt\n        /* \"#utility.yul\":16343:16345   */\n      iszero\n      tag_448\n      jumpi\n        /* \"#utility.yul\":16432:16433   */\n      0x00\n        /* \"#utility.yul\":16423:16429   */\n      dup5\n        /* \"#utility.yul\":16418:16421   */\n      dup5\n        /* \"#utility.yul\":16414:16430   */\n      add\n        /* \"#utility.yul\":16407:16434   */\n      mstore\n        /* \"#utility.yul\":16343:16345   */\n    tag_448:\n        /* \"#utility.yul\":16192:16450   */\n      pop\n      pop\n      pop\n      pop\n      jump\t// out\n        /* \"#utility.yul\":16456:16776   */\n    tag_108:\n        /* \"#utility.yul\":16500:16506   */\n      0x00\n        /* \"#utility.yul\":16537:16538   */\n      0x02\n        /* \"#utility.yul\":16531:16535   */\n      dup3\n        /* \"#utility.yul\":16527:16539   */\n      div\n        /* \"#utility.yul\":16517:16539   */\n      swap1\n      pop\n        /* \"#utility.yul\":16584:16585   */\n      0x01\n        /* \"#utility.yul\":16578:16582   */\n      dup3\n        /* \"#utility.yul\":16574:16586   */\n      and\n        /* \"#utility.yul\":16605:16623   */\n      dup1\n        /* \"#utility.yul\":16595:16597   */\n      tag_450\n      jumpi\n        /* \"#utility.yul\":16661:16665   */\n      0x7f\n        /* \"#utility.yul\":16653:16659   */\n      dup3\n        /* \"#utility.yul\":16649:16666   */\n      and\n        /* \"#utility.yul\":16639:16666   */\n      swap2\n      pop\n        /* \"#utility.yul\":16595:16597   */\n    tag_450:\n        /* \"#utility.yul\":16723:16725   */\n      0x20\n        /* \"#utility.yul\":16715:16721   */\n      dup3\n        /* \"#utility.yul\":16712:16726   */\n      lt\n        /* \"#utility.yul\":16692:16710   */\n      dup2\n        /* \"#utility.yul\":16689:16727   */\n      eq\n        /* \"#utility.yul\":16686:16688   */\n      iszero\n      tag_451\n      jumpi\n        /* \"#utility.yul\":16742:16760   */\n      tag_452\n      tag_453\n      jump\t// in\n    tag_452:\n        /* \"#utility.yul\":16686:16688   */\n    tag_451:\n        /* \"#utility.yul\":16507:16776   */\n      pop\n      swap2\n      swap1\n      pop\n      jump\t// out\n        /* \"#utility.yul\":16782:16882   */\n    tag_279:\n        /* \"#utility.yul\":16821:16828   */\n      0x00\n        /* \"#utility.yul\":16850:16876   */\n      tag_455\n        /* \"#utility.yul\":16870:16875   */\n      dup3\n        /* \"#utility.yul\":16850:16876   */\n      tag_456\n      jump\t// in\n    tag_455:\n        /* \"#utility.yul\":16839:16876   */\n      swap1\n      pop\n        /* \"#utility.yul\":16829:16882   */\n      swap2\n      swap1\n      pop\n      jump\t// out\n        /* \"#utility.yul\":16888:16982   */\n    tag_456:\n        /* \"#utility.yul\":16927:16934   */\n      0x00\n        /* \"#utility.yul\":16956:16976   */\n      tag_458\n        /* \"#utility.yul\":16970:16975   */\n      dup3\n        /* \"#utility.yul\":16956:16976   */\n      tag_459\n      jump\t// in\n    tag_458:\n        /* \"#utility.yul\":16945:16976   */\n      swap1\n      pop\n        /* \"#utility.yul\":16935:16982   */\n      swap2\n      swap1\n      pop\n      jump\t// out\n        /* \"#utility.yul\":16988:17067   */\n    tag_342:\n        /* \"#utility.yul\":17027:17034   */\n      0x00\n        /* \"#utility.yul\":17056:17061   */\n      dup2\n        /* \"#utility.yul\":17045:17061   */\n      swap1\n      pop\n        /* \"#utility.yul\":17035:17067   */\n      swap2\n      swap1\n      pop\n      jump\t// out\n        /* \"#utility.yul\":17073:17249   */\n    tag_167:\n        /* \"#utility.yul\":17105:17106   */\n      0x00\n        /* \"#utility.yul\":17122:17142   */\n      tag_462\n        /* \"#utility.yul\":17140:17141   */\n      dup3\n        /* \"#utility.yul\":17122:17142   */\n      tag_337\n      jump\t// in\n    tag_462:\n        /* \"#utility.yul\":17117:17142   */\n      swap2\n      pop\n        /* \"#utility.yul\":17156:17176   */\n      tag_463\n        /* \"#utility.yul\":17174:17175   */\n      dup4\n        /* \"#utility.yul\":17156:17176   */\n      tag_337\n      jump\t// in\n    tag_463:\n        /* \"#utility.yul\":17151:17176   */\n      swap3\n      pop\n        /* \"#utility.yul\":17195:17196   */\n      dup3\n        /* \"#utility.yul\":17185:17187   */\n      tag_464\n      jumpi\n        /* \"#utility.yul\":17200:17218   */\n      tag_465\n      tag_395\n      jump\t// in\n    tag_465:\n        /* \"#utility.yul\":17185:17187   */\n    tag_464:\n        /* \"#utility.yul\":17241:17242   */\n      dup3\n        /* \"#utility.yul\":17238:17239   */\n      dup3\n        /* \"#utility.yul\":17234:17243   */\n      mod\n        /* \"#utility.yul\":17229:17243   */\n      swap1\n      pop\n        /* \"#utility.yul\":17107:17249   */\n      swap3\n      swap2\n      pop\n      pop\n      jump\t// out\n        /* \"#utility.yul\":17255:17435   */\n    tag_389:\n        /* \"#utility.yul\":17303:17380   */\n      0x4e487b7100000000000000000000000000000000000000000000000000000000\n        /* \"#utility.yul\":17300:17301   */\n      0x00\n        /* \"#utility.yul\":17293:17381   */\n      mstore\n        /* \"#utility.yul\":17400:17404   */\n      0x11\n        /* \"#utility.yul\":17397:17398   */\n      0x04\n        /* \"#utility.yul\":17390:17405   */\n      mstore\n        /* \"#utility.yul\":17424:17428   */\n      0x24\n        /* \"#utility.yul\":17421:17422   */\n      0x00\n        /* \"#utility.yul\":17414:17429   */\n      revert\n        /* \"#utility.yul\":17441:17621   */\n    tag_395:\n        /* \"#utility.yul\":17489:17566   */\n      0x4e487b7100000000000000000000000000000000000000000000000000000000\n        /* \"#utility.yul\":17486:17487   */\n      0x00\n        /* \"#utility.yul\":17479:17567   */\n      mstore\n        /* \"#utility.yul\":17586:17590   */\n      0x12\n        /* \"#utility.yul\":17583:17584   */\n      0x04\n        /* \"#utility.yul\":17576:17591   */\n      mstore\n        /* \"#utility.yul\":17610:17614   */\n      0x24\n        /* \"#utility.yul\":17607:17608   */\n      0x00\n        /* \"#utility.yul\":17600:17615   */\n      revert\n        /* \"#utility.yul\":17627:17807   */\n    tag_453:\n        /* \"#utility.yul\":17675:17752   */\n      0x4e487b7100000000000000000000000000000000000000000000000000000000\n        /* \"#utility.yul\":17672:17673   */\n      0x00\n        /* \"#utility.yul\":17665:17753   */\n      mstore\n        /* \"#utility.yul\":17772:17776   */\n      0x22\n        /* \"#utility.yul\":17769:17770   */\n      0x04\n        /* \"#utility.yul\":17762:17777   */\n      mstore\n        /* \"#utility.yul\":17796:17800   */\n      0x24\n        /* \"#utility.yul\":17793:17794   */\n      0x00\n        /* \"#utility.yul\":17786:17801   */\n      revert\n        /* \"#utility.yul\":17813:17915   */\n    tag_293:\n        /* \"#utility.yul\":17854:17860   */\n      0x00\n        /* \"#utility.yul\":17905:17907   */\n      0x1f\n        /* \"#utility.yul\":17901:17908   */\n      not\n        /* \"#utility.yul\":17896:17898   */\n      0x1f\n        /* \"#utility.yul\":17889:17894   */\n      dup4\n        /* \"#utility.yul\":17885:17899   */\n      add\n        /* \"#utility.yul\":17881:17909   */\n      and\n        /* \"#utility.yul\":17871:17909   */\n      swap1\n      pop\n        /* \"#utility.yul\":17861:17915   */\n      swap2\n      swap1\n      pop\n      jump\t// out\n        /* \"#utility.yul\":17921:18015   */\n    tag_459:\n        /* \"#utility.yul\":17954:17962   */\n      0x00\n        /* \"#utility.yul\":18002:18007   */\n      dup2\n        /* \"#utility.yul\":17998:18000   */\n      0x60\n        /* \"#utility.yul\":17994:18008   */\n      shl\n        /* \"#utility.yul\":17973:18008   */\n      swap1\n      pop\n        /* \"#utility.yul\":17963:18015   */\n      swap2\n      swap1\n      pop\n      jump\t// out\n        /* \"#utility.yul\":18021:18123   */\n    tag_405:\n        /* \"#utility.yul\":18063:18071   */\n      0x00\n        /* \"#utility.yul\":18110:18115   */\n      dup2\n        /* \"#utility.yul\":18107:18108   */\n      0x01\n        /* \"#utility.yul\":18103:18116   */\n      shr\n        /* \"#utility.yul\":18082:18116   */\n      swap1\n      pop\n        /* \"#utility.yul\":18072:18123   */\n      swap2\n      swap1\n      pop\n      jump\t// out\n        /* \"#utility.yul\":18129:18349   */\n    tag_298:\n        /* \"#utility.yul\":18269:18303   */\n      0x45524332303a207472616e736665722066726f6d207a65726f20616464726573\n        /* \"#utility.yul\":18265:18266   */\n      0x00\n        /* \"#utility.yul\":18257:18263   */\n      dup3\n        /* \"#utility.yul\":18253:18267   */\n      add\n        /* \"#utility.yul\":18246:18304   */\n      mstore\n        /* \"#utility.yul\":18338:18341   */\n      0x7300000000000000000000000000000000000000000000000000000000000000\n        /* \"#utility.yul\":18333:18335   */\n      0x20\n        /* \"#utility.yul\":18325:18331   */\n      dup3\n        /* \"#utility.yul\":18321:18336   */\n      add\n        /* \"#utility.yul\":18314:18342   */\n      mstore\n        /* \"#utility.yul\":18235:18349   */\n      pop\n      jump\t// out\n        /* \"#utility.yul\":18355:18532   */\n    tag_303:\n        /* \"#utility.yul\":18495:18524   */\n      0x45524332303a20696e73756666696369656e742062616c616e63650000000000\n        /* \"#utility.yul\":18491:18492   */\n      0x00\n        /* \"#utility.yul\":18483:18489   */\n      dup3\n        /* \"#utility.yul\":18479:18493   */\n      add\n        /* \"#utility.yul\":18472:18525   */\n      mstore\n        /* \"#utility.yul\":18461:18532   */\n      pop\n      jump\t// out\n        /* \"#utility.yul\":18538:18719   */\n    tag_308:\n        /* \"#utility.yul\":18678:18711   */\n      0x45524332303a207472616e7366657220746f207a65726f206164647265737300\n        /* \"#utility.yul\":18674:18675   */\n      0x00\n        /* \"#utility.yul\":18666:18672   */\n      dup3\n        /* \"#utility.yul\":18662:18676   */\n      add\n        /* \"#utility.yul\":18655:18712   */\n      mstore\n        /* \"#utility.yul\":18644:18719   */\n      pop\n      jump\t// out\n        /* \"#utility.yul\":18725:18899   */\n    tag_313:\n        /* \"#utility.yul\":18865:18891   */\n      0x45524332303a20616c6c6f77616e636520746f6f206c6f770000000000000000\n        /* \"#utility.yul\":18861:18862   */\n      0x00\n        /* \"#utility.yul\":18853:18859   */\n      dup3\n        /* \"#utility.yul\":18849:18863   */\n      add\n        /* \"#utility.yul\":18842:18892   */\n      mstore\n        /* \"#utility.yul\":18831:18899   */\n      pop\n      jump\t// out\n        /* \"#utility.yul\":18905:19074   */\n    tag_318:\n        /* \"#utility.yul\":19045:19066   */\n      0x4d61782033206472617773207065722064617900000000000000000000000000\n        /* \"#utility.yul\":19041:19042   */\n      0x00\n        /* \"#utility.yul\":19033:19039   */\n      dup3\n        /* \"#utility.yul\":19029:19043   */\n      add\n        /* \"#utility.yul\":19022:19067   */\n      mstore\n        /* \"#utility.yul\":19011:19074   */\n      pop\n      jump\t// out\n        /* \"#utility.yul\":19080:19302   */\n    tag_323:\n        /* \"#utility.yul\":19220:19254   */\n      0x45524332303a20696e73756666696369656e742062616c616e636520746f2062\n        /* \"#utility.yul\":19216:19217   */\n      0x00\n        /* \"#utility.yul\":19208:19214   */\n      dup3\n        /* \"#utility.yul\":19204:19218   */\n      add\n        /* \"#utility.yul\":19197:19255   */\n      mstore\n        /* \"#utility.yul\":19289:19294   */\n      0x75726e0000000000000000000000000000000000000000000000000000000000\n        /* \"#utility.yul\":19284:19286   */\n      0x20\n        /* \"#utility.yul\":19276:19282   */\n      dup3\n        /* \"#utility.yul\":19272:19287   */\n      add\n        /* \"#utility.yul\":19265:19295   */\n      mstore\n        /* \"#utility.yul\":19186:19302   */\n      pop\n      jump\t// out\n        /* \"#utility.yul\":19308:19472   */\n    tag_328:\n        /* \"#utility.yul\":19448:19464   */\n      0x4e6f7420656e6f7567682050454e000000000000000000000000000000000000\n        /* \"#utility.yul\":19444:19445   */\n      0x00\n        /* \"#utility.yul\":19436:19442   */\n      dup3\n        /* \"#utility.yul\":19432:19446   */\n      add\n        /* \"#utility.yul\":19425:19465   */\n      mstore\n        /* \"#utility.yul\":19414:19472   */\n      pop\n      jump\t// out\n        /* \"#utility.yul\":19478:19652   */\n    tag_333:\n        /* \"#utility.yul\":19618:19644   */\n      0x416c726561647920636865636b656420696e20746f6461790000000000000000\n        /* \"#utility.yul\":19614:19615   */\n      0x00\n        /* \"#utility.yul\":19606:19612   */\n      dup3\n        /* \"#utility.yul\":19602:19616   */\n      add\n        /* \"#utility.yul\":19595:19645   */\n      mstore\n        /* \"#utility.yul\":19584:19652   */\n      pop\n      jump\t// out\n        /* \"#utility.yul\":19658:19780   */\n    tag_250:\n        /* \"#utility.yul\":19731:19755   */\n      tag_481\n        /* \"#utility.yul\":19749:19754   */\n      dup2\n        /* \"#utility.yul\":19731:19755   */\n      tag_278\n      jump\t// in\n    tag_481:\n        /* \"#utility.yul\":19724:19729   */\n      dup2\n        /* \"#utility.yul\":19721:19756   */\n      eq\n        /* \"#utility.yul\":19711:19713   */\n      tag_482\n      jumpi\n        /* \"#utility.yul\":19770:19771   */\n      0x00\n        /* \"#utility.yul\":19767:19768   */\n      dup1\n        /* \"#utility.yul\":19760:19772   */\n      revert\n        /* \"#utility.yul\":19711:19713   */\n    tag_482:\n        /* \"#utility.yul\":19701:19780   */\n      pop\n      jump\t// out\n        /* \"#utility.yul\":19786:19908   */\n    tag_254:\n        /* \"#utility.yul\":19859:19883   */\n      tag_484\n        /* \"#utility.yul\":19877:19882   */\n      dup2\n        /* \"#utility.yul\":19859:19883   */\n      tag_337\n      jump\t// in\n    tag_484:\n        /* \"#utility.yul\":19852:19857   */\n      dup2\n        /* \"#utility.yul\":19849:19884   */\n      eq\n        /* \"#utility.yul\":19839:19841   */\n      tag_485\n      jumpi\n        /* \"#utility.yul\":19898:19899   */\n      0x00\n        /* \"#utility.yul\":19895:19896   */\n      dup1\n        /* \"#utility.yul\":19888:19900   */\n      revert\n        /* \"#utility.yul\":19839:19841   */\n    tag_485:\n        /* \"#utility.yul\":19829:19908   */\n      pop\n      jump\t// out\n\n    auxdata: 0xa26469706673582212204e29052dfb7d172334fb6c9c1e1258165d361170153154660016f79ea6c0baae64736f6c63430008040033\n}\n",
				"bytecode": {
					"linkReferences": {},
					"object": "60806040526012600560006101000a81548160ff021916908360ff16021790555060646008553480156200003257600080fd5b5060405162002c2838038062002c288339818101604052810190620000589190620002dc565b828282826003908051906020019062000073929190620001a3565b5081600490805190602001906200008c929190620001a3565b50620000b981600560009054906101000a900460ff1660ff16600a0a62030d4002620000c560201b60201c565b505050505050620005e6565b806000808473ffffffffffffffffffffffffffffffffffffffff1673ffffffffffffffffffffffffffffffffffffffff1681526020019081526020016000206000828254620001159190620003f1565b925050819055508060026000828254620001309190620003f1565b925050819055508173ffffffffffffffffffffffffffffffffffffffff16600073ffffffffffffffffffffffffffffffffffffffff167fddf252ad1be2c89b69c2b068fc378daa952ba7f163c4a11628f55a4df523b3ef8360405162000197919062000375565b60405180910390a35050565b828054620001b190620004c2565b90600052602060002090601f016020900481019282620001d5576000855562000221565b82601f10620001f057805160ff191683800117855562000221565b8280016001018555821562000221579182015b828111156200022057825182559160200191906001019062000203565b5b50905062000230919062000234565b5090565b5b808211156200024f57600081600090555060010162000235565b5090565b60006200026a6200026484620003bb565b62000392565b9050828152602081018484840111156200028357600080fd5b620002908482856200048c565b509392505050565b600081519050620002a981620005cc565b92915050565b600082601f830112620002c157600080fd5b8151620002d384826020860162000253565b91505092915050565b600080600060608486031215620002f257600080fd5b600084015167ffffffffffffffff8111156200030d57600080fd5b6200031b86828701620002af565b935050602084015167ffffffffffffffff8111156200033957600080fd5b6200034786828701620002af565b92505060406200035a8682870162000298565b9150509250925092565b6200036f8162000482565b82525050565b60006020820190506200038c600083018462000364565b92915050565b60006200039e620003b1565b9050620003ac8282620004f8565b919050565b6000604051905090565b600067ffffffffffffffff821115620003d957620003d86200058c565b5b620003e482620005bb565b9050602081019050919050565b6000620003fe8262000482565b91506200040b8362000482565b9250827fffffffffffffffffffffffffffffffffffffffffffffffffffffffffffffffff038211156200044357620004426200052e565b5b828201905092915050565b60006200045b8262000462565b9050919050565b600073ffffffffffffffffffffffffffffffffffffffff82169050919050565b6000819050919050565b60005b83811015620004ac5780820151818401526020810190506200048f565b83811115620004bc576000848401525b50505050565b60006002820490506001821680620004db57607f821691505b60208210811415620004f257620004f16200055d565b5b50919050565b6200050382620005bb565b810181811067ffffffffffffffff821117156200052557620005246200058c565b5b80604052505050565b7f4e487b7100000000000000000000000000000000000000000000000000000000600052601160045260246000fd5b7f4e487b7100000000000000000000000000000000000000000000000000000000600052602260045260246000fd5b7f4e487b7100000000000000000000000000000000000000000000000000000000600052604160045260246000fd5b6000601f19601f8301169050919050565b620005d7816200044e565b8114620005e357600080fd5b50565b61263280620005f66000396000f3fe608060405234801561001057600080fd5b506004361061012c5760003560e01c80637f93ee98116100ad578063bb47e61a11610071578063bb47e61a14610393578063bd6e4e75146103b1578063dd62ed3e146103e1578063ed04fac814610411578063f1a19b6c1461042f5761012c565b80637f93ee98146102c757806395d89b41146102f7578063a9059cbb14610315578063b863bd3714610345578063baeb0718146103755761012c565b8063313ce567116100f4578063313ce567146101fd57806335edf0b01461021b57806342966c681461024b5780636d6ae1a81461026757806370a08231146102975761012c565b806306fdde0314610131578063095ea7b31461014f57806317d6da821461017f57806318160ddd146101af57806323b872dd146101cd575b600080fd5b61013961045f565b6040516101469190611e16565b60405180910390f35b61016960048036038101906101649190611b9c565b6104ed565b6040516101769190611dfb565b60405180910390f35b61019960048036038101906101949190611ae8565b6105df565b6040516101a69190611f68565b60405180910390f35b6101b76106a0565b6040516101c49190611f68565b60405180910390f35b6101e760048036038101906101e29190611b4d565b6106a6565b6040516101f49190611dfb565b60405180910390f35b610205610810565b6040516102129190611fac565b60405180910390f35b61023560048036038101906102309190611ae8565b610823565b6040516102429190611f68565b60405180910390f35b61026560048036038101906102609190611bd8565b61083b565b005b610281600480360381019061027c9190611bd8565b610993565b60405161028e9190611e16565b60405180910390f35b6102b160048036038101906102ac9190611ae8565b6111f1565b6040516102be9190611f68565b60405180910390f35b6102e160048036038101906102dc9190611ae8565b611209565b6040516102ee9190611f68565b60405180910390f35b6102ff611221565b60405161030c9190611e16565b60405180910390f35b61032f600480360381019061032a9190611b9c565b6112af565b60405161033c9190611dfb565b60405180910390f35b61035f600480360381019061035a9190611bd8565b6112c6565b60405161036c9190611f68565b60405180910390f35b61037d6112ff565b60405161038a9190611f68565b60405180910390f35b61039b611581565b6040516103a89190611f68565b60405180910390f35b6103cb60048036038101906103c69190611ae8565b611587565b6040516103d89190611f68565b60405180910390f35b6103fb60048036038101906103f69190611b11565b61159f565b6040516104089190611f68565b60405180910390f35b6104196115c4565b6040516104269190611f68565b60405180910390f35b61044960048036038101906104449190611ae8565b61176b565b6040516104569190611f68565b60405180910390f35b6003805461046c906122f1565b80601f0160208091040260200160405190810160405280929190818152602001828054610498906122f1565b80156104e55780601f106104ba576101008083540402835291602001916104e5565b820191906000526020600020905b8154815290600101906020018083116104c857829003601f168201915b505050505081565b600081600160003373ffffffffffffffffffffffffffffffffffffffff1673ffffffffffffffffffffffffffffffffffffffff16815260200190815260200160002060008573ffffffffffffffffffffffffffffffffffffffff1673ffffffffffffffffffffffffffffffffffffffff168152602001908152602001600020819055508273ffffffffffffffffffffffffffffffffffffffff163373ffffffffffffffffffffffffffffffffffffffff167f8c5be1e5ebec7d5bd14f71427d1e84f3dd0314c0f7b2291e5b200ac8c7c3b925846040516105cd9190611f68565b60405180910390a36001905092915050565b6000600a60008373ffffffffffffffffffffffffffffffffffffffff1673ffffffffffffffffffffffffffffffffffffffff16815260200190815260200160002054600361062d9190612235565b9050600062015180617080426106439190611fe3565b61064d9190612039565b9050600960008473ffffffffffffffffffffffffffffffffffffffff1673ffffffffffffffffffffffffffffffffffffffff16815260200190815260200160002054811461069a57600391505b50919050565b60025481565b600081600160008673ffffffffffffffffffffffffffffffffffffffff1673ffffffffffffffffffffffffffffffffffffffff16815260200190815260200160002060003373ffffffffffffffffffffffffffffffffffffffff1673ffffffffffffffffffffffffffffffffffffffff168152602001908152602001600020541015610767576040517f08c379a000000000000000000000000000000000000000000000000000000000815260040161075e90611ec8565b60405180910390fd5b81600160008673ffffffffffffffffffffffffffffffffffffffff1673ffffffffffffffffffffffffffffffffffffffff16815260200190815260200160002060003373ffffffffffffffffffffffffffffffffffffffff1673ffffffffffffffffffffffffffffffffffffffff16815260200190815260200160002060008282546107f39190612235565b92505081905550610805848484611783565b600190509392505050565b600560009054906101000a900460ff1681565b60076020528060005260406000206000915090505481565b806000803373ffffffffffffffffffffffffffffffffffffffff1673ffffffffffffffffffffffffffffffffffffffff1681526020019081526020016000205410156108bc576040517f08c379a00000000000000000000000000000000000000000000000000000000081526004016108b390611f08565b60405180910390fd5b806000803373ffffffffffffffffffffffffffffffffffffffff1673ffffffffffffffffffffffffffffffffffffffff168152602001908152602001600020600082825461090a9190612235565b9250508190555080600260008282546109239190612235565b92505081905550600073ffffffffffffffffffffffffffffffffffffffff163373ffffffffffffffffffffffffffffffffffffffff167fddf252ad1be2c89b69c2b068fc378daa952ba7f163c4a11628f55a4df523b3ef836040516109889190611f68565b60405180910390a350565b6060600062015180617080426109a99190611fe3565b6109b39190612039565b9050600081600960003373ffffffffffffffffffffffffffffffffffffffff1673ffffffffffffffffffffffffffffffffffffffff168152602001908152602001600020541015610a885781600960003373ffffffffffffffffffffffffffffffffffffffff1673ffffffffffffffffffffffffffffffffffffffff168152602001908152602001600020819055506000600a60003373ffffffffffffffffffffffffffffffffffffffff1673ffffffffffffffffffffffffffffffffffffffff168152602001908152602001600020819055505b6003600a60003373ffffffffffffffffffffffffffffffffffffffff1673ffffffffffffffffffffffffffffffffffffffff1681526020019081526020016000205410610b0a576040517f08c379a0000000000000000000000000000000000000000000000000000000008152600401610b0190611ee8565b60405180910390fd5b6001600a60003373ffffffffffffffffffffffffffffffffffffffff1673ffffffffffffffffffffffffffffffffffffffff168152602001908152602001600020541415610cd957600560009054906101000a900460ff1660ff16600a610b7191906120bd565b6064610b7d91906121db565b9050806000803373ffffffffffffffffffffffffffffffffffffffff1673ffffffffffffffffffffffffffffffffffffffff168152602001908152602001600020541015610c00576040517f08c379a0000000000000000000000000000000000000000000000000000000008152600401610bf790611f28565b60405180910390fd5b806000803373ffffffffffffffffffffffffffffffffffffffff1673ffffffffffffffffffffffffffffffffffffffff1681526020019081526020016000206000828254610c4e9190612235565b925050819055508060026000828254610c679190612235565b92505081905550600073ffffffffffffffffffffffffffffffffffffffff163373ffffffffffffffffffffffffffffffffffffffff167fddf252ad1be2c89b69c2b068fc378daa952ba7f163c4a11628f55a4df523b3ef83604051610ccc9190611f68565b60405180910390a3610ea5565b6002600a60003373ffffffffffffffffffffffffffffffffffffffff1673ffffffffffffffffffffffffffffffffffffffff168152602001908152602001600020541415610ea457600560009054906101000a900460ff1660ff16600a610d4091906120bd565b60c8610d4c91906121db565b9050806000803373ffffffffffffffffffffffffffffffffffffffff1673ffffffffffffffffffffffffffffffffffffffff168152602001908152602001600020541015610dcf576040517f08c379a0000000000000000000000000000000000000000000000000000000008152600401610dc690611f28565b60405180910390fd5b806000803373ffffffffffffffffffffffffffffffffffffffff1673ffffffffffffffffffffffffffffffffffffffff1681526020019081526020016000206000828254610e1d9190612235565b925050819055508060026000828254610e369190612235565b92505081905550600073ffffffffffffffffffffffffffffffffffffffff163373ffffffffffffffffffffffffffffffffffffffff167fddf252ad1be2c89b69c2b068fc378daa952ba7f163c4a11628f55a4df523b3ef83604051610e9b9190611f68565b60405180910390a35b5b6001600a60003373ffffffffffffffffffffffffffffffffffffffff1673ffffffffffffffffffffffffffffffffffffffff1681526020019081526020016000206000828254610ef59190611fe3565b92505081905550600060016064610f0b876112c6565b610f159190612351565b610f1f9190611fe3565b905060018111610f66576040518060400160405280600581526020017f746f6b656e0000000000000000000000000000000000000000000000000000008152509350611199565b60058111610ff0576040518060400160405280600581526020017f726573657400000000000000000000000000000000000000000000000000000081525093506000600a60003373ffffffffffffffffffffffffffffffffffffffff1673ffffffffffffffffffffffffffffffffffffffff16815260200190815260200160002081905550611198565b600a811161106a576040518060400160405280600781526020017f3838382050454e00000000000000000000000000000000000000000000000000815250935061106533600560009054906101000a900460ff1660ff16600a61105391906120bd565b61037861106091906121db565b6119e6565b611197565b601481116110af576040518060400160405280600781526020017f6e6f7468696e67000000000000000000000000000000000000000000000000008152509350611196565b60328111611128576040518060400160405280600781526020017f3230302050454e00000000000000000000000000000000000000000000000000815250935061112333600560009054906101000a900460ff1660ff16600a61111291906120bd565b60c861111e91906121db565b6119e6565b611195565b6040518060400160405280600781526020017f3130302050454e00000000000000000000000000000000000000000000000000815250935061119433600560009054906101000a900460ff1660ff16600a61118391906120bd565b606461118f91906121db565b6119e6565b5b5b5b5b5b3373ffffffffffffffffffffffffffffffffffffffff167f76775f6fd80273d051ffb53fcafdf73d3f7933b79207e60a978184a1fb72b32d85846040516111e1929190611e38565b60405180910390a2505050919050565b60006020528060005260406000206000915090505481565b600a6020528060005260406000206000915090505481565b6004805461122e906122f1565b80601f016020809104026020016040519081016040528092919081815260200182805461125a906122f1565b80156112a75780601f1061127c576101008083540402835291602001916112a7565b820191906000526020600020905b81548152906001019060200180831161128a57829003601f168201915b505050505081565b60006112bc338484611783565b6001905092915050565b6000424433846040516020016112df9493929190611dad565b6040516020818303038152906040528051906020012060001c9050919050565b60008062015180617080426113149190611fe3565b61131e9190612039565b905080600660003373ffffffffffffffffffffffffffffffffffffffff1673ffffffffffffffffffffffffffffffffffffffff16815260200190815260200160002054106113a1576040517f08c379a000000000000000000000000000000000000000000000000000000000815260040161139890611f48565b60405180910390fd5b6001816113ae9190612235565b600660003373ffffffffffffffffffffffffffffffffffffffff1673ffffffffffffffffffffffffffffffffffffffff168152602001908152602001600020541415611450576001600760003373ffffffffffffffffffffffffffffffffffffffff1673ffffffffffffffffffffffffffffffffffffffff16815260200190815260200160002060008282546114449190611fe3565b92505081905550611496565b6001600760003373ffffffffffffffffffffffffffffffffffffffff1673ffffffffffffffffffffffffffffffffffffffff168152602001908152602001600020819055505b61149e6115c4565b915080600660003373ffffffffffffffffffffffffffffffffffffffff1673ffffffffffffffffffffffffffffffffffffffff168152602001908152602001600020819055506114ee33836119e6565b3373ffffffffffffffffffffffffffffffffffffffff167fb1ea073ac09a6b73cc1842f3dbda1736e0c0d94b33aac1983f2612a5d115b4c783600760003373ffffffffffffffffffffffffffffffffffffffff1673ffffffffffffffffffffffffffffffffffffffff16815260200190815260200160002054604051611575929190611f83565b60405180910390a25090565b60085481565b60096020528060005260406000206000915090505481565b6001602052816000526040600020602052806000526040600020600091509150505481565b600080600190506000600660003373ffffffffffffffffffffffffffffffffffffffff1673ffffffffffffffffffffffffffffffffffffffff168152602001908152602001600020541415611623576009816116209190611fe3565b90505b60006005600760003373ffffffffffffffffffffffffffffffffffffffff1673ffffffffffffffffffffffffffffffffffffffff168152602001908152602001600020546116719190612351565b1480156116be57506000600660003373ffffffffffffffffffffffffffffffffffffffff1673ffffffffffffffffffffffffffffffffffffffff1681526020019081526020016000205414155b156116d3576001816116d09190611fe3565b90505b600062015180617080426116e79190611fe3565b6116f19190612039565b9050600060076004836117049190611fe3565b61170e9190612351565b90506000811415611729576001836117269190611fe3565b92505b600560009054906101000a900460ff1660ff16600a61174891906120bd565b60085461175591906121db565b8361176091906121db565b925082935050505090565b60066020528060005260406000206000915090505481565b600073ffffffffffffffffffffffffffffffffffffffff168373ffffffffffffffffffffffffffffffffffffffff1614156117f3576040517f08c379a00000000000000000000000000000000000000000000000000000000081526004016117ea90611e68565b60405180910390fd5b600073ffffffffffffffffffffffffffffffffffffffff168273ffffffffffffffffffffffffffffffffffffffff161415611863576040517f08c379a000000000000000000000000000000000000000000000000000000000815260040161185a90611ea8565b60405180910390fd5b806000808573ffffffffffffffffffffffffffffffffffffffff1673ffffffffffffffffffffffffffffffffffffffff1681526020019081526020016000205410156118e4576040517f08c379a00000000000000000000000000000000000000000000000000000000081526004016118db90611e88565b60405180910390fd5b806000808573ffffffffffffffffffffffffffffffffffffffff1673ffffffffffffffffffffffffffffffffffffffff16815260200190815260200160002060008282540392505081905550806000808473ffffffffffffffffffffffffffffffffffffffff1673ffffffffffffffffffffffffffffffffffffffff168152602001908152602001600020600082825401925050819055508173ffffffffffffffffffffffffffffffffffffffff168373ffffffffffffffffffffffffffffffffffffffff167fddf252ad1be2c89b69c2b068fc378daa952ba7f163c4a11628f55a4df523b3ef836040516119d99190611f68565b60405180910390a3505050565b806000808473ffffffffffffffffffffffffffffffffffffffff1673ffffffffffffffffffffffffffffffffffffffff1681526020019081526020016000206000828254611a349190611fe3565b925050819055508060026000828254611a4d9190611fe3565b925050819055508173ffffffffffffffffffffffffffffffffffffffff16600073ffffffffffffffffffffffffffffffffffffffff167fddf252ad1be2c89b69c2b068fc378daa952ba7f163c4a11628f55a4df523b3ef83604051611ab29190611f68565b60405180910390a35050565b600081359050611acd816125ce565b92915050565b600081359050611ae2816125e5565b92915050565b600060208284031215611afa57600080fd5b6000611b0884828501611abe565b91505092915050565b60008060408385031215611b2457600080fd5b6000611b3285828601611abe565b9250506020611b4385828601611abe565b9150509250929050565b600080600060608486031215611b6257600080fd5b6000611b7086828701611abe565b9350506020611b8186828701611abe565b9250506040611b9286828701611ad3565b9150509250925092565b60008060408385031215611baf57600080fd5b6000611bbd85828601611abe565b9250506020611bce85828601611ad3565b9150509250929050565b600060208284031215611bea57600080fd5b6000611bf884828501611ad3565b91505092915050565b611c12611c0d82612269565b612323565b82525050565b611c218161227b565b82525050565b6000611c3282611fc7565b611c3c8185611fd2565b9350611c4c8185602086016122be565b611c558161240f565b840191505092915050565b6000611c6d602183611fd2565b9150611c788261243a565b604082019050919050565b6000611c90601b83611fd2565b9150611c9b82612489565b602082019050919050565b6000611cb3601f83611fd2565b9150611cbe826124b2565b602082019050919050565b6000611cd6601883611fd2565b9150611ce1826124db565b602082019050919050565b6000611cf9601383611fd2565b9150611d0482612504565b602082019050919050565b6000611d1c602383611fd2565b9150611d278261252d565b604082019050919050565b6000611d3f600e83611fd2565b9150611d4a8261257c565b602082019050919050565b6000611d62601883611fd2565b9150611d6d826125a5565b602082019050919050565b611d81816122a7565b82525050565b611d98611d93826122a7565b612347565b82525050565b611da7816122b1565b82525050565b6000611db98287611d87565b602082019150611dc98286611d87565b602082019150611dd98285611c01565b601482019150611de98284611d87565b60208201915081905095945050505050565b6000602082019050611e106000830184611c18565b92915050565b60006020820190508181036000830152611e308184611c27565b905092915050565b60006040820190508181036000830152611e528185611c27565b9050611e616020830184611d78565b9392505050565b60006020820190508181036000830152611e8181611c60565b9050919050565b60006020820190508181036000830152611ea181611c83565b9050919050565b60006020820190508181036000830152611ec181611ca6565b9050919050565b60006020820190508181036000830152611ee181611cc9565b9050919050565b60006020820190508181036000830152611f0181611cec565b9050919050565b60006020820190508181036000830152611f2181611d0f565b9050919050565b60006020820190508181036000830152611f4181611d32565b9050919050565b60006020820190508181036000830152611f6181611d55565b9050919050565b6000602082019050611f7d6000830184611d78565b92915050565b6000604082019050611f986000830185611d78565b611fa56020830184611d78565b9392505050565b6000602082019050611fc16000830184611d9e565b92915050565b600081519050919050565b600082825260208201905092915050565b6000611fee826122a7565b9150611ff9836122a7565b9250827fffffffffffffffffffffffffffffffffffffffffffffffffffffffffffffffff0382111561202e5761202d612382565b5b828201905092915050565b6000612044826122a7565b915061204f836122a7565b92508261205f5761205e6123b1565b5b828204905092915050565b6000808291508390505b60018511156120b4578086048111156120905761208f612382565b5b600185161561209f5780820291505b80810290506120ad8561242d565b9450612074565b94509492505050565b60006120c8826122a7565b91506120d3836122a7565b92506121007fffffffffffffffffffffffffffffffffffffffffffffffffffffffffffffffff8484612108565b905092915050565b60008261211857600190506121d4565b8161212657600090506121d4565b816001811461213c576002811461214657612175565b60019150506121d4565b60ff84111561215857612157612382565b5b8360020a91508482111561216f5761216e612382565b5b506121d4565b5060208310610133831016604e8410600b84101617156121aa5782820a9050838111156121a5576121a4612382565b5b6121d4565b6121b7848484600161206a565b925090508184048111156121ce576121cd612382565b5b81810290505b9392505050565b60006121e6826122a7565b91506121f1836122a7565b9250817fffffffffffffffffffffffffffffffffffffffffffffffffffffffffffffffff048311821515161561222a57612229612382565b5b828202905092915050565b6000612240826122a7565b915061224b836122a7565b92508282101561225e5761225d612382565b5b828203905092915050565b600061227482612287565b9050919050565b60008115159050919050565b600073ffffffffffffffffffffffffffffffffffffffff82169050919050565b6000819050919050565b600060ff82169050919050565b60005b838110156122dc5780820151818401526020810190506122c1565b838111156122eb576000848401525b50505050565b6000600282049050600182168061230957607f821691505b6020821081141561231d5761231c6123e0565b5b50919050565b600061232e82612335565b9050919050565b600061234082612420565b9050919050565b6000819050919050565b600061235c826122a7565b9150612367836122a7565b925082612377576123766123b1565b5b828206905092915050565b7f4e487b7100000000000000000000000000000000000000000000000000000000600052601160045260246000fd5b7f4e487b7100000000000000000000000000000000000000000000000000000000600052601260045260246000fd5b7f4e487b7100000000000000000000000000000000000000000000000000000000600052602260045260246000fd5b6000601f19601f8301169050919050565b60008160601b9050919050565b60008160011c9050919050565b7f45524332303a207472616e736665722066726f6d207a65726f2061646472657360008201527f7300000000000000000000000000000000000000000000000000000000000000602082015250565b7f45524332303a20696e73756666696369656e742062616c616e63650000000000600082015250565b7f45524332303a207472616e7366657220746f207a65726f206164647265737300600082015250565b7f45524332303a20616c6c6f77616e636520746f6f206c6f770000000000000000600082015250565b7f4d61782033206472617773207065722064617900000000000000000000000000600082015250565b7f45524332303a20696e73756666696369656e742062616c616e636520746f206260008201527f75726e0000000000000000000000000000000000000000000000000000000000602082015250565b7f4e6f7420656e6f7567682050454e000000000000000000000000000000000000600082015250565b7f416c726561647920636865636b656420696e20746f6461790000000000000000600082015250565b6125d781612269565b81146125e257600080fd5b50565b6125ee816122a7565b81146125f957600080fd5b5056fea26469706673582212204e29052dfb7d172334fb6c9c1e1258165d361170153154660016f79ea6c0baae64736f6c63430008040033",
					"opcodes": "PUSH1 0x80 PUSH1 0x40 MSTORE PUSH1 0x12 PUSH1 0x5 PUSH1 0x0 PUSH2 0x100 EXP DUP2 SLOAD DUP2 PUSH1 0xFF MUL NOT AND SWAP1 DUP4 PUSH1 0xFF AND MUL OR SWAP1 SSTORE POP PUSH1 0x64 PUSH1 0x8 SSTORE CALLVALUE DUP1 ISZERO PUSH3 0x32 JUMPI PUSH1 0x0 DUP1 REVERT JUMPDEST POP PUSH1 0x40 MLOAD PUSH3 0x2C28 CODESIZE SUB DUP1 PUSH3 0x2C28 DUP4 CODECOPY DUP2 DUP2 ADD PUSH1 0x40 MSTORE DUP2 ADD SWAP1 PUSH3 0x58 SWAP2 SWAP1 PUSH3 0x2DC JUMP JUMPDEST DUP3 DUP3 DUP3 DUP3 PUSH1 0x3 SWAP1 DUP1 MLOAD SWAP1 PUSH1 0x20 ADD SWAP1 PUSH3 0x73 SWAP3 SWAP2 SWAP1 PUSH3 0x1A3 JUMP JUMPDEST POP DUP2 PUSH1 0x4 SWAP1 DUP1 MLOAD SWAP1 PUSH1 0x20 ADD SWAP1 PUSH3 0x8C SWAP3 SWAP2 SWAP1 PUSH3 0x1A3 JUMP JUMPDEST POP PUSH3 0xB9 DUP2 PUSH1 0x5 PUSH1 0x0 SWAP1 SLOAD SWAP1 PUSH2 0x100 EXP SWAP1 DIV PUSH1 0xFF AND PUSH1 0xFF AND PUSH1 0xA EXP PUSH3 0x30D40 MUL PUSH3 0xC5 PUSH1 0x20 SHL PUSH1 0x20 SHR JUMP JUMPDEST POP POP POP POP POP POP PUSH3 0x5E6 JUMP JUMPDEST DUP1 PUSH1 0x0 DUP1 DUP5 PUSH20 0xFFFFFFFFFFFFFFFFFFFFFFFFFFFFFFFFFFFFFFFF AND PUSH20 0xFFFFFFFFFFFFFFFFFFFFFFFFFFFFFFFFFFFFFFFF AND DUP2 MSTORE PUSH1 0x20 ADD SWAP1 DUP2 MSTORE PUSH1 0x20 ADD PUSH1 0x0 KECCAK256 PUSH1 0x0 DUP3 DUP3 SLOAD PUSH3 0x115 SWAP2 SWAP1 PUSH3 0x3F1 JUMP JUMPDEST SWAP3 POP POP DUP2 SWAP1 SSTORE POP DUP1 PUSH1 0x2 PUSH1 0x0 DUP3 DUP3 SLOAD PUSH3 0x130 SWAP2 SWAP1 PUSH3 0x3F1 JUMP JUMPDEST SWAP3 POP POP DUP2 SWAP1 SSTORE POP DUP2 PUSH20 0xFFFFFFFFFFFFFFFFFFFFFFFFFFFFFFFFFFFFFFFF AND PUSH1 0x0 PUSH20 0xFFFFFFFFFFFFFFFFFFFFFFFFFFFFFFFFFFFFFFFF AND PUSH32 0xDDF252AD1BE2C89B69C2B068FC378DAA952BA7F163C4A11628F55A4DF523B3EF DUP4 PUSH1 0x40 MLOAD PUSH3 0x197 SWAP2 SWAP1 PUSH3 0x375 JUMP JUMPDEST PUSH1 0x40 MLOAD DUP1 SWAP2 SUB SWAP1 LOG3 POP POP JUMP JUMPDEST DUP3 DUP1 SLOAD PUSH3 0x1B1 SWAP1 PUSH3 0x4C2 JUMP JUMPDEST SWAP1 PUSH1 0x0 MSTORE PUSH1 0x20 PUSH1 0x0 KECCAK256 SWAP1 PUSH1 0x1F ADD PUSH1 0x20 SWAP1 DIV DUP2 ADD SWAP3 DUP3 PUSH3 0x1D5 JUMPI PUSH1 0x0 DUP6 SSTORE PUSH3 0x221 JUMP JUMPDEST DUP3 PUSH1 0x1F LT PUSH3 0x1F0 JUMPI DUP1 MLOAD PUSH1 0xFF NOT AND DUP4 DUP1 ADD OR DUP6 SSTORE PUSH3 0x221 JUMP JUMPDEST DUP3 DUP1 ADD PUSH1 0x1 ADD DUP6 SSTORE DUP3 ISZERO PUSH3 0x221 JUMPI SWAP2 DUP3 ADD JUMPDEST DUP3 DUP2 GT ISZERO PUSH3 0x220 JUMPI DUP3 MLOAD DUP3 SSTORE SWAP2 PUSH1 0x20 ADD SWAP2 SWAP1 PUSH1 0x1 ADD SWAP1 PUSH3 0x203 JUMP JUMPDEST JUMPDEST POP SWAP1 POP PUSH3 0x230 SWAP2 SWAP1 PUSH3 0x234 JUMP JUMPDEST POP SWAP1 JUMP JUMPDEST JUMPDEST DUP1 DUP3 GT ISZERO PUSH3 0x24F JUMPI PUSH1 0x0 DUP2 PUSH1 0x0 SWAP1 SSTORE POP PUSH1 0x1 ADD PUSH3 0x235 JUMP JUMPDEST POP SWAP1 JUMP JUMPDEST PUSH1 0x0 PUSH3 0x26A PUSH3 0x264 DUP5 PUSH3 0x3BB JUMP JUMPDEST PUSH3 0x392 JUMP JUMPDEST SWAP1 POP DUP3 DUP2 MSTORE PUSH1 0x20 DUP2 ADD DUP5 DUP5 DUP5 ADD GT ISZERO PUSH3 0x283 JUMPI PUSH1 0x0 DUP1 REVERT JUMPDEST PUSH3 0x290 DUP5 DUP3 DUP6 PUSH3 0x48C JUMP JUMPDEST POP SWAP4 SWAP3 POP POP POP JUMP JUMPDEST PUSH1 0x0 DUP2 MLOAD SWAP1 POP PUSH3 0x2A9 DUP2 PUSH3 0x5CC JUMP JUMPDEST SWAP3 SWAP2 POP POP JUMP JUMPDEST PUSH1 0x0 DUP3 PUSH1 0x1F DUP4 ADD SLT PUSH3 0x2C1 JUMPI PUSH1 0x0 DUP1 REVERT JUMPDEST DUP2 MLOAD PUSH3 0x2D3 DUP5 DUP3 PUSH1 0x20 DUP7 ADD PUSH3 0x253 JUMP JUMPDEST SWAP2 POP POP SWAP3 SWAP2 POP POP JUMP JUMPDEST PUSH1 0x0 DUP1 PUSH1 0x0 PUSH1 0x60 DUP5 DUP7 SUB SLT ISZERO PUSH3 0x2F2 JUMPI PUSH1 0x0 DUP1 REVERT JUMPDEST PUSH1 0x0 DUP5 ADD MLOAD PUSH8 0xFFFFFFFFFFFFFFFF DUP2 GT ISZERO PUSH3 0x30D JUMPI PUSH1 0x0 DUP1 REVERT JUMPDEST PUSH3 0x31B DUP7 DUP3 DUP8 ADD PUSH3 0x2AF JUMP JUMPDEST SWAP4 POP POP PUSH1 0x20 DUP5 ADD MLOAD PUSH8 0xFFFFFFFFFFFFFFFF DUP2 GT ISZERO PUSH3 0x339 JUMPI PUSH1 0x0 DUP1 REVERT JUMPDEST PUSH3 0x347 DUP7 DUP3 DUP8 ADD PUSH3 0x2AF JUMP JUMPDEST SWAP3 POP POP PUSH1 0x40 PUSH3 0x35A DUP7 DUP3 DUP8 ADD PUSH3 0x298 JUMP JUMPDEST SWAP2 POP POP SWAP3 POP SWAP3 POP SWAP3 JUMP JUMPDEST PUSH3 0x36F DUP2 PUSH3 0x482 JUMP JUMPDEST DUP3 MSTORE POP POP JUMP JUMPDEST PUSH1 0x0 PUSH1 0x20 DUP3 ADD SWAP1 POP PUSH3 0x38C PUSH1 0x0 DUP4 ADD DUP5 PUSH3 0x364 JUMP JUMPDEST SWAP3 SWAP2 POP POP JUMP JUMPDEST PUSH1 0x0 PUSH3 0x39E PUSH3 0x3B1 JUMP JUMPDEST SWAP1 POP PUSH3 0x3AC DUP3 DUP3 PUSH3 0x4F8 JUMP JUMPDEST SWAP2 SWAP1 POP JUMP JUMPDEST PUSH1 0x0 PUSH1 0x40 MLOAD SWAP1 POP SWAP1 JUMP JUMPDEST PUSH1 0x0 PUSH8 0xFFFFFFFFFFFFFFFF DUP3 GT ISZERO PUSH3 0x3D9 JUMPI PUSH3 0x3D8 PUSH3 0x58C JUMP JUMPDEST JUMPDEST PUSH3 0x3E4 DUP3 PUSH3 0x5BB JUMP JUMPDEST SWAP1 POP PUSH1 0x20 DUP2 ADD SWAP1 POP SWAP2 SWAP1 POP JUMP JUMPDEST PUSH1 0x0 PUSH3 0x3FE DUP3 PUSH3 0x482 JUMP JUMPDEST SWAP2 POP PUSH3 0x40B DUP4 PUSH3 0x482 JUMP JUMPDEST SWAP3 POP DUP3 PUSH32 0xFFFFFFFFFFFFFFFFFFFFFFFFFFFFFFFFFFFFFFFFFFFFFFFFFFFFFFFFFFFFFFFF SUB DUP3 GT ISZERO PUSH3 0x443 JUMPI PUSH3 0x442 PUSH3 0x52E JUMP JUMPDEST JUMPDEST DUP3 DUP3 ADD SWAP1 POP SWAP3 SWAP2 POP POP JUMP JUMPDEST PUSH1 0x0 PUSH3 0x45B DUP3 PUSH3 0x462 JUMP JUMPDEST SWAP1 POP SWAP2 SWAP1 POP JUMP JUMPDEST PUSH1 0x0 PUSH20 0xFFFFFFFFFFFFFFFFFFFFFFFFFFFFFFFFFFFFFFFF DUP3 AND SWAP1 POP SWAP2 SWAP1 POP JUMP JUMPDEST PUSH1 0x0 DUP2 SWAP1 POP SWAP2 SWAP1 POP JUMP JUMPDEST PUSH1 0x0 JUMPDEST DUP4 DUP2 LT ISZERO PUSH3 0x4AC JUMPI DUP1 DUP3 ADD MLOAD DUP2 DUP5 ADD MSTORE PUSH1 0x20 DUP2 ADD SWAP1 POP PUSH3 0x48F JUMP JUMPDEST DUP4 DUP2 GT ISZERO PUSH3 0x4BC JUMPI PUSH1 0x0 DUP5 DUP5 ADD MSTORE JUMPDEST POP POP POP POP JUMP JUMPDEST PUSH1 0x0 PUSH1 0x2 DUP3 DIV SWAP1 POP PUSH1 0x1 DUP3 AND DUP1 PUSH3 0x4DB JUMPI PUSH1 0x7F DUP3 AND SWAP2 POP JUMPDEST PUSH1 0x20 DUP3 LT DUP2 EQ ISZERO PUSH3 0x4F2 JUMPI PUSH3 0x4F1 PUSH3 0x55D JUMP JUMPDEST JUMPDEST POP SWAP2 SWAP1 POP JUMP JUMPDEST PUSH3 0x503 DUP3 PUSH3 0x5BB JUMP JUMPDEST DUP2 ADD DUP2 DUP2 LT PUSH8 0xFFFFFFFFFFFFFFFF DUP3 GT OR ISZERO PUSH3 0x525 JUMPI PUSH3 0x524 PUSH3 0x58C JUMP JUMPDEST JUMPDEST DUP1 PUSH1 0x40 MSTORE POP POP POP JUMP JUMPDEST PUSH32 0x4E487B7100000000000000000000000000000000000000000000000000000000 PUSH1 0x0 MSTORE PUSH1 0x11 PUSH1 0x4 MSTORE PUSH1 0x24 PUSH1 0x0 REVERT JUMPDEST PUSH32 0x4E487B7100000000000000000000000000000000000000000000000000000000 PUSH1 0x0 MSTORE PUSH1 0x22 PUSH1 0x4 MSTORE PUSH1 0x24 PUSH1 0x0 REVERT JUMPDEST PUSH32 0x4E487B7100000000000000000000000000000000000000000000000000000000 PUSH1 0x0 MSTORE PUSH1 0x41 PUSH1 0x4 MSTORE PUSH1 0x24 PUSH1 0x0 REVERT JUMPDEST PUSH1 0x0 PUSH1 0x1F NOT PUSH1 0x1F DUP4 ADD AND SWAP1 POP SWAP2 SWAP1 POP JUMP JUMPDEST PUSH3 0x5D7 DUP2 PUSH3 0x44E JUMP JUMPDEST DUP2 EQ PUSH3 0x5E3 JUMPI PUSH1 0x0 DUP1 REVERT JUMPDEST POP JUMP JUMPDEST PUSH2 0x2632 DUP1 PUSH3 0x5F6 PUSH1 0x0 CODECOPY PUSH1 0x0 RETURN INVALID PUSH1 0x80 PUSH1 0x40 MSTORE CALLVALUE DUP1 ISZERO PUSH2 0x10 JUMPI PUSH1 0x0 DUP1 REVERT JUMPDEST POP PUSH1 0x4 CALLDATASIZE LT PUSH2 0x12C JUMPI PUSH1 0x0 CALLDATALOAD PUSH1 0xE0 SHR DUP1 PUSH4 0x7F93EE98 GT PUSH2 0xAD JUMPI DUP1 PUSH4 0xBB47E61A GT PUSH2 0x71 JUMPI DUP1 PUSH4 0xBB47E61A EQ PUSH2 0x393 JUMPI DUP1 PUSH4 0xBD6E4E75 EQ PUSH2 0x3B1 JUMPI DUP1 PUSH4 0xDD62ED3E EQ PUSH2 0x3E1 JUMPI DUP1 PUSH4 0xED04FAC8 EQ PUSH2 0x411 JUMPI DUP1 PUSH4 0xF1A19B6C EQ PUSH2 0x42F JUMPI PUSH2 0x12C JUMP JUMPDEST DUP1 PUSH4 0x7F93EE98 EQ PUSH2 0x2C7 JUMPI DUP1 PUSH4 0x95D89B41 EQ PUSH2 0x2F7 JUMPI DUP1 PUSH4 0xA9059CBB EQ PUSH2 0x315 JUMPI DUP1 PUSH4 0xB863BD37 EQ PUSH2 0x345 JUMPI DUP1 PUSH4 0xBAEB0718 EQ PUSH2 0x375 JUMPI PUSH2 0x12C JUMP JUMPDEST DUP1 PUSH4 0x313CE567 GT PUSH2 0xF4 JUMPI DUP1 PUSH4 0x313CE567 EQ PUSH2 0x1FD JUMPI DUP1 PUSH4 0x35EDF0B0 EQ PUSH2 0x21B JUMPI DUP1 PUSH4 0x42966C68 EQ PUSH2 0x24B JUMPI DUP1 PUSH4 0x6D6AE1A8 EQ PUSH2 0x267 JUMPI DUP1 PUSH4 0x70A08231 EQ PUSH2 0x297 JUMPI PUSH2 0x12C JUMP JUMPDEST DUP1 PUSH4 0x6FDDE03 EQ PUSH2 0x131 JUMPI DUP1 PUSH4 0x95EA7B3 EQ PUSH2 0x14F JUMPI DUP1 PUSH4 0x17D6DA82 EQ PUSH2 0x17F JUMPI DUP1 PUSH4 0x18160DDD EQ PUSH2 0x1AF JUMPI DUP1 PUSH4 0x23B872DD EQ PUSH2 0x1CD JUMPI JUMPDEST PUSH1 0x0 DUP1 REVERT JUMPDEST PUSH2 0x139 PUSH2 0x45F JUMP JUMPDEST PUSH1 0x40 MLOAD PUSH2 0x146 SWAP2 SWAP1 PUSH2 0x1E16 JUMP JUMPDEST PUSH1 0x40 MLOAD DUP1 SWAP2 SUB SWAP1 RETURN JUMPDEST PUSH2 0x169 PUSH1 0x4 DUP1 CALLDATASIZE SUB DUP2 ADD SWAP1 PUSH2 0x164 SWAP2 SWAP1 PUSH2 0x1B9C JUMP JUMPDEST PUSH2 0x4ED JUMP JUMPDEST PUSH1 0x40 MLOAD PUSH2 0x176 SWAP2 SWAP1 PUSH2 0x1DFB JUMP JUMPDEST PUSH1 0x40 MLOAD DUP1 SWAP2 SUB SWAP1 RETURN JUMPDEST PUSH2 0x199 PUSH1 0x4 DUP1 CALLDATASIZE SUB DUP2 ADD SWAP1 PUSH2 0x194 SWAP2 SWAP1 PUSH2 0x1AE8 JUMP JUMPDEST PUSH2 0x5DF JUMP JUMPDEST PUSH1 0x40 MLOAD PUSH2 0x1A6 SWAP2 SWAP1 PUSH2 0x1F68 JUMP JUMPDEST PUSH1 0x40 MLOAD DUP1 SWAP2 SUB SWAP1 RETURN JUMPDEST PUSH2 0x1B7 PUSH2 0x6A0 JUMP JUMPDEST PUSH1 0x40 MLOAD PUSH2 0x1C4 SWAP2 SWAP1 PUSH2 0x1F68 JUMP JUMPDEST PUSH1 0x40 MLOAD DUP1 SWAP2 SUB SWAP1 RETURN JUMPDEST PUSH2 0x1E7 PUSH1 0x4 DUP1 CALLDATASIZE SUB DUP2 ADD SWAP1 PUSH2 0x1E2 SWAP2 SWAP1 PUSH2 0x1B4D JUMP JUMPDEST PUSH2 0x6A6 JUMP JUMPDEST PUSH1 0x40 MLOAD PUSH2 0x1F4 SWAP2 SWAP1 PUSH2 0x1DFB JUMP JUMPDEST PUSH1 0x40 MLOAD DUP1 SWAP2 SUB SWAP1 RETURN JUMPDEST PUSH2 0x205 PUSH2 0x810 JUMP JUMPDEST PUSH1 0x40 MLOAD PUSH2 0x212 SWAP2 SWAP1 PUSH2 0x1FAC JUMP JUMPDEST PUSH1 0x40 MLOAD DUP1 SWAP2 SUB SWAP1 RETURN JUMPDEST PUSH2 0x235 PUSH1 0x4 DUP1 CALLDATASIZE SUB DUP2 ADD SWAP1 PUSH2 0x230 SWAP2 SWAP1 PUSH2 0x1AE8 JUMP JUMPDEST PUSH2 0x823 JUMP JUMPDEST PUSH1 0x40 MLOAD PUSH2 0x242 SWAP2 SWAP1 PUSH2 0x1F68 JUMP JUMPDEST PUSH1 0x40 MLOAD DUP1 SWAP2 SUB SWAP1 RETURN JUMPDEST PUSH2 0x265 PUSH1 0x4 DUP1 CALLDATASIZE SUB DUP2 ADD SWAP1 PUSH2 0x260 SWAP2 SWAP1 PUSH2 0x1BD8 JUMP JUMPDEST PUSH2 0x83B JUMP JUMPDEST STOP JUMPDEST PUSH2 0x281 PUSH1 0x4 DUP1 CALLDATASIZE SUB DUP2 ADD SWAP1 PUSH2 0x27C SWAP2 SWAP1 PUSH2 0x1BD8 JUMP JUMPDEST PUSH2 0x993 JUMP JUMPDEST PUSH1 0x40 MLOAD PUSH2 0x28E SWAP2 SWAP1 PUSH2 0x1E16 JUMP JUMPDEST PUSH1 0x40 MLOAD DUP1 SWAP2 SUB SWAP1 RETURN JUMPDEST PUSH2 0x2B1 PUSH1 0x4 DUP1 CALLDATASIZE SUB DUP2 ADD SWAP1 PUSH2 0x2AC SWAP2 SWAP1 PUSH2 0x1AE8 JUMP JUMPDEST PUSH2 0x11F1 JUMP JUMPDEST PUSH1 0x40 MLOAD PUSH2 0x2BE SWAP2 SWAP1 PUSH2 0x1F68 JUMP JUMPDEST PUSH1 0x40 MLOAD DUP1 SWAP2 SUB SWAP1 RETURN JUMPDEST PUSH2 0x2E1 PUSH1 0x4 DUP1 CALLDATASIZE SUB DUP2 ADD SWAP1 PUSH2 0x2DC SWAP2 SWAP1 PUSH2 0x1AE8 JUMP JUMPDEST PUSH2 0x1209 JUMP JUMPDEST PUSH1 0x40 MLOAD PUSH2 0x2EE SWAP2 SWAP1 PUSH2 0x1F68 JUMP JUMPDEST PUSH1 0x40 MLOAD DUP1 SWAP2 SUB SWAP1 RETURN JUMPDEST PUSH2 0x2FF PUSH2 0x1221 JUMP JUMPDEST PUSH1 0x40 MLOAD PUSH2 0x30C SWAP2 SWAP1 PUSH2 0x1E16 JUMP JUMPDEST PUSH1 0x40 MLOAD DUP1 SWAP2 SUB SWAP1 RETURN JUMPDEST PUSH2 0x32F PUSH1 0x4 DUP1 CALLDATASIZE SUB DUP2 ADD SWAP1 PUSH2 0x32A SWAP2 SWAP1 PUSH2 0x1B9C JUMP JUMPDEST PUSH2 0x12AF JUMP JUMPDEST PUSH1 0x40 MLOAD PUSH2 0x33C SWAP2 SWAP1 PUSH2 0x1DFB JUMP JUMPDEST PUSH1 0x40 MLOAD DUP1 SWAP2 SUB SWAP1 RETURN JUMPDEST PUSH2 0x35F PUSH1 0x4 DUP1 CALLDATASIZE SUB DUP2 ADD SWAP1 PUSH2 0x35A SWAP2 SWAP1 PUSH2 0x1BD8 JUMP JUMPDEST PUSH2 0x12C6 JUMP JUMPDEST PUSH1 0x40 MLOAD PUSH2 0x36C SWAP2 SWAP1 PUSH2 0x1F68 JUMP JUMPDEST PUSH1 0x40 MLOAD DUP1 SWAP2 SUB SWAP1 RETURN JUMPDEST PUSH2 0x37D PUSH2 0x12FF JUMP JUMPDEST PUSH1 0x40 MLOAD PUSH2 0x38A SWAP2 SWAP1 PUSH2 0x1F68 JUMP JUMPDEST PUSH1 0x40 MLOAD DUP1 SWAP2 SUB SWAP1 RETURN JUMPDEST PUSH2 0x39B PUSH2 0x1581 JUMP JUMPDEST PUSH1 0x40 MLOAD PUSH2 0x3A8 SWAP2 SWAP1 PUSH2 0x1F68 JUMP JUMPDEST PUSH1 0x40 MLOAD DUP1 SWAP2 SUB SWAP1 RETURN JUMPDEST PUSH2 0x3CB PUSH1 0x4 DUP1 CALLDATASIZE SUB DUP2 ADD SWAP1 PUSH2 0x3C6 SWAP2 SWAP1 PUSH2 0x1AE8 JUMP JUMPDEST PUSH2 0x1587 JUMP JUMPDEST PUSH1 0x40 MLOAD PUSH2 0x3D8 SWAP2 SWAP1 PUSH2 0x1F68 JUMP JUMPDEST PUSH1 0x40 MLOAD DUP1 SWAP2 SUB SWAP1 RETURN JUMPDEST PUSH2 0x3FB PUSH1 0x4 DUP1 CALLDATASIZE SUB DUP2 ADD SWAP1 PUSH2 0x3F6 SWAP2 SWAP1 PUSH2 0x1B11 JUMP JUMPDEST PUSH2 0x159F JUMP JUMPDEST PUSH1 0x40 MLOAD PUSH2 0x408 SWAP2 SWAP1 PUSH2 0x1F68 JUMP JUMPDEST PUSH1 0x40 MLOAD DUP1 SWAP2 SUB SWAP1 RETURN JUMPDEST PUSH2 0x419 PUSH2 0x15C4 JUMP JUMPDEST PUSH1 0x40 MLOAD PUSH2 0x426 SWAP2 SWAP1 PUSH2 0x1F68 JUMP JUMPDEST PUSH1 0x40 MLOAD DUP1 SWAP2 SUB SWAP1 RETURN JUMPDEST PUSH2 0x449 PUSH1 0x4 DUP1 CALLDATASIZE SUB DUP2 ADD SWAP1 PUSH2 0x444 SWAP2 SWAP1 PUSH2 0x1AE8 JUMP JUMPDEST PUSH2 0x176B JUMP JUMPDEST PUSH1 0x40 MLOAD PUSH2 0x456 SWAP2 SWAP1 PUSH2 0x1F68 JUMP JUMPDEST PUSH1 0x40 MLOAD DUP1 SWAP2 SUB SWAP1 RETURN JUMPDEST PUSH1 0x3 DUP1 SLOAD PUSH2 0x46C SWAP1 PUSH2 0x22F1 JUMP JUMPDEST DUP1 PUSH1 0x1F ADD PUSH1 0x20 DUP1 SWAP2 DIV MUL PUSH1 0x20 ADD PUSH1 0x40 MLOAD SWAP1 DUP2 ADD PUSH1 0x40 MSTORE DUP1 SWAP3 SWAP2 SWAP1 DUP2 DUP2 MSTORE PUSH1 0x20 ADD DUP3 DUP1 SLOAD PUSH2 0x498 SWAP1 PUSH2 0x22F1 JUMP JUMPDEST DUP1 ISZERO PUSH2 0x4E5 JUMPI DUP1 PUSH1 0x1F LT PUSH2 0x4BA JUMPI PUSH2 0x100 DUP1 DUP4 SLOAD DIV MUL DUP4 MSTORE SWAP2 PUSH1 0x20 ADD SWAP2 PUSH2 0x4E5 JUMP JUMPDEST DUP3 ADD SWAP2 SWAP1 PUSH1 0x0 MSTORE PUSH1 0x20 PUSH1 0x0 KECCAK256 SWAP1 JUMPDEST DUP2 SLOAD DUP2 MSTORE SWAP1 PUSH1 0x1 ADD SWAP1 PUSH1 0x20 ADD DUP1 DUP4 GT PUSH2 0x4C8 JUMPI DUP3 SWAP1 SUB PUSH1 0x1F AND DUP3 ADD SWAP2 JUMPDEST POP POP POP POP POP DUP2 JUMP JUMPDEST PUSH1 0x0 DUP2 PUSH1 0x1 PUSH1 0x0 CALLER PUSH20 0xFFFFFFFFFFFFFFFFFFFFFFFFFFFFFFFFFFFFFFFF AND PUSH20 0xFFFFFFFFFFFFFFFFFFFFFFFFFFFFFFFFFFFFFFFF AND DUP2 MSTORE PUSH1 0x20 ADD SWAP1 DUP2 MSTORE PUSH1 0x20 ADD PUSH1 0x0 KECCAK256 PUSH1 0x0 DUP6 PUSH20 0xFFFFFFFFFFFFFFFFFFFFFFFFFFFFFFFFFFFFFFFF AND PUSH20 0xFFFFFFFFFFFFFFFFFFFFFFFFFFFFFFFFFFFFFFFF AND DUP2 MSTORE PUSH1 0x20 ADD SWAP1 DUP2 MSTORE PUSH1 0x20 ADD PUSH1 0x0 KECCAK256 DUP2 SWAP1 SSTORE POP DUP3 PUSH20 0xFFFFFFFFFFFFFFFFFFFFFFFFFFFFFFFFFFFFFFFF AND CALLER PUSH20 0xFFFFFFFFFFFFFFFFFFFFFFFFFFFFFFFFFFFFFFFF AND PUSH32 0x8C5BE1E5EBEC7D5BD14F71427D1E84F3DD0314C0F7B2291E5B200AC8C7C3B925 DUP5 PUSH1 0x40 MLOAD PUSH2 0x5CD SWAP2 SWAP1 PUSH2 0x1F68 JUMP JUMPDEST PUSH1 0x40 MLOAD DUP1 SWAP2 SUB SWAP1 LOG3 PUSH1 0x1 SWAP1 POP SWAP3 SWAP2 POP POP JUMP JUMPDEST PUSH1 0x0 PUSH1 0xA PUSH1 0x0 DUP4 PUSH20 0xFFFFFFFFFFFFFFFFFFFFFFFFFFFFFFFFFFFFFFFF AND PUSH20 0xFFFFFFFFFFFFFFFFFFFFFFFFFFFFFFFFFFFFFFFF AND DUP2 MSTORE PUSH1 0x20 ADD SWAP1 DUP2 MSTORE PUSH1 0x20 ADD PUSH1 0x0 KECCAK256 SLOAD PUSH1 0x3 PUSH2 0x62D SWAP2 SWAP1 PUSH2 0x2235 JUMP JUMPDEST SWAP1 POP PUSH1 0x0 PUSH3 0x15180 PUSH2 0x7080 TIMESTAMP PUSH2 0x643 SWAP2 SWAP1 PUSH2 0x1FE3 JUMP JUMPDEST PUSH2 0x64D SWAP2 SWAP1 PUSH2 0x2039 JUMP JUMPDEST SWAP1 POP PUSH1 0x9 PUSH1 0x0 DUP5 PUSH20 0xFFFFFFFFFFFFFFFFFFFFFFFFFFFFFFFFFFFFFFFF AND PUSH20 0xFFFFFFFFFFFFFFFFFFFFFFFFFFFFFFFFFFFFFFFF AND DUP2 MSTORE PUSH1 0x20 ADD SWAP1 DUP2 MSTORE PUSH1 0x20 ADD PUSH1 0x0 KECCAK256 SLOAD DUP2 EQ PUSH2 0x69A JUMPI PUSH1 0x3 SWAP2 POP JUMPDEST POP SWAP2 SWAP1 POP JUMP JUMPDEST PUSH1 0x2 SLOAD DUP2 JUMP JUMPDEST PUSH1 0x0 DUP2 PUSH1 0x1 PUSH1 0x0 DUP7 PUSH20 0xFFFFFFFFFFFFFFFFFFFFFFFFFFFFFFFFFFFFFFFF AND PUSH20 0xFFFFFFFFFFFFFFFFFFFFFFFFFFFFFFFFFFFFFFFF AND DUP2 MSTORE PUSH1 0x20 ADD SWAP1 DUP2 MSTORE PUSH1 0x20 ADD PUSH1 0x0 KECCAK256 PUSH1 0x0 CALLER PUSH20 0xFFFFFFFFFFFFFFFFFFFFFFFFFFFFFFFFFFFFFFFF AND PUSH20 0xFFFFFFFFFFFFFFFFFFFFFFFFFFFFFFFFFFFFFFFF AND DUP2 MSTORE PUSH1 0x20 ADD SWAP1 DUP2 MSTORE PUSH1 0x20 ADD PUSH1 0x0 KECCAK256 SLOAD LT ISZERO PUSH2 0x767 JUMPI PUSH1 0x40 MLOAD PUSH32 0x8C379A000000000000000000000000000000000000000000000000000000000 DUP2 MSTORE PUSH1 0x4 ADD PUSH2 0x75E SWAP1 PUSH2 0x1EC8 JUMP JUMPDEST PUSH1 0x40 MLOAD DUP1 SWAP2 SUB SWAP1 REVERT JUMPDEST DUP2 PUSH1 0x1 PUSH1 0x0 DUP7 PUSH20 0xFFFFFFFFFFFFFFFFFFFFFFFFFFFFFFFFFFFFFFFF AND PUSH20 0xFFFFFFFFFFFFFFFFFFFFFFFFFFFFFFFFFFFFFFFF AND DUP2 MSTORE PUSH1 0x20 ADD SWAP1 DUP2 MSTORE PUSH1 0x20 ADD PUSH1 0x0 KECCAK256 PUSH1 0x0 CALLER PUSH20 0xFFFFFFFFFFFFFFFFFFFFFFFFFFFFFFFFFFFFFFFF AND PUSH20 0xFFFFFFFFFFFFFFFFFFFFFFFFFFFFFFFFFFFFFFFF AND DUP2 MSTORE PUSH1 0x20 ADD SWAP1 DUP2 MSTORE PUSH1 0x20 ADD PUSH1 0x0 KECCAK256 PUSH1 0x0 DUP3 DUP3 SLOAD PUSH2 0x7F3 SWAP2 SWAP1 PUSH2 0x2235 JUMP JUMPDEST SWAP3 POP POP DUP2 SWAP1 SSTORE POP PUSH2 0x805 DUP5 DUP5 DUP5 PUSH2 0x1783 JUMP JUMPDEST PUSH1 0x1 SWAP1 POP SWAP4 SWAP3 POP POP POP JUMP JUMPDEST PUSH1 0x5 PUSH1 0x0 SWAP1 SLOAD SWAP1 PUSH2 0x100 EXP SWAP1 DIV PUSH1 0xFF AND DUP2 JUMP JUMPDEST PUSH1 0x7 PUSH1 0x20 MSTORE DUP1 PUSH1 0x0 MSTORE PUSH1 0x40 PUSH1 0x0 KECCAK256 PUSH1 0x0 SWAP2 POP SWAP1 POP SLOAD DUP2 JUMP JUMPDEST DUP1 PUSH1 0x0 DUP1 CALLER PUSH20 0xFFFFFFFFFFFFFFFFFFFFFFFFFFFFFFFFFFFFFFFF AND PUSH20 0xFFFFFFFFFFFFFFFFFFFFFFFFFFFFFFFFFFFFFFFF AND DUP2 MSTORE PUSH1 0x20 ADD SWAP1 DUP2 MSTORE PUSH1 0x20 ADD PUSH1 0x0 KECCAK256 SLOAD LT ISZERO PUSH2 0x8BC JUMPI PUSH1 0x40 MLOAD PUSH32 0x8C379A000000000000000000000000000000000000000000000000000000000 DUP2 MSTORE PUSH1 0x4 ADD PUSH2 0x8B3 SWAP1 PUSH2 0x1F08 JUMP JUMPDEST PUSH1 0x40 MLOAD DUP1 SWAP2 SUB SWAP1 REVERT JUMPDEST DUP1 PUSH1 0x0 DUP1 CALLER PUSH20 0xFFFFFFFFFFFFFFFFFFFFFFFFFFFFFFFFFFFFFFFF AND PUSH20 0xFFFFFFFFFFFFFFFFFFFFFFFFFFFFFFFFFFFFFFFF AND DUP2 MSTORE PUSH1 0x20 ADD SWAP1 DUP2 MSTORE PUSH1 0x20 ADD PUSH1 0x0 KECCAK256 PUSH1 0x0 DUP3 DUP3 SLOAD PUSH2 0x90A SWAP2 SWAP1 PUSH2 0x2235 JUMP JUMPDEST SWAP3 POP POP DUP2 SWAP1 SSTORE POP DUP1 PUSH1 0x2 PUSH1 0x0 DUP3 DUP3 SLOAD PUSH2 0x923 SWAP2 SWAP1 PUSH2 0x2235 JUMP JUMPDEST SWAP3 POP POP DUP2 SWAP1 SSTORE POP PUSH1 0x0 PUSH20 0xFFFFFFFFFFFFFFFFFFFFFFFFFFFFFFFFFFFFFFFF AND CALLER PUSH20 0xFFFFFFFFFFFFFFFFFFFFFFFFFFFFFFFFFFFFFFFF AND PUSH32 0xDDF252AD1BE2C89B69C2B068FC378DAA952BA7F163C4A11628F55A4DF523B3EF DUP4 PUSH1 0x40 MLOAD PUSH2 0x988 SWAP2 SWAP1 PUSH2 0x1F68 JUMP JUMPDEST PUSH1 0x40 MLOAD DUP1 SWAP2 SUB SWAP1 LOG3 POP JUMP JUMPDEST PUSH1 0x60 PUSH1 0x0 PUSH3 0x15180 PUSH2 0x7080 TIMESTAMP PUSH2 0x9A9 SWAP2 SWAP1 PUSH2 0x1FE3 JUMP JUMPDEST PUSH2 0x9B3 SWAP2 SWAP1 PUSH2 0x2039 JUMP JUMPDEST SWAP1 POP PUSH1 0x0 DUP2 PUSH1 0x9 PUSH1 0x0 CALLER PUSH20 0xFFFFFFFFFFFFFFFFFFFFFFFFFFFFFFFFFFFFFFFF AND PUSH20 0xFFFFFFFFFFFFFFFFFFFFFFFFFFFFFFFFFFFFFFFF AND DUP2 MSTORE PUSH1 0x20 ADD SWAP1 DUP2 MSTORE PUSH1 0x20 ADD PUSH1 0x0 KECCAK256 SLOAD LT ISZERO PUSH2 0xA88 JUMPI DUP2 PUSH1 0x9 PUSH1 0x0 CALLER PUSH20 0xFFFFFFFFFFFFFFFFFFFFFFFFFFFFFFFFFFFFFFFF AND PUSH20 0xFFFFFFFFFFFFFFFFFFFFFFFFFFFFFFFFFFFFFFFF AND DUP2 MSTORE PUSH1 0x20 ADD SWAP1 DUP2 MSTORE PUSH1 0x20 ADD PUSH1 0x0 KECCAK256 DUP2 SWAP1 SSTORE POP PUSH1 0x0 PUSH1 0xA PUSH1 0x0 CALLER PUSH20 0xFFFFFFFFFFFFFFFFFFFFFFFFFFFFFFFFFFFFFFFF AND PUSH20 0xFFFFFFFFFFFFFFFFFFFFFFFFFFFFFFFFFFFFFFFF AND DUP2 MSTORE PUSH1 0x20 ADD SWAP1 DUP2 MSTORE PUSH1 0x20 ADD PUSH1 0x0 KECCAK256 DUP2 SWAP1 SSTORE POP JUMPDEST PUSH1 0x3 PUSH1 0xA PUSH1 0x0 CALLER PUSH20 0xFFFFFFFFFFFFFFFFFFFFFFFFFFFFFFFFFFFFFFFF AND PUSH20 0xFFFFFFFFFFFFFFFFFFFFFFFFFFFFFFFFFFFFFFFF AND DUP2 MSTORE PUSH1 0x20 ADD SWAP1 DUP2 MSTORE PUSH1 0x20 ADD PUSH1 0x0 KECCAK256 SLOAD LT PUSH2 0xB0A JUMPI PUSH1 0x40 MLOAD PUSH32 0x8C379A000000000000000000000000000000000000000000000000000000000 DUP2 MSTORE PUSH1 0x4 ADD PUSH2 0xB01 SWAP1 PUSH2 0x1EE8 JUMP JUMPDEST PUSH1 0x40 MLOAD DUP1 SWAP2 SUB SWAP1 REVERT JUMPDEST PUSH1 0x1 PUSH1 0xA PUSH1 0x0 CALLER PUSH20 0xFFFFFFFFFFFFFFFFFFFFFFFFFFFFFFFFFFFFFFFF AND PUSH20 0xFFFFFFFFFFFFFFFFFFFFFFFFFFFFFFFFFFFFFFFF AND DUP2 MSTORE PUSH1 0x20 ADD SWAP1 DUP2 MSTORE PUSH1 0x20 ADD PUSH1 0x0 KECCAK256 SLOAD EQ ISZERO PUSH2 0xCD9 JUMPI PUSH1 0x5 PUSH1 0x0 SWAP1 SLOAD SWAP1 PUSH2 0x100 EXP SWAP1 DIV PUSH1 0xFF AND PUSH1 0xFF AND PUSH1 0xA PUSH2 0xB71 SWAP2 SWAP1 PUSH2 0x20BD JUMP JUMPDEST PUSH1 0x64 PUSH2 0xB7D SWAP2 SWAP1 PUSH2 0x21DB JUMP JUMPDEST SWAP1 POP DUP1 PUSH1 0x0 DUP1 CALLER PUSH20 0xFFFFFFFFFFFFFFFFFFFFFFFFFFFFFFFFFFFFFFFF AND PUSH20 0xFFFFFFFFFFFFFFFFFFFFFFFFFFFFFFFFFFFFFFFF AND DUP2 MSTORE PUSH1 0x20 ADD SWAP1 DUP2 MSTORE PUSH1 0x20 ADD PUSH1 0x0 KECCAK256 SLOAD LT ISZERO PUSH2 0xC00 JUMPI PUSH1 0x40 MLOAD PUSH32 0x8C379A000000000000000000000000000000000000000000000000000000000 DUP2 MSTORE PUSH1 0x4 ADD PUSH2 0xBF7 SWAP1 PUSH2 0x1F28 JUMP JUMPDEST PUSH1 0x40 MLOAD DUP1 SWAP2 SUB SWAP1 REVERT JUMPDEST DUP1 PUSH1 0x0 DUP1 CALLER PUSH20 0xFFFFFFFFFFFFFFFFFFFFFFFFFFFFFFFFFFFFFFFF AND PUSH20 0xFFFFFFFFFFFFFFFFFFFFFFFFFFFFFFFFFFFFFFFF AND DUP2 MSTORE PUSH1 0x20 ADD SWAP1 DUP2 MSTORE PUSH1 0x20 ADD PUSH1 0x0 KECCAK256 PUSH1 0x0 DUP3 DUP3 SLOAD PUSH2 0xC4E SWAP2 SWAP1 PUSH2 0x2235 JUMP JUMPDEST SWAP3 POP POP DUP2 SWAP1 SSTORE POP DUP1 PUSH1 0x2 PUSH1 0x0 DUP3 DUP3 SLOAD PUSH2 0xC67 SWAP2 SWAP1 PUSH2 0x2235 JUMP JUMPDEST SWAP3 POP POP DUP2 SWAP1 SSTORE POP PUSH1 0x0 PUSH20 0xFFFFFFFFFFFFFFFFFFFFFFFFFFFFFFFFFFFFFFFF AND CALLER PUSH20 0xFFFFFFFFFFFFFFFFFFFFFFFFFFFFFFFFFFFFFFFF AND PUSH32 0xDDF252AD1BE2C89B69C2B068FC378DAA952BA7F163C4A11628F55A4DF523B3EF DUP4 PUSH1 0x40 MLOAD PUSH2 0xCCC SWAP2 SWAP1 PUSH2 0x1F68 JUMP JUMPDEST PUSH1 0x40 MLOAD DUP1 SWAP2 SUB SWAP1 LOG3 PUSH2 0xEA5 JUMP JUMPDEST PUSH1 0x2 PUSH1 0xA PUSH1 0x0 CALLER PUSH20 0xFFFFFFFFFFFFFFFFFFFFFFFFFFFFFFFFFFFFFFFF AND PUSH20 0xFFFFFFFFFFFFFFFFFFFFFFFFFFFFFFFFFFFFFFFF AND DUP2 MSTORE PUSH1 0x20 ADD SWAP1 DUP2 MSTORE PUSH1 0x20 ADD PUSH1 0x0 KECCAK256 SLOAD EQ ISZERO PUSH2 0xEA4 JUMPI PUSH1 0x5 PUSH1 0x0 SWAP1 SLOAD SWAP1 PUSH2 0x100 EXP SWAP1 DIV PUSH1 0xFF AND PUSH1 0xFF AND PUSH1 0xA PUSH2 0xD40 SWAP2 SWAP1 PUSH2 0x20BD JUMP JUMPDEST PUSH1 0xC8 PUSH2 0xD4C SWAP2 SWAP1 PUSH2 0x21DB JUMP JUMPDEST SWAP1 POP DUP1 PUSH1 0x0 DUP1 CALLER PUSH20 0xFFFFFFFFFFFFFFFFFFFFFFFFFFFFFFFFFFFFFFFF AND PUSH20 0xFFFFFFFFFFFFFFFFFFFFFFFFFFFFFFFFFFFFFFFF AND DUP2 MSTORE PUSH1 0x20 ADD SWAP1 DUP2 MSTORE PUSH1 0x20 ADD PUSH1 0x0 KECCAK256 SLOAD LT ISZERO PUSH2 0xDCF JUMPI PUSH1 0x40 MLOAD PUSH32 0x8C379A000000000000000000000000000000000000000000000000000000000 DUP2 MSTORE PUSH1 0x4 ADD PUSH2 0xDC6 SWAP1 PUSH2 0x1F28 JUMP JUMPDEST PUSH1 0x40 MLOAD DUP1 SWAP2 SUB SWAP1 REVERT JUMPDEST DUP1 PUSH1 0x0 DUP1 CALLER PUSH20 0xFFFFFFFFFFFFFFFFFFFFFFFFFFFFFFFFFFFFFFFF AND PUSH20 0xFFFFFFFFFFFFFFFFFFFFFFFFFFFFFFFFFFFFFFFF AND DUP2 MSTORE PUSH1 0x20 ADD SWAP1 DUP2 MSTORE PUSH1 0x20 ADD PUSH1 0x0 KECCAK256 PUSH1 0x0 DUP3 DUP3 SLOAD PUSH2 0xE1D SWAP2 SWAP1 PUSH2 0x2235 JUMP JUMPDEST SWAP3 POP POP DUP2 SWAP1 SSTORE POP DUP1 PUSH1 0x2 PUSH1 0x0 DUP3 DUP3 SLOAD PUSH2 0xE36 SWAP2 SWAP1 PUSH2 0x2235 JUMP JUMPDEST SWAP3 POP POP DUP2 SWAP1 SSTORE POP PUSH1 0x0 PUSH20 0xFFFFFFFFFFFFFFFFFFFFFFFFFFFFFFFFFFFFFFFF AND CALLER PUSH20 0xFFFFFFFFFFFFFFFFFFFFFFFFFFFFFFFFFFFFFFFF AND PUSH32 0xDDF252AD1BE2C89B69C2B068FC378DAA952BA7F163C4A11628F55A4DF523B3EF DUP4 PUSH1 0x40 MLOAD PUSH2 0xE9B SWAP2 SWAP1 PUSH2 0x1F68 JUMP JUMPDEST PUSH1 0x40 MLOAD DUP1 SWAP2 SUB SWAP1 LOG3 JUMPDEST JUMPDEST PUSH1 0x1 PUSH1 0xA PUSH1 0x0 CALLER PUSH20 0xFFFFFFFFFFFFFFFFFFFFFFFFFFFFFFFFFFFFFFFF AND PUSH20 0xFFFFFFFFFFFFFFFFFFFFFFFFFFFFFFFFFFFFFFFF AND DUP2 MSTORE PUSH1 0x20 ADD SWAP1 DUP2 MSTORE PUSH1 0x20 ADD PUSH1 0x0 KECCAK256 PUSH1 0x0 DUP3 DUP3 SLOAD PUSH2 0xEF5 SWAP2 SWAP1 PUSH2 0x1FE3 JUMP JUMPDEST SWAP3 POP POP DUP2 SWAP1 SSTORE POP PUSH1 0x0 PUSH1 0x1 PUSH1 0x64 PUSH2 0xF0B DUP8 PUSH2 0x12C6 JUMP JUMPDEST PUSH2 0xF15 SWAP2 SWAP1 PUSH2 0x2351 JUMP JUMPDEST PUSH2 0xF1F SWAP2 SWAP1 PUSH2 0x1FE3 JUMP JUMPDEST SWAP1 POP PUSH1 0x1 DUP2 GT PUSH2 0xF66 JUMPI PUSH1 0x40 MLOAD DUP1 PUSH1 0x40 ADD PUSH1 0x40 MSTORE DUP1 PUSH1 0x5 DUP2 MSTORE PUSH1 0x20 ADD PUSH32 0x746F6B656E000000000000000000000000000000000000000000000000000000 DUP2 MSTORE POP SWAP4 POP PUSH2 0x1199 JUMP JUMPDEST PUSH1 0x5 DUP2 GT PUSH2 0xFF0 JUMPI PUSH1 0x40 MLOAD DUP1 PUSH1 0x40 ADD PUSH1 0x40 MSTORE DUP1 PUSH1 0x5 DUP2 MSTORE PUSH1 0x20 ADD PUSH32 0x7265736574000000000000000000000000000000000000000000000000000000 DUP2 MSTORE POP SWAP4 POP PUSH1 0x0 PUSH1 0xA PUSH1 0x0 CALLER PUSH20 0xFFFFFFFFFFFFFFFFFFFFFFFFFFFFFFFFFFFFFFFF AND PUSH20 0xFFFFFFFFFFFFFFFFFFFFFFFFFFFFFFFFFFFFFFFF AND DUP2 MSTORE PUSH1 0x20 ADD SWAP1 DUP2 MSTORE PUSH1 0x20 ADD PUSH1 0x0 KECCAK256 DUP2 SWAP1 SSTORE POP PUSH2 0x1198 JUMP JUMPDEST PUSH1 0xA DUP2 GT PUSH2 0x106A JUMPI PUSH1 0x40 MLOAD DUP1 PUSH1 0x40 ADD PUSH1 0x40 MSTORE DUP1 PUSH1 0x7 DUP2 MSTORE PUSH1 0x20 ADD PUSH32 0x3838382050454E00000000000000000000000000000000000000000000000000 DUP2 MSTORE POP SWAP4 POP PUSH2 0x1065 CALLER PUSH1 0x5 PUSH1 0x0 SWAP1 SLOAD SWAP1 PUSH2 0x100 EXP SWAP1 DIV PUSH1 0xFF AND PUSH1 0xFF AND PUSH1 0xA PUSH2 0x1053 SWAP2 SWAP1 PUSH2 0x20BD JUMP JUMPDEST PUSH2 0x378 PUSH2 0x1060 SWAP2 SWAP1 PUSH2 0x21DB JUMP JUMPDEST PUSH2 0x19E6 JUMP JUMPDEST PUSH2 0x1197 JUMP JUMPDEST PUSH1 0x14 DUP2 GT PUSH2 0x10AF JUMPI PUSH1 0x40 MLOAD DUP1 PUSH1 0x40 ADD PUSH1 0x40 MSTORE DUP1 PUSH1 0x7 DUP2 MSTORE PUSH1 0x20 ADD PUSH32 0x6E6F7468696E6700000000000000000000000000000000000000000000000000 DUP2 MSTORE POP SWAP4 POP PUSH2 0x1196 JUMP JUMPDEST PUSH1 0x32 DUP2 GT PUSH2 0x1128 JUMPI PUSH1 0x40 MLOAD DUP1 PUSH1 0x40 ADD PUSH1 0x40 MSTORE DUP1 PUSH1 0x7 DUP2 MSTORE PUSH1 0x20 ADD PUSH32 0x3230302050454E00000000000000000000000000000000000000000000000000 DUP2 MSTORE POP SWAP4 POP PUSH2 0x1123 CALLER PUSH1 0x5 PUSH1 0x0 SWAP1 SLOAD SWAP1 PUSH2 0x100 EXP SWAP1 DIV PUSH1 0xFF AND PUSH1 0xFF AND PUSH1 0xA PUSH2 0x1112 SWAP2 SWAP1 PUSH2 0x20BD JUMP JUMPDEST PUSH1 0xC8 PUSH2 0x111E SWAP2 SWAP1 PUSH2 0x21DB JUMP JUMPDEST PUSH2 0x19E6 JUMP JUMPDEST PUSH2 0x1195 JUMP JUMPDEST PUSH1 0x40 MLOAD DUP1 PUSH1 0x40 ADD PUSH1 0x40 MSTORE DUP1 PUSH1 0x7 DUP2 MSTORE PUSH1 0x20 ADD PUSH32 0x3130302050454E00000000000000000000000000000000000000000000000000 DUP2 MSTORE POP SWAP4 POP PUSH2 0x1194 CALLER PUSH1 0x5 PUSH1 0x0 SWAP1 SLOAD SWAP1 PUSH2 0x100 EXP SWAP1 DIV PUSH1 0xFF AND PUSH1 0xFF AND PUSH1 0xA PUSH2 0x1183 SWAP2 SWAP1 PUSH2 0x20BD JUMP JUMPDEST PUSH1 0x64 PUSH2 0x118F SWAP2 SWAP1 PUSH2 0x21DB JUMP JUMPDEST PUSH2 0x19E6 JUMP JUMPDEST JUMPDEST JUMPDEST JUMPDEST JUMPDEST JUMPDEST CALLER PUSH20 0xFFFFFFFFFFFFFFFFFFFFFFFFFFFFFFFFFFFFFFFF AND PUSH32 0x76775F6FD80273D051FFB53FCAFDF73D3F7933B79207E60A978184A1FB72B32D DUP6 DUP5 PUSH1 0x40 MLOAD PUSH2 0x11E1 SWAP3 SWAP2 SWAP1 PUSH2 0x1E38 JUMP JUMPDEST PUSH1 0x40 MLOAD DUP1 SWAP2 SUB SWAP1 LOG2 POP POP POP SWAP2 SWAP1 POP JUMP JUMPDEST PUSH1 0x0 PUSH1 0x20 MSTORE DUP1 PUSH1 0x0 MSTORE PUSH1 0x40 PUSH1 0x0 KECCAK256 PUSH1 0x0 SWAP2 POP SWAP1 POP SLOAD DUP2 JUMP JUMPDEST PUSH1 0xA PUSH1 0x20 MSTORE DUP1 PUSH1 0x0 MSTORE PUSH1 0x40 PUSH1 0x0 KECCAK256 PUSH1 0x0 SWAP2 POP SWAP1 POP SLOAD DUP2 JUMP JUMPDEST PUSH1 0x4 DUP1 SLOAD PUSH2 0x122E SWAP1 PUSH2 0x22F1 JUMP JUMPDEST DUP1 PUSH1 0x1F ADD PUSH1 0x20 DUP1 SWAP2 DIV MUL PUSH1 0x20 ADD PUSH1 0x40 MLOAD SWAP1 DUP2 ADD PUSH1 0x40 MSTORE DUP1 SWAP3 SWAP2 SWAP1 DUP2 DUP2 MSTORE PUSH1 0x20 ADD DUP3 DUP1 SLOAD PUSH2 0x125A SWAP1 PUSH2 0x22F1 JUMP JUMPDEST DUP1 ISZERO PUSH2 0x12A7 JUMPI DUP1 PUSH1 0x1F LT PUSH2 0x127C JUMPI PUSH2 0x100 DUP1 DUP4 SLOAD DIV MUL DUP4 MSTORE SWAP2 PUSH1 0x20 ADD SWAP2 PUSH2 0x12A7 JUMP JUMPDEST DUP3 ADD SWAP2 SWAP1 PUSH1 0x0 MSTORE PUSH1 0x20 PUSH1 0x0 KECCAK256 SWAP1 JUMPDEST DUP2 SLOAD DUP2 MSTORE SWAP1 PUSH1 0x1 ADD SWAP1 PUSH1 0x20 ADD DUP1 DUP4 GT PUSH2 0x128A JUMPI DUP3 SWAP1 SUB PUSH1 0x1F AND DUP3 ADD SWAP2 JUMPDEST POP POP POP POP POP DUP2 JUMP JUMPDEST PUSH1 0x0 PUSH2 0x12BC CALLER DUP5 DUP5 PUSH2 0x1783 JUMP JUMPDEST PUSH1 0x1 SWAP1 POP SWAP3 SWAP2 POP POP JUMP JUMPDEST PUSH1 0x0 TIMESTAMP DIFFICULTY CALLER DUP5 PUSH1 0x40 MLOAD PUSH1 0x20 ADD PUSH2 0x12DF SWAP5 SWAP4 SWAP3 SWAP2 SWAP1 PUSH2 0x1DAD JUMP JUMPDEST PUSH1 0x40 MLOAD PUSH1 0x20 DUP2 DUP4 SUB SUB DUP2 MSTORE SWAP1 PUSH1 0x40 MSTORE DUP1 MLOAD SWAP1 PUSH1 0x20 ADD KECCAK256 PUSH1 0x0 SHR SWAP1 POP SWAP2 SWAP1 POP JUMP JUMPDEST PUSH1 0x0 DUP1 PUSH3 0x15180 PUSH2 0x7080 TIMESTAMP PUSH2 0x1314 SWAP2 SWAP1 PUSH2 0x1FE3 JUMP JUMPDEST PUSH2 0x131E SWAP2 SWAP1 PUSH2 0x2039 JUMP JUMPDEST SWAP1 POP DUP1 PUSH1 0x6 PUSH1 0x0 CALLER PUSH20 0xFFFFFFFFFFFFFFFFFFFFFFFFFFFFFFFFFFFFFFFF AND PUSH20 0xFFFFFFFFFFFFFFFFFFFFFFFFFFFFFFFFFFFFFFFF AND DUP2 MSTORE PUSH1 0x20 ADD SWAP1 DUP2 MSTORE PUSH1 0x20 ADD PUSH1 0x0 KECCAK256 SLOAD LT PUSH2 0x13A1 JUMPI PUSH1 0x40 MLOAD PUSH32 0x8C379A000000000000000000000000000000000000000000000000000000000 DUP2 MSTORE PUSH1 0x4 ADD PUSH2 0x1398 SWAP1 PUSH2 0x1F48 JUMP JUMPDEST PUSH1 0x40 MLOAD DUP1 SWAP2 SUB SWAP1 REVERT JUMPDEST PUSH1 0x1 DUP2 PUSH2 0x13AE SWAP2 SWAP1 PUSH2 0x2235 JUMP JUMPDEST PUSH1 0x6 PUSH1 0x0 CALLER PUSH20 0xFFFFFFFFFFFFFFFFFFFFFFFFFFFFFFFFFFFFFFFF AND PUSH20 0xFFFFFFFFFFFFFFFFFFFFFFFFFFFFFFFFFFFFFFFF AND DUP2 MSTORE PUSH1 0x20 ADD SWAP1 DUP2 MSTORE PUSH1 0x20 ADD PUSH1 0x0 KECCAK256 SLOAD EQ ISZERO PUSH2 0x1450 JUMPI PUSH1 0x1 PUSH1 0x7 PUSH1 0x0 CALLER PUSH20 0xFFFFFFFFFFFFFFFFFFFFFFFFFFFFFFFFFFFFFFFF AND PUSH20 0xFFFFFFFFFFFFFFFFFFFFFFFFFFFFFFFFFFFFFFFF AND DUP2 MSTORE PUSH1 0x20 ADD SWAP1 DUP2 MSTORE PUSH1 0x20 ADD PUSH1 0x0 KECCAK256 PUSH1 0x0 DUP3 DUP3 SLOAD PUSH2 0x1444 SWAP2 SWAP1 PUSH2 0x1FE3 JUMP JUMPDEST SWAP3 POP POP DUP2 SWAP1 SSTORE POP PUSH2 0x1496 JUMP JUMPDEST PUSH1 0x1 PUSH1 0x7 PUSH1 0x0 CALLER PUSH20 0xFFFFFFFFFFFFFFFFFFFFFFFFFFFFFFFFFFFFFFFF AND PUSH20 0xFFFFFFFFFFFFFFFFFFFFFFFFFFFFFFFFFFFFFFFF AND DUP2 MSTORE PUSH1 0x20 ADD SWAP1 DUP2 MSTORE PUSH1 0x20 ADD PUSH1 0x0 KECCAK256 DUP2 SWAP1 SSTORE POP JUMPDEST PUSH2 0x149E PUSH2 0x15C4 JUMP JUMPDEST SWAP2 POP DUP1 PUSH1 0x6 PUSH1 0x0 CALLER PUSH20 0xFFFFFFFFFFFFFFFFFFFFFFFFFFFFFFFFFFFFFFFF AND PUSH20 0xFFFFFFFFFFFFFFFFFFFFFFFFFFFFFFFFFFFFFFFF AND DUP2 MSTORE PUSH1 0x20 ADD SWAP1 DUP2 MSTORE PUSH1 0x20 ADD PUSH1 0x0 KECCAK256 DUP2 SWAP1 SSTORE POP PUSH2 0x14EE CALLER DUP4 PUSH2 0x19E6 JUMP JUMPDEST CALLER PUSH20 0xFFFFFFFFFFFFFFFFFFFFFFFFFFFFFFFFFFFFFFFF AND PUSH32 0xB1EA073AC09A6B73CC1842F3DBDA1736E0C0D94B33AAC1983F2612A5D115B4C7 DUP4 PUSH1 0x7 PUSH1 0x0 CALLER PUSH20 0xFFFFFFFFFFFFFFFFFFFFFFFFFFFFFFFFFFFFFFFF AND PUSH20 0xFFFFFFFFFFFFFFFFFFFFFFFFFFFFFFFFFFFFFFFF AND DUP2 MSTORE PUSH1 0x20 ADD SWAP1 DUP2 MSTORE PUSH1 0x20 ADD PUSH1 0x0 KECCAK256 SLOAD PUSH1 0x40 MLOAD PUSH2 0x1575 SWAP3 SWAP2 SWAP1 PUSH2 0x1F83 JUMP JUMPDEST PUSH1 0x40 MLOAD DUP1 SWAP2 SUB SWAP1 LOG2 POP SWAP1 JUMP JUMPDEST PUSH1 0x8 SLOAD DUP2 JUMP JUMPDEST PUSH1 0x9 PUSH1 0x20 MSTORE DUP1 PUSH1 0x0 MSTORE PUSH1 0x40 PUSH1 0x0 KECCAK256 PUSH1 0x0 SWAP2 POP SWAP1 POP SLOAD DUP2 JUMP JUMPDEST PUSH1 0x1 PUSH1 0x20 MSTORE DUP2 PUSH1 0x0 MSTORE PUSH1 0x40 PUSH1 0x0 KECCAK256 PUSH1 0x20 MSTORE DUP1 PUSH1 0x0 MSTORE PUSH1 0x40 PUSH1 0x0 KECCAK256 PUSH1 0x0 SWAP2 POP SWAP2 POP POP SLOAD DUP2 JUMP JUMPDEST PUSH1 0x0 DUP1 PUSH1 0x1 SWAP1 POP PUSH1 0x0 PUSH1 0x6 PUSH1 0x0 CALLER PUSH20 0xFFFFFFFFFFFFFFFFFFFFFFFFFFFFFFFFFFFFFFFF AND PUSH20 0xFFFFFFFFFFFFFFFFFFFFFFFFFFFFFFFFFFFFFFFF AND DUP2 MSTORE PUSH1 0x20 ADD SWAP1 DUP2 MSTORE PUSH1 0x20 ADD PUSH1 0x0 KECCAK256 SLOAD EQ ISZERO PUSH2 0x1623 JUMPI PUSH1 0x9 DUP2 PUSH2 0x1620 SWAP2 SWAP1 PUSH2 0x1FE3 JUMP JUMPDEST SWAP1 POP JUMPDEST PUSH1 0x0 PUSH1 0x5 PUSH1 0x7 PUSH1 0x0 CALLER PUSH20 0xFFFFFFFFFFFFFFFFFFFFFFFFFFFFFFFFFFFFFFFF AND PUSH20 0xFFFFFFFFFFFFFFFFFFFFFFFFFFFFFFFFFFFFFFFF AND DUP2 MSTORE PUSH1 0x20 ADD SWAP1 DUP2 MSTORE PUSH1 0x20 ADD PUSH1 0x0 KECCAK256 SLOAD PUSH2 0x1671 SWAP2 SWAP1 PUSH2 0x2351 JUMP JUMPDEST EQ DUP1 ISZERO PUSH2 0x16BE JUMPI POP PUSH1 0x0 PUSH1 0x6 PUSH1 0x0 CALLER PUSH20 0xFFFFFFFFFFFFFFFFFFFFFFFFFFFFFFFFFFFFFFFF AND PUSH20 0xFFFFFFFFFFFFFFFFFFFFFFFFFFFFFFFFFFFFFFFF AND DUP2 MSTORE PUSH1 0x20 ADD SWAP1 DUP2 MSTORE PUSH1 0x20 ADD PUSH1 0x0 KECCAK256 SLOAD EQ ISZERO JUMPDEST ISZERO PUSH2 0x16D3 JUMPI PUSH1 0x1 DUP2 PUSH2 0x16D0 SWAP2 SWAP1 PUSH2 0x1FE3 JUMP JUMPDEST SWAP1 POP JUMPDEST PUSH1 0x0 PUSH3 0x15180 PUSH2 0x7080 TIMESTAMP PUSH2 0x16E7 SWAP2 SWAP1 PUSH2 0x1FE3 JUMP JUMPDEST PUSH2 0x16F1 SWAP2 SWAP1 PUSH2 0x2039 JUMP JUMPDEST SWAP1 POP PUSH1 0x0 PUSH1 0x7 PUSH1 0x4 DUP4 PUSH2 0x1704 SWAP2 SWAP1 PUSH2 0x1FE3 JUMP JUMPDEST PUSH2 0x170E SWAP2 SWAP1 PUSH2 0x2351 JUMP JUMPDEST SWAP1 POP PUSH1 0x0 DUP2 EQ ISZERO PUSH2 0x1729 JUMPI PUSH1 0x1 DUP4 PUSH2 0x1726 SWAP2 SWAP1 PUSH2 0x1FE3 JUMP JUMPDEST SWAP3 POP JUMPDEST PUSH1 0x5 PUSH1 0x0 SWAP1 SLOAD SWAP1 PUSH2 0x100 EXP SWAP1 DIV PUSH1 0xFF AND PUSH1 0xFF AND PUSH1 0xA PUSH2 0x1748 SWAP2 SWAP1 PUSH2 0x20BD JUMP JUMPDEST PUSH1 0x8 SLOAD PUSH2 0x1755 SWAP2 SWAP1 PUSH2 0x21DB JUMP JUMPDEST DUP4 PUSH2 0x1760 SWAP2 SWAP1 PUSH2 0x21DB JUMP JUMPDEST SWAP3 POP DUP3 SWAP4 POP POP POP POP SWAP1 JUMP JUMPDEST PUSH1 0x6 PUSH1 0x20 MSTORE DUP1 PUSH1 0x0 MSTORE PUSH1 0x40 PUSH1 0x0 KECCAK256 PUSH1 0x0 SWAP2 POP SWAP1 POP SLOAD DUP2 JUMP JUMPDEST PUSH1 0x0 PUSH20 0xFFFFFFFFFFFFFFFFFFFFFFFFFFFFFFFFFFFFFFFF AND DUP4 PUSH20 0xFFFFFFFFFFFFFFFFFFFFFFFFFFFFFFFFFFFFFFFF AND EQ ISZERO PUSH2 0x17F3 JUMPI PUSH1 0x40 MLOAD PUSH32 0x8C379A000000000000000000000000000000000000000000000000000000000 DUP2 MSTORE PUSH1 0x4 ADD PUSH2 0x17EA SWAP1 PUSH2 0x1E68 JUMP JUMPDEST PUSH1 0x40 MLOAD DUP1 SWAP2 SUB SWAP1 REVERT JUMPDEST PUSH1 0x0 PUSH20 0xFFFFFFFFFFFFFFFFFFFFFFFFFFFFFFFFFFFFFFFF AND DUP3 PUSH20 0xFFFFFFFFFFFFFFFFFFFFFFFFFFFFFFFFFFFFFFFF AND EQ ISZERO PUSH2 0x1863 JUMPI PUSH1 0x40 MLOAD PUSH32 0x8C379A000000000000000000000000000000000000000000000000000000000 DUP2 MSTORE PUSH1 0x4 ADD PUSH2 0x185A SWAP1 PUSH2 0x1EA8 JUMP JUMPDEST PUSH1 0x40 MLOAD DUP1 SWAP2 SUB SWAP1 REVERT JUMPDEST DUP1 PUSH1 0x0 DUP1 DUP6 PUSH20 0xFFFFFFFFFFFFFFFFFFFFFFFFFFFFFFFFFFFFFFFF AND PUSH20 0xFFFFFFFFFFFFFFFFFFFFFFFFFFFFFFFFFFFFFFFF AND DUP2 MSTORE PUSH1 0x20 ADD SWAP1 DUP2 MSTORE PUSH1 0x20 ADD PUSH1 0x0 KECCAK256 SLOAD LT ISZERO PUSH2 0x18E4 JUMPI PUSH1 0x40 MLOAD PUSH32 0x8C379A000000000000000000000000000000000000000000000000000000000 DUP2 MSTORE PUSH1 0x4 ADD PUSH2 0x18DB SWAP1 PUSH2 0x1E88 JUMP JUMPDEST PUSH1 0x40 MLOAD DUP1 SWAP2 SUB SWAP1 REVERT JUMPDEST DUP1 PUSH1 0x0 DUP1 DUP6 PUSH20 0xFFFFFFFFFFFFFFFFFFFFFFFFFFFFFFFFFFFFFFFF AND PUSH20 0xFFFFFFFFFFFFFFFFFFFFFFFFFFFFFFFFFFFFFFFF AND DUP2 MSTORE PUSH1 0x20 ADD SWAP1 DUP2 MSTORE PUSH1 0x20 ADD PUSH1 0x0 KECCAK256 PUSH1 0x0 DUP3 DUP3 SLOAD SUB SWAP3 POP POP DUP2 SWAP1 SSTORE POP DUP1 PUSH1 0x0 DUP1 DUP5 PUSH20 0xFFFFFFFFFFFFFFFFFFFFFFFFFFFFFFFFFFFFFFFF AND PUSH20 0xFFFFFFFFFFFFFFFFFFFFFFFFFFFFFFFFFFFFFFFF AND DUP2 MSTORE PUSH1 0x20 ADD SWAP1 DUP2 MSTORE PUSH1 0x20 ADD PUSH1 0x0 KECCAK256 PUSH1 0x0 DUP3 DUP3 SLOAD ADD SWAP3 POP POP DUP2 SWAP1 SSTORE POP DUP2 PUSH20 0xFFFFFFFFFFFFFFFFFFFFFFFFFFFFFFFFFFFFFFFF AND DUP4 PUSH20 0xFFFFFFFFFFFFFFFFFFFFFFFFFFFFFFFFFFFFFFFF AND PUSH32 0xDDF252AD1BE2C89B69C2B068FC378DAA952BA7F163C4A11628F55A4DF523B3EF DUP4 PUSH1 0x40 MLOAD PUSH2 0x19D9 SWAP2 SWAP1 PUSH2 0x1F68 JUMP JUMPDEST PUSH1 0x40 MLOAD DUP1 SWAP2 SUB SWAP1 LOG3 POP POP POP JUMP JUMPDEST DUP1 PUSH1 0x0 DUP1 DUP5 PUSH20 0xFFFFFFFFFFFFFFFFFFFFFFFFFFFFFFFFFFFFFFFF AND PUSH20 0xFFFFFFFFFFFFFFFFFFFFFFFFFFFFFFFFFFFFFFFF AND DUP2 MSTORE PUSH1 0x20 ADD SWAP1 DUP2 MSTORE PUSH1 0x20 ADD PUSH1 0x0 KECCAK256 PUSH1 0x0 DUP3 DUP3 SLOAD PUSH2 0x1A34 SWAP2 SWAP1 PUSH2 0x1FE3 JUMP JUMPDEST SWAP3 POP POP DUP2 SWAP1 SSTORE POP DUP1 PUSH1 0x2 PUSH1 0x0 DUP3 DUP3 SLOAD PUSH2 0x1A4D SWAP2 SWAP1 PUSH2 0x1FE3 JUMP JUMPDEST SWAP3 POP POP DUP2 SWAP1 SSTORE POP DUP2 PUSH20 0xFFFFFFFFFFFFFFFFFFFFFFFFFFFFFFFFFFFFFFFF AND PUSH1 0x0 PUSH20 0xFFFFFFFFFFFFFFFFFFFFFFFFFFFFFFFFFFFFFFFF AND PUSH32 0xDDF252AD1BE2C89B69C2B068FC378DAA952BA7F163C4A11628F55A4DF523B3EF DUP4 PUSH1 0x40 MLOAD PUSH2 0x1AB2 SWAP2 SWAP1 PUSH2 0x1F68 JUMP JUMPDEST PUSH1 0x40 MLOAD DUP1 SWAP2 SUB SWAP1 LOG3 POP POP JUMP JUMPDEST PUSH1 0x0 DUP2 CALLDATALOAD SWAP1 POP PUSH2 0x1ACD DUP2 PUSH2 0x25CE JUMP JUMPDEST SWAP3 SWAP2 POP POP JUMP JUMPDEST PUSH1 0x0 DUP2 CALLDATALOAD SWAP1 POP PUSH2 0x1AE2 DUP2 PUSH2 0x25E5 JUMP JUMPDEST SWAP3 SWAP2 POP POP JUMP JUMPDEST PUSH1 0x0 PUSH1 0x20 DUP3 DUP5 SUB SLT ISZERO PUSH2 0x1AFA JUMPI PUSH1 0x0 DUP1 REVERT JUMPDEST PUSH1 0x0 PUSH2 0x1B08 DUP5 DUP3 DUP6 ADD PUSH2 0x1ABE JUMP JUMPDEST SWAP2 POP POP SWAP3 SWAP2 POP POP JUMP JUMPDEST PUSH1 0x0 DUP1 PUSH1 0x40 DUP4 DUP6 SUB SLT ISZERO PUSH2 0x1B24 JUMPI PUSH1 0x0 DUP1 REVERT JUMPDEST PUSH1 0x0 PUSH2 0x1B32 DUP6 DUP3 DUP7 ADD PUSH2 0x1ABE JUMP JUMPDEST SWAP3 POP POP PUSH1 0x20 PUSH2 0x1B43 DUP6 DUP3 DUP7 ADD PUSH2 0x1ABE JUMP JUMPDEST SWAP2 POP POP SWAP3 POP SWAP3 SWAP1 POP JUMP JUMPDEST PUSH1 0x0 DUP1 PUSH1 0x0 PUSH1 0x60 DUP5 DUP7 SUB SLT ISZERO PUSH2 0x1B62 JUMPI PUSH1 0x0 DUP1 REVERT JUMPDEST PUSH1 0x0 PUSH2 0x1B70 DUP7 DUP3 DUP8 ADD PUSH2 0x1ABE JUMP JUMPDEST SWAP4 POP POP PUSH1 0x20 PUSH2 0x1B81 DUP7 DUP3 DUP8 ADD PUSH2 0x1ABE JUMP JUMPDEST SWAP3 POP POP PUSH1 0x40 PUSH2 0x1B92 DUP7 DUP3 DUP8 ADD PUSH2 0x1AD3 JUMP JUMPDEST SWAP2 POP POP SWAP3 POP SWAP3 POP SWAP3 JUMP JUMPDEST PUSH1 0x0 DUP1 PUSH1 0x40 DUP4 DUP6 SUB SLT ISZERO PUSH2 0x1BAF JUMPI PUSH1 0x0 DUP1 REVERT JUMPDEST PUSH1 0x0 PUSH2 0x1BBD DUP6 DUP3 DUP7 ADD PUSH2 0x1ABE JUMP JUMPDEST SWAP3 POP POP PUSH1 0x20 PUSH2 0x1BCE DUP6 DUP3 DUP7 ADD PUSH2 0x1AD3 JUMP JUMPDEST SWAP2 POP POP SWAP3 POP SWAP3 SWAP1 POP JUMP JUMPDEST PUSH1 0x0 PUSH1 0x20 DUP3 DUP5 SUB SLT ISZERO PUSH2 0x1BEA JUMPI PUSH1 0x0 DUP1 REVERT JUMPDEST PUSH1 0x0 PUSH2 0x1BF8 DUP5 DUP3 DUP6 ADD PUSH2 0x1AD3 JUMP JUMPDEST SWAP2 POP POP SWAP3 SWAP2 POP POP JUMP JUMPDEST PUSH2 0x1C12 PUSH2 0x1C0D DUP3 PUSH2 0x2269 JUMP JUMPDEST PUSH2 0x2323 JUMP JUMPDEST DUP3 MSTORE POP POP JUMP JUMPDEST PUSH2 0x1C21 DUP2 PUSH2 0x227B JUMP JUMPDEST DUP3 MSTORE POP POP JUMP JUMPDEST PUSH1 0x0 PUSH2 0x1C32 DUP3 PUSH2 0x1FC7 JUMP JUMPDEST PUSH2 0x1C3C DUP2 DUP6 PUSH2 0x1FD2 JUMP JUMPDEST SWAP4 POP PUSH2 0x1C4C DUP2 DUP6 PUSH1 0x20 DUP7 ADD PUSH2 0x22BE JUMP JUMPDEST PUSH2 0x1C55 DUP2 PUSH2 0x240F JUMP JUMPDEST DUP5 ADD SWAP2 POP POP SWAP3 SWAP2 POP POP JUMP JUMPDEST PUSH1 0x0 PUSH2 0x1C6D PUSH1 0x21 DUP4 PUSH2 0x1FD2 JUMP JUMPDEST SWAP2 POP PUSH2 0x1C78 DUP3 PUSH2 0x243A JUMP JUMPDEST PUSH1 0x40 DUP3 ADD SWAP1 POP SWAP2 SWAP1 POP JUMP JUMPDEST PUSH1 0x0 PUSH2 0x1C90 PUSH1 0x1B DUP4 PUSH2 0x1FD2 JUMP JUMPDEST SWAP2 POP PUSH2 0x1C9B DUP3 PUSH2 0x2489 JUMP JUMPDEST PUSH1 0x20 DUP3 ADD SWAP1 POP SWAP2 SWAP1 POP JUMP JUMPDEST PUSH1 0x0 PUSH2 0x1CB3 PUSH1 0x1F DUP4 PUSH2 0x1FD2 JUMP JUMPDEST SWAP2 POP PUSH2 0x1CBE DUP3 PUSH2 0x24B2 JUMP JUMPDEST PUSH1 0x20 DUP3 ADD SWAP1 POP SWAP2 SWAP1 POP JUMP JUMPDEST PUSH1 0x0 PUSH2 0x1CD6 PUSH1 0x18 DUP4 PUSH2 0x1FD2 JUMP JUMPDEST SWAP2 POP PUSH2 0x1CE1 DUP3 PUSH2 0x24DB JUMP JUMPDEST PUSH1 0x20 DUP3 ADD SWAP1 POP SWAP2 SWAP1 POP JUMP JUMPDEST PUSH1 0x0 PUSH2 0x1CF9 PUSH1 0x13 DUP4 PUSH2 0x1FD2 JUMP JUMPDEST SWAP2 POP PUSH2 0x1D04 DUP3 PUSH2 0x2504 JUMP JUMPDEST PUSH1 0x20 DUP3 ADD SWAP1 POP SWAP2 SWAP1 POP JUMP JUMPDEST PUSH1 0x0 PUSH2 0x1D1C PUSH1 0x23 DUP4 PUSH2 0x1FD2 JUMP JUMPDEST SWAP2 POP PUSH2 0x1D27 DUP3 PUSH2 0x252D JUMP JUMPDEST PUSH1 0x40 DUP3 ADD SWAP1 POP SWAP2 SWAP1 POP JUMP JUMPDEST PUSH1 0x0 PUSH2 0x1D3F PUSH1 0xE DUP4 PUSH2 0x1FD2 JUMP JUMPDEST SWAP2 POP PUSH2 0x1D4A DUP3 PUSH2 0x257C JUMP JUMPDEST PUSH1 0x20 DUP3 ADD SWAP1 POP SWAP2 SWAP1 POP JUMP JUMPDEST PUSH1 0x0 PUSH2 0x1D62 PUSH1 0x18 DUP4 PUSH2 0x1FD2 JUMP JUMPDEST SWAP2 POP PUSH2 0x1D6D DUP3 PUSH2 0x25A5 JUMP JUMPDEST PUSH1 0x20 DUP3 ADD SWAP1 POP SWAP2 SWAP1 POP JUMP JUMPDEST PUSH2 0x1D81 DUP2 PUSH2 0x22A7 JUMP JUMPDEST DUP3 MSTORE POP POP JUMP JUMPDEST PUSH2 0x1D98 PUSH2 0x1D93 DUP3 PUSH2 0x22A7 JUMP JUMPDEST PUSH2 0x2347 JUMP JUMPDEST DUP3 MSTORE POP POP JUMP JUMPDEST PUSH2 0x1DA7 DUP2 PUSH2 0x22B1 JUMP JUMPDEST DUP3 MSTORE POP POP JUMP JUMPDEST PUSH1 0x0 PUSH2 0x1DB9 DUP3 DUP8 PUSH2 0x1D87 JUMP JUMPDEST PUSH1 0x20 DUP3 ADD SWAP2 POP PUSH2 0x1DC9 DUP3 DUP7 PUSH2 0x1D87 JUMP JUMPDEST PUSH1 0x20 DUP3 ADD SWAP2 POP PUSH2 0x1DD9 DUP3 DUP6 PUSH2 0x1C01 JUMP JUMPDEST PUSH1 0x14 DUP3 ADD SWAP2 POP PUSH2 0x1DE9 DUP3 DUP5 PUSH2 0x1D87 JUMP JUMPDEST PUSH1 0x20 DUP3 ADD SWAP2 POP DUP2 SWAP1 POP SWAP6 SWAP5 POP POP POP POP POP JUMP JUMPDEST PUSH1 0x0 PUSH1 0x20 DUP3 ADD SWAP1 POP PUSH2 0x1E10 PUSH1 0x0 DUP4 ADD DUP5 PUSH2 0x1C18 JUMP JUMPDEST SWAP3 SWAP2 POP POP JUMP JUMPDEST PUSH1 0x0 PUSH1 0x20 DUP3 ADD SWAP1 POP DUP2 DUP2 SUB PUSH1 0x0 DUP4 ADD MSTORE PUSH2 0x1E30 DUP2 DUP5 PUSH2 0x1C27 JUMP JUMPDEST SWAP1 POP SWAP3 SWAP2 POP POP JUMP JUMPDEST PUSH1 0x0 PUSH1 0x40 DUP3 ADD SWAP1 POP DUP2 DUP2 SUB PUSH1 0x0 DUP4 ADD MSTORE PUSH2 0x1E52 DUP2 DUP6 PUSH2 0x1C27 JUMP JUMPDEST SWAP1 POP PUSH2 0x1E61 PUSH1 0x20 DUP4 ADD DUP5 PUSH2 0x1D78 JUMP JUMPDEST SWAP4 SWAP3 POP POP POP JUMP JUMPDEST PUSH1 0x0 PUSH1 0x20 DUP3 ADD SWAP1 POP DUP2 DUP2 SUB PUSH1 0x0 DUP4 ADD MSTORE PUSH2 0x1E81 DUP2 PUSH2 0x1C60 JUMP JUMPDEST SWAP1 POP SWAP2 SWAP1 POP JUMP JUMPDEST PUSH1 0x0 PUSH1 0x20 DUP3 ADD SWAP1 POP DUP2 DUP2 SUB PUSH1 0x0 DUP4 ADD MSTORE PUSH2 0x1EA1 DUP2 PUSH2 0x1C83 JUMP JUMPDEST SWAP1 POP SWAP2 SWAP1 POP JUMP JUMPDEST PUSH1 0x0 PUSH1 0x20 DUP3 ADD SWAP1 POP DUP2 DUP2 SUB PUSH1 0x0 DUP4 ADD MSTORE PUSH2 0x1EC1 DUP2 PUSH2 0x1CA6 JUMP JUMPDEST SWAP1 POP SWAP2 SWAP1 POP JUMP JUMPDEST PUSH1 0x0 PUSH1 0x20 DUP3 ADD SWAP1 POP DUP2 DUP2 SUB PUSH1 0x0 DUP4 ADD MSTORE PUSH2 0x1EE1 DUP2 PUSH2 0x1CC9 JUMP JUMPDEST SWAP1 POP SWAP2 SWAP1 POP JUMP JUMPDEST PUSH1 0x0 PUSH1 0x20 DUP3 ADD SWAP1 POP DUP2 DUP2 SUB PUSH1 0x0 DUP4 ADD MSTORE PUSH2 0x1F01 DUP2 PUSH2 0x1CEC JUMP JUMPDEST SWAP1 POP SWAP2 SWAP1 POP JUMP JUMPDEST PUSH1 0x0 PUSH1 0x20 DUP3 ADD SWAP1 POP DUP2 DUP2 SUB PUSH1 0x0 DUP4 ADD MSTORE PUSH2 0x1F21 DUP2 PUSH2 0x1D0F JUMP JUMPDEST SWAP1 POP SWAP2 SWAP1 POP JUMP JUMPDEST PUSH1 0x0 PUSH1 0x20 DUP3 ADD SWAP1 POP DUP2 DUP2 SUB PUSH1 0x0 DUP4 ADD MSTORE PUSH2 0x1F41 DUP2 PUSH2 0x1D32 JUMP JUMPDEST SWAP1 POP SWAP2 SWAP1 POP JUMP JUMPDEST PUSH1 0x0 PUSH1 0x20 DUP3 ADD SWAP1 POP DUP2 DUP2 SUB PUSH1 0x0 DUP4 ADD MSTORE PUSH2 0x1F61 DUP2 PUSH2 0x1D55 JUMP JUMPDEST SWAP1 POP SWAP2 SWAP1 POP JUMP JUMPDEST PUSH1 0x0 PUSH1 0x20 DUP3 ADD SWAP1 POP PUSH2 0x1F7D PUSH1 0x0 DUP4 ADD DUP5 PUSH2 0x1D78 JUMP JUMPDEST SWAP3 SWAP2 POP POP JUMP JUMPDEST PUSH1 0x0 PUSH1 0x40 DUP3 ADD SWAP1 POP PUSH2 0x1F98 PUSH1 0x0 DUP4 ADD DUP6 PUSH2 0x1D78 JUMP JUMPDEST PUSH2 0x1FA5 PUSH1 0x20 DUP4 ADD DUP5 PUSH2 0x1D78 JUMP JUMPDEST SWAP4 SWAP3 POP POP POP JUMP JUMPDEST PUSH1 0x0 PUSH1 0x20 DUP3 ADD SWAP1 POP PUSH2 0x1FC1 PUSH1 0x0 DUP4 ADD DUP5 PUSH2 0x1D9E JUMP JUMPDEST SWAP3 SWAP2 POP POP JUMP JUMPDEST PUSH1 0x0 DUP2 MLOAD SWAP1 POP SWAP2 SWAP1 POP JUMP JUMPDEST PUSH1 0x0 DUP3 DUP3 MSTORE PUSH1 0x20 DUP3 ADD SWAP1 POP SWAP3 SWAP2 POP POP JUMP JUMPDEST PUSH1 0x0 PUSH2 0x1FEE DUP3 PUSH2 0x22A7 JUMP JUMPDEST SWAP2 POP PUSH2 0x1FF9 DUP4 PUSH2 0x22A7 JUMP JUMPDEST SWAP3 POP DUP3 PUSH32 0xFFFFFFFFFFFFFFFFFFFFFFFFFFFFFFFFFFFFFFFFFFFFFFFFFFFFFFFFFFFFFFFF SUB DUP3 GT ISZERO PUSH2 0x202E JUMPI PUSH2 0x202D PUSH2 0x2382 JUMP JUMPDEST JUMPDEST DUP3 DUP3 ADD SWAP1 POP SWAP3 SWAP2 POP POP JUMP JUMPDEST PUSH1 0x0 PUSH2 0x2044 DUP3 PUSH2 0x22A7 JUMP JUMPDEST SWAP2 POP PUSH2 0x204F DUP4 PUSH2 0x22A7 JUMP JUMPDEST SWAP3 POP DUP3 PUSH2 0x205F JUMPI PUSH2 0x205E PUSH2 0x23B1 JUMP JUMPDEST JUMPDEST DUP3 DUP3 DIV SWAP1 POP SWAP3 SWAP2 POP POP JUMP JUMPDEST PUSH1 0x0 DUP1 DUP3 SWAP2 POP DUP4 SWAP1 POP JUMPDEST PUSH1 0x1 DUP6 GT ISZERO PUSH2 0x20B4 JUMPI DUP1 DUP7 DIV DUP2 GT ISZERO PUSH2 0x2090 JUMPI PUSH2 0x208F PUSH2 0x2382 JUMP JUMPDEST JUMPDEST PUSH1 0x1 DUP6 AND ISZERO PUSH2 0x209F JUMPI DUP1 DUP3 MUL SWAP2 POP JUMPDEST DUP1 DUP2 MUL SWAP1 POP PUSH2 0x20AD DUP6 PUSH2 0x242D JUMP JUMPDEST SWAP5 POP PUSH2 0x2074 JUMP JUMPDEST SWAP5 POP SWAP5 SWAP3 POP POP POP JUMP JUMPDEST PUSH1 0x0 PUSH2 0x20C8 DUP3 PUSH2 0x22A7 JUMP JUMPDEST SWAP2 POP PUSH2 0x20D3 DUP4 PUSH2 0x22A7 JUMP JUMPDEST SWAP3 POP PUSH2 0x2100 PUSH32 0xFFFFFFFFFFFFFFFFFFFFFFFFFFFFFFFFFFFFFFFFFFFFFFFFFFFFFFFFFFFFFFFF DUP5 DUP5 PUSH2 0x2108 JUMP JUMPDEST SWAP1 POP SWAP3 SWAP2 POP POP JUMP JUMPDEST PUSH1 0x0 DUP3 PUSH2 0x2118 JUMPI PUSH1 0x1 SWAP1 POP PUSH2 0x21D4 JUMP JUMPDEST DUP2 PUSH2 0x2126 JUMPI PUSH1 0x0 SWAP1 POP PUSH2 0x21D4 JUMP JUMPDEST DUP2 PUSH1 0x1 DUP2 EQ PUSH2 0x213C JUMPI PUSH1 0x2 DUP2 EQ PUSH2 0x2146 JUMPI PUSH2 0x2175 JUMP JUMPDEST PUSH1 0x1 SWAP2 POP POP PUSH2 0x21D4 JUMP JUMPDEST PUSH1 0xFF DUP5 GT ISZERO PUSH2 0x2158 JUMPI PUSH2 0x2157 PUSH2 0x2382 JUMP JUMPDEST JUMPDEST DUP4 PUSH1 0x2 EXP SWAP2 POP DUP5 DUP3 GT ISZERO PUSH2 0x216F JUMPI PUSH2 0x216E PUSH2 0x2382 JUMP JUMPDEST JUMPDEST POP PUSH2 0x21D4 JUMP JUMPDEST POP PUSH1 0x20 DUP4 LT PUSH2 0x133 DUP4 LT AND PUSH1 0x4E DUP5 LT PUSH1 0xB DUP5 LT AND OR ISZERO PUSH2 0x21AA JUMPI DUP3 DUP3 EXP SWAP1 POP DUP4 DUP2 GT ISZERO PUSH2 0x21A5 JUMPI PUSH2 0x21A4 PUSH2 0x2382 JUMP JUMPDEST JUMPDEST PUSH2 0x21D4 JUMP JUMPDEST PUSH2 0x21B7 DUP5 DUP5 DUP5 PUSH1 0x1 PUSH2 0x206A JUMP JUMPDEST SWAP3 POP SWAP1 POP DUP2 DUP5 DIV DUP2 GT ISZERO PUSH2 0x21CE JUMPI PUSH2 0x21CD PUSH2 0x2382 JUMP JUMPDEST JUMPDEST DUP2 DUP2 MUL SWAP1 POP JUMPDEST SWAP4 SWAP3 POP POP POP JUMP JUMPDEST PUSH1 0x0 PUSH2 0x21E6 DUP3 PUSH2 0x22A7 JUMP JUMPDEST SWAP2 POP PUSH2 0x21F1 DUP4 PUSH2 0x22A7 JUMP JUMPDEST SWAP3 POP DUP2 PUSH32 0xFFFFFFFFFFFFFFFFFFFFFFFFFFFFFFFFFFFFFFFFFFFFFFFFFFFFFFFFFFFFFFFF DIV DUP4 GT DUP3 ISZERO ISZERO AND ISZERO PUSH2 0x222A JUMPI PUSH2 0x2229 PUSH2 0x2382 JUMP JUMPDEST JUMPDEST DUP3 DUP3 MUL SWAP1 POP SWAP3 SWAP2 POP POP JUMP JUMPDEST PUSH1 0x0 PUSH2 0x2240 DUP3 PUSH2 0x22A7 JUMP JUMPDEST SWAP2 POP PUSH2 0x224B DUP4 PUSH2 0x22A7 JUMP JUMPDEST SWAP3 POP DUP3 DUP3 LT ISZERO PUSH2 0x225E JUMPI PUSH2 0x225D PUSH2 0x2382 JUMP JUMPDEST JUMPDEST DUP3 DUP3 SUB SWAP1 POP SWAP3 SWAP2 POP POP JUMP JUMPDEST PUSH1 0x0 PUSH2 0x2274 DUP3 PUSH2 0x2287 JUMP JUMPDEST SWAP1 POP SWAP2 SWAP1 POP JUMP JUMPDEST PUSH1 0x0 DUP2 ISZERO ISZERO SWAP1 POP SWAP2 SWAP1 POP JUMP JUMPDEST PUSH1 0x0 PUSH20 0xFFFFFFFFFFFFFFFFFFFFFFFFFFFFFFFFFFFFFFFF DUP3 AND SWAP1 POP SWAP2 SWAP1 POP JUMP JUMPDEST PUSH1 0x0 DUP2 SWAP1 POP SWAP2 SWAP1 POP JUMP JUMPDEST PUSH1 0x0 PUSH1 0xFF DUP3 AND SWAP1 POP SWAP2 SWAP1 POP JUMP JUMPDEST PUSH1 0x0 JUMPDEST DUP4 DUP2 LT ISZERO PUSH2 0x22DC JUMPI DUP1 DUP3 ADD MLOAD DUP2 DUP5 ADD MSTORE PUSH1 0x20 DUP2 ADD SWAP1 POP PUSH2 0x22C1 JUMP JUMPDEST DUP4 DUP2 GT ISZERO PUSH2 0x22EB JUMPI PUSH1 0x0 DUP5 DUP5 ADD MSTORE JUMPDEST POP POP POP POP JUMP JUMPDEST PUSH1 0x0 PUSH1 0x2 DUP3 DIV SWAP1 POP PUSH1 0x1 DUP3 AND DUP1 PUSH2 0x2309 JUMPI PUSH1 0x7F DUP3 AND SWAP2 POP JUMPDEST PUSH1 0x20 DUP3 LT DUP2 EQ ISZERO PUSH2 0x231D JUMPI PUSH2 0x231C PUSH2 0x23E0 JUMP JUMPDEST JUMPDEST POP SWAP2 SWAP1 POP JUMP JUMPDEST PUSH1 0x0 PUSH2 0x232E DUP3 PUSH2 0x2335 JUMP JUMPDEST SWAP1 POP SWAP2 SWAP1 POP JUMP JUMPDEST PUSH1 0x0 PUSH2 0x2340 DUP3 PUSH2 0x2420 JUMP JUMPDEST SWAP1 POP SWAP2 SWAP1 POP JUMP JUMPDEST PUSH1 0x0 DUP2 SWAP1 POP SWAP2 SWAP1 POP JUMP JUMPDEST PUSH1 0x0 PUSH2 0x235C DUP3 PUSH2 0x22A7 JUMP JUMPDEST SWAP2 POP PUSH2 0x2367 DUP4 PUSH2 0x22A7 JUMP JUMPDEST SWAP3 POP DUP3 PUSH2 0x2377 JUMPI PUSH2 0x2376 PUSH2 0x23B1 JUMP JUMPDEST JUMPDEST DUP3 DUP3 MOD SWAP1 POP SWAP3 SWAP2 POP POP JUMP JUMPDEST PUSH32 0x4E487B7100000000000000000000000000000000000000000000000000000000 PUSH1 0x0 MSTORE PUSH1 0x11 PUSH1 0x4 MSTORE PUSH1 0x24 PUSH1 0x0 REVERT JUMPDEST PUSH32 0x4E487B7100000000000000000000000000000000000000000000000000000000 PUSH1 0x0 MSTORE PUSH1 0x12 PUSH1 0x4 MSTORE PUSH1 0x24 PUSH1 0x0 REVERT JUMPDEST PUSH32 0x4E487B7100000000000000000000000000000000000000000000000000000000 PUSH1 0x0 MSTORE PUSH1 0x22 PUSH1 0x4 MSTORE PUSH1 0x24 PUSH1 0x0 REVERT JUMPDEST PUSH1 0x0 PUSH1 0x1F NOT PUSH1 0x1F DUP4 ADD AND SWAP1 POP SWAP2 SWAP1 POP JUMP JUMPDEST PUSH1 0x0 DUP2 PUSH1 0x60 SHL SWAP1 POP SWAP2 SWAP1 POP JUMP JUMPDEST PUSH1 0x0 DUP2 PUSH1 0x1 SHR SWAP1 POP SWAP2 SWAP1 POP JUMP JUMPDEST PUSH32 0x45524332303A207472616E736665722066726F6D207A65726F20616464726573 PUSH1 0x0 DUP3 ADD MSTORE PUSH32 0x7300000000000000000000000000000000000000000000000000000000000000 PUSH1 0x20 DUP3 ADD MSTORE POP JUMP JUMPDEST PUSH32 0x45524332303A20696E73756666696369656E742062616C616E63650000000000 PUSH1 0x0 DUP3 ADD MSTORE POP JUMP JUMPDEST PUSH32 0x45524332303A207472616E7366657220746F207A65726F206164647265737300 PUSH1 0x0 DUP3 ADD MSTORE POP JUMP JUMPDEST PUSH32 0x45524332303A20616C6C6F77616E636520746F6F206C6F770000000000000000 PUSH1 0x0 DUP3 ADD MSTORE POP JUMP JUMPDEST PUSH32 0x4D61782033206472617773207065722064617900000000000000000000000000 PUSH1 0x0 DUP3 ADD MSTORE POP JUMP JUMPDEST PUSH32 0x45524332303A20696E73756666696369656E742062616C616E636520746F2062 PUSH1 0x0 DUP3 ADD MSTORE PUSH32 0x75726E0000000000000000000000000000000000000000000000000000000000 PUSH1 0x20 DUP3 ADD MSTORE POP JUMP JUMPDEST PUSH32 0x4E6F7420656E6F7567682050454E000000000000000000000000000000000000 PUSH1 0x0 DUP3 ADD MSTORE POP JUMP JUMPDEST PUSH32 0x416C726561647920636865636B656420696E20746F6461790000000000000000 PUSH1 0x0 DUP3 ADD MSTORE POP JUMP JUMPDEST PUSH2 0x25D7 DUP2 PUSH2 0x2269 JUMP JUMPDEST DUP2 EQ PUSH2 0x25E2 JUMPI PUSH1 0x0 DUP1 REVERT JUMPDEST POP JUMP JUMPDEST PUSH2 0x25EE DUP2 PUSH2 0x22A7 JUMP JUMPDEST DUP2 EQ PUSH2 0x25F9 JUMPI PUSH1 0x0 DUP1 REVERT JUMPDEST POP JUMP INVALID LOG2 PUSH5 0x6970667358 0x22 SLT KECCAK256 0x4E 0x29 SDIV 0x2D 0xFB PUSH30 0x172334FB6C9C1E1258165D361170153154660016F79EA6C0BAAE64736F6C PUSH4 0x43000804 STOP CALLER "
				},
				"gasEstimates": {
					"creation": {
						"codeDepositCost": "1955600",
						"executionCost": "infinite",
						"totalCost": "infinite"
					},
					"external": {
						"allowance(address,address)": "infinite",
						"approve(address,uint256)": "infinite",
						"balanceOf(address)": "1625",
						"burn(uint256)": "infinite",
						"checkin()": "infinite",
						"checkinBase()": "1151",
						"checkinDate(address)": "1624",
						"checkinStreak(address)": "1559",
						"decimals()": "1194",
						"getCheckinReward()": "infinite",
						"getLuckyDrawCount(address)": "infinite",
						"luckyDraw(uint256)": "infinite",
						"luckyDrawCount(address)": "1537",
						"luckyDrawDate(address)": "1558",
						"name()": "infinite",
						"random(uint256)": "infinite",
						"symbol()": "infinite",
						"totalSupply()": "1219",
						"transfer(address,uint256)": "infinite",
						"transferFrom(address,address,uint256)": "infinite"
					}
				},
				"methodIdentifiers": {
					"allowance(address,address)": "dd62ed3e",
					"approve(address,uint256)": "095ea7b3",
					"balanceOf(address)": "70a08231",
					"burn(uint256)": "42966c68",
					"checkin()": "baeb0718",
					"checkinBase()": "bb47e61a",
					"checkinDate(address)": "f1a19b6c",
					"checkinStreak(address)": "35edf0b0",
					"decimals()": "313ce567",
					"getCheckinReward()": "ed04fac8",
					"getLuckyDrawCount(address)": "17d6da82",
					"luckyDraw(uint256)": "6d6ae1a8",
					"luckyDrawCount(address)": "7f93ee98",
					"luckyDrawDate(address)": "bd6e4e75",
					"name()": "06fdde03",
					"random(uint256)": "b863bd37",
					"symbol()": "95d89b41",
					"totalSupply()": "18160ddd",
					"transfer(address,uint256)": "a9059cbb",
					"transferFrom(address,address,uint256)": "23b872dd"
				}
			},
			"storageLayout": {
				"storage": [
					{
						"astId": 9,
						"contract": "contracts/base/PenERC20V2.sol:PenERC20V2",
						"label": "balanceOf",
						"offset": 0,
						"slot": "0",
						"type": "t_mapping(t_address,t_uint256)"
					},
					{
						"astId": 16,
						"contract": "contracts/base/PenERC20V2.sol:PenERC20V2",
						"label": "allowance",
						"offset": 0,
						"slot": "1",
						"type": "t_mapping(t_address,t_mapping(t_address,t_uint256))"
					},
					{
						"astId": 19,
						"contract": "contracts/base/PenERC20V2.sol:PenERC20V2",
						"label": "totalSupply",
						"offset": 0,
						"slot": "2",
						"type": "t_uint256"
					},
					{
						"astId": 21,
						"contract": "contracts/base/PenERC20V2.sol:PenERC20V2",
						"label": "name",
						"offset": 0,
						"slot": "3",
						"type": "t_string_storage"
					},
					{
						"astId": 23,
						"contract": "contracts/base/PenERC20V2.sol:PenERC20V2",
						"label": "symbol",
						"offset": 0,
						"slot": "4",
						"type": "t_string_storage"
					},
					{
						"astId": 26,
						"contract": "contracts/base/PenERC20V2.sol:PenERC20V2",
						"label": "decimals",
						"offset": 0,
						"slot": "5",
						"type": "t_uint8"
					},
					{
						"astId": 280,
						"contract": "contracts/base/PenERC20V2.sol:PenERC20V2",
						"label": "checkinDate",
						"offset": 0,
						"slot": "6",
						"type": "t_mapping(t_address,t_uint256)"
					},
					{
						"astId": 284,
						"contract": "contracts/base/PenERC20V2.sol:PenERC20V2",
						"label": "checkinStreak",
						"offset": 0,
						"slot": "7",
						"type": "t_mapping(t_address,t_uint256)"
					},
					{
						"astId": 287,
						"contract": "contracts/base/PenERC20V2.sol:PenERC20V2",
						"label": "checkinBase",
						"offset": 0,
						"slot": "8",
						"type": "t_uint256"
					},
					{
						"astId": 477,
						"contract": "contracts/base/PenERC20V2.sol:PenERC20V2",
						"label": "luckyDrawDate",
						"offset": 0,
						"slot": "9",
						"type": "t_mapping(t_address,t_uint256)"
					},
					{
						"astId": 481,
						"contract": "contracts/base/PenERC20V2.sol:PenERC20V2",
						"label": "luckyDrawCount",
						"offset": 0,
						"slot": "10",
						"type": "t_mapping(t_address,t_uint256)"
					}
				],
				"types": {
					"t_address": {
						"encoding": "inplace",
						"label": "address",
						"numberOfBytes": "20"
					},
					"t_mapping(t_address,t_mapping(t_address,t_uint256))": {
						"encoding": "mapping",
						"key": "t_address",
						"label": "mapping(address => mapping(address => uint256))",
						"numberOfBytes": "32",
						"value": "t_mapping(t_address,t_uint256)"
					},
					"t_mapping(t_address,t_uint256)": {
						"encoding": "mapping",
						"key": "t_address",
						"label": "mapping(address => uint256)",
						"numberOfBytes": "32",
						"value": "t_uint256"
					},
					"t_string_storage": {
						"encoding": "bytes",
						"label": "string",
						"numberOfBytes": "32"
					},
					"t_uint256": {
						"encoding": "inplace",
						"label": "uint256",
						"numberOfBytes": "32"
					},
					"t_uint8": {
						"encoding": "inplace",
						"label": "uint8",
						"numberOfBytes": "1"
					}
				}
			},
			"userdoc": {
				"kind": "user",
				"methods": {},
				"version": 1
			}
		}
	}
}