{
	"contracts/PenERC20V2.sol": {
		"PenERC20V2": {
			"abi": [
				{
					"inputs": [
						{
							"internalType": "string",
							"name": "name_",
							"type": "string"
						},
						{
							"internalType": "string",
							"name": "symbol_",
							"type": "string"
						},
						{
							"internalType": "address",
							"name": "owner_",
							"type": "address"
						}
					],
					"stateMutability": "nonpayable",
					"type": "constructor"
				},
				{
					"anonymous": false,
					"inputs": [
						{
							"indexed": true,
							"internalType": "address",
							"name": "owner",
							"type": "address"
						},
						{
							"indexed": true,
							"internalType": "address",
							"name": "spender",
							"type": "address"
						},
						{
							"indexed": false,
							"internalType": "uint256",
							"name": "value",
							"type": "uint256"
						}
					],
					"name": "Approval",
					"type": "event"
				},
				{
					"anonymous": false,
					"inputs": [
						{
							"indexed": true,
							"internalType": "address",
							"name": "user",
							"type": "address"
						},
						{
							"indexed": false,
							"internalType": "uint256",
							"name": "reward",
							"type": "uint256"
						},
						{
							"indexed": false,
							"internalType": "uint256",
							"name": "streak",
							"type": "uint256"
						}
					],
					"name": "Checkin",
					"type": "event"
				},
				{
					"anonymous": false,
					"inputs": [
						{
							"indexed": true,
							"internalType": "address",
							"name": "user",
							"type": "address"
						},
						{
							"indexed": false,
							"internalType": "string",
							"name": "reward",
							"type": "string"
						},
						{
							"indexed": false,
							"internalType": "uint256",
							"name": "cost",
							"type": "uint256"
						}
					],
					"name": "LuckyDraw",
					"type": "event"
				},
				{
					"anonymous": false,
					"inputs": [
						{
							"indexed": true,
							"internalType": "address",
							"name": "from",
							"type": "address"
						},
						{
							"indexed": true,
							"internalType": "address",
							"name": "to",
							"type": "address"
						},
						{
							"indexed": false,
							"internalType": "uint256",
							"name": "value",
							"type": "uint256"
						}
					],
					"name": "Transfer",
					"type": "event"
				},
				{
					"inputs": [
						{
							"internalType": "address",
							"name": "",
							"type": "address"
						},
						{
							"internalType": "address",
							"name": "",
							"type": "address"
						}
					],
					"name": "allowance",
					"outputs": [
						{
							"internalType": "uint256",
							"name": "",
							"type": "uint256"
						}
					],
					"stateMutability": "view",
					"type": "function"
				},
				{
					"inputs": [
						{
							"internalType": "address",
							"name": "spender",
							"type": "address"
						},
						{
							"internalType": "uint256",
							"name": "amount",
							"type": "uint256"
						}
					],
					"name": "approve",
					"outputs": [
						{
							"internalType": "bool",
							"name": "",
							"type": "bool"
						}
					],
					"stateMutability": "nonpayable",
					"type": "function"
				},
				{
					"inputs": [
						{
							"internalType": "address",
							"name": "",
							"type": "address"
						}
					],
					"name": "balanceOf",
					"outputs": [
						{
							"internalType": "uint256",
							"name": "",
							"type": "uint256"
						}
					],
					"stateMutability": "view",
					"type": "function"
				},
				{
					"inputs": [
						{
							"internalType": "uint256",
							"name": "amount",
							"type": "uint256"
						}
					],
					"name": "burn",
					"outputs": [],
					"stateMutability": "nonpayable",
					"type": "function"
				},
				{
					"inputs": [],
					"name": "checkin",
					"outputs": [
						{
							"internalType": "uint256",
							"name": "reward",
							"type": "uint256"
						}
					],
					"stateMutability": "nonpayable",
					"type": "function"
				},
				{
					"inputs": [],
					"name": "checkinBase",
					"outputs": [
						{
							"internalType": "uint256",
							"name": "",
							"type": "uint256"
						}
					],
					"stateMutability": "view",
					"type": "function"
				},
				{
					"inputs": [
						{
							"internalType": "address",
							"name": "",
							"type": "address"
						}
					],
					"name": "checkinDate",
					"outputs": [
						{
							"internalType": "uint256",
							"name": "",
							"type": "uint256"
						}
					],
					"stateMutability": "view",
					"type": "function"
				},
				{
					"inputs": [
						{
							"internalType": "address",
							"name": "",
							"type": "address"
						}
					],
					"name": "checkinStreak",
					"outputs": [
						{
							"internalType": "uint256",
							"name": "",
							"type": "uint256"
						}
					],
					"stateMutability": "view",
					"type": "function"
				},
				{
					"inputs": [],
					"name": "decimals",
					"outputs": [
						{
							"internalType": "uint8",
							"name": "",
							"type": "uint8"
						}
					],
					"stateMutability": "view",
					"type": "function"
				},
				{
					"inputs": [
						{
							"internalType": "uint256",
							"name": "oldCheckinStreak",
							"type": "uint256"
						}
					],
					"name": "getCheckinReward",
					"outputs": [
						{
							"internalType": "uint256",
							"name": "",
							"type": "uint256"
						}
					],
					"stateMutability": "view",
					"type": "function"
				},
				{
					"inputs": [
						{
							"internalType": "uint256",
							"name": "seed",
							"type": "uint256"
						}
					],
					"name": "luckyDraw",
					"outputs": [
						{
							"internalType": "string",
							"name": "reward",
							"type": "string"
						}
					],
					"stateMutability": "nonpayable",
					"type": "function"
				},
				{
					"inputs": [
						{
							"internalType": "address",
							"name": "",
							"type": "address"
						}
					],
					"name": "luckyDrawCount",
					"outputs": [
						{
							"internalType": "uint256",
							"name": "",
							"type": "uint256"
						}
					],
					"stateMutability": "view",
					"type": "function"
				},
				{
					"inputs": [
						{
							"internalType": "address",
							"name": "",
							"type": "address"
						}
					],
					"name": "luckyDrawDate",
					"outputs": [
						{
							"internalType": "uint256",
							"name": "",
							"type": "uint256"
						}
					],
					"stateMutability": "view",
					"type": "function"
				},
				{
					"inputs": [],
					"name": "name",
					"outputs": [
						{
							"internalType": "string",
							"name": "",
							"type": "string"
						}
					],
					"stateMutability": "view",
					"type": "function"
				},
				{
					"inputs": [
						{
							"internalType": "uint256",
							"name": "seed",
							"type": "uint256"
						}
					],
					"name": "random",
					"outputs": [
						{
							"internalType": "uint256",
							"name": "",
							"type": "uint256"
						}
					],
					"stateMutability": "view",
					"type": "function"
				},
				{
					"inputs": [],
					"name": "symbol",
					"outputs": [
						{
							"internalType": "string",
							"name": "",
							"type": "string"
						}
					],
					"stateMutability": "view",
					"type": "function"
				},
				{
					"inputs": [],
					"name": "totalSupply",
					"outputs": [
						{
							"internalType": "uint256",
							"name": "",
							"type": "uint256"
						}
					],
					"stateMutability": "view",
					"type": "function"
				},
				{
					"inputs": [
						{
							"internalType": "address",
							"name": "recipient",
							"type": "address"
						},
						{
							"internalType": "uint256",
							"name": "amount",
							"type": "uint256"
						}
					],
					"name": "transfer",
					"outputs": [
						{
							"internalType": "bool",
							"name": "",
							"type": "bool"
						}
					],
					"stateMutability": "nonpayable",
					"type": "function"
				},
				{
					"inputs": [
						{
							"internalType": "address",
							"name": "sender",
							"type": "address"
						},
						{
							"internalType": "address",
							"name": "recipient",
							"type": "address"
						},
						{
							"internalType": "uint256",
							"name": "amount",
							"type": "uint256"
						}
					],
					"name": "transferFrom",
					"outputs": [
						{
							"internalType": "bool",
							"name": "",
							"type": "bool"
						}
					],
					"stateMutability": "nonpayable",
					"type": "function"
				}
			],
			"devdoc": {
				"events": {
					"Approval(address,address,uint256)": {
						"details": "释放条件：当 `value` 单位的货币从账户 (`owner`) 授权给另一账户 (`spender`)时."
					},
					"Transfer(address,address,uint256)": {
						"details": "释放条件：当 `value` 单位的货币从账户 (`from`) 转账到另一账户 (`to`)时."
					}
				},
				"kind": "dev",
				"methods": {
					"approve(address,uint256)": {
						"details": "调用者账户给`spender`账户授权 `amount`数量代币。 如果成功，返回 `true`. 释放 {Approval} 事件."
					}
				},
				"version": 1
			},
			"evm": {
				"assembly": "    /* \"contracts/PenERC20V2.sol\":90:4751  contract PenERC20V2 is ERC20 {... */\n  mstore(0x40, 0x80)\n    /* \"contracts/base/ERC20.sol\":391:393  18 */\n  0x12\n    /* \"contracts/base/ERC20.sol\":367:393  uint8 public decimals = 18 */\n  0x05\n  exp(0x0100, 0x00)\n  dup2\n  sload\n  dup2\n  0xff\n  mul\n  not\n  and\n  swap1\n  dup4\n  0xff\n  and\n  mul\n  or\n  swap1\n  sstore\n  pop\n    /* \"contracts/PenERC20V2.sol\":424:427  100 */\n  0x64\n    /* \"contracts/PenERC20V2.sol\":395:427  uint256 public checkinBase = 100 */\n  0x08\n  sstore\n    /* \"contracts/PenERC20V2.sol\":545:655  constructor(string memory name_, string memory symbol_, address owner_) ERC20(name_, symbol_, owner_) {... */\n  callvalue\n  dup1\n  iszero\n  tag_1\n  jumpi\n  0x00\n  dup1\n  revert\ntag_1:\n  pop\n  mload(0x40)\n  sub(codesize, bytecodeSize)\n  dup1\n  bytecodeSize\n  dup4\n  codecopy\n  dup2\n  dup2\n  add\n  0x40\n  mstore\n  dup2\n  add\n  swap1\n  tag_2\n  swap2\n  swap1\n  tag_3\n  jump\t// in\ntag_2:\n    /* \"contracts/PenERC20V2.sol\":623:628  name_ */\n  dup3\n    /* \"contracts/PenERC20V2.sol\":630:637  symbol_ */\n  dup3\n    /* \"contracts/PenERC20V2.sol\":639:645  owner_ */\n  dup3\n    /* \"contracts/base/ERC20.sol\":492:497  name_ */\n  dup3\n    /* \"contracts/base/ERC20.sol\":485:489  name */\n  0x03\n    /* \"contracts/base/ERC20.sol\":485:497  name = name_ */\n  swap1\n  dup2\n  tag_7\n  swap2\n  swap1\n  tag_8\n  jump\t// in\ntag_7:\n  pop\n    /* \"contracts/base/ERC20.sol\":517:524  symbol_ */\n  dup2\n    /* \"contracts/base/ERC20.sol\":508:514  symbol */\n  0x04\n    /* \"contracts/base/ERC20.sol\":508:524  symbol = symbol_ */\n  swap1\n  dup2\n  tag_9\n  swap2\n  swap1\n  tag_8\n  jump\t// in\ntag_9:\n  pop\n    /* \"contracts/base/ERC20.sol\":626:672  mint(owner_, 200000 * 10 ** uint256(decimals)) */\n  tag_10\n    /* \"contracts/base/ERC20.sol\":631:637  owner_ */\n  dup2\n    /* \"contracts/base/ERC20.sol\":662:670  decimals */\n  0x05\n  0x00\n  swap1\n  sload\n  swap1\n  0x0100\n  exp\n  swap1\n  div\n  0xff\n  and\n    /* \"contracts/base/ERC20.sol\":654:671  uint256(decimals) */\n  0xff\n  and\n    /* \"contracts/base/ERC20.sol\":648:650  10 */\n  0x0a\n    /* \"contracts/base/ERC20.sol\":648:671  10 ** uint256(decimals) */\n  exp\n    /* \"contracts/base/ERC20.sol\":639:645  200000 */\n  0x030d40\n    /* \"contracts/base/ERC20.sol\":639:671  200000 * 10 ** uint256(decimals) */\n  mul\n    /* \"contracts/base/ERC20.sol\":626:630  mint */\n  shl(0x20, tag_11)\n    /* \"contracts/base/ERC20.sol\":626:672  mint(owner_, 200000 * 10 ** uint256(decimals)) */\n  0x20\n  shr\n  jump\t// in\ntag_10:\n    /* \"contracts/base/ERC20.sol\":402:691  constructor(string memory name_, string memory symbol_, address owner_) {... */\n  pop\n  pop\n  pop\n    /* \"contracts/PenERC20V2.sol\":545:655  constructor(string memory name_, string memory symbol_, address owner_) ERC20(name_, symbol_, owner_) {... */\n  pop\n  pop\n  pop\n    /* \"contracts/PenERC20V2.sol\":90:4751  contract PenERC20V2 is ERC20 {... */\n  jump(tag_13)\n    /* \"contracts/base/ERC20.sol\":1775:1969  function mint(address recipient, uint256 amount) internal {... */\ntag_11:\n    /* \"contracts/base/ERC20.sol\":1868:1874  amount */\n  dup1\n    /* \"contracts/base/ERC20.sol\":1844:1853  balanceOf */\n  0x00\n    /* \"contracts/base/ERC20.sol\":1844:1864  balanceOf[recipient] */\n  dup1\n    /* \"contracts/base/ERC20.sol\":1854:1863  recipient */\n  dup5\n    /* \"contracts/base/ERC20.sol\":1844:1864  balanceOf[recipient] */\n  0xffffffffffffffffffffffffffffffffffffffff\n  and\n  0xffffffffffffffffffffffffffffffffffffffff\n  and\n  dup2\n  mstore\n  0x20\n  add\n  swap1\n  dup2\n  mstore\n  0x20\n  add\n  0x00\n  keccak256\n  0x00\n    /* \"contracts/base/ERC20.sol\":1844:1874  balanceOf[recipient] += amount */\n  dup3\n  dup3\n  sload\n  tag_15\n  swap2\n  swap1\n  tag_16\n  jump\t// in\ntag_15:\n  swap3\n  pop\n  pop\n  dup2\n  swap1\n  sstore\n  pop\n    /* \"contracts/base/ERC20.sol\":1900:1906  amount */\n  dup1\n    /* \"contracts/base/ERC20.sol\":1885:1896  totalSupply */\n  0x02\n  0x00\n    /* \"contracts/base/ERC20.sol\":1885:1906  totalSupply += amount */\n  dup3\n  dup3\n  sload\n  tag_17\n  swap2\n  swap1\n  tag_16\n  jump\t// in\ntag_17:\n  swap3\n  pop\n  pop\n  dup2\n  swap1\n  sstore\n  pop\n    /* \"contracts/base/ERC20.sol\":1943:1952  recipient */\n  dup2\n    /* \"contracts/base/ERC20.sol\":1922:1961  Transfer(address(0), recipient, amount) */\n  0xffffffffffffffffffffffffffffffffffffffff\n  and\n    /* \"contracts/base/ERC20.sol\":1939:1940  0 */\n  0x00\n    /* \"contracts/base/ERC20.sol\":1922:1961  Transfer(address(0), recipient, amount) */\n  0xffffffffffffffffffffffffffffffffffffffff\n  and\n  0xddf252ad1be2c89b69c2b068fc378daa952ba7f163c4a11628f55a4df523b3ef\n    /* \"contracts/base/ERC20.sol\":1954:1960  amount */\n  dup4\n    /* \"contracts/base/ERC20.sol\":1922:1961  Transfer(address(0), recipient, amount) */\n  mload(0x40)\n  tag_18\n  swap2\n  swap1\n  tag_19\n  jump\t// in\ntag_18:\n  mload(0x40)\n  dup1\n  swap2\n  sub\n  swap1\n  log3\n    /* \"contracts/base/ERC20.sol\":1775:1969  function mint(address recipient, uint256 amount) internal {... */\n  pop\n  pop\n  jump\t// out\n    /* \"#utility.yul\":7:82   */\ntag_20:\n    /* \"#utility.yul\":40:46   */\n  0x00\n    /* \"#utility.yul\":73:75   */\n  0x40\n    /* \"#utility.yul\":67:76   */\n  mload\n    /* \"#utility.yul\":57:76   */\n  swap1\n  pop\n    /* \"#utility.yul\":7:82   */\n  swap1\n  jump\t// out\n    /* \"#utility.yul\":88:205   */\ntag_21:\n    /* \"#utility.yul\":197:198   */\n  0x00\n    /* \"#utility.yul\":194:195   */\n  dup1\n    /* \"#utility.yul\":187:199   */\n  revert\n    /* \"#utility.yul\":211:328   */\ntag_22:\n    /* \"#utility.yul\":320:321   */\n  0x00\n    /* \"#utility.yul\":317:318   */\n  dup1\n    /* \"#utility.yul\":310:322   */\n  revert\n    /* \"#utility.yul\":334:451   */\ntag_23:\n    /* \"#utility.yul\":443:444   */\n  0x00\n    /* \"#utility.yul\":440:441   */\n  dup1\n    /* \"#utility.yul\":433:445   */\n  revert\n    /* \"#utility.yul\":457:574   */\ntag_24:\n    /* \"#utility.yul\":566:567   */\n  0x00\n    /* \"#utility.yul\":563:564   */\n  dup1\n    /* \"#utility.yul\":556:568   */\n  revert\n    /* \"#utility.yul\":580:682   */\ntag_25:\n    /* \"#utility.yul\":621:627   */\n  0x00\n    /* \"#utility.yul\":672:674   */\n  0x1f\n    /* \"#utility.yul\":668:675   */\n  not\n    /* \"#utility.yul\":663:665   */\n  0x1f\n    /* \"#utility.yul\":656:661   */\n  dup4\n    /* \"#utility.yul\":652:666   */\n  add\n    /* \"#utility.yul\":648:676   */\n  and\n    /* \"#utility.yul\":638:676   */\n  swap1\n  pop\n    /* \"#utility.yul\":580:682   */\n  swap2\n  swap1\n  pop\n  jump\t// out\n    /* \"#utility.yul\":688:868   */\ntag_26:\n    /* \"#utility.yul\":736:813   */\n  0x4e487b7100000000000000000000000000000000000000000000000000000000\n    /* \"#utility.yul\":733:734   */\n  0x00\n    /* \"#utility.yul\":726:814   */\n  mstore\n    /* \"#utility.yul\":833:837   */\n  0x41\n    /* \"#utility.yul\":830:831   */\n  0x04\n    /* \"#utility.yul\":823:838   */\n  mstore\n    /* \"#utility.yul\":857:861   */\n  0x24\n    /* \"#utility.yul\":854:855   */\n  0x00\n    /* \"#utility.yul\":847:862   */\n  revert\n    /* \"#utility.yul\":874:1155   */\ntag_27:\n    /* \"#utility.yul\":957:984   */\n  tag_67\n    /* \"#utility.yul\":979:983   */\n  dup3\n    /* \"#utility.yul\":957:984   */\n  tag_25\n  jump\t// in\ntag_67:\n    /* \"#utility.yul\":949:955   */\n  dup2\n    /* \"#utility.yul\":945:985   */\n  add\n    /* \"#utility.yul\":1087:1093   */\n  dup2\n    /* \"#utility.yul\":1075:1085   */\n  dup2\n    /* \"#utility.yul\":1072:1094   */\n  lt\n    /* \"#utility.yul\":1051:1069   */\n  0xffffffffffffffff\n    /* \"#utility.yul\":1039:1049   */\n  dup3\n    /* \"#utility.yul\":1036:1070   */\n  gt\n    /* \"#utility.yul\":1033:1095   */\n  or\n    /* \"#utility.yul\":1030:1118   */\n  iszero\n  tag_68\n  jumpi\n    /* \"#utility.yul\":1098:1116   */\n  tag_69\n  tag_26\n  jump\t// in\ntag_69:\n    /* \"#utility.yul\":1030:1118   */\ntag_68:\n    /* \"#utility.yul\":1138:1148   */\n  dup1\n    /* \"#utility.yul\":1134:1136   */\n  0x40\n    /* \"#utility.yul\":1127:1149   */\n  mstore\n    /* \"#utility.yul\":917:1155   */\n  pop\n    /* \"#utility.yul\":874:1155   */\n  pop\n  pop\n  jump\t// out\n    /* \"#utility.yul\":1161:1290   */\ntag_28:\n    /* \"#utility.yul\":1195:1201   */\n  0x00\n    /* \"#utility.yul\":1222:1242   */\n  tag_71\n  tag_20\n  jump\t// in\ntag_71:\n    /* \"#utility.yul\":1212:1242   */\n  swap1\n  pop\n    /* \"#utility.yul\":1251:1284   */\n  tag_72\n    /* \"#utility.yul\":1279:1283   */\n  dup3\n    /* \"#utility.yul\":1271:1277   */\n  dup3\n    /* \"#utility.yul\":1251:1284   */\n  tag_27\n  jump\t// in\ntag_72:\n    /* \"#utility.yul\":1161:1290   */\n  swap2\n  swap1\n  pop\n  jump\t// out\n    /* \"#utility.yul\":1296:1604   */\ntag_29:\n    /* \"#utility.yul\":1358:1362   */\n  0x00\n    /* \"#utility.yul\":1448:1466   */\n  0xffffffffffffffff\n    /* \"#utility.yul\":1440:1446   */\n  dup3\n    /* \"#utility.yul\":1437:1467   */\n  gt\n    /* \"#utility.yul\":1434:1490   */\n  iszero\n  tag_74\n  jumpi\n    /* \"#utility.yul\":1470:1488   */\n  tag_75\n  tag_26\n  jump\t// in\ntag_75:\n    /* \"#utility.yul\":1434:1490   */\ntag_74:\n    /* \"#utility.yul\":1508:1537   */\n  tag_76\n    /* \"#utility.yul\":1530:1536   */\n  dup3\n    /* \"#utility.yul\":1508:1537   */\n  tag_25\n  jump\t// in\ntag_76:\n    /* \"#utility.yul\":1500:1537   */\n  swap1\n  pop\n    /* \"#utility.yul\":1592:1596   */\n  0x20\n    /* \"#utility.yul\":1586:1590   */\n  dup2\n    /* \"#utility.yul\":1582:1597   */\n  add\n    /* \"#utility.yul\":1574:1597   */\n  swap1\n  pop\n    /* \"#utility.yul\":1296:1604   */\n  swap2\n  swap1\n  pop\n  jump\t// out\n    /* \"#utility.yul\":1610:1856   */\ntag_30:\n    /* \"#utility.yul\":1691:1692   */\n  0x00\n    /* \"#utility.yul\":1701:1814   */\ntag_78:\n    /* \"#utility.yul\":1715:1721   */\n  dup4\n    /* \"#utility.yul\":1712:1713   */\n  dup2\n    /* \"#utility.yul\":1709:1722   */\n  lt\n    /* \"#utility.yul\":1701:1814   */\n  iszero\n  tag_80\n  jumpi\n    /* \"#utility.yul\":1800:1801   */\n  dup1\n    /* \"#utility.yul\":1795:1798   */\n  dup3\n    /* \"#utility.yul\":1791:1802   */\n  add\n    /* \"#utility.yul\":1785:1803   */\n  mload\n    /* \"#utility.yul\":1781:1782   */\n  dup2\n    /* \"#utility.yul\":1776:1779   */\n  dup5\n    /* \"#utility.yul\":1772:1783   */\n  add\n    /* \"#utility.yul\":1765:1804   */\n  mstore\n    /* \"#utility.yul\":1737:1739   */\n  0x20\n    /* \"#utility.yul\":1734:1735   */\n  dup2\n    /* \"#utility.yul\":1730:1740   */\n  add\n    /* \"#utility.yul\":1725:1740   */\n  swap1\n  pop\n    /* \"#utility.yul\":1701:1814   */\n  jump(tag_78)\ntag_80:\n    /* \"#utility.yul\":1848:1849   */\n  0x00\n    /* \"#utility.yul\":1839:1845   */\n  dup5\n    /* \"#utility.yul\":1834:1837   */\n  dup5\n    /* \"#utility.yul\":1830:1846   */\n  add\n    /* \"#utility.yul\":1823:1850   */\n  mstore\n    /* \"#utility.yul\":1672:1856   */\n  pop\n    /* \"#utility.yul\":1610:1856   */\n  pop\n  pop\n  pop\n  jump\t// out\n    /* \"#utility.yul\":1862:2296   */\ntag_31:\n    /* \"#utility.yul\":1951:1956   */\n  0x00\n    /* \"#utility.yul\":1976:2042   */\n  tag_82\n    /* \"#utility.yul\":1992:2041   */\n  tag_83\n    /* \"#utility.yul\":2034:2040   */\n  dup5\n    /* \"#utility.yul\":1992:2041   */\n  tag_29\n  jump\t// in\ntag_83:\n    /* \"#utility.yul\":1976:2042   */\n  tag_28\n  jump\t// in\ntag_82:\n    /* \"#utility.yul\":1967:2042   */\n  swap1\n  pop\n    /* \"#utility.yul\":2065:2071   */\n  dup3\n    /* \"#utility.yul\":2058:2063   */\n  dup2\n    /* \"#utility.yul\":2051:2072   */\n  mstore\n    /* \"#utility.yul\":2103:2107   */\n  0x20\n    /* \"#utility.yul\":2096:2101   */\n  dup2\n    /* \"#utility.yul\":2092:2108   */\n  add\n    /* \"#utility.yul\":2141:2144   */\n  dup5\n    /* \"#utility.yul\":2132:2138   */\n  dup5\n    /* \"#utility.yul\":2127:2130   */\n  dup5\n    /* \"#utility.yul\":2123:2139   */\n  add\n    /* \"#utility.yul\":2120:2145   */\n  gt\n    /* \"#utility.yul\":2117:2229   */\n  iszero\n  tag_84\n  jumpi\n    /* \"#utility.yul\":2148:2227   */\n  tag_85\n  tag_24\n  jump\t// in\ntag_85:\n    /* \"#utility.yul\":2117:2229   */\ntag_84:\n    /* \"#utility.yul\":2238:2290   */\n  tag_86\n    /* \"#utility.yul\":2283:2289   */\n  dup5\n    /* \"#utility.yul\":2278:2281   */\n  dup3\n    /* \"#utility.yul\":2273:2276   */\n  dup6\n    /* \"#utility.yul\":2238:2290   */\n  tag_30\n  jump\t// in\ntag_86:\n    /* \"#utility.yul\":1957:2296   */\n  pop\n    /* \"#utility.yul\":1862:2296   */\n  swap4\n  swap3\n  pop\n  pop\n  pop\n  jump\t// out\n    /* \"#utility.yul\":2316:2671   */\ntag_32:\n    /* \"#utility.yul\":2383:2388   */\n  0x00\n    /* \"#utility.yul\":2432:2435   */\n  dup3\n    /* \"#utility.yul\":2425:2429   */\n  0x1f\n    /* \"#utility.yul\":2417:2423   */\n  dup4\n    /* \"#utility.yul\":2413:2430   */\n  add\n    /* \"#utility.yul\":2409:2436   */\n  slt\n    /* \"#utility.yul\":2399:2521   */\n  tag_88\n  jumpi\n    /* \"#utility.yul\":2440:2519   */\n  tag_89\n  tag_23\n  jump\t// in\ntag_89:\n    /* \"#utility.yul\":2399:2521   */\ntag_88:\n    /* \"#utility.yul\":2550:2556   */\n  dup2\n    /* \"#utility.yul\":2544:2557   */\n  mload\n    /* \"#utility.yul\":2575:2665   */\n  tag_90\n    /* \"#utility.yul\":2661:2664   */\n  dup5\n    /* \"#utility.yul\":2653:2659   */\n  dup3\n    /* \"#utility.yul\":2646:2650   */\n  0x20\n    /* \"#utility.yul\":2638:2644   */\n  dup7\n    /* \"#utility.yul\":2634:2651   */\n  add\n    /* \"#utility.yul\":2575:2665   */\n  tag_31\n  jump\t// in\ntag_90:\n    /* \"#utility.yul\":2566:2665   */\n  swap2\n  pop\n    /* \"#utility.yul\":2389:2671   */\n  pop\n    /* \"#utility.yul\":2316:2671   */\n  swap3\n  swap2\n  pop\n  pop\n  jump\t// out\n    /* \"#utility.yul\":2677:2803   */\ntag_33:\n    /* \"#utility.yul\":2714:2721   */\n  0x00\n    /* \"#utility.yul\":2754:2796   */\n  0xffffffffffffffffffffffffffffffffffffffff\n    /* \"#utility.yul\":2747:2752   */\n  dup3\n    /* \"#utility.yul\":2743:2797   */\n  and\n    /* \"#utility.yul\":2732:2797   */\n  swap1\n  pop\n    /* \"#utility.yul\":2677:2803   */\n  swap2\n  swap1\n  pop\n  jump\t// out\n    /* \"#utility.yul\":2809:2905   */\ntag_34:\n    /* \"#utility.yul\":2846:2853   */\n  0x00\n    /* \"#utility.yul\":2875:2899   */\n  tag_93\n    /* \"#utility.yul\":2893:2898   */\n  dup3\n    /* \"#utility.yul\":2875:2899   */\n  tag_33\n  jump\t// in\ntag_93:\n    /* \"#utility.yul\":2864:2899   */\n  swap1\n  pop\n    /* \"#utility.yul\":2809:2905   */\n  swap2\n  swap1\n  pop\n  jump\t// out\n    /* \"#utility.yul\":2911:3033   */\ntag_35:\n    /* \"#utility.yul\":2984:3008   */\n  tag_95\n    /* \"#utility.yul\":3002:3007   */\n  dup2\n    /* \"#utility.yul\":2984:3008   */\n  tag_34\n  jump\t// in\ntag_95:\n    /* \"#utility.yul\":2977:2982   */\n  dup2\n    /* \"#utility.yul\":2974:3009   */\n  eq\n    /* \"#utility.yul\":2964:3027   */\n  tag_96\n  jumpi\n    /* \"#utility.yul\":3023:3024   */\n  0x00\n    /* \"#utility.yul\":3020:3021   */\n  dup1\n    /* \"#utility.yul\":3013:3025   */\n  revert\n    /* \"#utility.yul\":2964:3027   */\ntag_96:\n    /* \"#utility.yul\":2911:3033   */\n  pop\n  jump\t// out\n    /* \"#utility.yul\":3039:3182   */\ntag_36:\n    /* \"#utility.yul\":3096:3101   */\n  0x00\n    /* \"#utility.yul\":3127:3133   */\n  dup2\n    /* \"#utility.yul\":3121:3134   */\n  mload\n    /* \"#utility.yul\":3112:3134   */\n  swap1\n  pop\n    /* \"#utility.yul\":3143:3176   */\n  tag_98\n    /* \"#utility.yul\":3170:3175   */\n  dup2\n    /* \"#utility.yul\":3143:3176   */\n  tag_35\n  jump\t// in\ntag_98:\n    /* \"#utility.yul\":3039:3182   */\n  swap3\n  swap2\n  pop\n  pop\n  jump\t// out\n    /* \"#utility.yul\":3188:4197   */\ntag_3:\n    /* \"#utility.yul\":3296:3302   */\n  0x00\n    /* \"#utility.yul\":3304:3310   */\n  dup1\n    /* \"#utility.yul\":3312:3318   */\n  0x00\n    /* \"#utility.yul\":3361:3363   */\n  0x60\n    /* \"#utility.yul\":3349:3358   */\n  dup5\n    /* \"#utility.yul\":3340:3347   */\n  dup7\n    /* \"#utility.yul\":3336:3359   */\n  sub\n    /* \"#utility.yul\":3332:3364   */\n  slt\n    /* \"#utility.yul\":3329:3448   */\n  iszero\n  tag_100\n  jumpi\n    /* \"#utility.yul\":3367:3446   */\n  tag_101\n  tag_21\n  jump\t// in\ntag_101:\n    /* \"#utility.yul\":3329:3448   */\ntag_100:\n    /* \"#utility.yul\":3508:3509   */\n  0x00\n    /* \"#utility.yul\":3497:3506   */\n  dup5\n    /* \"#utility.yul\":3493:3510   */\n  add\n    /* \"#utility.yul\":3487:3511   */\n  mload\n    /* \"#utility.yul\":3538:3556   */\n  0xffffffffffffffff\n    /* \"#utility.yul\":3530:3536   */\n  dup2\n    /* \"#utility.yul\":3527:3557   */\n  gt\n    /* \"#utility.yul\":3524:3641   */\n  iszero\n  tag_102\n  jumpi\n    /* \"#utility.yul\":3560:3639   */\n  tag_103\n  tag_22\n  jump\t// in\ntag_103:\n    /* \"#utility.yul\":3524:3641   */\ntag_102:\n    /* \"#utility.yul\":3665:3739   */\n  tag_104\n    /* \"#utility.yul\":3731:3738   */\n  dup7\n    /* \"#utility.yul\":3722:3728   */\n  dup3\n    /* \"#utility.yul\":3711:3720   */\n  dup8\n    /* \"#utility.yul\":3707:3729   */\n  add\n    /* \"#utility.yul\":3665:3739   */\n  tag_32\n  jump\t// in\ntag_104:\n    /* \"#utility.yul\":3655:3739   */\n  swap4\n  pop\n    /* \"#utility.yul\":3458:3749   */\n  pop\n    /* \"#utility.yul\":3809:3811   */\n  0x20\n    /* \"#utility.yul\":3798:3807   */\n  dup5\n    /* \"#utility.yul\":3794:3812   */\n  add\n    /* \"#utility.yul\":3788:3813   */\n  mload\n    /* \"#utility.yul\":3840:3858   */\n  0xffffffffffffffff\n    /* \"#utility.yul\":3832:3838   */\n  dup2\n    /* \"#utility.yul\":3829:3859   */\n  gt\n    /* \"#utility.yul\":3826:3943   */\n  iszero\n  tag_105\n  jumpi\n    /* \"#utility.yul\":3862:3941   */\n  tag_106\n  tag_22\n  jump\t// in\ntag_106:\n    /* \"#utility.yul\":3826:3943   */\ntag_105:\n    /* \"#utility.yul\":3967:4041   */\n  tag_107\n    /* \"#utility.yul\":4033:4040   */\n  dup7\n    /* \"#utility.yul\":4024:4030   */\n  dup3\n    /* \"#utility.yul\":4013:4022   */\n  dup8\n    /* \"#utility.yul\":4009:4031   */\n  add\n    /* \"#utility.yul\":3967:4041   */\n  tag_32\n  jump\t// in\ntag_107:\n    /* \"#utility.yul\":3957:4041   */\n  swap3\n  pop\n    /* \"#utility.yul\":3759:4051   */\n  pop\n    /* \"#utility.yul\":4090:4092   */\n  0x40\n    /* \"#utility.yul\":4116:4180   */\n  tag_108\n    /* \"#utility.yul\":4172:4179   */\n  dup7\n    /* \"#utility.yul\":4163:4169   */\n  dup3\n    /* \"#utility.yul\":4152:4161   */\n  dup8\n    /* \"#utility.yul\":4148:4170   */\n  add\n    /* \"#utility.yul\":4116:4180   */\n  tag_36\n  jump\t// in\ntag_108:\n    /* \"#utility.yul\":4106:4180   */\n  swap2\n  pop\n    /* \"#utility.yul\":4061:4190   */\n  pop\n    /* \"#utility.yul\":3188:4197   */\n  swap3\n  pop\n  swap3\n  pop\n  swap3\n  jump\t// out\n    /* \"#utility.yul\":4203:4302   */\ntag_37:\n    /* \"#utility.yul\":4255:4261   */\n  0x00\n    /* \"#utility.yul\":4289:4294   */\n  dup2\n    /* \"#utility.yul\":4283:4295   */\n  mload\n    /* \"#utility.yul\":4273:4295   */\n  swap1\n  pop\n    /* \"#utility.yul\":4203:4302   */\n  swap2\n  swap1\n  pop\n  jump\t// out\n    /* \"#utility.yul\":4308:4488   */\ntag_38:\n    /* \"#utility.yul\":4356:4433   */\n  0x4e487b7100000000000000000000000000000000000000000000000000000000\n    /* \"#utility.yul\":4353:4354   */\n  0x00\n    /* \"#utility.yul\":4346:4434   */\n  mstore\n    /* \"#utility.yul\":4453:4457   */\n  0x22\n    /* \"#utility.yul\":4450:4451   */\n  0x04\n    /* \"#utility.yul\":4443:4458   */\n  mstore\n    /* \"#utility.yul\":4477:4481   */\n  0x24\n    /* \"#utility.yul\":4474:4475   */\n  0x00\n    /* \"#utility.yul\":4467:4482   */\n  revert\n    /* \"#utility.yul\":4494:4814   */\ntag_39:\n    /* \"#utility.yul\":4538:4544   */\n  0x00\n    /* \"#utility.yul\":4575:4576   */\n  0x02\n    /* \"#utility.yul\":4569:4573   */\n  dup3\n    /* \"#utility.yul\":4565:4577   */\n  div\n    /* \"#utility.yul\":4555:4577   */\n  swap1\n  pop\n    /* \"#utility.yul\":4622:4623   */\n  0x01\n    /* \"#utility.yul\":4616:4620   */\n  dup3\n    /* \"#utility.yul\":4612:4624   */\n  and\n    /* \"#utility.yul\":4643:4661   */\n  dup1\n    /* \"#utility.yul\":4633:4714   */\n  tag_112\n  jumpi\n    /* \"#utility.yul\":4699:4703   */\n  0x7f\n    /* \"#utility.yul\":4691:4697   */\n  dup3\n    /* \"#utility.yul\":4687:4704   */\n  and\n    /* \"#utility.yul\":4677:4704   */\n  swap2\n  pop\n    /* \"#utility.yul\":4633:4714   */\ntag_112:\n    /* \"#utility.yul\":4761:4763   */\n  0x20\n    /* \"#utility.yul\":4753:4759   */\n  dup3\n    /* \"#utility.yul\":4750:4764   */\n  lt\n    /* \"#utility.yul\":4730:4748   */\n  dup2\n    /* \"#utility.yul\":4727:4765   */\n  sub\n    /* \"#utility.yul\":4724:4808   */\n  tag_113\n  jumpi\n    /* \"#utility.yul\":4780:4798   */\n  tag_114\n  tag_38\n  jump\t// in\ntag_114:\n    /* \"#utility.yul\":4724:4808   */\ntag_113:\n    /* \"#utility.yul\":4545:4814   */\n  pop\n    /* \"#utility.yul\":4494:4814   */\n  swap2\n  swap1\n  pop\n  jump\t// out\n    /* \"#utility.yul\":4820:4961   */\ntag_40:\n    /* \"#utility.yul\":4869:4873   */\n  0x00\n    /* \"#utility.yul\":4892:4895   */\n  dup2\n    /* \"#utility.yul\":4884:4895   */\n  swap1\n  pop\n    /* \"#utility.yul\":4915:4918   */\n  dup2\n    /* \"#utility.yul\":4912:4913   */\n  0x00\n    /* \"#utility.yul\":4905:4919   */\n  mstore\n    /* \"#utility.yul\":4949:4953   */\n  0x20\n    /* \"#utility.yul\":4946:4947   */\n  0x00\n    /* \"#utility.yul\":4936:4954   */\n  keccak256\n    /* \"#utility.yul\":4928:4954   */\n  swap1\n  pop\n    /* \"#utility.yul\":4820:4961   */\n  swap2\n  swap1\n  pop\n  jump\t// out\n    /* \"#utility.yul\":4967:5060   */\ntag_41:\n    /* \"#utility.yul\":5004:5010   */\n  0x00\n    /* \"#utility.yul\":5051:5053   */\n  0x20\n    /* \"#utility.yul\":5046:5048   */\n  0x1f\n    /* \"#utility.yul\":5039:5044   */\n  dup4\n    /* \"#utility.yul\":5035:5049   */\n  add\n    /* \"#utility.yul\":5031:5054   */\n  div\n    /* \"#utility.yul\":5021:5054   */\n  swap1\n  pop\n    /* \"#utility.yul\":4967:5060   */\n  swap2\n  swap1\n  pop\n  jump\t// out\n    /* \"#utility.yul\":5066:5173   */\ntag_42:\n    /* \"#utility.yul\":5110:5118   */\n  0x00\n    /* \"#utility.yul\":5160:5165   */\n  dup3\n    /* \"#utility.yul\":5154:5158   */\n  dup3\n    /* \"#utility.yul\":5150:5166   */\n  shl\n    /* \"#utility.yul\":5129:5166   */\n  swap1\n  pop\n    /* \"#utility.yul\":5066:5173   */\n  swap3\n  swap2\n  pop\n  pop\n  jump\t// out\n    /* \"#utility.yul\":5179:5572   */\ntag_43:\n    /* \"#utility.yul\":5248:5254   */\n  0x00\n    /* \"#utility.yul\":5298:5299   */\n  0x08\n    /* \"#utility.yul\":5286:5296   */\n  dup4\n    /* \"#utility.yul\":5282:5300   */\n  mul\n    /* \"#utility.yul\":5321:5418   */\n  tag_119\n    /* \"#utility.yul\":5351:5417   */\n  0xffffffffffffffffffffffffffffffffffffffffffffffffffffffffffffffff\n    /* \"#utility.yul\":5340:5349   */\n  dup3\n    /* \"#utility.yul\":5321:5418   */\n  tag_42\n  jump\t// in\ntag_119:\n    /* \"#utility.yul\":5439:5478   */\n  tag_120\n    /* \"#utility.yul\":5469:5477   */\n  dup7\n    /* \"#utility.yul\":5458:5467   */\n  dup4\n    /* \"#utility.yul\":5439:5478   */\n  tag_42\n  jump\t// in\ntag_120:\n    /* \"#utility.yul\":5427:5478   */\n  swap6\n  pop\n    /* \"#utility.yul\":5511:5515   */\n  dup1\n    /* \"#utility.yul\":5507:5516   */\n  not\n    /* \"#utility.yul\":5500:5505   */\n  dup5\n    /* \"#utility.yul\":5496:5517   */\n  and\n    /* \"#utility.yul\":5487:5517   */\n  swap4\n  pop\n    /* \"#utility.yul\":5560:5564   */\n  dup1\n    /* \"#utility.yul\":5550:5558   */\n  dup7\n    /* \"#utility.yul\":5546:5565   */\n  and\n    /* \"#utility.yul\":5539:5544   */\n  dup5\n    /* \"#utility.yul\":5536:5566   */\n  or\n    /* \"#utility.yul\":5526:5566   */\n  swap3\n  pop\n    /* \"#utility.yul\":5255:5572   */\n  pop\n  pop\n    /* \"#utility.yul\":5179:5572   */\n  swap4\n  swap3\n  pop\n  pop\n  pop\n  jump\t// out\n    /* \"#utility.yul\":5578:5655   */\ntag_44:\n    /* \"#utility.yul\":5615:5622   */\n  0x00\n    /* \"#utility.yul\":5644:5649   */\n  dup2\n    /* \"#utility.yul\":5633:5649   */\n  swap1\n  pop\n    /* \"#utility.yul\":5578:5655   */\n  swap2\n  swap1\n  pop\n  jump\t// out\n    /* \"#utility.yul\":5661:5721   */\ntag_45:\n    /* \"#utility.yul\":5689:5692   */\n  0x00\n    /* \"#utility.yul\":5710:5715   */\n  dup2\n    /* \"#utility.yul\":5703:5715   */\n  swap1\n  pop\n    /* \"#utility.yul\":5661:5721   */\n  swap2\n  swap1\n  pop\n  jump\t// out\n    /* \"#utility.yul\":5727:5869   */\ntag_46:\n    /* \"#utility.yul\":5777:5786   */\n  0x00\n    /* \"#utility.yul\":5810:5863   */\n  tag_124\n    /* \"#utility.yul\":5828:5862   */\n  tag_125\n    /* \"#utility.yul\":5837:5861   */\n  tag_126\n    /* \"#utility.yul\":5855:5860   */\n  dup5\n    /* \"#utility.yul\":5837:5861   */\n  tag_44\n  jump\t// in\ntag_126:\n    /* \"#utility.yul\":5828:5862   */\n  tag_45\n  jump\t// in\ntag_125:\n    /* \"#utility.yul\":5810:5863   */\n  tag_44\n  jump\t// in\ntag_124:\n    /* \"#utility.yul\":5797:5863   */\n  swap1\n  pop\n    /* \"#utility.yul\":5727:5869   */\n  swap2\n  swap1\n  pop\n  jump\t// out\n    /* \"#utility.yul\":5875:5950   */\ntag_47:\n    /* \"#utility.yul\":5918:5921   */\n  0x00\n    /* \"#utility.yul\":5939:5944   */\n  dup2\n    /* \"#utility.yul\":5932:5944   */\n  swap1\n  pop\n    /* \"#utility.yul\":5875:5950   */\n  swap2\n  swap1\n  pop\n  jump\t// out\n    /* \"#utility.yul\":5956:6225   */\ntag_48:\n    /* \"#utility.yul\":6066:6105   */\n  tag_129\n    /* \"#utility.yul\":6097:6104   */\n  dup4\n    /* \"#utility.yul\":6066:6105   */\n  tag_46\n  jump\t// in\ntag_129:\n    /* \"#utility.yul\":6127:6218   */\n  tag_130\n    /* \"#utility.yul\":6176:6217   */\n  tag_131\n    /* \"#utility.yul\":6200:6216   */\n  dup3\n    /* \"#utility.yul\":6176:6217   */\n  tag_47\n  jump\t// in\ntag_131:\n    /* \"#utility.yul\":6168:6174   */\n  dup5\n    /* \"#utility.yul\":6161:6165   */\n  dup5\n    /* \"#utility.yul\":6155:6166   */\n  sload\n    /* \"#utility.yul\":6127:6218   */\n  tag_43\n  jump\t// in\ntag_130:\n    /* \"#utility.yul\":6121:6125   */\n  dup3\n    /* \"#utility.yul\":6114:6219   */\n  sstore\n    /* \"#utility.yul\":6032:6225   */\n  pop\n    /* \"#utility.yul\":5956:6225   */\n  pop\n  pop\n  pop\n  jump\t// out\n    /* \"#utility.yul\":6231:6304   */\ntag_49:\n    /* \"#utility.yul\":6276:6279   */\n  0x00\n    /* \"#utility.yul\":6231:6304   */\n  swap1\n  jump\t// out\n    /* \"#utility.yul\":6310:6499   */\ntag_50:\n    /* \"#utility.yul\":6387:6419   */\n  tag_134\n  tag_49\n  jump\t// in\ntag_134:\n    /* \"#utility.yul\":6428:6493   */\n  tag_135\n    /* \"#utility.yul\":6486:6492   */\n  dup2\n    /* \"#utility.yul\":6478:6484   */\n  dup5\n    /* \"#utility.yul\":6472:6476   */\n  dup5\n    /* \"#utility.yul\":6428:6493   */\n  tag_48\n  jump\t// in\ntag_135:\n    /* \"#utility.yul\":6363:6499   */\n  pop\n    /* \"#utility.yul\":6310:6499   */\n  pop\n  pop\n  jump\t// out\n    /* \"#utility.yul\":6505:6691   */\ntag_51:\n    /* \"#utility.yul\":6565:6685   */\ntag_137:\n    /* \"#utility.yul\":6582:6585   */\n  dup2\n    /* \"#utility.yul\":6575:6580   */\n  dup2\n    /* \"#utility.yul\":6572:6586   */\n  lt\n    /* \"#utility.yul\":6565:6685   */\n  iszero\n  tag_139\n  jumpi\n    /* \"#utility.yul\":6636:6675   */\n  tag_140\n    /* \"#utility.yul\":6673:6674   */\n  0x00\n    /* \"#utility.yul\":6666:6671   */\n  dup3\n    /* \"#utility.yul\":6636:6675   */\n  tag_50\n  jump\t// in\ntag_140:\n    /* \"#utility.yul\":6609:6610   */\n  0x01\n    /* \"#utility.yul\":6602:6607   */\n  dup2\n    /* \"#utility.yul\":6598:6611   */\n  add\n    /* \"#utility.yul\":6589:6611   */\n  swap1\n  pop\n    /* \"#utility.yul\":6565:6685   */\n  jump(tag_137)\ntag_139:\n    /* \"#utility.yul\":6505:6691   */\n  pop\n  pop\n  jump\t// out\n    /* \"#utility.yul\":6697:7240   */\ntag_52:\n    /* \"#utility.yul\":6798:6800   */\n  0x1f\n    /* \"#utility.yul\":6793:6796   */\n  dup3\n    /* \"#utility.yul\":6790:6801   */\n  gt\n    /* \"#utility.yul\":6787:7233   */\n  iszero\n  tag_142\n  jumpi\n    /* \"#utility.yul\":6832:6870   */\n  tag_143\n    /* \"#utility.yul\":6864:6869   */\n  dup2\n    /* \"#utility.yul\":6832:6870   */\n  tag_40\n  jump\t// in\ntag_143:\n    /* \"#utility.yul\":6916:6945   */\n  tag_144\n    /* \"#utility.yul\":6934:6944   */\n  dup5\n    /* \"#utility.yul\":6916:6945   */\n  tag_41\n  jump\t// in\ntag_144:\n    /* \"#utility.yul\":6906:6914   */\n  dup2\n    /* \"#utility.yul\":6902:6946   */\n  add\n    /* \"#utility.yul\":7099:7101   */\n  0x20\n    /* \"#utility.yul\":7087:7097   */\n  dup6\n    /* \"#utility.yul\":7084:7102   */\n  lt\n    /* \"#utility.yul\":7081:7130   */\n  iszero\n  tag_145\n  jumpi\n    /* \"#utility.yul\":7120:7128   */\n  dup2\n    /* \"#utility.yul\":7105:7128   */\n  swap1\n  pop\n    /* \"#utility.yul\":7081:7130   */\ntag_145:\n    /* \"#utility.yul\":7143:7223   */\n  tag_146\n    /* \"#utility.yul\":7199:7221   */\n  tag_147\n    /* \"#utility.yul\":7217:7220   */\n  dup6\n    /* \"#utility.yul\":7199:7221   */\n  tag_41\n  jump\t// in\ntag_147:\n    /* \"#utility.yul\":7189:7197   */\n  dup4\n    /* \"#utility.yul\":7185:7222   */\n  add\n    /* \"#utility.yul\":7172:7183   */\n  dup3\n    /* \"#utility.yul\":7143:7223   */\n  tag_51\n  jump\t// in\ntag_146:\n    /* \"#utility.yul\":6802:7233   */\n  pop\n  pop\n    /* \"#utility.yul\":6787:7233   */\ntag_142:\n    /* \"#utility.yul\":6697:7240   */\n  pop\n  pop\n  pop\n  jump\t// out\n    /* \"#utility.yul\":7246:7363   */\ntag_53:\n    /* \"#utility.yul\":7300:7308   */\n  0x00\n    /* \"#utility.yul\":7350:7355   */\n  dup3\n    /* \"#utility.yul\":7344:7348   */\n  dup3\n    /* \"#utility.yul\":7340:7356   */\n  shr\n    /* \"#utility.yul\":7319:7356   */\n  swap1\n  pop\n    /* \"#utility.yul\":7246:7363   */\n  swap3\n  swap2\n  pop\n  pop\n  jump\t// out\n    /* \"#utility.yul\":7369:7538   */\ntag_54:\n    /* \"#utility.yul\":7413:7419   */\n  0x00\n    /* \"#utility.yul\":7446:7497   */\n  tag_150\n    /* \"#utility.yul\":7494:7495   */\n  0x00\n    /* \"#utility.yul\":7490:7496   */\n  not\n    /* \"#utility.yul\":7482:7487   */\n  dup5\n    /* \"#utility.yul\":7479:7480   */\n  0x08\n    /* \"#utility.yul\":7475:7488   */\n  mul\n    /* \"#utility.yul\":7446:7497   */\n  tag_53\n  jump\t// in\ntag_150:\n    /* \"#utility.yul\":7442:7498   */\n  not\n    /* \"#utility.yul\":7527:7531   */\n  dup1\n    /* \"#utility.yul\":7521:7525   */\n  dup4\n    /* \"#utility.yul\":7517:7532   */\n  and\n    /* \"#utility.yul\":7507:7532   */\n  swap2\n  pop\n    /* \"#utility.yul\":7420:7538   */\n  pop\n    /* \"#utility.yul\":7369:7538   */\n  swap3\n  swap2\n  pop\n  pop\n  jump\t// out\n    /* \"#utility.yul\":7543:7838   */\ntag_55:\n    /* \"#utility.yul\":7619:7623   */\n  0x00\n    /* \"#utility.yul\":7765:7794   */\n  tag_152\n    /* \"#utility.yul\":7790:7793   */\n  dup4\n    /* \"#utility.yul\":7784:7788   */\n  dup4\n    /* \"#utility.yul\":7765:7794   */\n  tag_54\n  jump\t// in\ntag_152:\n    /* \"#utility.yul\":7757:7794   */\n  swap2\n  pop\n    /* \"#utility.yul\":7827:7830   */\n  dup3\n    /* \"#utility.yul\":7824:7825   */\n  0x02\n    /* \"#utility.yul\":7820:7831   */\n  mul\n    /* \"#utility.yul\":7814:7818   */\n  dup3\n    /* \"#utility.yul\":7811:7832   */\n  or\n    /* \"#utility.yul\":7803:7832   */\n  swap1\n  pop\n    /* \"#utility.yul\":7543:7838   */\n  swap3\n  swap2\n  pop\n  pop\n  jump\t// out\n    /* \"#utility.yul\":7843:9238   */\ntag_8:\n    /* \"#utility.yul\":7960:7997   */\n  tag_154\n    /* \"#utility.yul\":7993:7996   */\n  dup3\n    /* \"#utility.yul\":7960:7997   */\n  tag_37\n  jump\t// in\ntag_154:\n    /* \"#utility.yul\":8062:8080   */\n  0xffffffffffffffff\n    /* \"#utility.yul\":8054:8060   */\n  dup2\n    /* \"#utility.yul\":8051:8081   */\n  gt\n    /* \"#utility.yul\":8048:8104   */\n  iszero\n  tag_155\n  jumpi\n    /* \"#utility.yul\":8084:8102   */\n  tag_156\n  tag_26\n  jump\t// in\ntag_156:\n    /* \"#utility.yul\":8048:8104   */\ntag_155:\n    /* \"#utility.yul\":8128:8166   */\n  tag_157\n    /* \"#utility.yul\":8160:8164   */\n  dup3\n    /* \"#utility.yul\":8154:8165   */\n  sload\n    /* \"#utility.yul\":8128:8166   */\n  tag_39\n  jump\t// in\ntag_157:\n    /* \"#utility.yul\":8213:8280   */\n  tag_158\n    /* \"#utility.yul\":8273:8279   */\n  dup3\n    /* \"#utility.yul\":8265:8271   */\n  dup3\n    /* \"#utility.yul\":8259:8263   */\n  dup6\n    /* \"#utility.yul\":8213:8280   */\n  tag_52\n  jump\t// in\ntag_158:\n    /* \"#utility.yul\":8307:8308   */\n  0x00\n    /* \"#utility.yul\":8331:8335   */\n  0x20\n    /* \"#utility.yul\":8318:8335   */\n  swap1\n  pop\n    /* \"#utility.yul\":8363:8365   */\n  0x1f\n    /* \"#utility.yul\":8355:8361   */\n  dup4\n    /* \"#utility.yul\":8352:8366   */\n  gt\n    /* \"#utility.yul\":8380:8381   */\n  0x01\n    /* \"#utility.yul\":8375:8993   */\n  dup2\n  eq\n  tag_160\n  jumpi\n    /* \"#utility.yul\":9037:9038   */\n  0x00\n    /* \"#utility.yul\":9054:9060   */\n  dup5\n    /* \"#utility.yul\":9051:9128   */\n  iszero\n  tag_161\n  jumpi\n    /* \"#utility.yul\":9103:9112   */\n  dup3\n    /* \"#utility.yul\":9098:9101   */\n  dup8\n    /* \"#utility.yul\":9094:9113   */\n  add\n    /* \"#utility.yul\":9088:9114   */\n  mload\n    /* \"#utility.yul\":9079:9114   */\n  swap1\n  pop\n    /* \"#utility.yul\":9051:9128   */\ntag_161:\n    /* \"#utility.yul\":9154:9221   */\n  tag_162\n    /* \"#utility.yul\":9214:9220   */\n  dup6\n    /* \"#utility.yul\":9207:9212   */\n  dup3\n    /* \"#utility.yul\":9154:9221   */\n  tag_55\n  jump\t// in\ntag_162:\n    /* \"#utility.yul\":9148:9152   */\n  dup7\n    /* \"#utility.yul\":9141:9222   */\n  sstore\n    /* \"#utility.yul\":9010:9232   */\n  pop\n    /* \"#utility.yul\":8345:9232   */\n  jump(tag_159)\n    /* \"#utility.yul\":8375:8993   */\ntag_160:\n    /* \"#utility.yul\":8427:8431   */\n  0x1f\n    /* \"#utility.yul\":8423:8432   */\n  not\n    /* \"#utility.yul\":8415:8421   */\n  dup5\n    /* \"#utility.yul\":8411:8433   */\n  and\n    /* \"#utility.yul\":8461:8498   */\n  tag_163\n    /* \"#utility.yul\":8493:8497   */\n  dup7\n    /* \"#utility.yul\":8461:8498   */\n  tag_40\n  jump\t// in\ntag_163:\n    /* \"#utility.yul\":8520:8521   */\n  0x00\n    /* \"#utility.yul\":8534:8742   */\ntag_164:\n    /* \"#utility.yul\":8548:8555   */\n  dup3\n    /* \"#utility.yul\":8545:8546   */\n  dup2\n    /* \"#utility.yul\":8542:8556   */\n  lt\n    /* \"#utility.yul\":8534:8742   */\n  iszero\n  tag_166\n  jumpi\n    /* \"#utility.yul\":8627:8636   */\n  dup5\n    /* \"#utility.yul\":8622:8625   */\n  dup10\n    /* \"#utility.yul\":8618:8637   */\n  add\n    /* \"#utility.yul\":8612:8638   */\n  mload\n    /* \"#utility.yul\":8604:8610   */\n  dup3\n    /* \"#utility.yul\":8597:8639   */\n  sstore\n    /* \"#utility.yul\":8678:8679   */\n  0x01\n    /* \"#utility.yul\":8670:8676   */\n  dup3\n    /* \"#utility.yul\":8666:8680   */\n  add\n    /* \"#utility.yul\":8656:8680   */\n  swap2\n  pop\n    /* \"#utility.yul\":8725:8727   */\n  0x20\n    /* \"#utility.yul\":8714:8723   */\n  dup6\n    /* \"#utility.yul\":8710:8728   */\n  add\n    /* \"#utility.yul\":8697:8728   */\n  swap5\n  pop\n    /* \"#utility.yul\":8571:8575   */\n  0x20\n    /* \"#utility.yul\":8568:8569   */\n  dup2\n    /* \"#utility.yul\":8564:8576   */\n  add\n    /* \"#utility.yul\":8559:8576   */\n  swap1\n  pop\n    /* \"#utility.yul\":8534:8742   */\n  jump(tag_164)\ntag_166:\n    /* \"#utility.yul\":8770:8776   */\n  dup7\n    /* \"#utility.yul\":8761:8768   */\n  dup4\n    /* \"#utility.yul\":8758:8777   */\n  lt\n    /* \"#utility.yul\":8755:8934   */\n  iszero\n  tag_167\n  jumpi\n    /* \"#utility.yul\":8828:8837   */\n  dup5\n    /* \"#utility.yul\":8823:8826   */\n  dup10\n    /* \"#utility.yul\":8819:8838   */\n  add\n    /* \"#utility.yul\":8813:8839   */\n  mload\n    /* \"#utility.yul\":8871:8919   */\n  tag_168\n    /* \"#utility.yul\":8913:8917   */\n  0x1f\n    /* \"#utility.yul\":8905:8911   */\n  dup10\n    /* \"#utility.yul\":8901:8918   */\n  and\n    /* \"#utility.yul\":8890:8899   */\n  dup3\n    /* \"#utility.yul\":8871:8919   */\n  tag_54\n  jump\t// in\ntag_168:\n    /* \"#utility.yul\":8863:8869   */\n  dup4\n    /* \"#utility.yul\":8856:8920   */\n  sstore\n    /* \"#utility.yul\":8778:8934   */\n  pop\n    /* \"#utility.yul\":8755:8934   */\ntag_167:\n    /* \"#utility.yul\":8980:8981   */\n  0x01\n    /* \"#utility.yul\":8976:8977   */\n  0x02\n    /* \"#utility.yul\":8968:8974   */\n  dup9\n    /* \"#utility.yul\":8964:8978   */\n  mul\n    /* \"#utility.yul\":8960:8982   */\n  add\n    /* \"#utility.yul\":8954:8958   */\n  dup9\n    /* \"#utility.yul\":8947:8983   */\n  sstore\n    /* \"#utility.yul\":8382:8993   */\n  pop\n  pop\n  pop\n    /* \"#utility.yul\":8345:9232   */\ntag_159:\n  pop\n    /* \"#utility.yul\":7935:9238   */\n  pop\n  pop\n  pop\n    /* \"#utility.yul\":7843:9238   */\n  pop\n  pop\n  jump\t// out\n    /* \"#utility.yul\":9244:9424   */\ntag_56:\n    /* \"#utility.yul\":9292:9369   */\n  0x4e487b7100000000000000000000000000000000000000000000000000000000\n    /* \"#utility.yul\":9289:9290   */\n  0x00\n    /* \"#utility.yul\":9282:9370   */\n  mstore\n    /* \"#utility.yul\":9389:9393   */\n  0x11\n    /* \"#utility.yul\":9386:9387   */\n  0x04\n    /* \"#utility.yul\":9379:9394   */\n  mstore\n    /* \"#utility.yul\":9413:9417   */\n  0x24\n    /* \"#utility.yul\":9410:9411   */\n  0x00\n    /* \"#utility.yul\":9403:9418   */\n  revert\n    /* \"#utility.yul\":9430:9621   */\ntag_16:\n    /* \"#utility.yul\":9470:9473   */\n  0x00\n    /* \"#utility.yul\":9489:9509   */\n  tag_171\n    /* \"#utility.yul\":9507:9508   */\n  dup3\n    /* \"#utility.yul\":9489:9509   */\n  tag_44\n  jump\t// in\ntag_171:\n    /* \"#utility.yul\":9484:9509   */\n  swap2\n  pop\n    /* \"#utility.yul\":9523:9543   */\n  tag_172\n    /* \"#utility.yul\":9541:9542   */\n  dup4\n    /* \"#utility.yul\":9523:9543   */\n  tag_44\n  jump\t// in\ntag_172:\n    /* \"#utility.yul\":9518:9543   */\n  swap3\n  pop\n    /* \"#utility.yul\":9566:9567   */\n  dup3\n    /* \"#utility.yul\":9563:9564   */\n  dup3\n    /* \"#utility.yul\":9559:9568   */\n  add\n    /* \"#utility.yul\":9552:9568   */\n  swap1\n  pop\n    /* \"#utility.yul\":9587:9590   */\n  dup1\n    /* \"#utility.yul\":9584:9585   */\n  dup3\n    /* \"#utility.yul\":9581:9591   */\n  gt\n    /* \"#utility.yul\":9578:9614   */\n  iszero\n  tag_173\n  jumpi\n    /* \"#utility.yul\":9594:9612   */\n  tag_174\n  tag_56\n  jump\t// in\ntag_174:\n    /* \"#utility.yul\":9578:9614   */\ntag_173:\n    /* \"#utility.yul\":9430:9621   */\n  swap3\n  swap2\n  pop\n  pop\n  jump\t// out\n    /* \"#utility.yul\":9627:9745   */\ntag_57:\n    /* \"#utility.yul\":9714:9738   */\n  tag_176\n    /* \"#utility.yul\":9732:9737   */\n  dup2\n    /* \"#utility.yul\":9714:9738   */\n  tag_44\n  jump\t// in\ntag_176:\n    /* \"#utility.yul\":9709:9712   */\n  dup3\n    /* \"#utility.yul\":9702:9739   */\n  mstore\n    /* \"#utility.yul\":9627:9745   */\n  pop\n  pop\n  jump\t// out\n    /* \"#utility.yul\":9751:9973   */\ntag_19:\n    /* \"#utility.yul\":9844:9848   */\n  0x00\n    /* \"#utility.yul\":9882:9884   */\n  0x20\n    /* \"#utility.yul\":9871:9880   */\n  dup3\n    /* \"#utility.yul\":9867:9885   */\n  add\n    /* \"#utility.yul\":9859:9885   */\n  swap1\n  pop\n    /* \"#utility.yul\":9895:9966   */\n  tag_178\n    /* \"#utility.yul\":9963:9964   */\n  0x00\n    /* \"#utility.yul\":9952:9961   */\n  dup4\n    /* \"#utility.yul\":9948:9965   */\n  add\n    /* \"#utility.yul\":9939:9945   */\n  dup5\n    /* \"#utility.yul\":9895:9966   */\n  tag_57\n  jump\t// in\ntag_178:\n    /* \"#utility.yul\":9751:9973   */\n  swap3\n  swap2\n  pop\n  pop\n  jump\t// out\n    /* \"contracts/PenERC20V2.sol\":90:4751  contract PenERC20V2 is ERC20 {... */\ntag_13:\n  dataSize(sub_0)\n  dup1\n  dataOffset(sub_0)\n  0x00\n  codecopy\n  0x00\n  return\nstop\n\nsub_0: assembly {\n        /* \"contracts/PenERC20V2.sol\":90:4751  contract PenERC20V2 is ERC20 {... */\n      mstore(0x40, 0x80)\n      callvalue\n      dup1\n      iszero\n      tag_1\n      jumpi\n      0x00\n      dup1\n      revert\n    tag_1:\n      pop\n      jumpi(tag_2, lt(calldatasize, 0x04))\n      shr(0xe0, calldataload(0x00))\n      dup1\n      0x7f93ee98\n      gt\n      tag_22\n      jumpi\n      dup1\n      0xbaeb0718\n      gt\n      tag_23\n      jumpi\n      dup1\n      0xbaeb0718\n      eq\n      tag_17\n      jumpi\n      dup1\n      0xbb47e61a\n      eq\n      tag_18\n      jumpi\n      dup1\n      0xbd6e4e75\n      eq\n      tag_19\n      jumpi\n      dup1\n      0xdd62ed3e\n      eq\n      tag_20\n      jumpi\n      dup1\n      0xf1a19b6c\n      eq\n      tag_21\n      jumpi\n      jump(tag_2)\n    tag_23:\n      dup1\n      0x7f93ee98\n      eq\n      tag_12\n      jumpi\n      dup1\n      0x95d89b41\n      eq\n      tag_13\n      jumpi\n      dup1\n      0xa6c1ba5f\n      eq\n      tag_14\n      jumpi\n      dup1\n      0xa9059cbb\n      eq\n      tag_15\n      jumpi\n      dup1\n      0xb863bd37\n      eq\n      tag_16\n      jumpi\n      jump(tag_2)\n    tag_22:\n      dup1\n      0x313ce567\n      gt\n      tag_24\n      jumpi\n      dup1\n      0x313ce567\n      eq\n      tag_7\n      jumpi\n      dup1\n      0x35edf0b0\n      eq\n      tag_8\n      jumpi\n      dup1\n      0x42966c68\n      eq\n      tag_9\n      jumpi\n      dup1\n      0x6d6ae1a8\n      eq\n      tag_10\n      jumpi\n      dup1\n      0x70a08231\n      eq\n      tag_11\n      jumpi\n      jump(tag_2)\n    tag_24:\n      dup1\n      0x06fdde03\n      eq\n      tag_3\n      jumpi\n      dup1\n      0x095ea7b3\n      eq\n      tag_4\n      jumpi\n      dup1\n      0x18160ddd\n      eq\n      tag_5\n      jumpi\n      dup1\n      0x23b872dd\n      eq\n      tag_6\n      jumpi\n    tag_2:\n      0x00\n      dup1\n      revert\n        /* \"contracts/base/ERC20.sol\":315:333  string public name */\n    tag_3:\n      tag_25\n      tag_26\n      jump\t// in\n    tag_25:\n      mload(0x40)\n      tag_27\n      swap2\n      swap1\n      tag_28\n      jump\t// in\n    tag_27:\n      mload(0x40)\n      dup1\n      swap2\n      sub\n      swap1\n      return\n        /* \"contracts/base/ERC20.sol\":1038:1249  function approve(address spender, uint amount) public override returns (bool) {... */\n    tag_4:\n      tag_29\n      0x04\n      dup1\n      calldatasize\n      sub\n      dup2\n      add\n      swap1\n      tag_30\n      swap2\n      swap1\n      tag_31\n      jump\t// in\n    tag_30:\n      tag_32\n      jump\t// in\n    tag_29:\n      mload(0x40)\n      tag_33\n      swap2\n      swap1\n      tag_34\n      jump\t// in\n    tag_33:\n      mload(0x40)\n      dup1\n      swap2\n      sub\n      swap1\n      return\n        /* \"contracts/base/ERC20.sol\":271:306  uint256 public override totalSupply */\n    tag_5:\n      tag_35\n      tag_36\n      jump\t// in\n    tag_35:\n      mload(0x40)\n      tag_37\n      swap2\n      swap1\n      tag_38\n      jump\t// in\n    tag_37:\n      mload(0x40)\n      dup1\n      swap2\n      sub\n      swap1\n      return\n        /* \"contracts/base/ERC20.sol\":1257:1767  function transferFrom(... */\n    tag_6:\n      tag_39\n      0x04\n      dup1\n      calldatasize\n      sub\n      dup2\n      add\n      swap1\n      tag_40\n      swap2\n      swap1\n      tag_41\n      jump\t// in\n    tag_40:\n      tag_42\n      jump\t// in\n    tag_39:\n      mload(0x40)\n      tag_43\n      swap2\n      swap1\n      tag_34\n      jump\t// in\n    tag_43:\n      mload(0x40)\n      dup1\n      swap2\n      sub\n      swap1\n      return\n        /* \"contracts/base/ERC20.sol\":367:393  uint8 public decimals = 18 */\n    tag_7:\n      tag_44\n      tag_45\n      jump\t// in\n    tag_44:\n      mload(0x40)\n      tag_46\n      swap2\n      swap1\n      tag_47\n      jump\t// in\n    tag_46:\n      mload(0x40)\n      dup1\n      swap2\n      sub\n      swap1\n      return\n        /* \"contracts/PenERC20V2.sol\":311:359  mapping(address => uint256) public checkinStreak */\n    tag_8:\n      tag_48\n      0x04\n      dup1\n      calldatasize\n      sub\n      dup2\n      add\n      swap1\n      tag_49\n      swap2\n      swap1\n      tag_50\n      jump\t// in\n    tag_49:\n      tag_51\n      jump\t// in\n    tag_48:\n      mload(0x40)\n      tag_52\n      swap2\n      swap1\n      tag_38\n      jump\t// in\n    tag_52:\n      mload(0x40)\n      dup1\n      swap2\n      sub\n      swap1\n      return\n        /* \"contracts/base/ERC20.sol\":1981:2248  function burn(uint256 amount) external {... */\n    tag_9:\n      tag_53\n      0x04\n      dup1\n      calldatasize\n      sub\n      dup2\n      add\n      swap1\n      tag_54\n      swap2\n      swap1\n      tag_55\n      jump\t// in\n    tag_54:\n      tag_56\n      jump\t// in\n    tag_53:\n      stop\n        /* \"contracts/PenERC20V2.sol\":2459:4548  function luckyDraw(uint seed) external returns (string memory reward) {... */\n    tag_10:\n      tag_57\n      0x04\n      dup1\n      calldatasize\n      sub\n      dup2\n      add\n      swap1\n      tag_58\n      swap2\n      swap1\n      tag_55\n      jump\t// in\n    tag_58:\n      tag_59\n      jump\t// in\n    tag_57:\n      mload(0x40)\n      tag_60\n      swap2\n      swap1\n      tag_28\n      jump\t// in\n    tag_60:\n      mload(0x40)\n      dup1\n      swap2\n      sub\n      swap1\n      return\n        /* \"contracts/base/ERC20.sol\":131:184  mapping(address => uint256) public override balanceOf */\n    tag_11:\n      tag_61\n      0x04\n      dup1\n      calldatasize\n      sub\n      dup2\n      add\n      swap1\n      tag_62\n      swap2\n      swap1\n      tag_50\n      jump\t// in\n    tag_62:\n      tag_63\n      jump\t// in\n    tag_61:\n      mload(0x40)\n      tag_64\n      swap2\n      swap1\n      tag_38\n      jump\t// in\n    tag_64:\n      mload(0x40)\n      dup1\n      swap2\n      sub\n      swap1\n      return\n        /* \"contracts/PenERC20V2.sol\":2271:2320  mapping(address => uint256) public luckyDrawCount */\n    tag_12:\n      tag_65\n      0x04\n      dup1\n      calldatasize\n      sub\n      dup2\n      add\n      swap1\n      tag_66\n      swap2\n      swap1\n      tag_50\n      jump\t// in\n    tag_66:\n      tag_67\n      jump\t// in\n    tag_65:\n      mload(0x40)\n      tag_68\n      swap2\n      swap1\n      tag_38\n      jump\t// in\n    tag_68:\n      mload(0x40)\n      dup1\n      swap2\n      sub\n      swap1\n      return\n        /* \"contracts/base/ERC20.sol\":340:360  string public symbol */\n    tag_13:\n      tag_69\n      tag_70\n      jump\t// in\n    tag_69:\n      mload(0x40)\n      tag_71\n      swap2\n      swap1\n      tag_28\n      jump\t// in\n    tag_71:\n      mload(0x40)\n      dup1\n      swap2\n      sub\n      swap1\n      return\n        /* \"contracts/PenERC20V2.sol\":1540:2082  function getCheckinReward(uint256 oldCheckinStreak) public view returns (uint256) {... */\n    tag_14:\n      tag_72\n      0x04\n      dup1\n      calldatasize\n      sub\n      dup2\n      add\n      swap1\n      tag_73\n      swap2\n      swap1\n      tag_55\n      jump\t// in\n    tag_73:\n      tag_74\n      jump\t// in\n    tag_72:\n      mload(0x40)\n      tag_75\n      swap2\n      swap1\n      tag_38\n      jump\t// in\n    tag_75:\n      mload(0x40)\n      dup1\n      swap2\n      sub\n      swap1\n      return\n        /* \"contracts/base/ERC20.sol\":699:1030  function transfer(address recipient, uint amount) public override returns (bool) {... */\n    tag_15:\n      tag_76\n      0x04\n      dup1\n      calldatasize\n      sub\n      dup2\n      add\n      swap1\n      tag_77\n      swap2\n      swap1\n      tag_31\n      jump\t// in\n    tag_77:\n      tag_78\n      jump\t// in\n    tag_76:\n      mload(0x40)\n      tag_79\n      swap2\n      swap1\n      tag_34\n      jump\t// in\n    tag_79:\n      mload(0x40)\n      dup1\n      swap2\n      sub\n      swap1\n      return\n        /* \"contracts/PenERC20V2.sol\":4556:4746  function random(uint seed) public view returns (uint) {... */\n    tag_16:\n      tag_80\n      0x04\n      dup1\n      calldatasize\n      sub\n      dup2\n      add\n      swap1\n      tag_81\n      swap2\n      swap1\n      tag_55\n      jump\t// in\n    tag_81:\n      tag_82\n      jump\t// in\n    tag_80:\n      mload(0x40)\n      tag_83\n      swap2\n      swap1\n      tag_38\n      jump\t// in\n    tag_83:\n      mload(0x40)\n      dup1\n      swap2\n      sub\n      swap1\n      return\n        /* \"contracts/PenERC20V2.sol\":692:1532  function checkin() external returns (uint256 reward) {... */\n    tag_17:\n      tag_84\n      tag_85\n      jump\t// in\n    tag_84:\n      mload(0x40)\n      tag_86\n      swap2\n      swap1\n      tag_38\n      jump\t// in\n    tag_86:\n      mload(0x40)\n      dup1\n      swap2\n      sub\n      swap1\n      return\n        /* \"contracts/PenERC20V2.sol\":395:427  uint256 public checkinBase = 100 */\n    tag_18:\n      tag_87\n      tag_88\n      jump\t// in\n    tag_87:\n      mload(0x40)\n      tag_89\n      swap2\n      swap1\n      tag_38\n      jump\t// in\n    tag_89:\n      mload(0x40)\n      dup1\n      swap2\n      sub\n      swap1\n      return\n        /* \"contracts/PenERC20V2.sol\":2192:2240  mapping(address => uint256) public luckyDrawDate */\n    tag_19:\n      tag_90\n      0x04\n      dup1\n      calldatasize\n      sub\n      dup2\n      add\n      swap1\n      tag_91\n      swap2\n      swap1\n      tag_50\n      jump\t// in\n    tag_91:\n      tag_92\n      jump\t// in\n    tag_90:\n      mload(0x40)\n      tag_93\n      swap2\n      swap1\n      tag_38\n      jump\t// in\n    tag_93:\n      mload(0x40)\n      dup1\n      swap2\n      sub\n      swap1\n      return\n        /* \"contracts/base/ERC20.sol\":191:264  mapping(address => mapping(address => uint256)) public override allowance */\n    tag_20:\n      tag_94\n      0x04\n      dup1\n      calldatasize\n      sub\n      dup2\n      add\n      swap1\n      tag_95\n      swap2\n      swap1\n      tag_96\n      jump\t// in\n    tag_95:\n      tag_97\n      jump\t// in\n    tag_94:\n      mload(0x40)\n      tag_98\n      swap2\n      swap1\n      tag_38\n      jump\t// in\n    tag_98:\n      mload(0x40)\n      dup1\n      swap2\n      sub\n      swap1\n      return\n        /* \"contracts/PenERC20V2.sol\":227:273  mapping(address => uint256) public checkinDate */\n    tag_21:\n      tag_99\n      0x04\n      dup1\n      calldatasize\n      sub\n      dup2\n      add\n      swap1\n      tag_100\n      swap2\n      swap1\n      tag_50\n      jump\t// in\n    tag_100:\n      tag_101\n      jump\t// in\n    tag_99:\n      mload(0x40)\n      tag_102\n      swap2\n      swap1\n      tag_38\n      jump\t// in\n    tag_102:\n      mload(0x40)\n      dup1\n      swap2\n      sub\n      swap1\n      return\n        /* \"contracts/base/ERC20.sol\":315:333  string public name */\n    tag_26:\n      0x03\n      dup1\n      sload\n      tag_103\n      swap1\n      tag_104\n      jump\t// in\n    tag_103:\n      dup1\n      0x1f\n      add\n      0x20\n      dup1\n      swap2\n      div\n      mul\n      0x20\n      add\n      mload(0x40)\n      swap1\n      dup2\n      add\n      0x40\n      mstore\n      dup1\n      swap3\n      swap2\n      swap1\n      dup2\n      dup2\n      mstore\n      0x20\n      add\n      dup3\n      dup1\n      sload\n      tag_105\n      swap1\n      tag_104\n      jump\t// in\n    tag_105:\n      dup1\n      iszero\n      tag_106\n      jumpi\n      dup1\n      0x1f\n      lt\n      tag_107\n      jumpi\n      0x0100\n      dup1\n      dup4\n      sload\n      div\n      mul\n      dup4\n      mstore\n      swap2\n      0x20\n      add\n      swap2\n      jump(tag_106)\n    tag_107:\n      dup3\n      add\n      swap2\n      swap1\n      0x00\n      mstore\n      keccak256(0x00, 0x20)\n      swap1\n    tag_108:\n      dup2\n      sload\n      dup2\n      mstore\n      swap1\n      0x01\n      add\n      swap1\n      0x20\n      add\n      dup1\n      dup4\n      gt\n      tag_108\n      jumpi\n      dup3\n      swap1\n      sub\n      0x1f\n      and\n      dup3\n      add\n      swap2\n    tag_106:\n      pop\n      pop\n      pop\n      pop\n      pop\n      dup2\n      jump\t// out\n        /* \"contracts/base/ERC20.sol\":1038:1249  function approve(address spender, uint amount) public override returns (bool) {... */\n    tag_32:\n        /* \"contracts/base/ERC20.sol\":1110:1114  bool */\n      0x00\n        /* \"contracts/base/ERC20.sol\":1160:1166  amount */\n      dup2\n        /* \"contracts/base/ERC20.sol\":1127:1136  allowance */\n      0x01\n        /* \"contracts/base/ERC20.sol\":1127:1148  allowance[msg.sender] */\n      0x00\n        /* \"contracts/base/ERC20.sol\":1137:1147  msg.sender */\n      caller\n        /* \"contracts/base/ERC20.sol\":1127:1148  allowance[msg.sender] */\n      0xffffffffffffffffffffffffffffffffffffffff\n      and\n      0xffffffffffffffffffffffffffffffffffffffff\n      and\n      dup2\n      mstore\n      0x20\n      add\n      swap1\n      dup2\n      mstore\n      0x20\n      add\n      0x00\n      keccak256\n        /* \"contracts/base/ERC20.sol\":1127:1157  allowance[msg.sender][spender] */\n      0x00\n        /* \"contracts/base/ERC20.sol\":1149:1156  spender */\n      dup6\n        /* \"contracts/base/ERC20.sol\":1127:1157  allowance[msg.sender][spender] */\n      0xffffffffffffffffffffffffffffffffffffffff\n      and\n      0xffffffffffffffffffffffffffffffffffffffff\n      and\n      dup2\n      mstore\n      0x20\n      add\n      swap1\n      dup2\n      mstore\n      0x20\n      add\n      0x00\n      keccak256\n        /* \"contracts/base/ERC20.sol\":1127:1166  allowance[msg.sender][spender] = amount */\n      dup2\n      swap1\n      sstore\n      pop\n        /* \"contracts/base/ERC20.sol\":1203:1210  spender */\n      dup3\n        /* \"contracts/base/ERC20.sol\":1182:1219  Approval(msg.sender, spender, amount) */\n      0xffffffffffffffffffffffffffffffffffffffff\n      and\n        /* \"contracts/base/ERC20.sol\":1191:1201  msg.sender */\n      caller\n        /* \"contracts/base/ERC20.sol\":1182:1219  Approval(msg.sender, spender, amount) */\n      0xffffffffffffffffffffffffffffffffffffffff\n      and\n      0x8c5be1e5ebec7d5bd14f71427d1e84f3dd0314c0f7b2291e5b200ac8c7c3b925\n        /* \"contracts/base/ERC20.sol\":1212:1218  amount */\n      dup5\n        /* \"contracts/base/ERC20.sol\":1182:1219  Approval(msg.sender, spender, amount) */\n      mload(0x40)\n      tag_110\n      swap2\n      swap1\n      tag_38\n      jump\t// in\n    tag_110:\n      mload(0x40)\n      dup1\n      swap2\n      sub\n      swap1\n      log3\n        /* \"contracts/base/ERC20.sol\":1237:1241  true */\n      0x01\n        /* \"contracts/base/ERC20.sol\":1230:1241  return true */\n      swap1\n      pop\n        /* \"contracts/base/ERC20.sol\":1038:1249  function approve(address spender, uint amount) public override returns (bool) {... */\n      swap3\n      swap2\n      pop\n      pop\n      jump\t// out\n        /* \"contracts/base/ERC20.sol\":271:306  uint256 public override totalSupply */\n    tag_36:\n      sload(0x02)\n      dup2\n      jump\t// out\n        /* \"contracts/base/ERC20.sol\":1257:1767  function transferFrom(... */\n    tag_42:\n        /* \"contracts/base/ERC20.sol\":1386:1390  bool */\n      0x00\n        /* \"contracts/base/ERC20.sol\":1432:1438  amount */\n      dup2\n        /* \"contracts/base/ERC20.sol\":1411:1420  balanceOf */\n      0x00\n        /* \"contracts/base/ERC20.sol\":1411:1428  balanceOf[sender] */\n      dup1\n        /* \"contracts/base/ERC20.sol\":1421:1427  sender */\n      dup7\n        /* \"contracts/base/ERC20.sol\":1411:1428  balanceOf[sender] */\n      0xffffffffffffffffffffffffffffffffffffffff\n      and\n      0xffffffffffffffffffffffffffffffffffffffff\n      and\n      dup2\n      mstore\n      0x20\n      add\n      swap1\n      dup2\n      mstore\n      0x20\n      add\n      0x00\n      keccak256\n      sload\n        /* \"contracts/base/ERC20.sol\":1411:1438  balanceOf[sender] >= amount */\n      lt\n      iszero\n        /* \"contracts/base/ERC20.sol\":1403:1470  require(balanceOf[sender] >= amount, \"ERC20: insufficient balance\") */\n      tag_112\n      jumpi\n      mload(0x40)\n      0x08c379a000000000000000000000000000000000000000000000000000000000\n      dup2\n      mstore\n      0x04\n      add\n      tag_113\n      swap1\n      tag_114\n      jump\t// in\n    tag_113:\n      mload(0x40)\n      dup1\n      swap2\n      sub\n      swap1\n      revert\n    tag_112:\n        /* \"contracts/base/ERC20.sol\":1522:1528  amount */\n      dup2\n        /* \"contracts/base/ERC20.sol\":1489:1498  allowance */\n      0x01\n        /* \"contracts/base/ERC20.sol\":1489:1506  allowance[sender] */\n      0x00\n        /* \"contracts/base/ERC20.sol\":1499:1505  sender */\n      dup7\n        /* \"contracts/base/ERC20.sol\":1489:1506  allowance[sender] */\n      0xffffffffffffffffffffffffffffffffffffffff\n      and\n      0xffffffffffffffffffffffffffffffffffffffff\n      and\n      dup2\n      mstore\n      0x20\n      add\n      swap1\n      dup2\n      mstore\n      0x20\n      add\n      0x00\n      keccak256\n        /* \"contracts/base/ERC20.sol\":1489:1518  allowance[sender][msg.sender] */\n      0x00\n        /* \"contracts/base/ERC20.sol\":1507:1517  msg.sender */\n      caller\n        /* \"contracts/base/ERC20.sol\":1489:1518  allowance[sender][msg.sender] */\n      0xffffffffffffffffffffffffffffffffffffffff\n      and\n      0xffffffffffffffffffffffffffffffffffffffff\n      and\n      dup2\n      mstore\n      0x20\n      add\n      swap1\n      dup2\n      mstore\n      0x20\n      add\n      0x00\n      keccak256\n      sload\n        /* \"contracts/base/ERC20.sol\":1489:1528  allowance[sender][msg.sender] >= amount */\n      lt\n      iszero\n        /* \"contracts/base/ERC20.sol\":1481:1557  require(allowance[sender][msg.sender] >= amount, \"ERC20: allowance too low\") */\n      tag_115\n      jumpi\n      mload(0x40)\n      0x08c379a000000000000000000000000000000000000000000000000000000000\n      dup2\n      mstore\n      0x04\n      add\n      tag_116\n      swap1\n      tag_117\n      jump\t// in\n    tag_116:\n      mload(0x40)\n      dup1\n      swap2\n      sub\n      swap1\n      revert\n    tag_115:\n        /* \"contracts/base/ERC20.sol\":1601:1607  amount */\n      dup2\n        /* \"contracts/base/ERC20.sol\":1568:1577  allowance */\n      0x01\n        /* \"contracts/base/ERC20.sol\":1568:1585  allowance[sender] */\n      0x00\n        /* \"contracts/base/ERC20.sol\":1578:1584  sender */\n      dup7\n        /* \"contracts/base/ERC20.sol\":1568:1585  allowance[sender] */\n      0xffffffffffffffffffffffffffffffffffffffff\n      and\n      0xffffffffffffffffffffffffffffffffffffffff\n      and\n      dup2\n      mstore\n      0x20\n      add\n      swap1\n      dup2\n      mstore\n      0x20\n      add\n      0x00\n      keccak256\n        /* \"contracts/base/ERC20.sol\":1568:1597  allowance[sender][msg.sender] */\n      0x00\n        /* \"contracts/base/ERC20.sol\":1586:1596  msg.sender */\n      caller\n        /* \"contracts/base/ERC20.sol\":1568:1597  allowance[sender][msg.sender] */\n      0xffffffffffffffffffffffffffffffffffffffff\n      and\n      0xffffffffffffffffffffffffffffffffffffffff\n      and\n      dup2\n      mstore\n      0x20\n      add\n      swap1\n      dup2\n      mstore\n      0x20\n      add\n      0x00\n      keccak256\n      0x00\n        /* \"contracts/base/ERC20.sol\":1568:1607  allowance[sender][msg.sender] -= amount */\n      dup3\n      dup3\n      sload\n      tag_118\n      swap2\n      swap1\n      tag_119\n      jump\t// in\n    tag_118:\n      swap3\n      pop\n      pop\n      dup2\n      swap1\n      sstore\n      pop\n        /* \"contracts/base/ERC20.sol\":1639:1645  amount */\n      dup2\n        /* \"contracts/base/ERC20.sol\":1618:1627  balanceOf */\n      0x00\n        /* \"contracts/base/ERC20.sol\":1618:1635  balanceOf[sender] */\n      dup1\n        /* \"contracts/base/ERC20.sol\":1628:1634  sender */\n      dup7\n        /* \"contracts/base/ERC20.sol\":1618:1635  balanceOf[sender] */\n      0xffffffffffffffffffffffffffffffffffffffff\n      and\n      0xffffffffffffffffffffffffffffffffffffffff\n      and\n      dup2\n      mstore\n      0x20\n      add\n      swap1\n      dup2\n      mstore\n      0x20\n      add\n      0x00\n      keccak256\n      0x00\n        /* \"contracts/base/ERC20.sol\":1618:1645  balanceOf[sender] -= amount */\n      dup3\n      dup3\n      sload\n      tag_120\n      swap2\n      swap1\n      tag_119\n      jump\t// in\n    tag_120:\n      swap3\n      pop\n      pop\n      dup2\n      swap1\n      sstore\n      pop\n        /* \"contracts/base/ERC20.sol\":1680:1686  amount */\n      dup2\n        /* \"contracts/base/ERC20.sol\":1656:1665  balanceOf */\n      0x00\n        /* \"contracts/base/ERC20.sol\":1656:1676  balanceOf[recipient] */\n      dup1\n        /* \"contracts/base/ERC20.sol\":1666:1675  recipient */\n      dup6\n        /* \"contracts/base/ERC20.sol\":1656:1676  balanceOf[recipient] */\n      0xffffffffffffffffffffffffffffffffffffffff\n      and\n      0xffffffffffffffffffffffffffffffffffffffff\n      and\n      dup2\n      mstore\n      0x20\n      add\n      swap1\n      dup2\n      mstore\n      0x20\n      add\n      0x00\n      keccak256\n      0x00\n        /* \"contracts/base/ERC20.sol\":1656:1686  balanceOf[recipient] += amount */\n      dup3\n      dup3\n      sload\n      tag_121\n      swap2\n      swap1\n      tag_122\n      jump\t// in\n    tag_121:\n      swap3\n      pop\n      pop\n      dup2\n      swap1\n      sstore\n      pop\n        /* \"contracts/base/ERC20.sol\":1719:1728  recipient */\n      dup3\n        /* \"contracts/base/ERC20.sol\":1702:1737  Transfer(sender, recipient, amount) */\n      0xffffffffffffffffffffffffffffffffffffffff\n      and\n        /* \"contracts/base/ERC20.sol\":1711:1717  sender */\n      dup5\n        /* \"contracts/base/ERC20.sol\":1702:1737  Transfer(sender, recipient, amount) */\n      0xffffffffffffffffffffffffffffffffffffffff\n      and\n      0xddf252ad1be2c89b69c2b068fc378daa952ba7f163c4a11628f55a4df523b3ef\n        /* \"contracts/base/ERC20.sol\":1730:1736  amount */\n      dup5\n        /* \"contracts/base/ERC20.sol\":1702:1737  Transfer(sender, recipient, amount) */\n      mload(0x40)\n      tag_123\n      swap2\n      swap1\n      tag_38\n      jump\t// in\n    tag_123:\n      mload(0x40)\n      dup1\n      swap2\n      sub\n      swap1\n      log3\n        /* \"contracts/base/ERC20.sol\":1755:1759  true */\n      0x01\n        /* \"contracts/base/ERC20.sol\":1748:1759  return true */\n      swap1\n      pop\n        /* \"contracts/base/ERC20.sol\":1257:1767  function transferFrom(... */\n      swap4\n      swap3\n      pop\n      pop\n      pop\n      jump\t// out\n        /* \"contracts/base/ERC20.sol\":367:393  uint8 public decimals = 18 */\n    tag_45:\n      0x05\n      0x00\n      swap1\n      sload\n      swap1\n      0x0100\n      exp\n      swap1\n      div\n      0xff\n      and\n      dup2\n      jump\t// out\n        /* \"contracts/PenERC20V2.sol\":311:359  mapping(address => uint256) public checkinStreak */\n    tag_51:\n      mstore(0x20, 0x07)\n      dup1\n      0x00\n      mstore\n      keccak256(0x00, 0x40)\n      0x00\n      swap2\n      pop\n      swap1\n      pop\n      sload\n      dup2\n      jump\t// out\n        /* \"contracts/base/ERC20.sol\":1981:2248  function burn(uint256 amount) external {... */\n    tag_56:\n        /* \"contracts/base/ERC20.sol\":2064:2070  amount */\n      dup1\n        /* \"contracts/base/ERC20.sol\":2039:2048  balanceOf */\n      0x00\n        /* \"contracts/base/ERC20.sol\":2039:2060  balanceOf[msg.sender] */\n      dup1\n        /* \"contracts/base/ERC20.sol\":2049:2059  msg.sender */\n      caller\n        /* \"contracts/base/ERC20.sol\":2039:2060  balanceOf[msg.sender] */\n      0xffffffffffffffffffffffffffffffffffffffff\n      and\n      0xffffffffffffffffffffffffffffffffffffffff\n      and\n      dup2\n      mstore\n      0x20\n      add\n      swap1\n      dup2\n      mstore\n      0x20\n      add\n      0x00\n      keccak256\n      sload\n        /* \"contracts/base/ERC20.sol\":2039:2070  balanceOf[msg.sender] >= amount */\n      lt\n      iszero\n        /* \"contracts/base/ERC20.sol\":2031:2110  require(balanceOf[msg.sender] >= amount, \"ERC20: insufficient balance to burn\") */\n      tag_125\n      jumpi\n      mload(0x40)\n      0x08c379a000000000000000000000000000000000000000000000000000000000\n      dup2\n      mstore\n      0x04\n      add\n      tag_126\n      swap1\n      tag_127\n      jump\t// in\n    tag_126:\n      mload(0x40)\n      dup1\n      swap2\n      sub\n      swap1\n      revert\n    tag_125:\n        /* \"contracts/base/ERC20.sol\":2146:2152  amount */\n      dup1\n        /* \"contracts/base/ERC20.sol\":2121:2130  balanceOf */\n      0x00\n        /* \"contracts/base/ERC20.sol\":2121:2142  balanceOf[msg.sender] */\n      dup1\n        /* \"contracts/base/ERC20.sol\":2131:2141  msg.sender */\n      caller\n        /* \"contracts/base/ERC20.sol\":2121:2142  balanceOf[msg.sender] */\n      0xffffffffffffffffffffffffffffffffffffffff\n      and\n      0xffffffffffffffffffffffffffffffffffffffff\n      and\n      dup2\n      mstore\n      0x20\n      add\n      swap1\n      dup2\n      mstore\n      0x20\n      add\n      0x00\n      keccak256\n      0x00\n        /* \"contracts/base/ERC20.sol\":2121:2152  balanceOf[msg.sender] -= amount */\n      dup3\n      dup3\n      sload\n      tag_128\n      swap2\n      swap1\n      tag_119\n      jump\t// in\n    tag_128:\n      swap3\n      pop\n      pop\n      dup2\n      swap1\n      sstore\n      pop\n        /* \"contracts/base/ERC20.sol\":2178:2184  amount */\n      dup1\n        /* \"contracts/base/ERC20.sol\":2163:2174  totalSupply */\n      0x02\n      0x00\n        /* \"contracts/base/ERC20.sol\":2163:2184  totalSupply -= amount */\n      dup3\n      dup3\n      sload\n      tag_129\n      swap2\n      swap1\n      tag_119\n      jump\t// in\n    tag_129:\n      swap3\n      pop\n      pop\n      dup2\n      swap1\n      sstore\n      pop\n        /* \"contracts/base/ERC20.sol\":2229:2230  0 */\n      0x00\n        /* \"contracts/base/ERC20.sol\":2200:2240  Transfer(msg.sender, address(0), amount) */\n      0xffffffffffffffffffffffffffffffffffffffff\n      and\n        /* \"contracts/base/ERC20.sol\":2209:2219  msg.sender */\n      caller\n        /* \"contracts/base/ERC20.sol\":2200:2240  Transfer(msg.sender, address(0), amount) */\n      0xffffffffffffffffffffffffffffffffffffffff\n      and\n      0xddf252ad1be2c89b69c2b068fc378daa952ba7f163c4a11628f55a4df523b3ef\n        /* \"contracts/base/ERC20.sol\":2233:2239  amount */\n      dup4\n        /* \"contracts/base/ERC20.sol\":2200:2240  Transfer(msg.sender, address(0), amount) */\n      mload(0x40)\n      tag_130\n      swap2\n      swap1\n      tag_38\n      jump\t// in\n    tag_130:\n      mload(0x40)\n      dup1\n      swap2\n      sub\n      swap1\n      log3\n        /* \"contracts/base/ERC20.sol\":1981:2248  function burn(uint256 amount) external {... */\n      pop\n      jump\t// out\n        /* \"contracts/PenERC20V2.sol\":2459:4548  function luckyDraw(uint seed) external returns (string memory reward) {... */\n    tag_59:\n        /* \"contracts/PenERC20V2.sol\":2507:2527  string memory reward */\n      0x60\n        /* \"contracts/PenERC20V2.sol\":2540:2553  uint256 today */\n      0x00\n        /* \"contracts/PenERC20V2.sol\":2586:2592  1 days */\n      0x015180\n        /* \"contracts/PenERC20V2.sol\":2575:2582  8 hours */\n      0x7080\n        /* \"contracts/PenERC20V2.sol\":2557:2572  block.timestamp */\n      timestamp\n        /* \"contracts/PenERC20V2.sol\":2557:2582  block.timestamp + 8 hours */\n      tag_132\n      swap2\n      swap1\n      tag_122\n      jump\t// in\n    tag_132:\n        /* \"contracts/PenERC20V2.sol\":2556:2592  (block.timestamp + 8 hours) / 1 days */\n      tag_133\n      swap2\n      swap1\n      tag_134\n      jump\t// in\n    tag_133:\n        /* \"contracts/PenERC20V2.sol\":2540:2592  uint256 today = (block.timestamp + 8 hours) / 1 days */\n      swap1\n      pop\n        /* \"contracts/PenERC20V2.sol\":2603:2615  uint256 cost */\n      0x00\n        /* \"contracts/PenERC20V2.sol\":2719:2724  today */\n      dup2\n        /* \"contracts/PenERC20V2.sol\":2691:2704  luckyDrawDate */\n      0x09\n        /* \"contracts/PenERC20V2.sol\":2691:2716  luckyDrawDate[msg.sender] */\n      0x00\n        /* \"contracts/PenERC20V2.sol\":2705:2715  msg.sender */\n      caller\n        /* \"contracts/PenERC20V2.sol\":2691:2716  luckyDrawDate[msg.sender] */\n      0xffffffffffffffffffffffffffffffffffffffff\n      and\n      0xffffffffffffffffffffffffffffffffffffffff\n      and\n      dup2\n      mstore\n      0x20\n      add\n      swap1\n      dup2\n      mstore\n      0x20\n      add\n      0x00\n      keccak256\n      sload\n        /* \"contracts/PenERC20V2.sol\":2691:2724  luckyDrawDate[msg.sender] < today */\n      lt\n        /* \"contracts/PenERC20V2.sol\":2687:2831  if (luckyDrawDate[msg.sender] < today) {... */\n      iszero\n      tag_135\n      jumpi\n        /* \"contracts/PenERC20V2.sol\":2769:2774  today */\n      dup2\n        /* \"contracts/PenERC20V2.sol\":2741:2754  luckyDrawDate */\n      0x09\n        /* \"contracts/PenERC20V2.sol\":2741:2766  luckyDrawDate[msg.sender] */\n      0x00\n        /* \"contracts/PenERC20V2.sol\":2755:2765  msg.sender */\n      caller\n        /* \"contracts/PenERC20V2.sol\":2741:2766  luckyDrawDate[msg.sender] */\n      0xffffffffffffffffffffffffffffffffffffffff\n      and\n      0xffffffffffffffffffffffffffffffffffffffff\n      and\n      dup2\n      mstore\n      0x20\n      add\n      swap1\n      dup2\n      mstore\n      0x20\n      add\n      0x00\n      keccak256\n        /* \"contracts/PenERC20V2.sol\":2741:2774  luckyDrawDate[msg.sender] = today */\n      dup2\n      swap1\n      sstore\n      pop\n        /* \"contracts/PenERC20V2.sol\":2818:2819  0 */\n      0x00\n        /* \"contracts/PenERC20V2.sol\":2789:2803  luckyDrawCount */\n      0x0a\n        /* \"contracts/PenERC20V2.sol\":2789:2815  luckyDrawCount[msg.sender] */\n      0x00\n        /* \"contracts/PenERC20V2.sol\":2804:2814  msg.sender */\n      caller\n        /* \"contracts/PenERC20V2.sol\":2789:2815  luckyDrawCount[msg.sender] */\n      0xffffffffffffffffffffffffffffffffffffffff\n      and\n      0xffffffffffffffffffffffffffffffffffffffff\n      and\n      dup2\n      mstore\n      0x20\n      add\n      swap1\n      dup2\n      mstore\n      0x20\n      add\n      0x00\n      keccak256\n        /* \"contracts/PenERC20V2.sol\":2789:2819  luckyDrawCount[msg.sender] = 0 */\n      dup2\n      swap1\n      sstore\n      pop\n        /* \"contracts/PenERC20V2.sol\":2687:2831  if (luckyDrawDate[msg.sender] < today) {... */\n    tag_135:\n        /* \"contracts/PenERC20V2.sol\":2880:2881  3 */\n      0x03\n        /* \"contracts/PenERC20V2.sol\":2851:2865  luckyDrawCount */\n      0x0a\n        /* \"contracts/PenERC20V2.sol\":2851:2877  luckyDrawCount[msg.sender] */\n      0x00\n        /* \"contracts/PenERC20V2.sol\":2866:2876  msg.sender */\n      caller\n        /* \"contracts/PenERC20V2.sol\":2851:2877  luckyDrawCount[msg.sender] */\n      0xffffffffffffffffffffffffffffffffffffffff\n      and\n      0xffffffffffffffffffffffffffffffffffffffff\n      and\n      dup2\n      mstore\n      0x20\n      add\n      swap1\n      dup2\n      mstore\n      0x20\n      add\n      0x00\n      keccak256\n      sload\n        /* \"contracts/PenERC20V2.sol\":2851:2881  luckyDrawCount[msg.sender] < 3 */\n      lt\n        /* \"contracts/PenERC20V2.sol\":2843:2905  require(luckyDrawCount[msg.sender] < 3, \"Max 3 draws per day\") */\n      tag_136\n      jumpi\n      mload(0x40)\n      0x08c379a000000000000000000000000000000000000000000000000000000000\n      dup2\n      mstore\n      0x04\n      add\n      tag_137\n      swap1\n      tag_138\n      jump\t// in\n    tag_137:\n      mload(0x40)\n      dup1\n      swap2\n      sub\n      swap1\n      revert\n    tag_136:\n        /* \"contracts/PenERC20V2.sol\":2989:2990  1 */\n      0x01\n        /* \"contracts/PenERC20V2.sol\":2959:2973  luckyDrawCount */\n      0x0a\n        /* \"contracts/PenERC20V2.sol\":2959:2985  luckyDrawCount[msg.sender] */\n      0x00\n        /* \"contracts/PenERC20V2.sol\":2974:2984  msg.sender */\n      caller\n        /* \"contracts/PenERC20V2.sol\":2959:2985  luckyDrawCount[msg.sender] */\n      0xffffffffffffffffffffffffffffffffffffffff\n      and\n      0xffffffffffffffffffffffffffffffffffffffff\n      and\n      dup2\n      mstore\n      0x20\n      add\n      swap1\n      dup2\n      mstore\n      0x20\n      add\n      0x00\n      keccak256\n      sload\n        /* \"contracts/PenERC20V2.sol\":2959:2990  luckyDrawCount[msg.sender] == 1 */\n      sub\n        /* \"contracts/PenERC20V2.sol\":2955:3743  if (luckyDrawCount[msg.sender] == 1) {... */\n      tag_139\n      jumpi\n        /* \"contracts/PenERC20V2.sol\":3060:3068  decimals */\n      0x05\n      0x00\n      swap1\n      sload\n      swap1\n      0x0100\n      exp\n      swap1\n      div\n      0xff\n      and\n        /* \"contracts/PenERC20V2.sol\":3052:3069  uint256(decimals) */\n      0xff\n      and\n        /* \"contracts/PenERC20V2.sol\":3046:3048  10 */\n      0x0a\n        /* \"contracts/PenERC20V2.sol\":3046:3069  10 ** uint256(decimals) */\n      tag_140\n      swap2\n      swap1\n      tag_141\n      jump\t// in\n    tag_140:\n        /* \"contracts/PenERC20V2.sol\":3040:3043  100 */\n      0x64\n        /* \"contracts/PenERC20V2.sol\":3040:3069  100 * 10 ** uint256(decimals) */\n      tag_142\n      swap2\n      swap1\n      tag_143\n      jump\t// in\n    tag_142:\n        /* \"contracts/PenERC20V2.sol\":3015:3024  balanceOf */\n      0x00\n        /* \"contracts/PenERC20V2.sol\":3015:3036  balanceOf[msg.sender] */\n      dup1\n        /* \"contracts/PenERC20V2.sol\":3025:3035  msg.sender */\n      caller\n        /* \"contracts/PenERC20V2.sol\":3015:3036  balanceOf[msg.sender] */\n      0xffffffffffffffffffffffffffffffffffffffff\n      and\n      0xffffffffffffffffffffffffffffffffffffffff\n      and\n      dup2\n      mstore\n      0x20\n      add\n      swap1\n      dup2\n      mstore\n      0x20\n      add\n      0x00\n      keccak256\n      sload\n        /* \"contracts/PenERC20V2.sol\":3015:3069  balanceOf[msg.sender] >= 100 * 10 ** uint256(decimals) */\n      lt\n      iszero\n        /* \"contracts/PenERC20V2.sol\":3007:3088  require(balanceOf[msg.sender] >= 100 * 10 ** uint256(decimals), \"Not enough PEN\") */\n      tag_144\n      jumpi\n      mload(0x40)\n      0x08c379a000000000000000000000000000000000000000000000000000000000\n      dup2\n      mstore\n      0x04\n      add\n      tag_145\n      swap1\n      tag_146\n      jump\t// in\n    tag_145:\n      mload(0x40)\n      dup1\n      swap2\n      sub\n      swap1\n      revert\n    tag_144:\n        /* \"contracts/PenERC20V2.sol\":3148:3156  decimals */\n      0x05\n      0x00\n      swap1\n      sload\n      swap1\n      0x0100\n      exp\n      swap1\n      div\n      0xff\n      and\n        /* \"contracts/PenERC20V2.sol\":3140:3157  uint256(decimals) */\n      0xff\n      and\n        /* \"contracts/PenERC20V2.sol\":3134:3136  10 */\n      0x0a\n        /* \"contracts/PenERC20V2.sol\":3134:3157  10 ** uint256(decimals) */\n      tag_147\n      swap2\n      swap1\n      tag_141\n      jump\t// in\n    tag_147:\n        /* \"contracts/PenERC20V2.sol\":3128:3131  100 */\n      0x64\n        /* \"contracts/PenERC20V2.sol\":3128:3157  100 * 10 ** uint256(decimals) */\n      tag_148\n      swap2\n      swap1\n      tag_143\n      jump\t// in\n    tag_148:\n        /* \"contracts/PenERC20V2.sol\":3103:3112  balanceOf */\n      0x00\n        /* \"contracts/PenERC20V2.sol\":3103:3124  balanceOf[msg.sender] */\n      dup1\n        /* \"contracts/PenERC20V2.sol\":3113:3123  msg.sender */\n      caller\n        /* \"contracts/PenERC20V2.sol\":3103:3124  balanceOf[msg.sender] */\n      0xffffffffffffffffffffffffffffffffffffffff\n      and\n      0xffffffffffffffffffffffffffffffffffffffff\n      and\n      dup2\n      mstore\n      0x20\n      add\n      swap1\n      dup2\n      mstore\n      0x20\n      add\n      0x00\n      keccak256\n      0x00\n        /* \"contracts/PenERC20V2.sol\":3103:3157  balanceOf[msg.sender] -= 100 * 10 ** uint256(decimals) */\n      dup3\n      dup3\n      sload\n      tag_149\n      swap2\n      swap1\n      tag_119\n      jump\t// in\n    tag_149:\n      swap3\n      pop\n      pop\n      dup2\n      swap1\n      sstore\n      pop\n        /* \"contracts/PenERC20V2.sol\":3207:3215  decimals */\n      0x05\n      0x00\n      swap1\n      sload\n      swap1\n      0x0100\n      exp\n      swap1\n      div\n      0xff\n      and\n        /* \"contracts/PenERC20V2.sol\":3199:3216  uint256(decimals) */\n      0xff\n      and\n        /* \"contracts/PenERC20V2.sol\":3193:3195  10 */\n      0x0a\n        /* \"contracts/PenERC20V2.sol\":3193:3216  10 ** uint256(decimals) */\n      tag_150\n      swap2\n      swap1\n      tag_141\n      jump\t// in\n    tag_150:\n        /* \"contracts/PenERC20V2.sol\":3187:3190  100 */\n      0x64\n        /* \"contracts/PenERC20V2.sol\":3187:3216  100 * 10 ** uint256(decimals) */\n      tag_151\n      swap2\n      swap1\n      tag_143\n      jump\t// in\n    tag_151:\n        /* \"contracts/PenERC20V2.sol\":3172:3183  totalSupply */\n      0x02\n      0x00\n        /* \"contracts/PenERC20V2.sol\":3172:3216  totalSupply -= 100 * 10 ** uint256(decimals) */\n      dup3\n      dup3\n      sload\n      tag_152\n      swap2\n      swap1\n      tag_119\n      jump\t// in\n    tag_152:\n      swap3\n      pop\n      pop\n      dup2\n      swap1\n      sstore\n      pop\n        /* \"contracts/PenERC20V2.sol\":3248:3251  100 */\n      0x64\n        /* \"contracts/PenERC20V2.sol\":3241:3251  cost = 100 */\n      swap1\n      pop\n        /* \"contracts/PenERC20V2.sol\":3300:3301  0 */\n      0x00\n        /* \"contracts/PenERC20V2.sol\":3271:3334  Transfer(msg.sender, address(0), 100 * 10 ** uint256(decimals)) */\n      0xffffffffffffffffffffffffffffffffffffffff\n      and\n        /* \"contracts/PenERC20V2.sol\":3280:3290  msg.sender */\n      caller\n        /* \"contracts/PenERC20V2.sol\":3271:3334  Transfer(msg.sender, address(0), 100 * 10 ** uint256(decimals)) */\n      0xffffffffffffffffffffffffffffffffffffffff\n      and\n      0xddf252ad1be2c89b69c2b068fc378daa952ba7f163c4a11628f55a4df523b3ef\n        /* \"contracts/PenERC20V2.sol\":3324:3332  decimals */\n      0x05\n      0x00\n      swap1\n      sload\n      swap1\n      0x0100\n      exp\n      swap1\n      div\n      0xff\n      and\n        /* \"contracts/PenERC20V2.sol\":3316:3333  uint256(decimals) */\n      0xff\n      and\n        /* \"contracts/PenERC20V2.sol\":3310:3312  10 */\n      0x0a\n        /* \"contracts/PenERC20V2.sol\":3310:3333  10 ** uint256(decimals) */\n      tag_153\n      swap2\n      swap1\n      tag_141\n      jump\t// in\n    tag_153:\n        /* \"contracts/PenERC20V2.sol\":3304:3307  100 */\n      0x64\n        /* \"contracts/PenERC20V2.sol\":3304:3333  100 * 10 ** uint256(decimals) */\n      tag_154\n      swap2\n      swap1\n      tag_143\n      jump\t// in\n    tag_154:\n        /* \"contracts/PenERC20V2.sol\":3271:3334  Transfer(msg.sender, address(0), 100 * 10 ** uint256(decimals)) */\n      mload(0x40)\n      tag_155\n      swap2\n      swap1\n      tag_38\n      jump\t// in\n    tag_155:\n      mload(0x40)\n      dup1\n      swap2\n      sub\n      swap1\n      log3\n        /* \"contracts/PenERC20V2.sol\":2955:3743  if (luckyDrawCount[msg.sender] == 1) {... */\n      jump(tag_156)\n    tag_139:\n        /* \"contracts/PenERC20V2.sol\":3386:3387  2 */\n      0x02\n        /* \"contracts/PenERC20V2.sol\":3356:3370  luckyDrawCount */\n      0x0a\n        /* \"contracts/PenERC20V2.sol\":3356:3382  luckyDrawCount[msg.sender] */\n      0x00\n        /* \"contracts/PenERC20V2.sol\":3371:3381  msg.sender */\n      caller\n        /* \"contracts/PenERC20V2.sol\":3356:3382  luckyDrawCount[msg.sender] */\n      0xffffffffffffffffffffffffffffffffffffffff\n      and\n      0xffffffffffffffffffffffffffffffffffffffff\n      and\n      dup2\n      mstore\n      0x20\n      add\n      swap1\n      dup2\n      mstore\n      0x20\n      add\n      0x00\n      keccak256\n      sload\n        /* \"contracts/PenERC20V2.sol\":3356:3387  luckyDrawCount[msg.sender] == 2 */\n      sub\n        /* \"contracts/PenERC20V2.sol\":3352:3743  if (luckyDrawCount[msg.sender] == 2) {... */\n      tag_157\n      jumpi\n        /* \"contracts/PenERC20V2.sol\":3457:3465  decimals */\n      0x05\n      0x00\n      swap1\n      sload\n      swap1\n      0x0100\n      exp\n      swap1\n      div\n      0xff\n      and\n        /* \"contracts/PenERC20V2.sol\":3449:3466  uint256(decimals) */\n      0xff\n      and\n        /* \"contracts/PenERC20V2.sol\":3443:3445  10 */\n      0x0a\n        /* \"contracts/PenERC20V2.sol\":3443:3466  10 ** uint256(decimals) */\n      tag_158\n      swap2\n      swap1\n      tag_141\n      jump\t// in\n    tag_158:\n        /* \"contracts/PenERC20V2.sol\":3437:3440  200 */\n      0xc8\n        /* \"contracts/PenERC20V2.sol\":3437:3466  200 * 10 ** uint256(decimals) */\n      tag_159\n      swap2\n      swap1\n      tag_143\n      jump\t// in\n    tag_159:\n        /* \"contracts/PenERC20V2.sol\":3412:3421  balanceOf */\n      0x00\n        /* \"contracts/PenERC20V2.sol\":3412:3433  balanceOf[msg.sender] */\n      dup1\n        /* \"contracts/PenERC20V2.sol\":3422:3432  msg.sender */\n      caller\n        /* \"contracts/PenERC20V2.sol\":3412:3433  balanceOf[msg.sender] */\n      0xffffffffffffffffffffffffffffffffffffffff\n      and\n      0xffffffffffffffffffffffffffffffffffffffff\n      and\n      dup2\n      mstore\n      0x20\n      add\n      swap1\n      dup2\n      mstore\n      0x20\n      add\n      0x00\n      keccak256\n      sload\n        /* \"contracts/PenERC20V2.sol\":3412:3466  balanceOf[msg.sender] >= 200 * 10 ** uint256(decimals) */\n      lt\n      iszero\n        /* \"contracts/PenERC20V2.sol\":3404:3485  require(balanceOf[msg.sender] >= 200 * 10 ** uint256(decimals), \"Not enough PEN\") */\n      tag_160\n      jumpi\n      mload(0x40)\n      0x08c379a000000000000000000000000000000000000000000000000000000000\n      dup2\n      mstore\n      0x04\n      add\n      tag_161\n      swap1\n      tag_146\n      jump\t// in\n    tag_161:\n      mload(0x40)\n      dup1\n      swap2\n      sub\n      swap1\n      revert\n    tag_160:\n        /* \"contracts/PenERC20V2.sol\":3545:3553  decimals */\n      0x05\n      0x00\n      swap1\n      sload\n      swap1\n      0x0100\n      exp\n      swap1\n      div\n      0xff\n      and\n        /* \"contracts/PenERC20V2.sol\":3537:3554  uint256(decimals) */\n      0xff\n      and\n        /* \"contracts/PenERC20V2.sol\":3531:3533  10 */\n      0x0a\n        /* \"contracts/PenERC20V2.sol\":3531:3554  10 ** uint256(decimals) */\n      tag_162\n      swap2\n      swap1\n      tag_141\n      jump\t// in\n    tag_162:\n        /* \"contracts/PenERC20V2.sol\":3525:3528  200 */\n      0xc8\n        /* \"contracts/PenERC20V2.sol\":3525:3554  200 * 10 ** uint256(decimals) */\n      tag_163\n      swap2\n      swap1\n      tag_143\n      jump\t// in\n    tag_163:\n        /* \"contracts/PenERC20V2.sol\":3500:3509  balanceOf */\n      0x00\n        /* \"contracts/PenERC20V2.sol\":3500:3521  balanceOf[msg.sender] */\n      dup1\n        /* \"contracts/PenERC20V2.sol\":3510:3520  msg.sender */\n      caller\n        /* \"contracts/PenERC20V2.sol\":3500:3521  balanceOf[msg.sender] */\n      0xffffffffffffffffffffffffffffffffffffffff\n      and\n      0xffffffffffffffffffffffffffffffffffffffff\n      and\n      dup2\n      mstore\n      0x20\n      add\n      swap1\n      dup2\n      mstore\n      0x20\n      add\n      0x00\n      keccak256\n      0x00\n        /* \"contracts/PenERC20V2.sol\":3500:3554  balanceOf[msg.sender] -= 200 * 10 ** uint256(decimals) */\n      dup3\n      dup3\n      sload\n      tag_164\n      swap2\n      swap1\n      tag_119\n      jump\t// in\n    tag_164:\n      swap3\n      pop\n      pop\n      dup2\n      swap1\n      sstore\n      pop\n        /* \"contracts/PenERC20V2.sol\":3604:3612  decimals */\n      0x05\n      0x00\n      swap1\n      sload\n      swap1\n      0x0100\n      exp\n      swap1\n      div\n      0xff\n      and\n        /* \"contracts/PenERC20V2.sol\":3596:3613  uint256(decimals) */\n      0xff\n      and\n        /* \"contracts/PenERC20V2.sol\":3590:3592  10 */\n      0x0a\n        /* \"contracts/PenERC20V2.sol\":3590:3613  10 ** uint256(decimals) */\n      tag_165\n      swap2\n      swap1\n      tag_141\n      jump\t// in\n    tag_165:\n        /* \"contracts/PenERC20V2.sol\":3584:3587  200 */\n      0xc8\n        /* \"contracts/PenERC20V2.sol\":3584:3613  200 * 10 ** uint256(decimals) */\n      tag_166\n      swap2\n      swap1\n      tag_143\n      jump\t// in\n    tag_166:\n        /* \"contracts/PenERC20V2.sol\":3569:3580  totalSupply */\n      0x02\n      0x00\n        /* \"contracts/PenERC20V2.sol\":3569:3613  totalSupply -= 200 * 10 ** uint256(decimals) */\n      dup3\n      dup3\n      sload\n      tag_167\n      swap2\n      swap1\n      tag_119\n      jump\t// in\n    tag_167:\n      swap3\n      pop\n      pop\n      dup2\n      swap1\n      sstore\n      pop\n        /* \"contracts/PenERC20V2.sol\":3645:3648  200 */\n      0xc8\n        /* \"contracts/PenERC20V2.sol\":3638:3648  cost = 200 */\n      swap1\n      pop\n        /* \"contracts/PenERC20V2.sol\":3697:3698  0 */\n      0x00\n        /* \"contracts/PenERC20V2.sol\":3668:3731  Transfer(msg.sender, address(0), 200 * 10 ** uint256(decimals)) */\n      0xffffffffffffffffffffffffffffffffffffffff\n      and\n        /* \"contracts/PenERC20V2.sol\":3677:3687  msg.sender */\n      caller\n        /* \"contracts/PenERC20V2.sol\":3668:3731  Transfer(msg.sender, address(0), 200 * 10 ** uint256(decimals)) */\n      0xffffffffffffffffffffffffffffffffffffffff\n      and\n      0xddf252ad1be2c89b69c2b068fc378daa952ba7f163c4a11628f55a4df523b3ef\n        /* \"contracts/PenERC20V2.sol\":3721:3729  decimals */\n      0x05\n      0x00\n      swap1\n      sload\n      swap1\n      0x0100\n      exp\n      swap1\n      div\n      0xff\n      and\n        /* \"contracts/PenERC20V2.sol\":3713:3730  uint256(decimals) */\n      0xff\n      and\n        /* \"contracts/PenERC20V2.sol\":3707:3709  10 */\n      0x0a\n        /* \"contracts/PenERC20V2.sol\":3707:3730  10 ** uint256(decimals) */\n      tag_168\n      swap2\n      swap1\n      tag_141\n      jump\t// in\n    tag_168:\n        /* \"contracts/PenERC20V2.sol\":3701:3704  200 */\n      0xc8\n        /* \"contracts/PenERC20V2.sol\":3701:3730  200 * 10 ** uint256(decimals) */\n      tag_169\n      swap2\n      swap1\n      tag_143\n      jump\t// in\n    tag_169:\n        /* \"contracts/PenERC20V2.sol\":3668:3731  Transfer(msg.sender, address(0), 200 * 10 ** uint256(decimals)) */\n      mload(0x40)\n      tag_170\n      swap2\n      swap1\n      tag_38\n      jump\t// in\n    tag_170:\n      mload(0x40)\n      dup1\n      swap2\n      sub\n      swap1\n      log3\n        /* \"contracts/PenERC20V2.sol\":3352:3743  if (luckyDrawCount[msg.sender] == 2) {... */\n    tag_157:\n        /* \"contracts/PenERC20V2.sol\":2955:3743  if (luckyDrawCount[msg.sender] == 1) {... */\n    tag_156:\n        /* \"contracts/PenERC20V2.sol\":3783:3784  1 */\n      0x01\n        /* \"contracts/PenERC20V2.sol\":3753:3767  luckyDrawCount */\n      0x0a\n        /* \"contracts/PenERC20V2.sol\":3753:3779  luckyDrawCount[msg.sender] */\n      0x00\n        /* \"contracts/PenERC20V2.sol\":3768:3778  msg.sender */\n      caller\n        /* \"contracts/PenERC20V2.sol\":3753:3779  luckyDrawCount[msg.sender] */\n      0xffffffffffffffffffffffffffffffffffffffff\n      and\n      0xffffffffffffffffffffffffffffffffffffffff\n      and\n      dup2\n      mstore\n      0x20\n      add\n      swap1\n      dup2\n      mstore\n      0x20\n      add\n      0x00\n      keccak256\n      0x00\n        /* \"contracts/PenERC20V2.sol\":3753:3784  luckyDrawCount[msg.sender] += 1 */\n      dup3\n      dup3\n      sload\n      tag_171\n      swap2\n      swap1\n      tag_122\n      jump\t// in\n    tag_171:\n      swap3\n      pop\n      pop\n      dup2\n      swap1\n      sstore\n      pop\n        /* \"contracts/PenERC20V2.sol\":3822:3831  uint code */\n      0x00\n        /* \"contracts/PenERC20V2.sol\":3856:3857  1 */\n      0x01\n        /* \"contracts/PenERC20V2.sol\":3850:3853  100 */\n      0x64\n        /* \"contracts/PenERC20V2.sol\":3835:3847  random(seed) */\n      tag_172\n        /* \"contracts/PenERC20V2.sol\":3842:3846  seed */\n      dup8\n        /* \"contracts/PenERC20V2.sol\":3835:3841  random */\n      tag_82\n        /* \"contracts/PenERC20V2.sol\":3835:3847  random(seed) */\n      jump\t// in\n    tag_172:\n        /* \"contracts/PenERC20V2.sol\":3835:3853  random(seed) % 100 */\n      tag_173\n      swap2\n      swap1\n      tag_174\n      jump\t// in\n    tag_173:\n        /* \"contracts/PenERC20V2.sol\":3835:3857  random(seed) % 100 + 1 */\n      tag_175\n      swap2\n      swap1\n      tag_122\n      jump\t// in\n    tag_175:\n        /* \"contracts/PenERC20V2.sol\":3822:3858  uint code = (random(seed) % 100 + 1) */\n      swap1\n      pop\n        /* \"contracts/PenERC20V2.sol\":3885:3886  1 */\n      0x01\n        /* \"contracts/PenERC20V2.sol\":3877:3881  code */\n      dup2\n        /* \"contracts/PenERC20V2.sol\":3877:3886  code <= 1 */\n      gt\n        /* \"contracts/PenERC20V2.sol\":3873:4488  if (code <= 1) {... */\n      tag_176\n      jumpi\n        /* \"contracts/PenERC20V2.sol\":3903:3919  reward = \"token\" */\n      mload(0x40)\n      dup1\n      0x40\n      add\n      0x40\n      mstore\n      dup1\n      0x05\n      dup2\n      mstore\n      0x20\n      add\n      0x746f6b656e000000000000000000000000000000000000000000000000000000\n      dup2\n      mstore\n      pop\n      swap4\n      pop\n        /* \"contracts/PenERC20V2.sol\":3873:4488  if (code <= 1) {... */\n      jump(tag_177)\n    tag_176:\n        /* \"contracts/PenERC20V2.sol\":3949:3950  5 */\n      0x05\n        /* \"contracts/PenERC20V2.sol\":3941:3945  code */\n      dup2\n        /* \"contracts/PenERC20V2.sol\":3941:3950  code <= 5 */\n      gt\n        /* \"contracts/PenERC20V2.sol\":3937:4488  if (code <= 5) {... */\n      tag_178\n      jumpi\n        /* \"contracts/PenERC20V2.sol\":3967:3983  reward = \"reset\" */\n      mload(0x40)\n      dup1\n      0x40\n      add\n      0x40\n      mstore\n      dup1\n      0x05\n      dup2\n      mstore\n      0x20\n      add\n      0x7265736574000000000000000000000000000000000000000000000000000000\n      dup2\n      mstore\n      pop\n      swap4\n      pop\n        /* \"contracts/PenERC20V2.sol\":4027:4028  0 */\n      0x00\n        /* \"contracts/PenERC20V2.sol\":3998:4012  luckyDrawCount */\n      0x0a\n        /* \"contracts/PenERC20V2.sol\":3998:4024  luckyDrawCount[msg.sender] */\n      0x00\n        /* \"contracts/PenERC20V2.sol\":4013:4023  msg.sender */\n      caller\n        /* \"contracts/PenERC20V2.sol\":3998:4024  luckyDrawCount[msg.sender] */\n      0xffffffffffffffffffffffffffffffffffffffff\n      and\n      0xffffffffffffffffffffffffffffffffffffffff\n      and\n      dup2\n      mstore\n      0x20\n      add\n      swap1\n      dup2\n      mstore\n      0x20\n      add\n      0x00\n      keccak256\n        /* \"contracts/PenERC20V2.sol\":3998:4028  luckyDrawCount[msg.sender] = 0 */\n      dup2\n      swap1\n      sstore\n      pop\n        /* \"contracts/PenERC20V2.sol\":3937:4488  if (code <= 5) {... */\n      jump(tag_179)\n    tag_178:\n        /* \"contracts/PenERC20V2.sol\":4058:4060  10 */\n      0x0a\n        /* \"contracts/PenERC20V2.sol\":4050:4054  code */\n      dup2\n        /* \"contracts/PenERC20V2.sol\":4050:4060  code <= 10 */\n      gt\n        /* \"contracts/PenERC20V2.sol\":4046:4488  if (code <= 10) {... */\n      tag_180\n      jumpi\n        /* \"contracts/PenERC20V2.sol\":4077:4095  reward = \"888 PEN\" */\n      mload(0x40)\n      dup1\n      0x40\n      add\n      0x40\n      mstore\n      dup1\n      0x07\n      dup2\n      mstore\n      0x20\n      add\n      0x3838382050454e00000000000000000000000000000000000000000000000000\n      dup2\n      mstore\n      pop\n      swap4\n      pop\n        /* \"contracts/PenERC20V2.sol\":4110:4157  mint(msg.sender, 888 * 10 ** uint256(decimals)) */\n      tag_181\n        /* \"contracts/PenERC20V2.sol\":4115:4125  msg.sender */\n      caller\n        /* \"contracts/PenERC20V2.sol\":4147:4155  decimals */\n      0x05\n      0x00\n      swap1\n      sload\n      swap1\n      0x0100\n      exp\n      swap1\n      div\n      0xff\n      and\n        /* \"contracts/PenERC20V2.sol\":4139:4156  uint256(decimals) */\n      0xff\n      and\n        /* \"contracts/PenERC20V2.sol\":4133:4135  10 */\n      0x0a\n        /* \"contracts/PenERC20V2.sol\":4133:4156  10 ** uint256(decimals) */\n      tag_182\n      swap2\n      swap1\n      tag_141\n      jump\t// in\n    tag_182:\n        /* \"contracts/PenERC20V2.sol\":4127:4130  888 */\n      0x0378\n        /* \"contracts/PenERC20V2.sol\":4127:4156  888 * 10 ** uint256(decimals) */\n      tag_183\n      swap2\n      swap1\n      tag_143\n      jump\t// in\n    tag_183:\n        /* \"contracts/PenERC20V2.sol\":4110:4114  mint */\n      tag_184\n        /* \"contracts/PenERC20V2.sol\":4110:4157  mint(msg.sender, 888 * 10 ** uint256(decimals)) */\n      jump\t// in\n    tag_181:\n        /* \"contracts/PenERC20V2.sol\":4046:4488  if (code <= 10) {... */\n      jump(tag_185)\n    tag_180:\n        /* \"contracts/PenERC20V2.sol\":4187:4189  20 */\n      0x14\n        /* \"contracts/PenERC20V2.sol\":4179:4183  code */\n      dup2\n        /* \"contracts/PenERC20V2.sol\":4179:4189  code <= 20 */\n      gt\n        /* \"contracts/PenERC20V2.sol\":4175:4488  if (code <= 20) {... */\n      tag_186\n      jumpi\n        /* \"contracts/PenERC20V2.sol\":4206:4224  reward = \"nothing\" */\n      mload(0x40)\n      dup1\n      0x40\n      add\n      0x40\n      mstore\n      dup1\n      0x07\n      dup2\n      mstore\n      0x20\n      add\n      0x6e6f7468696e6700000000000000000000000000000000000000000000000000\n      dup2\n      mstore\n      pop\n      swap4\n      pop\n        /* \"contracts/PenERC20V2.sol\":4175:4488  if (code <= 20) {... */\n      jump(tag_187)\n    tag_186:\n        /* \"contracts/PenERC20V2.sol\":4254:4256  50 */\n      0x32\n        /* \"contracts/PenERC20V2.sol\":4246:4250  code */\n      dup2\n        /* \"contracts/PenERC20V2.sol\":4246:4256  code <= 50 */\n      gt\n        /* \"contracts/PenERC20V2.sol\":4242:4488  if (code <= 50) {... */\n      tag_188\n      jumpi\n        /* \"contracts/PenERC20V2.sol\":4273:4291  reward = \"200 PEN\" */\n      mload(0x40)\n      dup1\n      0x40\n      add\n      0x40\n      mstore\n      dup1\n      0x07\n      dup2\n      mstore\n      0x20\n      add\n      0x3230302050454e00000000000000000000000000000000000000000000000000\n      dup2\n      mstore\n      pop\n      swap4\n      pop\n        /* \"contracts/PenERC20V2.sol\":4306:4353  mint(msg.sender, 200 * 10 ** uint256(decimals)) */\n      tag_189\n        /* \"contracts/PenERC20V2.sol\":4311:4321  msg.sender */\n      caller\n        /* \"contracts/PenERC20V2.sol\":4343:4351  decimals */\n      0x05\n      0x00\n      swap1\n      sload\n      swap1\n      0x0100\n      exp\n      swap1\n      div\n      0xff\n      and\n        /* \"contracts/PenERC20V2.sol\":4335:4352  uint256(decimals) */\n      0xff\n      and\n        /* \"contracts/PenERC20V2.sol\":4329:4331  10 */\n      0x0a\n        /* \"contracts/PenERC20V2.sol\":4329:4352  10 ** uint256(decimals) */\n      tag_190\n      swap2\n      swap1\n      tag_141\n      jump\t// in\n    tag_190:\n        /* \"contracts/PenERC20V2.sol\":4323:4326  200 */\n      0xc8\n        /* \"contracts/PenERC20V2.sol\":4323:4352  200 * 10 ** uint256(decimals) */\n      tag_191\n      swap2\n      swap1\n      tag_143\n      jump\t// in\n    tag_191:\n        /* \"contracts/PenERC20V2.sol\":4306:4310  mint */\n      tag_184\n        /* \"contracts/PenERC20V2.sol\":4306:4353  mint(msg.sender, 200 * 10 ** uint256(decimals)) */\n      jump\t// in\n    tag_189:\n        /* \"contracts/PenERC20V2.sol\":4242:4488  if (code <= 50) {... */\n      jump(tag_192)\n    tag_188:\n        /* \"contracts/PenERC20V2.sol\":4386:4404  reward = \"100 PEN\" */\n      mload(0x40)\n      dup1\n      0x40\n      add\n      0x40\n      mstore\n      dup1\n      0x07\n      dup2\n      mstore\n      0x20\n      add\n      0x3130302050454e00000000000000000000000000000000000000000000000000\n      dup2\n      mstore\n      pop\n      swap4\n      pop\n        /* \"contracts/PenERC20V2.sol\":4429:4476  mint(msg.sender, 100 * 10 ** uint256(decimals)) */\n      tag_193\n        /* \"contracts/PenERC20V2.sol\":4434:4444  msg.sender */\n      caller\n        /* \"contracts/PenERC20V2.sol\":4466:4474  decimals */\n      0x05\n      0x00\n      swap1\n      sload\n      swap1\n      0x0100\n      exp\n      swap1\n      div\n      0xff\n      and\n        /* \"contracts/PenERC20V2.sol\":4458:4475  uint256(decimals) */\n      0xff\n      and\n        /* \"contracts/PenERC20V2.sol\":4452:4454  10 */\n      0x0a\n        /* \"contracts/PenERC20V2.sol\":4452:4475  10 ** uint256(decimals) */\n      tag_194\n      swap2\n      swap1\n      tag_141\n      jump\t// in\n    tag_194:\n        /* \"contracts/PenERC20V2.sol\":4446:4449  100 */\n      0x64\n        /* \"contracts/PenERC20V2.sol\":4446:4475  100 * 10 ** uint256(decimals) */\n      tag_195\n      swap2\n      swap1\n      tag_143\n      jump\t// in\n    tag_195:\n        /* \"contracts/PenERC20V2.sol\":4429:4433  mint */\n      tag_184\n        /* \"contracts/PenERC20V2.sol\":4429:4476  mint(msg.sender, 100 * 10 ** uint256(decimals)) */\n      jump\t// in\n    tag_193:\n        /* \"contracts/PenERC20V2.sol\":4242:4488  if (code <= 50) {... */\n    tag_192:\n        /* \"contracts/PenERC20V2.sol\":4175:4488  if (code <= 20) {... */\n    tag_187:\n        /* \"contracts/PenERC20V2.sol\":4046:4488  if (code <= 10) {... */\n    tag_185:\n        /* \"contracts/PenERC20V2.sol\":3937:4488  if (code <= 5) {... */\n    tag_179:\n        /* \"contracts/PenERC20V2.sol\":3873:4488  if (code <= 1) {... */\n    tag_177:\n        /* \"contracts/PenERC20V2.sol\":4515:4525  msg.sender */\n      caller\n        /* \"contracts/PenERC20V2.sol\":4505:4540  LuckyDraw(msg.sender, reward, cost) */\n      0xffffffffffffffffffffffffffffffffffffffff\n      and\n      0x76775f6fd80273d051ffb53fcafdf73d3f7933b79207e60a978184a1fb72b32d\n        /* \"contracts/PenERC20V2.sol\":4527:4533  reward */\n      dup6\n        /* \"contracts/PenERC20V2.sol\":4535:4539  cost */\n      dup5\n        /* \"contracts/PenERC20V2.sol\":4505:4540  LuckyDraw(msg.sender, reward, cost) */\n      mload(0x40)\n      tag_196\n      swap3\n      swap2\n      swap1\n      tag_197\n      jump\t// in\n    tag_196:\n      mload(0x40)\n      dup1\n      swap2\n      sub\n      swap1\n      log2\n        /* \"contracts/PenERC20V2.sol\":2529:4548  {... */\n      pop\n      pop\n      pop\n        /* \"contracts/PenERC20V2.sol\":2459:4548  function luckyDraw(uint seed) external returns (string memory reward) {... */\n      swap2\n      swap1\n      pop\n      jump\t// out\n        /* \"contracts/base/ERC20.sol\":131:184  mapping(address => uint256) public override balanceOf */\n    tag_63:\n      mstore(0x20, 0x00)\n      dup1\n      0x00\n      mstore\n      keccak256(0x00, 0x40)\n      0x00\n      swap2\n      pop\n      swap1\n      pop\n      sload\n      dup2\n      jump\t// out\n        /* \"contracts/PenERC20V2.sol\":2271:2320  mapping(address => uint256) public luckyDrawCount */\n    tag_67:\n      mstore(0x20, 0x0a)\n      dup1\n      0x00\n      mstore\n      keccak256(0x00, 0x40)\n      0x00\n      swap2\n      pop\n      swap1\n      pop\n      sload\n      dup2\n      jump\t// out\n        /* \"contracts/base/ERC20.sol\":340:360  string public symbol */\n    tag_70:\n      0x04\n      dup1\n      sload\n      tag_198\n      swap1\n      tag_104\n      jump\t// in\n    tag_198:\n      dup1\n      0x1f\n      add\n      0x20\n      dup1\n      swap2\n      div\n      mul\n      0x20\n      add\n      mload(0x40)\n      swap1\n      dup2\n      add\n      0x40\n      mstore\n      dup1\n      swap3\n      swap2\n      swap1\n      dup2\n      dup2\n      mstore\n      0x20\n      add\n      dup3\n      dup1\n      sload\n      tag_199\n      swap1\n      tag_104\n      jump\t// in\n    tag_199:\n      dup1\n      iszero\n      tag_200\n      jumpi\n      dup1\n      0x1f\n      lt\n      tag_201\n      jumpi\n      0x0100\n      dup1\n      dup4\n      sload\n      div\n      mul\n      dup4\n      mstore\n      swap2\n      0x20\n      add\n      swap2\n      jump(tag_200)\n    tag_201:\n      dup3\n      add\n      swap2\n      swap1\n      0x00\n      mstore\n      keccak256(0x00, 0x20)\n      swap1\n    tag_202:\n      dup2\n      sload\n      dup2\n      mstore\n      swap1\n      0x01\n      add\n      swap1\n      0x20\n      add\n      dup1\n      dup4\n      gt\n      tag_202\n      jumpi\n      dup3\n      swap1\n      sub\n      0x1f\n      and\n      dup3\n      add\n      swap2\n    tag_200:\n      pop\n      pop\n      pop\n      pop\n      pop\n      dup2\n      jump\t// out\n        /* \"contracts/PenERC20V2.sol\":1540:2082  function getCheckinReward(uint256 oldCheckinStreak) public view returns (uint256) {... */\n    tag_74:\n        /* \"contracts/PenERC20V2.sol\":1613:1620  uint256 */\n      0x00\n        /* \"contracts/PenERC20V2.sol\":1633:1644  uint256 res */\n      dup1\n        /* \"contracts/PenERC20V2.sol\":1647:1648  1 */\n      0x01\n        /* \"contracts/PenERC20V2.sol\":1633:1648  uint256 res = 1 */\n      swap1\n      pop\n        /* \"contracts/PenERC20V2.sol\":1683:1684  0 */\n      0x00\n        /* \"contracts/PenERC20V2.sol\":1663:1679  oldCheckinStreak */\n      dup4\n        /* \"contracts/PenERC20V2.sol\":1663:1684  oldCheckinStreak == 0 */\n      sub\n        /* \"contracts/PenERC20V2.sol\":1659:1721  if (oldCheckinStreak == 0) {... */\n      tag_204\n      jumpi\n        /* \"contracts/PenERC20V2.sol\":1708:1709  9 */\n      0x09\n        /* \"contracts/PenERC20V2.sol\":1701:1709  res += 9 */\n      dup2\n      tag_205\n      swap2\n      swap1\n      tag_122\n      jump\t// in\n    tag_205:\n      swap1\n      pop\n        /* \"contracts/PenERC20V2.sol\":1659:1721  if (oldCheckinStreak == 0) {... */\n    tag_204:\n        /* \"contracts/PenERC20V2.sol\":1766:1767  0 */\n      0x00\n        /* \"contracts/PenERC20V2.sol\":1761:1762  5 */\n      0x05\n        /* \"contracts/PenERC20V2.sol\":1735:1748  checkinStreak */\n      0x07\n        /* \"contracts/PenERC20V2.sol\":1735:1760  checkinStreak[msg.sender] */\n      0x00\n        /* \"contracts/PenERC20V2.sol\":1749:1759  msg.sender */\n      caller\n        /* \"contracts/PenERC20V2.sol\":1735:1760  checkinStreak[msg.sender] */\n      0xffffffffffffffffffffffffffffffffffffffff\n      and\n      0xffffffffffffffffffffffffffffffffffffffff\n      and\n      dup2\n      mstore\n      0x20\n      add\n      swap1\n      dup2\n      mstore\n      0x20\n      add\n      0x00\n      keccak256\n      sload\n        /* \"contracts/PenERC20V2.sol\":1735:1762  checkinStreak[msg.sender]%5 */\n      tag_206\n      swap2\n      swap1\n      tag_174\n      jump\t// in\n    tag_206:\n        /* \"contracts/PenERC20V2.sol\":1735:1767  checkinStreak[msg.sender]%5 == 0 */\n      sub\n        /* \"contracts/PenERC20V2.sol\":1731:1804  if (checkinStreak[msg.sender]%5 == 0) {... */\n      tag_207\n      jumpi\n        /* \"contracts/PenERC20V2.sol\":1791:1792  1 */\n      0x01\n        /* \"contracts/PenERC20V2.sol\":1784:1792  res += 1 */\n      dup2\n      tag_208\n      swap2\n      swap1\n      tag_122\n      jump\t// in\n    tag_208:\n      swap1\n      pop\n        /* \"contracts/PenERC20V2.sol\":1731:1804  if (checkinStreak[msg.sender]%5 == 0) {... */\n    tag_207:\n        /* \"contracts/PenERC20V2.sol\":1814:1827  uint256 today */\n      0x00\n        /* \"contracts/PenERC20V2.sol\":1860:1866  1 days */\n      0x015180\n        /* \"contracts/PenERC20V2.sol\":1849:1856  8 hours */\n      0x7080\n        /* \"contracts/PenERC20V2.sol\":1831:1846  block.timestamp */\n      timestamp\n        /* \"contracts/PenERC20V2.sol\":1831:1856  block.timestamp + 8 hours */\n      tag_209\n      swap2\n      swap1\n      tag_122\n      jump\t// in\n    tag_209:\n        /* \"contracts/PenERC20V2.sol\":1830:1866  (block.timestamp + 8 hours) / 1 days */\n      tag_210\n      swap2\n      swap1\n      tag_134\n      jump\t// in\n    tag_210:\n        /* \"contracts/PenERC20V2.sol\":1814:1866  uint256 today = (block.timestamp + 8 hours) / 1 days */\n      swap1\n      pop\n        /* \"contracts/PenERC20V2.sol\":1877:1892  uint256 weekday */\n      0x00\n        /* \"contracts/PenERC20V2.sol\":1909:1910  7 */\n      0x07\n        /* \"contracts/PenERC20V2.sol\":1904:1905  4 */\n      0x04\n        /* \"contracts/PenERC20V2.sol\":1896:1901  today */\n      dup4\n        /* \"contracts/PenERC20V2.sol\":1896:1905  today + 4 */\n      tag_211\n      swap2\n      swap1\n      tag_122\n      jump\t// in\n    tag_211:\n        /* \"contracts/PenERC20V2.sol\":1895:1910  (today + 4) % 7 */\n      tag_212\n      swap2\n      swap1\n      tag_174\n      jump\t// in\n    tag_212:\n        /* \"contracts/PenERC20V2.sol\":1877:1910  uint256 weekday = (today + 4) % 7 */\n      swap1\n      pop\n        /* \"contracts/PenERC20V2.sol\":1936:1937  0 */\n      0x00\n        /* \"contracts/PenERC20V2.sol\":1925:1932  weekday */\n      dup2\n        /* \"contracts/PenERC20V2.sol\":1925:1937  weekday == 0 */\n      eq\n        /* \"contracts/PenERC20V2.sol\":1925:1962  weekday == 0 && oldCheckinStreak != 0 */\n      dup1\n      iszero\n      tag_213\n      jumpi\n      pop\n        /* \"contracts/PenERC20V2.sol\":1961:1962  0 */\n      0x00\n        /* \"contracts/PenERC20V2.sol\":1941:1957  oldCheckinStreak */\n      dup6\n        /* \"contracts/PenERC20V2.sol\":1941:1962  oldCheckinStreak != 0 */\n      eq\n      iszero\n        /* \"contracts/PenERC20V2.sol\":1925:1962  weekday == 0 && oldCheckinStreak != 0 */\n    tag_213:\n        /* \"contracts/PenERC20V2.sol\":1921:1999  if (weekday == 0 && oldCheckinStreak != 0) {... */\n      iszero\n      tag_214\n      jumpi\n        /* \"contracts/PenERC20V2.sol\":1986:1987  1 */\n      0x01\n        /* \"contracts/PenERC20V2.sol\":1979:1987  res += 1 */\n      dup4\n      tag_215\n      swap2\n      swap1\n      tag_122\n      jump\t// in\n    tag_215:\n      swap3\n      pop\n        /* \"contracts/PenERC20V2.sol\":1921:1999  if (weekday == 0 && oldCheckinStreak != 0) {... */\n    tag_214:\n        /* \"contracts/PenERC20V2.sol\":2044:2052  decimals */\n      0x05\n      0x00\n      swap1\n      sload\n      swap1\n      0x0100\n      exp\n      swap1\n      div\n      0xff\n      and\n        /* \"contracts/PenERC20V2.sol\":2036:2053  uint256(decimals) */\n      0xff\n      and\n        /* \"contracts/PenERC20V2.sol\":2030:2032  10 */\n      0x0a\n        /* \"contracts/PenERC20V2.sol\":2030:2053  10 ** uint256(decimals) */\n      tag_216\n      swap2\n      swap1\n      tag_141\n      jump\t// in\n    tag_216:\n        /* \"contracts/PenERC20V2.sol\":2016:2027  checkinBase */\n      sload(0x08)\n        /* \"contracts/PenERC20V2.sol\":2016:2053  checkinBase * 10 ** uint256(decimals) */\n      tag_217\n      swap2\n      swap1\n      tag_143\n      jump\t// in\n    tag_217:\n        /* \"contracts/PenERC20V2.sol\":2009:2053  res *= checkinBase * 10 ** uint256(decimals) */\n      dup4\n      tag_218\n      swap2\n      swap1\n      tag_143\n      jump\t// in\n    tag_218:\n      swap3\n      pop\n        /* \"contracts/PenERC20V2.sol\":2071:2074  res */\n      dup3\n        /* \"contracts/PenERC20V2.sol\":2064:2074  return res */\n      swap4\n      pop\n      pop\n      pop\n      pop\n        /* \"contracts/PenERC20V2.sol\":1540:2082  function getCheckinReward(uint256 oldCheckinStreak) public view returns (uint256) {... */\n      swap2\n      swap1\n      pop\n      jump\t// out\n        /* \"contracts/base/ERC20.sol\":699:1030  function transfer(address recipient, uint amount) public override returns (bool) {... */\n    tag_78:\n        /* \"contracts/base/ERC20.sol\":774:778  bool */\n      0x00\n        /* \"contracts/base/ERC20.sol\":824:830  amount */\n      dup2\n        /* \"contracts/base/ERC20.sol\":799:808  balanceOf */\n      0x00\n        /* \"contracts/base/ERC20.sol\":799:820  balanceOf[msg.sender] */\n      dup1\n        /* \"contracts/base/ERC20.sol\":809:819  msg.sender */\n      caller\n        /* \"contracts/base/ERC20.sol\":799:820  balanceOf[msg.sender] */\n      0xffffffffffffffffffffffffffffffffffffffff\n      and\n      0xffffffffffffffffffffffffffffffffffffffff\n      and\n      dup2\n      mstore\n      0x20\n      add\n      swap1\n      dup2\n      mstore\n      0x20\n      add\n      0x00\n      keccak256\n      sload\n        /* \"contracts/base/ERC20.sol\":799:830  balanceOf[msg.sender] >= amount */\n      lt\n      iszero\n        /* \"contracts/base/ERC20.sol\":791:862  require(balanceOf[msg.sender] >= amount, \"ERC20: insufficient balance\") */\n      tag_220\n      jumpi\n      mload(0x40)\n      0x08c379a000000000000000000000000000000000000000000000000000000000\n      dup2\n      mstore\n      0x04\n      add\n      tag_221\n      swap1\n      tag_114\n      jump\t// in\n    tag_221:\n      mload(0x40)\n      dup1\n      swap2\n      sub\n      swap1\n      revert\n    tag_220:\n        /* \"contracts/base/ERC20.sol\":898:904  amount */\n      dup2\n        /* \"contracts/base/ERC20.sol\":873:882  balanceOf */\n      0x00\n        /* \"contracts/base/ERC20.sol\":873:894  balanceOf[msg.sender] */\n      dup1\n        /* \"contracts/base/ERC20.sol\":883:893  msg.sender */\n      caller\n        /* \"contracts/base/ERC20.sol\":873:894  balanceOf[msg.sender] */\n      0xffffffffffffffffffffffffffffffffffffffff\n      and\n      0xffffffffffffffffffffffffffffffffffffffff\n      and\n      dup2\n      mstore\n      0x20\n      add\n      swap1\n      dup2\n      mstore\n      0x20\n      add\n      0x00\n      keccak256\n      0x00\n        /* \"contracts/base/ERC20.sol\":873:904  balanceOf[msg.sender] -= amount */\n      dup3\n      dup3\n      sload\n      tag_222\n      swap2\n      swap1\n      tag_119\n      jump\t// in\n    tag_222:\n      swap3\n      pop\n      pop\n      dup2\n      swap1\n      sstore\n      pop\n        /* \"contracts/base/ERC20.sol\":939:945  amount */\n      dup2\n        /* \"contracts/base/ERC20.sol\":915:924  balanceOf */\n      0x00\n        /* \"contracts/base/ERC20.sol\":915:935  balanceOf[recipient] */\n      dup1\n        /* \"contracts/base/ERC20.sol\":925:934  recipient */\n      dup6\n        /* \"contracts/base/ERC20.sol\":915:935  balanceOf[recipient] */\n      0xffffffffffffffffffffffffffffffffffffffff\n      and\n      0xffffffffffffffffffffffffffffffffffffffff\n      and\n      dup2\n      mstore\n      0x20\n      add\n      swap1\n      dup2\n      mstore\n      0x20\n      add\n      0x00\n      keccak256\n      0x00\n        /* \"contracts/base/ERC20.sol\":915:945  balanceOf[recipient] += amount */\n      dup3\n      dup3\n      sload\n      tag_223\n      swap2\n      swap1\n      tag_122\n      jump\t// in\n    tag_223:\n      swap3\n      pop\n      pop\n      dup2\n      swap1\n      sstore\n      pop\n        /* \"contracts/base/ERC20.sol\":982:991  recipient */\n      dup3\n        /* \"contracts/base/ERC20.sol\":961:1000  Transfer(msg.sender, recipient, amount) */\n      0xffffffffffffffffffffffffffffffffffffffff\n      and\n        /* \"contracts/base/ERC20.sol\":970:980  msg.sender */\n      caller\n        /* \"contracts/base/ERC20.sol\":961:1000  Transfer(msg.sender, recipient, amount) */\n      0xffffffffffffffffffffffffffffffffffffffff\n      and\n      0xddf252ad1be2c89b69c2b068fc378daa952ba7f163c4a11628f55a4df523b3ef\n        /* \"contracts/base/ERC20.sol\":993:999  amount */\n      dup5\n        /* \"contracts/base/ERC20.sol\":961:1000  Transfer(msg.sender, recipient, amount) */\n      mload(0x40)\n      tag_224\n      swap2\n      swap1\n      tag_38\n      jump\t// in\n    tag_224:\n      mload(0x40)\n      dup1\n      swap2\n      sub\n      swap1\n      log3\n        /* \"contracts/base/ERC20.sol\":1018:1022  true */\n      0x01\n        /* \"contracts/base/ERC20.sol\":1011:1022  return true */\n      swap1\n      pop\n        /* \"contracts/base/ERC20.sol\":699:1030  function transfer(address recipient, uint amount) public override returns (bool) {... */\n      swap3\n      swap2\n      pop\n      pop\n      jump\t// out\n        /* \"contracts/PenERC20V2.sol\":4556:4746  function random(uint seed) public view returns (uint) {... */\n    tag_82:\n        /* \"contracts/PenERC20V2.sol\":4604:4608  uint */\n      0x00\n        /* \"contracts/PenERC20V2.sol\":4674:4689  block.timestamp */\n      timestamp\n        /* \"contracts/PenERC20V2.sol\":4691:4707  block.difficulty */\n      prevrandao\n        /* \"contracts/PenERC20V2.sol\":4709:4719  msg.sender */\n      caller\n        /* \"contracts/PenERC20V2.sol\":4721:4725  seed */\n      dup5\n        /* \"contracts/PenERC20V2.sol\":4657:4726  abi.encodePacked(block.timestamp, block.difficulty, msg.sender, seed) */\n      add(0x20, mload(0x40))\n      tag_226\n      swap5\n      swap4\n      swap3\n      swap2\n      swap1\n      tag_227\n      jump\t// in\n    tag_226:\n      mload(0x40)\n      0x20\n      dup2\n      dup4\n      sub\n      sub\n      dup2\n      mstore\n      swap1\n      0x40\n      mstore\n        /* \"contracts/PenERC20V2.sol\":4633:4737  keccak256(... */\n      dup1\n      mload\n      swap1\n      0x20\n      add\n      keccak256\n        /* \"contracts/PenERC20V2.sol\":4628:4738  uint(keccak256(... */\n      0x00\n      shr\n        /* \"contracts/PenERC20V2.sol\":4621:4738  return uint(keccak256(... */\n      swap1\n      pop\n        /* \"contracts/PenERC20V2.sol\":4556:4746  function random(uint seed) public view returns (uint) {... */\n      swap2\n      swap1\n      pop\n      jump\t// out\n        /* \"contracts/PenERC20V2.sol\":692:1532  function checkin() external returns (uint256 reward) {... */\n    tag_85:\n        /* \"contracts/PenERC20V2.sol\":729:743  uint256 reward */\n      0x00\n        /* \"contracts/PenERC20V2.sol\":791:804  uint256 today */\n      dup1\n        /* \"contracts/PenERC20V2.sol\":837:843  1 days */\n      0x015180\n        /* \"contracts/PenERC20V2.sol\":826:833  8 hours */\n      0x7080\n        /* \"contracts/PenERC20V2.sol\":808:823  block.timestamp */\n      timestamp\n        /* \"contracts/PenERC20V2.sol\":808:833  block.timestamp + 8 hours */\n      tag_229\n      swap2\n      swap1\n      tag_122\n      jump\t// in\n    tag_229:\n        /* \"contracts/PenERC20V2.sol\":807:843  (block.timestamp + 8 hours) / 1 days */\n      tag_230\n      swap2\n      swap1\n      tag_134\n      jump\t// in\n    tag_230:\n        /* \"contracts/PenERC20V2.sol\":791:843  uint256 today = (block.timestamp + 8 hours) / 1 days */\n      swap1\n      pop\n        /* \"contracts/PenERC20V2.sol\":854:878  uint256 oldCheckinStreak */\n      0x00\n        /* \"contracts/PenERC20V2.sol\":881:894  checkinStreak */\n      0x07\n        /* \"contracts/PenERC20V2.sol\":881:906  checkinStreak[msg.sender] */\n      0x00\n        /* \"contracts/PenERC20V2.sol\":895:905  msg.sender */\n      caller\n        /* \"contracts/PenERC20V2.sol\":881:906  checkinStreak[msg.sender] */\n      0xffffffffffffffffffffffffffffffffffffffff\n      and\n      0xffffffffffffffffffffffffffffffffffffffff\n      and\n      dup2\n      mstore\n      0x20\n      add\n      swap1\n      dup2\n      mstore\n      0x20\n      add\n      0x00\n      keccak256\n      sload\n        /* \"contracts/PenERC20V2.sol\":854:906  uint256 oldCheckinStreak = checkinStreak[msg.sender] */\n      swap1\n      pop\n        /* \"contracts/PenERC20V2.sol\":953:958  today */\n      dup2\n        /* \"contracts/PenERC20V2.sol\":927:938  checkinDate */\n      0x06\n        /* \"contracts/PenERC20V2.sol\":927:950  checkinDate[msg.sender] */\n      0x00\n        /* \"contracts/PenERC20V2.sol\":939:949  msg.sender */\n      caller\n        /* \"contracts/PenERC20V2.sol\":927:950  checkinDate[msg.sender] */\n      0xffffffffffffffffffffffffffffffffffffffff\n      and\n      0xffffffffffffffffffffffffffffffffffffffff\n      and\n      dup2\n      mstore\n      0x20\n      add\n      swap1\n      dup2\n      mstore\n      0x20\n      add\n      0x00\n      keccak256\n      sload\n        /* \"contracts/PenERC20V2.sol\":927:958  checkinDate[msg.sender] < today */\n      lt\n        /* \"contracts/PenERC20V2.sol\":919:987  require(checkinDate[msg.sender] < today, \"Already checked in today\") */\n      tag_231\n      jumpi\n      mload(0x40)\n      0x08c379a000000000000000000000000000000000000000000000000000000000\n      dup2\n      mstore\n      0x04\n      add\n      tag_232\n      swap1\n      tag_233\n      jump\t// in\n    tag_232:\n      mload(0x40)\n      dup1\n      swap2\n      sub\n      swap1\n      revert\n    tag_231:\n        /* \"contracts/PenERC20V2.sol\":1039:1040  1 */\n      0x01\n        /* \"contracts/PenERC20V2.sol\":1031:1036  today */\n      dup3\n        /* \"contracts/PenERC20V2.sol\":1031:1040  today - 1 */\n      tag_234\n      swap2\n      swap1\n      tag_119\n      jump\t// in\n    tag_234:\n        /* \"contracts/PenERC20V2.sol\":1004:1015  checkinDate */\n      0x06\n        /* \"contracts/PenERC20V2.sol\":1004:1027  checkinDate[msg.sender] */\n      0x00\n        /* \"contracts/PenERC20V2.sol\":1016:1026  msg.sender */\n      caller\n        /* \"contracts/PenERC20V2.sol\":1004:1027  checkinDate[msg.sender] */\n      0xffffffffffffffffffffffffffffffffffffffff\n      and\n      0xffffffffffffffffffffffffffffffffffffffff\n      and\n      dup2\n      mstore\n      0x20\n      add\n      swap1\n      dup2\n      mstore\n      0x20\n      add\n      0x00\n      keccak256\n      sload\n        /* \"contracts/PenERC20V2.sol\":1004:1040  checkinDate[msg.sender] == today - 1 */\n      sub\n        /* \"contracts/PenERC20V2.sol\":1000:1226  if (checkinDate[msg.sender] == today - 1) {... */\n      tag_235\n      jumpi\n        /* \"contracts/PenERC20V2.sol\":1115:1116  1 */\n      0x01\n        /* \"contracts/PenERC20V2.sol\":1086:1099  checkinStreak */\n      0x07\n        /* \"contracts/PenERC20V2.sol\":1086:1111  checkinStreak[msg.sender] */\n      0x00\n        /* \"contracts/PenERC20V2.sol\":1100:1110  msg.sender */\n      caller\n        /* \"contracts/PenERC20V2.sol\":1086:1111  checkinStreak[msg.sender] */\n      0xffffffffffffffffffffffffffffffffffffffff\n      and\n      0xffffffffffffffffffffffffffffffffffffffff\n      and\n      dup2\n      mstore\n      0x20\n      add\n      swap1\n      dup2\n      mstore\n      0x20\n      add\n      0x00\n      keccak256\n      0x00\n        /* \"contracts/PenERC20V2.sol\":1086:1116  checkinStreak[msg.sender] += 1 */\n      dup3\n      dup3\n      sload\n      tag_236\n      swap2\n      swap1\n      tag_122\n      jump\t// in\n    tag_236:\n      swap3\n      pop\n      pop\n      dup2\n      swap1\n      sstore\n      pop\n        /* \"contracts/PenERC20V2.sol\":1000:1226  if (checkinDate[msg.sender] == today - 1) {... */\n      jump(tag_237)\n    tag_235:\n        /* \"contracts/PenERC20V2.sol\":1213:1214  1 */\n      0x01\n        /* \"contracts/PenERC20V2.sol\":1185:1198  checkinStreak */\n      0x07\n        /* \"contracts/PenERC20V2.sol\":1185:1210  checkinStreak[msg.sender] */\n      0x00\n        /* \"contracts/PenERC20V2.sol\":1199:1209  msg.sender */\n      caller\n        /* \"contracts/PenERC20V2.sol\":1185:1210  checkinStreak[msg.sender] */\n      0xffffffffffffffffffffffffffffffffffffffff\n      and\n      0xffffffffffffffffffffffffffffffffffffffff\n      and\n      dup2\n      mstore\n      0x20\n      add\n      swap1\n      dup2\n      mstore\n      0x20\n      add\n      0x00\n      keccak256\n        /* \"contracts/PenERC20V2.sol\":1185:1214  checkinStreak[msg.sender] = 1 */\n      dup2\n      swap1\n      sstore\n      pop\n        /* \"contracts/PenERC20V2.sol\":1000:1226  if (checkinDate[msg.sender] == today - 1) {... */\n    tag_237:\n        /* \"contracts/PenERC20V2.sol\":1301:1306  today */\n      dup2\n        /* \"contracts/PenERC20V2.sol\":1275:1286  checkinDate */\n      0x06\n        /* \"contracts/PenERC20V2.sol\":1275:1298  checkinDate[msg.sender] */\n      0x00\n        /* \"contracts/PenERC20V2.sol\":1287:1297  msg.sender */\n      caller\n        /* \"contracts/PenERC20V2.sol\":1275:1298  checkinDate[msg.sender] */\n      0xffffffffffffffffffffffffffffffffffffffff\n      and\n      0xffffffffffffffffffffffffffffffffffffffff\n      and\n      dup2\n      mstore\n      0x20\n      add\n      swap1\n      dup2\n      mstore\n      0x20\n      add\n      0x00\n      keccak256\n        /* \"contracts/PenERC20V2.sol\":1275:1306  checkinDate[msg.sender] = today */\n      dup2\n      swap1\n      sstore\n      pop\n        /* \"contracts/PenERC20V2.sol\":1383:1417  getCheckinReward(oldCheckinStreak) */\n      tag_238\n        /* \"contracts/PenERC20V2.sol\":1400:1416  oldCheckinStreak */\n      dup2\n        /* \"contracts/PenERC20V2.sol\":1383:1399  getCheckinReward */\n      tag_74\n        /* \"contracts/PenERC20V2.sol\":1383:1417  getCheckinReward(oldCheckinStreak) */\n      jump\t// in\n    tag_238:\n        /* \"contracts/PenERC20V2.sol\":1374:1417  reward = getCheckinReward(oldCheckinStreak) */\n      swap3\n      pop\n        /* \"contracts/PenERC20V2.sol\":1428:1452  mint(msg.sender, reward) */\n      tag_239\n        /* \"contracts/PenERC20V2.sol\":1433:1443  msg.sender */\n      caller\n        /* \"contracts/PenERC20V2.sol\":1445:1451  reward */\n      dup5\n        /* \"contracts/PenERC20V2.sol\":1428:1432  mint */\n      tag_184\n        /* \"contracts/PenERC20V2.sol\":1428:1452  mint(msg.sender, reward) */\n      jump\t// in\n    tag_239:\n        /* \"contracts/PenERC20V2.sol\":1478:1488  msg.sender */\n      caller\n        /* \"contracts/PenERC20V2.sol\":1470:1524  Checkin(msg.sender, reward, checkinStreak[msg.sender]) */\n      0xffffffffffffffffffffffffffffffffffffffff\n      and\n      0xb1ea073ac09a6b73cc1842f3dbda1736e0c0d94b33aac1983f2612a5d115b4c7\n        /* \"contracts/PenERC20V2.sol\":1490:1496  reward */\n      dup5\n        /* \"contracts/PenERC20V2.sol\":1498:1511  checkinStreak */\n      0x07\n        /* \"contracts/PenERC20V2.sol\":1498:1523  checkinStreak[msg.sender] */\n      0x00\n        /* \"contracts/PenERC20V2.sol\":1512:1522  msg.sender */\n      caller\n        /* \"contracts/PenERC20V2.sol\":1498:1523  checkinStreak[msg.sender] */\n      0xffffffffffffffffffffffffffffffffffffffff\n      and\n      0xffffffffffffffffffffffffffffffffffffffff\n      and\n      dup2\n      mstore\n      0x20\n      add\n      swap1\n      dup2\n      mstore\n      0x20\n      add\n      0x00\n      keccak256\n      sload\n        /* \"contracts/PenERC20V2.sol\":1470:1524  Checkin(msg.sender, reward, checkinStreak[msg.sender]) */\n      mload(0x40)\n      tag_240\n      swap3\n      swap2\n      swap1\n      tag_241\n      jump\t// in\n    tag_240:\n      mload(0x40)\n      dup1\n      swap2\n      sub\n      swap1\n      log2\n        /* \"contracts/PenERC20V2.sol\":745:1532  {... */\n      pop\n      pop\n        /* \"contracts/PenERC20V2.sol\":692:1532  function checkin() external returns (uint256 reward) {... */\n      swap1\n      jump\t// out\n        /* \"contracts/PenERC20V2.sol\":395:427  uint256 public checkinBase = 100 */\n    tag_88:\n      sload(0x08)\n      dup2\n      jump\t// out\n        /* \"contracts/PenERC20V2.sol\":2192:2240  mapping(address => uint256) public luckyDrawDate */\n    tag_92:\n      mstore(0x20, 0x09)\n      dup1\n      0x00\n      mstore\n      keccak256(0x00, 0x40)\n      0x00\n      swap2\n      pop\n      swap1\n      pop\n      sload\n      dup2\n      jump\t// out\n        /* \"contracts/base/ERC20.sol\":191:264  mapping(address => mapping(address => uint256)) public override allowance */\n    tag_97:\n      mstore(0x20, 0x01)\n      dup2\n      0x00\n      mstore\n      mstore(0x20, keccak256(0x00, 0x40))\n      dup1\n      0x00\n      mstore\n      keccak256(0x00, 0x40)\n      0x00\n      swap2\n      pop\n      swap2\n      pop\n      pop\n      sload\n      dup2\n      jump\t// out\n        /* \"contracts/PenERC20V2.sol\":227:273  mapping(address => uint256) public checkinDate */\n    tag_101:\n      mstore(0x20, 0x06)\n      dup1\n      0x00\n      mstore\n      keccak256(0x00, 0x40)\n      0x00\n      swap2\n      pop\n      swap1\n      pop\n      sload\n      dup2\n      jump\t// out\n        /* \"contracts/base/ERC20.sol\":1775:1969  function mint(address recipient, uint256 amount) internal {... */\n    tag_184:\n        /* \"contracts/base/ERC20.sol\":1868:1874  amount */\n      dup1\n        /* \"contracts/base/ERC20.sol\":1844:1853  balanceOf */\n      0x00\n        /* \"contracts/base/ERC20.sol\":1844:1864  balanceOf[recipient] */\n      dup1\n        /* \"contracts/base/ERC20.sol\":1854:1863  recipient */\n      dup5\n        /* \"contracts/base/ERC20.sol\":1844:1864  balanceOf[recipient] */\n      0xffffffffffffffffffffffffffffffffffffffff\n      and\n      0xffffffffffffffffffffffffffffffffffffffff\n      and\n      dup2\n      mstore\n      0x20\n      add\n      swap1\n      dup2\n      mstore\n      0x20\n      add\n      0x00\n      keccak256\n      0x00\n        /* \"contracts/base/ERC20.sol\":1844:1874  balanceOf[recipient] += amount */\n      dup3\n      dup3\n      sload\n      tag_243\n      swap2\n      swap1\n      tag_122\n      jump\t// in\n    tag_243:\n      swap3\n      pop\n      pop\n      dup2\n      swap1\n      sstore\n      pop\n        /* \"contracts/base/ERC20.sol\":1900:1906  amount */\n      dup1\n        /* \"contracts/base/ERC20.sol\":1885:1896  totalSupply */\n      0x02\n      0x00\n        /* \"contracts/base/ERC20.sol\":1885:1906  totalSupply += amount */\n      dup3\n      dup3\n      sload\n      tag_244\n      swap2\n      swap1\n      tag_122\n      jump\t// in\n    tag_244:\n      swap3\n      pop\n      pop\n      dup2\n      swap1\n      sstore\n      pop\n        /* \"contracts/base/ERC20.sol\":1943:1952  recipient */\n      dup2\n        /* \"contracts/base/ERC20.sol\":1922:1961  Transfer(address(0), recipient, amount) */\n      0xffffffffffffffffffffffffffffffffffffffff\n      and\n        /* \"contracts/base/ERC20.sol\":1939:1940  0 */\n      0x00\n        /* \"contracts/base/ERC20.sol\":1922:1961  Transfer(address(0), recipient, amount) */\n      0xffffffffffffffffffffffffffffffffffffffff\n      and\n      0xddf252ad1be2c89b69c2b068fc378daa952ba7f163c4a11628f55a4df523b3ef\n        /* \"contracts/base/ERC20.sol\":1954:1960  amount */\n      dup4\n        /* \"contracts/base/ERC20.sol\":1922:1961  Transfer(address(0), recipient, amount) */\n      mload(0x40)\n      tag_245\n      swap2\n      swap1\n      tag_38\n      jump\t// in\n    tag_245:\n      mload(0x40)\n      dup1\n      swap2\n      sub\n      swap1\n      log3\n        /* \"contracts/base/ERC20.sol\":1775:1969  function mint(address recipient, uint256 amount) internal {... */\n      pop\n      pop\n      jump\t// out\n        /* \"#utility.yul\":7:106   */\n    tag_246:\n        /* \"#utility.yul\":59:65   */\n      0x00\n        /* \"#utility.yul\":93:98   */\n      dup2\n        /* \"#utility.yul\":87:99   */\n      mload\n        /* \"#utility.yul\":77:99   */\n      swap1\n      pop\n        /* \"#utility.yul\":7:106   */\n      swap2\n      swap1\n      pop\n      jump\t// out\n        /* \"#utility.yul\":112:281   */\n    tag_247:\n        /* \"#utility.yul\":196:207   */\n      0x00\n        /* \"#utility.yul\":230:236   */\n      dup3\n        /* \"#utility.yul\":225:228   */\n      dup3\n        /* \"#utility.yul\":218:237   */\n      mstore\n        /* \"#utility.yul\":270:274   */\n      0x20\n        /* \"#utility.yul\":265:268   */\n      dup3\n        /* \"#utility.yul\":261:275   */\n      add\n        /* \"#utility.yul\":246:275   */\n      swap1\n      pop\n        /* \"#utility.yul\":112:281   */\n      swap3\n      swap2\n      pop\n      pop\n      jump\t// out\n        /* \"#utility.yul\":287:533   */\n    tag_248:\n        /* \"#utility.yul\":368:369   */\n      0x00\n        /* \"#utility.yul\":378:491   */\n    tag_294:\n        /* \"#utility.yul\":392:398   */\n      dup4\n        /* \"#utility.yul\":389:390   */\n      dup2\n        /* \"#utility.yul\":386:399   */\n      lt\n        /* \"#utility.yul\":378:491   */\n      iszero\n      tag_296\n      jumpi\n        /* \"#utility.yul\":477:478   */\n      dup1\n        /* \"#utility.yul\":472:475   */\n      dup3\n        /* \"#utility.yul\":468:479   */\n      add\n        /* \"#utility.yul\":462:480   */\n      mload\n        /* \"#utility.yul\":458:459   */\n      dup2\n        /* \"#utility.yul\":453:456   */\n      dup5\n        /* \"#utility.yul\":449:460   */\n      add\n        /* \"#utility.yul\":442:481   */\n      mstore\n        /* \"#utility.yul\":414:416   */\n      0x20\n        /* \"#utility.yul\":411:412   */\n      dup2\n        /* \"#utility.yul\":407:417   */\n      add\n        /* \"#utility.yul\":402:417   */\n      swap1\n      pop\n        /* \"#utility.yul\":378:491   */\n      jump(tag_294)\n    tag_296:\n        /* \"#utility.yul\":525:526   */\n      0x00\n        /* \"#utility.yul\":516:522   */\n      dup5\n        /* \"#utility.yul\":511:514   */\n      dup5\n        /* \"#utility.yul\":507:523   */\n      add\n        /* \"#utility.yul\":500:527   */\n      mstore\n        /* \"#utility.yul\":349:533   */\n      pop\n        /* \"#utility.yul\":287:533   */\n      pop\n      pop\n      pop\n      jump\t// out\n        /* \"#utility.yul\":539:641   */\n    tag_249:\n        /* \"#utility.yul\":580:586   */\n      0x00\n        /* \"#utility.yul\":631:633   */\n      0x1f\n        /* \"#utility.yul\":627:634   */\n      not\n        /* \"#utility.yul\":622:624   */\n      0x1f\n        /* \"#utility.yul\":615:620   */\n      dup4\n        /* \"#utility.yul\":611:625   */\n      add\n        /* \"#utility.yul\":607:635   */\n      and\n        /* \"#utility.yul\":597:635   */\n      swap1\n      pop\n        /* \"#utility.yul\":539:641   */\n      swap2\n      swap1\n      pop\n      jump\t// out\n        /* \"#utility.yul\":647:1024   */\n    tag_250:\n        /* \"#utility.yul\":735:738   */\n      0x00\n        /* \"#utility.yul\":763:802   */\n      tag_299\n        /* \"#utility.yul\":796:801   */\n      dup3\n        /* \"#utility.yul\":763:802   */\n      tag_246\n      jump\t// in\n    tag_299:\n        /* \"#utility.yul\":818:889   */\n      tag_300\n        /* \"#utility.yul\":882:888   */\n      dup2\n        /* \"#utility.yul\":877:880   */\n      dup6\n        /* \"#utility.yul\":818:889   */\n      tag_247\n      jump\t// in\n    tag_300:\n        /* \"#utility.yul\":811:889   */\n      swap4\n      pop\n        /* \"#utility.yul\":898:963   */\n      tag_301\n        /* \"#utility.yul\":956:962   */\n      dup2\n        /* \"#utility.yul\":951:954   */\n      dup6\n        /* \"#utility.yul\":944:948   */\n      0x20\n        /* \"#utility.yul\":937:942   */\n      dup7\n        /* \"#utility.yul\":933:949   */\n      add\n        /* \"#utility.yul\":898:963   */\n      tag_248\n      jump\t// in\n    tag_301:\n        /* \"#utility.yul\":988:1017   */\n      tag_302\n        /* \"#utility.yul\":1010:1016   */\n      dup2\n        /* \"#utility.yul\":988:1017   */\n      tag_249\n      jump\t// in\n    tag_302:\n        /* \"#utility.yul\":983:986   */\n      dup5\n        /* \"#utility.yul\":979:1018   */\n      add\n        /* \"#utility.yul\":972:1018   */\n      swap2\n      pop\n        /* \"#utility.yul\":739:1024   */\n      pop\n        /* \"#utility.yul\":647:1024   */\n      swap3\n      swap2\n      pop\n      pop\n      jump\t// out\n        /* \"#utility.yul\":1030:1343   */\n    tag_28:\n        /* \"#utility.yul\":1143:1147   */\n      0x00\n        /* \"#utility.yul\":1181:1183   */\n      0x20\n        /* \"#utility.yul\":1170:1179   */\n      dup3\n        /* \"#utility.yul\":1166:1184   */\n      add\n        /* \"#utility.yul\":1158:1184   */\n      swap1\n      pop\n        /* \"#utility.yul\":1230:1239   */\n      dup2\n        /* \"#utility.yul\":1224:1228   */\n      dup2\n        /* \"#utility.yul\":1220:1240   */\n      sub\n        /* \"#utility.yul\":1216:1217   */\n      0x00\n        /* \"#utility.yul\":1205:1214   */\n      dup4\n        /* \"#utility.yul\":1201:1218   */\n      add\n        /* \"#utility.yul\":1194:1241   */\n      mstore\n        /* \"#utility.yul\":1258:1336   */\n      tag_304\n        /* \"#utility.yul\":1331:1335   */\n      dup2\n        /* \"#utility.yul\":1322:1328   */\n      dup5\n        /* \"#utility.yul\":1258:1336   */\n      tag_250\n      jump\t// in\n    tag_304:\n        /* \"#utility.yul\":1250:1336   */\n      swap1\n      pop\n        /* \"#utility.yul\":1030:1343   */\n      swap3\n      swap2\n      pop\n      pop\n      jump\t// out\n        /* \"#utility.yul\":1430:1547   */\n    tag_252:\n        /* \"#utility.yul\":1539:1540   */\n      0x00\n        /* \"#utility.yul\":1536:1537   */\n      dup1\n        /* \"#utility.yul\":1529:1541   */\n      revert\n        /* \"#utility.yul\":1676:1802   */\n    tag_254:\n        /* \"#utility.yul\":1713:1720   */\n      0x00\n        /* \"#utility.yul\":1753:1795   */\n      0xffffffffffffffffffffffffffffffffffffffff\n        /* \"#utility.yul\":1746:1751   */\n      dup3\n        /* \"#utility.yul\":1742:1796   */\n      and\n        /* \"#utility.yul\":1731:1796   */\n      swap1\n      pop\n        /* \"#utility.yul\":1676:1802   */\n      swap2\n      swap1\n      pop\n      jump\t// out\n        /* \"#utility.yul\":1808:1904   */\n    tag_255:\n        /* \"#utility.yul\":1845:1852   */\n      0x00\n        /* \"#utility.yul\":1874:1898   */\n      tag_310\n        /* \"#utility.yul\":1892:1897   */\n      dup3\n        /* \"#utility.yul\":1874:1898   */\n      tag_254\n      jump\t// in\n    tag_310:\n        /* \"#utility.yul\":1863:1898   */\n      swap1\n      pop\n        /* \"#utility.yul\":1808:1904   */\n      swap2\n      swap1\n      pop\n      jump\t// out\n        /* \"#utility.yul\":1910:2032   */\n    tag_256:\n        /* \"#utility.yul\":1983:2007   */\n      tag_312\n        /* \"#utility.yul\":2001:2006   */\n      dup2\n        /* \"#utility.yul\":1983:2007   */\n      tag_255\n      jump\t// in\n    tag_312:\n        /* \"#utility.yul\":1976:1981   */\n      dup2\n        /* \"#utility.yul\":1973:2008   */\n      eq\n        /* \"#utility.yul\":1963:2026   */\n      tag_313\n      jumpi\n        /* \"#utility.yul\":2022:2023   */\n      0x00\n        /* \"#utility.yul\":2019:2020   */\n      dup1\n        /* \"#utility.yul\":2012:2024   */\n      revert\n        /* \"#utility.yul\":1963:2026   */\n    tag_313:\n        /* \"#utility.yul\":1910:2032   */\n      pop\n      jump\t// out\n        /* \"#utility.yul\":2038:2177   */\n    tag_257:\n        /* \"#utility.yul\":2084:2089   */\n      0x00\n        /* \"#utility.yul\":2122:2128   */\n      dup2\n        /* \"#utility.yul\":2109:2129   */\n      calldataload\n        /* \"#utility.yul\":2100:2129   */\n      swap1\n      pop\n        /* \"#utility.yul\":2138:2171   */\n      tag_315\n        /* \"#utility.yul\":2165:2170   */\n      dup2\n        /* \"#utility.yul\":2138:2171   */\n      tag_256\n      jump\t// in\n    tag_315:\n        /* \"#utility.yul\":2038:2177   */\n      swap3\n      swap2\n      pop\n      pop\n      jump\t// out\n        /* \"#utility.yul\":2183:2260   */\n    tag_258:\n        /* \"#utility.yul\":2220:2227   */\n      0x00\n        /* \"#utility.yul\":2249:2254   */\n      dup2\n        /* \"#utility.yul\":2238:2254   */\n      swap1\n      pop\n        /* \"#utility.yul\":2183:2260   */\n      swap2\n      swap1\n      pop\n      jump\t// out\n        /* \"#utility.yul\":2266:2388   */\n    tag_259:\n        /* \"#utility.yul\":2339:2363   */\n      tag_318\n        /* \"#utility.yul\":2357:2362   */\n      dup2\n        /* \"#utility.yul\":2339:2363   */\n      tag_258\n      jump\t// in\n    tag_318:\n        /* \"#utility.yul\":2332:2337   */\n      dup2\n        /* \"#utility.yul\":2329:2364   */\n      eq\n        /* \"#utility.yul\":2319:2382   */\n      tag_319\n      jumpi\n        /* \"#utility.yul\":2378:2379   */\n      0x00\n        /* \"#utility.yul\":2375:2376   */\n      dup1\n        /* \"#utility.yul\":2368:2380   */\n      revert\n        /* \"#utility.yul\":2319:2382   */\n    tag_319:\n        /* \"#utility.yul\":2266:2388   */\n      pop\n      jump\t// out\n        /* \"#utility.yul\":2394:2533   */\n    tag_260:\n        /* \"#utility.yul\":2440:2445   */\n      0x00\n        /* \"#utility.yul\":2478:2484   */\n      dup2\n        /* \"#utility.yul\":2465:2485   */\n      calldataload\n        /* \"#utility.yul\":2456:2485   */\n      swap1\n      pop\n        /* \"#utility.yul\":2494:2527   */\n      tag_321\n        /* \"#utility.yul\":2521:2526   */\n      dup2\n        /* \"#utility.yul\":2494:2527   */\n      tag_259\n      jump\t// in\n    tag_321:\n        /* \"#utility.yul\":2394:2533   */\n      swap3\n      swap2\n      pop\n      pop\n      jump\t// out\n        /* \"#utility.yul\":2539:3013   */\n    tag_31:\n        /* \"#utility.yul\":2607:2613   */\n      0x00\n        /* \"#utility.yul\":2615:2621   */\n      dup1\n        /* \"#utility.yul\":2664:2666   */\n      0x40\n        /* \"#utility.yul\":2652:2661   */\n      dup4\n        /* \"#utility.yul\":2643:2650   */\n      dup6\n        /* \"#utility.yul\":2639:2662   */\n      sub\n        /* \"#utility.yul\":2635:2667   */\n      slt\n        /* \"#utility.yul\":2632:2751   */\n      iszero\n      tag_323\n      jumpi\n        /* \"#utility.yul\":2670:2749   */\n      tag_324\n      tag_252\n      jump\t// in\n    tag_324:\n        /* \"#utility.yul\":2632:2751   */\n    tag_323:\n        /* \"#utility.yul\":2790:2791   */\n      0x00\n        /* \"#utility.yul\":2815:2868   */\n      tag_325\n        /* \"#utility.yul\":2860:2867   */\n      dup6\n        /* \"#utility.yul\":2851:2857   */\n      dup3\n        /* \"#utility.yul\":2840:2849   */\n      dup7\n        /* \"#utility.yul\":2836:2858   */\n      add\n        /* \"#utility.yul\":2815:2868   */\n      tag_257\n      jump\t// in\n    tag_325:\n        /* \"#utility.yul\":2805:2868   */\n      swap3\n      pop\n        /* \"#utility.yul\":2761:2878   */\n      pop\n        /* \"#utility.yul\":2917:2919   */\n      0x20\n        /* \"#utility.yul\":2943:2996   */\n      tag_326\n        /* \"#utility.yul\":2988:2995   */\n      dup6\n        /* \"#utility.yul\":2979:2985   */\n      dup3\n        /* \"#utility.yul\":2968:2977   */\n      dup7\n        /* \"#utility.yul\":2964:2986   */\n      add\n        /* \"#utility.yul\":2943:2996   */\n      tag_260\n      jump\t// in\n    tag_326:\n        /* \"#utility.yul\":2933:2996   */\n      swap2\n      pop\n        /* \"#utility.yul\":2888:3006   */\n      pop\n        /* \"#utility.yul\":2539:3013   */\n      swap3\n      pop\n      swap3\n      swap1\n      pop\n      jump\t// out\n        /* \"#utility.yul\":3019:3109   */\n    tag_261:\n        /* \"#utility.yul\":3053:3060   */\n      0x00\n        /* \"#utility.yul\":3096:3101   */\n      dup2\n        /* \"#utility.yul\":3089:3102   */\n      iszero\n        /* \"#utility.yul\":3082:3103   */\n      iszero\n        /* \"#utility.yul\":3071:3103   */\n      swap1\n      pop\n        /* \"#utility.yul\":3019:3109   */\n      swap2\n      swap1\n      pop\n      jump\t// out\n        /* \"#utility.yul\":3115:3224   */\n    tag_262:\n        /* \"#utility.yul\":3196:3217   */\n      tag_329\n        /* \"#utility.yul\":3211:3216   */\n      dup2\n        /* \"#utility.yul\":3196:3217   */\n      tag_261\n      jump\t// in\n    tag_329:\n        /* \"#utility.yul\":3191:3194   */\n      dup3\n        /* \"#utility.yul\":3184:3218   */\n      mstore\n        /* \"#utility.yul\":3115:3224   */\n      pop\n      pop\n      jump\t// out\n        /* \"#utility.yul\":3230:3440   */\n    tag_34:\n        /* \"#utility.yul\":3317:3321   */\n      0x00\n        /* \"#utility.yul\":3355:3357   */\n      0x20\n        /* \"#utility.yul\":3344:3353   */\n      dup3\n        /* \"#utility.yul\":3340:3358   */\n      add\n        /* \"#utility.yul\":3332:3358   */\n      swap1\n      pop\n        /* \"#utility.yul\":3368:3433   */\n      tag_331\n        /* \"#utility.yul\":3430:3431   */\n      0x00\n        /* \"#utility.yul\":3419:3428   */\n      dup4\n        /* \"#utility.yul\":3415:3432   */\n      add\n        /* \"#utility.yul\":3406:3412   */\n      dup5\n        /* \"#utility.yul\":3368:3433   */\n      tag_262\n      jump\t// in\n    tag_331:\n        /* \"#utility.yul\":3230:3440   */\n      swap3\n      swap2\n      pop\n      pop\n      jump\t// out\n        /* \"#utility.yul\":3446:3564   */\n    tag_263:\n        /* \"#utility.yul\":3533:3557   */\n      tag_333\n        /* \"#utility.yul\":3551:3556   */\n      dup2\n        /* \"#utility.yul\":3533:3557   */\n      tag_258\n      jump\t// in\n    tag_333:\n        /* \"#utility.yul\":3528:3531   */\n      dup3\n        /* \"#utility.yul\":3521:3558   */\n      mstore\n        /* \"#utility.yul\":3446:3564   */\n      pop\n      pop\n      jump\t// out\n        /* \"#utility.yul\":3570:3792   */\n    tag_38:\n        /* \"#utility.yul\":3663:3667   */\n      0x00\n        /* \"#utility.yul\":3701:3703   */\n      0x20\n        /* \"#utility.yul\":3690:3699   */\n      dup3\n        /* \"#utility.yul\":3686:3704   */\n      add\n        /* \"#utility.yul\":3678:3704   */\n      swap1\n      pop\n        /* \"#utility.yul\":3714:3785   */\n      tag_335\n        /* \"#utility.yul\":3782:3783   */\n      0x00\n        /* \"#utility.yul\":3771:3780   */\n      dup4\n        /* \"#utility.yul\":3767:3784   */\n      add\n        /* \"#utility.yul\":3758:3764   */\n      dup5\n        /* \"#utility.yul\":3714:3785   */\n      tag_263\n      jump\t// in\n    tag_335:\n        /* \"#utility.yul\":3570:3792   */\n      swap3\n      swap2\n      pop\n      pop\n      jump\t// out\n        /* \"#utility.yul\":3798:4417   */\n    tag_41:\n        /* \"#utility.yul\":3875:3881   */\n      0x00\n        /* \"#utility.yul\":3883:3889   */\n      dup1\n        /* \"#utility.yul\":3891:3897   */\n      0x00\n        /* \"#utility.yul\":3940:3942   */\n      0x60\n        /* \"#utility.yul\":3928:3937   */\n      dup5\n        /* \"#utility.yul\":3919:3926   */\n      dup7\n        /* \"#utility.yul\":3915:3938   */\n      sub\n        /* \"#utility.yul\":3911:3943   */\n      slt\n        /* \"#utility.yul\":3908:4027   */\n      iszero\n      tag_337\n      jumpi\n        /* \"#utility.yul\":3946:4025   */\n      tag_338\n      tag_252\n      jump\t// in\n    tag_338:\n        /* \"#utility.yul\":3908:4027   */\n    tag_337:\n        /* \"#utility.yul\":4066:4067   */\n      0x00\n        /* \"#utility.yul\":4091:4144   */\n      tag_339\n        /* \"#utility.yul\":4136:4143   */\n      dup7\n        /* \"#utility.yul\":4127:4133   */\n      dup3\n        /* \"#utility.yul\":4116:4125   */\n      dup8\n        /* \"#utility.yul\":4112:4134   */\n      add\n        /* \"#utility.yul\":4091:4144   */\n      tag_257\n      jump\t// in\n    tag_339:\n        /* \"#utility.yul\":4081:4144   */\n      swap4\n      pop\n        /* \"#utility.yul\":4037:4154   */\n      pop\n        /* \"#utility.yul\":4193:4195   */\n      0x20\n        /* \"#utility.yul\":4219:4272   */\n      tag_340\n        /* \"#utility.yul\":4264:4271   */\n      dup7\n        /* \"#utility.yul\":4255:4261   */\n      dup3\n        /* \"#utility.yul\":4244:4253   */\n      dup8\n        /* \"#utility.yul\":4240:4262   */\n      add\n        /* \"#utility.yul\":4219:4272   */\n      tag_257\n      jump\t// in\n    tag_340:\n        /* \"#utility.yul\":4209:4272   */\n      swap3\n      pop\n        /* \"#utility.yul\":4164:4282   */\n      pop\n        /* \"#utility.yul\":4321:4323   */\n      0x40\n        /* \"#utility.yul\":4347:4400   */\n      tag_341\n        /* \"#utility.yul\":4392:4399   */\n      dup7\n        /* \"#utility.yul\":4383:4389   */\n      dup3\n        /* \"#utility.yul\":4372:4381   */\n      dup8\n        /* \"#utility.yul\":4368:4390   */\n      add\n        /* \"#utility.yul\":4347:4400   */\n      tag_260\n      jump\t// in\n    tag_341:\n        /* \"#utility.yul\":4337:4400   */\n      swap2\n      pop\n        /* \"#utility.yul\":4292:4410   */\n      pop\n        /* \"#utility.yul\":3798:4417   */\n      swap3\n      pop\n      swap3\n      pop\n      swap3\n      jump\t// out\n        /* \"#utility.yul\":4423:4509   */\n    tag_264:\n        /* \"#utility.yul\":4458:4465   */\n      0x00\n        /* \"#utility.yul\":4498:4502   */\n      0xff\n        /* \"#utility.yul\":4491:4496   */\n      dup3\n        /* \"#utility.yul\":4487:4503   */\n      and\n        /* \"#utility.yul\":4476:4503   */\n      swap1\n      pop\n        /* \"#utility.yul\":4423:4509   */\n      swap2\n      swap1\n      pop\n      jump\t// out\n        /* \"#utility.yul\":4515:4627   */\n    tag_265:\n        /* \"#utility.yul\":4598:4620   */\n      tag_344\n        /* \"#utility.yul\":4614:4619   */\n      dup2\n        /* \"#utility.yul\":4598:4620   */\n      tag_264\n      jump\t// in\n    tag_344:\n        /* \"#utility.yul\":4593:4596   */\n      dup3\n        /* \"#utility.yul\":4586:4621   */\n      mstore\n        /* \"#utility.yul\":4515:4627   */\n      pop\n      pop\n      jump\t// out\n        /* \"#utility.yul\":4633:4847   */\n    tag_47:\n        /* \"#utility.yul\":4722:4726   */\n      0x00\n        /* \"#utility.yul\":4760:4762   */\n      0x20\n        /* \"#utility.yul\":4749:4758   */\n      dup3\n        /* \"#utility.yul\":4745:4763   */\n      add\n        /* \"#utility.yul\":4737:4763   */\n      swap1\n      pop\n        /* \"#utility.yul\":4773:4840   */\n      tag_346\n        /* \"#utility.yul\":4837:4838   */\n      0x00\n        /* \"#utility.yul\":4826:4835   */\n      dup4\n        /* \"#utility.yul\":4822:4839   */\n      add\n        /* \"#utility.yul\":4813:4819   */\n      dup5\n        /* \"#utility.yul\":4773:4840   */\n      tag_265\n      jump\t// in\n    tag_346:\n        /* \"#utility.yul\":4633:4847   */\n      swap3\n      swap2\n      pop\n      pop\n      jump\t// out\n        /* \"#utility.yul\":4853:5182   */\n    tag_50:\n        /* \"#utility.yul\":4912:4918   */\n      0x00\n        /* \"#utility.yul\":4961:4963   */\n      0x20\n        /* \"#utility.yul\":4949:4958   */\n      dup3\n        /* \"#utility.yul\":4940:4947   */\n      dup5\n        /* \"#utility.yul\":4936:4959   */\n      sub\n        /* \"#utility.yul\":4932:4964   */\n      slt\n        /* \"#utility.yul\":4929:5048   */\n      iszero\n      tag_348\n      jumpi\n        /* \"#utility.yul\":4967:5046   */\n      tag_349\n      tag_252\n      jump\t// in\n    tag_349:\n        /* \"#utility.yul\":4929:5048   */\n    tag_348:\n        /* \"#utility.yul\":5087:5088   */\n      0x00\n        /* \"#utility.yul\":5112:5165   */\n      tag_350\n        /* \"#utility.yul\":5157:5164   */\n      dup5\n        /* \"#utility.yul\":5148:5154   */\n      dup3\n        /* \"#utility.yul\":5137:5146   */\n      dup6\n        /* \"#utility.yul\":5133:5155   */\n      add\n        /* \"#utility.yul\":5112:5165   */\n      tag_257\n      jump\t// in\n    tag_350:\n        /* \"#utility.yul\":5102:5165   */\n      swap2\n      pop\n        /* \"#utility.yul\":5058:5175   */\n      pop\n        /* \"#utility.yul\":4853:5182   */\n      swap3\n      swap2\n      pop\n      pop\n      jump\t// out\n        /* \"#utility.yul\":5188:5517   */\n    tag_55:\n        /* \"#utility.yul\":5247:5253   */\n      0x00\n        /* \"#utility.yul\":5296:5298   */\n      0x20\n        /* \"#utility.yul\":5284:5293   */\n      dup3\n        /* \"#utility.yul\":5275:5282   */\n      dup5\n        /* \"#utility.yul\":5271:5294   */\n      sub\n        /* \"#utility.yul\":5267:5299   */\n      slt\n        /* \"#utility.yul\":5264:5383   */\n      iszero\n      tag_352\n      jumpi\n        /* \"#utility.yul\":5302:5381   */\n      tag_353\n      tag_252\n      jump\t// in\n    tag_353:\n        /* \"#utility.yul\":5264:5383   */\n    tag_352:\n        /* \"#utility.yul\":5422:5423   */\n      0x00\n        /* \"#utility.yul\":5447:5500   */\n      tag_354\n        /* \"#utility.yul\":5492:5499   */\n      dup5\n        /* \"#utility.yul\":5483:5489   */\n      dup3\n        /* \"#utility.yul\":5472:5481   */\n      dup6\n        /* \"#utility.yul\":5468:5490   */\n      add\n        /* \"#utility.yul\":5447:5500   */\n      tag_260\n      jump\t// in\n    tag_354:\n        /* \"#utility.yul\":5437:5500   */\n      swap2\n      pop\n        /* \"#utility.yul\":5393:5510   */\n      pop\n        /* \"#utility.yul\":5188:5517   */\n      swap3\n      swap2\n      pop\n      pop\n      jump\t// out\n        /* \"#utility.yul\":5523:5997   */\n    tag_96:\n        /* \"#utility.yul\":5591:5597   */\n      0x00\n        /* \"#utility.yul\":5599:5605   */\n      dup1\n        /* \"#utility.yul\":5648:5650   */\n      0x40\n        /* \"#utility.yul\":5636:5645   */\n      dup4\n        /* \"#utility.yul\":5627:5634   */\n      dup6\n        /* \"#utility.yul\":5623:5646   */\n      sub\n        /* \"#utility.yul\":5619:5651   */\n      slt\n        /* \"#utility.yul\":5616:5735   */\n      iszero\n      tag_356\n      jumpi\n        /* \"#utility.yul\":5654:5733   */\n      tag_357\n      tag_252\n      jump\t// in\n    tag_357:\n        /* \"#utility.yul\":5616:5735   */\n    tag_356:\n        /* \"#utility.yul\":5774:5775   */\n      0x00\n        /* \"#utility.yul\":5799:5852   */\n      tag_358\n        /* \"#utility.yul\":5844:5851   */\n      dup6\n        /* \"#utility.yul\":5835:5841   */\n      dup3\n        /* \"#utility.yul\":5824:5833   */\n      dup7\n        /* \"#utility.yul\":5820:5842   */\n      add\n        /* \"#utility.yul\":5799:5852   */\n      tag_257\n      jump\t// in\n    tag_358:\n        /* \"#utility.yul\":5789:5852   */\n      swap3\n      pop\n        /* \"#utility.yul\":5745:5862   */\n      pop\n        /* \"#utility.yul\":5901:5903   */\n      0x20\n        /* \"#utility.yul\":5927:5980   */\n      tag_359\n        /* \"#utility.yul\":5972:5979   */\n      dup6\n        /* \"#utility.yul\":5963:5969   */\n      dup3\n        /* \"#utility.yul\":5952:5961   */\n      dup7\n        /* \"#utility.yul\":5948:5970   */\n      add\n        /* \"#utility.yul\":5927:5980   */\n      tag_257\n      jump\t// in\n    tag_359:\n        /* \"#utility.yul\":5917:5980   */\n      swap2\n      pop\n        /* \"#utility.yul\":5872:5990   */\n      pop\n        /* \"#utility.yul\":5523:5997   */\n      swap3\n      pop\n      swap3\n      swap1\n      pop\n      jump\t// out\n        /* \"#utility.yul\":6003:6183   */\n    tag_266:\n        /* \"#utility.yul\":6051:6128   */\n      0x4e487b7100000000000000000000000000000000000000000000000000000000\n        /* \"#utility.yul\":6048:6049   */\n      0x00\n        /* \"#utility.yul\":6041:6129   */\n      mstore\n        /* \"#utility.yul\":6148:6152   */\n      0x22\n        /* \"#utility.yul\":6145:6146   */\n      0x04\n        /* \"#utility.yul\":6138:6153   */\n      mstore\n        /* \"#utility.yul\":6172:6176   */\n      0x24\n        /* \"#utility.yul\":6169:6170   */\n      0x00\n        /* \"#utility.yul\":6162:6177   */\n      revert\n        /* \"#utility.yul\":6189:6509   */\n    tag_104:\n        /* \"#utility.yul\":6233:6239   */\n      0x00\n        /* \"#utility.yul\":6270:6271   */\n      0x02\n        /* \"#utility.yul\":6264:6268   */\n      dup3\n        /* \"#utility.yul\":6260:6272   */\n      div\n        /* \"#utility.yul\":6250:6272   */\n      swap1\n      pop\n        /* \"#utility.yul\":6317:6318   */\n      0x01\n        /* \"#utility.yul\":6311:6315   */\n      dup3\n        /* \"#utility.yul\":6307:6319   */\n      and\n        /* \"#utility.yul\":6338:6356   */\n      dup1\n        /* \"#utility.yul\":6328:6409   */\n      tag_362\n      jumpi\n        /* \"#utility.yul\":6394:6398   */\n      0x7f\n        /* \"#utility.yul\":6386:6392   */\n      dup3\n        /* \"#utility.yul\":6382:6399   */\n      and\n        /* \"#utility.yul\":6372:6399   */\n      swap2\n      pop\n        /* \"#utility.yul\":6328:6409   */\n    tag_362:\n        /* \"#utility.yul\":6456:6458   */\n      0x20\n        /* \"#utility.yul\":6448:6454   */\n      dup3\n        /* \"#utility.yul\":6445:6459   */\n      lt\n        /* \"#utility.yul\":6425:6443   */\n      dup2\n        /* \"#utility.yul\":6422:6460   */\n      sub\n        /* \"#utility.yul\":6419:6503   */\n      tag_363\n      jumpi\n        /* \"#utility.yul\":6475:6493   */\n      tag_364\n      tag_266\n      jump\t// in\n    tag_364:\n        /* \"#utility.yul\":6419:6503   */\n    tag_363:\n        /* \"#utility.yul\":6240:6509   */\n      pop\n        /* \"#utility.yul\":6189:6509   */\n      swap2\n      swap1\n      pop\n      jump\t// out\n        /* \"#utility.yul\":6515:6692   */\n    tag_267:\n        /* \"#utility.yul\":6655:6684   */\n      0x45524332303a20696e73756666696369656e742062616c616e63650000000000\n        /* \"#utility.yul\":6651:6652   */\n      0x00\n        /* \"#utility.yul\":6643:6649   */\n      dup3\n        /* \"#utility.yul\":6639:6653   */\n      add\n        /* \"#utility.yul\":6632:6685   */\n      mstore\n        /* \"#utility.yul\":6515:6692   */\n      pop\n      jump\t// out\n        /* \"#utility.yul\":6698:7064   */\n    tag_268:\n        /* \"#utility.yul\":6840:6843   */\n      0x00\n        /* \"#utility.yul\":6861:6928   */\n      tag_367\n        /* \"#utility.yul\":6925:6927   */\n      0x1b\n        /* \"#utility.yul\":6920:6923   */\n      dup4\n        /* \"#utility.yul\":6861:6928   */\n      tag_247\n      jump\t// in\n    tag_367:\n        /* \"#utility.yul\":6854:6928   */\n      swap2\n      pop\n        /* \"#utility.yul\":6937:7030   */\n      tag_368\n        /* \"#utility.yul\":7026:7029   */\n      dup3\n        /* \"#utility.yul\":6937:7030   */\n      tag_267\n      jump\t// in\n    tag_368:\n        /* \"#utility.yul\":7055:7057   */\n      0x20\n        /* \"#utility.yul\":7050:7053   */\n      dup3\n        /* \"#utility.yul\":7046:7058   */\n      add\n        /* \"#utility.yul\":7039:7058   */\n      swap1\n      pop\n        /* \"#utility.yul\":6698:7064   */\n      swap2\n      swap1\n      pop\n      jump\t// out\n        /* \"#utility.yul\":7070:7489   */\n    tag_114:\n        /* \"#utility.yul\":7236:7240   */\n      0x00\n        /* \"#utility.yul\":7274:7276   */\n      0x20\n        /* \"#utility.yul\":7263:7272   */\n      dup3\n        /* \"#utility.yul\":7259:7277   */\n      add\n        /* \"#utility.yul\":7251:7277   */\n      swap1\n      pop\n        /* \"#utility.yul\":7323:7332   */\n      dup2\n        /* \"#utility.yul\":7317:7321   */\n      dup2\n        /* \"#utility.yul\":7313:7333   */\n      sub\n        /* \"#utility.yul\":7309:7310   */\n      0x00\n        /* \"#utility.yul\":7298:7307   */\n      dup4\n        /* \"#utility.yul\":7294:7311   */\n      add\n        /* \"#utility.yul\":7287:7334   */\n      mstore\n        /* \"#utility.yul\":7351:7482   */\n      tag_370\n        /* \"#utility.yul\":7477:7481   */\n      dup2\n        /* \"#utility.yul\":7351:7482   */\n      tag_268\n      jump\t// in\n    tag_370:\n        /* \"#utility.yul\":7343:7482   */\n      swap1\n      pop\n        /* \"#utility.yul\":7070:7489   */\n      swap2\n      swap1\n      pop\n      jump\t// out\n        /* \"#utility.yul\":7495:7669   */\n    tag_269:\n        /* \"#utility.yul\":7635:7661   */\n      0x45524332303a20616c6c6f77616e636520746f6f206c6f770000000000000000\n        /* \"#utility.yul\":7631:7632   */\n      0x00\n        /* \"#utility.yul\":7623:7629   */\n      dup3\n        /* \"#utility.yul\":7619:7633   */\n      add\n        /* \"#utility.yul\":7612:7662   */\n      mstore\n        /* \"#utility.yul\":7495:7669   */\n      pop\n      jump\t// out\n        /* \"#utility.yul\":7675:8041   */\n    tag_270:\n        /* \"#utility.yul\":7817:7820   */\n      0x00\n        /* \"#utility.yul\":7838:7905   */\n      tag_373\n        /* \"#utility.yul\":7902:7904   */\n      0x18\n        /* \"#utility.yul\":7897:7900   */\n      dup4\n        /* \"#utility.yul\":7838:7905   */\n      tag_247\n      jump\t// in\n    tag_373:\n        /* \"#utility.yul\":7831:7905   */\n      swap2\n      pop\n        /* \"#utility.yul\":7914:8007   */\n      tag_374\n        /* \"#utility.yul\":8003:8006   */\n      dup3\n        /* \"#utility.yul\":7914:8007   */\n      tag_269\n      jump\t// in\n    tag_374:\n        /* \"#utility.yul\":8032:8034   */\n      0x20\n        /* \"#utility.yul\":8027:8030   */\n      dup3\n        /* \"#utility.yul\":8023:8035   */\n      add\n        /* \"#utility.yul\":8016:8035   */\n      swap1\n      pop\n        /* \"#utility.yul\":7675:8041   */\n      swap2\n      swap1\n      pop\n      jump\t// out\n        /* \"#utility.yul\":8047:8466   */\n    tag_117:\n        /* \"#utility.yul\":8213:8217   */\n      0x00\n        /* \"#utility.yul\":8251:8253   */\n      0x20\n        /* \"#utility.yul\":8240:8249   */\n      dup3\n        /* \"#utility.yul\":8236:8254   */\n      add\n        /* \"#utility.yul\":8228:8254   */\n      swap1\n      pop\n        /* \"#utility.yul\":8300:8309   */\n      dup2\n        /* \"#utility.yul\":8294:8298   */\n      dup2\n        /* \"#utility.yul\":8290:8310   */\n      sub\n        /* \"#utility.yul\":8286:8287   */\n      0x00\n        /* \"#utility.yul\":8275:8284   */\n      dup4\n        /* \"#utility.yul\":8271:8288   */\n      add\n        /* \"#utility.yul\":8264:8311   */\n      mstore\n        /* \"#utility.yul\":8328:8459   */\n      tag_376\n        /* \"#utility.yul\":8454:8458   */\n      dup2\n        /* \"#utility.yul\":8328:8459   */\n      tag_270\n      jump\t// in\n    tag_376:\n        /* \"#utility.yul\":8320:8459   */\n      swap1\n      pop\n        /* \"#utility.yul\":8047:8466   */\n      swap2\n      swap1\n      pop\n      jump\t// out\n        /* \"#utility.yul\":8472:8652   */\n    tag_271:\n        /* \"#utility.yul\":8520:8597   */\n      0x4e487b7100000000000000000000000000000000000000000000000000000000\n        /* \"#utility.yul\":8517:8518   */\n      0x00\n        /* \"#utility.yul\":8510:8598   */\n      mstore\n        /* \"#utility.yul\":8617:8621   */\n      0x11\n        /* \"#utility.yul\":8614:8615   */\n      0x04\n        /* \"#utility.yul\":8607:8622   */\n      mstore\n        /* \"#utility.yul\":8641:8645   */\n      0x24\n        /* \"#utility.yul\":8638:8639   */\n      0x00\n        /* \"#utility.yul\":8631:8646   */\n      revert\n        /* \"#utility.yul\":8658:8852   */\n    tag_119:\n        /* \"#utility.yul\":8698:8702   */\n      0x00\n        /* \"#utility.yul\":8718:8738   */\n      tag_379\n        /* \"#utility.yul\":8736:8737   */\n      dup3\n        /* \"#utility.yul\":8718:8738   */\n      tag_258\n      jump\t// in\n    tag_379:\n        /* \"#utility.yul\":8713:8738   */\n      swap2\n      pop\n        /* \"#utility.yul\":8752:8772   */\n      tag_380\n        /* \"#utility.yul\":8770:8771   */\n      dup4\n        /* \"#utility.yul\":8752:8772   */\n      tag_258\n      jump\t// in\n    tag_380:\n        /* \"#utility.yul\":8747:8772   */\n      swap3\n      pop\n        /* \"#utility.yul\":8796:8797   */\n      dup3\n        /* \"#utility.yul\":8793:8794   */\n      dup3\n        /* \"#utility.yul\":8789:8798   */\n      sub\n        /* \"#utility.yul\":8781:8798   */\n      swap1\n      pop\n        /* \"#utility.yul\":8820:8821   */\n      dup2\n        /* \"#utility.yul\":8814:8818   */\n      dup2\n        /* \"#utility.yul\":8811:8822   */\n      gt\n        /* \"#utility.yul\":8808:8845   */\n      iszero\n      tag_381\n      jumpi\n        /* \"#utility.yul\":8825:8843   */\n      tag_382\n      tag_271\n      jump\t// in\n    tag_382:\n        /* \"#utility.yul\":8808:8845   */\n    tag_381:\n        /* \"#utility.yul\":8658:8852   */\n      swap3\n      swap2\n      pop\n      pop\n      jump\t// out\n        /* \"#utility.yul\":8858:9049   */\n    tag_122:\n        /* \"#utility.yul\":8898:8901   */\n      0x00\n        /* \"#utility.yul\":8917:8937   */\n      tag_384\n        /* \"#utility.yul\":8935:8936   */\n      dup3\n        /* \"#utility.yul\":8917:8937   */\n      tag_258\n      jump\t// in\n    tag_384:\n        /* \"#utility.yul\":8912:8937   */\n      swap2\n      pop\n        /* \"#utility.yul\":8951:8971   */\n      tag_385\n        /* \"#utility.yul\":8969:8970   */\n      dup4\n        /* \"#utility.yul\":8951:8971   */\n      tag_258\n      jump\t// in\n    tag_385:\n        /* \"#utility.yul\":8946:8971   */\n      swap3\n      pop\n        /* \"#utility.yul\":8994:8995   */\n      dup3\n        /* \"#utility.yul\":8991:8992   */\n      dup3\n        /* \"#utility.yul\":8987:8996   */\n      add\n        /* \"#utility.yul\":8980:8996   */\n      swap1\n      pop\n        /* \"#utility.yul\":9015:9018   */\n      dup1\n        /* \"#utility.yul\":9012:9013   */\n      dup3\n        /* \"#utility.yul\":9009:9019   */\n      gt\n        /* \"#utility.yul\":9006:9042   */\n      iszero\n      tag_386\n      jumpi\n        /* \"#utility.yul\":9022:9040   */\n      tag_387\n      tag_271\n      jump\t// in\n    tag_387:\n        /* \"#utility.yul\":9006:9042   */\n    tag_386:\n        /* \"#utility.yul\":8858:9049   */\n      swap3\n      swap2\n      pop\n      pop\n      jump\t// out\n        /* \"#utility.yul\":9055:9277   */\n    tag_272:\n        /* \"#utility.yul\":9195:9229   */\n      0x45524332303a20696e73756666696369656e742062616c616e636520746f2062\n        /* \"#utility.yul\":9191:9192   */\n      0x00\n        /* \"#utility.yul\":9183:9189   */\n      dup3\n        /* \"#utility.yul\":9179:9193   */\n      add\n        /* \"#utility.yul\":9172:9230   */\n      mstore\n        /* \"#utility.yul\":9264:9269   */\n      0x75726e0000000000000000000000000000000000000000000000000000000000\n        /* \"#utility.yul\":9259:9261   */\n      0x20\n        /* \"#utility.yul\":9251:9257   */\n      dup3\n        /* \"#utility.yul\":9247:9262   */\n      add\n        /* \"#utility.yul\":9240:9270   */\n      mstore\n        /* \"#utility.yul\":9055:9277   */\n      pop\n      jump\t// out\n        /* \"#utility.yul\":9283:9649   */\n    tag_273:\n        /* \"#utility.yul\":9425:9428   */\n      0x00\n        /* \"#utility.yul\":9446:9513   */\n      tag_390\n        /* \"#utility.yul\":9510:9512   */\n      0x23\n        /* \"#utility.yul\":9505:9508   */\n      dup4\n        /* \"#utility.yul\":9446:9513   */\n      tag_247\n      jump\t// in\n    tag_390:\n        /* \"#utility.yul\":9439:9513   */\n      swap2\n      pop\n        /* \"#utility.yul\":9522:9615   */\n      tag_391\n        /* \"#utility.yul\":9611:9614   */\n      dup3\n        /* \"#utility.yul\":9522:9615   */\n      tag_272\n      jump\t// in\n    tag_391:\n        /* \"#utility.yul\":9640:9642   */\n      0x40\n        /* \"#utility.yul\":9635:9638   */\n      dup3\n        /* \"#utility.yul\":9631:9643   */\n      add\n        /* \"#utility.yul\":9624:9643   */\n      swap1\n      pop\n        /* \"#utility.yul\":9283:9649   */\n      swap2\n      swap1\n      pop\n      jump\t// out\n        /* \"#utility.yul\":9655:10074   */\n    tag_127:\n        /* \"#utility.yul\":9821:9825   */\n      0x00\n        /* \"#utility.yul\":9859:9861   */\n      0x20\n        /* \"#utility.yul\":9848:9857   */\n      dup3\n        /* \"#utility.yul\":9844:9862   */\n      add\n        /* \"#utility.yul\":9836:9862   */\n      swap1\n      pop\n        /* \"#utility.yul\":9908:9917   */\n      dup2\n        /* \"#utility.yul\":9902:9906   */\n      dup2\n        /* \"#utility.yul\":9898:9918   */\n      sub\n        /* \"#utility.yul\":9894:9895   */\n      0x00\n        /* \"#utility.yul\":9883:9892   */\n      dup4\n        /* \"#utility.yul\":9879:9896   */\n      add\n        /* \"#utility.yul\":9872:9919   */\n      mstore\n        /* \"#utility.yul\":9936:10067   */\n      tag_393\n        /* \"#utility.yul\":10062:10066   */\n      dup2\n        /* \"#utility.yul\":9936:10067   */\n      tag_273\n      jump\t// in\n    tag_393:\n        /* \"#utility.yul\":9928:10067   */\n      swap1\n      pop\n        /* \"#utility.yul\":9655:10074   */\n      swap2\n      swap1\n      pop\n      jump\t// out\n        /* \"#utility.yul\":10080:10260   */\n    tag_274:\n        /* \"#utility.yul\":10128:10205   */\n      0x4e487b7100000000000000000000000000000000000000000000000000000000\n        /* \"#utility.yul\":10125:10126   */\n      0x00\n        /* \"#utility.yul\":10118:10206   */\n      mstore\n        /* \"#utility.yul\":10225:10229   */\n      0x12\n        /* \"#utility.yul\":10222:10223   */\n      0x04\n        /* \"#utility.yul\":10215:10230   */\n      mstore\n        /* \"#utility.yul\":10249:10253   */\n      0x24\n        /* \"#utility.yul\":10246:10247   */\n      0x00\n        /* \"#utility.yul\":10239:10254   */\n      revert\n        /* \"#utility.yul\":10266:10451   */\n    tag_134:\n        /* \"#utility.yul\":10306:10307   */\n      0x00\n        /* \"#utility.yul\":10323:10343   */\n      tag_396\n        /* \"#utility.yul\":10341:10342   */\n      dup3\n        /* \"#utility.yul\":10323:10343   */\n      tag_258\n      jump\t// in\n    tag_396:\n        /* \"#utility.yul\":10318:10343   */\n      swap2\n      pop\n        /* \"#utility.yul\":10357:10377   */\n      tag_397\n        /* \"#utility.yul\":10375:10376   */\n      dup4\n        /* \"#utility.yul\":10357:10377   */\n      tag_258\n      jump\t// in\n    tag_397:\n        /* \"#utility.yul\":10352:10377   */\n      swap3\n      pop\n        /* \"#utility.yul\":10396:10397   */\n      dup3\n        /* \"#utility.yul\":10386:10421   */\n      tag_398\n      jumpi\n        /* \"#utility.yul\":10401:10419   */\n      tag_399\n      tag_274\n      jump\t// in\n    tag_399:\n        /* \"#utility.yul\":10386:10421   */\n    tag_398:\n        /* \"#utility.yul\":10443:10444   */\n      dup3\n        /* \"#utility.yul\":10440:10441   */\n      dup3\n        /* \"#utility.yul\":10436:10445   */\n      div\n        /* \"#utility.yul\":10431:10445   */\n      swap1\n      pop\n        /* \"#utility.yul\":10266:10451   */\n      swap3\n      swap2\n      pop\n      pop\n      jump\t// out\n        /* \"#utility.yul\":10457:10626   */\n    tag_275:\n        /* \"#utility.yul\":10597:10618   */\n      0x4d61782033206472617773207065722064617900000000000000000000000000\n        /* \"#utility.yul\":10593:10594   */\n      0x00\n        /* \"#utility.yul\":10585:10591   */\n      dup3\n        /* \"#utility.yul\":10581:10595   */\n      add\n        /* \"#utility.yul\":10574:10619   */\n      mstore\n        /* \"#utility.yul\":10457:10626   */\n      pop\n      jump\t// out\n        /* \"#utility.yul\":10632:10998   */\n    tag_276:\n        /* \"#utility.yul\":10774:10777   */\n      0x00\n        /* \"#utility.yul\":10795:10862   */\n      tag_402\n        /* \"#utility.yul\":10859:10861   */\n      0x13\n        /* \"#utility.yul\":10854:10857   */\n      dup4\n        /* \"#utility.yul\":10795:10862   */\n      tag_247\n      jump\t// in\n    tag_402:\n        /* \"#utility.yul\":10788:10862   */\n      swap2\n      pop\n        /* \"#utility.yul\":10871:10964   */\n      tag_403\n        /* \"#utility.yul\":10960:10963   */\n      dup3\n        /* \"#utility.yul\":10871:10964   */\n      tag_275\n      jump\t// in\n    tag_403:\n        /* \"#utility.yul\":10989:10991   */\n      0x20\n        /* \"#utility.yul\":10984:10987   */\n      dup3\n        /* \"#utility.yul\":10980:10992   */\n      add\n        /* \"#utility.yul\":10973:10992   */\n      swap1\n      pop\n        /* \"#utility.yul\":10632:10998   */\n      swap2\n      swap1\n      pop\n      jump\t// out\n        /* \"#utility.yul\":11004:11423   */\n    tag_138:\n        /* \"#utility.yul\":11170:11174   */\n      0x00\n        /* \"#utility.yul\":11208:11210   */\n      0x20\n        /* \"#utility.yul\":11197:11206   */\n      dup3\n        /* \"#utility.yul\":11193:11211   */\n      add\n        /* \"#utility.yul\":11185:11211   */\n      swap1\n      pop\n        /* \"#utility.yul\":11257:11266   */\n      dup2\n        /* \"#utility.yul\":11251:11255   */\n      dup2\n        /* \"#utility.yul\":11247:11267   */\n      sub\n        /* \"#utility.yul\":11243:11244   */\n      0x00\n        /* \"#utility.yul\":11232:11241   */\n      dup4\n        /* \"#utility.yul\":11228:11245   */\n      add\n        /* \"#utility.yul\":11221:11268   */\n      mstore\n        /* \"#utility.yul\":11285:11416   */\n      tag_405\n        /* \"#utility.yul\":11411:11415   */\n      dup2\n        /* \"#utility.yul\":11285:11416   */\n      tag_276\n      jump\t// in\n    tag_405:\n        /* \"#utility.yul\":11277:11416   */\n      swap1\n      pop\n        /* \"#utility.yul\":11004:11423   */\n      swap2\n      swap1\n      pop\n      jump\t// out\n        /* \"#utility.yul\":11429:11531   */\n    tag_277:\n        /* \"#utility.yul\":11471:11479   */\n      0x00\n        /* \"#utility.yul\":11518:11523   */\n      dup2\n        /* \"#utility.yul\":11515:11516   */\n      0x01\n        /* \"#utility.yul\":11511:11524   */\n      shr\n        /* \"#utility.yul\":11490:11524   */\n      swap1\n      pop\n        /* \"#utility.yul\":11429:11531   */\n      swap2\n      swap1\n      pop\n      jump\t// out\n        /* \"#utility.yul\":11537:12385   */\n    tag_278:\n        /* \"#utility.yul\":11598:11603   */\n      0x00\n        /* \"#utility.yul\":11605:11609   */\n      dup1\n        /* \"#utility.yul\":11629:11635   */\n      dup3\n        /* \"#utility.yul\":11620:11635   */\n      swap2\n      pop\n        /* \"#utility.yul\":11653:11658   */\n      dup4\n        /* \"#utility.yul\":11644:11658   */\n      swap1\n      pop\n        /* \"#utility.yul\":11667:12379   */\n    tag_408:\n        /* \"#utility.yul\":11688:11689   */\n      0x01\n        /* \"#utility.yul\":11678:11686   */\n      dup6\n        /* \"#utility.yul\":11675:11690   */\n      gt\n        /* \"#utility.yul\":11667:12379   */\n      iszero\n      tag_410\n      jumpi\n        /* \"#utility.yul\":11783:11787   */\n      dup1\n        /* \"#utility.yul\":11778:11781   */\n      dup7\n        /* \"#utility.yul\":11774:11788   */\n      div\n        /* \"#utility.yul\":11768:11772   */\n      dup2\n        /* \"#utility.yul\":11765:11789   */\n      gt\n        /* \"#utility.yul\":11762:11812   */\n      iszero\n      tag_411\n      jumpi\n        /* \"#utility.yul\":11792:11810   */\n      tag_412\n      tag_271\n      jump\t// in\n    tag_412:\n        /* \"#utility.yul\":11762:11812   */\n    tag_411:\n        /* \"#utility.yul\":11842:11843   */\n      0x01\n        /* \"#utility.yul\":11832:11840   */\n      dup6\n        /* \"#utility.yul\":11828:11844   */\n      and\n        /* \"#utility.yul\":11825:12276   */\n      iszero\n      tag_413\n      jumpi\n        /* \"#utility.yul\":12257:12261   */\n      dup1\n        /* \"#utility.yul\":12250:12255   */\n      dup3\n        /* \"#utility.yul\":12246:12262   */\n      mul\n        /* \"#utility.yul\":12237:12262   */\n      swap2\n      pop\n        /* \"#utility.yul\":11825:12276   */\n    tag_413:\n        /* \"#utility.yul\":12307:12311   */\n      dup1\n        /* \"#utility.yul\":12301:12305   */\n      dup2\n        /* \"#utility.yul\":12297:12312   */\n      mul\n        /* \"#utility.yul\":12289:12312   */\n      swap1\n      pop\n        /* \"#utility.yul\":12337:12369   */\n      tag_414\n        /* \"#utility.yul\":12360:12368   */\n      dup6\n        /* \"#utility.yul\":12337:12369   */\n      tag_277\n      jump\t// in\n    tag_414:\n        /* \"#utility.yul\":12325:12369   */\n      swap5\n      pop\n        /* \"#utility.yul\":11667:12379   */\n      jump(tag_408)\n    tag_410:\n        /* \"#utility.yul\":11537:12385   */\n      swap5\n      pop\n      swap5\n      swap3\n      pop\n      pop\n      pop\n      jump\t// out\n        /* \"#utility.yul\":12391:13464   */\n    tag_279:\n        /* \"#utility.yul\":12445:12450   */\n      0x00\n        /* \"#utility.yul\":12636:12644   */\n      dup3\n        /* \"#utility.yul\":12626:12666   */\n      tag_416\n      jumpi\n        /* \"#utility.yul\":12657:12658   */\n      0x01\n        /* \"#utility.yul\":12648:12658   */\n      swap1\n      pop\n        /* \"#utility.yul\":12659:12664   */\n      jump(tag_415)\n        /* \"#utility.yul\":12626:12666   */\n    tag_416:\n        /* \"#utility.yul\":12685:12689   */\n      dup2\n        /* \"#utility.yul\":12675:12711   */\n      tag_417\n      jumpi\n        /* \"#utility.yul\":12702:12703   */\n      0x00\n        /* \"#utility.yul\":12693:12703   */\n      swap1\n      pop\n        /* \"#utility.yul\":12704:12709   */\n      jump(tag_415)\n        /* \"#utility.yul\":12675:12711   */\n    tag_417:\n        /* \"#utility.yul\":12771:12775   */\n      dup2\n        /* \"#utility.yul\":12819:12820   */\n      0x01\n        /* \"#utility.yul\":12814:12841   */\n      dup2\n      eq\n      tag_419\n      jumpi\n        /* \"#utility.yul\":12855:12856   */\n      0x02\n        /* \"#utility.yul\":12850:13041   */\n      dup2\n      eq\n      tag_420\n      jumpi\n        /* \"#utility.yul\":12764:13041   */\n      jump(tag_418)\n        /* \"#utility.yul\":12814:12841   */\n    tag_419:\n        /* \"#utility.yul\":12832:12833   */\n      0x01\n        /* \"#utility.yul\":12823:12833   */\n      swap2\n      pop\n        /* \"#utility.yul\":12834:12839   */\n      pop\n      jump(tag_415)\n        /* \"#utility.yul\":12850:13041   */\n    tag_420:\n        /* \"#utility.yul\":12895:12898   */\n      0xff\n        /* \"#utility.yul\":12885:12893   */\n      dup5\n        /* \"#utility.yul\":12882:12899   */\n      gt\n        /* \"#utility.yul\":12879:12922   */\n      iszero\n      tag_421\n      jumpi\n        /* \"#utility.yul\":12902:12920   */\n      tag_422\n      tag_271\n      jump\t// in\n    tag_422:\n        /* \"#utility.yul\":12879:12922   */\n    tag_421:\n        /* \"#utility.yul\":12951:12959   */\n      dup4\n        /* \"#utility.yul\":12948:12949   */\n      0x02\n        /* \"#utility.yul\":12944:12960   */\n      exp\n        /* \"#utility.yul\":12935:12960   */\n      swap2\n      pop\n        /* \"#utility.yul\":12986:12989   */\n      dup5\n        /* \"#utility.yul\":12979:12984   */\n      dup3\n        /* \"#utility.yul\":12976:12990   */\n      gt\n        /* \"#utility.yul\":12973:13013   */\n      iszero\n      tag_423\n      jumpi\n        /* \"#utility.yul\":12993:13011   */\n      tag_424\n      tag_271\n      jump\t// in\n    tag_424:\n        /* \"#utility.yul\":12973:13013   */\n    tag_423:\n        /* \"#utility.yul\":13026:13031   */\n      pop\n      jump(tag_415)\n        /* \"#utility.yul\":12764:13041   */\n    tag_418:\n      pop\n        /* \"#utility.yul\":13150:13152   */\n      0x20\n        /* \"#utility.yul\":13140:13148   */\n      dup4\n        /* \"#utility.yul\":13137:13153   */\n      lt\n        /* \"#utility.yul\":13131:13134   */\n      0x0133\n        /* \"#utility.yul\":13125:13129   */\n      dup4\n        /* \"#utility.yul\":13122:13135   */\n      lt\n        /* \"#utility.yul\":13118:13154   */\n      and\n        /* \"#utility.yul\":13100:13102   */\n      0x4e\n        /* \"#utility.yul\":13090:13098   */\n      dup5\n        /* \"#utility.yul\":13087:13103   */\n      lt\n        /* \"#utility.yul\":13082:13084   */\n      0x0b\n        /* \"#utility.yul\":13076:13080   */\n      dup5\n        /* \"#utility.yul\":13073:13085   */\n      lt\n        /* \"#utility.yul\":13069:13104   */\n      and\n        /* \"#utility.yul\":13053:13164   */\n      or\n        /* \"#utility.yul\":13050:13296   */\n      iszero\n      tag_425\n      jumpi\n        /* \"#utility.yul\":13206:13214   */\n      dup3\n        /* \"#utility.yul\":13200:13204   */\n      dup3\n        /* \"#utility.yul\":13196:13215   */\n      exp\n        /* \"#utility.yul\":13187:13215   */\n      swap1\n      pop\n        /* \"#utility.yul\":13241:13244   */\n      dup4\n        /* \"#utility.yul\":13234:13239   */\n      dup2\n        /* \"#utility.yul\":13231:13245   */\n      gt\n        /* \"#utility.yul\":13228:13268   */\n      iszero\n      tag_426\n      jumpi\n        /* \"#utility.yul\":13248:13266   */\n      tag_427\n      tag_271\n      jump\t// in\n    tag_427:\n        /* \"#utility.yul\":13228:13268   */\n    tag_426:\n        /* \"#utility.yul\":13281:13286   */\n      jump(tag_415)\n        /* \"#utility.yul\":13050:13296   */\n    tag_425:\n        /* \"#utility.yul\":13321:13363   */\n      tag_428\n        /* \"#utility.yul\":13359:13362   */\n      dup5\n        /* \"#utility.yul\":13349:13357   */\n      dup5\n        /* \"#utility.yul\":13343:13347   */\n      dup5\n        /* \"#utility.yul\":13340:13341   */\n      0x01\n        /* \"#utility.yul\":13321:13363   */\n      tag_278\n      jump\t// in\n    tag_428:\n        /* \"#utility.yul\":13306:13363   */\n      swap3\n      pop\n      swap1\n      pop\n        /* \"#utility.yul\":13395:13399   */\n      dup2\n        /* \"#utility.yul\":13390:13393   */\n      dup5\n        /* \"#utility.yul\":13386:13400   */\n      div\n        /* \"#utility.yul\":13379:13384   */\n      dup2\n        /* \"#utility.yul\":13376:13401   */\n      gt\n        /* \"#utility.yul\":13373:13424   */\n      iszero\n      tag_429\n      jumpi\n        /* \"#utility.yul\":13404:13422   */\n      tag_430\n      tag_271\n      jump\t// in\n    tag_430:\n        /* \"#utility.yul\":13373:13424   */\n    tag_429:\n        /* \"#utility.yul\":13453:13457   */\n      dup2\n        /* \"#utility.yul\":13446:13451   */\n      dup2\n        /* \"#utility.yul\":13442:13458   */\n      mul\n        /* \"#utility.yul\":13433:13458   */\n      swap1\n      pop\n        /* \"#utility.yul\":12391:13464   */\n    tag_415:\n      swap4\n      swap3\n      pop\n      pop\n      pop\n      jump\t// out\n        /* \"#utility.yul\":13470:13755   */\n    tag_141:\n        /* \"#utility.yul\":13530:13535   */\n      0x00\n        /* \"#utility.yul\":13554:13577   */\n      tag_432\n        /* \"#utility.yul\":13572:13576   */\n      dup3\n        /* \"#utility.yul\":13554:13577   */\n      tag_258\n      jump\t// in\n    tag_432:\n        /* \"#utility.yul\":13546:13577   */\n      swap2\n      pop\n        /* \"#utility.yul\":13598:13625   */\n      tag_433\n        /* \"#utility.yul\":13616:13624   */\n      dup4\n        /* \"#utility.yul\":13598:13625   */\n      tag_258\n      jump\t// in\n    tag_433:\n        /* \"#utility.yul\":13586:13625   */\n      swap3\n      pop\n        /* \"#utility.yul\":13644:13748   */\n      tag_434\n        /* \"#utility.yul\":13681:13747   */\n      0xffffffffffffffffffffffffffffffffffffffffffffffffffffffffffffffff\n        /* \"#utility.yul\":13671:13679   */\n      dup5\n        /* \"#utility.yul\":13665:13669   */\n      dup5\n        /* \"#utility.yul\":13644:13748   */\n      tag_279\n      jump\t// in\n    tag_434:\n        /* \"#utility.yul\":13635:13748   */\n      swap1\n      pop\n        /* \"#utility.yul\":13470:13755   */\n      swap3\n      swap2\n      pop\n      pop\n      jump\t// out\n        /* \"#utility.yul\":13761:14171   */\n    tag_143:\n        /* \"#utility.yul\":13801:13808   */\n      0x00\n        /* \"#utility.yul\":13824:13844   */\n      tag_436\n        /* \"#utility.yul\":13842:13843   */\n      dup3\n        /* \"#utility.yul\":13824:13844   */\n      tag_258\n      jump\t// in\n    tag_436:\n        /* \"#utility.yul\":13819:13844   */\n      swap2\n      pop\n        /* \"#utility.yul\":13858:13878   */\n      tag_437\n        /* \"#utility.yul\":13876:13877   */\n      dup4\n        /* \"#utility.yul\":13858:13878   */\n      tag_258\n      jump\t// in\n    tag_437:\n        /* \"#utility.yul\":13853:13878   */\n      swap3\n      pop\n        /* \"#utility.yul\":13913:13914   */\n      dup3\n        /* \"#utility.yul\":13910:13911   */\n      dup3\n        /* \"#utility.yul\":13906:13915   */\n      mul\n        /* \"#utility.yul\":13935:13965   */\n      tag_438\n        /* \"#utility.yul\":13953:13964   */\n      dup2\n        /* \"#utility.yul\":13935:13965   */\n      tag_258\n      jump\t// in\n    tag_438:\n        /* \"#utility.yul\":13924:13965   */\n      swap2\n      pop\n        /* \"#utility.yul\":14114:14115   */\n      dup3\n        /* \"#utility.yul\":14105:14112   */\n      dup3\n        /* \"#utility.yul\":14101:14116   */\n      div\n        /* \"#utility.yul\":14098:14099   */\n      dup5\n        /* \"#utility.yul\":14095:14117   */\n      eq\n        /* \"#utility.yul\":14075:14076   */\n      dup4\n        /* \"#utility.yul\":14068:14077   */\n      iszero\n        /* \"#utility.yul\":14048:14131   */\n      or\n        /* \"#utility.yul\":14025:14164   */\n      tag_439\n      jumpi\n        /* \"#utility.yul\":14144:14162   */\n      tag_440\n      tag_271\n      jump\t// in\n    tag_440:\n        /* \"#utility.yul\":14025:14164   */\n    tag_439:\n        /* \"#utility.yul\":13809:14171   */\n      pop\n        /* \"#utility.yul\":13761:14171   */\n      swap3\n      swap2\n      pop\n      pop\n      jump\t// out\n        /* \"#utility.yul\":14177:14341   */\n    tag_280:\n        /* \"#utility.yul\":14317:14333   */\n      0x4e6f7420656e6f7567682050454e000000000000000000000000000000000000\n        /* \"#utility.yul\":14313:14314   */\n      0x00\n        /* \"#utility.yul\":14305:14311   */\n      dup3\n        /* \"#utility.yul\":14301:14315   */\n      add\n        /* \"#utility.yul\":14294:14334   */\n      mstore\n        /* \"#utility.yul\":14177:14341   */\n      pop\n      jump\t// out\n        /* \"#utility.yul\":14347:14713   */\n    tag_281:\n        /* \"#utility.yul\":14489:14492   */\n      0x00\n        /* \"#utility.yul\":14510:14577   */\n      tag_443\n        /* \"#utility.yul\":14574:14576   */\n      0x0e\n        /* \"#utility.yul\":14569:14572   */\n      dup4\n        /* \"#utility.yul\":14510:14577   */\n      tag_247\n      jump\t// in\n    tag_443:\n        /* \"#utility.yul\":14503:14577   */\n      swap2\n      pop\n        /* \"#utility.yul\":14586:14679   */\n      tag_444\n        /* \"#utility.yul\":14675:14678   */\n      dup3\n        /* \"#utility.yul\":14586:14679   */\n      tag_280\n      jump\t// in\n    tag_444:\n        /* \"#utility.yul\":14704:14706   */\n      0x20\n        /* \"#utility.yul\":14699:14702   */\n      dup3\n        /* \"#utility.yul\":14695:14707   */\n      add\n        /* \"#utility.yul\":14688:14707   */\n      swap1\n      pop\n        /* \"#utility.yul\":14347:14713   */\n      swap2\n      swap1\n      pop\n      jump\t// out\n        /* \"#utility.yul\":14719:15138   */\n    tag_146:\n        /* \"#utility.yul\":14885:14889   */\n      0x00\n        /* \"#utility.yul\":14923:14925   */\n      0x20\n        /* \"#utility.yul\":14912:14921   */\n      dup3\n        /* \"#utility.yul\":14908:14926   */\n      add\n        /* \"#utility.yul\":14900:14926   */\n      swap1\n      pop\n        /* \"#utility.yul\":14972:14981   */\n      dup2\n        /* \"#utility.yul\":14966:14970   */\n      dup2\n        /* \"#utility.yul\":14962:14982   */\n      sub\n        /* \"#utility.yul\":14958:14959   */\n      0x00\n        /* \"#utility.yul\":14947:14956   */\n      dup4\n        /* \"#utility.yul\":14943:14960   */\n      add\n        /* \"#utility.yul\":14936:14983   */\n      mstore\n        /* \"#utility.yul\":15000:15131   */\n      tag_446\n        /* \"#utility.yul\":15126:15130   */\n      dup2\n        /* \"#utility.yul\":15000:15131   */\n      tag_281\n      jump\t// in\n    tag_446:\n        /* \"#utility.yul\":14992:15131   */\n      swap1\n      pop\n        /* \"#utility.yul\":14719:15138   */\n      swap2\n      swap1\n      pop\n      jump\t// out\n        /* \"#utility.yul\":15144:15320   */\n    tag_174:\n        /* \"#utility.yul\":15176:15177   */\n      0x00\n        /* \"#utility.yul\":15193:15213   */\n      tag_448\n        /* \"#utility.yul\":15211:15212   */\n      dup3\n        /* \"#utility.yul\":15193:15213   */\n      tag_258\n      jump\t// in\n    tag_448:\n        /* \"#utility.yul\":15188:15213   */\n      swap2\n      pop\n        /* \"#utility.yul\":15227:15247   */\n      tag_449\n        /* \"#utility.yul\":15245:15246   */\n      dup4\n        /* \"#utility.yul\":15227:15247   */\n      tag_258\n      jump\t// in\n    tag_449:\n        /* \"#utility.yul\":15222:15247   */\n      swap3\n      pop\n        /* \"#utility.yul\":15266:15267   */\n      dup3\n        /* \"#utility.yul\":15256:15291   */\n      tag_450\n      jumpi\n        /* \"#utility.yul\":15271:15289   */\n      tag_451\n      tag_274\n      jump\t// in\n    tag_451:\n        /* \"#utility.yul\":15256:15291   */\n    tag_450:\n        /* \"#utility.yul\":15312:15313   */\n      dup3\n        /* \"#utility.yul\":15309:15310   */\n      dup3\n        /* \"#utility.yul\":15305:15314   */\n      mod\n        /* \"#utility.yul\":15300:15314   */\n      swap1\n      pop\n        /* \"#utility.yul\":15144:15320   */\n      swap3\n      swap2\n      pop\n      pop\n      jump\t// out\n        /* \"#utility.yul\":15326:15749   */\n    tag_197:\n        /* \"#utility.yul\":15467:15471   */\n      0x00\n        /* \"#utility.yul\":15505:15507   */\n      0x40\n        /* \"#utility.yul\":15494:15503   */\n      dup3\n        /* \"#utility.yul\":15490:15508   */\n      add\n        /* \"#utility.yul\":15482:15508   */\n      swap1\n      pop\n        /* \"#utility.yul\":15554:15563   */\n      dup2\n        /* \"#utility.yul\":15548:15552   */\n      dup2\n        /* \"#utility.yul\":15544:15564   */\n      sub\n        /* \"#utility.yul\":15540:15541   */\n      0x00\n        /* \"#utility.yul\":15529:15538   */\n      dup4\n        /* \"#utility.yul\":15525:15542   */\n      add\n        /* \"#utility.yul\":15518:15565   */\n      mstore\n        /* \"#utility.yul\":15582:15660   */\n      tag_453\n        /* \"#utility.yul\":15655:15659   */\n      dup2\n        /* \"#utility.yul\":15646:15652   */\n      dup6\n        /* \"#utility.yul\":15582:15660   */\n      tag_250\n      jump\t// in\n    tag_453:\n        /* \"#utility.yul\":15574:15660   */\n      swap1\n      pop\n        /* \"#utility.yul\":15670:15742   */\n      tag_454\n        /* \"#utility.yul\":15738:15740   */\n      0x20\n        /* \"#utility.yul\":15727:15736   */\n      dup4\n        /* \"#utility.yul\":15723:15741   */\n      add\n        /* \"#utility.yul\":15714:15720   */\n      dup5\n        /* \"#utility.yul\":15670:15742   */\n      tag_263\n      jump\t// in\n    tag_454:\n        /* \"#utility.yul\":15326:15749   */\n      swap4\n      swap3\n      pop\n      pop\n      pop\n      jump\t// out\n        /* \"#utility.yul\":15755:15834   */\n    tag_282:\n        /* \"#utility.yul\":15794:15801   */\n      0x00\n        /* \"#utility.yul\":15823:15828   */\n      dup2\n        /* \"#utility.yul\":15812:15828   */\n      swap1\n      pop\n        /* \"#utility.yul\":15755:15834   */\n      swap2\n      swap1\n      pop\n      jump\t// out\n        /* \"#utility.yul\":15840:15997   */\n    tag_283:\n        /* \"#utility.yul\":15945:15990   */\n      tag_457\n        /* \"#utility.yul\":15965:15989   */\n      tag_458\n        /* \"#utility.yul\":15983:15988   */\n      dup3\n        /* \"#utility.yul\":15965:15989   */\n      tag_258\n      jump\t// in\n    tag_458:\n        /* \"#utility.yul\":15945:15990   */\n      tag_282\n      jump\t// in\n    tag_457:\n        /* \"#utility.yul\":15940:15943   */\n      dup3\n        /* \"#utility.yul\":15933:15991   */\n      mstore\n        /* \"#utility.yul\":15840:15997   */\n      pop\n      pop\n      jump\t// out\n        /* \"#utility.yul\":16003:16097   */\n    tag_284:\n        /* \"#utility.yul\":16036:16044   */\n      0x00\n        /* \"#utility.yul\":16084:16089   */\n      dup2\n        /* \"#utility.yul\":16080:16082   */\n      0x60\n        /* \"#utility.yul\":16076:16090   */\n      shl\n        /* \"#utility.yul\":16055:16090   */\n      swap1\n      pop\n        /* \"#utility.yul\":16003:16097   */\n      swap2\n      swap1\n      pop\n      jump\t// out\n        /* \"#utility.yul\":16103:16197   */\n    tag_285:\n        /* \"#utility.yul\":16142:16149   */\n      0x00\n        /* \"#utility.yul\":16171:16191   */\n      tag_461\n        /* \"#utility.yul\":16185:16190   */\n      dup3\n        /* \"#utility.yul\":16171:16191   */\n      tag_284\n      jump\t// in\n    tag_461:\n        /* \"#utility.yul\":16160:16191   */\n      swap1\n      pop\n        /* \"#utility.yul\":16103:16197   */\n      swap2\n      swap1\n      pop\n      jump\t// out\n        /* \"#utility.yul\":16203:16303   */\n    tag_286:\n        /* \"#utility.yul\":16242:16249   */\n      0x00\n        /* \"#utility.yul\":16271:16297   */\n      tag_463\n        /* \"#utility.yul\":16291:16296   */\n      dup3\n        /* \"#utility.yul\":16271:16297   */\n      tag_285\n      jump\t// in\n    tag_463:\n        /* \"#utility.yul\":16260:16297   */\n      swap1\n      pop\n        /* \"#utility.yul\":16203:16303   */\n      swap2\n      swap1\n      pop\n      jump\t// out\n        /* \"#utility.yul\":16309:16466   */\n    tag_287:\n        /* \"#utility.yul\":16414:16459   */\n      tag_465\n        /* \"#utility.yul\":16434:16458   */\n      tag_466\n        /* \"#utility.yul\":16452:16457   */\n      dup3\n        /* \"#utility.yul\":16434:16458   */\n      tag_255\n      jump\t// in\n    tag_466:\n        /* \"#utility.yul\":16414:16459   */\n      tag_286\n      jump\t// in\n    tag_465:\n        /* \"#utility.yul\":16409:16412   */\n      dup3\n        /* \"#utility.yul\":16402:16460   */\n      mstore\n        /* \"#utility.yul\":16309:16466   */\n      pop\n      pop\n      jump\t// out\n        /* \"#utility.yul\":16472:17151   */\n    tag_227:\n        /* \"#utility.yul\":16668:16671   */\n      0x00\n        /* \"#utility.yul\":16683:16758   */\n      tag_468\n        /* \"#utility.yul\":16754:16757   */\n      dup3\n        /* \"#utility.yul\":16745:16751   */\n      dup8\n        /* \"#utility.yul\":16683:16758   */\n      tag_283\n      jump\t// in\n    tag_468:\n        /* \"#utility.yul\":16783:16785   */\n      0x20\n        /* \"#utility.yul\":16778:16781   */\n      dup3\n        /* \"#utility.yul\":16774:16786   */\n      add\n        /* \"#utility.yul\":16767:16786   */\n      swap2\n      pop\n        /* \"#utility.yul\":16796:16871   */\n      tag_469\n        /* \"#utility.yul\":16867:16870   */\n      dup3\n        /* \"#utility.yul\":16858:16864   */\n      dup7\n        /* \"#utility.yul\":16796:16871   */\n      tag_283\n      jump\t// in\n    tag_469:\n        /* \"#utility.yul\":16896:16898   */\n      0x20\n        /* \"#utility.yul\":16891:16894   */\n      dup3\n        /* \"#utility.yul\":16887:16899   */\n      add\n        /* \"#utility.yul\":16880:16899   */\n      swap2\n      pop\n        /* \"#utility.yul\":16909:16984   */\n      tag_470\n        /* \"#utility.yul\":16980:16983   */\n      dup3\n        /* \"#utility.yul\":16971:16977   */\n      dup6\n        /* \"#utility.yul\":16909:16984   */\n      tag_287\n      jump\t// in\n    tag_470:\n        /* \"#utility.yul\":17009:17011   */\n      0x14\n        /* \"#utility.yul\":17004:17007   */\n      dup3\n        /* \"#utility.yul\":17000:17012   */\n      add\n        /* \"#utility.yul\":16993:17012   */\n      swap2\n      pop\n        /* \"#utility.yul\":17022:17097   */\n      tag_471\n        /* \"#utility.yul\":17093:17096   */\n      dup3\n        /* \"#utility.yul\":17084:17090   */\n      dup5\n        /* \"#utility.yul\":17022:17097   */\n      tag_283\n      jump\t// in\n    tag_471:\n        /* \"#utility.yul\":17122:17124   */\n      0x20\n        /* \"#utility.yul\":17117:17120   */\n      dup3\n        /* \"#utility.yul\":17113:17125   */\n      add\n        /* \"#utility.yul\":17106:17125   */\n      swap2\n      pop\n        /* \"#utility.yul\":17142:17145   */\n      dup2\n        /* \"#utility.yul\":17135:17145   */\n      swap1\n      pop\n        /* \"#utility.yul\":16472:17151   */\n      swap6\n      swap5\n      pop\n      pop\n      pop\n      pop\n      pop\n      jump\t// out\n        /* \"#utility.yul\":17157:17331   */\n    tag_288:\n        /* \"#utility.yul\":17297:17323   */\n      0x416c726561647920636865636b656420696e20746f6461790000000000000000\n        /* \"#utility.yul\":17293:17294   */\n      0x00\n        /* \"#utility.yul\":17285:17291   */\n      dup3\n        /* \"#utility.yul\":17281:17295   */\n      add\n        /* \"#utility.yul\":17274:17324   */\n      mstore\n        /* \"#utility.yul\":17157:17331   */\n      pop\n      jump\t// out\n        /* \"#utility.yul\":17337:17703   */\n    tag_289:\n        /* \"#utility.yul\":17479:17482   */\n      0x00\n        /* \"#utility.yul\":17500:17567   */\n      tag_474\n        /* \"#utility.yul\":17564:17566   */\n      0x18\n        /* \"#utility.yul\":17559:17562   */\n      dup4\n        /* \"#utility.yul\":17500:17567   */\n      tag_247\n      jump\t// in\n    tag_474:\n        /* \"#utility.yul\":17493:17567   */\n      swap2\n      pop\n        /* \"#utility.yul\":17576:17669   */\n      tag_475\n        /* \"#utility.yul\":17665:17668   */\n      dup3\n        /* \"#utility.yul\":17576:17669   */\n      tag_288\n      jump\t// in\n    tag_475:\n        /* \"#utility.yul\":17694:17696   */\n      0x20\n        /* \"#utility.yul\":17689:17692   */\n      dup3\n        /* \"#utility.yul\":17685:17697   */\n      add\n        /* \"#utility.yul\":17678:17697   */\n      swap1\n      pop\n        /* \"#utility.yul\":17337:17703   */\n      swap2\n      swap1\n      pop\n      jump\t// out\n        /* \"#utility.yul\":17709:18128   */\n    tag_233:\n        /* \"#utility.yul\":17875:17879   */\n      0x00\n        /* \"#utility.yul\":17913:17915   */\n      0x20\n        /* \"#utility.yul\":17902:17911   */\n      dup3\n        /* \"#utility.yul\":17898:17916   */\n      add\n        /* \"#utility.yul\":17890:17916   */\n      swap1\n      pop\n        /* \"#utility.yul\":17962:17971   */\n      dup2\n        /* \"#utility.yul\":17956:17960   */\n      dup2\n        /* \"#utility.yul\":17952:17972   */\n      sub\n        /* \"#utility.yul\":17948:17949   */\n      0x00\n        /* \"#utility.yul\":17937:17946   */\n      dup4\n        /* \"#utility.yul\":17933:17950   */\n      add\n        /* \"#utility.yul\":17926:17973   */\n      mstore\n        /* \"#utility.yul\":17990:18121   */\n      tag_477\n        /* \"#utility.yul\":18116:18120   */\n      dup2\n        /* \"#utility.yul\":17990:18121   */\n      tag_289\n      jump\t// in\n    tag_477:\n        /* \"#utility.yul\":17982:18121   */\n      swap1\n      pop\n        /* \"#utility.yul\":17709:18128   */\n      swap2\n      swap1\n      pop\n      jump\t// out\n        /* \"#utility.yul\":18134:18466   */\n    tag_241:\n        /* \"#utility.yul\":18255:18259   */\n      0x00\n        /* \"#utility.yul\":18293:18295   */\n      0x40\n        /* \"#utility.yul\":18282:18291   */\n      dup3\n        /* \"#utility.yul\":18278:18296   */\n      add\n        /* \"#utility.yul\":18270:18296   */\n      swap1\n      pop\n        /* \"#utility.yul\":18306:18377   */\n      tag_479\n        /* \"#utility.yul\":18374:18375   */\n      0x00\n        /* \"#utility.yul\":18363:18372   */\n      dup4\n        /* \"#utility.yul\":18359:18376   */\n      add\n        /* \"#utility.yul\":18350:18356   */\n      dup6\n        /* \"#utility.yul\":18306:18377   */\n      tag_263\n      jump\t// in\n    tag_479:\n        /* \"#utility.yul\":18387:18459   */\n      tag_480\n        /* \"#utility.yul\":18455:18457   */\n      0x20\n        /* \"#utility.yul\":18444:18453   */\n      dup4\n        /* \"#utility.yul\":18440:18458   */\n      add\n        /* \"#utility.yul\":18431:18437   */\n      dup5\n        /* \"#utility.yul\":18387:18459   */\n      tag_263\n      jump\t// in\n    tag_480:\n        /* \"#utility.yul\":18134:18466   */\n      swap4\n      swap3\n      pop\n      pop\n      pop\n      jump\t// out\n\n    auxdata: 0xa2646970667358221220a73c61ae1f6c3fde7c2a7371cb3e3e786feabd7732a01e7dad8ac20ff5db6a5f64736f6c63430008120033\n}\n",
				"bytecode": {
					"linkReferences": {},
					"object": "60806040526012600560006101000a81548160ff021916908360ff16021790555060646008553480156200003257600080fd5b5060405162002d8a38038062002d8a83398181016040528101906200005891906200038d565b82828282600390816200006c919062000672565b5081600490816200007e919062000672565b50620000ab81600560009054906101000a900460ff1660ff16600a0a62030d4002620000b760201b60201c565b505050505050620007f1565b806000808473ffffffffffffffffffffffffffffffffffffffff1673ffffffffffffffffffffffffffffffffffffffff168152602001908152602001600020600082825462000107919062000788565b92505081905550806002600082825462000122919062000788565b925050819055508173ffffffffffffffffffffffffffffffffffffffff16600073ffffffffffffffffffffffffffffffffffffffff167fddf252ad1be2c89b69c2b068fc378daa952ba7f163c4a11628f55a4df523b3ef83604051620001899190620007d4565b60405180910390a35050565b6000604051905090565b600080fd5b600080fd5b600080fd5b600080fd5b6000601f19601f8301169050919050565b7f4e487b7100000000000000000000000000000000000000000000000000000000600052604160045260246000fd5b620001fe82620001b3565b810181811067ffffffffffffffff8211171562000220576200021f620001c4565b5b80604052505050565b60006200023562000195565b9050620002438282620001f3565b919050565b600067ffffffffffffffff821115620002665762000265620001c4565b5b6200027182620001b3565b9050602081019050919050565b60005b838110156200029e57808201518184015260208101905062000281565b60008484015250505050565b6000620002c1620002bb8462000248565b62000229565b905082815260208101848484011115620002e057620002df620001ae565b5b620002ed8482856200027e565b509392505050565b600082601f8301126200030d576200030c620001a9565b5b81516200031f848260208601620002aa565b91505092915050565b600073ffffffffffffffffffffffffffffffffffffffff82169050919050565b6000620003558262000328565b9050919050565b620003678162000348565b81146200037357600080fd5b50565b60008151905062000387816200035c565b92915050565b600080600060608486031215620003a957620003a86200019f565b5b600084015167ffffffffffffffff811115620003ca57620003c9620001a4565b5b620003d886828701620002f5565b935050602084015167ffffffffffffffff811115620003fc57620003fb620001a4565b5b6200040a86828701620002f5565b92505060406200041d8682870162000376565b9150509250925092565b600081519050919050565b7f4e487b7100000000000000000000000000000000000000000000000000000000600052602260045260246000fd5b600060028204905060018216806200047a57607f821691505b60208210810362000490576200048f62000432565b5b50919050565b60008190508160005260206000209050919050565b60006020601f8301049050919050565b600082821b905092915050565b600060088302620004fa7fffffffffffffffffffffffffffffffffffffffffffffffffffffffffffffffff82620004bb565b620005068683620004bb565b95508019841693508086168417925050509392505050565b6000819050919050565b6000819050919050565b6000620005536200054d62000547846200051e565b62000528565b6200051e565b9050919050565b6000819050919050565b6200056f8362000532565b620005876200057e826200055a565b848454620004c8565b825550505050565b600090565b6200059e6200058f565b620005ab81848462000564565b505050565b5b81811015620005d357620005c760008262000594565b600181019050620005b1565b5050565b601f8211156200062257620005ec8162000496565b620005f784620004ab565b8101602085101562000607578190505b6200061f6200061685620004ab565b830182620005b0565b50505b505050565b600082821c905092915050565b6000620006476000198460080262000627565b1980831691505092915050565b600062000662838362000634565b9150826002028217905092915050565b6200067d8262000427565b67ffffffffffffffff811115620006995762000698620001c4565b5b620006a5825462000461565b620006b2828285620005d7565b600060209050601f831160018114620006ea5760008415620006d5578287015190505b620006e1858262000654565b86555062000751565b601f198416620006fa8662000496565b60005b828110156200072457848901518255600182019150602085019450602081019050620006fd565b8683101562000744578489015162000740601f89168262000634565b8355505b6001600288020188555050505b505050505050565b7f4e487b7100000000000000000000000000000000000000000000000000000000600052601160045260246000fd5b600062000795826200051e565b9150620007a2836200051e565b9250828201905080821115620007bd57620007bc62000759565b5b92915050565b620007ce816200051e565b82525050565b6000602082019050620007eb6000830184620007c3565b92915050565b61258980620008016000396000f3fe608060405234801561001057600080fd5b50600436106101215760003560e01c80637f93ee98116100ad578063baeb071811610071578063baeb07181461036a578063bb47e61a14610388578063bd6e4e75146103a6578063dd62ed3e146103d6578063f1a19b6c1461040657610121565b80637f93ee981461028c57806395d89b41146102bc578063a6c1ba5f146102da578063a9059cbb1461030a578063b863bd371461033a57610121565b8063313ce567116100f4578063313ce567146101c257806335edf0b0146101e057806342966c68146102105780636d6ae1a81461022c57806370a082311461025c57610121565b806306fdde0314610126578063095ea7b31461014457806318160ddd1461017457806323b872dd14610192575b600080fd5b61012e610436565b60405161013b9190611bce565b60405180910390f35b61015e60048036038101906101599190611c89565b6104c4565b60405161016b9190611ce4565b60405180910390f35b61017c6105b6565b6040516101899190611d0e565b60405180910390f35b6101ac60048036038101906101a79190611d29565b6105bc565b6040516101b99190611ce4565b60405180910390f35b6101ca6108ab565b6040516101d79190611d98565b60405180910390f35b6101fa60048036038101906101f59190611db3565b6108be565b6040516102079190611d0e565b60405180910390f35b61022a60048036038101906102259190611de0565b6108d6565b005b61024660048036038101906102419190611de0565b610a2e565b6040516102539190611bce565b60405180910390f35b61027660048036038101906102719190611db3565b611388565b6040516102839190611d0e565b60405180910390f35b6102a660048036038101906102a19190611db3565b6113a0565b6040516102b39190611d0e565b60405180910390f35b6102c46113b8565b6040516102d19190611bce565b60405180910390f35b6102f460048036038101906102ef9190611de0565b611446565b6040516103019190611d0e565b60405180910390f35b610324600480360381019061031f9190611c89565b61156f565b6040516103319190611ce4565b60405180910390f35b610354600480360381019061034f9190611de0565b61170b565b6040516103619190611d0e565b60405180910390f35b610372611744565b60405161037f9190611d0e565b60405180910390f35b610390611a0b565b60405161039d9190611d0e565b60405180910390f35b6103c060048036038101906103bb9190611db3565b611a11565b6040516103cd9190611d0e565b60405180910390f35b6103f060048036038101906103eb9190611e0d565b611a29565b6040516103fd9190611d0e565b60405180910390f35b610420600480360381019061041b9190611db3565b611a4e565b60405161042d9190611d0e565b60405180910390f35b6003805461044390611e7c565b80601f016020809104026020016040519081016040528092919081815260200182805461046f90611e7c565b80156104bc5780601f10610491576101008083540402835291602001916104bc565b820191906000526020600020905b81548152906001019060200180831161049f57829003601f168201915b505050505081565b600081600160003373ffffffffffffffffffffffffffffffffffffffff1673ffffffffffffffffffffffffffffffffffffffff16815260200190815260200160002060008573ffffffffffffffffffffffffffffffffffffffff1673ffffffffffffffffffffffffffffffffffffffff168152602001908152602001600020819055508273ffffffffffffffffffffffffffffffffffffffff163373ffffffffffffffffffffffffffffffffffffffff167f8c5be1e5ebec7d5bd14f71427d1e84f3dd0314c0f7b2291e5b200ac8c7c3b925846040516105a49190611d0e565b60405180910390a36001905092915050565b60025481565b6000816000808673ffffffffffffffffffffffffffffffffffffffff1673ffffffffffffffffffffffffffffffffffffffff16815260200190815260200160002054101561063f576040517f08c379a000000000000000000000000000000000000000000000000000000000815260040161063690611ef9565b60405180910390fd5b81600160008673ffffffffffffffffffffffffffffffffffffffff1673ffffffffffffffffffffffffffffffffffffffff16815260200190815260200160002060003373ffffffffffffffffffffffffffffffffffffffff1673ffffffffffffffffffffffffffffffffffffffff1681526020019081526020016000205410156106fe576040517f08c379a00000000000000000000000000000000000000000000000000000000081526004016106f590611f65565b60405180910390fd5b81600160008673ffffffffffffffffffffffffffffffffffffffff1673ffffffffffffffffffffffffffffffffffffffff16815260200190815260200160002060003373ffffffffffffffffffffffffffffffffffffffff1673ffffffffffffffffffffffffffffffffffffffff168152602001908152602001600020600082825461078a9190611fb4565b92505081905550816000808673ffffffffffffffffffffffffffffffffffffffff1673ffffffffffffffffffffffffffffffffffffffff16815260200190815260200160002060008282546107df9190611fb4565b92505081905550816000808573ffffffffffffffffffffffffffffffffffffffff1673ffffffffffffffffffffffffffffffffffffffff16815260200190815260200160002060008282546108349190611fe8565b925050819055508273ffffffffffffffffffffffffffffffffffffffff168473ffffffffffffffffffffffffffffffffffffffff167fddf252ad1be2c89b69c2b068fc378daa952ba7f163c4a11628f55a4df523b3ef846040516108989190611d0e565b60405180910390a3600190509392505050565b600560009054906101000a900460ff1681565b60076020528060005260406000206000915090505481565b806000803373ffffffffffffffffffffffffffffffffffffffff1673ffffffffffffffffffffffffffffffffffffffff168152602001908152602001600020541015610957576040517f08c379a000000000000000000000000000000000000000000000000000000000815260040161094e9061208e565b60405180910390fd5b806000803373ffffffffffffffffffffffffffffffffffffffff1673ffffffffffffffffffffffffffffffffffffffff16815260200190815260200160002060008282546109a59190611fb4565b9250508190555080600260008282546109be9190611fb4565b92505081905550600073ffffffffffffffffffffffffffffffffffffffff163373ffffffffffffffffffffffffffffffffffffffff167fddf252ad1be2c89b69c2b068fc378daa952ba7f163c4a11628f55a4df523b3ef83604051610a239190611d0e565b60405180910390a350565b606060006201518061708042610a449190611fe8565b610a4e91906120dd565b9050600081600960003373ffffffffffffffffffffffffffffffffffffffff1673ffffffffffffffffffffffffffffffffffffffff168152602001908152602001600020541015610b235781600960003373ffffffffffffffffffffffffffffffffffffffff1673ffffffffffffffffffffffffffffffffffffffff168152602001908152602001600020819055506000600a60003373ffffffffffffffffffffffffffffffffffffffff1673ffffffffffffffffffffffffffffffffffffffff168152602001908152602001600020819055505b6003600a60003373ffffffffffffffffffffffffffffffffffffffff1673ffffffffffffffffffffffffffffffffffffffff1681526020019081526020016000205410610ba5576040517f08c379a0000000000000000000000000000000000000000000000000000000008152600401610b9c9061215a565b60405180910390fd5b6001600a60003373ffffffffffffffffffffffffffffffffffffffff1673ffffffffffffffffffffffffffffffffffffffff1681526020019081526020016000205403610df257600560009054906101000a900460ff1660ff16600a610c0b91906122ad565b6064610c1791906122f8565b6000803373ffffffffffffffffffffffffffffffffffffffff1673ffffffffffffffffffffffffffffffffffffffff168152602001908152602001600020541015610c97576040517f08c379a0000000000000000000000000000000000000000000000000000000008152600401610c8e90612386565b60405180910390fd5b600560009054906101000a900460ff1660ff16600a610cb691906122ad565b6064610cc291906122f8565b6000803373ffffffffffffffffffffffffffffffffffffffff1673ffffffffffffffffffffffffffffffffffffffff1681526020019081526020016000206000828254610d0f9190611fb4565b92505081905550600560009054906101000a900460ff1660ff16600a610d3591906122ad565b6064610d4191906122f8565b60026000828254610d529190611fb4565b9250508190555060649050600073ffffffffffffffffffffffffffffffffffffffff163373ffffffffffffffffffffffffffffffffffffffff167fddf252ad1be2c89b69c2b068fc378daa952ba7f163c4a11628f55a4df523b3ef600560009054906101000a900460ff1660ff16600a610dcc91906122ad565b6064610dd891906122f8565b604051610de59190611d0e565b60405180910390a361103c565b6002600a60003373ffffffffffffffffffffffffffffffffffffffff1673ffffffffffffffffffffffffffffffffffffffff168152602001908152602001600020540361103b57600560009054906101000a900460ff1660ff16600a610e5891906122ad565b60c8610e6491906122f8565b6000803373ffffffffffffffffffffffffffffffffffffffff1673ffffffffffffffffffffffffffffffffffffffff168152602001908152602001600020541015610ee4576040517f08c379a0000000000000000000000000000000000000000000000000000000008152600401610edb90612386565b60405180910390fd5b600560009054906101000a900460ff1660ff16600a610f0391906122ad565b60c8610f0f91906122f8565b6000803373ffffffffffffffffffffffffffffffffffffffff1673ffffffffffffffffffffffffffffffffffffffff1681526020019081526020016000206000828254610f5c9190611fb4565b92505081905550600560009054906101000a900460ff1660ff16600a610f8291906122ad565b60c8610f8e91906122f8565b60026000828254610f9f9190611fb4565b9250508190555060c89050600073ffffffffffffffffffffffffffffffffffffffff163373ffffffffffffffffffffffffffffffffffffffff167fddf252ad1be2c89b69c2b068fc378daa952ba7f163c4a11628f55a4df523b3ef600560009054906101000a900460ff1660ff16600a61101991906122ad565b60c861102591906122f8565b6040516110329190611d0e565b60405180910390a35b5b6001600a60003373ffffffffffffffffffffffffffffffffffffffff1673ffffffffffffffffffffffffffffffffffffffff168152602001908152602001600020600082825461108c9190611fe8565b925050819055506000600160646110a28761170b565b6110ac91906123a6565b6110b69190611fe8565b9050600181116110fd576040518060400160405280600581526020017f746f6b656e0000000000000000000000000000000000000000000000000000008152509350611330565b60058111611187576040518060400160405280600581526020017f726573657400000000000000000000000000000000000000000000000000000081525093506000600a60003373ffffffffffffffffffffffffffffffffffffffff1673ffffffffffffffffffffffffffffffffffffffff1681526020019081526020016000208190555061132f565b600a8111611201576040518060400160405280600781526020017f3838382050454e0000000000000000000000000000000000000000000000000081525093506111fc33600560009054906101000a900460ff1660ff16600a6111ea91906122ad565b6103786111f791906122f8565b611a66565b61132e565b60148111611246576040518060400160405280600781526020017f6e6f7468696e6700000000000000000000000000000000000000000000000000815250935061132d565b603281116112bf576040518060400160405280600781526020017f3230302050454e0000000000000000000000000000000000000000000000000081525093506112ba33600560009054906101000a900460ff1660ff16600a6112a991906122ad565b60c86112b591906122f8565b611a66565b61132c565b6040518060400160405280600781526020017f3130302050454e00000000000000000000000000000000000000000000000000815250935061132b33600560009054906101000a900460ff1660ff16600a61131a91906122ad565b606461132691906122f8565b611a66565b5b5b5b5b5b3373ffffffffffffffffffffffffffffffffffffffff167f76775f6fd80273d051ffb53fcafdf73d3f7933b79207e60a978184a1fb72b32d85846040516113789291906123d7565b60405180910390a2505050919050565b60006020528060005260406000206000915090505481565b600a6020528060005260406000206000915090505481565b600480546113c590611e7c565b80601f01602080910402602001604051908101604052809291908181526020018280546113f190611e7c565b801561143e5780601f106114135761010080835404028352916020019161143e565b820191906000526020600020905b81548152906001019060200180831161142157829003601f168201915b505050505081565b6000806001905060008303611465576009816114629190611fe8565b90505b60006005600760003373ffffffffffffffffffffffffffffffffffffffff1673ffffffffffffffffffffffffffffffffffffffff168152602001908152602001600020546114b391906123a6565b036114c8576001816114c59190611fe8565b90505b600062015180617080426114dc9190611fe8565b6114e691906120dd565b9050600060076004836114f99190611fe8565b61150391906123a6565b9050600081148015611516575060008514155b1561152b576001836115289190611fe8565b92505b600560009054906101000a900460ff1660ff16600a61154a91906122ad565b60085461155791906122f8565b8361156291906122f8565b9250829350505050919050565b6000816000803373ffffffffffffffffffffffffffffffffffffffff1673ffffffffffffffffffffffffffffffffffffffff1681526020019081526020016000205410156115f2576040517f08c379a00000000000000000000000000000000000000000000000000000000081526004016115e990611ef9565b60405180910390fd5b816000803373ffffffffffffffffffffffffffffffffffffffff1673ffffffffffffffffffffffffffffffffffffffff16815260200190815260200160002060008282546116409190611fb4565b92505081905550816000808573ffffffffffffffffffffffffffffffffffffffff1673ffffffffffffffffffffffffffffffffffffffff16815260200190815260200160002060008282546116959190611fe8565b925050819055508273ffffffffffffffffffffffffffffffffffffffff163373ffffffffffffffffffffffffffffffffffffffff167fddf252ad1be2c89b69c2b068fc378daa952ba7f163c4a11628f55a4df523b3ef846040516116f99190611d0e565b60405180910390a36001905092915050565b6000424433846040516020016117249493929190612470565b6040516020818303038152906040528051906020012060001c9050919050565b60008062015180617080426117599190611fe8565b61176391906120dd565b90506000600760003373ffffffffffffffffffffffffffffffffffffffff1673ffffffffffffffffffffffffffffffffffffffff16815260200190815260200160002054905081600660003373ffffffffffffffffffffffffffffffffffffffff1673ffffffffffffffffffffffffffffffffffffffff168152602001908152602001600020541061182a576040517f08c379a00000000000000000000000000000000000000000000000000000000081526004016118219061250a565b60405180910390fd5b6001826118379190611fb4565b600660003373ffffffffffffffffffffffffffffffffffffffff1673ffffffffffffffffffffffffffffffffffffffff16815260200190815260200160002054036118d8576001600760003373ffffffffffffffffffffffffffffffffffffffff1673ffffffffffffffffffffffffffffffffffffffff16815260200190815260200160002060008282546118cc9190611fe8565b9250508190555061191e565b6001600760003373ffffffffffffffffffffffffffffffffffffffff1673ffffffffffffffffffffffffffffffffffffffff168152602001908152602001600020819055505b81600660003373ffffffffffffffffffffffffffffffffffffffff1673ffffffffffffffffffffffffffffffffffffffff1681526020019081526020016000208190555061196b81611446565b92506119773384611a66565b3373ffffffffffffffffffffffffffffffffffffffff167fb1ea073ac09a6b73cc1842f3dbda1736e0c0d94b33aac1983f2612a5d115b4c784600760003373ffffffffffffffffffffffffffffffffffffffff1673ffffffffffffffffffffffffffffffffffffffff168152602001908152602001600020546040516119fe92919061252a565b60405180910390a2505090565b60085481565b60096020528060005260406000206000915090505481565b6001602052816000526040600020602052806000526040600020600091509150505481565b60066020528060005260406000206000915090505481565b806000808473ffffffffffffffffffffffffffffffffffffffff1673ffffffffffffffffffffffffffffffffffffffff1681526020019081526020016000206000828254611ab49190611fe8565b925050819055508060026000828254611acd9190611fe8565b925050819055508173ffffffffffffffffffffffffffffffffffffffff16600073ffffffffffffffffffffffffffffffffffffffff167fddf252ad1be2c89b69c2b068fc378daa952ba7f163c4a11628f55a4df523b3ef83604051611b329190611d0e565b60405180910390a35050565b600081519050919050565b600082825260208201905092915050565b60005b83811015611b78578082015181840152602081019050611b5d565b60008484015250505050565b6000601f19601f8301169050919050565b6000611ba082611b3e565b611baa8185611b49565b9350611bba818560208601611b5a565b611bc381611b84565b840191505092915050565b60006020820190508181036000830152611be88184611b95565b905092915050565b600080fd5b600073ffffffffffffffffffffffffffffffffffffffff82169050919050565b6000611c2082611bf5565b9050919050565b611c3081611c15565b8114611c3b57600080fd5b50565b600081359050611c4d81611c27565b92915050565b6000819050919050565b611c6681611c53565b8114611c7157600080fd5b50565b600081359050611c8381611c5d565b92915050565b60008060408385031215611ca057611c9f611bf0565b5b6000611cae85828601611c3e565b9250506020611cbf85828601611c74565b9150509250929050565b60008115159050919050565b611cde81611cc9565b82525050565b6000602082019050611cf96000830184611cd5565b92915050565b611d0881611c53565b82525050565b6000602082019050611d236000830184611cff565b92915050565b600080600060608486031215611d4257611d41611bf0565b5b6000611d5086828701611c3e565b9350506020611d6186828701611c3e565b9250506040611d7286828701611c74565b9150509250925092565b600060ff82169050919050565b611d9281611d7c565b82525050565b6000602082019050611dad6000830184611d89565b92915050565b600060208284031215611dc957611dc8611bf0565b5b6000611dd784828501611c3e565b91505092915050565b600060208284031215611df657611df5611bf0565b5b6000611e0484828501611c74565b91505092915050565b60008060408385031215611e2457611e23611bf0565b5b6000611e3285828601611c3e565b9250506020611e4385828601611c3e565b9150509250929050565b7f4e487b7100000000000000000000000000000000000000000000000000000000600052602260045260246000fd5b60006002820490506001821680611e9457607f821691505b602082108103611ea757611ea6611e4d565b5b50919050565b7f45524332303a20696e73756666696369656e742062616c616e63650000000000600082015250565b6000611ee3601b83611b49565b9150611eee82611ead565b602082019050919050565b60006020820190508181036000830152611f1281611ed6565b9050919050565b7f45524332303a20616c6c6f77616e636520746f6f206c6f770000000000000000600082015250565b6000611f4f601883611b49565b9150611f5a82611f19565b602082019050919050565b60006020820190508181036000830152611f7e81611f42565b9050919050565b7f4e487b7100000000000000000000000000000000000000000000000000000000600052601160045260246000fd5b6000611fbf82611c53565b9150611fca83611c53565b9250828203905081811115611fe257611fe1611f85565b5b92915050565b6000611ff382611c53565b9150611ffe83611c53565b925082820190508082111561201657612015611f85565b5b92915050565b7f45524332303a20696e73756666696369656e742062616c616e636520746f206260008201527f75726e0000000000000000000000000000000000000000000000000000000000602082015250565b6000612078602383611b49565b91506120838261201c565b604082019050919050565b600060208201905081810360008301526120a78161206b565b9050919050565b7f4e487b7100000000000000000000000000000000000000000000000000000000600052601260045260246000fd5b60006120e882611c53565b91506120f383611c53565b925082612103576121026120ae565b5b828204905092915050565b7f4d61782033206472617773207065722064617900000000000000000000000000600082015250565b6000612144601383611b49565b915061214f8261210e565b602082019050919050565b6000602082019050818103600083015261217381612137565b9050919050565b60008160011c9050919050565b6000808291508390505b60018511156121d1578086048111156121ad576121ac611f85565b5b60018516156121bc5780820291505b80810290506121ca8561217a565b9450612191565b94509492505050565b6000826121ea57600190506122a6565b816121f857600090506122a6565b816001811461220e576002811461221857612247565b60019150506122a6565b60ff84111561222a57612229611f85565b5b8360020a91508482111561224157612240611f85565b5b506122a6565b5060208310610133831016604e8410600b841016171561227c5782820a90508381111561227757612276611f85565b5b6122a6565b6122898484846001612187565b925090508184048111156122a05761229f611f85565b5b81810290505b9392505050565b60006122b882611c53565b91506122c383611c53565b92506122f07fffffffffffffffffffffffffffffffffffffffffffffffffffffffffffffffff84846121da565b905092915050565b600061230382611c53565b915061230e83611c53565b925082820261231c81611c53565b9150828204841483151761233357612332611f85565b5b5092915050565b7f4e6f7420656e6f7567682050454e000000000000000000000000000000000000600082015250565b6000612370600e83611b49565b915061237b8261233a565b602082019050919050565b6000602082019050818103600083015261239f81612363565b9050919050565b60006123b182611c53565b91506123bc83611c53565b9250826123cc576123cb6120ae565b5b828206905092915050565b600060408201905081810360008301526123f18185611b95565b90506124006020830184611cff565b9392505050565b6000819050919050565b61242261241d82611c53565b612407565b82525050565b60008160601b9050919050565b600061244082612428565b9050919050565b600061245282612435565b9050919050565b61246a61246582611c15565b612447565b82525050565b600061247c8287612411565b60208201915061248c8286612411565b60208201915061249c8285612459565b6014820191506124ac8284612411565b60208201915081905095945050505050565b7f416c726561647920636865636b656420696e20746f6461790000000000000000600082015250565b60006124f4601883611b49565b91506124ff826124be565b602082019050919050565b60006020820190508181036000830152612523816124e7565b9050919050565b600060408201905061253f6000830185611cff565b61254c6020830184611cff565b939250505056fea2646970667358221220a73c61ae1f6c3fde7c2a7371cb3e3e786feabd7732a01e7dad8ac20ff5db6a5f64736f6c63430008120033",
					"opcodes": "PUSH1 0x80 PUSH1 0x40 MSTORE PUSH1 0x12 PUSH1 0x5 PUSH1 0x0 PUSH2 0x100 EXP DUP2 SLOAD DUP2 PUSH1 0xFF MUL NOT AND SWAP1 DUP4 PUSH1 0xFF AND MUL OR SWAP1 SSTORE POP PUSH1 0x64 PUSH1 0x8 SSTORE CALLVALUE DUP1 ISZERO PUSH3 0x32 JUMPI PUSH1 0x0 DUP1 REVERT JUMPDEST POP PUSH1 0x40 MLOAD PUSH3 0x2D8A CODESIZE SUB DUP1 PUSH3 0x2D8A DUP4 CODECOPY DUP2 DUP2 ADD PUSH1 0x40 MSTORE DUP2 ADD SWAP1 PUSH3 0x58 SWAP2 SWAP1 PUSH3 0x38D JUMP JUMPDEST DUP3 DUP3 DUP3 DUP3 PUSH1 0x3 SWAP1 DUP2 PUSH3 0x6C SWAP2 SWAP1 PUSH3 0x672 JUMP JUMPDEST POP DUP2 PUSH1 0x4 SWAP1 DUP2 PUSH3 0x7E SWAP2 SWAP1 PUSH3 0x672 JUMP JUMPDEST POP PUSH3 0xAB DUP2 PUSH1 0x5 PUSH1 0x0 SWAP1 SLOAD SWAP1 PUSH2 0x100 EXP SWAP1 DIV PUSH1 0xFF AND PUSH1 0xFF AND PUSH1 0xA EXP PUSH3 0x30D40 MUL PUSH3 0xB7 PUSH1 0x20 SHL PUSH1 0x20 SHR JUMP JUMPDEST POP POP POP POP POP POP PUSH3 0x7F1 JUMP JUMPDEST DUP1 PUSH1 0x0 DUP1 DUP5 PUSH20 0xFFFFFFFFFFFFFFFFFFFFFFFFFFFFFFFFFFFFFFFF AND PUSH20 0xFFFFFFFFFFFFFFFFFFFFFFFFFFFFFFFFFFFFFFFF AND DUP2 MSTORE PUSH1 0x20 ADD SWAP1 DUP2 MSTORE PUSH1 0x20 ADD PUSH1 0x0 KECCAK256 PUSH1 0x0 DUP3 DUP3 SLOAD PUSH3 0x107 SWAP2 SWAP1 PUSH3 0x788 JUMP JUMPDEST SWAP3 POP POP DUP2 SWAP1 SSTORE POP DUP1 PUSH1 0x2 PUSH1 0x0 DUP3 DUP3 SLOAD PUSH3 0x122 SWAP2 SWAP1 PUSH3 0x788 JUMP JUMPDEST SWAP3 POP POP DUP2 SWAP1 SSTORE POP DUP2 PUSH20 0xFFFFFFFFFFFFFFFFFFFFFFFFFFFFFFFFFFFFFFFF AND PUSH1 0x0 PUSH20 0xFFFFFFFFFFFFFFFFFFFFFFFFFFFFFFFFFFFFFFFF AND PUSH32 0xDDF252AD1BE2C89B69C2B068FC378DAA952BA7F163C4A11628F55A4DF523B3EF DUP4 PUSH1 0x40 MLOAD PUSH3 0x189 SWAP2 SWAP1 PUSH3 0x7D4 JUMP JUMPDEST PUSH1 0x40 MLOAD DUP1 SWAP2 SUB SWAP1 LOG3 POP POP JUMP JUMPDEST PUSH1 0x0 PUSH1 0x40 MLOAD SWAP1 POP SWAP1 JUMP JUMPDEST PUSH1 0x0 DUP1 REVERT JUMPDEST PUSH1 0x0 DUP1 REVERT JUMPDEST PUSH1 0x0 DUP1 REVERT JUMPDEST PUSH1 0x0 DUP1 REVERT JUMPDEST PUSH1 0x0 PUSH1 0x1F NOT PUSH1 0x1F DUP4 ADD AND SWAP1 POP SWAP2 SWAP1 POP JUMP JUMPDEST PUSH32 0x4E487B7100000000000000000000000000000000000000000000000000000000 PUSH1 0x0 MSTORE PUSH1 0x41 PUSH1 0x4 MSTORE PUSH1 0x24 PUSH1 0x0 REVERT JUMPDEST PUSH3 0x1FE DUP3 PUSH3 0x1B3 JUMP JUMPDEST DUP2 ADD DUP2 DUP2 LT PUSH8 0xFFFFFFFFFFFFFFFF DUP3 GT OR ISZERO PUSH3 0x220 JUMPI PUSH3 0x21F PUSH3 0x1C4 JUMP JUMPDEST JUMPDEST DUP1 PUSH1 0x40 MSTORE POP POP POP JUMP JUMPDEST PUSH1 0x0 PUSH3 0x235 PUSH3 0x195 JUMP JUMPDEST SWAP1 POP PUSH3 0x243 DUP3 DUP3 PUSH3 0x1F3 JUMP JUMPDEST SWAP2 SWAP1 POP JUMP JUMPDEST PUSH1 0x0 PUSH8 0xFFFFFFFFFFFFFFFF DUP3 GT ISZERO PUSH3 0x266 JUMPI PUSH3 0x265 PUSH3 0x1C4 JUMP JUMPDEST JUMPDEST PUSH3 0x271 DUP3 PUSH3 0x1B3 JUMP JUMPDEST SWAP1 POP PUSH1 0x20 DUP2 ADD SWAP1 POP SWAP2 SWAP1 POP JUMP JUMPDEST PUSH1 0x0 JUMPDEST DUP4 DUP2 LT ISZERO PUSH3 0x29E JUMPI DUP1 DUP3 ADD MLOAD DUP2 DUP5 ADD MSTORE PUSH1 0x20 DUP2 ADD SWAP1 POP PUSH3 0x281 JUMP JUMPDEST PUSH1 0x0 DUP5 DUP5 ADD MSTORE POP POP POP POP JUMP JUMPDEST PUSH1 0x0 PUSH3 0x2C1 PUSH3 0x2BB DUP5 PUSH3 0x248 JUMP JUMPDEST PUSH3 0x229 JUMP JUMPDEST SWAP1 POP DUP3 DUP2 MSTORE PUSH1 0x20 DUP2 ADD DUP5 DUP5 DUP5 ADD GT ISZERO PUSH3 0x2E0 JUMPI PUSH3 0x2DF PUSH3 0x1AE JUMP JUMPDEST JUMPDEST PUSH3 0x2ED DUP5 DUP3 DUP6 PUSH3 0x27E JUMP JUMPDEST POP SWAP4 SWAP3 POP POP POP JUMP JUMPDEST PUSH1 0x0 DUP3 PUSH1 0x1F DUP4 ADD SLT PUSH3 0x30D JUMPI PUSH3 0x30C PUSH3 0x1A9 JUMP JUMPDEST JUMPDEST DUP2 MLOAD PUSH3 0x31F DUP5 DUP3 PUSH1 0x20 DUP7 ADD PUSH3 0x2AA JUMP JUMPDEST SWAP2 POP POP SWAP3 SWAP2 POP POP JUMP JUMPDEST PUSH1 0x0 PUSH20 0xFFFFFFFFFFFFFFFFFFFFFFFFFFFFFFFFFFFFFFFF DUP3 AND SWAP1 POP SWAP2 SWAP1 POP JUMP JUMPDEST PUSH1 0x0 PUSH3 0x355 DUP3 PUSH3 0x328 JUMP JUMPDEST SWAP1 POP SWAP2 SWAP1 POP JUMP JUMPDEST PUSH3 0x367 DUP2 PUSH3 0x348 JUMP JUMPDEST DUP2 EQ PUSH3 0x373 JUMPI PUSH1 0x0 DUP1 REVERT JUMPDEST POP JUMP JUMPDEST PUSH1 0x0 DUP2 MLOAD SWAP1 POP PUSH3 0x387 DUP2 PUSH3 0x35C JUMP JUMPDEST SWAP3 SWAP2 POP POP JUMP JUMPDEST PUSH1 0x0 DUP1 PUSH1 0x0 PUSH1 0x60 DUP5 DUP7 SUB SLT ISZERO PUSH3 0x3A9 JUMPI PUSH3 0x3A8 PUSH3 0x19F JUMP JUMPDEST JUMPDEST PUSH1 0x0 DUP5 ADD MLOAD PUSH8 0xFFFFFFFFFFFFFFFF DUP2 GT ISZERO PUSH3 0x3CA JUMPI PUSH3 0x3C9 PUSH3 0x1A4 JUMP JUMPDEST JUMPDEST PUSH3 0x3D8 DUP7 DUP3 DUP8 ADD PUSH3 0x2F5 JUMP JUMPDEST SWAP4 POP POP PUSH1 0x20 DUP5 ADD MLOAD PUSH8 0xFFFFFFFFFFFFFFFF DUP2 GT ISZERO PUSH3 0x3FC JUMPI PUSH3 0x3FB PUSH3 0x1A4 JUMP JUMPDEST JUMPDEST PUSH3 0x40A DUP7 DUP3 DUP8 ADD PUSH3 0x2F5 JUMP JUMPDEST SWAP3 POP POP PUSH1 0x40 PUSH3 0x41D DUP7 DUP3 DUP8 ADD PUSH3 0x376 JUMP JUMPDEST SWAP2 POP POP SWAP3 POP SWAP3 POP SWAP3 JUMP JUMPDEST PUSH1 0x0 DUP2 MLOAD SWAP1 POP SWAP2 SWAP1 POP JUMP JUMPDEST PUSH32 0x4E487B7100000000000000000000000000000000000000000000000000000000 PUSH1 0x0 MSTORE PUSH1 0x22 PUSH1 0x4 MSTORE PUSH1 0x24 PUSH1 0x0 REVERT JUMPDEST PUSH1 0x0 PUSH1 0x2 DUP3 DIV SWAP1 POP PUSH1 0x1 DUP3 AND DUP1 PUSH3 0x47A JUMPI PUSH1 0x7F DUP3 AND SWAP2 POP JUMPDEST PUSH1 0x20 DUP3 LT DUP2 SUB PUSH3 0x490 JUMPI PUSH3 0x48F PUSH3 0x432 JUMP JUMPDEST JUMPDEST POP SWAP2 SWAP1 POP JUMP JUMPDEST PUSH1 0x0 DUP2 SWAP1 POP DUP2 PUSH1 0x0 MSTORE PUSH1 0x20 PUSH1 0x0 KECCAK256 SWAP1 POP SWAP2 SWAP1 POP JUMP JUMPDEST PUSH1 0x0 PUSH1 0x20 PUSH1 0x1F DUP4 ADD DIV SWAP1 POP SWAP2 SWAP1 POP JUMP JUMPDEST PUSH1 0x0 DUP3 DUP3 SHL SWAP1 POP SWAP3 SWAP2 POP POP JUMP JUMPDEST PUSH1 0x0 PUSH1 0x8 DUP4 MUL PUSH3 0x4FA PUSH32 0xFFFFFFFFFFFFFFFFFFFFFFFFFFFFFFFFFFFFFFFFFFFFFFFFFFFFFFFFFFFFFFFF DUP3 PUSH3 0x4BB JUMP JUMPDEST PUSH3 0x506 DUP7 DUP4 PUSH3 0x4BB JUMP JUMPDEST SWAP6 POP DUP1 NOT DUP5 AND SWAP4 POP DUP1 DUP7 AND DUP5 OR SWAP3 POP POP POP SWAP4 SWAP3 POP POP POP JUMP JUMPDEST PUSH1 0x0 DUP2 SWAP1 POP SWAP2 SWAP1 POP JUMP JUMPDEST PUSH1 0x0 DUP2 SWAP1 POP SWAP2 SWAP1 POP JUMP JUMPDEST PUSH1 0x0 PUSH3 0x553 PUSH3 0x54D PUSH3 0x547 DUP5 PUSH3 0x51E JUMP JUMPDEST PUSH3 0x528 JUMP JUMPDEST PUSH3 0x51E JUMP JUMPDEST SWAP1 POP SWAP2 SWAP1 POP JUMP JUMPDEST PUSH1 0x0 DUP2 SWAP1 POP SWAP2 SWAP1 POP JUMP JUMPDEST PUSH3 0x56F DUP4 PUSH3 0x532 JUMP JUMPDEST PUSH3 0x587 PUSH3 0x57E DUP3 PUSH3 0x55A JUMP JUMPDEST DUP5 DUP5 SLOAD PUSH3 0x4C8 JUMP JUMPDEST DUP3 SSTORE POP POP POP POP JUMP JUMPDEST PUSH1 0x0 SWAP1 JUMP JUMPDEST PUSH3 0x59E PUSH3 0x58F JUMP JUMPDEST PUSH3 0x5AB DUP2 DUP5 DUP5 PUSH3 0x564 JUMP JUMPDEST POP POP POP JUMP JUMPDEST JUMPDEST DUP2 DUP2 LT ISZERO PUSH3 0x5D3 JUMPI PUSH3 0x5C7 PUSH1 0x0 DUP3 PUSH3 0x594 JUMP JUMPDEST PUSH1 0x1 DUP2 ADD SWAP1 POP PUSH3 0x5B1 JUMP JUMPDEST POP POP JUMP JUMPDEST PUSH1 0x1F DUP3 GT ISZERO PUSH3 0x622 JUMPI PUSH3 0x5EC DUP2 PUSH3 0x496 JUMP JUMPDEST PUSH3 0x5F7 DUP5 PUSH3 0x4AB JUMP JUMPDEST DUP2 ADD PUSH1 0x20 DUP6 LT ISZERO PUSH3 0x607 JUMPI DUP2 SWAP1 POP JUMPDEST PUSH3 0x61F PUSH3 0x616 DUP6 PUSH3 0x4AB JUMP JUMPDEST DUP4 ADD DUP3 PUSH3 0x5B0 JUMP JUMPDEST POP POP JUMPDEST POP POP POP JUMP JUMPDEST PUSH1 0x0 DUP3 DUP3 SHR SWAP1 POP SWAP3 SWAP2 POP POP JUMP JUMPDEST PUSH1 0x0 PUSH3 0x647 PUSH1 0x0 NOT DUP5 PUSH1 0x8 MUL PUSH3 0x627 JUMP JUMPDEST NOT DUP1 DUP4 AND SWAP2 POP POP SWAP3 SWAP2 POP POP JUMP JUMPDEST PUSH1 0x0 PUSH3 0x662 DUP4 DUP4 PUSH3 0x634 JUMP JUMPDEST SWAP2 POP DUP3 PUSH1 0x2 MUL DUP3 OR SWAP1 POP SWAP3 SWAP2 POP POP JUMP JUMPDEST PUSH3 0x67D DUP3 PUSH3 0x427 JUMP JUMPDEST PUSH8 0xFFFFFFFFFFFFFFFF DUP2 GT ISZERO PUSH3 0x699 JUMPI PUSH3 0x698 PUSH3 0x1C4 JUMP JUMPDEST JUMPDEST PUSH3 0x6A5 DUP3 SLOAD PUSH3 0x461 JUMP JUMPDEST PUSH3 0x6B2 DUP3 DUP3 DUP6 PUSH3 0x5D7 JUMP JUMPDEST PUSH1 0x0 PUSH1 0x20 SWAP1 POP PUSH1 0x1F DUP4 GT PUSH1 0x1 DUP2 EQ PUSH3 0x6EA JUMPI PUSH1 0x0 DUP5 ISZERO PUSH3 0x6D5 JUMPI DUP3 DUP8 ADD MLOAD SWAP1 POP JUMPDEST PUSH3 0x6E1 DUP6 DUP3 PUSH3 0x654 JUMP JUMPDEST DUP7 SSTORE POP PUSH3 0x751 JUMP JUMPDEST PUSH1 0x1F NOT DUP5 AND PUSH3 0x6FA DUP7 PUSH3 0x496 JUMP JUMPDEST PUSH1 0x0 JUMPDEST DUP3 DUP2 LT ISZERO PUSH3 0x724 JUMPI DUP5 DUP10 ADD MLOAD DUP3 SSTORE PUSH1 0x1 DUP3 ADD SWAP2 POP PUSH1 0x20 DUP6 ADD SWAP5 POP PUSH1 0x20 DUP2 ADD SWAP1 POP PUSH3 0x6FD JUMP JUMPDEST DUP7 DUP4 LT ISZERO PUSH3 0x744 JUMPI DUP5 DUP10 ADD MLOAD PUSH3 0x740 PUSH1 0x1F DUP10 AND DUP3 PUSH3 0x634 JUMP JUMPDEST DUP4 SSTORE POP JUMPDEST PUSH1 0x1 PUSH1 0x2 DUP9 MUL ADD DUP9 SSTORE POP POP POP JUMPDEST POP POP POP POP POP POP JUMP JUMPDEST PUSH32 0x4E487B7100000000000000000000000000000000000000000000000000000000 PUSH1 0x0 MSTORE PUSH1 0x11 PUSH1 0x4 MSTORE PUSH1 0x24 PUSH1 0x0 REVERT JUMPDEST PUSH1 0x0 PUSH3 0x795 DUP3 PUSH3 0x51E JUMP JUMPDEST SWAP2 POP PUSH3 0x7A2 DUP4 PUSH3 0x51E JUMP JUMPDEST SWAP3 POP DUP3 DUP3 ADD SWAP1 POP DUP1 DUP3 GT ISZERO PUSH3 0x7BD JUMPI PUSH3 0x7BC PUSH3 0x759 JUMP JUMPDEST JUMPDEST SWAP3 SWAP2 POP POP JUMP JUMPDEST PUSH3 0x7CE DUP2 PUSH3 0x51E JUMP JUMPDEST DUP3 MSTORE POP POP JUMP JUMPDEST PUSH1 0x0 PUSH1 0x20 DUP3 ADD SWAP1 POP PUSH3 0x7EB PUSH1 0x0 DUP4 ADD DUP5 PUSH3 0x7C3 JUMP JUMPDEST SWAP3 SWAP2 POP POP JUMP JUMPDEST PUSH2 0x2589 DUP1 PUSH3 0x801 PUSH1 0x0 CODECOPY PUSH1 0x0 RETURN INVALID PUSH1 0x80 PUSH1 0x40 MSTORE CALLVALUE DUP1 ISZERO PUSH2 0x10 JUMPI PUSH1 0x0 DUP1 REVERT JUMPDEST POP PUSH1 0x4 CALLDATASIZE LT PUSH2 0x121 JUMPI PUSH1 0x0 CALLDATALOAD PUSH1 0xE0 SHR DUP1 PUSH4 0x7F93EE98 GT PUSH2 0xAD JUMPI DUP1 PUSH4 0xBAEB0718 GT PUSH2 0x71 JUMPI DUP1 PUSH4 0xBAEB0718 EQ PUSH2 0x36A JUMPI DUP1 PUSH4 0xBB47E61A EQ PUSH2 0x388 JUMPI DUP1 PUSH4 0xBD6E4E75 EQ PUSH2 0x3A6 JUMPI DUP1 PUSH4 0xDD62ED3E EQ PUSH2 0x3D6 JUMPI DUP1 PUSH4 0xF1A19B6C EQ PUSH2 0x406 JUMPI PUSH2 0x121 JUMP JUMPDEST DUP1 PUSH4 0x7F93EE98 EQ PUSH2 0x28C JUMPI DUP1 PUSH4 0x95D89B41 EQ PUSH2 0x2BC JUMPI DUP1 PUSH4 0xA6C1BA5F EQ PUSH2 0x2DA JUMPI DUP1 PUSH4 0xA9059CBB EQ PUSH2 0x30A JUMPI DUP1 PUSH4 0xB863BD37 EQ PUSH2 0x33A JUMPI PUSH2 0x121 JUMP JUMPDEST DUP1 PUSH4 0x313CE567 GT PUSH2 0xF4 JUMPI DUP1 PUSH4 0x313CE567 EQ PUSH2 0x1C2 JUMPI DUP1 PUSH4 0x35EDF0B0 EQ PUSH2 0x1E0 JUMPI DUP1 PUSH4 0x42966C68 EQ PUSH2 0x210 JUMPI DUP1 PUSH4 0x6D6AE1A8 EQ PUSH2 0x22C JUMPI DUP1 PUSH4 0x70A08231 EQ PUSH2 0x25C JUMPI PUSH2 0x121 JUMP JUMPDEST DUP1 PUSH4 0x6FDDE03 EQ PUSH2 0x126 JUMPI DUP1 PUSH4 0x95EA7B3 EQ PUSH2 0x144 JUMPI DUP1 PUSH4 0x18160DDD EQ PUSH2 0x174 JUMPI DUP1 PUSH4 0x23B872DD EQ PUSH2 0x192 JUMPI JUMPDEST PUSH1 0x0 DUP1 REVERT JUMPDEST PUSH2 0x12E PUSH2 0x436 JUMP JUMPDEST PUSH1 0x40 MLOAD PUSH2 0x13B SWAP2 SWAP1 PUSH2 0x1BCE JUMP JUMPDEST PUSH1 0x40 MLOAD DUP1 SWAP2 SUB SWAP1 RETURN JUMPDEST PUSH2 0x15E PUSH1 0x4 DUP1 CALLDATASIZE SUB DUP2 ADD SWAP1 PUSH2 0x159 SWAP2 SWAP1 PUSH2 0x1C89 JUMP JUMPDEST PUSH2 0x4C4 JUMP JUMPDEST PUSH1 0x40 MLOAD PUSH2 0x16B SWAP2 SWAP1 PUSH2 0x1CE4 JUMP JUMPDEST PUSH1 0x40 MLOAD DUP1 SWAP2 SUB SWAP1 RETURN JUMPDEST PUSH2 0x17C PUSH2 0x5B6 JUMP JUMPDEST PUSH1 0x40 MLOAD PUSH2 0x189 SWAP2 SWAP1 PUSH2 0x1D0E JUMP JUMPDEST PUSH1 0x40 MLOAD DUP1 SWAP2 SUB SWAP1 RETURN JUMPDEST PUSH2 0x1AC PUSH1 0x4 DUP1 CALLDATASIZE SUB DUP2 ADD SWAP1 PUSH2 0x1A7 SWAP2 SWAP1 PUSH2 0x1D29 JUMP JUMPDEST PUSH2 0x5BC JUMP JUMPDEST PUSH1 0x40 MLOAD PUSH2 0x1B9 SWAP2 SWAP1 PUSH2 0x1CE4 JUMP JUMPDEST PUSH1 0x40 MLOAD DUP1 SWAP2 SUB SWAP1 RETURN JUMPDEST PUSH2 0x1CA PUSH2 0x8AB JUMP JUMPDEST PUSH1 0x40 MLOAD PUSH2 0x1D7 SWAP2 SWAP1 PUSH2 0x1D98 JUMP JUMPDEST PUSH1 0x40 MLOAD DUP1 SWAP2 SUB SWAP1 RETURN JUMPDEST PUSH2 0x1FA PUSH1 0x4 DUP1 CALLDATASIZE SUB DUP2 ADD SWAP1 PUSH2 0x1F5 SWAP2 SWAP1 PUSH2 0x1DB3 JUMP JUMPDEST PUSH2 0x8BE JUMP JUMPDEST PUSH1 0x40 MLOAD PUSH2 0x207 SWAP2 SWAP1 PUSH2 0x1D0E JUMP JUMPDEST PUSH1 0x40 MLOAD DUP1 SWAP2 SUB SWAP1 RETURN JUMPDEST PUSH2 0x22A PUSH1 0x4 DUP1 CALLDATASIZE SUB DUP2 ADD SWAP1 PUSH2 0x225 SWAP2 SWAP1 PUSH2 0x1DE0 JUMP JUMPDEST PUSH2 0x8D6 JUMP JUMPDEST STOP JUMPDEST PUSH2 0x246 PUSH1 0x4 DUP1 CALLDATASIZE SUB DUP2 ADD SWAP1 PUSH2 0x241 SWAP2 SWAP1 PUSH2 0x1DE0 JUMP JUMPDEST PUSH2 0xA2E JUMP JUMPDEST PUSH1 0x40 MLOAD PUSH2 0x253 SWAP2 SWAP1 PUSH2 0x1BCE JUMP JUMPDEST PUSH1 0x40 MLOAD DUP1 SWAP2 SUB SWAP1 RETURN JUMPDEST PUSH2 0x276 PUSH1 0x4 DUP1 CALLDATASIZE SUB DUP2 ADD SWAP1 PUSH2 0x271 SWAP2 SWAP1 PUSH2 0x1DB3 JUMP JUMPDEST PUSH2 0x1388 JUMP JUMPDEST PUSH1 0x40 MLOAD PUSH2 0x283 SWAP2 SWAP1 PUSH2 0x1D0E JUMP JUMPDEST PUSH1 0x40 MLOAD DUP1 SWAP2 SUB SWAP1 RETURN JUMPDEST PUSH2 0x2A6 PUSH1 0x4 DUP1 CALLDATASIZE SUB DUP2 ADD SWAP1 PUSH2 0x2A1 SWAP2 SWAP1 PUSH2 0x1DB3 JUMP JUMPDEST PUSH2 0x13A0 JUMP JUMPDEST PUSH1 0x40 MLOAD PUSH2 0x2B3 SWAP2 SWAP1 PUSH2 0x1D0E JUMP JUMPDEST PUSH1 0x40 MLOAD DUP1 SWAP2 SUB SWAP1 RETURN JUMPDEST PUSH2 0x2C4 PUSH2 0x13B8 JUMP JUMPDEST PUSH1 0x40 MLOAD PUSH2 0x2D1 SWAP2 SWAP1 PUSH2 0x1BCE JUMP JUMPDEST PUSH1 0x40 MLOAD DUP1 SWAP2 SUB SWAP1 RETURN JUMPDEST PUSH2 0x2F4 PUSH1 0x4 DUP1 CALLDATASIZE SUB DUP2 ADD SWAP1 PUSH2 0x2EF SWAP2 SWAP1 PUSH2 0x1DE0 JUMP JUMPDEST PUSH2 0x1446 JUMP JUMPDEST PUSH1 0x40 MLOAD PUSH2 0x301 SWAP2 SWAP1 PUSH2 0x1D0E JUMP JUMPDEST PUSH1 0x40 MLOAD DUP1 SWAP2 SUB SWAP1 RETURN JUMPDEST PUSH2 0x324 PUSH1 0x4 DUP1 CALLDATASIZE SUB DUP2 ADD SWAP1 PUSH2 0x31F SWAP2 SWAP1 PUSH2 0x1C89 JUMP JUMPDEST PUSH2 0x156F JUMP JUMPDEST PUSH1 0x40 MLOAD PUSH2 0x331 SWAP2 SWAP1 PUSH2 0x1CE4 JUMP JUMPDEST PUSH1 0x40 MLOAD DUP1 SWAP2 SUB SWAP1 RETURN JUMPDEST PUSH2 0x354 PUSH1 0x4 DUP1 CALLDATASIZE SUB DUP2 ADD SWAP1 PUSH2 0x34F SWAP2 SWAP1 PUSH2 0x1DE0 JUMP JUMPDEST PUSH2 0x170B JUMP JUMPDEST PUSH1 0x40 MLOAD PUSH2 0x361 SWAP2 SWAP1 PUSH2 0x1D0E JUMP JUMPDEST PUSH1 0x40 MLOAD DUP1 SWAP2 SUB SWAP1 RETURN JUMPDEST PUSH2 0x372 PUSH2 0x1744 JUMP JUMPDEST PUSH1 0x40 MLOAD PUSH2 0x37F SWAP2 SWAP1 PUSH2 0x1D0E JUMP JUMPDEST PUSH1 0x40 MLOAD DUP1 SWAP2 SUB SWAP1 RETURN JUMPDEST PUSH2 0x390 PUSH2 0x1A0B JUMP JUMPDEST PUSH1 0x40 MLOAD PUSH2 0x39D SWAP2 SWAP1 PUSH2 0x1D0E JUMP JUMPDEST PUSH1 0x40 MLOAD DUP1 SWAP2 SUB SWAP1 RETURN JUMPDEST PUSH2 0x3C0 PUSH1 0x4 DUP1 CALLDATASIZE SUB DUP2 ADD SWAP1 PUSH2 0x3BB SWAP2 SWAP1 PUSH2 0x1DB3 JUMP JUMPDEST PUSH2 0x1A11 JUMP JUMPDEST PUSH1 0x40 MLOAD PUSH2 0x3CD SWAP2 SWAP1 PUSH2 0x1D0E JUMP JUMPDEST PUSH1 0x40 MLOAD DUP1 SWAP2 SUB SWAP1 RETURN JUMPDEST PUSH2 0x3F0 PUSH1 0x4 DUP1 CALLDATASIZE SUB DUP2 ADD SWAP1 PUSH2 0x3EB SWAP2 SWAP1 PUSH2 0x1E0D JUMP JUMPDEST PUSH2 0x1A29 JUMP JUMPDEST PUSH1 0x40 MLOAD PUSH2 0x3FD SWAP2 SWAP1 PUSH2 0x1D0E JUMP JUMPDEST PUSH1 0x40 MLOAD DUP1 SWAP2 SUB SWAP1 RETURN JUMPDEST PUSH2 0x420 PUSH1 0x4 DUP1 CALLDATASIZE SUB DUP2 ADD SWAP1 PUSH2 0x41B SWAP2 SWAP1 PUSH2 0x1DB3 JUMP JUMPDEST PUSH2 0x1A4E JUMP JUMPDEST PUSH1 0x40 MLOAD PUSH2 0x42D SWAP2 SWAP1 PUSH2 0x1D0E JUMP JUMPDEST PUSH1 0x40 MLOAD DUP1 SWAP2 SUB SWAP1 RETURN JUMPDEST PUSH1 0x3 DUP1 SLOAD PUSH2 0x443 SWAP1 PUSH2 0x1E7C JUMP JUMPDEST DUP1 PUSH1 0x1F ADD PUSH1 0x20 DUP1 SWAP2 DIV MUL PUSH1 0x20 ADD PUSH1 0x40 MLOAD SWAP1 DUP2 ADD PUSH1 0x40 MSTORE DUP1 SWAP3 SWAP2 SWAP1 DUP2 DUP2 MSTORE PUSH1 0x20 ADD DUP3 DUP1 SLOAD PUSH2 0x46F SWAP1 PUSH2 0x1E7C JUMP JUMPDEST DUP1 ISZERO PUSH2 0x4BC JUMPI DUP1 PUSH1 0x1F LT PUSH2 0x491 JUMPI PUSH2 0x100 DUP1 DUP4 SLOAD DIV MUL DUP4 MSTORE SWAP2 PUSH1 0x20 ADD SWAP2 PUSH2 0x4BC JUMP JUMPDEST DUP3 ADD SWAP2 SWAP1 PUSH1 0x0 MSTORE PUSH1 0x20 PUSH1 0x0 KECCAK256 SWAP1 JUMPDEST DUP2 SLOAD DUP2 MSTORE SWAP1 PUSH1 0x1 ADD SWAP1 PUSH1 0x20 ADD DUP1 DUP4 GT PUSH2 0x49F JUMPI DUP3 SWAP1 SUB PUSH1 0x1F AND DUP3 ADD SWAP2 JUMPDEST POP POP POP POP POP DUP2 JUMP JUMPDEST PUSH1 0x0 DUP2 PUSH1 0x1 PUSH1 0x0 CALLER PUSH20 0xFFFFFFFFFFFFFFFFFFFFFFFFFFFFFFFFFFFFFFFF AND PUSH20 0xFFFFFFFFFFFFFFFFFFFFFFFFFFFFFFFFFFFFFFFF AND DUP2 MSTORE PUSH1 0x20 ADD SWAP1 DUP2 MSTORE PUSH1 0x20 ADD PUSH1 0x0 KECCAK256 PUSH1 0x0 DUP6 PUSH20 0xFFFFFFFFFFFFFFFFFFFFFFFFFFFFFFFFFFFFFFFF AND PUSH20 0xFFFFFFFFFFFFFFFFFFFFFFFFFFFFFFFFFFFFFFFF AND DUP2 MSTORE PUSH1 0x20 ADD SWAP1 DUP2 MSTORE PUSH1 0x20 ADD PUSH1 0x0 KECCAK256 DUP2 SWAP1 SSTORE POP DUP3 PUSH20 0xFFFFFFFFFFFFFFFFFFFFFFFFFFFFFFFFFFFFFFFF AND CALLER PUSH20 0xFFFFFFFFFFFFFFFFFFFFFFFFFFFFFFFFFFFFFFFF AND PUSH32 0x8C5BE1E5EBEC7D5BD14F71427D1E84F3DD0314C0F7B2291E5B200AC8C7C3B925 DUP5 PUSH1 0x40 MLOAD PUSH2 0x5A4 SWAP2 SWAP1 PUSH2 0x1D0E JUMP JUMPDEST PUSH1 0x40 MLOAD DUP1 SWAP2 SUB SWAP1 LOG3 PUSH1 0x1 SWAP1 POP SWAP3 SWAP2 POP POP JUMP JUMPDEST PUSH1 0x2 SLOAD DUP2 JUMP JUMPDEST PUSH1 0x0 DUP2 PUSH1 0x0 DUP1 DUP7 PUSH20 0xFFFFFFFFFFFFFFFFFFFFFFFFFFFFFFFFFFFFFFFF AND PUSH20 0xFFFFFFFFFFFFFFFFFFFFFFFFFFFFFFFFFFFFFFFF AND DUP2 MSTORE PUSH1 0x20 ADD SWAP1 DUP2 MSTORE PUSH1 0x20 ADD PUSH1 0x0 KECCAK256 SLOAD LT ISZERO PUSH2 0x63F JUMPI PUSH1 0x40 MLOAD PUSH32 0x8C379A000000000000000000000000000000000000000000000000000000000 DUP2 MSTORE PUSH1 0x4 ADD PUSH2 0x636 SWAP1 PUSH2 0x1EF9 JUMP JUMPDEST PUSH1 0x40 MLOAD DUP1 SWAP2 SUB SWAP1 REVERT JUMPDEST DUP2 PUSH1 0x1 PUSH1 0x0 DUP7 PUSH20 0xFFFFFFFFFFFFFFFFFFFFFFFFFFFFFFFFFFFFFFFF AND PUSH20 0xFFFFFFFFFFFFFFFFFFFFFFFFFFFFFFFFFFFFFFFF AND DUP2 MSTORE PUSH1 0x20 ADD SWAP1 DUP2 MSTORE PUSH1 0x20 ADD PUSH1 0x0 KECCAK256 PUSH1 0x0 CALLER PUSH20 0xFFFFFFFFFFFFFFFFFFFFFFFFFFFFFFFFFFFFFFFF AND PUSH20 0xFFFFFFFFFFFFFFFFFFFFFFFFFFFFFFFFFFFFFFFF AND DUP2 MSTORE PUSH1 0x20 ADD SWAP1 DUP2 MSTORE PUSH1 0x20 ADD PUSH1 0x0 KECCAK256 SLOAD LT ISZERO PUSH2 0x6FE JUMPI PUSH1 0x40 MLOAD PUSH32 0x8C379A000000000000000000000000000000000000000000000000000000000 DUP2 MSTORE PUSH1 0x4 ADD PUSH2 0x6F5 SWAP1 PUSH2 0x1F65 JUMP JUMPDEST PUSH1 0x40 MLOAD DUP1 SWAP2 SUB SWAP1 REVERT JUMPDEST DUP2 PUSH1 0x1 PUSH1 0x0 DUP7 PUSH20 0xFFFFFFFFFFFFFFFFFFFFFFFFFFFFFFFFFFFFFFFF AND PUSH20 0xFFFFFFFFFFFFFFFFFFFFFFFFFFFFFFFFFFFFFFFF AND DUP2 MSTORE PUSH1 0x20 ADD SWAP1 DUP2 MSTORE PUSH1 0x20 ADD PUSH1 0x0 KECCAK256 PUSH1 0x0 CALLER PUSH20 0xFFFFFFFFFFFFFFFFFFFFFFFFFFFFFFFFFFFFFFFF AND PUSH20 0xFFFFFFFFFFFFFFFFFFFFFFFFFFFFFFFFFFFFFFFF AND DUP2 MSTORE PUSH1 0x20 ADD SWAP1 DUP2 MSTORE PUSH1 0x20 ADD PUSH1 0x0 KECCAK256 PUSH1 0x0 DUP3 DUP3 SLOAD PUSH2 0x78A SWAP2 SWAP1 PUSH2 0x1FB4 JUMP JUMPDEST SWAP3 POP POP DUP2 SWAP1 SSTORE POP DUP2 PUSH1 0x0 DUP1 DUP7 PUSH20 0xFFFFFFFFFFFFFFFFFFFFFFFFFFFFFFFFFFFFFFFF AND PUSH20 0xFFFFFFFFFFFFFFFFFFFFFFFFFFFFFFFFFFFFFFFF AND DUP2 MSTORE PUSH1 0x20 ADD SWAP1 DUP2 MSTORE PUSH1 0x20 ADD PUSH1 0x0 KECCAK256 PUSH1 0x0 DUP3 DUP3 SLOAD PUSH2 0x7DF SWAP2 SWAP1 PUSH2 0x1FB4 JUMP JUMPDEST SWAP3 POP POP DUP2 SWAP1 SSTORE POP DUP2 PUSH1 0x0 DUP1 DUP6 PUSH20 0xFFFFFFFFFFFFFFFFFFFFFFFFFFFFFFFFFFFFFFFF AND PUSH20 0xFFFFFFFFFFFFFFFFFFFFFFFFFFFFFFFFFFFFFFFF AND DUP2 MSTORE PUSH1 0x20 ADD SWAP1 DUP2 MSTORE PUSH1 0x20 ADD PUSH1 0x0 KECCAK256 PUSH1 0x0 DUP3 DUP3 SLOAD PUSH2 0x834 SWAP2 SWAP1 PUSH2 0x1FE8 JUMP JUMPDEST SWAP3 POP POP DUP2 SWAP1 SSTORE POP DUP3 PUSH20 0xFFFFFFFFFFFFFFFFFFFFFFFFFFFFFFFFFFFFFFFF AND DUP5 PUSH20 0xFFFFFFFFFFFFFFFFFFFFFFFFFFFFFFFFFFFFFFFF AND PUSH32 0xDDF252AD1BE2C89B69C2B068FC378DAA952BA7F163C4A11628F55A4DF523B3EF DUP5 PUSH1 0x40 MLOAD PUSH2 0x898 SWAP2 SWAP1 PUSH2 0x1D0E JUMP JUMPDEST PUSH1 0x40 MLOAD DUP1 SWAP2 SUB SWAP1 LOG3 PUSH1 0x1 SWAP1 POP SWAP4 SWAP3 POP POP POP JUMP JUMPDEST PUSH1 0x5 PUSH1 0x0 SWAP1 SLOAD SWAP1 PUSH2 0x100 EXP SWAP1 DIV PUSH1 0xFF AND DUP2 JUMP JUMPDEST PUSH1 0x7 PUSH1 0x20 MSTORE DUP1 PUSH1 0x0 MSTORE PUSH1 0x40 PUSH1 0x0 KECCAK256 PUSH1 0x0 SWAP2 POP SWAP1 POP SLOAD DUP2 JUMP JUMPDEST DUP1 PUSH1 0x0 DUP1 CALLER PUSH20 0xFFFFFFFFFFFFFFFFFFFFFFFFFFFFFFFFFFFFFFFF AND PUSH20 0xFFFFFFFFFFFFFFFFFFFFFFFFFFFFFFFFFFFFFFFF AND DUP2 MSTORE PUSH1 0x20 ADD SWAP1 DUP2 MSTORE PUSH1 0x20 ADD PUSH1 0x0 KECCAK256 SLOAD LT ISZERO PUSH2 0x957 JUMPI PUSH1 0x40 MLOAD PUSH32 0x8C379A000000000000000000000000000000000000000000000000000000000 DUP2 MSTORE PUSH1 0x4 ADD PUSH2 0x94E SWAP1 PUSH2 0x208E JUMP JUMPDEST PUSH1 0x40 MLOAD DUP1 SWAP2 SUB SWAP1 REVERT JUMPDEST DUP1 PUSH1 0x0 DUP1 CALLER PUSH20 0xFFFFFFFFFFFFFFFFFFFFFFFFFFFFFFFFFFFFFFFF AND PUSH20 0xFFFFFFFFFFFFFFFFFFFFFFFFFFFFFFFFFFFFFFFF AND DUP2 MSTORE PUSH1 0x20 ADD SWAP1 DUP2 MSTORE PUSH1 0x20 ADD PUSH1 0x0 KECCAK256 PUSH1 0x0 DUP3 DUP3 SLOAD PUSH2 0x9A5 SWAP2 SWAP1 PUSH2 0x1FB4 JUMP JUMPDEST SWAP3 POP POP DUP2 SWAP1 SSTORE POP DUP1 PUSH1 0x2 PUSH1 0x0 DUP3 DUP3 SLOAD PUSH2 0x9BE SWAP2 SWAP1 PUSH2 0x1FB4 JUMP JUMPDEST SWAP3 POP POP DUP2 SWAP1 SSTORE POP PUSH1 0x0 PUSH20 0xFFFFFFFFFFFFFFFFFFFFFFFFFFFFFFFFFFFFFFFF AND CALLER PUSH20 0xFFFFFFFFFFFFFFFFFFFFFFFFFFFFFFFFFFFFFFFF AND PUSH32 0xDDF252AD1BE2C89B69C2B068FC378DAA952BA7F163C4A11628F55A4DF523B3EF DUP4 PUSH1 0x40 MLOAD PUSH2 0xA23 SWAP2 SWAP1 PUSH2 0x1D0E JUMP JUMPDEST PUSH1 0x40 MLOAD DUP1 SWAP2 SUB SWAP1 LOG3 POP JUMP JUMPDEST PUSH1 0x60 PUSH1 0x0 PUSH3 0x15180 PUSH2 0x7080 TIMESTAMP PUSH2 0xA44 SWAP2 SWAP1 PUSH2 0x1FE8 JUMP JUMPDEST PUSH2 0xA4E SWAP2 SWAP1 PUSH2 0x20DD JUMP JUMPDEST SWAP1 POP PUSH1 0x0 DUP2 PUSH1 0x9 PUSH1 0x0 CALLER PUSH20 0xFFFFFFFFFFFFFFFFFFFFFFFFFFFFFFFFFFFFFFFF AND PUSH20 0xFFFFFFFFFFFFFFFFFFFFFFFFFFFFFFFFFFFFFFFF AND DUP2 MSTORE PUSH1 0x20 ADD SWAP1 DUP2 MSTORE PUSH1 0x20 ADD PUSH1 0x0 KECCAK256 SLOAD LT ISZERO PUSH2 0xB23 JUMPI DUP2 PUSH1 0x9 PUSH1 0x0 CALLER PUSH20 0xFFFFFFFFFFFFFFFFFFFFFFFFFFFFFFFFFFFFFFFF AND PUSH20 0xFFFFFFFFFFFFFFFFFFFFFFFFFFFFFFFFFFFFFFFF AND DUP2 MSTORE PUSH1 0x20 ADD SWAP1 DUP2 MSTORE PUSH1 0x20 ADD PUSH1 0x0 KECCAK256 DUP2 SWAP1 SSTORE POP PUSH1 0x0 PUSH1 0xA PUSH1 0x0 CALLER PUSH20 0xFFFFFFFFFFFFFFFFFFFFFFFFFFFFFFFFFFFFFFFF AND PUSH20 0xFFFFFFFFFFFFFFFFFFFFFFFFFFFFFFFFFFFFFFFF AND DUP2 MSTORE PUSH1 0x20 ADD SWAP1 DUP2 MSTORE PUSH1 0x20 ADD PUSH1 0x0 KECCAK256 DUP2 SWAP1 SSTORE POP JUMPDEST PUSH1 0x3 PUSH1 0xA PUSH1 0x0 CALLER PUSH20 0xFFFFFFFFFFFFFFFFFFFFFFFFFFFFFFFFFFFFFFFF AND PUSH20 0xFFFFFFFFFFFFFFFFFFFFFFFFFFFFFFFFFFFFFFFF AND DUP2 MSTORE PUSH1 0x20 ADD SWAP1 DUP2 MSTORE PUSH1 0x20 ADD PUSH1 0x0 KECCAK256 SLOAD LT PUSH2 0xBA5 JUMPI PUSH1 0x40 MLOAD PUSH32 0x8C379A000000000000000000000000000000000000000000000000000000000 DUP2 MSTORE PUSH1 0x4 ADD PUSH2 0xB9C SWAP1 PUSH2 0x215A JUMP JUMPDEST PUSH1 0x40 MLOAD DUP1 SWAP2 SUB SWAP1 REVERT JUMPDEST PUSH1 0x1 PUSH1 0xA PUSH1 0x0 CALLER PUSH20 0xFFFFFFFFFFFFFFFFFFFFFFFFFFFFFFFFFFFFFFFF AND PUSH20 0xFFFFFFFFFFFFFFFFFFFFFFFFFFFFFFFFFFFFFFFF AND DUP2 MSTORE PUSH1 0x20 ADD SWAP1 DUP2 MSTORE PUSH1 0x20 ADD PUSH1 0x0 KECCAK256 SLOAD SUB PUSH2 0xDF2 JUMPI PUSH1 0x5 PUSH1 0x0 SWAP1 SLOAD SWAP1 PUSH2 0x100 EXP SWAP1 DIV PUSH1 0xFF AND PUSH1 0xFF AND PUSH1 0xA PUSH2 0xC0B SWAP2 SWAP1 PUSH2 0x22AD JUMP JUMPDEST PUSH1 0x64 PUSH2 0xC17 SWAP2 SWAP1 PUSH2 0x22F8 JUMP JUMPDEST PUSH1 0x0 DUP1 CALLER PUSH20 0xFFFFFFFFFFFFFFFFFFFFFFFFFFFFFFFFFFFFFFFF AND PUSH20 0xFFFFFFFFFFFFFFFFFFFFFFFFFFFFFFFFFFFFFFFF AND DUP2 MSTORE PUSH1 0x20 ADD SWAP1 DUP2 MSTORE PUSH1 0x20 ADD PUSH1 0x0 KECCAK256 SLOAD LT ISZERO PUSH2 0xC97 JUMPI PUSH1 0x40 MLOAD PUSH32 0x8C379A000000000000000000000000000000000000000000000000000000000 DUP2 MSTORE PUSH1 0x4 ADD PUSH2 0xC8E SWAP1 PUSH2 0x2386 JUMP JUMPDEST PUSH1 0x40 MLOAD DUP1 SWAP2 SUB SWAP1 REVERT JUMPDEST PUSH1 0x5 PUSH1 0x0 SWAP1 SLOAD SWAP1 PUSH2 0x100 EXP SWAP1 DIV PUSH1 0xFF AND PUSH1 0xFF AND PUSH1 0xA PUSH2 0xCB6 SWAP2 SWAP1 PUSH2 0x22AD JUMP JUMPDEST PUSH1 0x64 PUSH2 0xCC2 SWAP2 SWAP1 PUSH2 0x22F8 JUMP JUMPDEST PUSH1 0x0 DUP1 CALLER PUSH20 0xFFFFFFFFFFFFFFFFFFFFFFFFFFFFFFFFFFFFFFFF AND PUSH20 0xFFFFFFFFFFFFFFFFFFFFFFFFFFFFFFFFFFFFFFFF AND DUP2 MSTORE PUSH1 0x20 ADD SWAP1 DUP2 MSTORE PUSH1 0x20 ADD PUSH1 0x0 KECCAK256 PUSH1 0x0 DUP3 DUP3 SLOAD PUSH2 0xD0F SWAP2 SWAP1 PUSH2 0x1FB4 JUMP JUMPDEST SWAP3 POP POP DUP2 SWAP1 SSTORE POP PUSH1 0x5 PUSH1 0x0 SWAP1 SLOAD SWAP1 PUSH2 0x100 EXP SWAP1 DIV PUSH1 0xFF AND PUSH1 0xFF AND PUSH1 0xA PUSH2 0xD35 SWAP2 SWAP1 PUSH2 0x22AD JUMP JUMPDEST PUSH1 0x64 PUSH2 0xD41 SWAP2 SWAP1 PUSH2 0x22F8 JUMP JUMPDEST PUSH1 0x2 PUSH1 0x0 DUP3 DUP3 SLOAD PUSH2 0xD52 SWAP2 SWAP1 PUSH2 0x1FB4 JUMP JUMPDEST SWAP3 POP POP DUP2 SWAP1 SSTORE POP PUSH1 0x64 SWAP1 POP PUSH1 0x0 PUSH20 0xFFFFFFFFFFFFFFFFFFFFFFFFFFFFFFFFFFFFFFFF AND CALLER PUSH20 0xFFFFFFFFFFFFFFFFFFFFFFFFFFFFFFFFFFFFFFFF AND PUSH32 0xDDF252AD1BE2C89B69C2B068FC378DAA952BA7F163C4A11628F55A4DF523B3EF PUSH1 0x5 PUSH1 0x0 SWAP1 SLOAD SWAP1 PUSH2 0x100 EXP SWAP1 DIV PUSH1 0xFF AND PUSH1 0xFF AND PUSH1 0xA PUSH2 0xDCC SWAP2 SWAP1 PUSH2 0x22AD JUMP JUMPDEST PUSH1 0x64 PUSH2 0xDD8 SWAP2 SWAP1 PUSH2 0x22F8 JUMP JUMPDEST PUSH1 0x40 MLOAD PUSH2 0xDE5 SWAP2 SWAP1 PUSH2 0x1D0E JUMP JUMPDEST PUSH1 0x40 MLOAD DUP1 SWAP2 SUB SWAP1 LOG3 PUSH2 0x103C JUMP JUMPDEST PUSH1 0x2 PUSH1 0xA PUSH1 0x0 CALLER PUSH20 0xFFFFFFFFFFFFFFFFFFFFFFFFFFFFFFFFFFFFFFFF AND PUSH20 0xFFFFFFFFFFFFFFFFFFFFFFFFFFFFFFFFFFFFFFFF AND DUP2 MSTORE PUSH1 0x20 ADD SWAP1 DUP2 MSTORE PUSH1 0x20 ADD PUSH1 0x0 KECCAK256 SLOAD SUB PUSH2 0x103B JUMPI PUSH1 0x5 PUSH1 0x0 SWAP1 SLOAD SWAP1 PUSH2 0x100 EXP SWAP1 DIV PUSH1 0xFF AND PUSH1 0xFF AND PUSH1 0xA PUSH2 0xE58 SWAP2 SWAP1 PUSH2 0x22AD JUMP JUMPDEST PUSH1 0xC8 PUSH2 0xE64 SWAP2 SWAP1 PUSH2 0x22F8 JUMP JUMPDEST PUSH1 0x0 DUP1 CALLER PUSH20 0xFFFFFFFFFFFFFFFFFFFFFFFFFFFFFFFFFFFFFFFF AND PUSH20 0xFFFFFFFFFFFFFFFFFFFFFFFFFFFFFFFFFFFFFFFF AND DUP2 MSTORE PUSH1 0x20 ADD SWAP1 DUP2 MSTORE PUSH1 0x20 ADD PUSH1 0x0 KECCAK256 SLOAD LT ISZERO PUSH2 0xEE4 JUMPI PUSH1 0x40 MLOAD PUSH32 0x8C379A000000000000000000000000000000000000000000000000000000000 DUP2 MSTORE PUSH1 0x4 ADD PUSH2 0xEDB SWAP1 PUSH2 0x2386 JUMP JUMPDEST PUSH1 0x40 MLOAD DUP1 SWAP2 SUB SWAP1 REVERT JUMPDEST PUSH1 0x5 PUSH1 0x0 SWAP1 SLOAD SWAP1 PUSH2 0x100 EXP SWAP1 DIV PUSH1 0xFF AND PUSH1 0xFF AND PUSH1 0xA PUSH2 0xF03 SWAP2 SWAP1 PUSH2 0x22AD JUMP JUMPDEST PUSH1 0xC8 PUSH2 0xF0F SWAP2 SWAP1 PUSH2 0x22F8 JUMP JUMPDEST PUSH1 0x0 DUP1 CALLER PUSH20 0xFFFFFFFFFFFFFFFFFFFFFFFFFFFFFFFFFFFFFFFF AND PUSH20 0xFFFFFFFFFFFFFFFFFFFFFFFFFFFFFFFFFFFFFFFF AND DUP2 MSTORE PUSH1 0x20 ADD SWAP1 DUP2 MSTORE PUSH1 0x20 ADD PUSH1 0x0 KECCAK256 PUSH1 0x0 DUP3 DUP3 SLOAD PUSH2 0xF5C SWAP2 SWAP1 PUSH2 0x1FB4 JUMP JUMPDEST SWAP3 POP POP DUP2 SWAP1 SSTORE POP PUSH1 0x5 PUSH1 0x0 SWAP1 SLOAD SWAP1 PUSH2 0x100 EXP SWAP1 DIV PUSH1 0xFF AND PUSH1 0xFF AND PUSH1 0xA PUSH2 0xF82 SWAP2 SWAP1 PUSH2 0x22AD JUMP JUMPDEST PUSH1 0xC8 PUSH2 0xF8E SWAP2 SWAP1 PUSH2 0x22F8 JUMP JUMPDEST PUSH1 0x2 PUSH1 0x0 DUP3 DUP3 SLOAD PUSH2 0xF9F SWAP2 SWAP1 PUSH2 0x1FB4 JUMP JUMPDEST SWAP3 POP POP DUP2 SWAP1 SSTORE POP PUSH1 0xC8 SWAP1 POP PUSH1 0x0 PUSH20 0xFFFFFFFFFFFFFFFFFFFFFFFFFFFFFFFFFFFFFFFF AND CALLER PUSH20 0xFFFFFFFFFFFFFFFFFFFFFFFFFFFFFFFFFFFFFFFF AND PUSH32 0xDDF252AD1BE2C89B69C2B068FC378DAA952BA7F163C4A11628F55A4DF523B3EF PUSH1 0x5 PUSH1 0x0 SWAP1 SLOAD SWAP1 PUSH2 0x100 EXP SWAP1 DIV PUSH1 0xFF AND PUSH1 0xFF AND PUSH1 0xA PUSH2 0x1019 SWAP2 SWAP1 PUSH2 0x22AD JUMP JUMPDEST PUSH1 0xC8 PUSH2 0x1025 SWAP2 SWAP1 PUSH2 0x22F8 JUMP JUMPDEST PUSH1 0x40 MLOAD PUSH2 0x1032 SWAP2 SWAP1 PUSH2 0x1D0E JUMP JUMPDEST PUSH1 0x40 MLOAD DUP1 SWAP2 SUB SWAP1 LOG3 JUMPDEST JUMPDEST PUSH1 0x1 PUSH1 0xA PUSH1 0x0 CALLER PUSH20 0xFFFFFFFFFFFFFFFFFFFFFFFFFFFFFFFFFFFFFFFF AND PUSH20 0xFFFFFFFFFFFFFFFFFFFFFFFFFFFFFFFFFFFFFFFF AND DUP2 MSTORE PUSH1 0x20 ADD SWAP1 DUP2 MSTORE PUSH1 0x20 ADD PUSH1 0x0 KECCAK256 PUSH1 0x0 DUP3 DUP3 SLOAD PUSH2 0x108C SWAP2 SWAP1 PUSH2 0x1FE8 JUMP JUMPDEST SWAP3 POP POP DUP2 SWAP1 SSTORE POP PUSH1 0x0 PUSH1 0x1 PUSH1 0x64 PUSH2 0x10A2 DUP8 PUSH2 0x170B JUMP JUMPDEST PUSH2 0x10AC SWAP2 SWAP1 PUSH2 0x23A6 JUMP JUMPDEST PUSH2 0x10B6 SWAP2 SWAP1 PUSH2 0x1FE8 JUMP JUMPDEST SWAP1 POP PUSH1 0x1 DUP2 GT PUSH2 0x10FD JUMPI PUSH1 0x40 MLOAD DUP1 PUSH1 0x40 ADD PUSH1 0x40 MSTORE DUP1 PUSH1 0x5 DUP2 MSTORE PUSH1 0x20 ADD PUSH32 0x746F6B656E000000000000000000000000000000000000000000000000000000 DUP2 MSTORE POP SWAP4 POP PUSH2 0x1330 JUMP JUMPDEST PUSH1 0x5 DUP2 GT PUSH2 0x1187 JUMPI PUSH1 0x40 MLOAD DUP1 PUSH1 0x40 ADD PUSH1 0x40 MSTORE DUP1 PUSH1 0x5 DUP2 MSTORE PUSH1 0x20 ADD PUSH32 0x7265736574000000000000000000000000000000000000000000000000000000 DUP2 MSTORE POP SWAP4 POP PUSH1 0x0 PUSH1 0xA PUSH1 0x0 CALLER PUSH20 0xFFFFFFFFFFFFFFFFFFFFFFFFFFFFFFFFFFFFFFFF AND PUSH20 0xFFFFFFFFFFFFFFFFFFFFFFFFFFFFFFFFFFFFFFFF AND DUP2 MSTORE PUSH1 0x20 ADD SWAP1 DUP2 MSTORE PUSH1 0x20 ADD PUSH1 0x0 KECCAK256 DUP2 SWAP1 SSTORE POP PUSH2 0x132F JUMP JUMPDEST PUSH1 0xA DUP2 GT PUSH2 0x1201 JUMPI PUSH1 0x40 MLOAD DUP1 PUSH1 0x40 ADD PUSH1 0x40 MSTORE DUP1 PUSH1 0x7 DUP2 MSTORE PUSH1 0x20 ADD PUSH32 0x3838382050454E00000000000000000000000000000000000000000000000000 DUP2 MSTORE POP SWAP4 POP PUSH2 0x11FC CALLER PUSH1 0x5 PUSH1 0x0 SWAP1 SLOAD SWAP1 PUSH2 0x100 EXP SWAP1 DIV PUSH1 0xFF AND PUSH1 0xFF AND PUSH1 0xA PUSH2 0x11EA SWAP2 SWAP1 PUSH2 0x22AD JUMP JUMPDEST PUSH2 0x378 PUSH2 0x11F7 SWAP2 SWAP1 PUSH2 0x22F8 JUMP JUMPDEST PUSH2 0x1A66 JUMP JUMPDEST PUSH2 0x132E JUMP JUMPDEST PUSH1 0x14 DUP2 GT PUSH2 0x1246 JUMPI PUSH1 0x40 MLOAD DUP1 PUSH1 0x40 ADD PUSH1 0x40 MSTORE DUP1 PUSH1 0x7 DUP2 MSTORE PUSH1 0x20 ADD PUSH32 0x6E6F7468696E6700000000000000000000000000000000000000000000000000 DUP2 MSTORE POP SWAP4 POP PUSH2 0x132D JUMP JUMPDEST PUSH1 0x32 DUP2 GT PUSH2 0x12BF JUMPI PUSH1 0x40 MLOAD DUP1 PUSH1 0x40 ADD PUSH1 0x40 MSTORE DUP1 PUSH1 0x7 DUP2 MSTORE PUSH1 0x20 ADD PUSH32 0x3230302050454E00000000000000000000000000000000000000000000000000 DUP2 MSTORE POP SWAP4 POP PUSH2 0x12BA CALLER PUSH1 0x5 PUSH1 0x0 SWAP1 SLOAD SWAP1 PUSH2 0x100 EXP SWAP1 DIV PUSH1 0xFF AND PUSH1 0xFF AND PUSH1 0xA PUSH2 0x12A9 SWAP2 SWAP1 PUSH2 0x22AD JUMP JUMPDEST PUSH1 0xC8 PUSH2 0x12B5 SWAP2 SWAP1 PUSH2 0x22F8 JUMP JUMPDEST PUSH2 0x1A66 JUMP JUMPDEST PUSH2 0x132C JUMP JUMPDEST PUSH1 0x40 MLOAD DUP1 PUSH1 0x40 ADD PUSH1 0x40 MSTORE DUP1 PUSH1 0x7 DUP2 MSTORE PUSH1 0x20 ADD PUSH32 0x3130302050454E00000000000000000000000000000000000000000000000000 DUP2 MSTORE POP SWAP4 POP PUSH2 0x132B CALLER PUSH1 0x5 PUSH1 0x0 SWAP1 SLOAD SWAP1 PUSH2 0x100 EXP SWAP1 DIV PUSH1 0xFF AND PUSH1 0xFF AND PUSH1 0xA PUSH2 0x131A SWAP2 SWAP1 PUSH2 0x22AD JUMP JUMPDEST PUSH1 0x64 PUSH2 0x1326 SWAP2 SWAP1 PUSH2 0x22F8 JUMP JUMPDEST PUSH2 0x1A66 JUMP JUMPDEST JUMPDEST JUMPDEST JUMPDEST JUMPDEST JUMPDEST CALLER PUSH20 0xFFFFFFFFFFFFFFFFFFFFFFFFFFFFFFFFFFFFFFFF AND PUSH32 0x76775F6FD80273D051FFB53FCAFDF73D3F7933B79207E60A978184A1FB72B32D DUP6 DUP5 PUSH1 0x40 MLOAD PUSH2 0x1378 SWAP3 SWAP2 SWAP1 PUSH2 0x23D7 JUMP JUMPDEST PUSH1 0x40 MLOAD DUP1 SWAP2 SUB SWAP1 LOG2 POP POP POP SWAP2 SWAP1 POP JUMP JUMPDEST PUSH1 0x0 PUSH1 0x20 MSTORE DUP1 PUSH1 0x0 MSTORE PUSH1 0x40 PUSH1 0x0 KECCAK256 PUSH1 0x0 SWAP2 POP SWAP1 POP SLOAD DUP2 JUMP JUMPDEST PUSH1 0xA PUSH1 0x20 MSTORE DUP1 PUSH1 0x0 MSTORE PUSH1 0x40 PUSH1 0x0 KECCAK256 PUSH1 0x0 SWAP2 POP SWAP1 POP SLOAD DUP2 JUMP JUMPDEST PUSH1 0x4 DUP1 SLOAD PUSH2 0x13C5 SWAP1 PUSH2 0x1E7C JUMP JUMPDEST DUP1 PUSH1 0x1F ADD PUSH1 0x20 DUP1 SWAP2 DIV MUL PUSH1 0x20 ADD PUSH1 0x40 MLOAD SWAP1 DUP2 ADD PUSH1 0x40 MSTORE DUP1 SWAP3 SWAP2 SWAP1 DUP2 DUP2 MSTORE PUSH1 0x20 ADD DUP3 DUP1 SLOAD PUSH2 0x13F1 SWAP1 PUSH2 0x1E7C JUMP JUMPDEST DUP1 ISZERO PUSH2 0x143E JUMPI DUP1 PUSH1 0x1F LT PUSH2 0x1413 JUMPI PUSH2 0x100 DUP1 DUP4 SLOAD DIV MUL DUP4 MSTORE SWAP2 PUSH1 0x20 ADD SWAP2 PUSH2 0x143E JUMP JUMPDEST DUP3 ADD SWAP2 SWAP1 PUSH1 0x0 MSTORE PUSH1 0x20 PUSH1 0x0 KECCAK256 SWAP1 JUMPDEST DUP2 SLOAD DUP2 MSTORE SWAP1 PUSH1 0x1 ADD SWAP1 PUSH1 0x20 ADD DUP1 DUP4 GT PUSH2 0x1421 JUMPI DUP3 SWAP1 SUB PUSH1 0x1F AND DUP3 ADD SWAP2 JUMPDEST POP POP POP POP POP DUP2 JUMP JUMPDEST PUSH1 0x0 DUP1 PUSH1 0x1 SWAP1 POP PUSH1 0x0 DUP4 SUB PUSH2 0x1465 JUMPI PUSH1 0x9 DUP2 PUSH2 0x1462 SWAP2 SWAP1 PUSH2 0x1FE8 JUMP JUMPDEST SWAP1 POP JUMPDEST PUSH1 0x0 PUSH1 0x5 PUSH1 0x7 PUSH1 0x0 CALLER PUSH20 0xFFFFFFFFFFFFFFFFFFFFFFFFFFFFFFFFFFFFFFFF AND PUSH20 0xFFFFFFFFFFFFFFFFFFFFFFFFFFFFFFFFFFFFFFFF AND DUP2 MSTORE PUSH1 0x20 ADD SWAP1 DUP2 MSTORE PUSH1 0x20 ADD PUSH1 0x0 KECCAK256 SLOAD PUSH2 0x14B3 SWAP2 SWAP1 PUSH2 0x23A6 JUMP JUMPDEST SUB PUSH2 0x14C8 JUMPI PUSH1 0x1 DUP2 PUSH2 0x14C5 SWAP2 SWAP1 PUSH2 0x1FE8 JUMP JUMPDEST SWAP1 POP JUMPDEST PUSH1 0x0 PUSH3 0x15180 PUSH2 0x7080 TIMESTAMP PUSH2 0x14DC SWAP2 SWAP1 PUSH2 0x1FE8 JUMP JUMPDEST PUSH2 0x14E6 SWAP2 SWAP1 PUSH2 0x20DD JUMP JUMPDEST SWAP1 POP PUSH1 0x0 PUSH1 0x7 PUSH1 0x4 DUP4 PUSH2 0x14F9 SWAP2 SWAP1 PUSH2 0x1FE8 JUMP JUMPDEST PUSH2 0x1503 SWAP2 SWAP1 PUSH2 0x23A6 JUMP JUMPDEST SWAP1 POP PUSH1 0x0 DUP2 EQ DUP1 ISZERO PUSH2 0x1516 JUMPI POP PUSH1 0x0 DUP6 EQ ISZERO JUMPDEST ISZERO PUSH2 0x152B JUMPI PUSH1 0x1 DUP4 PUSH2 0x1528 SWAP2 SWAP1 PUSH2 0x1FE8 JUMP JUMPDEST SWAP3 POP JUMPDEST PUSH1 0x5 PUSH1 0x0 SWAP1 SLOAD SWAP1 PUSH2 0x100 EXP SWAP1 DIV PUSH1 0xFF AND PUSH1 0xFF AND PUSH1 0xA PUSH2 0x154A SWAP2 SWAP1 PUSH2 0x22AD JUMP JUMPDEST PUSH1 0x8 SLOAD PUSH2 0x1557 SWAP2 SWAP1 PUSH2 0x22F8 JUMP JUMPDEST DUP4 PUSH2 0x1562 SWAP2 SWAP1 PUSH2 0x22F8 JUMP JUMPDEST SWAP3 POP DUP3 SWAP4 POP POP POP POP SWAP2 SWAP1 POP JUMP JUMPDEST PUSH1 0x0 DUP2 PUSH1 0x0 DUP1 CALLER PUSH20 0xFFFFFFFFFFFFFFFFFFFFFFFFFFFFFFFFFFFFFFFF AND PUSH20 0xFFFFFFFFFFFFFFFFFFFFFFFFFFFFFFFFFFFFFFFF AND DUP2 MSTORE PUSH1 0x20 ADD SWAP1 DUP2 MSTORE PUSH1 0x20 ADD PUSH1 0x0 KECCAK256 SLOAD LT ISZERO PUSH2 0x15F2 JUMPI PUSH1 0x40 MLOAD PUSH32 0x8C379A000000000000000000000000000000000000000000000000000000000 DUP2 MSTORE PUSH1 0x4 ADD PUSH2 0x15E9 SWAP1 PUSH2 0x1EF9 JUMP JUMPDEST PUSH1 0x40 MLOAD DUP1 SWAP2 SUB SWAP1 REVERT JUMPDEST DUP2 PUSH1 0x0 DUP1 CALLER PUSH20 0xFFFFFFFFFFFFFFFFFFFFFFFFFFFFFFFFFFFFFFFF AND PUSH20 0xFFFFFFFFFFFFFFFFFFFFFFFFFFFFFFFFFFFFFFFF AND DUP2 MSTORE PUSH1 0x20 ADD SWAP1 DUP2 MSTORE PUSH1 0x20 ADD PUSH1 0x0 KECCAK256 PUSH1 0x0 DUP3 DUP3 SLOAD PUSH2 0x1640 SWAP2 SWAP1 PUSH2 0x1FB4 JUMP JUMPDEST SWAP3 POP POP DUP2 SWAP1 SSTORE POP DUP2 PUSH1 0x0 DUP1 DUP6 PUSH20 0xFFFFFFFFFFFFFFFFFFFFFFFFFFFFFFFFFFFFFFFF AND PUSH20 0xFFFFFFFFFFFFFFFFFFFFFFFFFFFFFFFFFFFFFFFF AND DUP2 MSTORE PUSH1 0x20 ADD SWAP1 DUP2 MSTORE PUSH1 0x20 ADD PUSH1 0x0 KECCAK256 PUSH1 0x0 DUP3 DUP3 SLOAD PUSH2 0x1695 SWAP2 SWAP1 PUSH2 0x1FE8 JUMP JUMPDEST SWAP3 POP POP DUP2 SWAP1 SSTORE POP DUP3 PUSH20 0xFFFFFFFFFFFFFFFFFFFFFFFFFFFFFFFFFFFFFFFF AND CALLER PUSH20 0xFFFFFFFFFFFFFFFFFFFFFFFFFFFFFFFFFFFFFFFF AND PUSH32 0xDDF252AD1BE2C89B69C2B068FC378DAA952BA7F163C4A11628F55A4DF523B3EF DUP5 PUSH1 0x40 MLOAD PUSH2 0x16F9 SWAP2 SWAP1 PUSH2 0x1D0E JUMP JUMPDEST PUSH1 0x40 MLOAD DUP1 SWAP2 SUB SWAP1 LOG3 PUSH1 0x1 SWAP1 POP SWAP3 SWAP2 POP POP JUMP JUMPDEST PUSH1 0x0 TIMESTAMP PREVRANDAO CALLER DUP5 PUSH1 0x40 MLOAD PUSH1 0x20 ADD PUSH2 0x1724 SWAP5 SWAP4 SWAP3 SWAP2 SWAP1 PUSH2 0x2470 JUMP JUMPDEST PUSH1 0x40 MLOAD PUSH1 0x20 DUP2 DUP4 SUB SUB DUP2 MSTORE SWAP1 PUSH1 0x40 MSTORE DUP1 MLOAD SWAP1 PUSH1 0x20 ADD KECCAK256 PUSH1 0x0 SHR SWAP1 POP SWAP2 SWAP1 POP JUMP JUMPDEST PUSH1 0x0 DUP1 PUSH3 0x15180 PUSH2 0x7080 TIMESTAMP PUSH2 0x1759 SWAP2 SWAP1 PUSH2 0x1FE8 JUMP JUMPDEST PUSH2 0x1763 SWAP2 SWAP1 PUSH2 0x20DD JUMP JUMPDEST SWAP1 POP PUSH1 0x0 PUSH1 0x7 PUSH1 0x0 CALLER PUSH20 0xFFFFFFFFFFFFFFFFFFFFFFFFFFFFFFFFFFFFFFFF AND PUSH20 0xFFFFFFFFFFFFFFFFFFFFFFFFFFFFFFFFFFFFFFFF AND DUP2 MSTORE PUSH1 0x20 ADD SWAP1 DUP2 MSTORE PUSH1 0x20 ADD PUSH1 0x0 KECCAK256 SLOAD SWAP1 POP DUP2 PUSH1 0x6 PUSH1 0x0 CALLER PUSH20 0xFFFFFFFFFFFFFFFFFFFFFFFFFFFFFFFFFFFFFFFF AND PUSH20 0xFFFFFFFFFFFFFFFFFFFFFFFFFFFFFFFFFFFFFFFF AND DUP2 MSTORE PUSH1 0x20 ADD SWAP1 DUP2 MSTORE PUSH1 0x20 ADD PUSH1 0x0 KECCAK256 SLOAD LT PUSH2 0x182A JUMPI PUSH1 0x40 MLOAD PUSH32 0x8C379A000000000000000000000000000000000000000000000000000000000 DUP2 MSTORE PUSH1 0x4 ADD PUSH2 0x1821 SWAP1 PUSH2 0x250A JUMP JUMPDEST PUSH1 0x40 MLOAD DUP1 SWAP2 SUB SWAP1 REVERT JUMPDEST PUSH1 0x1 DUP3 PUSH2 0x1837 SWAP2 SWAP1 PUSH2 0x1FB4 JUMP JUMPDEST PUSH1 0x6 PUSH1 0x0 CALLER PUSH20 0xFFFFFFFFFFFFFFFFFFFFFFFFFFFFFFFFFFFFFFFF AND PUSH20 0xFFFFFFFFFFFFFFFFFFFFFFFFFFFFFFFFFFFFFFFF AND DUP2 MSTORE PUSH1 0x20 ADD SWAP1 DUP2 MSTORE PUSH1 0x20 ADD PUSH1 0x0 KECCAK256 SLOAD SUB PUSH2 0x18D8 JUMPI PUSH1 0x1 PUSH1 0x7 PUSH1 0x0 CALLER PUSH20 0xFFFFFFFFFFFFFFFFFFFFFFFFFFFFFFFFFFFFFFFF AND PUSH20 0xFFFFFFFFFFFFFFFFFFFFFFFFFFFFFFFFFFFFFFFF AND DUP2 MSTORE PUSH1 0x20 ADD SWAP1 DUP2 MSTORE PUSH1 0x20 ADD PUSH1 0x0 KECCAK256 PUSH1 0x0 DUP3 DUP3 SLOAD PUSH2 0x18CC SWAP2 SWAP1 PUSH2 0x1FE8 JUMP JUMPDEST SWAP3 POP POP DUP2 SWAP1 SSTORE POP PUSH2 0x191E JUMP JUMPDEST PUSH1 0x1 PUSH1 0x7 PUSH1 0x0 CALLER PUSH20 0xFFFFFFFFFFFFFFFFFFFFFFFFFFFFFFFFFFFFFFFF AND PUSH20 0xFFFFFFFFFFFFFFFFFFFFFFFFFFFFFFFFFFFFFFFF AND DUP2 MSTORE PUSH1 0x20 ADD SWAP1 DUP2 MSTORE PUSH1 0x20 ADD PUSH1 0x0 KECCAK256 DUP2 SWAP1 SSTORE POP JUMPDEST DUP2 PUSH1 0x6 PUSH1 0x0 CALLER PUSH20 0xFFFFFFFFFFFFFFFFFFFFFFFFFFFFFFFFFFFFFFFF AND PUSH20 0xFFFFFFFFFFFFFFFFFFFFFFFFFFFFFFFFFFFFFFFF AND DUP2 MSTORE PUSH1 0x20 ADD SWAP1 DUP2 MSTORE PUSH1 0x20 ADD PUSH1 0x0 KECCAK256 DUP2 SWAP1 SSTORE POP PUSH2 0x196B DUP2 PUSH2 0x1446 JUMP JUMPDEST SWAP3 POP PUSH2 0x1977 CALLER DUP5 PUSH2 0x1A66 JUMP JUMPDEST CALLER PUSH20 0xFFFFFFFFFFFFFFFFFFFFFFFFFFFFFFFFFFFFFFFF AND PUSH32 0xB1EA073AC09A6B73CC1842F3DBDA1736E0C0D94B33AAC1983F2612A5D115B4C7 DUP5 PUSH1 0x7 PUSH1 0x0 CALLER PUSH20 0xFFFFFFFFFFFFFFFFFFFFFFFFFFFFFFFFFFFFFFFF AND PUSH20 0xFFFFFFFFFFFFFFFFFFFFFFFFFFFFFFFFFFFFFFFF AND DUP2 MSTORE PUSH1 0x20 ADD SWAP1 DUP2 MSTORE PUSH1 0x20 ADD PUSH1 0x0 KECCAK256 SLOAD PUSH1 0x40 MLOAD PUSH2 0x19FE SWAP3 SWAP2 SWAP1 PUSH2 0x252A JUMP JUMPDEST PUSH1 0x40 MLOAD DUP1 SWAP2 SUB SWAP1 LOG2 POP POP SWAP1 JUMP JUMPDEST PUSH1 0x8 SLOAD DUP2 JUMP JUMPDEST PUSH1 0x9 PUSH1 0x20 MSTORE DUP1 PUSH1 0x0 MSTORE PUSH1 0x40 PUSH1 0x0 KECCAK256 PUSH1 0x0 SWAP2 POP SWAP1 POP SLOAD DUP2 JUMP JUMPDEST PUSH1 0x1 PUSH1 0x20 MSTORE DUP2 PUSH1 0x0 MSTORE PUSH1 0x40 PUSH1 0x0 KECCAK256 PUSH1 0x20 MSTORE DUP1 PUSH1 0x0 MSTORE PUSH1 0x40 PUSH1 0x0 KECCAK256 PUSH1 0x0 SWAP2 POP SWAP2 POP POP SLOAD DUP2 JUMP JUMPDEST PUSH1 0x6 PUSH1 0x20 MSTORE DUP1 PUSH1 0x0 MSTORE PUSH1 0x40 PUSH1 0x0 KECCAK256 PUSH1 0x0 SWAP2 POP SWAP1 POP SLOAD DUP2 JUMP JUMPDEST DUP1 PUSH1 0x0 DUP1 DUP5 PUSH20 0xFFFFFFFFFFFFFFFFFFFFFFFFFFFFFFFFFFFFFFFF AND PUSH20 0xFFFFFFFFFFFFFFFFFFFFFFFFFFFFFFFFFFFFFFFF AND DUP2 MSTORE PUSH1 0x20 ADD SWAP1 DUP2 MSTORE PUSH1 0x20 ADD PUSH1 0x0 KECCAK256 PUSH1 0x0 DUP3 DUP3 SLOAD PUSH2 0x1AB4 SWAP2 SWAP1 PUSH2 0x1FE8 JUMP JUMPDEST SWAP3 POP POP DUP2 SWAP1 SSTORE POP DUP1 PUSH1 0x2 PUSH1 0x0 DUP3 DUP3 SLOAD PUSH2 0x1ACD SWAP2 SWAP1 PUSH2 0x1FE8 JUMP JUMPDEST SWAP3 POP POP DUP2 SWAP1 SSTORE POP DUP2 PUSH20 0xFFFFFFFFFFFFFFFFFFFFFFFFFFFFFFFFFFFFFFFF AND PUSH1 0x0 PUSH20 0xFFFFFFFFFFFFFFFFFFFFFFFFFFFFFFFFFFFFFFFF AND PUSH32 0xDDF252AD1BE2C89B69C2B068FC378DAA952BA7F163C4A11628F55A4DF523B3EF DUP4 PUSH1 0x40 MLOAD PUSH2 0x1B32 SWAP2 SWAP1 PUSH2 0x1D0E JUMP JUMPDEST PUSH1 0x40 MLOAD DUP1 SWAP2 SUB SWAP1 LOG3 POP POP JUMP JUMPDEST PUSH1 0x0 DUP2 MLOAD SWAP1 POP SWAP2 SWAP1 POP JUMP JUMPDEST PUSH1 0x0 DUP3 DUP3 MSTORE PUSH1 0x20 DUP3 ADD SWAP1 POP SWAP3 SWAP2 POP POP JUMP JUMPDEST PUSH1 0x0 JUMPDEST DUP4 DUP2 LT ISZERO PUSH2 0x1B78 JUMPI DUP1 DUP3 ADD MLOAD DUP2 DUP5 ADD MSTORE PUSH1 0x20 DUP2 ADD SWAP1 POP PUSH2 0x1B5D JUMP JUMPDEST PUSH1 0x0 DUP5 DUP5 ADD MSTORE POP POP POP POP JUMP JUMPDEST PUSH1 0x0 PUSH1 0x1F NOT PUSH1 0x1F DUP4 ADD AND SWAP1 POP SWAP2 SWAP1 POP JUMP JUMPDEST PUSH1 0x0 PUSH2 0x1BA0 DUP3 PUSH2 0x1B3E JUMP JUMPDEST PUSH2 0x1BAA DUP2 DUP6 PUSH2 0x1B49 JUMP JUMPDEST SWAP4 POP PUSH2 0x1BBA DUP2 DUP6 PUSH1 0x20 DUP7 ADD PUSH2 0x1B5A JUMP JUMPDEST PUSH2 0x1BC3 DUP2 PUSH2 0x1B84 JUMP JUMPDEST DUP5 ADD SWAP2 POP POP SWAP3 SWAP2 POP POP JUMP JUMPDEST PUSH1 0x0 PUSH1 0x20 DUP3 ADD SWAP1 POP DUP2 DUP2 SUB PUSH1 0x0 DUP4 ADD MSTORE PUSH2 0x1BE8 DUP2 DUP5 PUSH2 0x1B95 JUMP JUMPDEST SWAP1 POP SWAP3 SWAP2 POP POP JUMP JUMPDEST PUSH1 0x0 DUP1 REVERT JUMPDEST PUSH1 0x0 PUSH20 0xFFFFFFFFFFFFFFFFFFFFFFFFFFFFFFFFFFFFFFFF DUP3 AND SWAP1 POP SWAP2 SWAP1 POP JUMP JUMPDEST PUSH1 0x0 PUSH2 0x1C20 DUP3 PUSH2 0x1BF5 JUMP JUMPDEST SWAP1 POP SWAP2 SWAP1 POP JUMP JUMPDEST PUSH2 0x1C30 DUP2 PUSH2 0x1C15 JUMP JUMPDEST DUP2 EQ PUSH2 0x1C3B JUMPI PUSH1 0x0 DUP1 REVERT JUMPDEST POP JUMP JUMPDEST PUSH1 0x0 DUP2 CALLDATALOAD SWAP1 POP PUSH2 0x1C4D DUP2 PUSH2 0x1C27 JUMP JUMPDEST SWAP3 SWAP2 POP POP JUMP JUMPDEST PUSH1 0x0 DUP2 SWAP1 POP SWAP2 SWAP1 POP JUMP JUMPDEST PUSH2 0x1C66 DUP2 PUSH2 0x1C53 JUMP JUMPDEST DUP2 EQ PUSH2 0x1C71 JUMPI PUSH1 0x0 DUP1 REVERT JUMPDEST POP JUMP JUMPDEST PUSH1 0x0 DUP2 CALLDATALOAD SWAP1 POP PUSH2 0x1C83 DUP2 PUSH2 0x1C5D JUMP JUMPDEST SWAP3 SWAP2 POP POP JUMP JUMPDEST PUSH1 0x0 DUP1 PUSH1 0x40 DUP4 DUP6 SUB SLT ISZERO PUSH2 0x1CA0 JUMPI PUSH2 0x1C9F PUSH2 0x1BF0 JUMP JUMPDEST JUMPDEST PUSH1 0x0 PUSH2 0x1CAE DUP6 DUP3 DUP7 ADD PUSH2 0x1C3E JUMP JUMPDEST SWAP3 POP POP PUSH1 0x20 PUSH2 0x1CBF DUP6 DUP3 DUP7 ADD PUSH2 0x1C74 JUMP JUMPDEST SWAP2 POP POP SWAP3 POP SWAP3 SWAP1 POP JUMP JUMPDEST PUSH1 0x0 DUP2 ISZERO ISZERO SWAP1 POP SWAP2 SWAP1 POP JUMP JUMPDEST PUSH2 0x1CDE DUP2 PUSH2 0x1CC9 JUMP JUMPDEST DUP3 MSTORE POP POP JUMP JUMPDEST PUSH1 0x0 PUSH1 0x20 DUP3 ADD SWAP1 POP PUSH2 0x1CF9 PUSH1 0x0 DUP4 ADD DUP5 PUSH2 0x1CD5 JUMP JUMPDEST SWAP3 SWAP2 POP POP JUMP JUMPDEST PUSH2 0x1D08 DUP2 PUSH2 0x1C53 JUMP JUMPDEST DUP3 MSTORE POP POP JUMP JUMPDEST PUSH1 0x0 PUSH1 0x20 DUP3 ADD SWAP1 POP PUSH2 0x1D23 PUSH1 0x0 DUP4 ADD DUP5 PUSH2 0x1CFF JUMP JUMPDEST SWAP3 SWAP2 POP POP JUMP JUMPDEST PUSH1 0x0 DUP1 PUSH1 0x0 PUSH1 0x60 DUP5 DUP7 SUB SLT ISZERO PUSH2 0x1D42 JUMPI PUSH2 0x1D41 PUSH2 0x1BF0 JUMP JUMPDEST JUMPDEST PUSH1 0x0 PUSH2 0x1D50 DUP7 DUP3 DUP8 ADD PUSH2 0x1C3E JUMP JUMPDEST SWAP4 POP POP PUSH1 0x20 PUSH2 0x1D61 DUP7 DUP3 DUP8 ADD PUSH2 0x1C3E JUMP JUMPDEST SWAP3 POP POP PUSH1 0x40 PUSH2 0x1D72 DUP7 DUP3 DUP8 ADD PUSH2 0x1C74 JUMP JUMPDEST SWAP2 POP POP SWAP3 POP SWAP3 POP SWAP3 JUMP JUMPDEST PUSH1 0x0 PUSH1 0xFF DUP3 AND SWAP1 POP SWAP2 SWAP1 POP JUMP JUMPDEST PUSH2 0x1D92 DUP2 PUSH2 0x1D7C JUMP JUMPDEST DUP3 MSTORE POP POP JUMP JUMPDEST PUSH1 0x0 PUSH1 0x20 DUP3 ADD SWAP1 POP PUSH2 0x1DAD PUSH1 0x0 DUP4 ADD DUP5 PUSH2 0x1D89 JUMP JUMPDEST SWAP3 SWAP2 POP POP JUMP JUMPDEST PUSH1 0x0 PUSH1 0x20 DUP3 DUP5 SUB SLT ISZERO PUSH2 0x1DC9 JUMPI PUSH2 0x1DC8 PUSH2 0x1BF0 JUMP JUMPDEST JUMPDEST PUSH1 0x0 PUSH2 0x1DD7 DUP5 DUP3 DUP6 ADD PUSH2 0x1C3E JUMP JUMPDEST SWAP2 POP POP SWAP3 SWAP2 POP POP JUMP JUMPDEST PUSH1 0x0 PUSH1 0x20 DUP3 DUP5 SUB SLT ISZERO PUSH2 0x1DF6 JUMPI PUSH2 0x1DF5 PUSH2 0x1BF0 JUMP JUMPDEST JUMPDEST PUSH1 0x0 PUSH2 0x1E04 DUP5 DUP3 DUP6 ADD PUSH2 0x1C74 JUMP JUMPDEST SWAP2 POP POP SWAP3 SWAP2 POP POP JUMP JUMPDEST PUSH1 0x0 DUP1 PUSH1 0x40 DUP4 DUP6 SUB SLT ISZERO PUSH2 0x1E24 JUMPI PUSH2 0x1E23 PUSH2 0x1BF0 JUMP JUMPDEST JUMPDEST PUSH1 0x0 PUSH2 0x1E32 DUP6 DUP3 DUP7 ADD PUSH2 0x1C3E JUMP JUMPDEST SWAP3 POP POP PUSH1 0x20 PUSH2 0x1E43 DUP6 DUP3 DUP7 ADD PUSH2 0x1C3E JUMP JUMPDEST SWAP2 POP POP SWAP3 POP SWAP3 SWAP1 POP JUMP JUMPDEST PUSH32 0x4E487B7100000000000000000000000000000000000000000000000000000000 PUSH1 0x0 MSTORE PUSH1 0x22 PUSH1 0x4 MSTORE PUSH1 0x24 PUSH1 0x0 REVERT JUMPDEST PUSH1 0x0 PUSH1 0x2 DUP3 DIV SWAP1 POP PUSH1 0x1 DUP3 AND DUP1 PUSH2 0x1E94 JUMPI PUSH1 0x7F DUP3 AND SWAP2 POP JUMPDEST PUSH1 0x20 DUP3 LT DUP2 SUB PUSH2 0x1EA7 JUMPI PUSH2 0x1EA6 PUSH2 0x1E4D JUMP JUMPDEST JUMPDEST POP SWAP2 SWAP1 POP JUMP JUMPDEST PUSH32 0x45524332303A20696E73756666696369656E742062616C616E63650000000000 PUSH1 0x0 DUP3 ADD MSTORE POP JUMP JUMPDEST PUSH1 0x0 PUSH2 0x1EE3 PUSH1 0x1B DUP4 PUSH2 0x1B49 JUMP JUMPDEST SWAP2 POP PUSH2 0x1EEE DUP3 PUSH2 0x1EAD JUMP JUMPDEST PUSH1 0x20 DUP3 ADD SWAP1 POP SWAP2 SWAP1 POP JUMP JUMPDEST PUSH1 0x0 PUSH1 0x20 DUP3 ADD SWAP1 POP DUP2 DUP2 SUB PUSH1 0x0 DUP4 ADD MSTORE PUSH2 0x1F12 DUP2 PUSH2 0x1ED6 JUMP JUMPDEST SWAP1 POP SWAP2 SWAP1 POP JUMP JUMPDEST PUSH32 0x45524332303A20616C6C6F77616E636520746F6F206C6F770000000000000000 PUSH1 0x0 DUP3 ADD MSTORE POP JUMP JUMPDEST PUSH1 0x0 PUSH2 0x1F4F PUSH1 0x18 DUP4 PUSH2 0x1B49 JUMP JUMPDEST SWAP2 POP PUSH2 0x1F5A DUP3 PUSH2 0x1F19 JUMP JUMPDEST PUSH1 0x20 DUP3 ADD SWAP1 POP SWAP2 SWAP1 POP JUMP JUMPDEST PUSH1 0x0 PUSH1 0x20 DUP3 ADD SWAP1 POP DUP2 DUP2 SUB PUSH1 0x0 DUP4 ADD MSTORE PUSH2 0x1F7E DUP2 PUSH2 0x1F42 JUMP JUMPDEST SWAP1 POP SWAP2 SWAP1 POP JUMP JUMPDEST PUSH32 0x4E487B7100000000000000000000000000000000000000000000000000000000 PUSH1 0x0 MSTORE PUSH1 0x11 PUSH1 0x4 MSTORE PUSH1 0x24 PUSH1 0x0 REVERT JUMPDEST PUSH1 0x0 PUSH2 0x1FBF DUP3 PUSH2 0x1C53 JUMP JUMPDEST SWAP2 POP PUSH2 0x1FCA DUP4 PUSH2 0x1C53 JUMP JUMPDEST SWAP3 POP DUP3 DUP3 SUB SWAP1 POP DUP2 DUP2 GT ISZERO PUSH2 0x1FE2 JUMPI PUSH2 0x1FE1 PUSH2 0x1F85 JUMP JUMPDEST JUMPDEST SWAP3 SWAP2 POP POP JUMP JUMPDEST PUSH1 0x0 PUSH2 0x1FF3 DUP3 PUSH2 0x1C53 JUMP JUMPDEST SWAP2 POP PUSH2 0x1FFE DUP4 PUSH2 0x1C53 JUMP JUMPDEST SWAP3 POP DUP3 DUP3 ADD SWAP1 POP DUP1 DUP3 GT ISZERO PUSH2 0x2016 JUMPI PUSH2 0x2015 PUSH2 0x1F85 JUMP JUMPDEST JUMPDEST SWAP3 SWAP2 POP POP JUMP JUMPDEST PUSH32 0x45524332303A20696E73756666696369656E742062616C616E636520746F2062 PUSH1 0x0 DUP3 ADD MSTORE PUSH32 0x75726E0000000000000000000000000000000000000000000000000000000000 PUSH1 0x20 DUP3 ADD MSTORE POP JUMP JUMPDEST PUSH1 0x0 PUSH2 0x2078 PUSH1 0x23 DUP4 PUSH2 0x1B49 JUMP JUMPDEST SWAP2 POP PUSH2 0x2083 DUP3 PUSH2 0x201C JUMP JUMPDEST PUSH1 0x40 DUP3 ADD SWAP1 POP SWAP2 SWAP1 POP JUMP JUMPDEST PUSH1 0x0 PUSH1 0x20 DUP3 ADD SWAP1 POP DUP2 DUP2 SUB PUSH1 0x0 DUP4 ADD MSTORE PUSH2 0x20A7 DUP2 PUSH2 0x206B JUMP JUMPDEST SWAP1 POP SWAP2 SWAP1 POP JUMP JUMPDEST PUSH32 0x4E487B7100000000000000000000000000000000000000000000000000000000 PUSH1 0x0 MSTORE PUSH1 0x12 PUSH1 0x4 MSTORE PUSH1 0x24 PUSH1 0x0 REVERT JUMPDEST PUSH1 0x0 PUSH2 0x20E8 DUP3 PUSH2 0x1C53 JUMP JUMPDEST SWAP2 POP PUSH2 0x20F3 DUP4 PUSH2 0x1C53 JUMP JUMPDEST SWAP3 POP DUP3 PUSH2 0x2103 JUMPI PUSH2 0x2102 PUSH2 0x20AE JUMP JUMPDEST JUMPDEST DUP3 DUP3 DIV SWAP1 POP SWAP3 SWAP2 POP POP JUMP JUMPDEST PUSH32 0x4D61782033206472617773207065722064617900000000000000000000000000 PUSH1 0x0 DUP3 ADD MSTORE POP JUMP JUMPDEST PUSH1 0x0 PUSH2 0x2144 PUSH1 0x13 DUP4 PUSH2 0x1B49 JUMP JUMPDEST SWAP2 POP PUSH2 0x214F DUP3 PUSH2 0x210E JUMP JUMPDEST PUSH1 0x20 DUP3 ADD SWAP1 POP SWAP2 SWAP1 POP JUMP JUMPDEST PUSH1 0x0 PUSH1 0x20 DUP3 ADD SWAP1 POP DUP2 DUP2 SUB PUSH1 0x0 DUP4 ADD MSTORE PUSH2 0x2173 DUP2 PUSH2 0x2137 JUMP JUMPDEST SWAP1 POP SWAP2 SWAP1 POP JUMP JUMPDEST PUSH1 0x0 DUP2 PUSH1 0x1 SHR SWAP1 POP SWAP2 SWAP1 POP JUMP JUMPDEST PUSH1 0x0 DUP1 DUP3 SWAP2 POP DUP4 SWAP1 POP JUMPDEST PUSH1 0x1 DUP6 GT ISZERO PUSH2 0x21D1 JUMPI DUP1 DUP7 DIV DUP2 GT ISZERO PUSH2 0x21AD JUMPI PUSH2 0x21AC PUSH2 0x1F85 JUMP JUMPDEST JUMPDEST PUSH1 0x1 DUP6 AND ISZERO PUSH2 0x21BC JUMPI DUP1 DUP3 MUL SWAP2 POP JUMPDEST DUP1 DUP2 MUL SWAP1 POP PUSH2 0x21CA DUP6 PUSH2 0x217A JUMP JUMPDEST SWAP5 POP PUSH2 0x2191 JUMP JUMPDEST SWAP5 POP SWAP5 SWAP3 POP POP POP JUMP JUMPDEST PUSH1 0x0 DUP3 PUSH2 0x21EA JUMPI PUSH1 0x1 SWAP1 POP PUSH2 0x22A6 JUMP JUMPDEST DUP2 PUSH2 0x21F8 JUMPI PUSH1 0x0 SWAP1 POP PUSH2 0x22A6 JUMP JUMPDEST DUP2 PUSH1 0x1 DUP2 EQ PUSH2 0x220E JUMPI PUSH1 0x2 DUP2 EQ PUSH2 0x2218 JUMPI PUSH2 0x2247 JUMP JUMPDEST PUSH1 0x1 SWAP2 POP POP PUSH2 0x22A6 JUMP JUMPDEST PUSH1 0xFF DUP5 GT ISZERO PUSH2 0x222A JUMPI PUSH2 0x2229 PUSH2 0x1F85 JUMP JUMPDEST JUMPDEST DUP4 PUSH1 0x2 EXP SWAP2 POP DUP5 DUP3 GT ISZERO PUSH2 0x2241 JUMPI PUSH2 0x2240 PUSH2 0x1F85 JUMP JUMPDEST JUMPDEST POP PUSH2 0x22A6 JUMP JUMPDEST POP PUSH1 0x20 DUP4 LT PUSH2 0x133 DUP4 LT AND PUSH1 0x4E DUP5 LT PUSH1 0xB DUP5 LT AND OR ISZERO PUSH2 0x227C JUMPI DUP3 DUP3 EXP SWAP1 POP DUP4 DUP2 GT ISZERO PUSH2 0x2277 JUMPI PUSH2 0x2276 PUSH2 0x1F85 JUMP JUMPDEST JUMPDEST PUSH2 0x22A6 JUMP JUMPDEST PUSH2 0x2289 DUP5 DUP5 DUP5 PUSH1 0x1 PUSH2 0x2187 JUMP JUMPDEST SWAP3 POP SWAP1 POP DUP2 DUP5 DIV DUP2 GT ISZERO PUSH2 0x22A0 JUMPI PUSH2 0x229F PUSH2 0x1F85 JUMP JUMPDEST JUMPDEST DUP2 DUP2 MUL SWAP1 POP JUMPDEST SWAP4 SWAP3 POP POP POP JUMP JUMPDEST PUSH1 0x0 PUSH2 0x22B8 DUP3 PUSH2 0x1C53 JUMP JUMPDEST SWAP2 POP PUSH2 0x22C3 DUP4 PUSH2 0x1C53 JUMP JUMPDEST SWAP3 POP PUSH2 0x22F0 PUSH32 0xFFFFFFFFFFFFFFFFFFFFFFFFFFFFFFFFFFFFFFFFFFFFFFFFFFFFFFFFFFFFFFFF DUP5 DUP5 PUSH2 0x21DA JUMP JUMPDEST SWAP1 POP SWAP3 SWAP2 POP POP JUMP JUMPDEST PUSH1 0x0 PUSH2 0x2303 DUP3 PUSH2 0x1C53 JUMP JUMPDEST SWAP2 POP PUSH2 0x230E DUP4 PUSH2 0x1C53 JUMP JUMPDEST SWAP3 POP DUP3 DUP3 MUL PUSH2 0x231C DUP2 PUSH2 0x1C53 JUMP JUMPDEST SWAP2 POP DUP3 DUP3 DIV DUP5 EQ DUP4 ISZERO OR PUSH2 0x2333 JUMPI PUSH2 0x2332 PUSH2 0x1F85 JUMP JUMPDEST JUMPDEST POP SWAP3 SWAP2 POP POP JUMP JUMPDEST PUSH32 0x4E6F7420656E6F7567682050454E000000000000000000000000000000000000 PUSH1 0x0 DUP3 ADD MSTORE POP JUMP JUMPDEST PUSH1 0x0 PUSH2 0x2370 PUSH1 0xE DUP4 PUSH2 0x1B49 JUMP JUMPDEST SWAP2 POP PUSH2 0x237B DUP3 PUSH2 0x233A JUMP JUMPDEST PUSH1 0x20 DUP3 ADD SWAP1 POP SWAP2 SWAP1 POP JUMP JUMPDEST PUSH1 0x0 PUSH1 0x20 DUP3 ADD SWAP1 POP DUP2 DUP2 SUB PUSH1 0x0 DUP4 ADD MSTORE PUSH2 0x239F DUP2 PUSH2 0x2363 JUMP JUMPDEST SWAP1 POP SWAP2 SWAP1 POP JUMP JUMPDEST PUSH1 0x0 PUSH2 0x23B1 DUP3 PUSH2 0x1C53 JUMP JUMPDEST SWAP2 POP PUSH2 0x23BC DUP4 PUSH2 0x1C53 JUMP JUMPDEST SWAP3 POP DUP3 PUSH2 0x23CC JUMPI PUSH2 0x23CB PUSH2 0x20AE JUMP JUMPDEST JUMPDEST DUP3 DUP3 MOD SWAP1 POP SWAP3 SWAP2 POP POP JUMP JUMPDEST PUSH1 0x0 PUSH1 0x40 DUP3 ADD SWAP1 POP DUP2 DUP2 SUB PUSH1 0x0 DUP4 ADD MSTORE PUSH2 0x23F1 DUP2 DUP6 PUSH2 0x1B95 JUMP JUMPDEST SWAP1 POP PUSH2 0x2400 PUSH1 0x20 DUP4 ADD DUP5 PUSH2 0x1CFF JUMP JUMPDEST SWAP4 SWAP3 POP POP POP JUMP JUMPDEST PUSH1 0x0 DUP2 SWAP1 POP SWAP2 SWAP1 POP JUMP JUMPDEST PUSH2 0x2422 PUSH2 0x241D DUP3 PUSH2 0x1C53 JUMP JUMPDEST PUSH2 0x2407 JUMP JUMPDEST DUP3 MSTORE POP POP JUMP JUMPDEST PUSH1 0x0 DUP2 PUSH1 0x60 SHL SWAP1 POP SWAP2 SWAP1 POP JUMP JUMPDEST PUSH1 0x0 PUSH2 0x2440 DUP3 PUSH2 0x2428 JUMP JUMPDEST SWAP1 POP SWAP2 SWAP1 POP JUMP JUMPDEST PUSH1 0x0 PUSH2 0x2452 DUP3 PUSH2 0x2435 JUMP JUMPDEST SWAP1 POP SWAP2 SWAP1 POP JUMP JUMPDEST PUSH2 0x246A PUSH2 0x2465 DUP3 PUSH2 0x1C15 JUMP JUMPDEST PUSH2 0x2447 JUMP JUMPDEST DUP3 MSTORE POP POP JUMP JUMPDEST PUSH1 0x0 PUSH2 0x247C DUP3 DUP8 PUSH2 0x2411 JUMP JUMPDEST PUSH1 0x20 DUP3 ADD SWAP2 POP PUSH2 0x248C DUP3 DUP7 PUSH2 0x2411 JUMP JUMPDEST PUSH1 0x20 DUP3 ADD SWAP2 POP PUSH2 0x249C DUP3 DUP6 PUSH2 0x2459 JUMP JUMPDEST PUSH1 0x14 DUP3 ADD SWAP2 POP PUSH2 0x24AC DUP3 DUP5 PUSH2 0x2411 JUMP JUMPDEST PUSH1 0x20 DUP3 ADD SWAP2 POP DUP2 SWAP1 POP SWAP6 SWAP5 POP POP POP POP POP JUMP JUMPDEST PUSH32 0x416C726561647920636865636B656420696E20746F6461790000000000000000 PUSH1 0x0 DUP3 ADD MSTORE POP JUMP JUMPDEST PUSH1 0x0 PUSH2 0x24F4 PUSH1 0x18 DUP4 PUSH2 0x1B49 JUMP JUMPDEST SWAP2 POP PUSH2 0x24FF DUP3 PUSH2 0x24BE JUMP JUMPDEST PUSH1 0x20 DUP3 ADD SWAP1 POP SWAP2 SWAP1 POP JUMP JUMPDEST PUSH1 0x0 PUSH1 0x20 DUP3 ADD SWAP1 POP DUP2 DUP2 SUB PUSH1 0x0 DUP4 ADD MSTORE PUSH2 0x2523 DUP2 PUSH2 0x24E7 JUMP JUMPDEST SWAP1 POP SWAP2 SWAP1 POP JUMP JUMPDEST PUSH1 0x0 PUSH1 0x40 DUP3 ADD SWAP1 POP PUSH2 0x253F PUSH1 0x0 DUP4 ADD DUP6 PUSH2 0x1CFF JUMP JUMPDEST PUSH2 0x254C PUSH1 0x20 DUP4 ADD DUP5 PUSH2 0x1CFF JUMP JUMPDEST SWAP4 SWAP3 POP POP POP JUMP INVALID LOG2 PUSH5 0x6970667358 0x22 SLT KECCAK256 0xA7 EXTCODECOPY PUSH2 0xAE1F PUSH13 0x3FDE7C2A7371CB3E3E786FEABD PUSH24 0x32A01E7DAD8AC20FF5DB6A5F64736F6C6343000812003300 "
				},
				"gasEstimates": {
					"creation": {
						"codeDepositCost": "1921800",
						"executionCost": "infinite",
						"totalCost": "infinite"
					},
					"external": {
						"allowance(address,address)": "infinite",
						"approve(address,uint256)": "infinite",
						"balanceOf(address)": "2925",
						"burn(uint256)": "infinite",
						"checkin()": "infinite",
						"checkinBase()": "2473",
						"checkinDate(address)": "2924",
						"checkinStreak(address)": "2859",
						"decimals()": "2494",
						"getCheckinReward(uint256)": "infinite",
						"luckyDraw(uint256)": "infinite",
						"luckyDrawCount(address)": "2837",
						"luckyDrawDate(address)": "2880",
						"name()": "infinite",
						"random(uint256)": "infinite",
						"symbol()": "infinite",
						"totalSupply()": "2497",
						"transfer(address,uint256)": "infinite",
						"transferFrom(address,address,uint256)": "infinite"
					}
				},
				"methodIdentifiers": {
					"allowance(address,address)": "dd62ed3e",
					"approve(address,uint256)": "095ea7b3",
					"balanceOf(address)": "70a08231",
					"burn(uint256)": "42966c68",
					"checkin()": "baeb0718",
					"checkinBase()": "bb47e61a",
					"checkinDate(address)": "f1a19b6c",
					"checkinStreak(address)": "35edf0b0",
					"decimals()": "313ce567",
					"getCheckinReward(uint256)": "a6c1ba5f",
					"luckyDraw(uint256)": "6d6ae1a8",
					"luckyDrawCount(address)": "7f93ee98",
					"luckyDrawDate(address)": "bd6e4e75",
					"name()": "06fdde03",
					"random(uint256)": "b863bd37",
					"symbol()": "95d89b41",
					"totalSupply()": "18160ddd",
					"transfer(address,uint256)": "a9059cbb",
					"transferFrom(address,address,uint256)": "23b872dd"
				}
			},
			"storageLayout": {
				"storage": [
					{
						"astId": 573,
						"contract": "contracts/PenERC20V2.sol:PenERC20V2",
						"label": "balanceOf",
						"offset": 0,
						"slot": "0",
						"type": "t_mapping(t_address,t_uint256)"
					},
					{
						"astId": 580,
						"contract": "contracts/PenERC20V2.sol:PenERC20V2",
						"label": "allowance",
						"offset": 0,
						"slot": "1",
						"type": "t_mapping(t_address,t_mapping(t_address,t_uint256))"
					},
					{
						"astId": 583,
						"contract": "contracts/PenERC20V2.sol:PenERC20V2",
						"label": "totalSupply",
						"offset": 0,
						"slot": "2",
						"type": "t_uint256"
					},
					{
						"astId": 585,
						"contract": "contracts/PenERC20V2.sol:PenERC20V2",
						"label": "name",
						"offset": 0,
						"slot": "3",
						"type": "t_string_storage"
					},
					{
						"astId": 587,
						"contract": "contracts/PenERC20V2.sol:PenERC20V2",
						"label": "symbol",
						"offset": 0,
						"slot": "4",
						"type": "t_string_storage"
					},
					{
						"astId": 590,
						"contract": "contracts/PenERC20V2.sol:PenERC20V2",
						"label": "decimals",
						"offset": 0,
						"slot": "5",
						"type": "t_uint8"
					},
					{
						"astId": 8,
						"contract": "contracts/PenERC20V2.sol:PenERC20V2",
						"label": "checkinDate",
						"offset": 0,
						"slot": "6",
						"type": "t_mapping(t_address,t_uint256)"
					},
					{
						"astId": 12,
						"contract": "contracts/PenERC20V2.sol:PenERC20V2",
						"label": "checkinStreak",
						"offset": 0,
						"slot": "7",
						"type": "t_mapping(t_address,t_uint256)"
					},
					{
						"astId": 15,
						"contract": "contracts/PenERC20V2.sol:PenERC20V2",
						"label": "checkinBase",
						"offset": 0,
						"slot": "8",
						"type": "t_uint256"
					},
					{
						"astId": 209,
						"contract": "contracts/PenERC20V2.sol:PenERC20V2",
						"label": "luckyDrawDate",
						"offset": 0,
						"slot": "9",
						"type": "t_mapping(t_address,t_uint256)"
					},
					{
						"astId": 213,
						"contract": "contracts/PenERC20V2.sol:PenERC20V2",
						"label": "luckyDrawCount",
						"offset": 0,
						"slot": "10",
						"type": "t_mapping(t_address,t_uint256)"
					}
				],
				"types": {
					"t_address": {
						"encoding": "inplace",
						"label": "address",
						"numberOfBytes": "20"
					},
					"t_mapping(t_address,t_mapping(t_address,t_uint256))": {
						"encoding": "mapping",
						"key": "t_address",
						"label": "mapping(address => mapping(address => uint256))",
						"numberOfBytes": "32",
						"value": "t_mapping(t_address,t_uint256)"
					},
					"t_mapping(t_address,t_uint256)": {
						"encoding": "mapping",
						"key": "t_address",
						"label": "mapping(address => uint256)",
						"numberOfBytes": "32",
						"value": "t_uint256"
					},
					"t_string_storage": {
						"encoding": "bytes",
						"label": "string",
						"numberOfBytes": "32"
					},
					"t_uint256": {
						"encoding": "inplace",
						"label": "uint256",
						"numberOfBytes": "32"
					},
					"t_uint8": {
						"encoding": "inplace",
						"label": "uint8",
						"numberOfBytes": "1"
					}
				}
			},
			"userdoc": {
				"kind": "user",
				"methods": {},
				"version": 1
			}
		}
	}
}