{
	"contracts/base/ERC20.sol": {
		"ERC20": {
			"abi": [
				{
					"inputs": [
						{
							"internalType": "string",
							"name": "name_",
							"type": "string"
						},
						{
							"internalType": "string",
							"name": "symbol_",
							"type": "string"
						},
						{
							"internalType": "address",
							"name": "owner_",
							"type": "address"
						}
					],
					"stateMutability": "nonpayable",
					"type": "constructor"
				},
				{
					"anonymous": false,
					"inputs": [
						{
							"indexed": true,
							"internalType": "address",
							"name": "owner",
							"type": "address"
						},
						{
							"indexed": true,
							"internalType": "address",
							"name": "spender",
							"type": "address"
						},
						{
							"indexed": false,
							"internalType": "uint256",
							"name": "value",
							"type": "uint256"
						}
					],
					"name": "Approval",
					"type": "event"
				},
				{
					"anonymous": false,
					"inputs": [
						{
							"indexed": true,
							"internalType": "address",
							"name": "from",
							"type": "address"
						},
						{
							"indexed": true,
							"internalType": "address",
							"name": "to",
							"type": "address"
						},
						{
							"indexed": false,
							"internalType": "uint256",
							"name": "value",
							"type": "uint256"
						}
					],
					"name": "Transfer",
					"type": "event"
				},
				{
					"inputs": [
						{
							"internalType": "address",
							"name": "",
							"type": "address"
						},
						{
							"internalType": "address",
							"name": "",
							"type": "address"
						}
					],
					"name": "allowance",
					"outputs": [
						{
							"internalType": "uint256",
							"name": "",
							"type": "uint256"
						}
					],
					"stateMutability": "view",
					"type": "function"
				},
				{
					"inputs": [
						{
							"internalType": "address",
							"name": "spender",
							"type": "address"
						},
						{
							"internalType": "uint256",
							"name": "amount",
							"type": "uint256"
						}
					],
					"name": "approve",
					"outputs": [
						{
							"internalType": "bool",
							"name": "",
							"type": "bool"
						}
					],
					"stateMutability": "nonpayable",
					"type": "function"
				},
				{
					"inputs": [
						{
							"internalType": "address",
							"name": "",
							"type": "address"
						}
					],
					"name": "balanceOf",
					"outputs": [
						{
							"internalType": "uint256",
							"name": "",
							"type": "uint256"
						}
					],
					"stateMutability": "view",
					"type": "function"
				},
				{
					"inputs": [
						{
							"internalType": "uint256",
							"name": "amount",
							"type": "uint256"
						}
					],
					"name": "burn",
					"outputs": [],
					"stateMutability": "nonpayable",
					"type": "function"
				},
				{
					"inputs": [],
					"name": "decimals",
					"outputs": [
						{
							"internalType": "uint8",
							"name": "",
							"type": "uint8"
						}
					],
					"stateMutability": "view",
					"type": "function"
				},
				{
					"inputs": [],
					"name": "name",
					"outputs": [
						{
							"internalType": "string",
							"name": "",
							"type": "string"
						}
					],
					"stateMutability": "view",
					"type": "function"
				},
				{
					"inputs": [],
					"name": "symbol",
					"outputs": [
						{
							"internalType": "string",
							"name": "",
							"type": "string"
						}
					],
					"stateMutability": "view",
					"type": "function"
				},
				{
					"inputs": [],
					"name": "totalSupply",
					"outputs": [
						{
							"internalType": "uint256",
							"name": "",
							"type": "uint256"
						}
					],
					"stateMutability": "view",
					"type": "function"
				},
				{
					"inputs": [
						{
							"internalType": "address",
							"name": "recipient",
							"type": "address"
						},
						{
							"internalType": "uint256",
							"name": "amount",
							"type": "uint256"
						}
					],
					"name": "transfer",
					"outputs": [
						{
							"internalType": "bool",
							"name": "",
							"type": "bool"
						}
					],
					"stateMutability": "nonpayable",
					"type": "function"
				},
				{
					"inputs": [
						{
							"internalType": "address",
							"name": "sender",
							"type": "address"
						},
						{
							"internalType": "address",
							"name": "recipient",
							"type": "address"
						},
						{
							"internalType": "uint256",
							"name": "amount",
							"type": "uint256"
						}
					],
					"name": "transferFrom",
					"outputs": [
						{
							"internalType": "bool",
							"name": "",
							"type": "bool"
						}
					],
					"stateMutability": "nonpayable",
					"type": "function"
				}
			],
			"devdoc": {
				"events": {
					"Approval(address,address,uint256)": {
						"details": "释放条件：当 `value` 单位的货币从账户 (`owner`) 授权给另一账户 (`spender`)时."
					},
					"Transfer(address,address,uint256)": {
						"details": "释放条件：当 `value` 单位的货币从账户 (`from`) 转账到另一账户 (`to`)时."
					}
				},
				"kind": "dev",
				"methods": {
					"approve(address,uint256)": {
						"details": "调用者账户给`spender`账户授权 `amount`数量代币。 如果成功，返回 `true`. 释放 {Approval} 事件."
					}
				},
				"stateVariables": {
					"allowance": {
						"details": "返回`owner`账户授权给`spender`账户的额度，默认为0。 当{approve} 或 {transferFrom} 被调用时，`allowance`会改变."
					},
					"balanceOf": {
						"details": "返回账户`account`所持有的代币数."
					},
					"totalSupply": {
						"details": "返回代币总供给."
					}
				},
				"version": 1
			},
			"evm": {
				"assembly": "    /* \"contracts/base/ERC20.sol\":97:2251  contract ERC20 is IERC20 {... */\n  mstore(0x40, 0x80)\n    /* \"contracts/base/ERC20.sol\":391:393  18 */\n  0x12\n    /* \"contracts/base/ERC20.sol\":367:393  uint8 public decimals = 18 */\n  0x05\n  exp(0x0100, 0x00)\n  dup2\n  sload\n  dup2\n  0xff\n  mul\n  not\n  and\n  swap1\n  dup4\n  0xff\n  and\n  mul\n  or\n  swap1\n  sstore\n  pop\n    /* \"contracts/base/ERC20.sol\":402:691  constructor(string memory name_, string memory symbol_, address owner_) {... */\n  callvalue\n  dup1\n  iszero\n  tag_1\n  jumpi\n  0x00\n  dup1\n  revert\ntag_1:\n  pop\n  mload(0x40)\n  sub(codesize, bytecodeSize)\n  dup1\n  bytecodeSize\n  dup4\n  codecopy\n  dup2\n  dup2\n  add\n  0x40\n  mstore\n  dup2\n  add\n  swap1\n  tag_2\n  swap2\n  swap1\n  tag_3\n  jump\t// in\ntag_2:\n    /* \"contracts/base/ERC20.sol\":492:497  name_ */\n  dup3\n    /* \"contracts/base/ERC20.sol\":485:489  name */\n  0x03\n    /* \"contracts/base/ERC20.sol\":485:497  name = name_ */\n  swap1\n  dup2\n  tag_6\n  swap2\n  swap1\n  tag_7\n  jump\t// in\ntag_6:\n  pop\n    /* \"contracts/base/ERC20.sol\":517:524  symbol_ */\n  dup2\n    /* \"contracts/base/ERC20.sol\":508:514  symbol */\n  0x04\n    /* \"contracts/base/ERC20.sol\":508:524  symbol = symbol_ */\n  swap1\n  dup2\n  tag_8\n  swap2\n  swap1\n  tag_7\n  jump\t// in\ntag_8:\n  pop\n    /* \"contracts/base/ERC20.sol\":626:672  mint(owner_, 200000 * 10 ** uint256(decimals)) */\n  tag_9\n    /* \"contracts/base/ERC20.sol\":631:637  owner_ */\n  dup2\n    /* \"contracts/base/ERC20.sol\":662:670  decimals */\n  0x05\n  0x00\n  swap1\n  sload\n  swap1\n  0x0100\n  exp\n  swap1\n  div\n  0xff\n  and\n    /* \"contracts/base/ERC20.sol\":654:671  uint256(decimals) */\n  0xff\n  and\n    /* \"contracts/base/ERC20.sol\":648:650  10 */\n  0x0a\n    /* \"contracts/base/ERC20.sol\":648:671  10 ** uint256(decimals) */\n  exp\n    /* \"contracts/base/ERC20.sol\":639:645  200000 */\n  0x030d40\n    /* \"contracts/base/ERC20.sol\":639:671  200000 * 10 ** uint256(decimals) */\n  mul\n    /* \"contracts/base/ERC20.sol\":626:630  mint */\n  shl(0x20, tag_10)\n    /* \"contracts/base/ERC20.sol\":626:672  mint(owner_, 200000 * 10 ** uint256(decimals)) */\n  0x20\n  shr\n  jump\t// in\ntag_9:\n    /* \"contracts/base/ERC20.sol\":402:691  constructor(string memory name_, string memory symbol_, address owner_) {... */\n  pop\n  pop\n  pop\n    /* \"contracts/base/ERC20.sol\":97:2251  contract ERC20 is IERC20 {... */\n  jump(tag_11)\n    /* \"contracts/base/ERC20.sol\":1775:1969  function mint(address recipient, uint256 amount) internal {... */\ntag_10:\n    /* \"contracts/base/ERC20.sol\":1868:1874  amount */\n  dup1\n    /* \"contracts/base/ERC20.sol\":1844:1853  balanceOf */\n  0x00\n    /* \"contracts/base/ERC20.sol\":1844:1864  balanceOf[recipient] */\n  dup1\n    /* \"contracts/base/ERC20.sol\":1854:1863  recipient */\n  dup5\n    /* \"contracts/base/ERC20.sol\":1844:1864  balanceOf[recipient] */\n  0xffffffffffffffffffffffffffffffffffffffff\n  and\n  0xffffffffffffffffffffffffffffffffffffffff\n  and\n  dup2\n  mstore\n  0x20\n  add\n  swap1\n  dup2\n  mstore\n  0x20\n  add\n  0x00\n  keccak256\n  0x00\n    /* \"contracts/base/ERC20.sol\":1844:1874  balanceOf[recipient] += amount */\n  dup3\n  dup3\n  sload\n  tag_13\n  swap2\n  swap1\n  tag_14\n  jump\t// in\ntag_13:\n  swap3\n  pop\n  pop\n  dup2\n  swap1\n  sstore\n  pop\n    /* \"contracts/base/ERC20.sol\":1900:1906  amount */\n  dup1\n    /* \"contracts/base/ERC20.sol\":1885:1896  totalSupply */\n  0x02\n  0x00\n    /* \"contracts/base/ERC20.sol\":1885:1906  totalSupply += amount */\n  dup3\n  dup3\n  sload\n  tag_15\n  swap2\n  swap1\n  tag_14\n  jump\t// in\ntag_15:\n  swap3\n  pop\n  pop\n  dup2\n  swap1\n  sstore\n  pop\n    /* \"contracts/base/ERC20.sol\":1943:1952  recipient */\n  dup2\n    /* \"contracts/base/ERC20.sol\":1922:1961  Transfer(address(0), recipient, amount) */\n  0xffffffffffffffffffffffffffffffffffffffff\n  and\n    /* \"contracts/base/ERC20.sol\":1939:1940  0 */\n  0x00\n    /* \"contracts/base/ERC20.sol\":1922:1961  Transfer(address(0), recipient, amount) */\n  0xffffffffffffffffffffffffffffffffffffffff\n  and\n  0xddf252ad1be2c89b69c2b068fc378daa952ba7f163c4a11628f55a4df523b3ef\n    /* \"contracts/base/ERC20.sol\":1954:1960  amount */\n  dup4\n    /* \"contracts/base/ERC20.sol\":1922:1961  Transfer(address(0), recipient, amount) */\n  mload(0x40)\n  tag_16\n  swap2\n  swap1\n  tag_17\n  jump\t// in\ntag_16:\n  mload(0x40)\n  dup1\n  swap2\n  sub\n  swap1\n  log3\n    /* \"contracts/base/ERC20.sol\":1775:1969  function mint(address recipient, uint256 amount) internal {... */\n  pop\n  pop\n  jump\t// out\n    /* \"#utility.yul\":7:82   */\ntag_18:\n    /* \"#utility.yul\":40:46   */\n  0x00\n    /* \"#utility.yul\":73:75   */\n  0x40\n    /* \"#utility.yul\":67:76   */\n  mload\n    /* \"#utility.yul\":57:76   */\n  swap1\n  pop\n    /* \"#utility.yul\":7:82   */\n  swap1\n  jump\t// out\n    /* \"#utility.yul\":88:205   */\ntag_19:\n    /* \"#utility.yul\":197:198   */\n  0x00\n    /* \"#utility.yul\":194:195   */\n  dup1\n    /* \"#utility.yul\":187:199   */\n  revert\n    /* \"#utility.yul\":211:328   */\ntag_20:\n    /* \"#utility.yul\":320:321   */\n  0x00\n    /* \"#utility.yul\":317:318   */\n  dup1\n    /* \"#utility.yul\":310:322   */\n  revert\n    /* \"#utility.yul\":334:451   */\ntag_21:\n    /* \"#utility.yul\":443:444   */\n  0x00\n    /* \"#utility.yul\":440:441   */\n  dup1\n    /* \"#utility.yul\":433:445   */\n  revert\n    /* \"#utility.yul\":457:574   */\ntag_22:\n    /* \"#utility.yul\":566:567   */\n  0x00\n    /* \"#utility.yul\":563:564   */\n  dup1\n    /* \"#utility.yul\":556:568   */\n  revert\n    /* \"#utility.yul\":580:682   */\ntag_23:\n    /* \"#utility.yul\":621:627   */\n  0x00\n    /* \"#utility.yul\":672:674   */\n  0x1f\n    /* \"#utility.yul\":668:675   */\n  not\n    /* \"#utility.yul\":663:665   */\n  0x1f\n    /* \"#utility.yul\":656:661   */\n  dup4\n    /* \"#utility.yul\":652:666   */\n  add\n    /* \"#utility.yul\":648:676   */\n  and\n    /* \"#utility.yul\":638:676   */\n  swap1\n  pop\n    /* \"#utility.yul\":580:682   */\n  swap2\n  swap1\n  pop\n  jump\t// out\n    /* \"#utility.yul\":688:868   */\ntag_24:\n    /* \"#utility.yul\":736:813   */\n  0x4e487b7100000000000000000000000000000000000000000000000000000000\n    /* \"#utility.yul\":733:734   */\n  0x00\n    /* \"#utility.yul\":726:814   */\n  mstore\n    /* \"#utility.yul\":833:837   */\n  0x41\n    /* \"#utility.yul\":830:831   */\n  0x04\n    /* \"#utility.yul\":823:838   */\n  mstore\n    /* \"#utility.yul\":857:861   */\n  0x24\n    /* \"#utility.yul\":854:855   */\n  0x00\n    /* \"#utility.yul\":847:862   */\n  revert\n    /* \"#utility.yul\":874:1155   */\ntag_25:\n    /* \"#utility.yul\":957:984   */\n  tag_65\n    /* \"#utility.yul\":979:983   */\n  dup3\n    /* \"#utility.yul\":957:984   */\n  tag_23\n  jump\t// in\ntag_65:\n    /* \"#utility.yul\":949:955   */\n  dup2\n    /* \"#utility.yul\":945:985   */\n  add\n    /* \"#utility.yul\":1087:1093   */\n  dup2\n    /* \"#utility.yul\":1075:1085   */\n  dup2\n    /* \"#utility.yul\":1072:1094   */\n  lt\n    /* \"#utility.yul\":1051:1069   */\n  0xffffffffffffffff\n    /* \"#utility.yul\":1039:1049   */\n  dup3\n    /* \"#utility.yul\":1036:1070   */\n  gt\n    /* \"#utility.yul\":1033:1095   */\n  or\n    /* \"#utility.yul\":1030:1118   */\n  iszero\n  tag_66\n  jumpi\n    /* \"#utility.yul\":1098:1116   */\n  tag_67\n  tag_24\n  jump\t// in\ntag_67:\n    /* \"#utility.yul\":1030:1118   */\ntag_66:\n    /* \"#utility.yul\":1138:1148   */\n  dup1\n    /* \"#utility.yul\":1134:1136   */\n  0x40\n    /* \"#utility.yul\":1127:1149   */\n  mstore\n    /* \"#utility.yul\":917:1155   */\n  pop\n    /* \"#utility.yul\":874:1155   */\n  pop\n  pop\n  jump\t// out\n    /* \"#utility.yul\":1161:1290   */\ntag_26:\n    /* \"#utility.yul\":1195:1201   */\n  0x00\n    /* \"#utility.yul\":1222:1242   */\n  tag_69\n  tag_18\n  jump\t// in\ntag_69:\n    /* \"#utility.yul\":1212:1242   */\n  swap1\n  pop\n    /* \"#utility.yul\":1251:1284   */\n  tag_70\n    /* \"#utility.yul\":1279:1283   */\n  dup3\n    /* \"#utility.yul\":1271:1277   */\n  dup3\n    /* \"#utility.yul\":1251:1284   */\n  tag_25\n  jump\t// in\ntag_70:\n    /* \"#utility.yul\":1161:1290   */\n  swap2\n  swap1\n  pop\n  jump\t// out\n    /* \"#utility.yul\":1296:1604   */\ntag_27:\n    /* \"#utility.yul\":1358:1362   */\n  0x00\n    /* \"#utility.yul\":1448:1466   */\n  0xffffffffffffffff\n    /* \"#utility.yul\":1440:1446   */\n  dup3\n    /* \"#utility.yul\":1437:1467   */\n  gt\n    /* \"#utility.yul\":1434:1490   */\n  iszero\n  tag_72\n  jumpi\n    /* \"#utility.yul\":1470:1488   */\n  tag_73\n  tag_24\n  jump\t// in\ntag_73:\n    /* \"#utility.yul\":1434:1490   */\ntag_72:\n    /* \"#utility.yul\":1508:1537   */\n  tag_74\n    /* \"#utility.yul\":1530:1536   */\n  dup3\n    /* \"#utility.yul\":1508:1537   */\n  tag_23\n  jump\t// in\ntag_74:\n    /* \"#utility.yul\":1500:1537   */\n  swap1\n  pop\n    /* \"#utility.yul\":1592:1596   */\n  0x20\n    /* \"#utility.yul\":1586:1590   */\n  dup2\n    /* \"#utility.yul\":1582:1597   */\n  add\n    /* \"#utility.yul\":1574:1597   */\n  swap1\n  pop\n    /* \"#utility.yul\":1296:1604   */\n  swap2\n  swap1\n  pop\n  jump\t// out\n    /* \"#utility.yul\":1610:1856   */\ntag_28:\n    /* \"#utility.yul\":1691:1692   */\n  0x00\n    /* \"#utility.yul\":1701:1814   */\ntag_76:\n    /* \"#utility.yul\":1715:1721   */\n  dup4\n    /* \"#utility.yul\":1712:1713   */\n  dup2\n    /* \"#utility.yul\":1709:1722   */\n  lt\n    /* \"#utility.yul\":1701:1814   */\n  iszero\n  tag_78\n  jumpi\n    /* \"#utility.yul\":1800:1801   */\n  dup1\n    /* \"#utility.yul\":1795:1798   */\n  dup3\n    /* \"#utility.yul\":1791:1802   */\n  add\n    /* \"#utility.yul\":1785:1803   */\n  mload\n    /* \"#utility.yul\":1781:1782   */\n  dup2\n    /* \"#utility.yul\":1776:1779   */\n  dup5\n    /* \"#utility.yul\":1772:1783   */\n  add\n    /* \"#utility.yul\":1765:1804   */\n  mstore\n    /* \"#utility.yul\":1737:1739   */\n  0x20\n    /* \"#utility.yul\":1734:1735   */\n  dup2\n    /* \"#utility.yul\":1730:1740   */\n  add\n    /* \"#utility.yul\":1725:1740   */\n  swap1\n  pop\n    /* \"#utility.yul\":1701:1814   */\n  jump(tag_76)\ntag_78:\n    /* \"#utility.yul\":1848:1849   */\n  0x00\n    /* \"#utility.yul\":1839:1845   */\n  dup5\n    /* \"#utility.yul\":1834:1837   */\n  dup5\n    /* \"#utility.yul\":1830:1846   */\n  add\n    /* \"#utility.yul\":1823:1850   */\n  mstore\n    /* \"#utility.yul\":1672:1856   */\n  pop\n    /* \"#utility.yul\":1610:1856   */\n  pop\n  pop\n  pop\n  jump\t// out\n    /* \"#utility.yul\":1862:2296   */\ntag_29:\n    /* \"#utility.yul\":1951:1956   */\n  0x00\n    /* \"#utility.yul\":1976:2042   */\n  tag_80\n    /* \"#utility.yul\":1992:2041   */\n  tag_81\n    /* \"#utility.yul\":2034:2040   */\n  dup5\n    /* \"#utility.yul\":1992:2041   */\n  tag_27\n  jump\t// in\ntag_81:\n    /* \"#utility.yul\":1976:2042   */\n  tag_26\n  jump\t// in\ntag_80:\n    /* \"#utility.yul\":1967:2042   */\n  swap1\n  pop\n    /* \"#utility.yul\":2065:2071   */\n  dup3\n    /* \"#utility.yul\":2058:2063   */\n  dup2\n    /* \"#utility.yul\":2051:2072   */\n  mstore\n    /* \"#utility.yul\":2103:2107   */\n  0x20\n    /* \"#utility.yul\":2096:2101   */\n  dup2\n    /* \"#utility.yul\":2092:2108   */\n  add\n    /* \"#utility.yul\":2141:2144   */\n  dup5\n    /* \"#utility.yul\":2132:2138   */\n  dup5\n    /* \"#utility.yul\":2127:2130   */\n  dup5\n    /* \"#utility.yul\":2123:2139   */\n  add\n    /* \"#utility.yul\":2120:2145   */\n  gt\n    /* \"#utility.yul\":2117:2229   */\n  iszero\n  tag_82\n  jumpi\n    /* \"#utility.yul\":2148:2227   */\n  tag_83\n  tag_22\n  jump\t// in\ntag_83:\n    /* \"#utility.yul\":2117:2229   */\ntag_82:\n    /* \"#utility.yul\":2238:2290   */\n  tag_84\n    /* \"#utility.yul\":2283:2289   */\n  dup5\n    /* \"#utility.yul\":2278:2281   */\n  dup3\n    /* \"#utility.yul\":2273:2276   */\n  dup6\n    /* \"#utility.yul\":2238:2290   */\n  tag_28\n  jump\t// in\ntag_84:\n    /* \"#utility.yul\":1957:2296   */\n  pop\n    /* \"#utility.yul\":1862:2296   */\n  swap4\n  swap3\n  pop\n  pop\n  pop\n  jump\t// out\n    /* \"#utility.yul\":2316:2671   */\ntag_30:\n    /* \"#utility.yul\":2383:2388   */\n  0x00\n    /* \"#utility.yul\":2432:2435   */\n  dup3\n    /* \"#utility.yul\":2425:2429   */\n  0x1f\n    /* \"#utility.yul\":2417:2423   */\n  dup4\n    /* \"#utility.yul\":2413:2430   */\n  add\n    /* \"#utility.yul\":2409:2436   */\n  slt\n    /* \"#utility.yul\":2399:2521   */\n  tag_86\n  jumpi\n    /* \"#utility.yul\":2440:2519   */\n  tag_87\n  tag_21\n  jump\t// in\ntag_87:\n    /* \"#utility.yul\":2399:2521   */\ntag_86:\n    /* \"#utility.yul\":2550:2556   */\n  dup2\n    /* \"#utility.yul\":2544:2557   */\n  mload\n    /* \"#utility.yul\":2575:2665   */\n  tag_88\n    /* \"#utility.yul\":2661:2664   */\n  dup5\n    /* \"#utility.yul\":2653:2659   */\n  dup3\n    /* \"#utility.yul\":2646:2650   */\n  0x20\n    /* \"#utility.yul\":2638:2644   */\n  dup7\n    /* \"#utility.yul\":2634:2651   */\n  add\n    /* \"#utility.yul\":2575:2665   */\n  tag_29\n  jump\t// in\ntag_88:\n    /* \"#utility.yul\":2566:2665   */\n  swap2\n  pop\n    /* \"#utility.yul\":2389:2671   */\n  pop\n    /* \"#utility.yul\":2316:2671   */\n  swap3\n  swap2\n  pop\n  pop\n  jump\t// out\n    /* \"#utility.yul\":2677:2803   */\ntag_31:\n    /* \"#utility.yul\":2714:2721   */\n  0x00\n    /* \"#utility.yul\":2754:2796   */\n  0xffffffffffffffffffffffffffffffffffffffff\n    /* \"#utility.yul\":2747:2752   */\n  dup3\n    /* \"#utility.yul\":2743:2797   */\n  and\n    /* \"#utility.yul\":2732:2797   */\n  swap1\n  pop\n    /* \"#utility.yul\":2677:2803   */\n  swap2\n  swap1\n  pop\n  jump\t// out\n    /* \"#utility.yul\":2809:2905   */\ntag_32:\n    /* \"#utility.yul\":2846:2853   */\n  0x00\n    /* \"#utility.yul\":2875:2899   */\n  tag_91\n    /* \"#utility.yul\":2893:2898   */\n  dup3\n    /* \"#utility.yul\":2875:2899   */\n  tag_31\n  jump\t// in\ntag_91:\n    /* \"#utility.yul\":2864:2899   */\n  swap1\n  pop\n    /* \"#utility.yul\":2809:2905   */\n  swap2\n  swap1\n  pop\n  jump\t// out\n    /* \"#utility.yul\":2911:3033   */\ntag_33:\n    /* \"#utility.yul\":2984:3008   */\n  tag_93\n    /* \"#utility.yul\":3002:3007   */\n  dup2\n    /* \"#utility.yul\":2984:3008   */\n  tag_32\n  jump\t// in\ntag_93:\n    /* \"#utility.yul\":2977:2982   */\n  dup2\n    /* \"#utility.yul\":2974:3009   */\n  eq\n    /* \"#utility.yul\":2964:3027   */\n  tag_94\n  jumpi\n    /* \"#utility.yul\":3023:3024   */\n  0x00\n    /* \"#utility.yul\":3020:3021   */\n  dup1\n    /* \"#utility.yul\":3013:3025   */\n  revert\n    /* \"#utility.yul\":2964:3027   */\ntag_94:\n    /* \"#utility.yul\":2911:3033   */\n  pop\n  jump\t// out\n    /* \"#utility.yul\":3039:3182   */\ntag_34:\n    /* \"#utility.yul\":3096:3101   */\n  0x00\n    /* \"#utility.yul\":3127:3133   */\n  dup2\n    /* \"#utility.yul\":3121:3134   */\n  mload\n    /* \"#utility.yul\":3112:3134   */\n  swap1\n  pop\n    /* \"#utility.yul\":3143:3176   */\n  tag_96\n    /* \"#utility.yul\":3170:3175   */\n  dup2\n    /* \"#utility.yul\":3143:3176   */\n  tag_33\n  jump\t// in\ntag_96:\n    /* \"#utility.yul\":3039:3182   */\n  swap3\n  swap2\n  pop\n  pop\n  jump\t// out\n    /* \"#utility.yul\":3188:4197   */\ntag_3:\n    /* \"#utility.yul\":3296:3302   */\n  0x00\n    /* \"#utility.yul\":3304:3310   */\n  dup1\n    /* \"#utility.yul\":3312:3318   */\n  0x00\n    /* \"#utility.yul\":3361:3363   */\n  0x60\n    /* \"#utility.yul\":3349:3358   */\n  dup5\n    /* \"#utility.yul\":3340:3347   */\n  dup7\n    /* \"#utility.yul\":3336:3359   */\n  sub\n    /* \"#utility.yul\":3332:3364   */\n  slt\n    /* \"#utility.yul\":3329:3448   */\n  iszero\n  tag_98\n  jumpi\n    /* \"#utility.yul\":3367:3446   */\n  tag_99\n  tag_19\n  jump\t// in\ntag_99:\n    /* \"#utility.yul\":3329:3448   */\ntag_98:\n    /* \"#utility.yul\":3508:3509   */\n  0x00\n    /* \"#utility.yul\":3497:3506   */\n  dup5\n    /* \"#utility.yul\":3493:3510   */\n  add\n    /* \"#utility.yul\":3487:3511   */\n  mload\n    /* \"#utility.yul\":3538:3556   */\n  0xffffffffffffffff\n    /* \"#utility.yul\":3530:3536   */\n  dup2\n    /* \"#utility.yul\":3527:3557   */\n  gt\n    /* \"#utility.yul\":3524:3641   */\n  iszero\n  tag_100\n  jumpi\n    /* \"#utility.yul\":3560:3639   */\n  tag_101\n  tag_20\n  jump\t// in\ntag_101:\n    /* \"#utility.yul\":3524:3641   */\ntag_100:\n    /* \"#utility.yul\":3665:3739   */\n  tag_102\n    /* \"#utility.yul\":3731:3738   */\n  dup7\n    /* \"#utility.yul\":3722:3728   */\n  dup3\n    /* \"#utility.yul\":3711:3720   */\n  dup8\n    /* \"#utility.yul\":3707:3729   */\n  add\n    /* \"#utility.yul\":3665:3739   */\n  tag_30\n  jump\t// in\ntag_102:\n    /* \"#utility.yul\":3655:3739   */\n  swap4\n  pop\n    /* \"#utility.yul\":3458:3749   */\n  pop\n    /* \"#utility.yul\":3809:3811   */\n  0x20\n    /* \"#utility.yul\":3798:3807   */\n  dup5\n    /* \"#utility.yul\":3794:3812   */\n  add\n    /* \"#utility.yul\":3788:3813   */\n  mload\n    /* \"#utility.yul\":3840:3858   */\n  0xffffffffffffffff\n    /* \"#utility.yul\":3832:3838   */\n  dup2\n    /* \"#utility.yul\":3829:3859   */\n  gt\n    /* \"#utility.yul\":3826:3943   */\n  iszero\n  tag_103\n  jumpi\n    /* \"#utility.yul\":3862:3941   */\n  tag_104\n  tag_20\n  jump\t// in\ntag_104:\n    /* \"#utility.yul\":3826:3943   */\ntag_103:\n    /* \"#utility.yul\":3967:4041   */\n  tag_105\n    /* \"#utility.yul\":4033:4040   */\n  dup7\n    /* \"#utility.yul\":4024:4030   */\n  dup3\n    /* \"#utility.yul\":4013:4022   */\n  dup8\n    /* \"#utility.yul\":4009:4031   */\n  add\n    /* \"#utility.yul\":3967:4041   */\n  tag_30\n  jump\t// in\ntag_105:\n    /* \"#utility.yul\":3957:4041   */\n  swap3\n  pop\n    /* \"#utility.yul\":3759:4051   */\n  pop\n    /* \"#utility.yul\":4090:4092   */\n  0x40\n    /* \"#utility.yul\":4116:4180   */\n  tag_106\n    /* \"#utility.yul\":4172:4179   */\n  dup7\n    /* \"#utility.yul\":4163:4169   */\n  dup3\n    /* \"#utility.yul\":4152:4161   */\n  dup8\n    /* \"#utility.yul\":4148:4170   */\n  add\n    /* \"#utility.yul\":4116:4180   */\n  tag_34\n  jump\t// in\ntag_106:\n    /* \"#utility.yul\":4106:4180   */\n  swap2\n  pop\n    /* \"#utility.yul\":4061:4190   */\n  pop\n    /* \"#utility.yul\":3188:4197   */\n  swap3\n  pop\n  swap3\n  pop\n  swap3\n  jump\t// out\n    /* \"#utility.yul\":4203:4302   */\ntag_35:\n    /* \"#utility.yul\":4255:4261   */\n  0x00\n    /* \"#utility.yul\":4289:4294   */\n  dup2\n    /* \"#utility.yul\":4283:4295   */\n  mload\n    /* \"#utility.yul\":4273:4295   */\n  swap1\n  pop\n    /* \"#utility.yul\":4203:4302   */\n  swap2\n  swap1\n  pop\n  jump\t// out\n    /* \"#utility.yul\":4308:4488   */\ntag_36:\n    /* \"#utility.yul\":4356:4433   */\n  0x4e487b7100000000000000000000000000000000000000000000000000000000\n    /* \"#utility.yul\":4353:4354   */\n  0x00\n    /* \"#utility.yul\":4346:4434   */\n  mstore\n    /* \"#utility.yul\":4453:4457   */\n  0x22\n    /* \"#utility.yul\":4450:4451   */\n  0x04\n    /* \"#utility.yul\":4443:4458   */\n  mstore\n    /* \"#utility.yul\":4477:4481   */\n  0x24\n    /* \"#utility.yul\":4474:4475   */\n  0x00\n    /* \"#utility.yul\":4467:4482   */\n  revert\n    /* \"#utility.yul\":4494:4814   */\ntag_37:\n    /* \"#utility.yul\":4538:4544   */\n  0x00\n    /* \"#utility.yul\":4575:4576   */\n  0x02\n    /* \"#utility.yul\":4569:4573   */\n  dup3\n    /* \"#utility.yul\":4565:4577   */\n  div\n    /* \"#utility.yul\":4555:4577   */\n  swap1\n  pop\n    /* \"#utility.yul\":4622:4623   */\n  0x01\n    /* \"#utility.yul\":4616:4620   */\n  dup3\n    /* \"#utility.yul\":4612:4624   */\n  and\n    /* \"#utility.yul\":4643:4661   */\n  dup1\n    /* \"#utility.yul\":4633:4714   */\n  tag_110\n  jumpi\n    /* \"#utility.yul\":4699:4703   */\n  0x7f\n    /* \"#utility.yul\":4691:4697   */\n  dup3\n    /* \"#utility.yul\":4687:4704   */\n  and\n    /* \"#utility.yul\":4677:4704   */\n  swap2\n  pop\n    /* \"#utility.yul\":4633:4714   */\ntag_110:\n    /* \"#utility.yul\":4761:4763   */\n  0x20\n    /* \"#utility.yul\":4753:4759   */\n  dup3\n    /* \"#utility.yul\":4750:4764   */\n  lt\n    /* \"#utility.yul\":4730:4748   */\n  dup2\n    /* \"#utility.yul\":4727:4765   */\n  sub\n    /* \"#utility.yul\":4724:4808   */\n  tag_111\n  jumpi\n    /* \"#utility.yul\":4780:4798   */\n  tag_112\n  tag_36\n  jump\t// in\ntag_112:\n    /* \"#utility.yul\":4724:4808   */\ntag_111:\n    /* \"#utility.yul\":4545:4814   */\n  pop\n    /* \"#utility.yul\":4494:4814   */\n  swap2\n  swap1\n  pop\n  jump\t// out\n    /* \"#utility.yul\":4820:4961   */\ntag_38:\n    /* \"#utility.yul\":4869:4873   */\n  0x00\n    /* \"#utility.yul\":4892:4895   */\n  dup2\n    /* \"#utility.yul\":4884:4895   */\n  swap1\n  pop\n    /* \"#utility.yul\":4915:4918   */\n  dup2\n    /* \"#utility.yul\":4912:4913   */\n  0x00\n    /* \"#utility.yul\":4905:4919   */\n  mstore\n    /* \"#utility.yul\":4949:4953   */\n  0x20\n    /* \"#utility.yul\":4946:4947   */\n  0x00\n    /* \"#utility.yul\":4936:4954   */\n  keccak256\n    /* \"#utility.yul\":4928:4954   */\n  swap1\n  pop\n    /* \"#utility.yul\":4820:4961   */\n  swap2\n  swap1\n  pop\n  jump\t// out\n    /* \"#utility.yul\":4967:5060   */\ntag_39:\n    /* \"#utility.yul\":5004:5010   */\n  0x00\n    /* \"#utility.yul\":5051:5053   */\n  0x20\n    /* \"#utility.yul\":5046:5048   */\n  0x1f\n    /* \"#utility.yul\":5039:5044   */\n  dup4\n    /* \"#utility.yul\":5035:5049   */\n  add\n    /* \"#utility.yul\":5031:5054   */\n  div\n    /* \"#utility.yul\":5021:5054   */\n  swap1\n  pop\n    /* \"#utility.yul\":4967:5060   */\n  swap2\n  swap1\n  pop\n  jump\t// out\n    /* \"#utility.yul\":5066:5173   */\ntag_40:\n    /* \"#utility.yul\":5110:5118   */\n  0x00\n    /* \"#utility.yul\":5160:5165   */\n  dup3\n    /* \"#utility.yul\":5154:5158   */\n  dup3\n    /* \"#utility.yul\":5150:5166   */\n  shl\n    /* \"#utility.yul\":5129:5166   */\n  swap1\n  pop\n    /* \"#utility.yul\":5066:5173   */\n  swap3\n  swap2\n  pop\n  pop\n  jump\t// out\n    /* \"#utility.yul\":5179:5572   */\ntag_41:\n    /* \"#utility.yul\":5248:5254   */\n  0x00\n    /* \"#utility.yul\":5298:5299   */\n  0x08\n    /* \"#utility.yul\":5286:5296   */\n  dup4\n    /* \"#utility.yul\":5282:5300   */\n  mul\n    /* \"#utility.yul\":5321:5418   */\n  tag_117\n    /* \"#utility.yul\":5351:5417   */\n  0xffffffffffffffffffffffffffffffffffffffffffffffffffffffffffffffff\n    /* \"#utility.yul\":5340:5349   */\n  dup3\n    /* \"#utility.yul\":5321:5418   */\n  tag_40\n  jump\t// in\ntag_117:\n    /* \"#utility.yul\":5439:5478   */\n  tag_118\n    /* \"#utility.yul\":5469:5477   */\n  dup7\n    /* \"#utility.yul\":5458:5467   */\n  dup4\n    /* \"#utility.yul\":5439:5478   */\n  tag_40\n  jump\t// in\ntag_118:\n    /* \"#utility.yul\":5427:5478   */\n  swap6\n  pop\n    /* \"#utility.yul\":5511:5515   */\n  dup1\n    /* \"#utility.yul\":5507:5516   */\n  not\n    /* \"#utility.yul\":5500:5505   */\n  dup5\n    /* \"#utility.yul\":5496:5517   */\n  and\n    /* \"#utility.yul\":5487:5517   */\n  swap4\n  pop\n    /* \"#utility.yul\":5560:5564   */\n  dup1\n    /* \"#utility.yul\":5550:5558   */\n  dup7\n    /* \"#utility.yul\":5546:5565   */\n  and\n    /* \"#utility.yul\":5539:5544   */\n  dup5\n    /* \"#utility.yul\":5536:5566   */\n  or\n    /* \"#utility.yul\":5526:5566   */\n  swap3\n  pop\n    /* \"#utility.yul\":5255:5572   */\n  pop\n  pop\n    /* \"#utility.yul\":5179:5572   */\n  swap4\n  swap3\n  pop\n  pop\n  pop\n  jump\t// out\n    /* \"#utility.yul\":5578:5655   */\ntag_42:\n    /* \"#utility.yul\":5615:5622   */\n  0x00\n    /* \"#utility.yul\":5644:5649   */\n  dup2\n    /* \"#utility.yul\":5633:5649   */\n  swap1\n  pop\n    /* \"#utility.yul\":5578:5655   */\n  swap2\n  swap1\n  pop\n  jump\t// out\n    /* \"#utility.yul\":5661:5721   */\ntag_43:\n    /* \"#utility.yul\":5689:5692   */\n  0x00\n    /* \"#utility.yul\":5710:5715   */\n  dup2\n    /* \"#utility.yul\":5703:5715   */\n  swap1\n  pop\n    /* \"#utility.yul\":5661:5721   */\n  swap2\n  swap1\n  pop\n  jump\t// out\n    /* \"#utility.yul\":5727:5869   */\ntag_44:\n    /* \"#utility.yul\":5777:5786   */\n  0x00\n    /* \"#utility.yul\":5810:5863   */\n  tag_122\n    /* \"#utility.yul\":5828:5862   */\n  tag_123\n    /* \"#utility.yul\":5837:5861   */\n  tag_124\n    /* \"#utility.yul\":5855:5860   */\n  dup5\n    /* \"#utility.yul\":5837:5861   */\n  tag_42\n  jump\t// in\ntag_124:\n    /* \"#utility.yul\":5828:5862   */\n  tag_43\n  jump\t// in\ntag_123:\n    /* \"#utility.yul\":5810:5863   */\n  tag_42\n  jump\t// in\ntag_122:\n    /* \"#utility.yul\":5797:5863   */\n  swap1\n  pop\n    /* \"#utility.yul\":5727:5869   */\n  swap2\n  swap1\n  pop\n  jump\t// out\n    /* \"#utility.yul\":5875:5950   */\ntag_45:\n    /* \"#utility.yul\":5918:5921   */\n  0x00\n    /* \"#utility.yul\":5939:5944   */\n  dup2\n    /* \"#utility.yul\":5932:5944   */\n  swap1\n  pop\n    /* \"#utility.yul\":5875:5950   */\n  swap2\n  swap1\n  pop\n  jump\t// out\n    /* \"#utility.yul\":5956:6225   */\ntag_46:\n    /* \"#utility.yul\":6066:6105   */\n  tag_127\n    /* \"#utility.yul\":6097:6104   */\n  dup4\n    /* \"#utility.yul\":6066:6105   */\n  tag_44\n  jump\t// in\ntag_127:\n    /* \"#utility.yul\":6127:6218   */\n  tag_128\n    /* \"#utility.yul\":6176:6217   */\n  tag_129\n    /* \"#utility.yul\":6200:6216   */\n  dup3\n    /* \"#utility.yul\":6176:6217   */\n  tag_45\n  jump\t// in\ntag_129:\n    /* \"#utility.yul\":6168:6174   */\n  dup5\n    /* \"#utility.yul\":6161:6165   */\n  dup5\n    /* \"#utility.yul\":6155:6166   */\n  sload\n    /* \"#utility.yul\":6127:6218   */\n  tag_41\n  jump\t// in\ntag_128:\n    /* \"#utility.yul\":6121:6125   */\n  dup3\n    /* \"#utility.yul\":6114:6219   */\n  sstore\n    /* \"#utility.yul\":6032:6225   */\n  pop\n    /* \"#utility.yul\":5956:6225   */\n  pop\n  pop\n  pop\n  jump\t// out\n    /* \"#utility.yul\":6231:6304   */\ntag_47:\n    /* \"#utility.yul\":6276:6279   */\n  0x00\n    /* \"#utility.yul\":6231:6304   */\n  swap1\n  jump\t// out\n    /* \"#utility.yul\":6310:6499   */\ntag_48:\n    /* \"#utility.yul\":6387:6419   */\n  tag_132\n  tag_47\n  jump\t// in\ntag_132:\n    /* \"#utility.yul\":6428:6493   */\n  tag_133\n    /* \"#utility.yul\":6486:6492   */\n  dup2\n    /* \"#utility.yul\":6478:6484   */\n  dup5\n    /* \"#utility.yul\":6472:6476   */\n  dup5\n    /* \"#utility.yul\":6428:6493   */\n  tag_46\n  jump\t// in\ntag_133:\n    /* \"#utility.yul\":6363:6499   */\n  pop\n    /* \"#utility.yul\":6310:6499   */\n  pop\n  pop\n  jump\t// out\n    /* \"#utility.yul\":6505:6691   */\ntag_49:\n    /* \"#utility.yul\":6565:6685   */\ntag_135:\n    /* \"#utility.yul\":6582:6585   */\n  dup2\n    /* \"#utility.yul\":6575:6580   */\n  dup2\n    /* \"#utility.yul\":6572:6586   */\n  lt\n    /* \"#utility.yul\":6565:6685   */\n  iszero\n  tag_137\n  jumpi\n    /* \"#utility.yul\":6636:6675   */\n  tag_138\n    /* \"#utility.yul\":6673:6674   */\n  0x00\n    /* \"#utility.yul\":6666:6671   */\n  dup3\n    /* \"#utility.yul\":6636:6675   */\n  tag_48\n  jump\t// in\ntag_138:\n    /* \"#utility.yul\":6609:6610   */\n  0x01\n    /* \"#utility.yul\":6602:6607   */\n  dup2\n    /* \"#utility.yul\":6598:6611   */\n  add\n    /* \"#utility.yul\":6589:6611   */\n  swap1\n  pop\n    /* \"#utility.yul\":6565:6685   */\n  jump(tag_135)\ntag_137:\n    /* \"#utility.yul\":6505:6691   */\n  pop\n  pop\n  jump\t// out\n    /* \"#utility.yul\":6697:7240   */\ntag_50:\n    /* \"#utility.yul\":6798:6800   */\n  0x1f\n    /* \"#utility.yul\":6793:6796   */\n  dup3\n    /* \"#utility.yul\":6790:6801   */\n  gt\n    /* \"#utility.yul\":6787:7233   */\n  iszero\n  tag_140\n  jumpi\n    /* \"#utility.yul\":6832:6870   */\n  tag_141\n    /* \"#utility.yul\":6864:6869   */\n  dup2\n    /* \"#utility.yul\":6832:6870   */\n  tag_38\n  jump\t// in\ntag_141:\n    /* \"#utility.yul\":6916:6945   */\n  tag_142\n    /* \"#utility.yul\":6934:6944   */\n  dup5\n    /* \"#utility.yul\":6916:6945   */\n  tag_39\n  jump\t// in\ntag_142:\n    /* \"#utility.yul\":6906:6914   */\n  dup2\n    /* \"#utility.yul\":6902:6946   */\n  add\n    /* \"#utility.yul\":7099:7101   */\n  0x20\n    /* \"#utility.yul\":7087:7097   */\n  dup6\n    /* \"#utility.yul\":7084:7102   */\n  lt\n    /* \"#utility.yul\":7081:7130   */\n  iszero\n  tag_143\n  jumpi\n    /* \"#utility.yul\":7120:7128   */\n  dup2\n    /* \"#utility.yul\":7105:7128   */\n  swap1\n  pop\n    /* \"#utility.yul\":7081:7130   */\ntag_143:\n    /* \"#utility.yul\":7143:7223   */\n  tag_144\n    /* \"#utility.yul\":7199:7221   */\n  tag_145\n    /* \"#utility.yul\":7217:7220   */\n  dup6\n    /* \"#utility.yul\":7199:7221   */\n  tag_39\n  jump\t// in\ntag_145:\n    /* \"#utility.yul\":7189:7197   */\n  dup4\n    /* \"#utility.yul\":7185:7222   */\n  add\n    /* \"#utility.yul\":7172:7183   */\n  dup3\n    /* \"#utility.yul\":7143:7223   */\n  tag_49\n  jump\t// in\ntag_144:\n    /* \"#utility.yul\":6802:7233   */\n  pop\n  pop\n    /* \"#utility.yul\":6787:7233   */\ntag_140:\n    /* \"#utility.yul\":6697:7240   */\n  pop\n  pop\n  pop\n  jump\t// out\n    /* \"#utility.yul\":7246:7363   */\ntag_51:\n    /* \"#utility.yul\":7300:7308   */\n  0x00\n    /* \"#utility.yul\":7350:7355   */\n  dup3\n    /* \"#utility.yul\":7344:7348   */\n  dup3\n    /* \"#utility.yul\":7340:7356   */\n  shr\n    /* \"#utility.yul\":7319:7356   */\n  swap1\n  pop\n    /* \"#utility.yul\":7246:7363   */\n  swap3\n  swap2\n  pop\n  pop\n  jump\t// out\n    /* \"#utility.yul\":7369:7538   */\ntag_52:\n    /* \"#utility.yul\":7413:7419   */\n  0x00\n    /* \"#utility.yul\":7446:7497   */\n  tag_148\n    /* \"#utility.yul\":7494:7495   */\n  0x00\n    /* \"#utility.yul\":7490:7496   */\n  not\n    /* \"#utility.yul\":7482:7487   */\n  dup5\n    /* \"#utility.yul\":7479:7480   */\n  0x08\n    /* \"#utility.yul\":7475:7488   */\n  mul\n    /* \"#utility.yul\":7446:7497   */\n  tag_51\n  jump\t// in\ntag_148:\n    /* \"#utility.yul\":7442:7498   */\n  not\n    /* \"#utility.yul\":7527:7531   */\n  dup1\n    /* \"#utility.yul\":7521:7525   */\n  dup4\n    /* \"#utility.yul\":7517:7532   */\n  and\n    /* \"#utility.yul\":7507:7532   */\n  swap2\n  pop\n    /* \"#utility.yul\":7420:7538   */\n  pop\n    /* \"#utility.yul\":7369:7538   */\n  swap3\n  swap2\n  pop\n  pop\n  jump\t// out\n    /* \"#utility.yul\":7543:7838   */\ntag_53:\n    /* \"#utility.yul\":7619:7623   */\n  0x00\n    /* \"#utility.yul\":7765:7794   */\n  tag_150\n    /* \"#utility.yul\":7790:7793   */\n  dup4\n    /* \"#utility.yul\":7784:7788   */\n  dup4\n    /* \"#utility.yul\":7765:7794   */\n  tag_52\n  jump\t// in\ntag_150:\n    /* \"#utility.yul\":7757:7794   */\n  swap2\n  pop\n    /* \"#utility.yul\":7827:7830   */\n  dup3\n    /* \"#utility.yul\":7824:7825   */\n  0x02\n    /* \"#utility.yul\":7820:7831   */\n  mul\n    /* \"#utility.yul\":7814:7818   */\n  dup3\n    /* \"#utility.yul\":7811:7832   */\n  or\n    /* \"#utility.yul\":7803:7832   */\n  swap1\n  pop\n    /* \"#utility.yul\":7543:7838   */\n  swap3\n  swap2\n  pop\n  pop\n  jump\t// out\n    /* \"#utility.yul\":7843:9238   */\ntag_7:\n    /* \"#utility.yul\":7960:7997   */\n  tag_152\n    /* \"#utility.yul\":7993:7996   */\n  dup3\n    /* \"#utility.yul\":7960:7997   */\n  tag_35\n  jump\t// in\ntag_152:\n    /* \"#utility.yul\":8062:8080   */\n  0xffffffffffffffff\n    /* \"#utility.yul\":8054:8060   */\n  dup2\n    /* \"#utility.yul\":8051:8081   */\n  gt\n    /* \"#utility.yul\":8048:8104   */\n  iszero\n  tag_153\n  jumpi\n    /* \"#utility.yul\":8084:8102   */\n  tag_154\n  tag_24\n  jump\t// in\ntag_154:\n    /* \"#utility.yul\":8048:8104   */\ntag_153:\n    /* \"#utility.yul\":8128:8166   */\n  tag_155\n    /* \"#utility.yul\":8160:8164   */\n  dup3\n    /* \"#utility.yul\":8154:8165   */\n  sload\n    /* \"#utility.yul\":8128:8166   */\n  tag_37\n  jump\t// in\ntag_155:\n    /* \"#utility.yul\":8213:8280   */\n  tag_156\n    /* \"#utility.yul\":8273:8279   */\n  dup3\n    /* \"#utility.yul\":8265:8271   */\n  dup3\n    /* \"#utility.yul\":8259:8263   */\n  dup6\n    /* \"#utility.yul\":8213:8280   */\n  tag_50\n  jump\t// in\ntag_156:\n    /* \"#utility.yul\":8307:8308   */\n  0x00\n    /* \"#utility.yul\":8331:8335   */\n  0x20\n    /* \"#utility.yul\":8318:8335   */\n  swap1\n  pop\n    /* \"#utility.yul\":8363:8365   */\n  0x1f\n    /* \"#utility.yul\":8355:8361   */\n  dup4\n    /* \"#utility.yul\":8352:8366   */\n  gt\n    /* \"#utility.yul\":8380:8381   */\n  0x01\n    /* \"#utility.yul\":8375:8993   */\n  dup2\n  eq\n  tag_158\n  jumpi\n    /* \"#utility.yul\":9037:9038   */\n  0x00\n    /* \"#utility.yul\":9054:9060   */\n  dup5\n    /* \"#utility.yul\":9051:9128   */\n  iszero\n  tag_159\n  jumpi\n    /* \"#utility.yul\":9103:9112   */\n  dup3\n    /* \"#utility.yul\":9098:9101   */\n  dup8\n    /* \"#utility.yul\":9094:9113   */\n  add\n    /* \"#utility.yul\":9088:9114   */\n  mload\n    /* \"#utility.yul\":9079:9114   */\n  swap1\n  pop\n    /* \"#utility.yul\":9051:9128   */\ntag_159:\n    /* \"#utility.yul\":9154:9221   */\n  tag_160\n    /* \"#utility.yul\":9214:9220   */\n  dup6\n    /* \"#utility.yul\":9207:9212   */\n  dup3\n    /* \"#utility.yul\":9154:9221   */\n  tag_53\n  jump\t// in\ntag_160:\n    /* \"#utility.yul\":9148:9152   */\n  dup7\n    /* \"#utility.yul\":9141:9222   */\n  sstore\n    /* \"#utility.yul\":9010:9232   */\n  pop\n    /* \"#utility.yul\":8345:9232   */\n  jump(tag_157)\n    /* \"#utility.yul\":8375:8993   */\ntag_158:\n    /* \"#utility.yul\":8427:8431   */\n  0x1f\n    /* \"#utility.yul\":8423:8432   */\n  not\n    /* \"#utility.yul\":8415:8421   */\n  dup5\n    /* \"#utility.yul\":8411:8433   */\n  and\n    /* \"#utility.yul\":8461:8498   */\n  tag_161\n    /* \"#utility.yul\":8493:8497   */\n  dup7\n    /* \"#utility.yul\":8461:8498   */\n  tag_38\n  jump\t// in\ntag_161:\n    /* \"#utility.yul\":8520:8521   */\n  0x00\n    /* \"#utility.yul\":8534:8742   */\ntag_162:\n    /* \"#utility.yul\":8548:8555   */\n  dup3\n    /* \"#utility.yul\":8545:8546   */\n  dup2\n    /* \"#utility.yul\":8542:8556   */\n  lt\n    /* \"#utility.yul\":8534:8742   */\n  iszero\n  tag_164\n  jumpi\n    /* \"#utility.yul\":8627:8636   */\n  dup5\n    /* \"#utility.yul\":8622:8625   */\n  dup10\n    /* \"#utility.yul\":8618:8637   */\n  add\n    /* \"#utility.yul\":8612:8638   */\n  mload\n    /* \"#utility.yul\":8604:8610   */\n  dup3\n    /* \"#utility.yul\":8597:8639   */\n  sstore\n    /* \"#utility.yul\":8678:8679   */\n  0x01\n    /* \"#utility.yul\":8670:8676   */\n  dup3\n    /* \"#utility.yul\":8666:8680   */\n  add\n    /* \"#utility.yul\":8656:8680   */\n  swap2\n  pop\n    /* \"#utility.yul\":8725:8727   */\n  0x20\n    /* \"#utility.yul\":8714:8723   */\n  dup6\n    /* \"#utility.yul\":8710:8728   */\n  add\n    /* \"#utility.yul\":8697:8728   */\n  swap5\n  pop\n    /* \"#utility.yul\":8571:8575   */\n  0x20\n    /* \"#utility.yul\":8568:8569   */\n  dup2\n    /* \"#utility.yul\":8564:8576   */\n  add\n    /* \"#utility.yul\":8559:8576   */\n  swap1\n  pop\n    /* \"#utility.yul\":8534:8742   */\n  jump(tag_162)\ntag_164:\n    /* \"#utility.yul\":8770:8776   */\n  dup7\n    /* \"#utility.yul\":8761:8768   */\n  dup4\n    /* \"#utility.yul\":8758:8777   */\n  lt\n    /* \"#utility.yul\":8755:8934   */\n  iszero\n  tag_165\n  jumpi\n    /* \"#utility.yul\":8828:8837   */\n  dup5\n    /* \"#utility.yul\":8823:8826   */\n  dup10\n    /* \"#utility.yul\":8819:8838   */\n  add\n    /* \"#utility.yul\":8813:8839   */\n  mload\n    /* \"#utility.yul\":8871:8919   */\n  tag_166\n    /* \"#utility.yul\":8913:8917   */\n  0x1f\n    /* \"#utility.yul\":8905:8911   */\n  dup10\n    /* \"#utility.yul\":8901:8918   */\n  and\n    /* \"#utility.yul\":8890:8899   */\n  dup3\n    /* \"#utility.yul\":8871:8919   */\n  tag_52\n  jump\t// in\ntag_166:\n    /* \"#utility.yul\":8863:8869   */\n  dup4\n    /* \"#utility.yul\":8856:8920   */\n  sstore\n    /* \"#utility.yul\":8778:8934   */\n  pop\n    /* \"#utility.yul\":8755:8934   */\ntag_165:\n    /* \"#utility.yul\":8980:8981   */\n  0x01\n    /* \"#utility.yul\":8976:8977   */\n  0x02\n    /* \"#utility.yul\":8968:8974   */\n  dup9\n    /* \"#utility.yul\":8964:8978   */\n  mul\n    /* \"#utility.yul\":8960:8982   */\n  add\n    /* \"#utility.yul\":8954:8958   */\n  dup9\n    /* \"#utility.yul\":8947:8983   */\n  sstore\n    /* \"#utility.yul\":8382:8993   */\n  pop\n  pop\n  pop\n    /* \"#utility.yul\":8345:9232   */\ntag_157:\n  pop\n    /* \"#utility.yul\":7935:9238   */\n  pop\n  pop\n  pop\n    /* \"#utility.yul\":7843:9238   */\n  pop\n  pop\n  jump\t// out\n    /* \"#utility.yul\":9244:9424   */\ntag_54:\n    /* \"#utility.yul\":9292:9369   */\n  0x4e487b7100000000000000000000000000000000000000000000000000000000\n    /* \"#utility.yul\":9289:9290   */\n  0x00\n    /* \"#utility.yul\":9282:9370   */\n  mstore\n    /* \"#utility.yul\":9389:9393   */\n  0x11\n    /* \"#utility.yul\":9386:9387   */\n  0x04\n    /* \"#utility.yul\":9379:9394   */\n  mstore\n    /* \"#utility.yul\":9413:9417   */\n  0x24\n    /* \"#utility.yul\":9410:9411   */\n  0x00\n    /* \"#utility.yul\":9403:9418   */\n  revert\n    /* \"#utility.yul\":9430:9621   */\ntag_14:\n    /* \"#utility.yul\":9470:9473   */\n  0x00\n    /* \"#utility.yul\":9489:9509   */\n  tag_169\n    /* \"#utility.yul\":9507:9508   */\n  dup3\n    /* \"#utility.yul\":9489:9509   */\n  tag_42\n  jump\t// in\ntag_169:\n    /* \"#utility.yul\":9484:9509   */\n  swap2\n  pop\n    /* \"#utility.yul\":9523:9543   */\n  tag_170\n    /* \"#utility.yul\":9541:9542   */\n  dup4\n    /* \"#utility.yul\":9523:9543   */\n  tag_42\n  jump\t// in\ntag_170:\n    /* \"#utility.yul\":9518:9543   */\n  swap3\n  pop\n    /* \"#utility.yul\":9566:9567   */\n  dup3\n    /* \"#utility.yul\":9563:9564   */\n  dup3\n    /* \"#utility.yul\":9559:9568   */\n  add\n    /* \"#utility.yul\":9552:9568   */\n  swap1\n  pop\n    /* \"#utility.yul\":9587:9590   */\n  dup1\n    /* \"#utility.yul\":9584:9585   */\n  dup3\n    /* \"#utility.yul\":9581:9591   */\n  gt\n    /* \"#utility.yul\":9578:9614   */\n  iszero\n  tag_171\n  jumpi\n    /* \"#utility.yul\":9594:9612   */\n  tag_172\n  tag_54\n  jump\t// in\ntag_172:\n    /* \"#utility.yul\":9578:9614   */\ntag_171:\n    /* \"#utility.yul\":9430:9621   */\n  swap3\n  swap2\n  pop\n  pop\n  jump\t// out\n    /* \"#utility.yul\":9627:9745   */\ntag_55:\n    /* \"#utility.yul\":9714:9738   */\n  tag_174\n    /* \"#utility.yul\":9732:9737   */\n  dup2\n    /* \"#utility.yul\":9714:9738   */\n  tag_42\n  jump\t// in\ntag_174:\n    /* \"#utility.yul\":9709:9712   */\n  dup3\n    /* \"#utility.yul\":9702:9739   */\n  mstore\n    /* \"#utility.yul\":9627:9745   */\n  pop\n  pop\n  jump\t// out\n    /* \"#utility.yul\":9751:9973   */\ntag_17:\n    /* \"#utility.yul\":9844:9848   */\n  0x00\n    /* \"#utility.yul\":9882:9884   */\n  0x20\n    /* \"#utility.yul\":9871:9880   */\n  dup3\n    /* \"#utility.yul\":9867:9885   */\n  add\n    /* \"#utility.yul\":9859:9885   */\n  swap1\n  pop\n    /* \"#utility.yul\":9895:9966   */\n  tag_176\n    /* \"#utility.yul\":9963:9964   */\n  0x00\n    /* \"#utility.yul\":9952:9961   */\n  dup4\n    /* \"#utility.yul\":9948:9965   */\n  add\n    /* \"#utility.yul\":9939:9945   */\n  dup5\n    /* \"#utility.yul\":9895:9966   */\n  tag_55\n  jump\t// in\ntag_176:\n    /* \"#utility.yul\":9751:9973   */\n  swap3\n  swap2\n  pop\n  pop\n  jump\t// out\n    /* \"contracts/base/ERC20.sol\":97:2251  contract ERC20 is IERC20 {... */\ntag_11:\n  dataSize(sub_0)\n  dup1\n  dataOffset(sub_0)\n  0x00\n  codecopy\n  0x00\n  return\nstop\n\nsub_0: assembly {\n        /* \"contracts/base/ERC20.sol\":97:2251  contract ERC20 is IERC20 {... */\n      mstore(0x40, 0x80)\n      callvalue\n      dup1\n      iszero\n      tag_1\n      jumpi\n      0x00\n      dup1\n      revert\n    tag_1:\n      pop\n      jumpi(tag_2, lt(calldatasize, 0x04))\n      shr(0xe0, calldataload(0x00))\n      dup1\n      0x42966c68\n      gt\n      tag_13\n      jumpi\n      dup1\n      0x42966c68\n      eq\n      tag_8\n      jumpi\n      dup1\n      0x70a08231\n      eq\n      tag_9\n      jumpi\n      dup1\n      0x95d89b41\n      eq\n      tag_10\n      jumpi\n      dup1\n      0xa9059cbb\n      eq\n      tag_11\n      jumpi\n      dup1\n      0xdd62ed3e\n      eq\n      tag_12\n      jumpi\n      jump(tag_2)\n    tag_13:\n      dup1\n      0x06fdde03\n      eq\n      tag_3\n      jumpi\n      dup1\n      0x095ea7b3\n      eq\n      tag_4\n      jumpi\n      dup1\n      0x18160ddd\n      eq\n      tag_5\n      jumpi\n      dup1\n      0x23b872dd\n      eq\n      tag_6\n      jumpi\n      dup1\n      0x313ce567\n      eq\n      tag_7\n      jumpi\n    tag_2:\n      0x00\n      dup1\n      revert\n        /* \"contracts/base/ERC20.sol\":315:333  string public name */\n    tag_3:\n      tag_14\n      tag_15\n      jump\t// in\n    tag_14:\n      mload(0x40)\n      tag_16\n      swap2\n      swap1\n      tag_17\n      jump\t// in\n    tag_16:\n      mload(0x40)\n      dup1\n      swap2\n      sub\n      swap1\n      return\n        /* \"contracts/base/ERC20.sol\":1038:1249  function approve(address spender, uint amount) public override returns (bool) {... */\n    tag_4:\n      tag_18\n      0x04\n      dup1\n      calldatasize\n      sub\n      dup2\n      add\n      swap1\n      tag_19\n      swap2\n      swap1\n      tag_20\n      jump\t// in\n    tag_19:\n      tag_21\n      jump\t// in\n    tag_18:\n      mload(0x40)\n      tag_22\n      swap2\n      swap1\n      tag_23\n      jump\t// in\n    tag_22:\n      mload(0x40)\n      dup1\n      swap2\n      sub\n      swap1\n      return\n        /* \"contracts/base/ERC20.sol\":271:306  uint256 public override totalSupply */\n    tag_5:\n      tag_24\n      tag_25\n      jump\t// in\n    tag_24:\n      mload(0x40)\n      tag_26\n      swap2\n      swap1\n      tag_27\n      jump\t// in\n    tag_26:\n      mload(0x40)\n      dup1\n      swap2\n      sub\n      swap1\n      return\n        /* \"contracts/base/ERC20.sol\":1257:1767  function transferFrom(... */\n    tag_6:\n      tag_28\n      0x04\n      dup1\n      calldatasize\n      sub\n      dup2\n      add\n      swap1\n      tag_29\n      swap2\n      swap1\n      tag_30\n      jump\t// in\n    tag_29:\n      tag_31\n      jump\t// in\n    tag_28:\n      mload(0x40)\n      tag_32\n      swap2\n      swap1\n      tag_23\n      jump\t// in\n    tag_32:\n      mload(0x40)\n      dup1\n      swap2\n      sub\n      swap1\n      return\n        /* \"contracts/base/ERC20.sol\":367:393  uint8 public decimals = 18 */\n    tag_7:\n      tag_33\n      tag_34\n      jump\t// in\n    tag_33:\n      mload(0x40)\n      tag_35\n      swap2\n      swap1\n      tag_36\n      jump\t// in\n    tag_35:\n      mload(0x40)\n      dup1\n      swap2\n      sub\n      swap1\n      return\n        /* \"contracts/base/ERC20.sol\":1981:2248  function burn(uint256 amount) external {... */\n    tag_8:\n      tag_37\n      0x04\n      dup1\n      calldatasize\n      sub\n      dup2\n      add\n      swap1\n      tag_38\n      swap2\n      swap1\n      tag_39\n      jump\t// in\n    tag_38:\n      tag_40\n      jump\t// in\n    tag_37:\n      stop\n        /* \"contracts/base/ERC20.sol\":131:184  mapping(address => uint256) public override balanceOf */\n    tag_9:\n      tag_41\n      0x04\n      dup1\n      calldatasize\n      sub\n      dup2\n      add\n      swap1\n      tag_42\n      swap2\n      swap1\n      tag_43\n      jump\t// in\n    tag_42:\n      tag_44\n      jump\t// in\n    tag_41:\n      mload(0x40)\n      tag_45\n      swap2\n      swap1\n      tag_27\n      jump\t// in\n    tag_45:\n      mload(0x40)\n      dup1\n      swap2\n      sub\n      swap1\n      return\n        /* \"contracts/base/ERC20.sol\":340:360  string public symbol */\n    tag_10:\n      tag_46\n      tag_47\n      jump\t// in\n    tag_46:\n      mload(0x40)\n      tag_48\n      swap2\n      swap1\n      tag_17\n      jump\t// in\n    tag_48:\n      mload(0x40)\n      dup1\n      swap2\n      sub\n      swap1\n      return\n        /* \"contracts/base/ERC20.sol\":699:1030  function transfer(address recipient, uint amount) public override returns (bool) {... */\n    tag_11:\n      tag_49\n      0x04\n      dup1\n      calldatasize\n      sub\n      dup2\n      add\n      swap1\n      tag_50\n      swap2\n      swap1\n      tag_20\n      jump\t// in\n    tag_50:\n      tag_51\n      jump\t// in\n    tag_49:\n      mload(0x40)\n      tag_52\n      swap2\n      swap1\n      tag_23\n      jump\t// in\n    tag_52:\n      mload(0x40)\n      dup1\n      swap2\n      sub\n      swap1\n      return\n        /* \"contracts/base/ERC20.sol\":191:264  mapping(address => mapping(address => uint256)) public override allowance */\n    tag_12:\n      tag_53\n      0x04\n      dup1\n      calldatasize\n      sub\n      dup2\n      add\n      swap1\n      tag_54\n      swap2\n      swap1\n      tag_55\n      jump\t// in\n    tag_54:\n      tag_56\n      jump\t// in\n    tag_53:\n      mload(0x40)\n      tag_57\n      swap2\n      swap1\n      tag_27\n      jump\t// in\n    tag_57:\n      mload(0x40)\n      dup1\n      swap2\n      sub\n      swap1\n      return\n        /* \"contracts/base/ERC20.sol\":315:333  string public name */\n    tag_15:\n      0x03\n      dup1\n      sload\n      tag_58\n      swap1\n      tag_59\n      jump\t// in\n    tag_58:\n      dup1\n      0x1f\n      add\n      0x20\n      dup1\n      swap2\n      div\n      mul\n      0x20\n      add\n      mload(0x40)\n      swap1\n      dup2\n      add\n      0x40\n      mstore\n      dup1\n      swap3\n      swap2\n      swap1\n      dup2\n      dup2\n      mstore\n      0x20\n      add\n      dup3\n      dup1\n      sload\n      tag_60\n      swap1\n      tag_59\n      jump\t// in\n    tag_60:\n      dup1\n      iszero\n      tag_61\n      jumpi\n      dup1\n      0x1f\n      lt\n      tag_62\n      jumpi\n      0x0100\n      dup1\n      dup4\n      sload\n      div\n      mul\n      dup4\n      mstore\n      swap2\n      0x20\n      add\n      swap2\n      jump(tag_61)\n    tag_62:\n      dup3\n      add\n      swap2\n      swap1\n      0x00\n      mstore\n      keccak256(0x00, 0x20)\n      swap1\n    tag_63:\n      dup2\n      sload\n      dup2\n      mstore\n      swap1\n      0x01\n      add\n      swap1\n      0x20\n      add\n      dup1\n      dup4\n      gt\n      tag_63\n      jumpi\n      dup3\n      swap1\n      sub\n      0x1f\n      and\n      dup3\n      add\n      swap2\n    tag_61:\n      pop\n      pop\n      pop\n      pop\n      pop\n      dup2\n      jump\t// out\n        /* \"contracts/base/ERC20.sol\":1038:1249  function approve(address spender, uint amount) public override returns (bool) {... */\n    tag_21:\n        /* \"contracts/base/ERC20.sol\":1110:1114  bool */\n      0x00\n        /* \"contracts/base/ERC20.sol\":1160:1166  amount */\n      dup2\n        /* \"contracts/base/ERC20.sol\":1127:1136  allowance */\n      0x01\n        /* \"contracts/base/ERC20.sol\":1127:1148  allowance[msg.sender] */\n      0x00\n        /* \"contracts/base/ERC20.sol\":1137:1147  msg.sender */\n      caller\n        /* \"contracts/base/ERC20.sol\":1127:1148  allowance[msg.sender] */\n      0xffffffffffffffffffffffffffffffffffffffff\n      and\n      0xffffffffffffffffffffffffffffffffffffffff\n      and\n      dup2\n      mstore\n      0x20\n      add\n      swap1\n      dup2\n      mstore\n      0x20\n      add\n      0x00\n      keccak256\n        /* \"contracts/base/ERC20.sol\":1127:1157  allowance[msg.sender][spender] */\n      0x00\n        /* \"contracts/base/ERC20.sol\":1149:1156  spender */\n      dup6\n        /* \"contracts/base/ERC20.sol\":1127:1157  allowance[msg.sender][spender] */\n      0xffffffffffffffffffffffffffffffffffffffff\n      and\n      0xffffffffffffffffffffffffffffffffffffffff\n      and\n      dup2\n      mstore\n      0x20\n      add\n      swap1\n      dup2\n      mstore\n      0x20\n      add\n      0x00\n      keccak256\n        /* \"contracts/base/ERC20.sol\":1127:1166  allowance[msg.sender][spender] = amount */\n      dup2\n      swap1\n      sstore\n      pop\n        /* \"contracts/base/ERC20.sol\":1203:1210  spender */\n      dup3\n        /* \"contracts/base/ERC20.sol\":1182:1219  Approval(msg.sender, spender, amount) */\n      0xffffffffffffffffffffffffffffffffffffffff\n      and\n        /* \"contracts/base/ERC20.sol\":1191:1201  msg.sender */\n      caller\n        /* \"contracts/base/ERC20.sol\":1182:1219  Approval(msg.sender, spender, amount) */\n      0xffffffffffffffffffffffffffffffffffffffff\n      and\n      0x8c5be1e5ebec7d5bd14f71427d1e84f3dd0314c0f7b2291e5b200ac8c7c3b925\n        /* \"contracts/base/ERC20.sol\":1212:1218  amount */\n      dup5\n        /* \"contracts/base/ERC20.sol\":1182:1219  Approval(msg.sender, spender, amount) */\n      mload(0x40)\n      tag_65\n      swap2\n      swap1\n      tag_27\n      jump\t// in\n    tag_65:\n      mload(0x40)\n      dup1\n      swap2\n      sub\n      swap1\n      log3\n        /* \"contracts/base/ERC20.sol\":1237:1241  true */\n      0x01\n        /* \"contracts/base/ERC20.sol\":1230:1241  return true */\n      swap1\n      pop\n        /* \"contracts/base/ERC20.sol\":1038:1249  function approve(address spender, uint amount) public override returns (bool) {... */\n      swap3\n      swap2\n      pop\n      pop\n      jump\t// out\n        /* \"contracts/base/ERC20.sol\":271:306  uint256 public override totalSupply */\n    tag_25:\n      sload(0x02)\n      dup2\n      jump\t// out\n        /* \"contracts/base/ERC20.sol\":1257:1767  function transferFrom(... */\n    tag_31:\n        /* \"contracts/base/ERC20.sol\":1386:1390  bool */\n      0x00\n        /* \"contracts/base/ERC20.sol\":1432:1438  amount */\n      dup2\n        /* \"contracts/base/ERC20.sol\":1411:1420  balanceOf */\n      0x00\n        /* \"contracts/base/ERC20.sol\":1411:1428  balanceOf[sender] */\n      dup1\n        /* \"contracts/base/ERC20.sol\":1421:1427  sender */\n      dup7\n        /* \"contracts/base/ERC20.sol\":1411:1428  balanceOf[sender] */\n      0xffffffffffffffffffffffffffffffffffffffff\n      and\n      0xffffffffffffffffffffffffffffffffffffffff\n      and\n      dup2\n      mstore\n      0x20\n      add\n      swap1\n      dup2\n      mstore\n      0x20\n      add\n      0x00\n      keccak256\n      sload\n        /* \"contracts/base/ERC20.sol\":1411:1438  balanceOf[sender] >= amount */\n      lt\n      iszero\n        /* \"contracts/base/ERC20.sol\":1403:1470  require(balanceOf[sender] >= amount, \"ERC20: insufficient balance\") */\n      tag_67\n      jumpi\n      mload(0x40)\n      0x08c379a000000000000000000000000000000000000000000000000000000000\n      dup2\n      mstore\n      0x04\n      add\n      tag_68\n      swap1\n      tag_69\n      jump\t// in\n    tag_68:\n      mload(0x40)\n      dup1\n      swap2\n      sub\n      swap1\n      revert\n    tag_67:\n        /* \"contracts/base/ERC20.sol\":1522:1528  amount */\n      dup2\n        /* \"contracts/base/ERC20.sol\":1489:1498  allowance */\n      0x01\n        /* \"contracts/base/ERC20.sol\":1489:1506  allowance[sender] */\n      0x00\n        /* \"contracts/base/ERC20.sol\":1499:1505  sender */\n      dup7\n        /* \"contracts/base/ERC20.sol\":1489:1506  allowance[sender] */\n      0xffffffffffffffffffffffffffffffffffffffff\n      and\n      0xffffffffffffffffffffffffffffffffffffffff\n      and\n      dup2\n      mstore\n      0x20\n      add\n      swap1\n      dup2\n      mstore\n      0x20\n      add\n      0x00\n      keccak256\n        /* \"contracts/base/ERC20.sol\":1489:1518  allowance[sender][msg.sender] */\n      0x00\n        /* \"contracts/base/ERC20.sol\":1507:1517  msg.sender */\n      caller\n        /* \"contracts/base/ERC20.sol\":1489:1518  allowance[sender][msg.sender] */\n      0xffffffffffffffffffffffffffffffffffffffff\n      and\n      0xffffffffffffffffffffffffffffffffffffffff\n      and\n      dup2\n      mstore\n      0x20\n      add\n      swap1\n      dup2\n      mstore\n      0x20\n      add\n      0x00\n      keccak256\n      sload\n        /* \"contracts/base/ERC20.sol\":1489:1528  allowance[sender][msg.sender] >= amount */\n      lt\n      iszero\n        /* \"contracts/base/ERC20.sol\":1481:1557  require(allowance[sender][msg.sender] >= amount, \"ERC20: allowance too low\") */\n      tag_70\n      jumpi\n      mload(0x40)\n      0x08c379a000000000000000000000000000000000000000000000000000000000\n      dup2\n      mstore\n      0x04\n      add\n      tag_71\n      swap1\n      tag_72\n      jump\t// in\n    tag_71:\n      mload(0x40)\n      dup1\n      swap2\n      sub\n      swap1\n      revert\n    tag_70:\n        /* \"contracts/base/ERC20.sol\":1601:1607  amount */\n      dup2\n        /* \"contracts/base/ERC20.sol\":1568:1577  allowance */\n      0x01\n        /* \"contracts/base/ERC20.sol\":1568:1585  allowance[sender] */\n      0x00\n        /* \"contracts/base/ERC20.sol\":1578:1584  sender */\n      dup7\n        /* \"contracts/base/ERC20.sol\":1568:1585  allowance[sender] */\n      0xffffffffffffffffffffffffffffffffffffffff\n      and\n      0xffffffffffffffffffffffffffffffffffffffff\n      and\n      dup2\n      mstore\n      0x20\n      add\n      swap1\n      dup2\n      mstore\n      0x20\n      add\n      0x00\n      keccak256\n        /* \"contracts/base/ERC20.sol\":1568:1597  allowance[sender][msg.sender] */\n      0x00\n        /* \"contracts/base/ERC20.sol\":1586:1596  msg.sender */\n      caller\n        /* \"contracts/base/ERC20.sol\":1568:1597  allowance[sender][msg.sender] */\n      0xffffffffffffffffffffffffffffffffffffffff\n      and\n      0xffffffffffffffffffffffffffffffffffffffff\n      and\n      dup2\n      mstore\n      0x20\n      add\n      swap1\n      dup2\n      mstore\n      0x20\n      add\n      0x00\n      keccak256\n      0x00\n        /* \"contracts/base/ERC20.sol\":1568:1607  allowance[sender][msg.sender] -= amount */\n      dup3\n      dup3\n      sload\n      tag_73\n      swap2\n      swap1\n      tag_74\n      jump\t// in\n    tag_73:\n      swap3\n      pop\n      pop\n      dup2\n      swap1\n      sstore\n      pop\n        /* \"contracts/base/ERC20.sol\":1639:1645  amount */\n      dup2\n        /* \"contracts/base/ERC20.sol\":1618:1627  balanceOf */\n      0x00\n        /* \"contracts/base/ERC20.sol\":1618:1635  balanceOf[sender] */\n      dup1\n        /* \"contracts/base/ERC20.sol\":1628:1634  sender */\n      dup7\n        /* \"contracts/base/ERC20.sol\":1618:1635  balanceOf[sender] */\n      0xffffffffffffffffffffffffffffffffffffffff\n      and\n      0xffffffffffffffffffffffffffffffffffffffff\n      and\n      dup2\n      mstore\n      0x20\n      add\n      swap1\n      dup2\n      mstore\n      0x20\n      add\n      0x00\n      keccak256\n      0x00\n        /* \"contracts/base/ERC20.sol\":1618:1645  balanceOf[sender] -= amount */\n      dup3\n      dup3\n      sload\n      tag_75\n      swap2\n      swap1\n      tag_74\n      jump\t// in\n    tag_75:\n      swap3\n      pop\n      pop\n      dup2\n      swap1\n      sstore\n      pop\n        /* \"contracts/base/ERC20.sol\":1680:1686  amount */\n      dup2\n        /* \"contracts/base/ERC20.sol\":1656:1665  balanceOf */\n      0x00\n        /* \"contracts/base/ERC20.sol\":1656:1676  balanceOf[recipient] */\n      dup1\n        /* \"contracts/base/ERC20.sol\":1666:1675  recipient */\n      dup6\n        /* \"contracts/base/ERC20.sol\":1656:1676  balanceOf[recipient] */\n      0xffffffffffffffffffffffffffffffffffffffff\n      and\n      0xffffffffffffffffffffffffffffffffffffffff\n      and\n      dup2\n      mstore\n      0x20\n      add\n      swap1\n      dup2\n      mstore\n      0x20\n      add\n      0x00\n      keccak256\n      0x00\n        /* \"contracts/base/ERC20.sol\":1656:1686  balanceOf[recipient] += amount */\n      dup3\n      dup3\n      sload\n      tag_76\n      swap2\n      swap1\n      tag_77\n      jump\t// in\n    tag_76:\n      swap3\n      pop\n      pop\n      dup2\n      swap1\n      sstore\n      pop\n        /* \"contracts/base/ERC20.sol\":1719:1728  recipient */\n      dup3\n        /* \"contracts/base/ERC20.sol\":1702:1737  Transfer(sender, recipient, amount) */\n      0xffffffffffffffffffffffffffffffffffffffff\n      and\n        /* \"contracts/base/ERC20.sol\":1711:1717  sender */\n      dup5\n        /* \"contracts/base/ERC20.sol\":1702:1737  Transfer(sender, recipient, amount) */\n      0xffffffffffffffffffffffffffffffffffffffff\n      and\n      0xddf252ad1be2c89b69c2b068fc378daa952ba7f163c4a11628f55a4df523b3ef\n        /* \"contracts/base/ERC20.sol\":1730:1736  amount */\n      dup5\n        /* \"contracts/base/ERC20.sol\":1702:1737  Transfer(sender, recipient, amount) */\n      mload(0x40)\n      tag_78\n      swap2\n      swap1\n      tag_27\n      jump\t// in\n    tag_78:\n      mload(0x40)\n      dup1\n      swap2\n      sub\n      swap1\n      log3\n        /* \"contracts/base/ERC20.sol\":1755:1759  true */\n      0x01\n        /* \"contracts/base/ERC20.sol\":1748:1759  return true */\n      swap1\n      pop\n        /* \"contracts/base/ERC20.sol\":1257:1767  function transferFrom(... */\n      swap4\n      swap3\n      pop\n      pop\n      pop\n      jump\t// out\n        /* \"contracts/base/ERC20.sol\":367:393  uint8 public decimals = 18 */\n    tag_34:\n      0x05\n      0x00\n      swap1\n      sload\n      swap1\n      0x0100\n      exp\n      swap1\n      div\n      0xff\n      and\n      dup2\n      jump\t// out\n        /* \"contracts/base/ERC20.sol\":1981:2248  function burn(uint256 amount) external {... */\n    tag_40:\n        /* \"contracts/base/ERC20.sol\":2064:2070  amount */\n      dup1\n        /* \"contracts/base/ERC20.sol\":2039:2048  balanceOf */\n      0x00\n        /* \"contracts/base/ERC20.sol\":2039:2060  balanceOf[msg.sender] */\n      dup1\n        /* \"contracts/base/ERC20.sol\":2049:2059  msg.sender */\n      caller\n        /* \"contracts/base/ERC20.sol\":2039:2060  balanceOf[msg.sender] */\n      0xffffffffffffffffffffffffffffffffffffffff\n      and\n      0xffffffffffffffffffffffffffffffffffffffff\n      and\n      dup2\n      mstore\n      0x20\n      add\n      swap1\n      dup2\n      mstore\n      0x20\n      add\n      0x00\n      keccak256\n      sload\n        /* \"contracts/base/ERC20.sol\":2039:2070  balanceOf[msg.sender] >= amount */\n      lt\n      iszero\n        /* \"contracts/base/ERC20.sol\":2031:2110  require(balanceOf[msg.sender] >= amount, \"ERC20: insufficient balance to burn\") */\n      tag_80\n      jumpi\n      mload(0x40)\n      0x08c379a000000000000000000000000000000000000000000000000000000000\n      dup2\n      mstore\n      0x04\n      add\n      tag_81\n      swap1\n      tag_82\n      jump\t// in\n    tag_81:\n      mload(0x40)\n      dup1\n      swap2\n      sub\n      swap1\n      revert\n    tag_80:\n        /* \"contracts/base/ERC20.sol\":2146:2152  amount */\n      dup1\n        /* \"contracts/base/ERC20.sol\":2121:2130  balanceOf */\n      0x00\n        /* \"contracts/base/ERC20.sol\":2121:2142  balanceOf[msg.sender] */\n      dup1\n        /* \"contracts/base/ERC20.sol\":2131:2141  msg.sender */\n      caller\n        /* \"contracts/base/ERC20.sol\":2121:2142  balanceOf[msg.sender] */\n      0xffffffffffffffffffffffffffffffffffffffff\n      and\n      0xffffffffffffffffffffffffffffffffffffffff\n      and\n      dup2\n      mstore\n      0x20\n      add\n      swap1\n      dup2\n      mstore\n      0x20\n      add\n      0x00\n      keccak256\n      0x00\n        /* \"contracts/base/ERC20.sol\":2121:2152  balanceOf[msg.sender] -= amount */\n      dup3\n      dup3\n      sload\n      tag_83\n      swap2\n      swap1\n      tag_74\n      jump\t// in\n    tag_83:\n      swap3\n      pop\n      pop\n      dup2\n      swap1\n      sstore\n      pop\n        /* \"contracts/base/ERC20.sol\":2178:2184  amount */\n      dup1\n        /* \"contracts/base/ERC20.sol\":2163:2174  totalSupply */\n      0x02\n      0x00\n        /* \"contracts/base/ERC20.sol\":2163:2184  totalSupply -= amount */\n      dup3\n      dup3\n      sload\n      tag_84\n      swap2\n      swap1\n      tag_74\n      jump\t// in\n    tag_84:\n      swap3\n      pop\n      pop\n      dup2\n      swap1\n      sstore\n      pop\n        /* \"contracts/base/ERC20.sol\":2229:2230  0 */\n      0x00\n        /* \"contracts/base/ERC20.sol\":2200:2240  Transfer(msg.sender, address(0), amount) */\n      0xffffffffffffffffffffffffffffffffffffffff\n      and\n        /* \"contracts/base/ERC20.sol\":2209:2219  msg.sender */\n      caller\n        /* \"contracts/base/ERC20.sol\":2200:2240  Transfer(msg.sender, address(0), amount) */\n      0xffffffffffffffffffffffffffffffffffffffff\n      and\n      0xddf252ad1be2c89b69c2b068fc378daa952ba7f163c4a11628f55a4df523b3ef\n        /* \"contracts/base/ERC20.sol\":2233:2239  amount */\n      dup4\n        /* \"contracts/base/ERC20.sol\":2200:2240  Transfer(msg.sender, address(0), amount) */\n      mload(0x40)\n      tag_85\n      swap2\n      swap1\n      tag_27\n      jump\t// in\n    tag_85:\n      mload(0x40)\n      dup1\n      swap2\n      sub\n      swap1\n      log3\n        /* \"contracts/base/ERC20.sol\":1981:2248  function burn(uint256 amount) external {... */\n      pop\n      jump\t// out\n        /* \"contracts/base/ERC20.sol\":131:184  mapping(address => uint256) public override balanceOf */\n    tag_44:\n      mstore(0x20, 0x00)\n      dup1\n      0x00\n      mstore\n      keccak256(0x00, 0x40)\n      0x00\n      swap2\n      pop\n      swap1\n      pop\n      sload\n      dup2\n      jump\t// out\n        /* \"contracts/base/ERC20.sol\":340:360  string public symbol */\n    tag_47:\n      0x04\n      dup1\n      sload\n      tag_86\n      swap1\n      tag_59\n      jump\t// in\n    tag_86:\n      dup1\n      0x1f\n      add\n      0x20\n      dup1\n      swap2\n      div\n      mul\n      0x20\n      add\n      mload(0x40)\n      swap1\n      dup2\n      add\n      0x40\n      mstore\n      dup1\n      swap3\n      swap2\n      swap1\n      dup2\n      dup2\n      mstore\n      0x20\n      add\n      dup3\n      dup1\n      sload\n      tag_87\n      swap1\n      tag_59\n      jump\t// in\n    tag_87:\n      dup1\n      iszero\n      tag_88\n      jumpi\n      dup1\n      0x1f\n      lt\n      tag_89\n      jumpi\n      0x0100\n      dup1\n      dup4\n      sload\n      div\n      mul\n      dup4\n      mstore\n      swap2\n      0x20\n      add\n      swap2\n      jump(tag_88)\n    tag_89:\n      dup3\n      add\n      swap2\n      swap1\n      0x00\n      mstore\n      keccak256(0x00, 0x20)\n      swap1\n    tag_90:\n      dup2\n      sload\n      dup2\n      mstore\n      swap1\n      0x01\n      add\n      swap1\n      0x20\n      add\n      dup1\n      dup4\n      gt\n      tag_90\n      jumpi\n      dup3\n      swap1\n      sub\n      0x1f\n      and\n      dup3\n      add\n      swap2\n    tag_88:\n      pop\n      pop\n      pop\n      pop\n      pop\n      dup2\n      jump\t// out\n        /* \"contracts/base/ERC20.sol\":699:1030  function transfer(address recipient, uint amount) public override returns (bool) {... */\n    tag_51:\n        /* \"contracts/base/ERC20.sol\":774:778  bool */\n      0x00\n        /* \"contracts/base/ERC20.sol\":824:830  amount */\n      dup2\n        /* \"contracts/base/ERC20.sol\":799:808  balanceOf */\n      0x00\n        /* \"contracts/base/ERC20.sol\":799:820  balanceOf[msg.sender] */\n      dup1\n        /* \"contracts/base/ERC20.sol\":809:819  msg.sender */\n      caller\n        /* \"contracts/base/ERC20.sol\":799:820  balanceOf[msg.sender] */\n      0xffffffffffffffffffffffffffffffffffffffff\n      and\n      0xffffffffffffffffffffffffffffffffffffffff\n      and\n      dup2\n      mstore\n      0x20\n      add\n      swap1\n      dup2\n      mstore\n      0x20\n      add\n      0x00\n      keccak256\n      sload\n        /* \"contracts/base/ERC20.sol\":799:830  balanceOf[msg.sender] >= amount */\n      lt\n      iszero\n        /* \"contracts/base/ERC20.sol\":791:862  require(balanceOf[msg.sender] >= amount, \"ERC20: insufficient balance\") */\n      tag_92\n      jumpi\n      mload(0x40)\n      0x08c379a000000000000000000000000000000000000000000000000000000000\n      dup2\n      mstore\n      0x04\n      add\n      tag_93\n      swap1\n      tag_69\n      jump\t// in\n    tag_93:\n      mload(0x40)\n      dup1\n      swap2\n      sub\n      swap1\n      revert\n    tag_92:\n        /* \"contracts/base/ERC20.sol\":898:904  amount */\n      dup2\n        /* \"contracts/base/ERC20.sol\":873:882  balanceOf */\n      0x00\n        /* \"contracts/base/ERC20.sol\":873:894  balanceOf[msg.sender] */\n      dup1\n        /* \"contracts/base/ERC20.sol\":883:893  msg.sender */\n      caller\n        /* \"contracts/base/ERC20.sol\":873:894  balanceOf[msg.sender] */\n      0xffffffffffffffffffffffffffffffffffffffff\n      and\n      0xffffffffffffffffffffffffffffffffffffffff\n      and\n      dup2\n      mstore\n      0x20\n      add\n      swap1\n      dup2\n      mstore\n      0x20\n      add\n      0x00\n      keccak256\n      0x00\n        /* \"contracts/base/ERC20.sol\":873:904  balanceOf[msg.sender] -= amount */\n      dup3\n      dup3\n      sload\n      tag_94\n      swap2\n      swap1\n      tag_74\n      jump\t// in\n    tag_94:\n      swap3\n      pop\n      pop\n      dup2\n      swap1\n      sstore\n      pop\n        /* \"contracts/base/ERC20.sol\":939:945  amount */\n      dup2\n        /* \"contracts/base/ERC20.sol\":915:924  balanceOf */\n      0x00\n        /* \"contracts/base/ERC20.sol\":915:935  balanceOf[recipient] */\n      dup1\n        /* \"contracts/base/ERC20.sol\":925:934  recipient */\n      dup6\n        /* \"contracts/base/ERC20.sol\":915:935  balanceOf[recipient] */\n      0xffffffffffffffffffffffffffffffffffffffff\n      and\n      0xffffffffffffffffffffffffffffffffffffffff\n      and\n      dup2\n      mstore\n      0x20\n      add\n      swap1\n      dup2\n      mstore\n      0x20\n      add\n      0x00\n      keccak256\n      0x00\n        /* \"contracts/base/ERC20.sol\":915:945  balanceOf[recipient] += amount */\n      dup3\n      dup3\n      sload\n      tag_95\n      swap2\n      swap1\n      tag_77\n      jump\t// in\n    tag_95:\n      swap3\n      pop\n      pop\n      dup2\n      swap1\n      sstore\n      pop\n        /* \"contracts/base/ERC20.sol\":982:991  recipient */\n      dup3\n        /* \"contracts/base/ERC20.sol\":961:1000  Transfer(msg.sender, recipient, amount) */\n      0xffffffffffffffffffffffffffffffffffffffff\n      and\n        /* \"contracts/base/ERC20.sol\":970:980  msg.sender */\n      caller\n        /* \"contracts/base/ERC20.sol\":961:1000  Transfer(msg.sender, recipient, amount) */\n      0xffffffffffffffffffffffffffffffffffffffff\n      and\n      0xddf252ad1be2c89b69c2b068fc378daa952ba7f163c4a11628f55a4df523b3ef\n        /* \"contracts/base/ERC20.sol\":993:999  amount */\n      dup5\n        /* \"contracts/base/ERC20.sol\":961:1000  Transfer(msg.sender, recipient, amount) */\n      mload(0x40)\n      tag_96\n      swap2\n      swap1\n      tag_27\n      jump\t// in\n    tag_96:\n      mload(0x40)\n      dup1\n      swap2\n      sub\n      swap1\n      log3\n        /* \"contracts/base/ERC20.sol\":1018:1022  true */\n      0x01\n        /* \"contracts/base/ERC20.sol\":1011:1022  return true */\n      swap1\n      pop\n        /* \"contracts/base/ERC20.sol\":699:1030  function transfer(address recipient, uint amount) public override returns (bool) {... */\n      swap3\n      swap2\n      pop\n      pop\n      jump\t// out\n        /* \"contracts/base/ERC20.sol\":191:264  mapping(address => mapping(address => uint256)) public override allowance */\n    tag_56:\n      mstore(0x20, 0x01)\n      dup2\n      0x00\n      mstore\n      mstore(0x20, keccak256(0x00, 0x40))\n      dup1\n      0x00\n      mstore\n      keccak256(0x00, 0x40)\n      0x00\n      swap2\n      pop\n      swap2\n      pop\n      pop\n      sload\n      dup2\n      jump\t// out\n        /* \"#utility.yul\":7:106   */\n    tag_97:\n        /* \"#utility.yul\":59:65   */\n      0x00\n        /* \"#utility.yul\":93:98   */\n      dup2\n        /* \"#utility.yul\":87:99   */\n      mload\n        /* \"#utility.yul\":77:99   */\n      swap1\n      pop\n        /* \"#utility.yul\":7:106   */\n      swap2\n      swap1\n      pop\n      jump\t// out\n        /* \"#utility.yul\":112:281   */\n    tag_98:\n        /* \"#utility.yul\":196:207   */\n      0x00\n        /* \"#utility.yul\":230:236   */\n      dup3\n        /* \"#utility.yul\":225:228   */\n      dup3\n        /* \"#utility.yul\":218:237   */\n      mstore\n        /* \"#utility.yul\":270:274   */\n      0x20\n        /* \"#utility.yul\":265:268   */\n      dup3\n        /* \"#utility.yul\":261:275   */\n      add\n        /* \"#utility.yul\":246:275   */\n      swap1\n      pop\n        /* \"#utility.yul\":112:281   */\n      swap3\n      swap2\n      pop\n      pop\n      jump\t// out\n        /* \"#utility.yul\":287:533   */\n    tag_99:\n        /* \"#utility.yul\":368:369   */\n      0x00\n        /* \"#utility.yul\":378:491   */\n    tag_129:\n        /* \"#utility.yul\":392:398   */\n      dup4\n        /* \"#utility.yul\":389:390   */\n      dup2\n        /* \"#utility.yul\":386:399   */\n      lt\n        /* \"#utility.yul\":378:491   */\n      iszero\n      tag_131\n      jumpi\n        /* \"#utility.yul\":477:478   */\n      dup1\n        /* \"#utility.yul\":472:475   */\n      dup3\n        /* \"#utility.yul\":468:479   */\n      add\n        /* \"#utility.yul\":462:480   */\n      mload\n        /* \"#utility.yul\":458:459   */\n      dup2\n        /* \"#utility.yul\":453:456   */\n      dup5\n        /* \"#utility.yul\":449:460   */\n      add\n        /* \"#utility.yul\":442:481   */\n      mstore\n        /* \"#utility.yul\":414:416   */\n      0x20\n        /* \"#utility.yul\":411:412   */\n      dup2\n        /* \"#utility.yul\":407:417   */\n      add\n        /* \"#utility.yul\":402:417   */\n      swap1\n      pop\n        /* \"#utility.yul\":378:491   */\n      jump(tag_129)\n    tag_131:\n        /* \"#utility.yul\":525:526   */\n      0x00\n        /* \"#utility.yul\":516:522   */\n      dup5\n        /* \"#utility.yul\":511:514   */\n      dup5\n        /* \"#utility.yul\":507:523   */\n      add\n        /* \"#utility.yul\":500:527   */\n      mstore\n        /* \"#utility.yul\":349:533   */\n      pop\n        /* \"#utility.yul\":287:533   */\n      pop\n      pop\n      pop\n      jump\t// out\n        /* \"#utility.yul\":539:641   */\n    tag_100:\n        /* \"#utility.yul\":580:586   */\n      0x00\n        /* \"#utility.yul\":631:633   */\n      0x1f\n        /* \"#utility.yul\":627:634   */\n      not\n        /* \"#utility.yul\":622:624   */\n      0x1f\n        /* \"#utility.yul\":615:620   */\n      dup4\n        /* \"#utility.yul\":611:625   */\n      add\n        /* \"#utility.yul\":607:635   */\n      and\n        /* \"#utility.yul\":597:635   */\n      swap1\n      pop\n        /* \"#utility.yul\":539:641   */\n      swap2\n      swap1\n      pop\n      jump\t// out\n        /* \"#utility.yul\":647:1024   */\n    tag_101:\n        /* \"#utility.yul\":735:738   */\n      0x00\n        /* \"#utility.yul\":763:802   */\n      tag_134\n        /* \"#utility.yul\":796:801   */\n      dup3\n        /* \"#utility.yul\":763:802   */\n      tag_97\n      jump\t// in\n    tag_134:\n        /* \"#utility.yul\":818:889   */\n      tag_135\n        /* \"#utility.yul\":882:888   */\n      dup2\n        /* \"#utility.yul\":877:880   */\n      dup6\n        /* \"#utility.yul\":818:889   */\n      tag_98\n      jump\t// in\n    tag_135:\n        /* \"#utility.yul\":811:889   */\n      swap4\n      pop\n        /* \"#utility.yul\":898:963   */\n      tag_136\n        /* \"#utility.yul\":956:962   */\n      dup2\n        /* \"#utility.yul\":951:954   */\n      dup6\n        /* \"#utility.yul\":944:948   */\n      0x20\n        /* \"#utility.yul\":937:942   */\n      dup7\n        /* \"#utility.yul\":933:949   */\n      add\n        /* \"#utility.yul\":898:963   */\n      tag_99\n      jump\t// in\n    tag_136:\n        /* \"#utility.yul\":988:1017   */\n      tag_137\n        /* \"#utility.yul\":1010:1016   */\n      dup2\n        /* \"#utility.yul\":988:1017   */\n      tag_100\n      jump\t// in\n    tag_137:\n        /* \"#utility.yul\":983:986   */\n      dup5\n        /* \"#utility.yul\":979:1018   */\n      add\n        /* \"#utility.yul\":972:1018   */\n      swap2\n      pop\n        /* \"#utility.yul\":739:1024   */\n      pop\n        /* \"#utility.yul\":647:1024   */\n      swap3\n      swap2\n      pop\n      pop\n      jump\t// out\n        /* \"#utility.yul\":1030:1343   */\n    tag_17:\n        /* \"#utility.yul\":1143:1147   */\n      0x00\n        /* \"#utility.yul\":1181:1183   */\n      0x20\n        /* \"#utility.yul\":1170:1179   */\n      dup3\n        /* \"#utility.yul\":1166:1184   */\n      add\n        /* \"#utility.yul\":1158:1184   */\n      swap1\n      pop\n        /* \"#utility.yul\":1230:1239   */\n      dup2\n        /* \"#utility.yul\":1224:1228   */\n      dup2\n        /* \"#utility.yul\":1220:1240   */\n      sub\n        /* \"#utility.yul\":1216:1217   */\n      0x00\n        /* \"#utility.yul\":1205:1214   */\n      dup4\n        /* \"#utility.yul\":1201:1218   */\n      add\n        /* \"#utility.yul\":1194:1241   */\n      mstore\n        /* \"#utility.yul\":1258:1336   */\n      tag_139\n        /* \"#utility.yul\":1331:1335   */\n      dup2\n        /* \"#utility.yul\":1322:1328   */\n      dup5\n        /* \"#utility.yul\":1258:1336   */\n      tag_101\n      jump\t// in\n    tag_139:\n        /* \"#utility.yul\":1250:1336   */\n      swap1\n      pop\n        /* \"#utility.yul\":1030:1343   */\n      swap3\n      swap2\n      pop\n      pop\n      jump\t// out\n        /* \"#utility.yul\":1430:1547   */\n    tag_103:\n        /* \"#utility.yul\":1539:1540   */\n      0x00\n        /* \"#utility.yul\":1536:1537   */\n      dup1\n        /* \"#utility.yul\":1529:1541   */\n      revert\n        /* \"#utility.yul\":1676:1802   */\n    tag_105:\n        /* \"#utility.yul\":1713:1720   */\n      0x00\n        /* \"#utility.yul\":1753:1795   */\n      0xffffffffffffffffffffffffffffffffffffffff\n        /* \"#utility.yul\":1746:1751   */\n      dup3\n        /* \"#utility.yul\":1742:1796   */\n      and\n        /* \"#utility.yul\":1731:1796   */\n      swap1\n      pop\n        /* \"#utility.yul\":1676:1802   */\n      swap2\n      swap1\n      pop\n      jump\t// out\n        /* \"#utility.yul\":1808:1904   */\n    tag_106:\n        /* \"#utility.yul\":1845:1852   */\n      0x00\n        /* \"#utility.yul\":1874:1898   */\n      tag_145\n        /* \"#utility.yul\":1892:1897   */\n      dup3\n        /* \"#utility.yul\":1874:1898   */\n      tag_105\n      jump\t// in\n    tag_145:\n        /* \"#utility.yul\":1863:1898   */\n      swap1\n      pop\n        /* \"#utility.yul\":1808:1904   */\n      swap2\n      swap1\n      pop\n      jump\t// out\n        /* \"#utility.yul\":1910:2032   */\n    tag_107:\n        /* \"#utility.yul\":1983:2007   */\n      tag_147\n        /* \"#utility.yul\":2001:2006   */\n      dup2\n        /* \"#utility.yul\":1983:2007   */\n      tag_106\n      jump\t// in\n    tag_147:\n        /* \"#utility.yul\":1976:1981   */\n      dup2\n        /* \"#utility.yul\":1973:2008   */\n      eq\n        /* \"#utility.yul\":1963:2026   */\n      tag_148\n      jumpi\n        /* \"#utility.yul\":2022:2023   */\n      0x00\n        /* \"#utility.yul\":2019:2020   */\n      dup1\n        /* \"#utility.yul\":2012:2024   */\n      revert\n        /* \"#utility.yul\":1963:2026   */\n    tag_148:\n        /* \"#utility.yul\":1910:2032   */\n      pop\n      jump\t// out\n        /* \"#utility.yul\":2038:2177   */\n    tag_108:\n        /* \"#utility.yul\":2084:2089   */\n      0x00\n        /* \"#utility.yul\":2122:2128   */\n      dup2\n        /* \"#utility.yul\":2109:2129   */\n      calldataload\n        /* \"#utility.yul\":2100:2129   */\n      swap1\n      pop\n        /* \"#utility.yul\":2138:2171   */\n      tag_150\n        /* \"#utility.yul\":2165:2170   */\n      dup2\n        /* \"#utility.yul\":2138:2171   */\n      tag_107\n      jump\t// in\n    tag_150:\n        /* \"#utility.yul\":2038:2177   */\n      swap3\n      swap2\n      pop\n      pop\n      jump\t// out\n        /* \"#utility.yul\":2183:2260   */\n    tag_109:\n        /* \"#utility.yul\":2220:2227   */\n      0x00\n        /* \"#utility.yul\":2249:2254   */\n      dup2\n        /* \"#utility.yul\":2238:2254   */\n      swap1\n      pop\n        /* \"#utility.yul\":2183:2260   */\n      swap2\n      swap1\n      pop\n      jump\t// out\n        /* \"#utility.yul\":2266:2388   */\n    tag_110:\n        /* \"#utility.yul\":2339:2363   */\n      tag_153\n        /* \"#utility.yul\":2357:2362   */\n      dup2\n        /* \"#utility.yul\":2339:2363   */\n      tag_109\n      jump\t// in\n    tag_153:\n        /* \"#utility.yul\":2332:2337   */\n      dup2\n        /* \"#utility.yul\":2329:2364   */\n      eq\n        /* \"#utility.yul\":2319:2382   */\n      tag_154\n      jumpi\n        /* \"#utility.yul\":2378:2379   */\n      0x00\n        /* \"#utility.yul\":2375:2376   */\n      dup1\n        /* \"#utility.yul\":2368:2380   */\n      revert\n        /* \"#utility.yul\":2319:2382   */\n    tag_154:\n        /* \"#utility.yul\":2266:2388   */\n      pop\n      jump\t// out\n        /* \"#utility.yul\":2394:2533   */\n    tag_111:\n        /* \"#utility.yul\":2440:2445   */\n      0x00\n        /* \"#utility.yul\":2478:2484   */\n      dup2\n        /* \"#utility.yul\":2465:2485   */\n      calldataload\n        /* \"#utility.yul\":2456:2485   */\n      swap1\n      pop\n        /* \"#utility.yul\":2494:2527   */\n      tag_156\n        /* \"#utility.yul\":2521:2526   */\n      dup2\n        /* \"#utility.yul\":2494:2527   */\n      tag_110\n      jump\t// in\n    tag_156:\n        /* \"#utility.yul\":2394:2533   */\n      swap3\n      swap2\n      pop\n      pop\n      jump\t// out\n        /* \"#utility.yul\":2539:3013   */\n    tag_20:\n        /* \"#utility.yul\":2607:2613   */\n      0x00\n        /* \"#utility.yul\":2615:2621   */\n      dup1\n        /* \"#utility.yul\":2664:2666   */\n      0x40\n        /* \"#utility.yul\":2652:2661   */\n      dup4\n        /* \"#utility.yul\":2643:2650   */\n      dup6\n        /* \"#utility.yul\":2639:2662   */\n      sub\n        /* \"#utility.yul\":2635:2667   */\n      slt\n        /* \"#utility.yul\":2632:2751   */\n      iszero\n      tag_158\n      jumpi\n        /* \"#utility.yul\":2670:2749   */\n      tag_159\n      tag_103\n      jump\t// in\n    tag_159:\n        /* \"#utility.yul\":2632:2751   */\n    tag_158:\n        /* \"#utility.yul\":2790:2791   */\n      0x00\n        /* \"#utility.yul\":2815:2868   */\n      tag_160\n        /* \"#utility.yul\":2860:2867   */\n      dup6\n        /* \"#utility.yul\":2851:2857   */\n      dup3\n        /* \"#utility.yul\":2840:2849   */\n      dup7\n        /* \"#utility.yul\":2836:2858   */\n      add\n        /* \"#utility.yul\":2815:2868   */\n      tag_108\n      jump\t// in\n    tag_160:\n        /* \"#utility.yul\":2805:2868   */\n      swap3\n      pop\n        /* \"#utility.yul\":2761:2878   */\n      pop\n        /* \"#utility.yul\":2917:2919   */\n      0x20\n        /* \"#utility.yul\":2943:2996   */\n      tag_161\n        /* \"#utility.yul\":2988:2995   */\n      dup6\n        /* \"#utility.yul\":2979:2985   */\n      dup3\n        /* \"#utility.yul\":2968:2977   */\n      dup7\n        /* \"#utility.yul\":2964:2986   */\n      add\n        /* \"#utility.yul\":2943:2996   */\n      tag_111\n      jump\t// in\n    tag_161:\n        /* \"#utility.yul\":2933:2996   */\n      swap2\n      pop\n        /* \"#utility.yul\":2888:3006   */\n      pop\n        /* \"#utility.yul\":2539:3013   */\n      swap3\n      pop\n      swap3\n      swap1\n      pop\n      jump\t// out\n        /* \"#utility.yul\":3019:3109   */\n    tag_112:\n        /* \"#utility.yul\":3053:3060   */\n      0x00\n        /* \"#utility.yul\":3096:3101   */\n      dup2\n        /* \"#utility.yul\":3089:3102   */\n      iszero\n        /* \"#utility.yul\":3082:3103   */\n      iszero\n        /* \"#utility.yul\":3071:3103   */\n      swap1\n      pop\n        /* \"#utility.yul\":3019:3109   */\n      swap2\n      swap1\n      pop\n      jump\t// out\n        /* \"#utility.yul\":3115:3224   */\n    tag_113:\n        /* \"#utility.yul\":3196:3217   */\n      tag_164\n        /* \"#utility.yul\":3211:3216   */\n      dup2\n        /* \"#utility.yul\":3196:3217   */\n      tag_112\n      jump\t// in\n    tag_164:\n        /* \"#utility.yul\":3191:3194   */\n      dup3\n        /* \"#utility.yul\":3184:3218   */\n      mstore\n        /* \"#utility.yul\":3115:3224   */\n      pop\n      pop\n      jump\t// out\n        /* \"#utility.yul\":3230:3440   */\n    tag_23:\n        /* \"#utility.yul\":3317:3321   */\n      0x00\n        /* \"#utility.yul\":3355:3357   */\n      0x20\n        /* \"#utility.yul\":3344:3353   */\n      dup3\n        /* \"#utility.yul\":3340:3358   */\n      add\n        /* \"#utility.yul\":3332:3358   */\n      swap1\n      pop\n        /* \"#utility.yul\":3368:3433   */\n      tag_166\n        /* \"#utility.yul\":3430:3431   */\n      0x00\n        /* \"#utility.yul\":3419:3428   */\n      dup4\n        /* \"#utility.yul\":3415:3432   */\n      add\n        /* \"#utility.yul\":3406:3412   */\n      dup5\n        /* \"#utility.yul\":3368:3433   */\n      tag_113\n      jump\t// in\n    tag_166:\n        /* \"#utility.yul\":3230:3440   */\n      swap3\n      swap2\n      pop\n      pop\n      jump\t// out\n        /* \"#utility.yul\":3446:3564   */\n    tag_114:\n        /* \"#utility.yul\":3533:3557   */\n      tag_168\n        /* \"#utility.yul\":3551:3556   */\n      dup2\n        /* \"#utility.yul\":3533:3557   */\n      tag_109\n      jump\t// in\n    tag_168:\n        /* \"#utility.yul\":3528:3531   */\n      dup3\n        /* \"#utility.yul\":3521:3558   */\n      mstore\n        /* \"#utility.yul\":3446:3564   */\n      pop\n      pop\n      jump\t// out\n        /* \"#utility.yul\":3570:3792   */\n    tag_27:\n        /* \"#utility.yul\":3663:3667   */\n      0x00\n        /* \"#utility.yul\":3701:3703   */\n      0x20\n        /* \"#utility.yul\":3690:3699   */\n      dup3\n        /* \"#utility.yul\":3686:3704   */\n      add\n        /* \"#utility.yul\":3678:3704   */\n      swap1\n      pop\n        /* \"#utility.yul\":3714:3785   */\n      tag_170\n        /* \"#utility.yul\":3782:3783   */\n      0x00\n        /* \"#utility.yul\":3771:3780   */\n      dup4\n        /* \"#utility.yul\":3767:3784   */\n      add\n        /* \"#utility.yul\":3758:3764   */\n      dup5\n        /* \"#utility.yul\":3714:3785   */\n      tag_114\n      jump\t// in\n    tag_170:\n        /* \"#utility.yul\":3570:3792   */\n      swap3\n      swap2\n      pop\n      pop\n      jump\t// out\n        /* \"#utility.yul\":3798:4417   */\n    tag_30:\n        /* \"#utility.yul\":3875:3881   */\n      0x00\n        /* \"#utility.yul\":3883:3889   */\n      dup1\n        /* \"#utility.yul\":3891:3897   */\n      0x00\n        /* \"#utility.yul\":3940:3942   */\n      0x60\n        /* \"#utility.yul\":3928:3937   */\n      dup5\n        /* \"#utility.yul\":3919:3926   */\n      dup7\n        /* \"#utility.yul\":3915:3938   */\n      sub\n        /* \"#utility.yul\":3911:3943   */\n      slt\n        /* \"#utility.yul\":3908:4027   */\n      iszero\n      tag_172\n      jumpi\n        /* \"#utility.yul\":3946:4025   */\n      tag_173\n      tag_103\n      jump\t// in\n    tag_173:\n        /* \"#utility.yul\":3908:4027   */\n    tag_172:\n        /* \"#utility.yul\":4066:4067   */\n      0x00\n        /* \"#utility.yul\":4091:4144   */\n      tag_174\n        /* \"#utility.yul\":4136:4143   */\n      dup7\n        /* \"#utility.yul\":4127:4133   */\n      dup3\n        /* \"#utility.yul\":4116:4125   */\n      dup8\n        /* \"#utility.yul\":4112:4134   */\n      add\n        /* \"#utility.yul\":4091:4144   */\n      tag_108\n      jump\t// in\n    tag_174:\n        /* \"#utility.yul\":4081:4144   */\n      swap4\n      pop\n        /* \"#utility.yul\":4037:4154   */\n      pop\n        /* \"#utility.yul\":4193:4195   */\n      0x20\n        /* \"#utility.yul\":4219:4272   */\n      tag_175\n        /* \"#utility.yul\":4264:4271   */\n      dup7\n        /* \"#utility.yul\":4255:4261   */\n      dup3\n        /* \"#utility.yul\":4244:4253   */\n      dup8\n        /* \"#utility.yul\":4240:4262   */\n      add\n        /* \"#utility.yul\":4219:4272   */\n      tag_108\n      jump\t// in\n    tag_175:\n        /* \"#utility.yul\":4209:4272   */\n      swap3\n      pop\n        /* \"#utility.yul\":4164:4282   */\n      pop\n        /* \"#utility.yul\":4321:4323   */\n      0x40\n        /* \"#utility.yul\":4347:4400   */\n      tag_176\n        /* \"#utility.yul\":4392:4399   */\n      dup7\n        /* \"#utility.yul\":4383:4389   */\n      dup3\n        /* \"#utility.yul\":4372:4381   */\n      dup8\n        /* \"#utility.yul\":4368:4390   */\n      add\n        /* \"#utility.yul\":4347:4400   */\n      tag_111\n      jump\t// in\n    tag_176:\n        /* \"#utility.yul\":4337:4400   */\n      swap2\n      pop\n        /* \"#utility.yul\":4292:4410   */\n      pop\n        /* \"#utility.yul\":3798:4417   */\n      swap3\n      pop\n      swap3\n      pop\n      swap3\n      jump\t// out\n        /* \"#utility.yul\":4423:4509   */\n    tag_115:\n        /* \"#utility.yul\":4458:4465   */\n      0x00\n        /* \"#utility.yul\":4498:4502   */\n      0xff\n        /* \"#utility.yul\":4491:4496   */\n      dup3\n        /* \"#utility.yul\":4487:4503   */\n      and\n        /* \"#utility.yul\":4476:4503   */\n      swap1\n      pop\n        /* \"#utility.yul\":4423:4509   */\n      swap2\n      swap1\n      pop\n      jump\t// out\n        /* \"#utility.yul\":4515:4627   */\n    tag_116:\n        /* \"#utility.yul\":4598:4620   */\n      tag_179\n        /* \"#utility.yul\":4614:4619   */\n      dup2\n        /* \"#utility.yul\":4598:4620   */\n      tag_115\n      jump\t// in\n    tag_179:\n        /* \"#utility.yul\":4593:4596   */\n      dup3\n        /* \"#utility.yul\":4586:4621   */\n      mstore\n        /* \"#utility.yul\":4515:4627   */\n      pop\n      pop\n      jump\t// out\n        /* \"#utility.yul\":4633:4847   */\n    tag_36:\n        /* \"#utility.yul\":4722:4726   */\n      0x00\n        /* \"#utility.yul\":4760:4762   */\n      0x20\n        /* \"#utility.yul\":4749:4758   */\n      dup3\n        /* \"#utility.yul\":4745:4763   */\n      add\n        /* \"#utility.yul\":4737:4763   */\n      swap1\n      pop\n        /* \"#utility.yul\":4773:4840   */\n      tag_181\n        /* \"#utility.yul\":4837:4838   */\n      0x00\n        /* \"#utility.yul\":4826:4835   */\n      dup4\n        /* \"#utility.yul\":4822:4839   */\n      add\n        /* \"#utility.yul\":4813:4819   */\n      dup5\n        /* \"#utility.yul\":4773:4840   */\n      tag_116\n      jump\t// in\n    tag_181:\n        /* \"#utility.yul\":4633:4847   */\n      swap3\n      swap2\n      pop\n      pop\n      jump\t// out\n        /* \"#utility.yul\":4853:5182   */\n    tag_39:\n        /* \"#utility.yul\":4912:4918   */\n      0x00\n        /* \"#utility.yul\":4961:4963   */\n      0x20\n        /* \"#utility.yul\":4949:4958   */\n      dup3\n        /* \"#utility.yul\":4940:4947   */\n      dup5\n        /* \"#utility.yul\":4936:4959   */\n      sub\n        /* \"#utility.yul\":4932:4964   */\n      slt\n        /* \"#utility.yul\":4929:5048   */\n      iszero\n      tag_183\n      jumpi\n        /* \"#utility.yul\":4967:5046   */\n      tag_184\n      tag_103\n      jump\t// in\n    tag_184:\n        /* \"#utility.yul\":4929:5048   */\n    tag_183:\n        /* \"#utility.yul\":5087:5088   */\n      0x00\n        /* \"#utility.yul\":5112:5165   */\n      tag_185\n        /* \"#utility.yul\":5157:5164   */\n      dup5\n        /* \"#utility.yul\":5148:5154   */\n      dup3\n        /* \"#utility.yul\":5137:5146   */\n      dup6\n        /* \"#utility.yul\":5133:5155   */\n      add\n        /* \"#utility.yul\":5112:5165   */\n      tag_111\n      jump\t// in\n    tag_185:\n        /* \"#utility.yul\":5102:5165   */\n      swap2\n      pop\n        /* \"#utility.yul\":5058:5175   */\n      pop\n        /* \"#utility.yul\":4853:5182   */\n      swap3\n      swap2\n      pop\n      pop\n      jump\t// out\n        /* \"#utility.yul\":5188:5517   */\n    tag_43:\n        /* \"#utility.yul\":5247:5253   */\n      0x00\n        /* \"#utility.yul\":5296:5298   */\n      0x20\n        /* \"#utility.yul\":5284:5293   */\n      dup3\n        /* \"#utility.yul\":5275:5282   */\n      dup5\n        /* \"#utility.yul\":5271:5294   */\n      sub\n        /* \"#utility.yul\":5267:5299   */\n      slt\n        /* \"#utility.yul\":5264:5383   */\n      iszero\n      tag_187\n      jumpi\n        /* \"#utility.yul\":5302:5381   */\n      tag_188\n      tag_103\n      jump\t// in\n    tag_188:\n        /* \"#utility.yul\":5264:5383   */\n    tag_187:\n        /* \"#utility.yul\":5422:5423   */\n      0x00\n        /* \"#utility.yul\":5447:5500   */\n      tag_189\n        /* \"#utility.yul\":5492:5499   */\n      dup5\n        /* \"#utility.yul\":5483:5489   */\n      dup3\n        /* \"#utility.yul\":5472:5481   */\n      dup6\n        /* \"#utility.yul\":5468:5490   */\n      add\n        /* \"#utility.yul\":5447:5500   */\n      tag_108\n      jump\t// in\n    tag_189:\n        /* \"#utility.yul\":5437:5500   */\n      swap2\n      pop\n        /* \"#utility.yul\":5393:5510   */\n      pop\n        /* \"#utility.yul\":5188:5517   */\n      swap3\n      swap2\n      pop\n      pop\n      jump\t// out\n        /* \"#utility.yul\":5523:5997   */\n    tag_55:\n        /* \"#utility.yul\":5591:5597   */\n      0x00\n        /* \"#utility.yul\":5599:5605   */\n      dup1\n        /* \"#utility.yul\":5648:5650   */\n      0x40\n        /* \"#utility.yul\":5636:5645   */\n      dup4\n        /* \"#utility.yul\":5627:5634   */\n      dup6\n        /* \"#utility.yul\":5623:5646   */\n      sub\n        /* \"#utility.yul\":5619:5651   */\n      slt\n        /* \"#utility.yul\":5616:5735   */\n      iszero\n      tag_191\n      jumpi\n        /* \"#utility.yul\":5654:5733   */\n      tag_192\n      tag_103\n      jump\t// in\n    tag_192:\n        /* \"#utility.yul\":5616:5735   */\n    tag_191:\n        /* \"#utility.yul\":5774:5775   */\n      0x00\n        /* \"#utility.yul\":5799:5852   */\n      tag_193\n        /* \"#utility.yul\":5844:5851   */\n      dup6\n        /* \"#utility.yul\":5835:5841   */\n      dup3\n        /* \"#utility.yul\":5824:5833   */\n      dup7\n        /* \"#utility.yul\":5820:5842   */\n      add\n        /* \"#utility.yul\":5799:5852   */\n      tag_108\n      jump\t// in\n    tag_193:\n        /* \"#utility.yul\":5789:5852   */\n      swap3\n      pop\n        /* \"#utility.yul\":5745:5862   */\n      pop\n        /* \"#utility.yul\":5901:5903   */\n      0x20\n        /* \"#utility.yul\":5927:5980   */\n      tag_194\n        /* \"#utility.yul\":5972:5979   */\n      dup6\n        /* \"#utility.yul\":5963:5969   */\n      dup3\n        /* \"#utility.yul\":5952:5961   */\n      dup7\n        /* \"#utility.yul\":5948:5970   */\n      add\n        /* \"#utility.yul\":5927:5980   */\n      tag_108\n      jump\t// in\n    tag_194:\n        /* \"#utility.yul\":5917:5980   */\n      swap2\n      pop\n        /* \"#utility.yul\":5872:5990   */\n      pop\n        /* \"#utility.yul\":5523:5997   */\n      swap3\n      pop\n      swap3\n      swap1\n      pop\n      jump\t// out\n        /* \"#utility.yul\":6003:6183   */\n    tag_117:\n        /* \"#utility.yul\":6051:6128   */\n      0x4e487b7100000000000000000000000000000000000000000000000000000000\n        /* \"#utility.yul\":6048:6049   */\n      0x00\n        /* \"#utility.yul\":6041:6129   */\n      mstore\n        /* \"#utility.yul\":6148:6152   */\n      0x22\n        /* \"#utility.yul\":6145:6146   */\n      0x04\n        /* \"#utility.yul\":6138:6153   */\n      mstore\n        /* \"#utility.yul\":6172:6176   */\n      0x24\n        /* \"#utility.yul\":6169:6170   */\n      0x00\n        /* \"#utility.yul\":6162:6177   */\n      revert\n        /* \"#utility.yul\":6189:6509   */\n    tag_59:\n        /* \"#utility.yul\":6233:6239   */\n      0x00\n        /* \"#utility.yul\":6270:6271   */\n      0x02\n        /* \"#utility.yul\":6264:6268   */\n      dup3\n        /* \"#utility.yul\":6260:6272   */\n      div\n        /* \"#utility.yul\":6250:6272   */\n      swap1\n      pop\n        /* \"#utility.yul\":6317:6318   */\n      0x01\n        /* \"#utility.yul\":6311:6315   */\n      dup3\n        /* \"#utility.yul\":6307:6319   */\n      and\n        /* \"#utility.yul\":6338:6356   */\n      dup1\n        /* \"#utility.yul\":6328:6409   */\n      tag_197\n      jumpi\n        /* \"#utility.yul\":6394:6398   */\n      0x7f\n        /* \"#utility.yul\":6386:6392   */\n      dup3\n        /* \"#utility.yul\":6382:6399   */\n      and\n        /* \"#utility.yul\":6372:6399   */\n      swap2\n      pop\n        /* \"#utility.yul\":6328:6409   */\n    tag_197:\n        /* \"#utility.yul\":6456:6458   */\n      0x20\n        /* \"#utility.yul\":6448:6454   */\n      dup3\n        /* \"#utility.yul\":6445:6459   */\n      lt\n        /* \"#utility.yul\":6425:6443   */\n      dup2\n        /* \"#utility.yul\":6422:6460   */\n      sub\n        /* \"#utility.yul\":6419:6503   */\n      tag_198\n      jumpi\n        /* \"#utility.yul\":6475:6493   */\n      tag_199\n      tag_117\n      jump\t// in\n    tag_199:\n        /* \"#utility.yul\":6419:6503   */\n    tag_198:\n        /* \"#utility.yul\":6240:6509   */\n      pop\n        /* \"#utility.yul\":6189:6509   */\n      swap2\n      swap1\n      pop\n      jump\t// out\n        /* \"#utility.yul\":6515:6692   */\n    tag_118:\n        /* \"#utility.yul\":6655:6684   */\n      0x45524332303a20696e73756666696369656e742062616c616e63650000000000\n        /* \"#utility.yul\":6651:6652   */\n      0x00\n        /* \"#utility.yul\":6643:6649   */\n      dup3\n        /* \"#utility.yul\":6639:6653   */\n      add\n        /* \"#utility.yul\":6632:6685   */\n      mstore\n        /* \"#utility.yul\":6515:6692   */\n      pop\n      jump\t// out\n        /* \"#utility.yul\":6698:7064   */\n    tag_119:\n        /* \"#utility.yul\":6840:6843   */\n      0x00\n        /* \"#utility.yul\":6861:6928   */\n      tag_202\n        /* \"#utility.yul\":6925:6927   */\n      0x1b\n        /* \"#utility.yul\":6920:6923   */\n      dup4\n        /* \"#utility.yul\":6861:6928   */\n      tag_98\n      jump\t// in\n    tag_202:\n        /* \"#utility.yul\":6854:6928   */\n      swap2\n      pop\n        /* \"#utility.yul\":6937:7030   */\n      tag_203\n        /* \"#utility.yul\":7026:7029   */\n      dup3\n        /* \"#utility.yul\":6937:7030   */\n      tag_118\n      jump\t// in\n    tag_203:\n        /* \"#utility.yul\":7055:7057   */\n      0x20\n        /* \"#utility.yul\":7050:7053   */\n      dup3\n        /* \"#utility.yul\":7046:7058   */\n      add\n        /* \"#utility.yul\":7039:7058   */\n      swap1\n      pop\n        /* \"#utility.yul\":6698:7064   */\n      swap2\n      swap1\n      pop\n      jump\t// out\n        /* \"#utility.yul\":7070:7489   */\n    tag_69:\n        /* \"#utility.yul\":7236:7240   */\n      0x00\n        /* \"#utility.yul\":7274:7276   */\n      0x20\n        /* \"#utility.yul\":7263:7272   */\n      dup3\n        /* \"#utility.yul\":7259:7277   */\n      add\n        /* \"#utility.yul\":7251:7277   */\n      swap1\n      pop\n        /* \"#utility.yul\":7323:7332   */\n      dup2\n        /* \"#utility.yul\":7317:7321   */\n      dup2\n        /* \"#utility.yul\":7313:7333   */\n      sub\n        /* \"#utility.yul\":7309:7310   */\n      0x00\n        /* \"#utility.yul\":7298:7307   */\n      dup4\n        /* \"#utility.yul\":7294:7311   */\n      add\n        /* \"#utility.yul\":7287:7334   */\n      mstore\n        /* \"#utility.yul\":7351:7482   */\n      tag_205\n        /* \"#utility.yul\":7477:7481   */\n      dup2\n        /* \"#utility.yul\":7351:7482   */\n      tag_119\n      jump\t// in\n    tag_205:\n        /* \"#utility.yul\":7343:7482   */\n      swap1\n      pop\n        /* \"#utility.yul\":7070:7489   */\n      swap2\n      swap1\n      pop\n      jump\t// out\n        /* \"#utility.yul\":7495:7669   */\n    tag_120:\n        /* \"#utility.yul\":7635:7661   */\n      0x45524332303a20616c6c6f77616e636520746f6f206c6f770000000000000000\n        /* \"#utility.yul\":7631:7632   */\n      0x00\n        /* \"#utility.yul\":7623:7629   */\n      dup3\n        /* \"#utility.yul\":7619:7633   */\n      add\n        /* \"#utility.yul\":7612:7662   */\n      mstore\n        /* \"#utility.yul\":7495:7669   */\n      pop\n      jump\t// out\n        /* \"#utility.yul\":7675:8041   */\n    tag_121:\n        /* \"#utility.yul\":7817:7820   */\n      0x00\n        /* \"#utility.yul\":7838:7905   */\n      tag_208\n        /* \"#utility.yul\":7902:7904   */\n      0x18\n        /* \"#utility.yul\":7897:7900   */\n      dup4\n        /* \"#utility.yul\":7838:7905   */\n      tag_98\n      jump\t// in\n    tag_208:\n        /* \"#utility.yul\":7831:7905   */\n      swap2\n      pop\n        /* \"#utility.yul\":7914:8007   */\n      tag_209\n        /* \"#utility.yul\":8003:8006   */\n      dup3\n        /* \"#utility.yul\":7914:8007   */\n      tag_120\n      jump\t// in\n    tag_209:\n        /* \"#utility.yul\":8032:8034   */\n      0x20\n        /* \"#utility.yul\":8027:8030   */\n      dup3\n        /* \"#utility.yul\":8023:8035   */\n      add\n        /* \"#utility.yul\":8016:8035   */\n      swap1\n      pop\n        /* \"#utility.yul\":7675:8041   */\n      swap2\n      swap1\n      pop\n      jump\t// out\n        /* \"#utility.yul\":8047:8466   */\n    tag_72:\n        /* \"#utility.yul\":8213:8217   */\n      0x00\n        /* \"#utility.yul\":8251:8253   */\n      0x20\n        /* \"#utility.yul\":8240:8249   */\n      dup3\n        /* \"#utility.yul\":8236:8254   */\n      add\n        /* \"#utility.yul\":8228:8254   */\n      swap1\n      pop\n        /* \"#utility.yul\":8300:8309   */\n      dup2\n        /* \"#utility.yul\":8294:8298   */\n      dup2\n        /* \"#utility.yul\":8290:8310   */\n      sub\n        /* \"#utility.yul\":8286:8287   */\n      0x00\n        /* \"#utility.yul\":8275:8284   */\n      dup4\n        /* \"#utility.yul\":8271:8288   */\n      add\n        /* \"#utility.yul\":8264:8311   */\n      mstore\n        /* \"#utility.yul\":8328:8459   */\n      tag_211\n        /* \"#utility.yul\":8454:8458   */\n      dup2\n        /* \"#utility.yul\":8328:8459   */\n      tag_121\n      jump\t// in\n    tag_211:\n        /* \"#utility.yul\":8320:8459   */\n      swap1\n      pop\n        /* \"#utility.yul\":8047:8466   */\n      swap2\n      swap1\n      pop\n      jump\t// out\n        /* \"#utility.yul\":8472:8652   */\n    tag_122:\n        /* \"#utility.yul\":8520:8597   */\n      0x4e487b7100000000000000000000000000000000000000000000000000000000\n        /* \"#utility.yul\":8517:8518   */\n      0x00\n        /* \"#utility.yul\":8510:8598   */\n      mstore\n        /* \"#utility.yul\":8617:8621   */\n      0x11\n        /* \"#utility.yul\":8614:8615   */\n      0x04\n        /* \"#utility.yul\":8607:8622   */\n      mstore\n        /* \"#utility.yul\":8641:8645   */\n      0x24\n        /* \"#utility.yul\":8638:8639   */\n      0x00\n        /* \"#utility.yul\":8631:8646   */\n      revert\n        /* \"#utility.yul\":8658:8852   */\n    tag_74:\n        /* \"#utility.yul\":8698:8702   */\n      0x00\n        /* \"#utility.yul\":8718:8738   */\n      tag_214\n        /* \"#utility.yul\":8736:8737   */\n      dup3\n        /* \"#utility.yul\":8718:8738   */\n      tag_109\n      jump\t// in\n    tag_214:\n        /* \"#utility.yul\":8713:8738   */\n      swap2\n      pop\n        /* \"#utility.yul\":8752:8772   */\n      tag_215\n        /* \"#utility.yul\":8770:8771   */\n      dup4\n        /* \"#utility.yul\":8752:8772   */\n      tag_109\n      jump\t// in\n    tag_215:\n        /* \"#utility.yul\":8747:8772   */\n      swap3\n      pop\n        /* \"#utility.yul\":8796:8797   */\n      dup3\n        /* \"#utility.yul\":8793:8794   */\n      dup3\n        /* \"#utility.yul\":8789:8798   */\n      sub\n        /* \"#utility.yul\":8781:8798   */\n      swap1\n      pop\n        /* \"#utility.yul\":8820:8821   */\n      dup2\n        /* \"#utility.yul\":8814:8818   */\n      dup2\n        /* \"#utility.yul\":8811:8822   */\n      gt\n        /* \"#utility.yul\":8808:8845   */\n      iszero\n      tag_216\n      jumpi\n        /* \"#utility.yul\":8825:8843   */\n      tag_217\n      tag_122\n      jump\t// in\n    tag_217:\n        /* \"#utility.yul\":8808:8845   */\n    tag_216:\n        /* \"#utility.yul\":8658:8852   */\n      swap3\n      swap2\n      pop\n      pop\n      jump\t// out\n        /* \"#utility.yul\":8858:9049   */\n    tag_77:\n        /* \"#utility.yul\":8898:8901   */\n      0x00\n        /* \"#utility.yul\":8917:8937   */\n      tag_219\n        /* \"#utility.yul\":8935:8936   */\n      dup3\n        /* \"#utility.yul\":8917:8937   */\n      tag_109\n      jump\t// in\n    tag_219:\n        /* \"#utility.yul\":8912:8937   */\n      swap2\n      pop\n        /* \"#utility.yul\":8951:8971   */\n      tag_220\n        /* \"#utility.yul\":8969:8970   */\n      dup4\n        /* \"#utility.yul\":8951:8971   */\n      tag_109\n      jump\t// in\n    tag_220:\n        /* \"#utility.yul\":8946:8971   */\n      swap3\n      pop\n        /* \"#utility.yul\":8994:8995   */\n      dup3\n        /* \"#utility.yul\":8991:8992   */\n      dup3\n        /* \"#utility.yul\":8987:8996   */\n      add\n        /* \"#utility.yul\":8980:8996   */\n      swap1\n      pop\n        /* \"#utility.yul\":9015:9018   */\n      dup1\n        /* \"#utility.yul\":9012:9013   */\n      dup3\n        /* \"#utility.yul\":9009:9019   */\n      gt\n        /* \"#utility.yul\":9006:9042   */\n      iszero\n      tag_221\n      jumpi\n        /* \"#utility.yul\":9022:9040   */\n      tag_222\n      tag_122\n      jump\t// in\n    tag_222:\n        /* \"#utility.yul\":9006:9042   */\n    tag_221:\n        /* \"#utility.yul\":8858:9049   */\n      swap3\n      swap2\n      pop\n      pop\n      jump\t// out\n        /* \"#utility.yul\":9055:9277   */\n    tag_123:\n        /* \"#utility.yul\":9195:9229   */\n      0x45524332303a20696e73756666696369656e742062616c616e636520746f2062\n        /* \"#utility.yul\":9191:9192   */\n      0x00\n        /* \"#utility.yul\":9183:9189   */\n      dup3\n        /* \"#utility.yul\":9179:9193   */\n      add\n        /* \"#utility.yul\":9172:9230   */\n      mstore\n        /* \"#utility.yul\":9264:9269   */\n      0x75726e0000000000000000000000000000000000000000000000000000000000\n        /* \"#utility.yul\":9259:9261   */\n      0x20\n        /* \"#utility.yul\":9251:9257   */\n      dup3\n        /* \"#utility.yul\":9247:9262   */\n      add\n        /* \"#utility.yul\":9240:9270   */\n      mstore\n        /* \"#utility.yul\":9055:9277   */\n      pop\n      jump\t// out\n        /* \"#utility.yul\":9283:9649   */\n    tag_124:\n        /* \"#utility.yul\":9425:9428   */\n      0x00\n        /* \"#utility.yul\":9446:9513   */\n      tag_225\n        /* \"#utility.yul\":9510:9512   */\n      0x23\n        /* \"#utility.yul\":9505:9508   */\n      dup4\n        /* \"#utility.yul\":9446:9513   */\n      tag_98\n      jump\t// in\n    tag_225:\n        /* \"#utility.yul\":9439:9513   */\n      swap2\n      pop\n        /* \"#utility.yul\":9522:9615   */\n      tag_226\n        /* \"#utility.yul\":9611:9614   */\n      dup3\n        /* \"#utility.yul\":9522:9615   */\n      tag_123\n      jump\t// in\n    tag_226:\n        /* \"#utility.yul\":9640:9642   */\n      0x40\n        /* \"#utility.yul\":9635:9638   */\n      dup3\n        /* \"#utility.yul\":9631:9643   */\n      add\n        /* \"#utility.yul\":9624:9643   */\n      swap1\n      pop\n        /* \"#utility.yul\":9283:9649   */\n      swap2\n      swap1\n      pop\n      jump\t// out\n        /* \"#utility.yul\":9655:10074   */\n    tag_82:\n        /* \"#utility.yul\":9821:9825   */\n      0x00\n        /* \"#utility.yul\":9859:9861   */\n      0x20\n        /* \"#utility.yul\":9848:9857   */\n      dup3\n        /* \"#utility.yul\":9844:9862   */\n      add\n        /* \"#utility.yul\":9836:9862   */\n      swap1\n      pop\n        /* \"#utility.yul\":9908:9917   */\n      dup2\n        /* \"#utility.yul\":9902:9906   */\n      dup2\n        /* \"#utility.yul\":9898:9918   */\n      sub\n        /* \"#utility.yul\":9894:9895   */\n      0x00\n        /* \"#utility.yul\":9883:9892   */\n      dup4\n        /* \"#utility.yul\":9879:9896   */\n      add\n        /* \"#utility.yul\":9872:9919   */\n      mstore\n        /* \"#utility.yul\":9936:10067   */\n      tag_228\n        /* \"#utility.yul\":10062:10066   */\n      dup2\n        /* \"#utility.yul\":9936:10067   */\n      tag_124\n      jump\t// in\n    tag_228:\n        /* \"#utility.yul\":9928:10067   */\n      swap1\n      pop\n        /* \"#utility.yul\":9655:10074   */\n      swap2\n      swap1\n      pop\n      jump\t// out\n\n    auxdata: 0xa264697066735822122049b0e4e9474aa0bee192e75079e9dcb311cd760ae80fcb5f1132fe083fb5c08b64736f6c63430008120033\n}\n",
				"bytecode": {
					"linkReferences": {},
					"object": "60806040526012600560006101000a81548160ff021916908360ff1602179055503480156200002d57600080fd5b506040516200180a3803806200180a833981810160405281019062000053919062000382565b826003908162000064919062000667565b50816004908162000076919062000667565b50620000a381600560009054906101000a900460ff1660ff16600a0a62030d4002620000ac60201b60201c565b505050620007e6565b806000808473ffffffffffffffffffffffffffffffffffffffff1673ffffffffffffffffffffffffffffffffffffffff1681526020019081526020016000206000828254620000fc91906200077d565b9250508190555080600260008282546200011791906200077d565b925050819055508173ffffffffffffffffffffffffffffffffffffffff16600073ffffffffffffffffffffffffffffffffffffffff167fddf252ad1be2c89b69c2b068fc378daa952ba7f163c4a11628f55a4df523b3ef836040516200017e9190620007c9565b60405180910390a35050565b6000604051905090565b600080fd5b600080fd5b600080fd5b600080fd5b6000601f19601f8301169050919050565b7f4e487b7100000000000000000000000000000000000000000000000000000000600052604160045260246000fd5b620001f382620001a8565b810181811067ffffffffffffffff82111715620002155762000214620001b9565b5b80604052505050565b60006200022a6200018a565b9050620002388282620001e8565b919050565b600067ffffffffffffffff8211156200025b576200025a620001b9565b5b6200026682620001a8565b9050602081019050919050565b60005b838110156200029357808201518184015260208101905062000276565b60008484015250505050565b6000620002b6620002b0846200023d565b6200021e565b905082815260208101848484011115620002d557620002d4620001a3565b5b620002e284828562000273565b509392505050565b600082601f8301126200030257620003016200019e565b5b8151620003148482602086016200029f565b91505092915050565b600073ffffffffffffffffffffffffffffffffffffffff82169050919050565b60006200034a826200031d565b9050919050565b6200035c816200033d565b81146200036857600080fd5b50565b6000815190506200037c8162000351565b92915050565b6000806000606084860312156200039e576200039d62000194565b5b600084015167ffffffffffffffff811115620003bf57620003be62000199565b5b620003cd86828701620002ea565b935050602084015167ffffffffffffffff811115620003f157620003f062000199565b5b620003ff86828701620002ea565b925050604062000412868287016200036b565b9150509250925092565b600081519050919050565b7f4e487b7100000000000000000000000000000000000000000000000000000000600052602260045260246000fd5b600060028204905060018216806200046f57607f821691505b60208210810362000485576200048462000427565b5b50919050565b60008190508160005260206000209050919050565b60006020601f8301049050919050565b600082821b905092915050565b600060088302620004ef7fffffffffffffffffffffffffffffffffffffffffffffffffffffffffffffffff82620004b0565b620004fb8683620004b0565b95508019841693508086168417925050509392505050565b6000819050919050565b6000819050919050565b600062000548620005426200053c8462000513565b6200051d565b62000513565b9050919050565b6000819050919050565b620005648362000527565b6200057c62000573826200054f565b848454620004bd565b825550505050565b600090565b6200059362000584565b620005a081848462000559565b505050565b5b81811015620005c857620005bc60008262000589565b600181019050620005a6565b5050565b601f8211156200061757620005e1816200048b565b620005ec84620004a0565b81016020851015620005fc578190505b620006146200060b85620004a0565b830182620005a5565b50505b505050565b600082821c905092915050565b60006200063c600019846008026200061c565b1980831691505092915050565b600062000657838362000629565b9150826002028217905092915050565b62000672826200041c565b67ffffffffffffffff8111156200068e576200068d620001b9565b5b6200069a825462000456565b620006a7828285620005cc565b600060209050601f831160018114620006df5760008415620006ca578287015190505b620006d6858262000649565b86555062000746565b601f198416620006ef866200048b565b60005b828110156200071957848901518255600182019150602085019450602081019050620006f2565b8683101562000739578489015162000735601f89168262000629565b8355505b6001600288020188555050505b505050505050565b7f4e487b7100000000000000000000000000000000000000000000000000000000600052601160045260246000fd5b60006200078a8262000513565b9150620007978362000513565b9250828201905080821115620007b257620007b16200074e565b5b92915050565b620007c38162000513565b82525050565b6000602082019050620007e06000830184620007b8565b92915050565b61101480620007f66000396000f3fe608060405234801561001057600080fd5b506004361061009e5760003560e01c806342966c681161006657806342966c681461015d57806370a082311461017957806395d89b41146101a9578063a9059cbb146101c7578063dd62ed3e146101f75761009e565b806306fdde03146100a3578063095ea7b3146100c157806318160ddd146100f157806323b872dd1461010f578063313ce5671461013f575b600080fd5b6100ab610227565b6040516100b89190610afe565b60405180910390f35b6100db60048036038101906100d69190610bb9565b6102b5565b6040516100e89190610c14565b60405180910390f35b6100f96103a7565b6040516101069190610c3e565b60405180910390f35b61012960048036038101906101249190610c59565b6103ad565b6040516101369190610c14565b60405180910390f35b61014761069c565b6040516101549190610cc8565b60405180910390f35b61017760048036038101906101729190610ce3565b6106af565b005b610193600480360381019061018e9190610d10565b610807565b6040516101a09190610c3e565b60405180910390f35b6101b161081f565b6040516101be9190610afe565b60405180910390f35b6101e160048036038101906101dc9190610bb9565b6108ad565b6040516101ee9190610c14565b60405180910390f35b610211600480360381019061020c9190610d3d565b610a49565b60405161021e9190610c3e565b60405180910390f35b6003805461023490610dac565b80601f016020809104026020016040519081016040528092919081815260200182805461026090610dac565b80156102ad5780601f10610282576101008083540402835291602001916102ad565b820191906000526020600020905b81548152906001019060200180831161029057829003601f168201915b505050505081565b600081600160003373ffffffffffffffffffffffffffffffffffffffff1673ffffffffffffffffffffffffffffffffffffffff16815260200190815260200160002060008573ffffffffffffffffffffffffffffffffffffffff1673ffffffffffffffffffffffffffffffffffffffff168152602001908152602001600020819055508273ffffffffffffffffffffffffffffffffffffffff163373ffffffffffffffffffffffffffffffffffffffff167f8c5be1e5ebec7d5bd14f71427d1e84f3dd0314c0f7b2291e5b200ac8c7c3b925846040516103959190610c3e565b60405180910390a36001905092915050565b60025481565b6000816000808673ffffffffffffffffffffffffffffffffffffffff1673ffffffffffffffffffffffffffffffffffffffff168152602001908152602001600020541015610430576040517f08c379a000000000000000000000000000000000000000000000000000000000815260040161042790610e29565b60405180910390fd5b81600160008673ffffffffffffffffffffffffffffffffffffffff1673ffffffffffffffffffffffffffffffffffffffff16815260200190815260200160002060003373ffffffffffffffffffffffffffffffffffffffff1673ffffffffffffffffffffffffffffffffffffffff1681526020019081526020016000205410156104ef576040517f08c379a00000000000000000000000000000000000000000000000000000000081526004016104e690610e95565b60405180910390fd5b81600160008673ffffffffffffffffffffffffffffffffffffffff1673ffffffffffffffffffffffffffffffffffffffff16815260200190815260200160002060003373ffffffffffffffffffffffffffffffffffffffff1673ffffffffffffffffffffffffffffffffffffffff168152602001908152602001600020600082825461057b9190610ee4565b92505081905550816000808673ffffffffffffffffffffffffffffffffffffffff1673ffffffffffffffffffffffffffffffffffffffff16815260200190815260200160002060008282546105d09190610ee4565b92505081905550816000808573ffffffffffffffffffffffffffffffffffffffff1673ffffffffffffffffffffffffffffffffffffffff16815260200190815260200160002060008282546106259190610f18565b925050819055508273ffffffffffffffffffffffffffffffffffffffff168473ffffffffffffffffffffffffffffffffffffffff167fddf252ad1be2c89b69c2b068fc378daa952ba7f163c4a11628f55a4df523b3ef846040516106899190610c3e565b60405180910390a3600190509392505050565b600560009054906101000a900460ff1681565b806000803373ffffffffffffffffffffffffffffffffffffffff1673ffffffffffffffffffffffffffffffffffffffff168152602001908152602001600020541015610730576040517f08c379a000000000000000000000000000000000000000000000000000000000815260040161072790610fbe565b60405180910390fd5b806000803373ffffffffffffffffffffffffffffffffffffffff1673ffffffffffffffffffffffffffffffffffffffff168152602001908152602001600020600082825461077e9190610ee4565b9250508190555080600260008282546107979190610ee4565b92505081905550600073ffffffffffffffffffffffffffffffffffffffff163373ffffffffffffffffffffffffffffffffffffffff167fddf252ad1be2c89b69c2b068fc378daa952ba7f163c4a11628f55a4df523b3ef836040516107fc9190610c3e565b60405180910390a350565b60006020528060005260406000206000915090505481565b6004805461082c90610dac565b80601f016020809104026020016040519081016040528092919081815260200182805461085890610dac565b80156108a55780601f1061087a576101008083540402835291602001916108a5565b820191906000526020600020905b81548152906001019060200180831161088857829003601f168201915b505050505081565b6000816000803373ffffffffffffffffffffffffffffffffffffffff1673ffffffffffffffffffffffffffffffffffffffff168152602001908152602001600020541015610930576040517f08c379a000000000000000000000000000000000000000000000000000000000815260040161092790610e29565b60405180910390fd5b816000803373ffffffffffffffffffffffffffffffffffffffff1673ffffffffffffffffffffffffffffffffffffffff168152602001908152602001600020600082825461097e9190610ee4565b92505081905550816000808573ffffffffffffffffffffffffffffffffffffffff1673ffffffffffffffffffffffffffffffffffffffff16815260200190815260200160002060008282546109d39190610f18565b925050819055508273ffffffffffffffffffffffffffffffffffffffff163373ffffffffffffffffffffffffffffffffffffffff167fddf252ad1be2c89b69c2b068fc378daa952ba7f163c4a11628f55a4df523b3ef84604051610a379190610c3e565b60405180910390a36001905092915050565b6001602052816000526040600020602052806000526040600020600091509150505481565b600081519050919050565b600082825260208201905092915050565b60005b83811015610aa8578082015181840152602081019050610a8d565b60008484015250505050565b6000601f19601f8301169050919050565b6000610ad082610a6e565b610ada8185610a79565b9350610aea818560208601610a8a565b610af381610ab4565b840191505092915050565b60006020820190508181036000830152610b188184610ac5565b905092915050565b600080fd5b600073ffffffffffffffffffffffffffffffffffffffff82169050919050565b6000610b5082610b25565b9050919050565b610b6081610b45565b8114610b6b57600080fd5b50565b600081359050610b7d81610b57565b92915050565b6000819050919050565b610b9681610b83565b8114610ba157600080fd5b50565b600081359050610bb381610b8d565b92915050565b60008060408385031215610bd057610bcf610b20565b5b6000610bde85828601610b6e565b9250506020610bef85828601610ba4565b9150509250929050565b60008115159050919050565b610c0e81610bf9565b82525050565b6000602082019050610c296000830184610c05565b92915050565b610c3881610b83565b82525050565b6000602082019050610c536000830184610c2f565b92915050565b600080600060608486031215610c7257610c71610b20565b5b6000610c8086828701610b6e565b9350506020610c9186828701610b6e565b9250506040610ca286828701610ba4565b9150509250925092565b600060ff82169050919050565b610cc281610cac565b82525050565b6000602082019050610cdd6000830184610cb9565b92915050565b600060208284031215610cf957610cf8610b20565b5b6000610d0784828501610ba4565b91505092915050565b600060208284031215610d2657610d25610b20565b5b6000610d3484828501610b6e565b91505092915050565b60008060408385031215610d5457610d53610b20565b5b6000610d6285828601610b6e565b9250506020610d7385828601610b6e565b9150509250929050565b7f4e487b7100000000000000000000000000000000000000000000000000000000600052602260045260246000fd5b60006002820490506001821680610dc457607f821691505b602082108103610dd757610dd6610d7d565b5b50919050565b7f45524332303a20696e73756666696369656e742062616c616e63650000000000600082015250565b6000610e13601b83610a79565b9150610e1e82610ddd565b602082019050919050565b60006020820190508181036000830152610e4281610e06565b9050919050565b7f45524332303a20616c6c6f77616e636520746f6f206c6f770000000000000000600082015250565b6000610e7f601883610a79565b9150610e8a82610e49565b602082019050919050565b60006020820190508181036000830152610eae81610e72565b9050919050565b7f4e487b7100000000000000000000000000000000000000000000000000000000600052601160045260246000fd5b6000610eef82610b83565b9150610efa83610b83565b9250828203905081811115610f1257610f11610eb5565b5b92915050565b6000610f2382610b83565b9150610f2e83610b83565b9250828201905080821115610f4657610f45610eb5565b5b92915050565b7f45524332303a20696e73756666696369656e742062616c616e636520746f206260008201527f75726e0000000000000000000000000000000000000000000000000000000000602082015250565b6000610fa8602383610a79565b9150610fb382610f4c565b604082019050919050565b60006020820190508181036000830152610fd781610f9b565b905091905056fea264697066735822122049b0e4e9474aa0bee192e75079e9dcb311cd760ae80fcb5f1132fe083fb5c08b64736f6c63430008120033",
					"opcodes": "PUSH1 0x80 PUSH1 0x40 MSTORE PUSH1 0x12 PUSH1 0x5 PUSH1 0x0 PUSH2 0x100 EXP DUP2 SLOAD DUP2 PUSH1 0xFF MUL NOT AND SWAP1 DUP4 PUSH1 0xFF AND MUL OR SWAP1 SSTORE POP CALLVALUE DUP1 ISZERO PUSH3 0x2D JUMPI PUSH1 0x0 DUP1 REVERT JUMPDEST POP PUSH1 0x40 MLOAD PUSH3 0x180A CODESIZE SUB DUP1 PUSH3 0x180A DUP4 CODECOPY DUP2 DUP2 ADD PUSH1 0x40 MSTORE DUP2 ADD SWAP1 PUSH3 0x53 SWAP2 SWAP1 PUSH3 0x382 JUMP JUMPDEST DUP3 PUSH1 0x3 SWAP1 DUP2 PUSH3 0x64 SWAP2 SWAP1 PUSH3 0x667 JUMP JUMPDEST POP DUP2 PUSH1 0x4 SWAP1 DUP2 PUSH3 0x76 SWAP2 SWAP1 PUSH3 0x667 JUMP JUMPDEST POP PUSH3 0xA3 DUP2 PUSH1 0x5 PUSH1 0x0 SWAP1 SLOAD SWAP1 PUSH2 0x100 EXP SWAP1 DIV PUSH1 0xFF AND PUSH1 0xFF AND PUSH1 0xA EXP PUSH3 0x30D40 MUL PUSH3 0xAC PUSH1 0x20 SHL PUSH1 0x20 SHR JUMP JUMPDEST POP POP POP PUSH3 0x7E6 JUMP JUMPDEST DUP1 PUSH1 0x0 DUP1 DUP5 PUSH20 0xFFFFFFFFFFFFFFFFFFFFFFFFFFFFFFFFFFFFFFFF AND PUSH20 0xFFFFFFFFFFFFFFFFFFFFFFFFFFFFFFFFFFFFFFFF AND DUP2 MSTORE PUSH1 0x20 ADD SWAP1 DUP2 MSTORE PUSH1 0x20 ADD PUSH1 0x0 KECCAK256 PUSH1 0x0 DUP3 DUP3 SLOAD PUSH3 0xFC SWAP2 SWAP1 PUSH3 0x77D JUMP JUMPDEST SWAP3 POP POP DUP2 SWAP1 SSTORE POP DUP1 PUSH1 0x2 PUSH1 0x0 DUP3 DUP3 SLOAD PUSH3 0x117 SWAP2 SWAP1 PUSH3 0x77D JUMP JUMPDEST SWAP3 POP POP DUP2 SWAP1 SSTORE POP DUP2 PUSH20 0xFFFFFFFFFFFFFFFFFFFFFFFFFFFFFFFFFFFFFFFF AND PUSH1 0x0 PUSH20 0xFFFFFFFFFFFFFFFFFFFFFFFFFFFFFFFFFFFFFFFF AND PUSH32 0xDDF252AD1BE2C89B69C2B068FC378DAA952BA7F163C4A11628F55A4DF523B3EF DUP4 PUSH1 0x40 MLOAD PUSH3 0x17E SWAP2 SWAP1 PUSH3 0x7C9 JUMP JUMPDEST PUSH1 0x40 MLOAD DUP1 SWAP2 SUB SWAP1 LOG3 POP POP JUMP JUMPDEST PUSH1 0x0 PUSH1 0x40 MLOAD SWAP1 POP SWAP1 JUMP JUMPDEST PUSH1 0x0 DUP1 REVERT JUMPDEST PUSH1 0x0 DUP1 REVERT JUMPDEST PUSH1 0x0 DUP1 REVERT JUMPDEST PUSH1 0x0 DUP1 REVERT JUMPDEST PUSH1 0x0 PUSH1 0x1F NOT PUSH1 0x1F DUP4 ADD AND SWAP1 POP SWAP2 SWAP1 POP JUMP JUMPDEST PUSH32 0x4E487B7100000000000000000000000000000000000000000000000000000000 PUSH1 0x0 MSTORE PUSH1 0x41 PUSH1 0x4 MSTORE PUSH1 0x24 PUSH1 0x0 REVERT JUMPDEST PUSH3 0x1F3 DUP3 PUSH3 0x1A8 JUMP JUMPDEST DUP2 ADD DUP2 DUP2 LT PUSH8 0xFFFFFFFFFFFFFFFF DUP3 GT OR ISZERO PUSH3 0x215 JUMPI PUSH3 0x214 PUSH3 0x1B9 JUMP JUMPDEST JUMPDEST DUP1 PUSH1 0x40 MSTORE POP POP POP JUMP JUMPDEST PUSH1 0x0 PUSH3 0x22A PUSH3 0x18A JUMP JUMPDEST SWAP1 POP PUSH3 0x238 DUP3 DUP3 PUSH3 0x1E8 JUMP JUMPDEST SWAP2 SWAP1 POP JUMP JUMPDEST PUSH1 0x0 PUSH8 0xFFFFFFFFFFFFFFFF DUP3 GT ISZERO PUSH3 0x25B JUMPI PUSH3 0x25A PUSH3 0x1B9 JUMP JUMPDEST JUMPDEST PUSH3 0x266 DUP3 PUSH3 0x1A8 JUMP JUMPDEST SWAP1 POP PUSH1 0x20 DUP2 ADD SWAP1 POP SWAP2 SWAP1 POP JUMP JUMPDEST PUSH1 0x0 JUMPDEST DUP4 DUP2 LT ISZERO PUSH3 0x293 JUMPI DUP1 DUP3 ADD MLOAD DUP2 DUP5 ADD MSTORE PUSH1 0x20 DUP2 ADD SWAP1 POP PUSH3 0x276 JUMP JUMPDEST PUSH1 0x0 DUP5 DUP5 ADD MSTORE POP POP POP POP JUMP JUMPDEST PUSH1 0x0 PUSH3 0x2B6 PUSH3 0x2B0 DUP5 PUSH3 0x23D JUMP JUMPDEST PUSH3 0x21E JUMP JUMPDEST SWAP1 POP DUP3 DUP2 MSTORE PUSH1 0x20 DUP2 ADD DUP5 DUP5 DUP5 ADD GT ISZERO PUSH3 0x2D5 JUMPI PUSH3 0x2D4 PUSH3 0x1A3 JUMP JUMPDEST JUMPDEST PUSH3 0x2E2 DUP5 DUP3 DUP6 PUSH3 0x273 JUMP JUMPDEST POP SWAP4 SWAP3 POP POP POP JUMP JUMPDEST PUSH1 0x0 DUP3 PUSH1 0x1F DUP4 ADD SLT PUSH3 0x302 JUMPI PUSH3 0x301 PUSH3 0x19E JUMP JUMPDEST JUMPDEST DUP2 MLOAD PUSH3 0x314 DUP5 DUP3 PUSH1 0x20 DUP7 ADD PUSH3 0x29F JUMP JUMPDEST SWAP2 POP POP SWAP3 SWAP2 POP POP JUMP JUMPDEST PUSH1 0x0 PUSH20 0xFFFFFFFFFFFFFFFFFFFFFFFFFFFFFFFFFFFFFFFF DUP3 AND SWAP1 POP SWAP2 SWAP1 POP JUMP JUMPDEST PUSH1 0x0 PUSH3 0x34A DUP3 PUSH3 0x31D JUMP JUMPDEST SWAP1 POP SWAP2 SWAP1 POP JUMP JUMPDEST PUSH3 0x35C DUP2 PUSH3 0x33D JUMP JUMPDEST DUP2 EQ PUSH3 0x368 JUMPI PUSH1 0x0 DUP1 REVERT JUMPDEST POP JUMP JUMPDEST PUSH1 0x0 DUP2 MLOAD SWAP1 POP PUSH3 0x37C DUP2 PUSH3 0x351 JUMP JUMPDEST SWAP3 SWAP2 POP POP JUMP JUMPDEST PUSH1 0x0 DUP1 PUSH1 0x0 PUSH1 0x60 DUP5 DUP7 SUB SLT ISZERO PUSH3 0x39E JUMPI PUSH3 0x39D PUSH3 0x194 JUMP JUMPDEST JUMPDEST PUSH1 0x0 DUP5 ADD MLOAD PUSH8 0xFFFFFFFFFFFFFFFF DUP2 GT ISZERO PUSH3 0x3BF JUMPI PUSH3 0x3BE PUSH3 0x199 JUMP JUMPDEST JUMPDEST PUSH3 0x3CD DUP7 DUP3 DUP8 ADD PUSH3 0x2EA JUMP JUMPDEST SWAP4 POP POP PUSH1 0x20 DUP5 ADD MLOAD PUSH8 0xFFFFFFFFFFFFFFFF DUP2 GT ISZERO PUSH3 0x3F1 JUMPI PUSH3 0x3F0 PUSH3 0x199 JUMP JUMPDEST JUMPDEST PUSH3 0x3FF DUP7 DUP3 DUP8 ADD PUSH3 0x2EA JUMP JUMPDEST SWAP3 POP POP PUSH1 0x40 PUSH3 0x412 DUP7 DUP3 DUP8 ADD PUSH3 0x36B JUMP JUMPDEST SWAP2 POP POP SWAP3 POP SWAP3 POP SWAP3 JUMP JUMPDEST PUSH1 0x0 DUP2 MLOAD SWAP1 POP SWAP2 SWAP1 POP JUMP JUMPDEST PUSH32 0x4E487B7100000000000000000000000000000000000000000000000000000000 PUSH1 0x0 MSTORE PUSH1 0x22 PUSH1 0x4 MSTORE PUSH1 0x24 PUSH1 0x0 REVERT JUMPDEST PUSH1 0x0 PUSH1 0x2 DUP3 DIV SWAP1 POP PUSH1 0x1 DUP3 AND DUP1 PUSH3 0x46F JUMPI PUSH1 0x7F DUP3 AND SWAP2 POP JUMPDEST PUSH1 0x20 DUP3 LT DUP2 SUB PUSH3 0x485 JUMPI PUSH3 0x484 PUSH3 0x427 JUMP JUMPDEST JUMPDEST POP SWAP2 SWAP1 POP JUMP JUMPDEST PUSH1 0x0 DUP2 SWAP1 POP DUP2 PUSH1 0x0 MSTORE PUSH1 0x20 PUSH1 0x0 KECCAK256 SWAP1 POP SWAP2 SWAP1 POP JUMP JUMPDEST PUSH1 0x0 PUSH1 0x20 PUSH1 0x1F DUP4 ADD DIV SWAP1 POP SWAP2 SWAP1 POP JUMP JUMPDEST PUSH1 0x0 DUP3 DUP3 SHL SWAP1 POP SWAP3 SWAP2 POP POP JUMP JUMPDEST PUSH1 0x0 PUSH1 0x8 DUP4 MUL PUSH3 0x4EF PUSH32 0xFFFFFFFFFFFFFFFFFFFFFFFFFFFFFFFFFFFFFFFFFFFFFFFFFFFFFFFFFFFFFFFF DUP3 PUSH3 0x4B0 JUMP JUMPDEST PUSH3 0x4FB DUP7 DUP4 PUSH3 0x4B0 JUMP JUMPDEST SWAP6 POP DUP1 NOT DUP5 AND SWAP4 POP DUP1 DUP7 AND DUP5 OR SWAP3 POP POP POP SWAP4 SWAP3 POP POP POP JUMP JUMPDEST PUSH1 0x0 DUP2 SWAP1 POP SWAP2 SWAP1 POP JUMP JUMPDEST PUSH1 0x0 DUP2 SWAP1 POP SWAP2 SWAP1 POP JUMP JUMPDEST PUSH1 0x0 PUSH3 0x548 PUSH3 0x542 PUSH3 0x53C DUP5 PUSH3 0x513 JUMP JUMPDEST PUSH3 0x51D JUMP JUMPDEST PUSH3 0x513 JUMP JUMPDEST SWAP1 POP SWAP2 SWAP1 POP JUMP JUMPDEST PUSH1 0x0 DUP2 SWAP1 POP SWAP2 SWAP1 POP JUMP JUMPDEST PUSH3 0x564 DUP4 PUSH3 0x527 JUMP JUMPDEST PUSH3 0x57C PUSH3 0x573 DUP3 PUSH3 0x54F JUMP JUMPDEST DUP5 DUP5 SLOAD PUSH3 0x4BD JUMP JUMPDEST DUP3 SSTORE POP POP POP POP JUMP JUMPDEST PUSH1 0x0 SWAP1 JUMP JUMPDEST PUSH3 0x593 PUSH3 0x584 JUMP JUMPDEST PUSH3 0x5A0 DUP2 DUP5 DUP5 PUSH3 0x559 JUMP JUMPDEST POP POP POP JUMP JUMPDEST JUMPDEST DUP2 DUP2 LT ISZERO PUSH3 0x5C8 JUMPI PUSH3 0x5BC PUSH1 0x0 DUP3 PUSH3 0x589 JUMP JUMPDEST PUSH1 0x1 DUP2 ADD SWAP1 POP PUSH3 0x5A6 JUMP JUMPDEST POP POP JUMP JUMPDEST PUSH1 0x1F DUP3 GT ISZERO PUSH3 0x617 JUMPI PUSH3 0x5E1 DUP2 PUSH3 0x48B JUMP JUMPDEST PUSH3 0x5EC DUP5 PUSH3 0x4A0 JUMP JUMPDEST DUP2 ADD PUSH1 0x20 DUP6 LT ISZERO PUSH3 0x5FC JUMPI DUP2 SWAP1 POP JUMPDEST PUSH3 0x614 PUSH3 0x60B DUP6 PUSH3 0x4A0 JUMP JUMPDEST DUP4 ADD DUP3 PUSH3 0x5A5 JUMP JUMPDEST POP POP JUMPDEST POP POP POP JUMP JUMPDEST PUSH1 0x0 DUP3 DUP3 SHR SWAP1 POP SWAP3 SWAP2 POP POP JUMP JUMPDEST PUSH1 0x0 PUSH3 0x63C PUSH1 0x0 NOT DUP5 PUSH1 0x8 MUL PUSH3 0x61C JUMP JUMPDEST NOT DUP1 DUP4 AND SWAP2 POP POP SWAP3 SWAP2 POP POP JUMP JUMPDEST PUSH1 0x0 PUSH3 0x657 DUP4 DUP4 PUSH3 0x629 JUMP JUMPDEST SWAP2 POP DUP3 PUSH1 0x2 MUL DUP3 OR SWAP1 POP SWAP3 SWAP2 POP POP JUMP JUMPDEST PUSH3 0x672 DUP3 PUSH3 0x41C JUMP JUMPDEST PUSH8 0xFFFFFFFFFFFFFFFF DUP2 GT ISZERO PUSH3 0x68E JUMPI PUSH3 0x68D PUSH3 0x1B9 JUMP JUMPDEST JUMPDEST PUSH3 0x69A DUP3 SLOAD PUSH3 0x456 JUMP JUMPDEST PUSH3 0x6A7 DUP3 DUP3 DUP6 PUSH3 0x5CC JUMP JUMPDEST PUSH1 0x0 PUSH1 0x20 SWAP1 POP PUSH1 0x1F DUP4 GT PUSH1 0x1 DUP2 EQ PUSH3 0x6DF JUMPI PUSH1 0x0 DUP5 ISZERO PUSH3 0x6CA JUMPI DUP3 DUP8 ADD MLOAD SWAP1 POP JUMPDEST PUSH3 0x6D6 DUP6 DUP3 PUSH3 0x649 JUMP JUMPDEST DUP7 SSTORE POP PUSH3 0x746 JUMP JUMPDEST PUSH1 0x1F NOT DUP5 AND PUSH3 0x6EF DUP7 PUSH3 0x48B JUMP JUMPDEST PUSH1 0x0 JUMPDEST DUP3 DUP2 LT ISZERO PUSH3 0x719 JUMPI DUP5 DUP10 ADD MLOAD DUP3 SSTORE PUSH1 0x1 DUP3 ADD SWAP2 POP PUSH1 0x20 DUP6 ADD SWAP5 POP PUSH1 0x20 DUP2 ADD SWAP1 POP PUSH3 0x6F2 JUMP JUMPDEST DUP7 DUP4 LT ISZERO PUSH3 0x739 JUMPI DUP5 DUP10 ADD MLOAD PUSH3 0x735 PUSH1 0x1F DUP10 AND DUP3 PUSH3 0x629 JUMP JUMPDEST DUP4 SSTORE POP JUMPDEST PUSH1 0x1 PUSH1 0x2 DUP9 MUL ADD DUP9 SSTORE POP POP POP JUMPDEST POP POP POP POP POP POP JUMP JUMPDEST PUSH32 0x4E487B7100000000000000000000000000000000000000000000000000000000 PUSH1 0x0 MSTORE PUSH1 0x11 PUSH1 0x4 MSTORE PUSH1 0x24 PUSH1 0x0 REVERT JUMPDEST PUSH1 0x0 PUSH3 0x78A DUP3 PUSH3 0x513 JUMP JUMPDEST SWAP2 POP PUSH3 0x797 DUP4 PUSH3 0x513 JUMP JUMPDEST SWAP3 POP DUP3 DUP3 ADD SWAP1 POP DUP1 DUP3 GT ISZERO PUSH3 0x7B2 JUMPI PUSH3 0x7B1 PUSH3 0x74E JUMP JUMPDEST JUMPDEST SWAP3 SWAP2 POP POP JUMP JUMPDEST PUSH3 0x7C3 DUP2 PUSH3 0x513 JUMP JUMPDEST DUP3 MSTORE POP POP JUMP JUMPDEST PUSH1 0x0 PUSH1 0x20 DUP3 ADD SWAP1 POP PUSH3 0x7E0 PUSH1 0x0 DUP4 ADD DUP5 PUSH3 0x7B8 JUMP JUMPDEST SWAP3 SWAP2 POP POP JUMP JUMPDEST PUSH2 0x1014 DUP1 PUSH3 0x7F6 PUSH1 0x0 CODECOPY PUSH1 0x0 RETURN INVALID PUSH1 0x80 PUSH1 0x40 MSTORE CALLVALUE DUP1 ISZERO PUSH2 0x10 JUMPI PUSH1 0x0 DUP1 REVERT JUMPDEST POP PUSH1 0x4 CALLDATASIZE LT PUSH2 0x9E JUMPI PUSH1 0x0 CALLDATALOAD PUSH1 0xE0 SHR DUP1 PUSH4 0x42966C68 GT PUSH2 0x66 JUMPI DUP1 PUSH4 0x42966C68 EQ PUSH2 0x15D JUMPI DUP1 PUSH4 0x70A08231 EQ PUSH2 0x179 JUMPI DUP1 PUSH4 0x95D89B41 EQ PUSH2 0x1A9 JUMPI DUP1 PUSH4 0xA9059CBB EQ PUSH2 0x1C7 JUMPI DUP1 PUSH4 0xDD62ED3E EQ PUSH2 0x1F7 JUMPI PUSH2 0x9E JUMP JUMPDEST DUP1 PUSH4 0x6FDDE03 EQ PUSH2 0xA3 JUMPI DUP1 PUSH4 0x95EA7B3 EQ PUSH2 0xC1 JUMPI DUP1 PUSH4 0x18160DDD EQ PUSH2 0xF1 JUMPI DUP1 PUSH4 0x23B872DD EQ PUSH2 0x10F JUMPI DUP1 PUSH4 0x313CE567 EQ PUSH2 0x13F JUMPI JUMPDEST PUSH1 0x0 DUP1 REVERT JUMPDEST PUSH2 0xAB PUSH2 0x227 JUMP JUMPDEST PUSH1 0x40 MLOAD PUSH2 0xB8 SWAP2 SWAP1 PUSH2 0xAFE JUMP JUMPDEST PUSH1 0x40 MLOAD DUP1 SWAP2 SUB SWAP1 RETURN JUMPDEST PUSH2 0xDB PUSH1 0x4 DUP1 CALLDATASIZE SUB DUP2 ADD SWAP1 PUSH2 0xD6 SWAP2 SWAP1 PUSH2 0xBB9 JUMP JUMPDEST PUSH2 0x2B5 JUMP JUMPDEST PUSH1 0x40 MLOAD PUSH2 0xE8 SWAP2 SWAP1 PUSH2 0xC14 JUMP JUMPDEST PUSH1 0x40 MLOAD DUP1 SWAP2 SUB SWAP1 RETURN JUMPDEST PUSH2 0xF9 PUSH2 0x3A7 JUMP JUMPDEST PUSH1 0x40 MLOAD PUSH2 0x106 SWAP2 SWAP1 PUSH2 0xC3E JUMP JUMPDEST PUSH1 0x40 MLOAD DUP1 SWAP2 SUB SWAP1 RETURN JUMPDEST PUSH2 0x129 PUSH1 0x4 DUP1 CALLDATASIZE SUB DUP2 ADD SWAP1 PUSH2 0x124 SWAP2 SWAP1 PUSH2 0xC59 JUMP JUMPDEST PUSH2 0x3AD JUMP JUMPDEST PUSH1 0x40 MLOAD PUSH2 0x136 SWAP2 SWAP1 PUSH2 0xC14 JUMP JUMPDEST PUSH1 0x40 MLOAD DUP1 SWAP2 SUB SWAP1 RETURN JUMPDEST PUSH2 0x147 PUSH2 0x69C JUMP JUMPDEST PUSH1 0x40 MLOAD PUSH2 0x154 SWAP2 SWAP1 PUSH2 0xCC8 JUMP JUMPDEST PUSH1 0x40 MLOAD DUP1 SWAP2 SUB SWAP1 RETURN JUMPDEST PUSH2 0x177 PUSH1 0x4 DUP1 CALLDATASIZE SUB DUP2 ADD SWAP1 PUSH2 0x172 SWAP2 SWAP1 PUSH2 0xCE3 JUMP JUMPDEST PUSH2 0x6AF JUMP JUMPDEST STOP JUMPDEST PUSH2 0x193 PUSH1 0x4 DUP1 CALLDATASIZE SUB DUP2 ADD SWAP1 PUSH2 0x18E SWAP2 SWAP1 PUSH2 0xD10 JUMP JUMPDEST PUSH2 0x807 JUMP JUMPDEST PUSH1 0x40 MLOAD PUSH2 0x1A0 SWAP2 SWAP1 PUSH2 0xC3E JUMP JUMPDEST PUSH1 0x40 MLOAD DUP1 SWAP2 SUB SWAP1 RETURN JUMPDEST PUSH2 0x1B1 PUSH2 0x81F JUMP JUMPDEST PUSH1 0x40 MLOAD PUSH2 0x1BE SWAP2 SWAP1 PUSH2 0xAFE JUMP JUMPDEST PUSH1 0x40 MLOAD DUP1 SWAP2 SUB SWAP1 RETURN JUMPDEST PUSH2 0x1E1 PUSH1 0x4 DUP1 CALLDATASIZE SUB DUP2 ADD SWAP1 PUSH2 0x1DC SWAP2 SWAP1 PUSH2 0xBB9 JUMP JUMPDEST PUSH2 0x8AD JUMP JUMPDEST PUSH1 0x40 MLOAD PUSH2 0x1EE SWAP2 SWAP1 PUSH2 0xC14 JUMP JUMPDEST PUSH1 0x40 MLOAD DUP1 SWAP2 SUB SWAP1 RETURN JUMPDEST PUSH2 0x211 PUSH1 0x4 DUP1 CALLDATASIZE SUB DUP2 ADD SWAP1 PUSH2 0x20C SWAP2 SWAP1 PUSH2 0xD3D JUMP JUMPDEST PUSH2 0xA49 JUMP JUMPDEST PUSH1 0x40 MLOAD PUSH2 0x21E SWAP2 SWAP1 PUSH2 0xC3E JUMP JUMPDEST PUSH1 0x40 MLOAD DUP1 SWAP2 SUB SWAP1 RETURN JUMPDEST PUSH1 0x3 DUP1 SLOAD PUSH2 0x234 SWAP1 PUSH2 0xDAC JUMP JUMPDEST DUP1 PUSH1 0x1F ADD PUSH1 0x20 DUP1 SWAP2 DIV MUL PUSH1 0x20 ADD PUSH1 0x40 MLOAD SWAP1 DUP2 ADD PUSH1 0x40 MSTORE DUP1 SWAP3 SWAP2 SWAP1 DUP2 DUP2 MSTORE PUSH1 0x20 ADD DUP3 DUP1 SLOAD PUSH2 0x260 SWAP1 PUSH2 0xDAC JUMP JUMPDEST DUP1 ISZERO PUSH2 0x2AD JUMPI DUP1 PUSH1 0x1F LT PUSH2 0x282 JUMPI PUSH2 0x100 DUP1 DUP4 SLOAD DIV MUL DUP4 MSTORE SWAP2 PUSH1 0x20 ADD SWAP2 PUSH2 0x2AD JUMP JUMPDEST DUP3 ADD SWAP2 SWAP1 PUSH1 0x0 MSTORE PUSH1 0x20 PUSH1 0x0 KECCAK256 SWAP1 JUMPDEST DUP2 SLOAD DUP2 MSTORE SWAP1 PUSH1 0x1 ADD SWAP1 PUSH1 0x20 ADD DUP1 DUP4 GT PUSH2 0x290 JUMPI DUP3 SWAP1 SUB PUSH1 0x1F AND DUP3 ADD SWAP2 JUMPDEST POP POP POP POP POP DUP2 JUMP JUMPDEST PUSH1 0x0 DUP2 PUSH1 0x1 PUSH1 0x0 CALLER PUSH20 0xFFFFFFFFFFFFFFFFFFFFFFFFFFFFFFFFFFFFFFFF AND PUSH20 0xFFFFFFFFFFFFFFFFFFFFFFFFFFFFFFFFFFFFFFFF AND DUP2 MSTORE PUSH1 0x20 ADD SWAP1 DUP2 MSTORE PUSH1 0x20 ADD PUSH1 0x0 KECCAK256 PUSH1 0x0 DUP6 PUSH20 0xFFFFFFFFFFFFFFFFFFFFFFFFFFFFFFFFFFFFFFFF AND PUSH20 0xFFFFFFFFFFFFFFFFFFFFFFFFFFFFFFFFFFFFFFFF AND DUP2 MSTORE PUSH1 0x20 ADD SWAP1 DUP2 MSTORE PUSH1 0x20 ADD PUSH1 0x0 KECCAK256 DUP2 SWAP1 SSTORE POP DUP3 PUSH20 0xFFFFFFFFFFFFFFFFFFFFFFFFFFFFFFFFFFFFFFFF AND CALLER PUSH20 0xFFFFFFFFFFFFFFFFFFFFFFFFFFFFFFFFFFFFFFFF AND PUSH32 0x8C5BE1E5EBEC7D5BD14F71427D1E84F3DD0314C0F7B2291E5B200AC8C7C3B925 DUP5 PUSH1 0x40 MLOAD PUSH2 0x395 SWAP2 SWAP1 PUSH2 0xC3E JUMP JUMPDEST PUSH1 0x40 MLOAD DUP1 SWAP2 SUB SWAP1 LOG3 PUSH1 0x1 SWAP1 POP SWAP3 SWAP2 POP POP JUMP JUMPDEST PUSH1 0x2 SLOAD DUP2 JUMP JUMPDEST PUSH1 0x0 DUP2 PUSH1 0x0 DUP1 DUP7 PUSH20 0xFFFFFFFFFFFFFFFFFFFFFFFFFFFFFFFFFFFFFFFF AND PUSH20 0xFFFFFFFFFFFFFFFFFFFFFFFFFFFFFFFFFFFFFFFF AND DUP2 MSTORE PUSH1 0x20 ADD SWAP1 DUP2 MSTORE PUSH1 0x20 ADD PUSH1 0x0 KECCAK256 SLOAD LT ISZERO PUSH2 0x430 JUMPI PUSH1 0x40 MLOAD PUSH32 0x8C379A000000000000000000000000000000000000000000000000000000000 DUP2 MSTORE PUSH1 0x4 ADD PUSH2 0x427 SWAP1 PUSH2 0xE29 JUMP JUMPDEST PUSH1 0x40 MLOAD DUP1 SWAP2 SUB SWAP1 REVERT JUMPDEST DUP2 PUSH1 0x1 PUSH1 0x0 DUP7 PUSH20 0xFFFFFFFFFFFFFFFFFFFFFFFFFFFFFFFFFFFFFFFF AND PUSH20 0xFFFFFFFFFFFFFFFFFFFFFFFFFFFFFFFFFFFFFFFF AND DUP2 MSTORE PUSH1 0x20 ADD SWAP1 DUP2 MSTORE PUSH1 0x20 ADD PUSH1 0x0 KECCAK256 PUSH1 0x0 CALLER PUSH20 0xFFFFFFFFFFFFFFFFFFFFFFFFFFFFFFFFFFFFFFFF AND PUSH20 0xFFFFFFFFFFFFFFFFFFFFFFFFFFFFFFFFFFFFFFFF AND DUP2 MSTORE PUSH1 0x20 ADD SWAP1 DUP2 MSTORE PUSH1 0x20 ADD PUSH1 0x0 KECCAK256 SLOAD LT ISZERO PUSH2 0x4EF JUMPI PUSH1 0x40 MLOAD PUSH32 0x8C379A000000000000000000000000000000000000000000000000000000000 DUP2 MSTORE PUSH1 0x4 ADD PUSH2 0x4E6 SWAP1 PUSH2 0xE95 JUMP JUMPDEST PUSH1 0x40 MLOAD DUP1 SWAP2 SUB SWAP1 REVERT JUMPDEST DUP2 PUSH1 0x1 PUSH1 0x0 DUP7 PUSH20 0xFFFFFFFFFFFFFFFFFFFFFFFFFFFFFFFFFFFFFFFF AND PUSH20 0xFFFFFFFFFFFFFFFFFFFFFFFFFFFFFFFFFFFFFFFF AND DUP2 MSTORE PUSH1 0x20 ADD SWAP1 DUP2 MSTORE PUSH1 0x20 ADD PUSH1 0x0 KECCAK256 PUSH1 0x0 CALLER PUSH20 0xFFFFFFFFFFFFFFFFFFFFFFFFFFFFFFFFFFFFFFFF AND PUSH20 0xFFFFFFFFFFFFFFFFFFFFFFFFFFFFFFFFFFFFFFFF AND DUP2 MSTORE PUSH1 0x20 ADD SWAP1 DUP2 MSTORE PUSH1 0x20 ADD PUSH1 0x0 KECCAK256 PUSH1 0x0 DUP3 DUP3 SLOAD PUSH2 0x57B SWAP2 SWAP1 PUSH2 0xEE4 JUMP JUMPDEST SWAP3 POP POP DUP2 SWAP1 SSTORE POP DUP2 PUSH1 0x0 DUP1 DUP7 PUSH20 0xFFFFFFFFFFFFFFFFFFFFFFFFFFFFFFFFFFFFFFFF AND PUSH20 0xFFFFFFFFFFFFFFFFFFFFFFFFFFFFFFFFFFFFFFFF AND DUP2 MSTORE PUSH1 0x20 ADD SWAP1 DUP2 MSTORE PUSH1 0x20 ADD PUSH1 0x0 KECCAK256 PUSH1 0x0 DUP3 DUP3 SLOAD PUSH2 0x5D0 SWAP2 SWAP1 PUSH2 0xEE4 JUMP JUMPDEST SWAP3 POP POP DUP2 SWAP1 SSTORE POP DUP2 PUSH1 0x0 DUP1 DUP6 PUSH20 0xFFFFFFFFFFFFFFFFFFFFFFFFFFFFFFFFFFFFFFFF AND PUSH20 0xFFFFFFFFFFFFFFFFFFFFFFFFFFFFFFFFFFFFFFFF AND DUP2 MSTORE PUSH1 0x20 ADD SWAP1 DUP2 MSTORE PUSH1 0x20 ADD PUSH1 0x0 KECCAK256 PUSH1 0x0 DUP3 DUP3 SLOAD PUSH2 0x625 SWAP2 SWAP1 PUSH2 0xF18 JUMP JUMPDEST SWAP3 POP POP DUP2 SWAP1 SSTORE POP DUP3 PUSH20 0xFFFFFFFFFFFFFFFFFFFFFFFFFFFFFFFFFFFFFFFF AND DUP5 PUSH20 0xFFFFFFFFFFFFFFFFFFFFFFFFFFFFFFFFFFFFFFFF AND PUSH32 0xDDF252AD1BE2C89B69C2B068FC378DAA952BA7F163C4A11628F55A4DF523B3EF DUP5 PUSH1 0x40 MLOAD PUSH2 0x689 SWAP2 SWAP1 PUSH2 0xC3E JUMP JUMPDEST PUSH1 0x40 MLOAD DUP1 SWAP2 SUB SWAP1 LOG3 PUSH1 0x1 SWAP1 POP SWAP4 SWAP3 POP POP POP JUMP JUMPDEST PUSH1 0x5 PUSH1 0x0 SWAP1 SLOAD SWAP1 PUSH2 0x100 EXP SWAP1 DIV PUSH1 0xFF AND DUP2 JUMP JUMPDEST DUP1 PUSH1 0x0 DUP1 CALLER PUSH20 0xFFFFFFFFFFFFFFFFFFFFFFFFFFFFFFFFFFFFFFFF AND PUSH20 0xFFFFFFFFFFFFFFFFFFFFFFFFFFFFFFFFFFFFFFFF AND DUP2 MSTORE PUSH1 0x20 ADD SWAP1 DUP2 MSTORE PUSH1 0x20 ADD PUSH1 0x0 KECCAK256 SLOAD LT ISZERO PUSH2 0x730 JUMPI PUSH1 0x40 MLOAD PUSH32 0x8C379A000000000000000000000000000000000000000000000000000000000 DUP2 MSTORE PUSH1 0x4 ADD PUSH2 0x727 SWAP1 PUSH2 0xFBE JUMP JUMPDEST PUSH1 0x40 MLOAD DUP1 SWAP2 SUB SWAP1 REVERT JUMPDEST DUP1 PUSH1 0x0 DUP1 CALLER PUSH20 0xFFFFFFFFFFFFFFFFFFFFFFFFFFFFFFFFFFFFFFFF AND PUSH20 0xFFFFFFFFFFFFFFFFFFFFFFFFFFFFFFFFFFFFFFFF AND DUP2 MSTORE PUSH1 0x20 ADD SWAP1 DUP2 MSTORE PUSH1 0x20 ADD PUSH1 0x0 KECCAK256 PUSH1 0x0 DUP3 DUP3 SLOAD PUSH2 0x77E SWAP2 SWAP1 PUSH2 0xEE4 JUMP JUMPDEST SWAP3 POP POP DUP2 SWAP1 SSTORE POP DUP1 PUSH1 0x2 PUSH1 0x0 DUP3 DUP3 SLOAD PUSH2 0x797 SWAP2 SWAP1 PUSH2 0xEE4 JUMP JUMPDEST SWAP3 POP POP DUP2 SWAP1 SSTORE POP PUSH1 0x0 PUSH20 0xFFFFFFFFFFFFFFFFFFFFFFFFFFFFFFFFFFFFFFFF AND CALLER PUSH20 0xFFFFFFFFFFFFFFFFFFFFFFFFFFFFFFFFFFFFFFFF AND PUSH32 0xDDF252AD1BE2C89B69C2B068FC378DAA952BA7F163C4A11628F55A4DF523B3EF DUP4 PUSH1 0x40 MLOAD PUSH2 0x7FC SWAP2 SWAP1 PUSH2 0xC3E JUMP JUMPDEST PUSH1 0x40 MLOAD DUP1 SWAP2 SUB SWAP1 LOG3 POP JUMP JUMPDEST PUSH1 0x0 PUSH1 0x20 MSTORE DUP1 PUSH1 0x0 MSTORE PUSH1 0x40 PUSH1 0x0 KECCAK256 PUSH1 0x0 SWAP2 POP SWAP1 POP SLOAD DUP2 JUMP JUMPDEST PUSH1 0x4 DUP1 SLOAD PUSH2 0x82C SWAP1 PUSH2 0xDAC JUMP JUMPDEST DUP1 PUSH1 0x1F ADD PUSH1 0x20 DUP1 SWAP2 DIV MUL PUSH1 0x20 ADD PUSH1 0x40 MLOAD SWAP1 DUP2 ADD PUSH1 0x40 MSTORE DUP1 SWAP3 SWAP2 SWAP1 DUP2 DUP2 MSTORE PUSH1 0x20 ADD DUP3 DUP1 SLOAD PUSH2 0x858 SWAP1 PUSH2 0xDAC JUMP JUMPDEST DUP1 ISZERO PUSH2 0x8A5 JUMPI DUP1 PUSH1 0x1F LT PUSH2 0x87A JUMPI PUSH2 0x100 DUP1 DUP4 SLOAD DIV MUL DUP4 MSTORE SWAP2 PUSH1 0x20 ADD SWAP2 PUSH2 0x8A5 JUMP JUMPDEST DUP3 ADD SWAP2 SWAP1 PUSH1 0x0 MSTORE PUSH1 0x20 PUSH1 0x0 KECCAK256 SWAP1 JUMPDEST DUP2 SLOAD DUP2 MSTORE SWAP1 PUSH1 0x1 ADD SWAP1 PUSH1 0x20 ADD DUP1 DUP4 GT PUSH2 0x888 JUMPI DUP3 SWAP1 SUB PUSH1 0x1F AND DUP3 ADD SWAP2 JUMPDEST POP POP POP POP POP DUP2 JUMP JUMPDEST PUSH1 0x0 DUP2 PUSH1 0x0 DUP1 CALLER PUSH20 0xFFFFFFFFFFFFFFFFFFFFFFFFFFFFFFFFFFFFFFFF AND PUSH20 0xFFFFFFFFFFFFFFFFFFFFFFFFFFFFFFFFFFFFFFFF AND DUP2 MSTORE PUSH1 0x20 ADD SWAP1 DUP2 MSTORE PUSH1 0x20 ADD PUSH1 0x0 KECCAK256 SLOAD LT ISZERO PUSH2 0x930 JUMPI PUSH1 0x40 MLOAD PUSH32 0x8C379A000000000000000000000000000000000000000000000000000000000 DUP2 MSTORE PUSH1 0x4 ADD PUSH2 0x927 SWAP1 PUSH2 0xE29 JUMP JUMPDEST PUSH1 0x40 MLOAD DUP1 SWAP2 SUB SWAP1 REVERT JUMPDEST DUP2 PUSH1 0x0 DUP1 CALLER PUSH20 0xFFFFFFFFFFFFFFFFFFFFFFFFFFFFFFFFFFFFFFFF AND PUSH20 0xFFFFFFFFFFFFFFFFFFFFFFFFFFFFFFFFFFFFFFFF AND DUP2 MSTORE PUSH1 0x20 ADD SWAP1 DUP2 MSTORE PUSH1 0x20 ADD PUSH1 0x0 KECCAK256 PUSH1 0x0 DUP3 DUP3 SLOAD PUSH2 0x97E SWAP2 SWAP1 PUSH2 0xEE4 JUMP JUMPDEST SWAP3 POP POP DUP2 SWAP1 SSTORE POP DUP2 PUSH1 0x0 DUP1 DUP6 PUSH20 0xFFFFFFFFFFFFFFFFFFFFFFFFFFFFFFFFFFFFFFFF AND PUSH20 0xFFFFFFFFFFFFFFFFFFFFFFFFFFFFFFFFFFFFFFFF AND DUP2 MSTORE PUSH1 0x20 ADD SWAP1 DUP2 MSTORE PUSH1 0x20 ADD PUSH1 0x0 KECCAK256 PUSH1 0x0 DUP3 DUP3 SLOAD PUSH2 0x9D3 SWAP2 SWAP1 PUSH2 0xF18 JUMP JUMPDEST SWAP3 POP POP DUP2 SWAP1 SSTORE POP DUP3 PUSH20 0xFFFFFFFFFFFFFFFFFFFFFFFFFFFFFFFFFFFFFFFF AND CALLER PUSH20 0xFFFFFFFFFFFFFFFFFFFFFFFFFFFFFFFFFFFFFFFF AND PUSH32 0xDDF252AD1BE2C89B69C2B068FC378DAA952BA7F163C4A11628F55A4DF523B3EF DUP5 PUSH1 0x40 MLOAD PUSH2 0xA37 SWAP2 SWAP1 PUSH2 0xC3E JUMP JUMPDEST PUSH1 0x40 MLOAD DUP1 SWAP2 SUB SWAP1 LOG3 PUSH1 0x1 SWAP1 POP SWAP3 SWAP2 POP POP JUMP JUMPDEST PUSH1 0x1 PUSH1 0x20 MSTORE DUP2 PUSH1 0x0 MSTORE PUSH1 0x40 PUSH1 0x0 KECCAK256 PUSH1 0x20 MSTORE DUP1 PUSH1 0x0 MSTORE PUSH1 0x40 PUSH1 0x0 KECCAK256 PUSH1 0x0 SWAP2 POP SWAP2 POP POP SLOAD DUP2 JUMP JUMPDEST PUSH1 0x0 DUP2 MLOAD SWAP1 POP SWAP2 SWAP1 POP JUMP JUMPDEST PUSH1 0x0 DUP3 DUP3 MSTORE PUSH1 0x20 DUP3 ADD SWAP1 POP SWAP3 SWAP2 POP POP JUMP JUMPDEST PUSH1 0x0 JUMPDEST DUP4 DUP2 LT ISZERO PUSH2 0xAA8 JUMPI DUP1 DUP3 ADD MLOAD DUP2 DUP5 ADD MSTORE PUSH1 0x20 DUP2 ADD SWAP1 POP PUSH2 0xA8D JUMP JUMPDEST PUSH1 0x0 DUP5 DUP5 ADD MSTORE POP POP POP POP JUMP JUMPDEST PUSH1 0x0 PUSH1 0x1F NOT PUSH1 0x1F DUP4 ADD AND SWAP1 POP SWAP2 SWAP1 POP JUMP JUMPDEST PUSH1 0x0 PUSH2 0xAD0 DUP3 PUSH2 0xA6E JUMP JUMPDEST PUSH2 0xADA DUP2 DUP6 PUSH2 0xA79 JUMP JUMPDEST SWAP4 POP PUSH2 0xAEA DUP2 DUP6 PUSH1 0x20 DUP7 ADD PUSH2 0xA8A JUMP JUMPDEST PUSH2 0xAF3 DUP2 PUSH2 0xAB4 JUMP JUMPDEST DUP5 ADD SWAP2 POP POP SWAP3 SWAP2 POP POP JUMP JUMPDEST PUSH1 0x0 PUSH1 0x20 DUP3 ADD SWAP1 POP DUP2 DUP2 SUB PUSH1 0x0 DUP4 ADD MSTORE PUSH2 0xB18 DUP2 DUP5 PUSH2 0xAC5 JUMP JUMPDEST SWAP1 POP SWAP3 SWAP2 POP POP JUMP JUMPDEST PUSH1 0x0 DUP1 REVERT JUMPDEST PUSH1 0x0 PUSH20 0xFFFFFFFFFFFFFFFFFFFFFFFFFFFFFFFFFFFFFFFF DUP3 AND SWAP1 POP SWAP2 SWAP1 POP JUMP JUMPDEST PUSH1 0x0 PUSH2 0xB50 DUP3 PUSH2 0xB25 JUMP JUMPDEST SWAP1 POP SWAP2 SWAP1 POP JUMP JUMPDEST PUSH2 0xB60 DUP2 PUSH2 0xB45 JUMP JUMPDEST DUP2 EQ PUSH2 0xB6B JUMPI PUSH1 0x0 DUP1 REVERT JUMPDEST POP JUMP JUMPDEST PUSH1 0x0 DUP2 CALLDATALOAD SWAP1 POP PUSH2 0xB7D DUP2 PUSH2 0xB57 JUMP JUMPDEST SWAP3 SWAP2 POP POP JUMP JUMPDEST PUSH1 0x0 DUP2 SWAP1 POP SWAP2 SWAP1 POP JUMP JUMPDEST PUSH2 0xB96 DUP2 PUSH2 0xB83 JUMP JUMPDEST DUP2 EQ PUSH2 0xBA1 JUMPI PUSH1 0x0 DUP1 REVERT JUMPDEST POP JUMP JUMPDEST PUSH1 0x0 DUP2 CALLDATALOAD SWAP1 POP PUSH2 0xBB3 DUP2 PUSH2 0xB8D JUMP JUMPDEST SWAP3 SWAP2 POP POP JUMP JUMPDEST PUSH1 0x0 DUP1 PUSH1 0x40 DUP4 DUP6 SUB SLT ISZERO PUSH2 0xBD0 JUMPI PUSH2 0xBCF PUSH2 0xB20 JUMP JUMPDEST JUMPDEST PUSH1 0x0 PUSH2 0xBDE DUP6 DUP3 DUP7 ADD PUSH2 0xB6E JUMP JUMPDEST SWAP3 POP POP PUSH1 0x20 PUSH2 0xBEF DUP6 DUP3 DUP7 ADD PUSH2 0xBA4 JUMP JUMPDEST SWAP2 POP POP SWAP3 POP SWAP3 SWAP1 POP JUMP JUMPDEST PUSH1 0x0 DUP2 ISZERO ISZERO SWAP1 POP SWAP2 SWAP1 POP JUMP JUMPDEST PUSH2 0xC0E DUP2 PUSH2 0xBF9 JUMP JUMPDEST DUP3 MSTORE POP POP JUMP JUMPDEST PUSH1 0x0 PUSH1 0x20 DUP3 ADD SWAP1 POP PUSH2 0xC29 PUSH1 0x0 DUP4 ADD DUP5 PUSH2 0xC05 JUMP JUMPDEST SWAP3 SWAP2 POP POP JUMP JUMPDEST PUSH2 0xC38 DUP2 PUSH2 0xB83 JUMP JUMPDEST DUP3 MSTORE POP POP JUMP JUMPDEST PUSH1 0x0 PUSH1 0x20 DUP3 ADD SWAP1 POP PUSH2 0xC53 PUSH1 0x0 DUP4 ADD DUP5 PUSH2 0xC2F JUMP JUMPDEST SWAP3 SWAP2 POP POP JUMP JUMPDEST PUSH1 0x0 DUP1 PUSH1 0x0 PUSH1 0x60 DUP5 DUP7 SUB SLT ISZERO PUSH2 0xC72 JUMPI PUSH2 0xC71 PUSH2 0xB20 JUMP JUMPDEST JUMPDEST PUSH1 0x0 PUSH2 0xC80 DUP7 DUP3 DUP8 ADD PUSH2 0xB6E JUMP JUMPDEST SWAP4 POP POP PUSH1 0x20 PUSH2 0xC91 DUP7 DUP3 DUP8 ADD PUSH2 0xB6E JUMP JUMPDEST SWAP3 POP POP PUSH1 0x40 PUSH2 0xCA2 DUP7 DUP3 DUP8 ADD PUSH2 0xBA4 JUMP JUMPDEST SWAP2 POP POP SWAP3 POP SWAP3 POP SWAP3 JUMP JUMPDEST PUSH1 0x0 PUSH1 0xFF DUP3 AND SWAP1 POP SWAP2 SWAP1 POP JUMP JUMPDEST PUSH2 0xCC2 DUP2 PUSH2 0xCAC JUMP JUMPDEST DUP3 MSTORE POP POP JUMP JUMPDEST PUSH1 0x0 PUSH1 0x20 DUP3 ADD SWAP1 POP PUSH2 0xCDD PUSH1 0x0 DUP4 ADD DUP5 PUSH2 0xCB9 JUMP JUMPDEST SWAP3 SWAP2 POP POP JUMP JUMPDEST PUSH1 0x0 PUSH1 0x20 DUP3 DUP5 SUB SLT ISZERO PUSH2 0xCF9 JUMPI PUSH2 0xCF8 PUSH2 0xB20 JUMP JUMPDEST JUMPDEST PUSH1 0x0 PUSH2 0xD07 DUP5 DUP3 DUP6 ADD PUSH2 0xBA4 JUMP JUMPDEST SWAP2 POP POP SWAP3 SWAP2 POP POP JUMP JUMPDEST PUSH1 0x0 PUSH1 0x20 DUP3 DUP5 SUB SLT ISZERO PUSH2 0xD26 JUMPI PUSH2 0xD25 PUSH2 0xB20 JUMP JUMPDEST JUMPDEST PUSH1 0x0 PUSH2 0xD34 DUP5 DUP3 DUP6 ADD PUSH2 0xB6E JUMP JUMPDEST SWAP2 POP POP SWAP3 SWAP2 POP POP JUMP JUMPDEST PUSH1 0x0 DUP1 PUSH1 0x40 DUP4 DUP6 SUB SLT ISZERO PUSH2 0xD54 JUMPI PUSH2 0xD53 PUSH2 0xB20 JUMP JUMPDEST JUMPDEST PUSH1 0x0 PUSH2 0xD62 DUP6 DUP3 DUP7 ADD PUSH2 0xB6E JUMP JUMPDEST SWAP3 POP POP PUSH1 0x20 PUSH2 0xD73 DUP6 DUP3 DUP7 ADD PUSH2 0xB6E JUMP JUMPDEST SWAP2 POP POP SWAP3 POP SWAP3 SWAP1 POP JUMP JUMPDEST PUSH32 0x4E487B7100000000000000000000000000000000000000000000000000000000 PUSH1 0x0 MSTORE PUSH1 0x22 PUSH1 0x4 MSTORE PUSH1 0x24 PUSH1 0x0 REVERT JUMPDEST PUSH1 0x0 PUSH1 0x2 DUP3 DIV SWAP1 POP PUSH1 0x1 DUP3 AND DUP1 PUSH2 0xDC4 JUMPI PUSH1 0x7F DUP3 AND SWAP2 POP JUMPDEST PUSH1 0x20 DUP3 LT DUP2 SUB PUSH2 0xDD7 JUMPI PUSH2 0xDD6 PUSH2 0xD7D JUMP JUMPDEST JUMPDEST POP SWAP2 SWAP1 POP JUMP JUMPDEST PUSH32 0x45524332303A20696E73756666696369656E742062616C616E63650000000000 PUSH1 0x0 DUP3 ADD MSTORE POP JUMP JUMPDEST PUSH1 0x0 PUSH2 0xE13 PUSH1 0x1B DUP4 PUSH2 0xA79 JUMP JUMPDEST SWAP2 POP PUSH2 0xE1E DUP3 PUSH2 0xDDD JUMP JUMPDEST PUSH1 0x20 DUP3 ADD SWAP1 POP SWAP2 SWAP1 POP JUMP JUMPDEST PUSH1 0x0 PUSH1 0x20 DUP3 ADD SWAP1 POP DUP2 DUP2 SUB PUSH1 0x0 DUP4 ADD MSTORE PUSH2 0xE42 DUP2 PUSH2 0xE06 JUMP JUMPDEST SWAP1 POP SWAP2 SWAP1 POP JUMP JUMPDEST PUSH32 0x45524332303A20616C6C6F77616E636520746F6F206C6F770000000000000000 PUSH1 0x0 DUP3 ADD MSTORE POP JUMP JUMPDEST PUSH1 0x0 PUSH2 0xE7F PUSH1 0x18 DUP4 PUSH2 0xA79 JUMP JUMPDEST SWAP2 POP PUSH2 0xE8A DUP3 PUSH2 0xE49 JUMP JUMPDEST PUSH1 0x20 DUP3 ADD SWAP1 POP SWAP2 SWAP1 POP JUMP JUMPDEST PUSH1 0x0 PUSH1 0x20 DUP3 ADD SWAP1 POP DUP2 DUP2 SUB PUSH1 0x0 DUP4 ADD MSTORE PUSH2 0xEAE DUP2 PUSH2 0xE72 JUMP JUMPDEST SWAP1 POP SWAP2 SWAP1 POP JUMP JUMPDEST PUSH32 0x4E487B7100000000000000000000000000000000000000000000000000000000 PUSH1 0x0 MSTORE PUSH1 0x11 PUSH1 0x4 MSTORE PUSH1 0x24 PUSH1 0x0 REVERT JUMPDEST PUSH1 0x0 PUSH2 0xEEF DUP3 PUSH2 0xB83 JUMP JUMPDEST SWAP2 POP PUSH2 0xEFA DUP4 PUSH2 0xB83 JUMP JUMPDEST SWAP3 POP DUP3 DUP3 SUB SWAP1 POP DUP2 DUP2 GT ISZERO PUSH2 0xF12 JUMPI PUSH2 0xF11 PUSH2 0xEB5 JUMP JUMPDEST JUMPDEST SWAP3 SWAP2 POP POP JUMP JUMPDEST PUSH1 0x0 PUSH2 0xF23 DUP3 PUSH2 0xB83 JUMP JUMPDEST SWAP2 POP PUSH2 0xF2E DUP4 PUSH2 0xB83 JUMP JUMPDEST SWAP3 POP DUP3 DUP3 ADD SWAP1 POP DUP1 DUP3 GT ISZERO PUSH2 0xF46 JUMPI PUSH2 0xF45 PUSH2 0xEB5 JUMP JUMPDEST JUMPDEST SWAP3 SWAP2 POP POP JUMP JUMPDEST PUSH32 0x45524332303A20696E73756666696369656E742062616C616E636520746F2062 PUSH1 0x0 DUP3 ADD MSTORE PUSH32 0x75726E0000000000000000000000000000000000000000000000000000000000 PUSH1 0x20 DUP3 ADD MSTORE POP JUMP JUMPDEST PUSH1 0x0 PUSH2 0xFA8 PUSH1 0x23 DUP4 PUSH2 0xA79 JUMP JUMPDEST SWAP2 POP PUSH2 0xFB3 DUP3 PUSH2 0xF4C JUMP JUMPDEST PUSH1 0x40 DUP3 ADD SWAP1 POP SWAP2 SWAP1 POP JUMP JUMPDEST PUSH1 0x0 PUSH1 0x20 DUP3 ADD SWAP1 POP DUP2 DUP2 SUB PUSH1 0x0 DUP4 ADD MSTORE PUSH2 0xFD7 DUP2 PUSH2 0xF9B JUMP JUMPDEST SWAP1 POP SWAP2 SWAP1 POP JUMP INVALID LOG2 PUSH5 0x6970667358 0x22 SLT KECCAK256 0x49 0xB0 0xE4 0xE9 SELFBALANCE 0x4A LOG0 0xBE 0xE1 SWAP3 0xE7 POP PUSH26 0xE9DCB311CD760AE80FCB5F1132FE083FB5C08B64736F6C634300 ADDMOD SLT STOP CALLER "
				},
				"gasEstimates": {
					"creation": {
						"codeDepositCost": "823200",
						"executionCost": "infinite",
						"totalCost": "infinite"
					},
					"external": {
						"allowance(address,address)": "infinite",
						"approve(address,uint256)": "infinite",
						"balanceOf(address)": "2836",
						"burn(uint256)": "infinite",
						"decimals()": "2560",
						"name()": "infinite",
						"symbol()": "infinite",
						"totalSupply()": "2474",
						"transfer(address,uint256)": "infinite",
						"transferFrom(address,address,uint256)": "infinite"
					},
					"internal": {
						"mint(address,uint256)": "infinite"
					}
				},
				"methodIdentifiers": {
					"allowance(address,address)": "dd62ed3e",
					"approve(address,uint256)": "095ea7b3",
					"balanceOf(address)": "70a08231",
					"burn(uint256)": "42966c68",
					"decimals()": "313ce567",
					"name()": "06fdde03",
					"symbol()": "95d89b41",
					"totalSupply()": "18160ddd",
					"transfer(address,uint256)": "a9059cbb",
					"transferFrom(address,address,uint256)": "23b872dd"
				}
			},
			"storageLayout": {
				"storage": [
					{
						"astId": 573,
						"contract": "contracts/base/ERC20.sol:ERC20",
						"label": "balanceOf",
						"offset": 0,
						"slot": "0",
						"type": "t_mapping(t_address,t_uint256)"
					},
					{
						"astId": 580,
						"contract": "contracts/base/ERC20.sol:ERC20",
						"label": "allowance",
						"offset": 0,
						"slot": "1",
						"type": "t_mapping(t_address,t_mapping(t_address,t_uint256))"
					},
					{
						"astId": 583,
						"contract": "contracts/base/ERC20.sol:ERC20",
						"label": "totalSupply",
						"offset": 0,
						"slot": "2",
						"type": "t_uint256"
					},
					{
						"astId": 585,
						"contract": "contracts/base/ERC20.sol:ERC20",
						"label": "name",
						"offset": 0,
						"slot": "3",
						"type": "t_string_storage"
					},
					{
						"astId": 587,
						"contract": "contracts/base/ERC20.sol:ERC20",
						"label": "symbol",
						"offset": 0,
						"slot": "4",
						"type": "t_string_storage"
					},
					{
						"astId": 590,
						"contract": "contracts/base/ERC20.sol:ERC20",
						"label": "decimals",
						"offset": 0,
						"slot": "5",
						"type": "t_uint8"
					}
				],
				"types": {
					"t_address": {
						"encoding": "inplace",
						"label": "address",
						"numberOfBytes": "20"
					},
					"t_mapping(t_address,t_mapping(t_address,t_uint256))": {
						"encoding": "mapping",
						"key": "t_address",
						"label": "mapping(address => mapping(address => uint256))",
						"numberOfBytes": "32",
						"value": "t_mapping(t_address,t_uint256)"
					},
					"t_mapping(t_address,t_uint256)": {
						"encoding": "mapping",
						"key": "t_address",
						"label": "mapping(address => uint256)",
						"numberOfBytes": "32",
						"value": "t_uint256"
					},
					"t_string_storage": {
						"encoding": "bytes",
						"label": "string",
						"numberOfBytes": "32"
					},
					"t_uint256": {
						"encoding": "inplace",
						"label": "uint256",
						"numberOfBytes": "32"
					},
					"t_uint8": {
						"encoding": "inplace",
						"label": "uint8",
						"numberOfBytes": "1"
					}
				}
			},
			"userdoc": {
				"kind": "user",
				"methods": {},
				"version": 1
			}
		}
	}
}