{
	"contracts/PenERC721.sol": {
		"PenERC721": {
			"abi": [
				{
					"inputs": [],
					"stateMutability": "nonpayable",
					"type": "constructor"
				},
				{
					"inputs": [
						{
							"internalType": "address",
							"name": "receiver",
							"type": "address"
						}
					],
					"name": "ERC721InvalidReceiver",
					"type": "error"
				},
				{
					"anonymous": false,
					"inputs": [
						{
							"indexed": true,
							"internalType": "address",
							"name": "owner",
							"type": "address"
						},
						{
							"indexed": true,
							"internalType": "address",
							"name": "approved",
							"type": "address"
						},
						{
							"indexed": true,
							"internalType": "uint256",
							"name": "tokenId",
							"type": "uint256"
						}
					],
					"name": "Approval",
					"type": "event"
				},
				{
					"anonymous": false,
					"inputs": [
						{
							"indexed": true,
							"internalType": "address",
							"name": "owner",
							"type": "address"
						},
						{
							"indexed": true,
							"internalType": "address",
							"name": "operator",
							"type": "address"
						},
						{
							"indexed": false,
							"internalType": "bool",
							"name": "approved",
							"type": "bool"
						}
					],
					"name": "ApprovalForAll",
					"type": "event"
				},
				{
					"anonymous": false,
					"inputs": [
						{
							"indexed": true,
							"internalType": "address",
							"name": "from",
							"type": "address"
						},
						{
							"indexed": true,
							"internalType": "address",
							"name": "to",
							"type": "address"
						},
						{
							"indexed": true,
							"internalType": "uint256",
							"name": "tokenId",
							"type": "uint256"
						}
					],
					"name": "Transfer",
					"type": "event"
				},
				{
					"inputs": [],
					"name": "MAX_APES",
					"outputs": [
						{
							"internalType": "uint256",
							"name": "",
							"type": "uint256"
						}
					],
					"stateMutability": "view",
					"type": "function"
				},
				{
					"inputs": [
						{
							"internalType": "address",
							"name": "to",
							"type": "address"
						},
						{
							"internalType": "uint256",
							"name": "tokenId",
							"type": "uint256"
						}
					],
					"name": "approve",
					"outputs": [],
					"stateMutability": "nonpayable",
					"type": "function"
				},
				{
					"inputs": [
						{
							"internalType": "address",
							"name": "owner",
							"type": "address"
						}
					],
					"name": "balanceOf",
					"outputs": [
						{
							"internalType": "uint256",
							"name": "",
							"type": "uint256"
						}
					],
					"stateMutability": "view",
					"type": "function"
				},
				{
					"inputs": [
						{
							"internalType": "uint256",
							"name": "tokenId",
							"type": "uint256"
						}
					],
					"name": "getApproved",
					"outputs": [
						{
							"internalType": "address",
							"name": "",
							"type": "address"
						}
					],
					"stateMutability": "view",
					"type": "function"
				},
				{
					"inputs": [
						{
							"internalType": "address",
							"name": "owner",
							"type": "address"
						},
						{
							"internalType": "address",
							"name": "operator",
							"type": "address"
						}
					],
					"name": "isApprovedForAll",
					"outputs": [
						{
							"internalType": "bool",
							"name": "",
							"type": "bool"
						}
					],
					"stateMutability": "view",
					"type": "function"
				},
				{
					"inputs": [
						{
							"internalType": "address",
							"name": "to",
							"type": "address"
						},
						{
							"internalType": "uint256",
							"name": "tokenId",
							"type": "uint256"
						}
					],
					"name": "mint",
					"outputs": [],
					"stateMutability": "nonpayable",
					"type": "function"
				},
				{
					"inputs": [],
					"name": "name",
					"outputs": [
						{
							"internalType": "string",
							"name": "",
							"type": "string"
						}
					],
					"stateMutability": "view",
					"type": "function"
				},
				{
					"inputs": [
						{
							"internalType": "uint256",
							"name": "tokenId",
							"type": "uint256"
						}
					],
					"name": "ownerOf",
					"outputs": [
						{
							"internalType": "address",
							"name": "owner",
							"type": "address"
						}
					],
					"stateMutability": "view",
					"type": "function"
				},
				{
					"inputs": [
						{
							"internalType": "address",
							"name": "from",
							"type": "address"
						},
						{
							"internalType": "address",
							"name": "to",
							"type": "address"
						},
						{
							"internalType": "uint256",
							"name": "tokenId",
							"type": "uint256"
						}
					],
					"name": "safeTransferFrom",
					"outputs": [],
					"stateMutability": "nonpayable",
					"type": "function"
				},
				{
					"inputs": [
						{
							"internalType": "address",
							"name": "from",
							"type": "address"
						},
						{
							"internalType": "address",
							"name": "to",
							"type": "address"
						},
						{
							"internalType": "uint256",
							"name": "tokenId",
							"type": "uint256"
						},
						{
							"internalType": "bytes",
							"name": "_data",
							"type": "bytes"
						}
					],
					"name": "safeTransferFrom",
					"outputs": [],
					"stateMutability": "nonpayable",
					"type": "function"
				},
				{
					"inputs": [
						{
							"internalType": "address",
							"name": "operator",
							"type": "address"
						},
						{
							"internalType": "bool",
							"name": "approved",
							"type": "bool"
						}
					],
					"name": "setApprovalForAll",
					"outputs": [],
					"stateMutability": "nonpayable",
					"type": "function"
				},
				{
					"inputs": [
						{
							"internalType": "bytes4",
							"name": "interfaceId",
							"type": "bytes4"
						}
					],
					"name": "supportsInterface",
					"outputs": [
						{
							"internalType": "bool",
							"name": "",
							"type": "bool"
						}
					],
					"stateMutability": "pure",
					"type": "function"
				},
				{
					"inputs": [],
					"name": "symbol",
					"outputs": [
						{
							"internalType": "string",
							"name": "",
							"type": "string"
						}
					],
					"stateMutability": "view",
					"type": "function"
				},
				{
					"inputs": [
						{
							"internalType": "uint256",
							"name": "tokenId",
							"type": "uint256"
						}
					],
					"name": "tokenURI",
					"outputs": [
						{
							"internalType": "string",
							"name": "",
							"type": "string"
						}
					],
					"stateMutability": "view",
					"type": "function"
				},
				{
					"inputs": [
						{
							"internalType": "address",
							"name": "from",
							"type": "address"
						},
						{
							"internalType": "address",
							"name": "to",
							"type": "address"
						},
						{
							"internalType": "uint256",
							"name": "tokenId",
							"type": "uint256"
						}
					],
					"name": "transferFrom",
					"outputs": [],
					"stateMutability": "nonpayable",
					"type": "function"
				}
			],
			"devdoc": {
				"kind": "dev",
				"methods": {
					"supportsInterface(bytes4)": {
						"details": "如果合约实现了查询的`interfaceId`，则返回true 规则详见：https://eips.ethereum.org/EIPS/eip-165#how-interfaces-are-identified[EIP section]"
					}
				},
				"version": 1
			},
			"evm": {
				"assembly": "    /* \"contracts/PenERC721.sol\":98:690  contract PenERC721 is ERC721{\r... */\n  mstore(0x40, 0x80)\n    /* \"contracts/PenERC721.sol\":156:160  1000 */\n  0x03e8\n    /* \"contracts/PenERC721.sol\":133:160  uint public MAX_APES = 1000 */\n  0x06\n  sstore\n    /* \"contracts/PenERC721.sol\":200:253  constructor() ERC721(\"pencil nft\", \"PEN_NFT\"){\r... */\n  callvalue\n  dup1\n  iszero\n  tag_1\n  jumpi\n  0x00\n  dup1\n  revert\ntag_1:\n  pop\n    /* \"contracts/ERC721.sol\":1068:1182  constructor(string memory name_, string memory symbol_) {\r... */\n  mload(0x40)\n  dup1\n  0x40\n  add\n  0x40\n  mstore\n  dup1\n  0x0a\n  dup2\n  mstore\n  0x20\n  add\n  0x70656e63696c206e667400000000000000000000000000000000000000000000\n  dup2\n  mstore\n  pop\n  mload(0x40)\n  dup1\n  0x40\n  add\n  0x40\n  mstore\n  dup1\n  0x07\n  dup2\n  mstore\n  0x20\n  add\n  0x50454e5f4e465400000000000000000000000000000000000000000000000000\n  dup2\n  mstore\n  pop\n    /* \"contracts/ERC721.sol\":1142:1147  name_ */\n  dup2\n    /* \"contracts/ERC721.sol\":1135:1139  name */\n  0x00\n    /* \"contracts/ERC721.sol\":1135:1147  name = name_ */\n  swap1\n  dup1\n  mload\n  swap1\n  0x20\n  add\n  swap1\n  tag_5\n  swap3\n  swap2\n  swap1\n  tag_6\n  jump\t// in\ntag_5:\n  pop\n    /* \"contracts/ERC721.sol\":1167:1174  symbol_ */\n  dup1\n    /* \"contracts/ERC721.sol\":1158:1164  symbol */\n  0x01\n    /* \"contracts/ERC721.sol\":1158:1174  symbol = symbol_ */\n  swap1\n  dup1\n  mload\n  swap1\n  0x20\n  add\n  swap1\n  tag_7\n  swap3\n  swap2\n  swap1\n  tag_6\n  jump\t// in\ntag_7:\n  pop\n    /* \"contracts/ERC721.sol\":1068:1182  constructor(string memory name_, string memory symbol_) {\r... */\n  pop\n  pop\n    /* \"contracts/PenERC721.sol\":98:690  contract PenERC721 is ERC721{\r... */\n  jump(tag_9)\ntag_6:\n  dup3\n  dup1\n  sload\n  tag_10\n  swap1\n  tag_11\n  jump\t// in\ntag_10:\n  swap1\n  0x00\n  mstore\n  keccak256(0x00, 0x20)\n  swap1\n  0x1f\n  add\n  0x20\n  swap1\n  div\n  dup2\n  add\n  swap3\n  dup3\n  tag_13\n  jumpi\n  0x00\n  dup6\n  sstore\n  jump(tag_12)\ntag_13:\n  dup3\n  0x1f\n  lt\n  tag_14\n  jumpi\n  dup1\n  mload\n  not(0xff)\n  and\n  dup4\n  dup1\n  add\n  or\n  dup6\n  sstore\n  jump(tag_12)\ntag_14:\n  dup3\n  dup1\n  add\n  0x01\n  add\n  dup6\n  sstore\n  dup3\n  iszero\n  tag_12\n  jumpi\n  swap2\n  dup3\n  add\ntag_15:\n  dup3\n  dup2\n  gt\n  iszero\n  tag_16\n  jumpi\n  dup3\n  mload\n  dup3\n  sstore\n  swap2\n  0x20\n  add\n  swap2\n  swap1\n  0x01\n  add\n  swap1\n  jump(tag_15)\ntag_16:\ntag_12:\n  pop\n  swap1\n  pop\n  tag_17\n  swap2\n  swap1\n  tag_18\n  jump\t// in\ntag_17:\n  pop\n  swap1\n  jump\t// out\ntag_18:\ntag_19:\n  dup1\n  dup3\n  gt\n  iszero\n  tag_20\n  jumpi\n  0x00\n  dup2\n  0x00\n  swap1\n  sstore\n  pop\n  0x01\n  add\n  jump(tag_19)\ntag_20:\n  pop\n  swap1\n  jump\t// out\n    /* \"#utility.yul\":7:327   */\ntag_11:\n    /* \"#utility.yul\":51:57   */\n  0x00\n    /* \"#utility.yul\":88:89   */\n  0x02\n    /* \"#utility.yul\":82:86   */\n  dup3\n    /* \"#utility.yul\":78:90   */\n  div\n    /* \"#utility.yul\":68:90   */\n  swap1\n  pop\n    /* \"#utility.yul\":135:136   */\n  0x01\n    /* \"#utility.yul\":129:133   */\n  dup3\n    /* \"#utility.yul\":125:137   */\n  and\n    /* \"#utility.yul\":156:174   */\n  dup1\n    /* \"#utility.yul\":146:148   */\n  tag_23\n  jumpi\n    /* \"#utility.yul\":212:216   */\n  0x7f\n    /* \"#utility.yul\":204:210   */\n  dup3\n    /* \"#utility.yul\":200:217   */\n  and\n    /* \"#utility.yul\":190:217   */\n  swap2\n  pop\n    /* \"#utility.yul\":146:148   */\ntag_23:\n    /* \"#utility.yul\":274:276   */\n  0x20\n    /* \"#utility.yul\":266:272   */\n  dup3\n    /* \"#utility.yul\":263:277   */\n  lt\n    /* \"#utility.yul\":243:261   */\n  dup2\n    /* \"#utility.yul\":240:278   */\n  eq\n    /* \"#utility.yul\":237:239   */\n  iszero\n  tag_24\n  jumpi\n    /* \"#utility.yul\":293:311   */\n  tag_25\n  tag_26\n  jump\t// in\ntag_25:\n    /* \"#utility.yul\":237:239   */\ntag_24:\n    /* \"#utility.yul\":58:327   */\n  pop\n  swap2\n  swap1\n  pop\n  jump\t// out\n    /* \"#utility.yul\":333:513   */\ntag_26:\n    /* \"#utility.yul\":381:458   */\n  0x4e487b7100000000000000000000000000000000000000000000000000000000\n    /* \"#utility.yul\":378:379   */\n  0x00\n    /* \"#utility.yul\":371:459   */\n  mstore\n    /* \"#utility.yul\":478:482   */\n  0x22\n    /* \"#utility.yul\":475:476   */\n  0x04\n    /* \"#utility.yul\":468:483   */\n  mstore\n    /* \"#utility.yul\":502:506   */\n  0x24\n    /* \"#utility.yul\":499:500   */\n  0x00\n    /* \"#utility.yul\":492:507   */\n  revert\n    /* \"contracts/PenERC721.sol\":98:690  contract PenERC721 is ERC721{\r... */\ntag_9:\n  dataSize(sub_0)\n  dup1\n  dataOffset(sub_0)\n  0x00\n  codecopy\n  0x00\n  return\nstop\n\nsub_0: assembly {\n        /* \"contracts/PenERC721.sol\":98:690  contract PenERC721 is ERC721{\r... */\n      mstore(0x40, 0x80)\n      callvalue\n      dup1\n      iszero\n      tag_1\n      jumpi\n      0x00\n      dup1\n      revert\n    tag_1:\n      pop\n      jumpi(tag_2, lt(calldatasize, 0x04))\n      shr(0xe0, calldataload(0x00))\n      dup1\n      0x6352211e\n      gt\n      tag_18\n      jumpi\n      dup1\n      0xb88d4fde\n      gt\n      tag_19\n      jumpi\n      dup1\n      0xb88d4fde\n      eq\n      tag_14\n      jumpi\n      dup1\n      0xbb8a16bd\n      eq\n      tag_15\n      jumpi\n      dup1\n      0xc87b56dd\n      eq\n      tag_16\n      jumpi\n      dup1\n      0xe985e9c5\n      eq\n      tag_17\n      jumpi\n      jump(tag_2)\n    tag_19:\n      dup1\n      0x6352211e\n      eq\n      tag_10\n      jumpi\n      dup1\n      0x70a08231\n      eq\n      tag_11\n      jumpi\n      dup1\n      0x95d89b41\n      eq\n      tag_12\n      jumpi\n      dup1\n      0xa22cb465\n      eq\n      tag_13\n      jumpi\n      jump(tag_2)\n    tag_18:\n      dup1\n      0x095ea7b3\n      gt\n      tag_20\n      jumpi\n      dup1\n      0x095ea7b3\n      eq\n      tag_6\n      jumpi\n      dup1\n      0x23b872dd\n      eq\n      tag_7\n      jumpi\n      dup1\n      0x40c10f19\n      eq\n      tag_8\n      jumpi\n      dup1\n      0x42842e0e\n      eq\n      tag_9\n      jumpi\n      jump(tag_2)\n    tag_20:\n      dup1\n      0x01ffc9a7\n      eq\n      tag_3\n      jumpi\n      dup1\n      0x06fdde03\n      eq\n      tag_4\n      jumpi\n      dup1\n      0x081812fc\n      eq\n      tag_5\n      jumpi\n    tag_2:\n      0x00\n      dup1\n      revert\n        /* \"contracts/ERC721.sol\":1235:1562  function supportsInterface(bytes4 interfaceId)\r... */\n    tag_3:\n      tag_21\n      0x04\n      dup1\n      calldatasize\n      sub\n      dup2\n      add\n      swap1\n      tag_22\n      swap2\n      swap1\n      tag_23\n      jump\t// in\n    tag_22:\n      tag_24\n      jump\t// in\n    tag_21:\n      mload(0x40)\n      tag_25\n      swap2\n      swap1\n      tag_26\n      jump\t// in\n    tag_25:\n      mload(0x40)\n      dup1\n      swap2\n      sub\n      swap1\n      return\n        /* \"contracts/ERC721.sol\":373:400  string public override name */\n    tag_4:\n      tag_27\n      tag_28\n      jump\t// in\n    tag_27:\n      mload(0x40)\n      tag_29\n      swap2\n      swap1\n      tag_30\n      jump\t// in\n    tag_29:\n      mload(0x40)\n      dup1\n      swap2\n      sub\n      swap1\n      return\n        /* \"contracts/ERC721.sol\":2901:3100  function getApproved(uint tokenId) external view override returns (address) {\r... */\n    tag_5:\n      tag_31\n      0x04\n      dup1\n      calldatasize\n      sub\n      dup2\n      add\n      swap1\n      tag_32\n      swap2\n      swap1\n      tag_33\n      jump\t// in\n    tag_32:\n      tag_34\n      jump\t// in\n    tag_31:\n      mload(0x40)\n      tag_35\n      swap2\n      swap1\n      tag_36\n      jump\t// in\n    tag_35:\n      mload(0x40)\n      dup1\n      swap2\n      sub\n      swap1\n      return\n        /* \"contracts/ERC721.sol\":3587:3949  function approve(address to, uint tokenId) external override {\r... */\n    tag_6:\n      tag_37\n      0x04\n      dup1\n      calldatasize\n      sub\n      dup2\n      add\n      swap1\n      tag_38\n      swap2\n      swap1\n      tag_39\n      jump\t// in\n    tag_38:\n      tag_40\n      jump\t// in\n    tag_37:\n      stop\n        /* \"contracts/ERC721.sol\":5105:5445  function transferFrom(\r... */\n    tag_7:\n      tag_41\n      0x04\n      dup1\n      calldatasize\n      sub\n      dup2\n      add\n      swap1\n      tag_42\n      swap2\n      swap1\n      tag_43\n      jump\t// in\n    tag_42:\n      tag_44\n      jump\t// in\n    tag_41:\n      stop\n        /* \"contracts/PenERC721.sol\":523:687  function mint(address to, uint tokenId) external {\r... */\n    tag_8:\n      tag_45\n      0x04\n      dup1\n      calldatasize\n      sub\n      dup2\n      add\n      swap1\n      tag_46\n      swap2\n      swap1\n      tag_39\n      jump\t// in\n    tag_46:\n      tag_47\n      jump\t// in\n    tag_45:\n      stop\n        /* \"contracts/ERC721.sol\":6717:6893  function safeTransferFrom(\r... */\n    tag_9:\n      tag_48\n      0x04\n      dup1\n      calldatasize\n      sub\n      dup2\n      add\n      swap1\n      tag_49\n      swap2\n      swap1\n      tag_43\n      jump\t// in\n    tag_49:\n      tag_50\n      jump\t// in\n    tag_48:\n      stop\n        /* \"contracts/ERC721.sol\":1921:2102  function ownerOf(uint tokenId) public view override returns (address owner) {\r... */\n    tag_10:\n      tag_51\n      0x04\n      dup1\n      calldatasize\n      sub\n      dup2\n      add\n      swap1\n      tag_52\n      swap2\n      swap1\n      tag_33\n      jump\t// in\n    tag_52:\n      tag_53\n      jump\t// in\n    tag_51:\n      mload(0x40)\n      tag_54\n      swap2\n      swap1\n      tag_36\n      jump\t// in\n    tag_54:\n      mload(0x40)\n      dup1\n      swap2\n      sub\n      swap1\n      return\n        /* \"contracts/ERC721.sol\":1658:1835  function balanceOf(address owner) external view override returns (uint) {\r... */\n    tag_11:\n      tag_55\n      0x04\n      dup1\n      calldatasize\n      sub\n      dup2\n      add\n      swap1\n      tag_56\n      swap2\n      swap1\n      tag_57\n      jump\t// in\n    tag_56:\n      tag_58\n      jump\t// in\n    tag_55:\n      mload(0x40)\n      tag_59\n      swap2\n      swap1\n      tag_60\n      jump\t// in\n    tag_59:\n      mload(0x40)\n      dup1\n      swap2\n      sub\n      swap1\n      return\n        /* \"contracts/ERC721.sol\":427:456  string public override symbol */\n    tag_12:\n      tag_61\n      tag_62\n      jump\t// in\n    tag_61:\n      mload(0x40)\n      tag_63\n      swap2\n      swap1\n      tag_30\n      jump\t// in\n    tag_63:\n      mload(0x40)\n      dup1\n      swap2\n      sub\n      swap1\n      return\n        /* \"contracts/ERC721.sol\":2586:2796  function setApprovalForAll(address operator, bool approved) external override {\r... */\n    tag_13:\n      tag_64\n      0x04\n      dup1\n      calldatasize\n      sub\n      dup2\n      add\n      swap1\n      tag_65\n      swap2\n      swap1\n      tag_66\n      jump\t// in\n    tag_65:\n      tag_67\n      jump\t// in\n    tag_64:\n      stop\n        /* \"contracts/ERC721.sol\":6290:6672  function safeTransferFrom(\r... */\n    tag_14:\n      tag_68\n      0x04\n      dup1\n      calldatasize\n      sub\n      dup2\n      add\n      swap1\n      tag_69\n      swap2\n      swap1\n      tag_70\n      jump\t// in\n    tag_69:\n      tag_71\n      jump\t// in\n    tag_68:\n      stop\n        /* \"contracts/PenERC721.sol\":133:160  uint public MAX_APES = 1000 */\n    tag_15:\n      tag_72\n      tag_73\n      jump\t// in\n    tag_72:\n      mload(0x40)\n      tag_74\n      swap2\n      swap1\n      tag_60\n      jump\t// in\n    tag_74:\n      mload(0x40)\n      dup1\n      swap2\n      sub\n      swap1\n      return\n        /* \"contracts/ERC721.sol\":9185:9501  function tokenURI(uint256 tokenId) public view virtual override returns (string memory) {\r... */\n    tag_16:\n      tag_75\n      0x04\n      dup1\n      calldatasize\n      sub\n      dup2\n      add\n      swap1\n      tag_76\n      swap2\n      swap1\n      tag_33\n      jump\t// in\n    tag_76:\n      tag_77\n      jump\t// in\n    tag_75:\n      mload(0x40)\n      tag_78\n      swap2\n      swap1\n      tag_30\n      jump\t// in\n    tag_78:\n      mload(0x40)\n      dup1\n      swap2\n      sub\n      swap1\n      return\n        /* \"contracts/ERC721.sol\":2254:2453  function isApprovedForAll(address owner, address operator)\r... */\n    tag_17:\n      tag_79\n      0x04\n      dup1\n      calldatasize\n      sub\n      dup2\n      add\n      swap1\n      tag_80\n      swap2\n      swap1\n      tag_81\n      jump\t// in\n    tag_80:\n      tag_82\n      jump\t// in\n    tag_79:\n      mload(0x40)\n      tag_83\n      swap2\n      swap1\n      tag_26\n      jump\t// in\n    tag_83:\n      mload(0x40)\n      dup1\n      swap2\n      sub\n      swap1\n      return\n        /* \"contracts/ERC721.sol\":1235:1562  function supportsInterface(bytes4 interfaceId)\r... */\n    tag_24:\n        /* \"contracts/ERC721.sol\":1350:1354  bool */\n      0x00\n        /* \"contracts/ERC721.sol\":1407:1432  type(IERC721).interfaceId */\n      0x80ac58cd00000000000000000000000000000000000000000000000000000000\n        /* \"contracts/ERC721.sol\":1392:1432  interfaceId == type(IERC721).interfaceId */\n      not(0xffffffffffffffffffffffffffffffffffffffffffffffffffffffff)\n      and\n        /* \"contracts/ERC721.sol\":1392:1403  interfaceId */\n      dup3\n        /* \"contracts/ERC721.sol\":1392:1432  interfaceId == type(IERC721).interfaceId */\n      not(0xffffffffffffffffffffffffffffffffffffffffffffffffffffffff)\n      and\n      eq\n        /* \"contracts/ERC721.sol\":1392:1489  interfaceId == type(IERC721).interfaceId ||\r... */\n      dup1\n      tag_85\n      jumpi\n      pop\n        /* \"contracts/ERC721.sol\":1464:1489  type(IERC165).interfaceId */\n      0x01ffc9a700000000000000000000000000000000000000000000000000000000\n        /* \"contracts/ERC721.sol\":1449:1489  interfaceId == type(IERC165).interfaceId */\n      not(0xffffffffffffffffffffffffffffffffffffffffffffffffffffffff)\n      and\n        /* \"contracts/ERC721.sol\":1449:1460  interfaceId */\n      dup3\n        /* \"contracts/ERC721.sol\":1449:1489  interfaceId == type(IERC165).interfaceId */\n      not(0xffffffffffffffffffffffffffffffffffffffffffffffffffffffff)\n      and\n      eq\n        /* \"contracts/ERC721.sol\":1392:1489  interfaceId == type(IERC721).interfaceId ||\r... */\n    tag_85:\n        /* \"contracts/ERC721.sol\":1392:1554  interfaceId == type(IERC721).interfaceId ||\r... */\n      dup1\n      tag_86\n      jumpi\n      pop\n        /* \"contracts/ERC721.sol\":1521:1554  type(IERC721Metadata).interfaceId */\n      0x5b5e139f00000000000000000000000000000000000000000000000000000000\n        /* \"contracts/ERC721.sol\":1506:1554  interfaceId == type(IERC721Metadata).interfaceId */\n      not(0xffffffffffffffffffffffffffffffffffffffffffffffffffffffff)\n      and\n        /* \"contracts/ERC721.sol\":1506:1517  interfaceId */\n      dup3\n        /* \"contracts/ERC721.sol\":1506:1554  interfaceId == type(IERC721Metadata).interfaceId */\n      not(0xffffffffffffffffffffffffffffffffffffffffffffffffffffffff)\n      and\n      eq\n        /* \"contracts/ERC721.sol\":1392:1554  interfaceId == type(IERC721).interfaceId ||\r... */\n    tag_86:\n        /* \"contracts/ERC721.sol\":1372:1554  return\r... */\n      swap1\n      pop\n        /* \"contracts/ERC721.sol\":1235:1562  function supportsInterface(bytes4 interfaceId)\r... */\n      swap2\n      swap1\n      pop\n      jump\t// out\n        /* \"contracts/ERC721.sol\":373:400  string public override name */\n    tag_28:\n      0x00\n      dup1\n      sload\n      tag_87\n      swap1\n      tag_88\n      jump\t// in\n    tag_87:\n      dup1\n      0x1f\n      add\n      0x20\n      dup1\n      swap2\n      div\n      mul\n      0x20\n      add\n      mload(0x40)\n      swap1\n      dup2\n      add\n      0x40\n      mstore\n      dup1\n      swap3\n      swap2\n      swap1\n      dup2\n      dup2\n      mstore\n      0x20\n      add\n      dup3\n      dup1\n      sload\n      tag_89\n      swap1\n      tag_88\n      jump\t// in\n    tag_89:\n      dup1\n      iszero\n      tag_90\n      jumpi\n      dup1\n      0x1f\n      lt\n      tag_91\n      jumpi\n      0x0100\n      dup1\n      dup4\n      sload\n      div\n      mul\n      dup4\n      mstore\n      swap2\n      0x20\n      add\n      swap2\n      jump(tag_90)\n    tag_91:\n      dup3\n      add\n      swap2\n      swap1\n      0x00\n      mstore\n      keccak256(0x00, 0x20)\n      swap1\n    tag_92:\n      dup2\n      sload\n      dup2\n      mstore\n      swap1\n      0x01\n      add\n      swap1\n      0x20\n      add\n      dup1\n      dup4\n      gt\n      tag_92\n      jumpi\n      dup3\n      swap1\n      sub\n      0x1f\n      and\n      dup3\n      add\n      swap2\n    tag_90:\n      pop\n      pop\n      pop\n      pop\n      pop\n      dup2\n      jump\t// out\n        /* \"contracts/ERC721.sol\":2901:3100  function getApproved(uint tokenId) external view override returns (address) {\r... */\n    tag_34:\n        /* \"contracts/ERC721.sol\":2968:2975  address */\n      0x00\n        /* \"contracts/ERC721.sol\":3024:3025  0 */\n      dup1\n        /* \"contracts/ERC721.sol\":2996:3026  _owners[tokenId] != address(0) */\n      0xffffffffffffffffffffffffffffffffffffffff\n      and\n        /* \"contracts/ERC721.sol\":2996:3003  _owners */\n      0x02\n        /* \"contracts/ERC721.sol\":2996:3012  _owners[tokenId] */\n      0x00\n        /* \"contracts/ERC721.sol\":3004:3011  tokenId */\n      dup5\n        /* \"contracts/ERC721.sol\":2996:3012  _owners[tokenId] */\n      dup2\n      mstore\n      0x20\n      add\n      swap1\n      dup2\n      mstore\n      0x20\n      add\n      0x00\n      keccak256\n      0x00\n      swap1\n      sload\n      swap1\n      0x0100\n      exp\n      swap1\n      div\n      0xffffffffffffffffffffffffffffffffffffffff\n      and\n        /* \"contracts/ERC721.sol\":2996:3026  _owners[tokenId] != address(0) */\n      0xffffffffffffffffffffffffffffffffffffffff\n      and\n      eq\n      iszero\n        /* \"contracts/ERC721.sol\":2988:3050  require(_owners[tokenId] != address(0), \"token doesn't exist\") */\n      tag_94\n      jumpi\n      mload(0x40)\n      0x08c379a000000000000000000000000000000000000000000000000000000000\n      dup2\n      mstore\n      0x04\n      add\n      tag_95\n      swap1\n      tag_96\n      jump\t// in\n    tag_95:\n      mload(0x40)\n      dup1\n      swap2\n      sub\n      swap1\n      revert\n    tag_94:\n        /* \"contracts/ERC721.sol\":3068:3083  _tokenApprovals */\n      0x04\n        /* \"contracts/ERC721.sol\":3068:3092  _tokenApprovals[tokenId] */\n      0x00\n        /* \"contracts/ERC721.sol\":3084:3091  tokenId */\n      dup4\n        /* \"contracts/ERC721.sol\":3068:3092  _tokenApprovals[tokenId] */\n      dup2\n      mstore\n      0x20\n      add\n      swap1\n      dup2\n      mstore\n      0x20\n      add\n      0x00\n      keccak256\n      0x00\n      swap1\n      sload\n      swap1\n      0x0100\n      exp\n      swap1\n      div\n      0xffffffffffffffffffffffffffffffffffffffff\n      and\n        /* \"contracts/ERC721.sol\":3061:3092  return _tokenApprovals[tokenId] */\n      swap1\n      pop\n        /* \"contracts/ERC721.sol\":2901:3100  function getApproved(uint tokenId) external view override returns (address) {\r... */\n      swap2\n      swap1\n      pop\n      jump\t// out\n        /* \"contracts/ERC721.sol\":3587:3949  function approve(address to, uint tokenId) external override {\r... */\n    tag_40:\n        /* \"contracts/ERC721.sol\":3659:3672  address owner */\n      0x00\n        /* \"contracts/ERC721.sol\":3675:3682  _owners */\n      0x02\n        /* \"contracts/ERC721.sol\":3675:3691  _owners[tokenId] */\n      0x00\n        /* \"contracts/ERC721.sol\":3683:3690  tokenId */\n      dup4\n        /* \"contracts/ERC721.sol\":3675:3691  _owners[tokenId] */\n      dup2\n      mstore\n      0x20\n      add\n      swap1\n      dup2\n      mstore\n      0x20\n      add\n      0x00\n      keccak256\n      0x00\n      swap1\n      sload\n      swap1\n      0x0100\n      exp\n      swap1\n      div\n      0xffffffffffffffffffffffffffffffffffffffff\n      and\n        /* \"contracts/ERC721.sol\":3659:3691  address owner = _owners[tokenId] */\n      swap1\n      pop\n        /* \"contracts/ERC721.sol\":3716:3721  owner */\n      dup1\n        /* \"contracts/ERC721.sol\":3710:3721  to != owner */\n      0xffffffffffffffffffffffffffffffffffffffff\n      and\n        /* \"contracts/ERC721.sol\":3710:3712  to */\n      dup4\n        /* \"contracts/ERC721.sol\":3710:3721  to != owner */\n      0xffffffffffffffffffffffffffffffffffffffff\n      and\n      eq\n      iszero\n        /* \"contracts/ERC721.sol\":3702:3751  require(to != owner, \"approval to current owner\") */\n      tag_98\n      jumpi\n      mload(0x40)\n      0x08c379a000000000000000000000000000000000000000000000000000000000\n      dup2\n      mstore\n      0x04\n      add\n      tag_99\n      swap1\n      tag_100\n      jump\t// in\n    tag_99:\n      mload(0x40)\n      dup1\n      swap2\n      sub\n      swap1\n      revert\n    tag_98:\n        /* \"contracts/ERC721.sol\":3798:3803  owner */\n      dup1\n        /* \"contracts/ERC721.sol\":3784:3803  msg.sender == owner */\n      0xffffffffffffffffffffffffffffffffffffffff\n      and\n        /* \"contracts/ERC721.sol\":3784:3794  msg.sender */\n      caller\n        /* \"contracts/ERC721.sol\":3784:3803  msg.sender == owner */\n      0xffffffffffffffffffffffffffffffffffffffff\n      and\n      eq\n        /* \"contracts/ERC721.sol\":3784:3844  msg.sender == owner || _operatorApprovals[owner][msg.sender] */\n      dup1\n      tag_101\n      jumpi\n      pop\n        /* \"contracts/ERC721.sol\":3807:3825  _operatorApprovals */\n      0x05\n        /* \"contracts/ERC721.sol\":3807:3832  _operatorApprovals[owner] */\n      0x00\n        /* \"contracts/ERC721.sol\":3826:3831  owner */\n      dup3\n        /* \"contracts/ERC721.sol\":3807:3832  _operatorApprovals[owner] */\n      0xffffffffffffffffffffffffffffffffffffffff\n      and\n      0xffffffffffffffffffffffffffffffffffffffff\n      and\n      dup2\n      mstore\n      0x20\n      add\n      swap1\n      dup2\n      mstore\n      0x20\n      add\n      0x00\n      keccak256\n        /* \"contracts/ERC721.sol\":3807:3844  _operatorApprovals[owner][msg.sender] */\n      0x00\n        /* \"contracts/ERC721.sol\":3833:3843  msg.sender */\n      caller\n        /* \"contracts/ERC721.sol\":3807:3844  _operatorApprovals[owner][msg.sender] */\n      0xffffffffffffffffffffffffffffffffffffffff\n      and\n      0xffffffffffffffffffffffffffffffffffffffff\n      and\n      dup2\n      mstore\n      0x20\n      add\n      swap1\n      dup2\n      mstore\n      0x20\n      add\n      0x00\n      keccak256\n      0x00\n      swap1\n      sload\n      swap1\n      0x0100\n      exp\n      swap1\n      div\n      0xff\n      and\n        /* \"contracts/ERC721.sol\":3784:3844  msg.sender == owner || _operatorApprovals[owner][msg.sender] */\n    tag_101:\n        /* \"contracts/ERC721.sol\":3762:3902  require(\r... */\n      tag_102\n      jumpi\n      mload(0x40)\n      0x08c379a000000000000000000000000000000000000000000000000000000000\n      dup2\n      mstore\n      0x04\n      add\n      tag_103\n      swap1\n      tag_104\n      jump\t// in\n    tag_103:\n      mload(0x40)\n      dup1\n      swap2\n      sub\n      swap1\n      revert\n    tag_102:\n        /* \"contracts/ERC721.sol\":3913:3941  _approve(owner, to, tokenId) */\n      tag_105\n        /* \"contracts/ERC721.sol\":3922:3927  owner */\n      dup2\n        /* \"contracts/ERC721.sol\":3929:3931  to */\n      dup5\n        /* \"contracts/ERC721.sol\":3933:3940  tokenId */\n      dup5\n        /* \"contracts/ERC721.sol\":3913:3921  _approve */\n      tag_106\n        /* \"contracts/ERC721.sol\":3913:3941  _approve(owner, to, tokenId) */\n      jump\t// in\n    tag_105:\n        /* \"contracts/ERC721.sol\":3587:3949  function approve(address to, uint tokenId) external override {\r... */\n      pop\n      pop\n      pop\n      jump\t// out\n        /* \"contracts/ERC721.sol\":5105:5445  function transferFrom(\r... */\n    tag_44:\n        /* \"contracts/ERC721.sol\":5230:5243  address owner */\n      0x00\n        /* \"contracts/ERC721.sol\":5246:5262  ownerOf(tokenId) */\n      tag_108\n        /* \"contracts/ERC721.sol\":5254:5261  tokenId */\n      dup3\n        /* \"contracts/ERC721.sol\":5246:5253  ownerOf */\n      tag_53\n        /* \"contracts/ERC721.sol\":5246:5262  ownerOf(tokenId) */\n      jump\t// in\n    tag_108:\n        /* \"contracts/ERC721.sol\":5230:5262  address owner = ownerOf(tokenId) */\n      swap1\n      pop\n        /* \"contracts/ERC721.sol\":5295:5341  _isApprovedOrOwner(owner, msg.sender, tokenId) */\n      tag_109\n        /* \"contracts/ERC721.sol\":5314:5319  owner */\n      dup2\n        /* \"contracts/ERC721.sol\":5321:5331  msg.sender */\n      caller\n        /* \"contracts/ERC721.sol\":5333:5340  tokenId */\n      dup5\n        /* \"contracts/ERC721.sol\":5295:5313  _isApprovedOrOwner */\n      tag_110\n        /* \"contracts/ERC721.sol\":5295:5341  _isApprovedOrOwner(owner, msg.sender, tokenId) */\n      jump\t// in\n    tag_109:\n        /* \"contracts/ERC721.sol\":5273:5391  require(\r... */\n      tag_111\n      jumpi\n      mload(0x40)\n      0x08c379a000000000000000000000000000000000000000000000000000000000\n      dup2\n      mstore\n      0x04\n      add\n      tag_112\n      swap1\n      tag_113\n      jump\t// in\n    tag_112:\n      mload(0x40)\n      dup1\n      swap2\n      sub\n      swap1\n      revert\n    tag_111:\n        /* \"contracts/ERC721.sol\":5402:5437  _transfer(owner, from, to, tokenId) */\n      tag_114\n        /* \"contracts/ERC721.sol\":5412:5417  owner */\n      dup2\n        /* \"contracts/ERC721.sol\":5419:5423  from */\n      dup6\n        /* \"contracts/ERC721.sol\":5425:5427  to */\n      dup6\n        /* \"contracts/ERC721.sol\":5429:5436  tokenId */\n      dup6\n        /* \"contracts/ERC721.sol\":5402:5411  _transfer */\n      tag_115\n        /* \"contracts/ERC721.sol\":5402:5437  _transfer(owner, from, to, tokenId) */\n      jump\t// in\n    tag_114:\n        /* \"contracts/ERC721.sol\":5105:5445  function transferFrom(\r... */\n      pop\n      pop\n      pop\n      pop\n      jump\t// out\n        /* \"contracts/PenERC721.sol\":523:687  function mint(address to, uint tokenId) external {\r... */\n    tag_47:\n        /* \"contracts/PenERC721.sol\":602:603  0 */\n      0x00\n        /* \"contracts/PenERC721.sol\":591:598  tokenId */\n      dup2\n        /* \"contracts/PenERC721.sol\":591:603  tokenId >= 0 */\n      lt\n      iszero\n        /* \"contracts/PenERC721.sol\":591:625  tokenId >= 0 && tokenId < MAX_APES */\n      dup1\n      iszero\n      tag_117\n      jumpi\n      pop\n        /* \"contracts/PenERC721.sol\":617:625  MAX_APES */\n      sload(0x06)\n        /* \"contracts/PenERC721.sol\":607:614  tokenId */\n      dup2\n        /* \"contracts/PenERC721.sol\":607:625  tokenId < MAX_APES */\n      lt\n        /* \"contracts/PenERC721.sol\":591:625  tokenId >= 0 && tokenId < MAX_APES */\n    tag_117:\n        /* \"contracts/PenERC721.sol\":583:650  require(tokenId >= 0 && tokenId < MAX_APES, \"tokenId out of range\") */\n      tag_118\n      jumpi\n      mload(0x40)\n      0x08c379a000000000000000000000000000000000000000000000000000000000\n      dup2\n      mstore\n      0x04\n      add\n      tag_119\n      swap1\n      tag_120\n      jump\t// in\n    tag_119:\n      mload(0x40)\n      dup1\n      swap2\n      sub\n      swap1\n      revert\n    tag_118:\n        /* \"contracts/PenERC721.sol\":661:679  _mint(to, tokenId) */\n      tag_121\n        /* \"contracts/PenERC721.sol\":667:669  to */\n      dup3\n        /* \"contracts/PenERC721.sol\":671:678  tokenId */\n      dup3\n        /* \"contracts/PenERC721.sol\":661:666  _mint */\n      tag_122\n        /* \"contracts/PenERC721.sol\":661:679  _mint(to, tokenId) */\n      jump\t// in\n    tag_121:\n        /* \"contracts/PenERC721.sol\":523:687  function mint(address to, uint tokenId) external {\r... */\n      pop\n      pop\n      jump\t// out\n        /* \"contracts/ERC721.sol\":6717:6893  function safeTransferFrom(\r... */\n    tag_50:\n        /* \"contracts/ERC721.sol\":6846:6885  safeTransferFrom(from, to, tokenId, \"\") */\n      tag_124\n        /* \"contracts/ERC721.sol\":6863:6867  from */\n      dup4\n        /* \"contracts/ERC721.sol\":6869:6871  to */\n      dup4\n        /* \"contracts/ERC721.sol\":6873:6880  tokenId */\n      dup4\n        /* \"contracts/ERC721.sol\":6846:6885  safeTransferFrom(from, to, tokenId, \"\") */\n      mload(0x40)\n      dup1\n      0x20\n      add\n      0x40\n      mstore\n      dup1\n      0x00\n      dup2\n      mstore\n      pop\n        /* \"contracts/ERC721.sol\":6846:6862  safeTransferFrom */\n      tag_71\n        /* \"contracts/ERC721.sol\":6846:6885  safeTransferFrom(from, to, tokenId, \"\") */\n      jump\t// in\n    tag_124:\n        /* \"contracts/ERC721.sol\":6717:6893  function safeTransferFrom(\r... */\n      pop\n      pop\n      pop\n      jump\t// out\n        /* \"contracts/ERC721.sol\":1921:2102  function ownerOf(uint tokenId) public view override returns (address owner) {\r... */\n    tag_53:\n        /* \"contracts/ERC721.sol\":1982:1995  address owner */\n      0x00\n        /* \"contracts/ERC721.sol\":2016:2023  _owners */\n      0x02\n        /* \"contracts/ERC721.sol\":2016:2032  _owners[tokenId] */\n      0x00\n        /* \"contracts/ERC721.sol\":2024:2031  tokenId */\n      dup4\n        /* \"contracts/ERC721.sol\":2016:2032  _owners[tokenId] */\n      dup2\n      mstore\n      0x20\n      add\n      swap1\n      dup2\n      mstore\n      0x20\n      add\n      0x00\n      keccak256\n      0x00\n      swap1\n      sload\n      swap1\n      0x0100\n      exp\n      swap1\n      div\n      0xffffffffffffffffffffffffffffffffffffffff\n      and\n        /* \"contracts/ERC721.sol\":2008:2032  owner = _owners[tokenId] */\n      swap1\n      pop\n        /* \"contracts/ERC721.sol\":2068:2069  0 */\n      0x00\n        /* \"contracts/ERC721.sol\":2051:2070  owner != address(0) */\n      0xffffffffffffffffffffffffffffffffffffffff\n      and\n        /* \"contracts/ERC721.sol\":2051:2056  owner */\n      dup2\n        /* \"contracts/ERC721.sol\":2051:2070  owner != address(0) */\n      0xffffffffffffffffffffffffffffffffffffffff\n      and\n      eq\n      iszero\n        /* \"contracts/ERC721.sol\":2043:2094  require(owner != address(0), \"token doesn't exist\") */\n      tag_126\n      jumpi\n      mload(0x40)\n      0x08c379a000000000000000000000000000000000000000000000000000000000\n      dup2\n      mstore\n      0x04\n      add\n      tag_127\n      swap1\n      tag_96\n      jump\t// in\n    tag_127:\n      mload(0x40)\n      dup1\n      swap2\n      sub\n      swap1\n      revert\n    tag_126:\n        /* \"contracts/ERC721.sol\":1921:2102  function ownerOf(uint tokenId) public view override returns (address owner) {\r... */\n      swap2\n      swap1\n      pop\n      jump\t// out\n        /* \"contracts/ERC721.sol\":1658:1835  function balanceOf(address owner) external view override returns (uint) {\r... */\n    tag_58:\n        /* \"contracts/ERC721.sol\":1724:1728  uint */\n      0x00\n        /* \"contracts/ERC721.sol\":1766:1767  0 */\n      dup1\n        /* \"contracts/ERC721.sol\":1749:1768  owner != address(0) */\n      0xffffffffffffffffffffffffffffffffffffffff\n      and\n        /* \"contracts/ERC721.sol\":1749:1754  owner */\n      dup3\n        /* \"contracts/ERC721.sol\":1749:1768  owner != address(0) */\n      0xffffffffffffffffffffffffffffffffffffffff\n      and\n      eq\n      iszero\n        /* \"contracts/ERC721.sol\":1741:1793  require(owner != address(0), \"owner = zero address\") */\n      tag_129\n      jumpi\n      mload(0x40)\n      0x08c379a000000000000000000000000000000000000000000000000000000000\n      dup2\n      mstore\n      0x04\n      add\n      tag_130\n      swap1\n      tag_131\n      jump\t// in\n    tag_130:\n      mload(0x40)\n      dup1\n      swap2\n      sub\n      swap1\n      revert\n    tag_129:\n        /* \"contracts/ERC721.sol\":1811:1820  _balances */\n      0x03\n        /* \"contracts/ERC721.sol\":1811:1827  _balances[owner] */\n      0x00\n        /* \"contracts/ERC721.sol\":1821:1826  owner */\n      dup4\n        /* \"contracts/ERC721.sol\":1811:1827  _balances[owner] */\n      0xffffffffffffffffffffffffffffffffffffffff\n      and\n      0xffffffffffffffffffffffffffffffffffffffff\n      and\n      dup2\n      mstore\n      0x20\n      add\n      swap1\n      dup2\n      mstore\n      0x20\n      add\n      0x00\n      keccak256\n      sload\n        /* \"contracts/ERC721.sol\":1804:1827  return _balances[owner] */\n      swap1\n      pop\n        /* \"contracts/ERC721.sol\":1658:1835  function balanceOf(address owner) external view override returns (uint) {\r... */\n      swap2\n      swap1\n      pop\n      jump\t// out\n        /* \"contracts/ERC721.sol\":427:456  string public override symbol */\n    tag_62:\n      0x01\n      dup1\n      sload\n      tag_132\n      swap1\n      tag_88\n      jump\t// in\n    tag_132:\n      dup1\n      0x1f\n      add\n      0x20\n      dup1\n      swap2\n      div\n      mul\n      0x20\n      add\n      mload(0x40)\n      swap1\n      dup2\n      add\n      0x40\n      mstore\n      dup1\n      swap3\n      swap2\n      swap1\n      dup2\n      dup2\n      mstore\n      0x20\n      add\n      dup3\n      dup1\n      sload\n      tag_133\n      swap1\n      tag_88\n      jump\t// in\n    tag_133:\n      dup1\n      iszero\n      tag_134\n      jumpi\n      dup1\n      0x1f\n      lt\n      tag_135\n      jumpi\n      0x0100\n      dup1\n      dup4\n      sload\n      div\n      mul\n      dup4\n      mstore\n      swap2\n      0x20\n      add\n      swap2\n      jump(tag_134)\n    tag_135:\n      dup3\n      add\n      swap2\n      swap1\n      0x00\n      mstore\n      keccak256(0x00, 0x20)\n      swap1\n    tag_136:\n      dup2\n      sload\n      dup2\n      mstore\n      swap1\n      0x01\n      add\n      swap1\n      0x20\n      add\n      dup1\n      dup4\n      gt\n      tag_136\n      jumpi\n      dup3\n      swap1\n      sub\n      0x1f\n      and\n      dup3\n      add\n      swap2\n    tag_134:\n      pop\n      pop\n      pop\n      pop\n      pop\n      dup2\n      jump\t// out\n        /* \"contracts/ERC721.sol\":2586:2796  function setApprovalForAll(address operator, bool approved) external override {\r... */\n    tag_67:\n        /* \"contracts/ERC721.sol\":2718:2726  approved */\n      dup1\n        /* \"contracts/ERC721.sol\":2675:2693  _operatorApprovals */\n      0x05\n        /* \"contracts/ERC721.sol\":2675:2705  _operatorApprovals[msg.sender] */\n      0x00\n        /* \"contracts/ERC721.sol\":2694:2704  msg.sender */\n      caller\n        /* \"contracts/ERC721.sol\":2675:2705  _operatorApprovals[msg.sender] */\n      0xffffffffffffffffffffffffffffffffffffffff\n      and\n      0xffffffffffffffffffffffffffffffffffffffff\n      and\n      dup2\n      mstore\n      0x20\n      add\n      swap1\n      dup2\n      mstore\n      0x20\n      add\n      0x00\n      keccak256\n        /* \"contracts/ERC721.sol\":2675:2715  _operatorApprovals[msg.sender][operator] */\n      0x00\n        /* \"contracts/ERC721.sol\":2706:2714  operator */\n      dup5\n        /* \"contracts/ERC721.sol\":2675:2715  _operatorApprovals[msg.sender][operator] */\n      0xffffffffffffffffffffffffffffffffffffffff\n      and\n      0xffffffffffffffffffffffffffffffffffffffff\n      and\n      dup2\n      mstore\n      0x20\n      add\n      swap1\n      dup2\n      mstore\n      0x20\n      add\n      0x00\n      keccak256\n      0x00\n        /* \"contracts/ERC721.sol\":2675:2726  _operatorApprovals[msg.sender][operator] = approved */\n      0x0100\n      exp\n      dup2\n      sload\n      dup2\n      0xff\n      mul\n      not\n      and\n      swap1\n      dup4\n      iszero\n      iszero\n      mul\n      or\n      swap1\n      sstore\n      pop\n        /* \"contracts/ERC721.sol\":2769:2777  operator */\n      dup2\n        /* \"contracts/ERC721.sol\":2742:2788  ApprovalForAll(msg.sender, operator, approved) */\n      0xffffffffffffffffffffffffffffffffffffffff\n      and\n        /* \"contracts/ERC721.sol\":2757:2767  msg.sender */\n      caller\n        /* \"contracts/ERC721.sol\":2742:2788  ApprovalForAll(msg.sender, operator, approved) */\n      0xffffffffffffffffffffffffffffffffffffffff\n      and\n      0x17307eab39ab6107e8899845ad3d59bd9653f200f220920489ca2b5937696c31\n        /* \"contracts/ERC721.sol\":2779:2787  approved */\n      dup4\n        /* \"contracts/ERC721.sol\":2742:2788  ApprovalForAll(msg.sender, operator, approved) */\n      mload(0x40)\n      tag_138\n      swap2\n      swap1\n      tag_26\n      jump\t// in\n    tag_138:\n      mload(0x40)\n      dup1\n      swap2\n      sub\n      swap1\n      log3\n        /* \"contracts/ERC721.sol\":2586:2796  function setApprovalForAll(address operator, bool approved) external override {\r... */\n      pop\n      pop\n      jump\t// out\n        /* \"contracts/ERC721.sol\":6290:6672  function safeTransferFrom(\r... */\n    tag_71:\n        /* \"contracts/ERC721.sol\":6446:6459  address owner */\n      0x00\n        /* \"contracts/ERC721.sol\":6462:6478  ownerOf(tokenId) */\n      tag_140\n        /* \"contracts/ERC721.sol\":6470:6477  tokenId */\n      dup4\n        /* \"contracts/ERC721.sol\":6462:6469  ownerOf */\n      tag_53\n        /* \"contracts/ERC721.sol\":6462:6478  ownerOf(tokenId) */\n      jump\t// in\n    tag_140:\n        /* \"contracts/ERC721.sol\":6446:6478  address owner = ownerOf(tokenId) */\n      swap1\n      pop\n        /* \"contracts/ERC721.sol\":6511:6557  _isApprovedOrOwner(owner, msg.sender, tokenId) */\n      tag_141\n        /* \"contracts/ERC721.sol\":6530:6535  owner */\n      dup2\n        /* \"contracts/ERC721.sol\":6537:6547  msg.sender */\n      caller\n        /* \"contracts/ERC721.sol\":6549:6556  tokenId */\n      dup6\n        /* \"contracts/ERC721.sol\":6511:6529  _isApprovedOrOwner */\n      tag_110\n        /* \"contracts/ERC721.sol\":6511:6557  _isApprovedOrOwner(owner, msg.sender, tokenId) */\n      jump\t// in\n    tag_141:\n        /* \"contracts/ERC721.sol\":6489:6607  require(\r... */\n      tag_142\n      jumpi\n      mload(0x40)\n      0x08c379a000000000000000000000000000000000000000000000000000000000\n      dup2\n      mstore\n      0x04\n      add\n      tag_143\n      swap1\n      tag_113\n      jump\t// in\n    tag_143:\n      mload(0x40)\n      dup1\n      swap2\n      sub\n      swap1\n      revert\n    tag_142:\n        /* \"contracts/ERC721.sol\":6618:6664  _safeTransfer(owner, from, to, tokenId, _data) */\n      tag_144\n        /* \"contracts/ERC721.sol\":6632:6637  owner */\n      dup2\n        /* \"contracts/ERC721.sol\":6639:6643  from */\n      dup7\n        /* \"contracts/ERC721.sol\":6645:6647  to */\n      dup7\n        /* \"contracts/ERC721.sol\":6649:6656  tokenId */\n      dup7\n        /* \"contracts/ERC721.sol\":6658:6663  _data */\n      dup7\n        /* \"contracts/ERC721.sol\":6618:6631  _safeTransfer */\n      tag_145\n        /* \"contracts/ERC721.sol\":6618:6664  _safeTransfer(owner, from, to, tokenId, _data) */\n      jump\t// in\n    tag_144:\n        /* \"contracts/ERC721.sol\":6290:6672  function safeTransferFrom(\r... */\n      pop\n      pop\n      pop\n      pop\n      pop\n      jump\t// out\n        /* \"contracts/PenERC721.sol\":133:160  uint public MAX_APES = 1000 */\n    tag_73:\n      sload(0x06)\n      dup2\n      jump\t// out\n        /* \"contracts/ERC721.sol\":9185:9501  function tokenURI(uint256 tokenId) public view virtual override returns (string memory) {\r... */\n    tag_77:\n        /* \"contracts/ERC721.sol\":9258:9271  string memory */\n      0x60\n        /* \"contracts/ERC721.sol\":9320:9321  0 */\n      0x00\n        /* \"contracts/ERC721.sol\":9292:9322  _owners[tokenId] != address(0) */\n      0xffffffffffffffffffffffffffffffffffffffff\n      and\n        /* \"contracts/ERC721.sol\":9292:9299  _owners */\n      0x02\n        /* \"contracts/ERC721.sol\":9292:9308  _owners[tokenId] */\n      0x00\n        /* \"contracts/ERC721.sol\":9300:9307  tokenId */\n      dup5\n        /* \"contracts/ERC721.sol\":9292:9308  _owners[tokenId] */\n      dup2\n      mstore\n      0x20\n      add\n      swap1\n      dup2\n      mstore\n      0x20\n      add\n      0x00\n      keccak256\n      0x00\n      swap1\n      sload\n      swap1\n      0x0100\n      exp\n      swap1\n      div\n      0xffffffffffffffffffffffffffffffffffffffff\n      and\n        /* \"contracts/ERC721.sol\":9292:9322  _owners[tokenId] != address(0) */\n      0xffffffffffffffffffffffffffffffffffffffff\n      and\n      eq\n      iszero\n        /* \"contracts/ERC721.sol\":9284:9342  require(_owners[tokenId] != address(0), \"Token Not Exist\") */\n      tag_147\n      jumpi\n      mload(0x40)\n      0x08c379a000000000000000000000000000000000000000000000000000000000\n      dup2\n      mstore\n      0x04\n      add\n      tag_148\n      swap1\n      tag_149\n      jump\t// in\n    tag_148:\n      mload(0x40)\n      dup1\n      swap2\n      sub\n      swap1\n      revert\n    tag_147:\n        /* \"contracts/ERC721.sol\":9355:9376  string memory baseURI */\n      0x00\n        /* \"contracts/ERC721.sol\":9379:9389  _baseURI() */\n      tag_150\n        /* \"contracts/ERC721.sol\":9379:9387  _baseURI */\n      tag_151\n        /* \"contracts/ERC721.sol\":9379:9389  _baseURI() */\n      jump\t// in\n    tag_150:\n        /* \"contracts/ERC721.sol\":9355:9389  string memory baseURI = _baseURI() */\n      swap1\n      pop\n        /* \"contracts/ERC721.sol\":9431:9432  0 */\n      0x00\n        /* \"contracts/ERC721.sol\":9413:9420  baseURI */\n      dup2\n        /* \"contracts/ERC721.sol\":9407:9428  bytes(baseURI).length */\n      mload\n        /* \"contracts/ERC721.sol\":9407:9432  bytes(baseURI).length > 0 */\n      gt\n        /* \"contracts/ERC721.sol\":9407:9493  bytes(baseURI).length > 0 ? string(abi.encodePacked(baseURI, tokenId.toString())) : \"\" */\n      tag_152\n      jumpi\n      mload(0x40)\n      dup1\n      0x20\n      add\n      0x40\n      mstore\n      dup1\n      0x00\n      dup2\n      mstore\n      pop\n      jump(tag_153)\n    tag_152:\n        /* \"contracts/ERC721.sol\":9459:9466  baseURI */\n      dup1\n        /* \"contracts/ERC721.sol\":9468:9486  tokenId.toString() */\n      tag_154\n        /* \"contracts/ERC721.sol\":9468:9475  tokenId */\n      dup5\n        /* \"contracts/ERC721.sol\":9468:9484  tokenId.toString */\n      tag_155\n        /* \"contracts/ERC721.sol\":9468:9486  tokenId.toString() */\n      jump\t// in\n    tag_154:\n        /* \"contracts/ERC721.sol\":9442:9487  abi.encodePacked(baseURI, tokenId.toString()) */\n      add(0x20, mload(0x40))\n      tag_156\n      swap3\n      swap2\n      swap1\n      tag_157\n      jump\t// in\n    tag_156:\n      mload(0x40)\n      0x20\n      dup2\n      dup4\n      sub\n      sub\n      dup2\n      mstore\n      swap1\n      0x40\n      mstore\n        /* \"contracts/ERC721.sol\":9407:9493  bytes(baseURI).length > 0 ? string(abi.encodePacked(baseURI, tokenId.toString())) : \"\" */\n    tag_153:\n        /* \"contracts/ERC721.sol\":9400:9493  return bytes(baseURI).length > 0 ? string(abi.encodePacked(baseURI, tokenId.toString())) : \"\" */\n      swap2\n      pop\n      pop\n        /* \"contracts/ERC721.sol\":9185:9501  function tokenURI(uint256 tokenId) public view virtual override returns (string memory) {\r... */\n      swap2\n      swap1\n      pop\n      jump\t// out\n        /* \"contracts/ERC721.sol\":2254:2453  function isApprovedForAll(address owner, address operator)\r... */\n    tag_82:\n        /* \"contracts/ERC721.sol\":2381:2385  bool */\n      0x00\n        /* \"contracts/ERC721.sol\":2410:2428  _operatorApprovals */\n      0x05\n        /* \"contracts/ERC721.sol\":2410:2435  _operatorApprovals[owner] */\n      0x00\n        /* \"contracts/ERC721.sol\":2429:2434  owner */\n      dup5\n        /* \"contracts/ERC721.sol\":2410:2435  _operatorApprovals[owner] */\n      0xffffffffffffffffffffffffffffffffffffffff\n      and\n      0xffffffffffffffffffffffffffffffffffffffff\n      and\n      dup2\n      mstore\n      0x20\n      add\n      swap1\n      dup2\n      mstore\n      0x20\n      add\n      0x00\n      keccak256\n        /* \"contracts/ERC721.sol\":2410:2445  _operatorApprovals[owner][operator] */\n      0x00\n        /* \"contracts/ERC721.sol\":2436:2444  operator */\n      dup4\n        /* \"contracts/ERC721.sol\":2410:2445  _operatorApprovals[owner][operator] */\n      0xffffffffffffffffffffffffffffffffffffffff\n      and\n      0xffffffffffffffffffffffffffffffffffffffff\n      and\n      dup2\n      mstore\n      0x20\n      add\n      swap1\n      dup2\n      mstore\n      0x20\n      add\n      0x00\n      keccak256\n      0x00\n      swap1\n      sload\n      swap1\n      0x0100\n      exp\n      swap1\n      div\n      0xff\n      and\n        /* \"contracts/ERC721.sol\":2403:2445  return _operatorApprovals[owner][operator] */\n      swap1\n      pop\n        /* \"contracts/ERC721.sol\":2254:2453  function isApprovedForAll(address owner, address operator)\r... */\n      swap3\n      swap2\n      pop\n      pop\n      jump\t// out\n        /* \"contracts/ERC721.sol\":3232:3425  function _approve(\r... */\n    tag_106:\n        /* \"contracts/ERC721.sol\":3371:3373  to */\n      dup2\n        /* \"contracts/ERC721.sol\":3344:3359  _tokenApprovals */\n      0x04\n        /* \"contracts/ERC721.sol\":3344:3368  _tokenApprovals[tokenId] */\n      0x00\n        /* \"contracts/ERC721.sol\":3360:3367  tokenId */\n      dup4\n        /* \"contracts/ERC721.sol\":3344:3368  _tokenApprovals[tokenId] */\n      dup2\n      mstore\n      0x20\n      add\n      swap1\n      dup2\n      mstore\n      0x20\n      add\n      0x00\n      keccak256\n      0x00\n        /* \"contracts/ERC721.sol\":3344:3373  _tokenApprovals[tokenId] = to */\n      0x0100\n      exp\n      dup2\n      sload\n      dup2\n      0xffffffffffffffffffffffffffffffffffffffff\n      mul\n      not\n      and\n      swap1\n      dup4\n      0xffffffffffffffffffffffffffffffffffffffff\n      and\n      mul\n      or\n      swap1\n      sstore\n      pop\n        /* \"contracts/ERC721.sol\":3409:3416  tokenId */\n      dup1\n        /* \"contracts/ERC721.sol\":3405:3407  to */\n      dup3\n        /* \"contracts/ERC721.sol\":3389:3417  Approval(owner, to, tokenId) */\n      0xffffffffffffffffffffffffffffffffffffffff\n      and\n        /* \"contracts/ERC721.sol\":3398:3403  owner */\n      dup5\n        /* \"contracts/ERC721.sol\":3389:3417  Approval(owner, to, tokenId) */\n      0xffffffffffffffffffffffffffffffffffffffff\n      and\n      0x8c5be1e5ebec7d5bd14f71427d1e84f3dd0314c0f7b2291e5b200ac8c7c3b925\n      mload(0x40)\n      mload(0x40)\n      dup1\n      swap2\n      sub\n      swap1\n      log4\n        /* \"contracts/ERC721.sol\":3232:3425  function _approve(\r... */\n      pop\n      pop\n      pop\n      jump\t// out\n        /* \"contracts/ERC721.sol\":4049:4332  function _isApprovedOrOwner(\r... */\n    tag_110:\n        /* \"contracts/ERC721.sol\":4179:4183  bool */\n      0x00\n        /* \"contracts/ERC721.sol\":4215:4220  owner */\n      dup4\n        /* \"contracts/ERC721.sol\":4204:4220  spender == owner */\n      0xffffffffffffffffffffffffffffffffffffffff\n      and\n        /* \"contracts/ERC721.sol\":4204:4211  spender */\n      dup4\n        /* \"contracts/ERC721.sol\":4204:4220  spender == owner */\n      0xffffffffffffffffffffffffffffffffffffffff\n      and\n      eq\n        /* \"contracts/ERC721.sol\":4204:4272  spender == owner ||\r... */\n      dup1\n      tag_161\n      jumpi\n      pop\n        /* \"contracts/ERC721.sol\":4265:4272  spender */\n      dup3\n        /* \"contracts/ERC721.sol\":4237:4272  _tokenApprovals[tokenId] == spender */\n      0xffffffffffffffffffffffffffffffffffffffff\n      and\n        /* \"contracts/ERC721.sol\":4237:4252  _tokenApprovals */\n      0x04\n        /* \"contracts/ERC721.sol\":4237:4261  _tokenApprovals[tokenId] */\n      0x00\n        /* \"contracts/ERC721.sol\":4253:4260  tokenId */\n      dup5\n        /* \"contracts/ERC721.sol\":4237:4261  _tokenApprovals[tokenId] */\n      dup2\n      mstore\n      0x20\n      add\n      swap1\n      dup2\n      mstore\n      0x20\n      add\n      0x00\n      keccak256\n      0x00\n      swap1\n      sload\n      swap1\n      0x0100\n      exp\n      swap1\n      div\n      0xffffffffffffffffffffffffffffffffffffffff\n      and\n        /* \"contracts/ERC721.sol\":4237:4272  _tokenApprovals[tokenId] == spender */\n      0xffffffffffffffffffffffffffffffffffffffff\n      and\n      eq\n        /* \"contracts/ERC721.sol\":4204:4272  spender == owner ||\r... */\n    tag_161:\n        /* \"contracts/ERC721.sol\":4204:4323  spender == owner ||\r... */\n      dup1\n      tag_162\n      jumpi\n      pop\n        /* \"contracts/ERC721.sol\":4289:4307  _operatorApprovals */\n      0x05\n        /* \"contracts/ERC721.sol\":4289:4314  _operatorApprovals[owner] */\n      0x00\n        /* \"contracts/ERC721.sol\":4308:4313  owner */\n      dup6\n        /* \"contracts/ERC721.sol\":4289:4314  _operatorApprovals[owner] */\n      0xffffffffffffffffffffffffffffffffffffffff\n      and\n      0xffffffffffffffffffffffffffffffffffffffff\n      and\n      dup2\n      mstore\n      0x20\n      add\n      swap1\n      dup2\n      mstore\n      0x20\n      add\n      0x00\n      keccak256\n        /* \"contracts/ERC721.sol\":4289:4323  _operatorApprovals[owner][spender] */\n      0x00\n        /* \"contracts/ERC721.sol\":4315:4322  spender */\n      dup5\n        /* \"contracts/ERC721.sol\":4289:4323  _operatorApprovals[owner][spender] */\n      0xffffffffffffffffffffffffffffffffffffffff\n      and\n      0xffffffffffffffffffffffffffffffffffffffff\n      and\n      dup2\n      mstore\n      0x20\n      add\n      swap1\n      dup2\n      mstore\n      0x20\n      add\n      0x00\n      keccak256\n      0x00\n      swap1\n      sload\n      swap1\n      0x0100\n      exp\n      swap1\n      div\n      0xff\n      and\n        /* \"contracts/ERC721.sol\":4204:4323  spender == owner ||\r... */\n    tag_162:\n        /* \"contracts/ERC721.sol\":4196:4324  return (spender == owner ||\r... */\n      swap1\n      pop\n        /* \"contracts/ERC721.sol\":4049:4332  function _isApprovedOrOwner(\r... */\n      swap4\n      swap3\n      pop\n      pop\n      pop\n      jump\t// out\n        /* \"contracts/ERC721.sol\":4561:4996  function _transfer(\r... */\n    tag_115:\n        /* \"contracts/ERC721.sol\":4713:4718  owner */\n      dup4\n        /* \"contracts/ERC721.sol\":4705:4718  from == owner */\n      0xffffffffffffffffffffffffffffffffffffffff\n      and\n        /* \"contracts/ERC721.sol\":4705:4709  from */\n      dup4\n        /* \"contracts/ERC721.sol\":4705:4718  from == owner */\n      0xffffffffffffffffffffffffffffffffffffffff\n      and\n      eq\n        /* \"contracts/ERC721.sol\":4697:4732  require(from == owner, \"not owner\") */\n      tag_164\n      jumpi\n      mload(0x40)\n      0x08c379a000000000000000000000000000000000000000000000000000000000\n      dup2\n      mstore\n      0x04\n      add\n      tag_165\n      swap1\n      tag_166\n      jump\t// in\n    tag_165:\n      mload(0x40)\n      dup1\n      swap2\n      sub\n      swap1\n      revert\n    tag_164:\n        /* \"contracts/ERC721.sol\":4765:4766  0 */\n      0x00\n        /* \"contracts/ERC721.sol\":4751:4767  to != address(0) */\n      0xffffffffffffffffffffffffffffffffffffffff\n      and\n        /* \"contracts/ERC721.sol\":4751:4753  to */\n      dup3\n        /* \"contracts/ERC721.sol\":4751:4767  to != address(0) */\n      0xffffffffffffffffffffffffffffffffffffffff\n      and\n      eq\n      iszero\n        /* \"contracts/ERC721.sol\":4743:4800  require(to != address(0), \"transfer to the zero address\") */\n      tag_167\n      jumpi\n      mload(0x40)\n      0x08c379a000000000000000000000000000000000000000000000000000000000\n      dup2\n      mstore\n      0x04\n      add\n      tag_168\n      swap1\n      tag_169\n      jump\t// in\n    tag_168:\n      mload(0x40)\n      dup1\n      swap2\n      sub\n      swap1\n      revert\n    tag_167:\n        /* \"contracts/ERC721.sol\":4813:4849  _approve(owner, address(0), tokenId) */\n      tag_170\n        /* \"contracts/ERC721.sol\":4822:4827  owner */\n      dup5\n        /* \"contracts/ERC721.sol\":4837:4838  0 */\n      0x00\n        /* \"contracts/ERC721.sol\":4841:4848  tokenId */\n      dup4\n        /* \"contracts/ERC721.sol\":4813:4821  _approve */\n      tag_106\n        /* \"contracts/ERC721.sol\":4813:4849  _approve(owner, address(0), tokenId) */\n      jump\t// in\n    tag_170:\n        /* \"contracts/ERC721.sol\":4881:4882  1 */\n      0x01\n        /* \"contracts/ERC721.sol\":4862:4871  _balances */\n      0x03\n        /* \"contracts/ERC721.sol\":4862:4877  _balances[from] */\n      0x00\n        /* \"contracts/ERC721.sol\":4872:4876  from */\n      dup6\n        /* \"contracts/ERC721.sol\":4862:4877  _balances[from] */\n      0xffffffffffffffffffffffffffffffffffffffff\n      and\n      0xffffffffffffffffffffffffffffffffffffffff\n      and\n      dup2\n      mstore\n      0x20\n      add\n      swap1\n      dup2\n      mstore\n      0x20\n      add\n      0x00\n      keccak256\n      0x00\n        /* \"contracts/ERC721.sol\":4862:4882  _balances[from] -= 1 */\n      dup3\n      dup3\n      sload\n      tag_171\n      swap2\n      swap1\n      tag_172\n      jump\t// in\n    tag_171:\n      swap3\n      pop\n      pop\n      dup2\n      swap1\n      sstore\n      pop\n        /* \"contracts/ERC721.sol\":4910:4911  1 */\n      0x01\n        /* \"contracts/ERC721.sol\":4893:4902  _balances */\n      0x03\n        /* \"contracts/ERC721.sol\":4893:4906  _balances[to] */\n      0x00\n        /* \"contracts/ERC721.sol\":4903:4905  to */\n      dup5\n        /* \"contracts/ERC721.sol\":4893:4906  _balances[to] */\n      0xffffffffffffffffffffffffffffffffffffffff\n      and\n      0xffffffffffffffffffffffffffffffffffffffff\n      and\n      dup2\n      mstore\n      0x20\n      add\n      swap1\n      dup2\n      mstore\n      0x20\n      add\n      0x00\n      keccak256\n      0x00\n        /* \"contracts/ERC721.sol\":4893:4911  _balances[to] += 1 */\n      dup3\n      dup3\n      sload\n      tag_173\n      swap2\n      swap1\n      tag_174\n      jump\t// in\n    tag_173:\n      swap3\n      pop\n      pop\n      dup2\n      swap1\n      sstore\n      pop\n        /* \"contracts/ERC721.sol\":4941:4943  to */\n      dup2\n        /* \"contracts/ERC721.sol\":4922:4929  _owners */\n      0x02\n        /* \"contracts/ERC721.sol\":4922:4938  _owners[tokenId] */\n      0x00\n        /* \"contracts/ERC721.sol\":4930:4937  tokenId */\n      dup4\n        /* \"contracts/ERC721.sol\":4922:4938  _owners[tokenId] */\n      dup2\n      mstore\n      0x20\n      add\n      swap1\n      dup2\n      mstore\n      0x20\n      add\n      0x00\n      keccak256\n      0x00\n        /* \"contracts/ERC721.sol\":4922:4943  _owners[tokenId] = to */\n      0x0100\n      exp\n      dup2\n      sload\n      dup2\n      0xffffffffffffffffffffffffffffffffffffffff\n      mul\n      not\n      and\n      swap1\n      dup4\n      0xffffffffffffffffffffffffffffffffffffffff\n      and\n      mul\n      or\n      swap1\n      sstore\n      pop\n        /* \"contracts/ERC721.sol\":4980:4987  tokenId */\n      dup1\n        /* \"contracts/ERC721.sol\":4976:4978  to */\n      dup3\n        /* \"contracts/ERC721.sol\":4961:4988  Transfer(from, to, tokenId) */\n      0xffffffffffffffffffffffffffffffffffffffff\n      and\n        /* \"contracts/ERC721.sol\":4970:4974  from */\n      dup5\n        /* \"contracts/ERC721.sol\":4961:4988  Transfer(from, to, tokenId) */\n      0xffffffffffffffffffffffffffffffffffffffff\n      and\n      0xddf252ad1be2c89b69c2b068fc378daa952ba7f163c4a11628f55a4df523b3ef\n      mload(0x40)\n      mload(0x40)\n      dup1\n      swap2\n      sub\n      swap1\n      log4\n        /* \"contracts/ERC721.sol\":4561:4996  function _transfer(\r... */\n      pop\n      pop\n      pop\n      pop\n      jump\t// out\n        /* \"contracts/ERC721.sol\":7346:7660  function _mint(address to, uint tokenId) internal virtual {\r... */\n    tag_122:\n        /* \"contracts/ERC721.sol\":7437:7438  0 */\n      0x00\n        /* \"contracts/ERC721.sol\":7423:7439  to != address(0) */\n      0xffffffffffffffffffffffffffffffffffffffff\n      and\n        /* \"contracts/ERC721.sol\":7423:7425  to */\n      dup3\n        /* \"contracts/ERC721.sol\":7423:7439  to != address(0) */\n      0xffffffffffffffffffffffffffffffffffffffff\n      and\n      eq\n      iszero\n        /* \"contracts/ERC721.sol\":7415:7464  require(to != address(0), \"mint to zero address\") */\n      tag_176\n      jumpi\n      mload(0x40)\n      0x08c379a000000000000000000000000000000000000000000000000000000000\n      dup2\n      mstore\n      0x04\n      add\n      tag_177\n      swap1\n      tag_178\n      jump\t// in\n    tag_177:\n      mload(0x40)\n      dup1\n      swap2\n      sub\n      swap1\n      revert\n    tag_176:\n        /* \"contracts/ERC721.sol\":7511:7512  0 */\n      0x00\n        /* \"contracts/ERC721.sol\":7483:7513  _owners[tokenId] == address(0) */\n      0xffffffffffffffffffffffffffffffffffffffff\n      and\n        /* \"contracts/ERC721.sol\":7483:7490  _owners */\n      0x02\n        /* \"contracts/ERC721.sol\":7483:7499  _owners[tokenId] */\n      0x00\n        /* \"contracts/ERC721.sol\":7491:7498  tokenId */\n      dup4\n        /* \"contracts/ERC721.sol\":7483:7499  _owners[tokenId] */\n      dup2\n      mstore\n      0x20\n      add\n      swap1\n      dup2\n      mstore\n      0x20\n      add\n      0x00\n      keccak256\n      0x00\n      swap1\n      sload\n      swap1\n      0x0100\n      exp\n      swap1\n      div\n      0xffffffffffffffffffffffffffffffffffffffff\n      and\n        /* \"contracts/ERC721.sol\":7483:7513  _owners[tokenId] == address(0) */\n      0xffffffffffffffffffffffffffffffffffffffff\n      and\n      eq\n        /* \"contracts/ERC721.sol\":7475:7538  require(_owners[tokenId] == address(0), \"token already minted\") */\n      tag_179\n      jumpi\n      mload(0x40)\n      0x08c379a000000000000000000000000000000000000000000000000000000000\n      dup2\n      mstore\n      0x04\n      add\n      tag_180\n      swap1\n      tag_181\n      jump\t// in\n    tag_180:\n      mload(0x40)\n      dup1\n      swap2\n      sub\n      swap1\n      revert\n    tag_179:\n        /* \"contracts/ERC721.sol\":7568:7569  1 */\n      0x01\n        /* \"contracts/ERC721.sol\":7551:7560  _balances */\n      0x03\n        /* \"contracts/ERC721.sol\":7551:7564  _balances[to] */\n      0x00\n        /* \"contracts/ERC721.sol\":7561:7563  to */\n      dup5\n        /* \"contracts/ERC721.sol\":7551:7564  _balances[to] */\n      0xffffffffffffffffffffffffffffffffffffffff\n      and\n      0xffffffffffffffffffffffffffffffffffffffff\n      and\n      dup2\n      mstore\n      0x20\n      add\n      swap1\n      dup2\n      mstore\n      0x20\n      add\n      0x00\n      keccak256\n      0x00\n        /* \"contracts/ERC721.sol\":7551:7569  _balances[to] += 1 */\n      dup3\n      dup3\n      sload\n      tag_182\n      swap2\n      swap1\n      tag_174\n      jump\t// in\n    tag_182:\n      swap3\n      pop\n      pop\n      dup2\n      swap1\n      sstore\n      pop\n        /* \"contracts/ERC721.sol\":7599:7601  to */\n      dup2\n        /* \"contracts/ERC721.sol\":7580:7587  _owners */\n      0x02\n        /* \"contracts/ERC721.sol\":7580:7596  _owners[tokenId] */\n      0x00\n        /* \"contracts/ERC721.sol\":7588:7595  tokenId */\n      dup4\n        /* \"contracts/ERC721.sol\":7580:7596  _owners[tokenId] */\n      dup2\n      mstore\n      0x20\n      add\n      swap1\n      dup2\n      mstore\n      0x20\n      add\n      0x00\n      keccak256\n      0x00\n        /* \"contracts/ERC721.sol\":7580:7601  _owners[tokenId] = to */\n      0x0100\n      exp\n      dup2\n      sload\n      dup2\n      0xffffffffffffffffffffffffffffffffffffffff\n      mul\n      not\n      and\n      swap1\n      dup4\n      0xffffffffffffffffffffffffffffffffffffffff\n      and\n      mul\n      or\n      swap1\n      sstore\n      pop\n        /* \"contracts/ERC721.sol\":7644:7651  tokenId */\n      dup1\n        /* \"contracts/ERC721.sol\":7640:7642  to */\n      dup3\n        /* \"contracts/ERC721.sol\":7619:7652  Transfer(address(0), to, tokenId) */\n      0xffffffffffffffffffffffffffffffffffffffff\n      and\n        /* \"contracts/ERC721.sol\":7636:7637  0 */\n      0x00\n        /* \"contracts/ERC721.sol\":7619:7652  Transfer(address(0), to, tokenId) */\n      0xffffffffffffffffffffffffffffffffffffffff\n      and\n      0xddf252ad1be2c89b69c2b068fc378daa952ba7f163c4a11628f55a4df523b3ef\n      mload(0x40)\n      mload(0x40)\n      dup1\n      swap2\n      sub\n      swap1\n      log4\n        /* \"contracts/ERC721.sol\":7346:7660  function _mint(address to, uint tokenId) internal virtual {\r... */\n      pop\n      pop\n      jump\t// out\n        /* \"contracts/ERC721.sol\":5903:6174  function _safeTransfer(\r... */\n    tag_145:\n        /* \"contracts/ERC721.sol\":6072:6107  _transfer(owner, from, to, tokenId) */\n      tag_184\n        /* \"contracts/ERC721.sol\":6082:6087  owner */\n      dup6\n        /* \"contracts/ERC721.sol\":6089:6093  from */\n      dup6\n        /* \"contracts/ERC721.sol\":6095:6097  to */\n      dup6\n        /* \"contracts/ERC721.sol\":6099:6106  tokenId */\n      dup6\n        /* \"contracts/ERC721.sol\":6072:6081  _transfer */\n      tag_115\n        /* \"contracts/ERC721.sol\":6072:6107  _transfer(owner, from, to, tokenId) */\n      jump\t// in\n    tag_184:\n        /* \"contracts/ERC721.sol\":6118:6166  _checkOnERC721Received(from, to, tokenId, _data) */\n      tag_185\n        /* \"contracts/ERC721.sol\":6141:6145  from */\n      dup5\n        /* \"contracts/ERC721.sol\":6147:6149  to */\n      dup5\n        /* \"contracts/ERC721.sol\":6151:6158  tokenId */\n      dup5\n        /* \"contracts/ERC721.sol\":6160:6165  _data */\n      dup5\n        /* \"contracts/ERC721.sol\":6118:6140  _checkOnERC721Received */\n      tag_186\n        /* \"contracts/ERC721.sol\":6118:6166  _checkOnERC721Received(from, to, tokenId, _data) */\n      jump\t// in\n    tag_185:\n        /* \"contracts/ERC721.sol\":5903:6174  function _safeTransfer(\r... */\n      pop\n      pop\n      pop\n      pop\n      pop\n      jump\t// out\n        /* \"contracts/PenERC721.sol\":341:490  function _baseURI() internal pure override returns (string memory) {\r... */\n    tag_151:\n        /* \"contracts/PenERC721.sol\":393:406  string memory */\n      0x60\n        /* \"contracts/PenERC721.sol\":419:482  return \"ipfs://QmeSjSinHpPnmXmspMjwiXyN6zS4E9zccariGR3jxcaWtq/\" */\n      mload(0x40)\n      dup1\n      0x60\n      add\n      0x40\n      mstore\n      dup1\n      0x36\n      dup2\n      mstore\n      0x20\n      add\n      data_8382b382247cd07401a2ef2f394137c3f3b0972798bae0a9c78b0c261acbb56b\n      0x36\n      swap2\n      codecopy\n      swap1\n      pop\n        /* \"contracts/PenERC721.sol\":341:490  function _baseURI() internal pure override returns (string memory) {\r... */\n      swap1\n      jump\t// out\n        /* \"contracts/lib/String.sol\":407:1130  function toString(uint256 value) internal pure returns (string memory) {\r... */\n    tag_155:\n        /* \"contracts/lib/String.sol\":463:476  string memory */\n      0x60\n        /* \"contracts/lib/String.sol\":693:694  0 */\n      0x00\n        /* \"contracts/lib/String.sol\":684:689  value */\n      dup3\n        /* \"contracts/lib/String.sol\":684:694  value == 0 */\n      eq\n        /* \"contracts/lib/String.sol\":680:733  if (value == 0) {\r... */\n      iszero\n      tag_189\n      jumpi\n        /* \"contracts/lib/String.sol\":711:721  return \"0\" */\n      mload(0x40)\n      dup1\n      0x40\n      add\n      0x40\n      mstore\n      dup1\n      0x01\n      dup2\n      mstore\n      0x20\n      add\n      0x3000000000000000000000000000000000000000000000000000000000000000\n      dup2\n      mstore\n      pop\n      swap1\n      pop\n      jump(tag_188)\n        /* \"contracts/lib/String.sol\":680:733  if (value == 0) {\r... */\n    tag_189:\n        /* \"contracts/lib/String.sol\":743:755  uint256 temp */\n      0x00\n        /* \"contracts/lib/String.sol\":758:763  value */\n      dup3\n        /* \"contracts/lib/String.sol\":743:763  uint256 temp = value */\n      swap1\n      pop\n        /* \"contracts/lib/String.sol\":774:788  uint256 digits */\n      0x00\n        /* \"contracts/lib/String.sol\":799:877  while (temp != 0) {\r... */\n    tag_190:\n        /* \"contracts/lib/String.sol\":814:815  0 */\n      0x00\n        /* \"contracts/lib/String.sol\":806:810  temp */\n      dup3\n        /* \"contracts/lib/String.sol\":806:815  temp != 0 */\n      eq\n        /* \"contracts/lib/String.sol\":799:877  while (temp != 0) {\r... */\n      tag_191\n      jumpi\n        /* \"contracts/lib/String.sol\":832:840  digits++ */\n      dup1\n      dup1\n      tag_192\n      swap1\n      tag_193\n      jump\t// in\n    tag_192:\n      swap2\n      pop\n      pop\n        /* \"contracts/lib/String.sol\":863:865  10 */\n      0x0a\n        /* \"contracts/lib/String.sol\":855:865  temp /= 10 */\n      dup3\n      tag_194\n      swap2\n      swap1\n      tag_195\n      jump\t// in\n    tag_194:\n      swap2\n      pop\n        /* \"contracts/lib/String.sol\":799:877  while (temp != 0) {\r... */\n      jump(tag_190)\n    tag_191:\n        /* \"contracts/lib/String.sol\":887:906  bytes memory buffer */\n      0x00\n        /* \"contracts/lib/String.sol\":919:925  digits */\n      dup2\n        /* \"contracts/lib/String.sol\":909:926  new bytes(digits) */\n      0xffffffffffffffff\n      dup2\n      gt\n      iszero\n      tag_196\n      jumpi\n      mstore(0x00, 0x4e487b7100000000000000000000000000000000000000000000000000000000)\n      mstore(0x04, 0x41)\n      revert(0x00, 0x24)\n    tag_196:\n      mload(0x40)\n      swap1\n      dup1\n      dup3\n      mstore\n      dup1\n      0x1f\n      add\n      not(0x1f)\n      and\n      0x20\n      add\n      dup3\n      add\n      0x40\n      mstore\n      dup1\n      iszero\n      tag_197\n      jumpi\n      dup2\n      0x20\n      add\n      0x01\n      dup3\n      mul\n      dup1\n      calldatasize\n      dup4\n      calldatacopy\n      dup1\n      dup3\n      add\n      swap2\n      pop\n      pop\n      swap1\n      pop\n    tag_197:\n      pop\n        /* \"contracts/lib/String.sol\":887:926  bytes memory buffer = new bytes(digits) */\n      swap1\n      pop\n        /* \"contracts/lib/String.sol\":937:1091  while (value != 0) {\r... */\n    tag_198:\n        /* \"contracts/lib/String.sol\":953:954  0 */\n      0x00\n        /* \"contracts/lib/String.sol\":944:949  value */\n      dup6\n        /* \"contracts/lib/String.sol\":944:954  value != 0 */\n      eq\n        /* \"contracts/lib/String.sol\":937:1091  while (value != 0) {\r... */\n      tag_199\n      jumpi\n        /* \"contracts/lib/String.sol\":981:982  1 */\n      0x01\n        /* \"contracts/lib/String.sol\":971:982  digits -= 1 */\n      dup3\n      tag_200\n      swap2\n      swap1\n      tag_172\n      jump\t// in\n    tag_200:\n      swap2\n      pop\n        /* \"contracts/lib/String.sol\":1048:1050  10 */\n      0x0a\n        /* \"contracts/lib/String.sol\":1040:1045  value */\n      dup6\n        /* \"contracts/lib/String.sol\":1040:1050  value % 10 */\n      tag_201\n      swap2\n      swap1\n      tag_202\n      jump\t// in\n    tag_201:\n        /* \"contracts/lib/String.sol\":1027:1029  48 */\n      0x30\n        /* \"contracts/lib/String.sol\":1027:1051  48 + uint256(value % 10) */\n      tag_203\n      swap2\n      swap1\n      tag_174\n      jump\t// in\n    tag_203:\n        /* \"contracts/lib/String.sol\":1014:1053  bytes1(uint8(48 + uint256(value % 10))) */\n      0xf8\n      shl\n        /* \"contracts/lib/String.sol\":997:1003  buffer */\n      dup2\n        /* \"contracts/lib/String.sol\":1004:1010  digits */\n      dup4\n        /* \"contracts/lib/String.sol\":997:1011  buffer[digits] */\n      dup2\n      mload\n      dup2\n      lt\n      tag_204\n      jumpi\n      mstore(0x00, 0x4e487b7100000000000000000000000000000000000000000000000000000000)\n      mstore(0x04, 0x32)\n      revert(0x00, 0x24)\n    tag_204:\n      0x20\n      add\n      add\n        /* \"contracts/lib/String.sol\":997:1053  buffer[digits] = bytes1(uint8(48 + uint256(value % 10))) */\n      swap1\n      not(0xffffffffffffffffffffffffffffffffffffffffffffffffffffffffffffff)\n      and\n      swap1\n      dup2\n      0x00\n      byte\n      swap1\n      mstore8\n      pop\n        /* \"contracts/lib/String.sol\":1077:1079  10 */\n      0x0a\n        /* \"contracts/lib/String.sol\":1068:1079  value /= 10 */\n      dup6\n      tag_205\n      swap2\n      swap1\n      tag_195\n      jump\t// in\n    tag_205:\n      swap5\n      pop\n        /* \"contracts/lib/String.sol\":937:1091  while (value != 0) {\r... */\n      jump(tag_198)\n    tag_199:\n        /* \"contracts/lib/String.sol\":1115:1121  buffer */\n      dup1\n        /* \"contracts/lib/String.sol\":1101:1122  return string(buffer) */\n      swap4\n      pop\n      pop\n      pop\n      pop\n        /* \"contracts/lib/String.sol\":407:1130  function toString(uint256 value) internal pure returns (string memory) {\r... */\n    tag_188:\n      swap2\n      swap1\n      pop\n      jump\t// out\n        /* \"contracts/ERC721.sol\":8295:9092  function _checkOnERC721Received(address from, address to, uint256 tokenId, bytes memory data) private {\r... */\n    tag_186:\n        /* \"contracts/ERC721.sol\":8429:8430  0 */\n      0x00\n        /* \"contracts/ERC721.sol\":8412:8414  to */\n      dup4\n        /* \"contracts/ERC721.sol\":8412:8426  to.code.length */\n      0xffffffffffffffffffffffffffffffffffffffff\n      and\n      extcodesize\n        /* \"contracts/ERC721.sol\":8412:8430  to.code.length > 0 */\n      gt\n        /* \"contracts/ERC721.sol\":8408:9085  if (to.code.length > 0) {\r... */\n      iszero\n      tag_207\n      jumpi\n        /* \"contracts/ERC721.sol\":8467:8469  to */\n      dup3\n        /* \"contracts/ERC721.sol\":8451:8487  IERC721Receiver(to).onERC721Received */\n      0xffffffffffffffffffffffffffffffffffffffff\n      and\n      0x150b7a02\n        /* \"contracts/ERC721.sol\":8488:8498  msg.sender */\n      caller\n        /* \"contracts/ERC721.sol\":8500:8504  from */\n      dup7\n        /* \"contracts/ERC721.sol\":8506:8513  tokenId */\n      dup6\n        /* \"contracts/ERC721.sol\":8515:8519  data */\n      dup6\n        /* \"contracts/ERC721.sol\":8451:8520  IERC721Receiver(to).onERC721Received(msg.sender, from, tokenId, data) */\n      mload(0x40)\n      dup6\n      0xffffffff\n      and\n      0xe0\n      shl\n      dup2\n      mstore\n      0x04\n      add\n      tag_208\n      swap5\n      swap4\n      swap3\n      swap2\n      swap1\n      tag_209\n      jump\t// in\n    tag_208:\n      0x20\n      mload(0x40)\n      dup1\n      dup4\n      sub\n      dup2\n      0x00\n      dup8\n      dup1\n      extcodesize\n      iszero\n      dup1\n      iszero\n      tag_210\n      jumpi\n      0x00\n      dup1\n      revert\n    tag_210:\n      pop\n      gas\n      call\n      swap3\n      pop\n      pop\n      pop\n      dup1\n      iszero\n      tag_211\n      jumpi\n      pop\n      mload(0x40)\n      returndatasize\n      not(0x1f)\n      0x1f\n      dup3\n      add\n      and\n      dup3\n      add\n      dup1\n      0x40\n      mstore\n      pop\n      dup2\n      add\n      swap1\n      tag_212\n      swap2\n      swap1\n      tag_213\n      jump\t// in\n    tag_212:\n      0x01\n    tag_211:\n        /* \"contracts/ERC721.sol\":8447:9074  try IERC721Receiver(to).onERC721Received(msg.sender, from, tokenId, data) returns (bytes4 retval) {\r... */\n      tag_214\n      jumpi\n      returndatasize\n      dup1\n      0x00\n      dup2\n      eq\n      tag_219\n      jumpi\n      mload(0x40)\n      swap2\n      pop\n      and(add(returndatasize, 0x3f), not(0x1f))\n      dup3\n      add\n      0x40\n      mstore\n      returndatasize\n      dup3\n      mstore\n      returndatasize\n      0x00\n      0x20\n      dup5\n      add\n      returndatacopy\n      jump(tag_218)\n    tag_219:\n      0x60\n      swap2\n      pop\n    tag_218:\n      pop\n        /* \"contracts/ERC721.sol\":8780:8781  0 */\n      0x00\n        /* \"contracts/ERC721.sol\":8763:8769  reason */\n      dup2\n        /* \"contracts/ERC721.sol\":8763:8776  reason.length */\n      mload\n        /* \"contracts/ERC721.sol\":8763:8781  reason.length == 0 */\n      eq\n        /* \"contracts/ERC721.sol\":8759:9059  if (reason.length == 0) {\r... */\n      iszero\n      tag_220\n      jumpi\n        /* \"contracts/ERC721.sol\":8835:8837  to */\n      dup4\n        /* \"contracts/ERC721.sol\":8813:8838  ERC721InvalidReceiver(to) */\n      mload(0x40)\n      0x64a0ae9200000000000000000000000000000000000000000000000000000000\n      dup2\n      mstore\n      0x04\n      add\n      tag_221\n      swap2\n      swap1\n      tag_36\n      jump\t// in\n    tag_221:\n      mload(0x40)\n      dup1\n      swap2\n      sub\n      swap1\n      revert\n        /* \"contracts/ERC721.sol\":8759:9059  if (reason.length == 0) {\r... */\n    tag_220:\n        /* \"contracts/ERC721.sol\":9009:9015  reason */\n      dup1\n        /* \"contracts/ERC721.sol\":9003:9016  mload(reason) */\n      mload\n        /* \"contracts/ERC721.sol\":8994:9000  reason */\n      dup2\n        /* \"contracts/ERC721.sol\":8990:8992  32 */\n      0x20\n        /* \"contracts/ERC721.sol\":8986:9001  add(32, reason) */\n      add\n        /* \"contracts/ERC721.sol\":8979:9017  revert(add(32, reason), mload(reason)) */\n      revert\n        /* \"contracts/ERC721.sol\":8447:9074  try IERC721Receiver(to).onERC721Received(msg.sender, from, tokenId, data) returns (bytes4 retval) {\r... */\n    tag_214:\n        /* \"contracts/ERC721.sol\":8578:8619  IERC721Receiver.onERC721Received.selector */\n      shl(0xe0, 0x150b7a02)\n        /* \"contracts/ERC721.sol\":8568:8619  retval != IERC721Receiver.onERC721Received.selector */\n      not(0xffffffffffffffffffffffffffffffffffffffffffffffffffffffff)\n      and\n        /* \"contracts/ERC721.sol\":8568:8574  retval */\n      dup2\n        /* \"contracts/ERC721.sol\":8568:8619  retval != IERC721Receiver.onERC721Received.selector */\n      not(0xffffffffffffffffffffffffffffffffffffffffffffffffffffffff)\n      and\n      eq\n        /* \"contracts/ERC721.sol\":8564:8696  if (retval != IERC721Receiver.onERC721Received.selector) {\r... */\n      tag_224\n      jumpi\n        /* \"contracts/ERC721.sol\":8673:8675  to */\n      dup4\n        /* \"contracts/ERC721.sol\":8651:8676  ERC721InvalidReceiver(to) */\n      mload(0x40)\n      0x64a0ae9200000000000000000000000000000000000000000000000000000000\n      dup2\n      mstore\n      0x04\n      add\n      tag_225\n      swap2\n      swap1\n      tag_36\n      jump\t// in\n    tag_225:\n      mload(0x40)\n      dup1\n      swap2\n      sub\n      swap1\n      revert\n        /* \"contracts/ERC721.sol\":8564:8696  if (retval != IERC721Receiver.onERC721Received.selector) {\r... */\n    tag_224:\n        /* \"contracts/ERC721.sol\":8521:8711  returns (bytes4 retval) {\r... */\n      pop\n        /* \"contracts/ERC721.sol\":8408:9085  if (to.code.length > 0) {\r... */\n    tag_207:\n        /* \"contracts/ERC721.sol\":8295:9092  function _checkOnERC721Received(address from, address to, uint256 tokenId, bytes memory data) private {\r... */\n      pop\n      pop\n      pop\n      pop\n      jump\t// out\n        /* \"#utility.yul\":7:350   */\n    tag_227:\n        /* \"#utility.yul\":84:89   */\n      0x00\n        /* \"#utility.yul\":109:174   */\n      tag_229\n        /* \"#utility.yul\":125:173   */\n      tag_230\n        /* \"#utility.yul\":166:172   */\n      dup5\n        /* \"#utility.yul\":125:173   */\n      tag_231\n      jump\t// in\n    tag_230:\n        /* \"#utility.yul\":109:174   */\n      tag_232\n      jump\t// in\n    tag_229:\n        /* \"#utility.yul\":100:174   */\n      swap1\n      pop\n        /* \"#utility.yul\":197:203   */\n      dup3\n        /* \"#utility.yul\":190:195   */\n      dup2\n        /* \"#utility.yul\":183:204   */\n      mstore\n        /* \"#utility.yul\":235:239   */\n      0x20\n        /* \"#utility.yul\":228:233   */\n      dup2\n        /* \"#utility.yul\":224:240   */\n      add\n        /* \"#utility.yul\":273:276   */\n      dup5\n        /* \"#utility.yul\":264:270   */\n      dup5\n        /* \"#utility.yul\":259:262   */\n      dup5\n        /* \"#utility.yul\":255:271   */\n      add\n        /* \"#utility.yul\":252:277   */\n      gt\n        /* \"#utility.yul\":249:251   */\n      iszero\n      tag_233\n      jumpi\n        /* \"#utility.yul\":290:291   */\n      0x00\n        /* \"#utility.yul\":287:288   */\n      dup1\n        /* \"#utility.yul\":280:292   */\n      revert\n        /* \"#utility.yul\":249:251   */\n    tag_233:\n        /* \"#utility.yul\":303:344   */\n      tag_234\n        /* \"#utility.yul\":337:343   */\n      dup5\n        /* \"#utility.yul\":332:335   */\n      dup3\n        /* \"#utility.yul\":327:330   */\n      dup6\n        /* \"#utility.yul\":303:344   */\n      tag_235\n      jump\t// in\n    tag_234:\n        /* \"#utility.yul\":90:350   */\n      pop\n      swap4\n      swap3\n      pop\n      pop\n      pop\n      jump\t// out\n        /* \"#utility.yul\":356:495   */\n    tag_236:\n        /* \"#utility.yul\":402:407   */\n      0x00\n        /* \"#utility.yul\":440:446   */\n      dup2\n        /* \"#utility.yul\":427:447   */\n      calldataload\n        /* \"#utility.yul\":418:447   */\n      swap1\n      pop\n        /* \"#utility.yul\":456:489   */\n      tag_238\n        /* \"#utility.yul\":483:488   */\n      dup2\n        /* \"#utility.yul\":456:489   */\n      tag_239\n      jump\t// in\n    tag_238:\n        /* \"#utility.yul\":408:495   */\n      swap3\n      swap2\n      pop\n      pop\n      jump\t// out\n        /* \"#utility.yul\":501:634   */\n    tag_240:\n        /* \"#utility.yul\":544:549   */\n      0x00\n        /* \"#utility.yul\":582:588   */\n      dup2\n        /* \"#utility.yul\":569:589   */\n      calldataload\n        /* \"#utility.yul\":560:589   */\n      swap1\n      pop\n        /* \"#utility.yul\":598:628   */\n      tag_242\n        /* \"#utility.yul\":622:627   */\n      dup2\n        /* \"#utility.yul\":598:628   */\n      tag_243\n      jump\t// in\n    tag_242:\n        /* \"#utility.yul\":550:634   */\n      swap3\n      swap2\n      pop\n      pop\n      jump\t// out\n        /* \"#utility.yul\":640:777   */\n    tag_244:\n        /* \"#utility.yul\":685:690   */\n      0x00\n        /* \"#utility.yul\":723:729   */\n      dup2\n        /* \"#utility.yul\":710:730   */\n      calldataload\n        /* \"#utility.yul\":701:730   */\n      swap1\n      pop\n        /* \"#utility.yul\":739:771   */\n      tag_246\n        /* \"#utility.yul\":765:770   */\n      dup2\n        /* \"#utility.yul\":739:771   */\n      tag_247\n      jump\t// in\n    tag_246:\n        /* \"#utility.yul\":691:777   */\n      swap3\n      swap2\n      pop\n      pop\n      jump\t// out\n        /* \"#utility.yul\":783:924   */\n    tag_248:\n        /* \"#utility.yul\":839:844   */\n      0x00\n        /* \"#utility.yul\":870:876   */\n      dup2\n        /* \"#utility.yul\":864:877   */\n      mload\n        /* \"#utility.yul\":855:877   */\n      swap1\n      pop\n        /* \"#utility.yul\":886:918   */\n      tag_250\n        /* \"#utility.yul\":912:917   */\n      dup2\n        /* \"#utility.yul\":886:918   */\n      tag_247\n      jump\t// in\n    tag_250:\n        /* \"#utility.yul\":845:924   */\n      swap3\n      swap2\n      pop\n      pop\n      jump\t// out\n        /* \"#utility.yul\":943:1214   */\n    tag_251:\n        /* \"#utility.yul\":998:1003   */\n      0x00\n        /* \"#utility.yul\":1047:1050   */\n      dup3\n        /* \"#utility.yul\":1040:1044   */\n      0x1f\n        /* \"#utility.yul\":1032:1038   */\n      dup4\n        /* \"#utility.yul\":1028:1045   */\n      add\n        /* \"#utility.yul\":1024:1051   */\n      slt\n        /* \"#utility.yul\":1014:1016   */\n      tag_253\n      jumpi\n        /* \"#utility.yul\":1065:1066   */\n      0x00\n        /* \"#utility.yul\":1062:1063   */\n      dup1\n        /* \"#utility.yul\":1055:1067   */\n      revert\n        /* \"#utility.yul\":1014:1016   */\n    tag_253:\n        /* \"#utility.yul\":1105:1111   */\n      dup2\n        /* \"#utility.yul\":1092:1112   */\n      calldataload\n        /* \"#utility.yul\":1130:1208   */\n      tag_254\n        /* \"#utility.yul\":1204:1207   */\n      dup5\n        /* \"#utility.yul\":1196:1202   */\n      dup3\n        /* \"#utility.yul\":1189:1193   */\n      0x20\n        /* \"#utility.yul\":1181:1187   */\n      dup7\n        /* \"#utility.yul\":1177:1194   */\n      add\n        /* \"#utility.yul\":1130:1208   */\n      tag_227\n      jump\t// in\n    tag_254:\n        /* \"#utility.yul\":1121:1208   */\n      swap2\n      pop\n        /* \"#utility.yul\":1004:1214   */\n      pop\n      swap3\n      swap2\n      pop\n      pop\n      jump\t// out\n        /* \"#utility.yul\":1220:1359   */\n    tag_255:\n        /* \"#utility.yul\":1266:1271   */\n      0x00\n        /* \"#utility.yul\":1304:1310   */\n      dup2\n        /* \"#utility.yul\":1291:1311   */\n      calldataload\n        /* \"#utility.yul\":1282:1311   */\n      swap1\n      pop\n        /* \"#utility.yul\":1320:1353   */\n      tag_257\n        /* \"#utility.yul\":1347:1352   */\n      dup2\n        /* \"#utility.yul\":1320:1353   */\n      tag_258\n      jump\t// in\n    tag_257:\n        /* \"#utility.yul\":1272:1359   */\n      swap3\n      swap2\n      pop\n      pop\n      jump\t// out\n        /* \"#utility.yul\":1365:1627   */\n    tag_57:\n        /* \"#utility.yul\":1424:1430   */\n      0x00\n        /* \"#utility.yul\":1473:1475   */\n      0x20\n        /* \"#utility.yul\":1461:1470   */\n      dup3\n        /* \"#utility.yul\":1452:1459   */\n      dup5\n        /* \"#utility.yul\":1448:1471   */\n      sub\n        /* \"#utility.yul\":1444:1476   */\n      slt\n        /* \"#utility.yul\":1441:1443   */\n      iszero\n      tag_260\n      jumpi\n        /* \"#utility.yul\":1489:1490   */\n      0x00\n        /* \"#utility.yul\":1486:1487   */\n      dup1\n        /* \"#utility.yul\":1479:1491   */\n      revert\n        /* \"#utility.yul\":1441:1443   */\n    tag_260:\n        /* \"#utility.yul\":1532:1533   */\n      0x00\n        /* \"#utility.yul\":1557:1610   */\n      tag_261\n        /* \"#utility.yul\":1602:1609   */\n      dup5\n        /* \"#utility.yul\":1593:1599   */\n      dup3\n        /* \"#utility.yul\":1582:1591   */\n      dup6\n        /* \"#utility.yul\":1578:1600   */\n      add\n        /* \"#utility.yul\":1557:1610   */\n      tag_236\n      jump\t// in\n    tag_261:\n        /* \"#utility.yul\":1547:1610   */\n      swap2\n      pop\n        /* \"#utility.yul\":1503:1620   */\n      pop\n        /* \"#utility.yul\":1431:1627   */\n      swap3\n      swap2\n      pop\n      pop\n      jump\t// out\n        /* \"#utility.yul\":1633:2040   */\n    tag_81:\n        /* \"#utility.yul\":1701:1707   */\n      0x00\n        /* \"#utility.yul\":1709:1715   */\n      dup1\n        /* \"#utility.yul\":1758:1760   */\n      0x40\n        /* \"#utility.yul\":1746:1755   */\n      dup4\n        /* \"#utility.yul\":1737:1744   */\n      dup6\n        /* \"#utility.yul\":1733:1756   */\n      sub\n        /* \"#utility.yul\":1729:1761   */\n      slt\n        /* \"#utility.yul\":1726:1728   */\n      iszero\n      tag_263\n      jumpi\n        /* \"#utility.yul\":1774:1775   */\n      0x00\n        /* \"#utility.yul\":1771:1772   */\n      dup1\n        /* \"#utility.yul\":1764:1776   */\n      revert\n        /* \"#utility.yul\":1726:1728   */\n    tag_263:\n        /* \"#utility.yul\":1817:1818   */\n      0x00\n        /* \"#utility.yul\":1842:1895   */\n      tag_264\n        /* \"#utility.yul\":1887:1894   */\n      dup6\n        /* \"#utility.yul\":1878:1884   */\n      dup3\n        /* \"#utility.yul\":1867:1876   */\n      dup7\n        /* \"#utility.yul\":1863:1885   */\n      add\n        /* \"#utility.yul\":1842:1895   */\n      tag_236\n      jump\t// in\n    tag_264:\n        /* \"#utility.yul\":1832:1895   */\n      swap3\n      pop\n        /* \"#utility.yul\":1788:1905   */\n      pop\n        /* \"#utility.yul\":1944:1946   */\n      0x20\n        /* \"#utility.yul\":1970:2023   */\n      tag_265\n        /* \"#utility.yul\":2015:2022   */\n      dup6\n        /* \"#utility.yul\":2006:2012   */\n      dup3\n        /* \"#utility.yul\":1995:2004   */\n      dup7\n        /* \"#utility.yul\":1991:2013   */\n      add\n        /* \"#utility.yul\":1970:2023   */\n      tag_236\n      jump\t// in\n    tag_265:\n        /* \"#utility.yul\":1960:2023   */\n      swap2\n      pop\n        /* \"#utility.yul\":1915:2033   */\n      pop\n        /* \"#utility.yul\":1716:2040   */\n      swap3\n      pop\n      swap3\n      swap1\n      pop\n      jump\t// out\n        /* \"#utility.yul\":2046:2598   */\n    tag_43:\n        /* \"#utility.yul\":2123:2129   */\n      0x00\n        /* \"#utility.yul\":2131:2137   */\n      dup1\n        /* \"#utility.yul\":2139:2145   */\n      0x00\n        /* \"#utility.yul\":2188:2190   */\n      0x60\n        /* \"#utility.yul\":2176:2185   */\n      dup5\n        /* \"#utility.yul\":2167:2174   */\n      dup7\n        /* \"#utility.yul\":2163:2186   */\n      sub\n        /* \"#utility.yul\":2159:2191   */\n      slt\n        /* \"#utility.yul\":2156:2158   */\n      iszero\n      tag_267\n      jumpi\n        /* \"#utility.yul\":2204:2205   */\n      0x00\n        /* \"#utility.yul\":2201:2202   */\n      dup1\n        /* \"#utility.yul\":2194:2206   */\n      revert\n        /* \"#utility.yul\":2156:2158   */\n    tag_267:\n        /* \"#utility.yul\":2247:2248   */\n      0x00\n        /* \"#utility.yul\":2272:2325   */\n      tag_268\n        /* \"#utility.yul\":2317:2324   */\n      dup7\n        /* \"#utility.yul\":2308:2314   */\n      dup3\n        /* \"#utility.yul\":2297:2306   */\n      dup8\n        /* \"#utility.yul\":2293:2315   */\n      add\n        /* \"#utility.yul\":2272:2325   */\n      tag_236\n      jump\t// in\n    tag_268:\n        /* \"#utility.yul\":2262:2325   */\n      swap4\n      pop\n        /* \"#utility.yul\":2218:2335   */\n      pop\n        /* \"#utility.yul\":2374:2376   */\n      0x20\n        /* \"#utility.yul\":2400:2453   */\n      tag_269\n        /* \"#utility.yul\":2445:2452   */\n      dup7\n        /* \"#utility.yul\":2436:2442   */\n      dup3\n        /* \"#utility.yul\":2425:2434   */\n      dup8\n        /* \"#utility.yul\":2421:2443   */\n      add\n        /* \"#utility.yul\":2400:2453   */\n      tag_236\n      jump\t// in\n    tag_269:\n        /* \"#utility.yul\":2390:2453   */\n      swap3\n      pop\n        /* \"#utility.yul\":2345:2463   */\n      pop\n        /* \"#utility.yul\":2502:2504   */\n      0x40\n        /* \"#utility.yul\":2528:2581   */\n      tag_270\n        /* \"#utility.yul\":2573:2580   */\n      dup7\n        /* \"#utility.yul\":2564:2570   */\n      dup3\n        /* \"#utility.yul\":2553:2562   */\n      dup8\n        /* \"#utility.yul\":2549:2571   */\n      add\n        /* \"#utility.yul\":2528:2581   */\n      tag_255\n      jump\t// in\n    tag_270:\n        /* \"#utility.yul\":2518:2581   */\n      swap2\n      pop\n        /* \"#utility.yul\":2473:2591   */\n      pop\n        /* \"#utility.yul\":2146:2598   */\n      swap3\n      pop\n      swap3\n      pop\n      swap3\n      jump\t// out\n        /* \"#utility.yul\":2604:3413   */\n    tag_70:\n        /* \"#utility.yul\":2699:2705   */\n      0x00\n        /* \"#utility.yul\":2707:2713   */\n      dup1\n        /* \"#utility.yul\":2715:2721   */\n      0x00\n        /* \"#utility.yul\":2723:2729   */\n      dup1\n        /* \"#utility.yul\":2772:2775   */\n      0x80\n        /* \"#utility.yul\":2760:2769   */\n      dup6\n        /* \"#utility.yul\":2751:2758   */\n      dup8\n        /* \"#utility.yul\":2747:2770   */\n      sub\n        /* \"#utility.yul\":2743:2776   */\n      slt\n        /* \"#utility.yul\":2740:2742   */\n      iszero\n      tag_272\n      jumpi\n        /* \"#utility.yul\":2789:2790   */\n      0x00\n        /* \"#utility.yul\":2786:2787   */\n      dup1\n        /* \"#utility.yul\":2779:2791   */\n      revert\n        /* \"#utility.yul\":2740:2742   */\n    tag_272:\n        /* \"#utility.yul\":2832:2833   */\n      0x00\n        /* \"#utility.yul\":2857:2910   */\n      tag_273\n        /* \"#utility.yul\":2902:2909   */\n      dup8\n        /* \"#utility.yul\":2893:2899   */\n      dup3\n        /* \"#utility.yul\":2882:2891   */\n      dup9\n        /* \"#utility.yul\":2878:2900   */\n      add\n        /* \"#utility.yul\":2857:2910   */\n      tag_236\n      jump\t// in\n    tag_273:\n        /* \"#utility.yul\":2847:2910   */\n      swap5\n      pop\n        /* \"#utility.yul\":2803:2920   */\n      pop\n        /* \"#utility.yul\":2959:2961   */\n      0x20\n        /* \"#utility.yul\":2985:3038   */\n      tag_274\n        /* \"#utility.yul\":3030:3037   */\n      dup8\n        /* \"#utility.yul\":3021:3027   */\n      dup3\n        /* \"#utility.yul\":3010:3019   */\n      dup9\n        /* \"#utility.yul\":3006:3028   */\n      add\n        /* \"#utility.yul\":2985:3038   */\n      tag_236\n      jump\t// in\n    tag_274:\n        /* \"#utility.yul\":2975:3038   */\n      swap4\n      pop\n        /* \"#utility.yul\":2930:3048   */\n      pop\n        /* \"#utility.yul\":3087:3089   */\n      0x40\n        /* \"#utility.yul\":3113:3166   */\n      tag_275\n        /* \"#utility.yul\":3158:3165   */\n      dup8\n        /* \"#utility.yul\":3149:3155   */\n      dup3\n        /* \"#utility.yul\":3138:3147   */\n      dup9\n        /* \"#utility.yul\":3134:3156   */\n      add\n        /* \"#utility.yul\":3113:3166   */\n      tag_255\n      jump\t// in\n    tag_275:\n        /* \"#utility.yul\":3103:3166   */\n      swap3\n      pop\n        /* \"#utility.yul\":3058:3176   */\n      pop\n        /* \"#utility.yul\":3243:3245   */\n      0x60\n        /* \"#utility.yul\":3232:3241   */\n      dup6\n        /* \"#utility.yul\":3228:3246   */\n      add\n        /* \"#utility.yul\":3215:3247   */\n      calldataload\n        /* \"#utility.yul\":3274:3292   */\n      0xffffffffffffffff\n        /* \"#utility.yul\":3266:3272   */\n      dup2\n        /* \"#utility.yul\":3263:3293   */\n      gt\n        /* \"#utility.yul\":3260:3262   */\n      iszero\n      tag_276\n      jumpi\n        /* \"#utility.yul\":3306:3307   */\n      0x00\n        /* \"#utility.yul\":3303:3304   */\n      dup1\n        /* \"#utility.yul\":3296:3308   */\n      revert\n        /* \"#utility.yul\":3260:3262   */\n    tag_276:\n        /* \"#utility.yul\":3334:3396   */\n      tag_277\n        /* \"#utility.yul\":3388:3395   */\n      dup8\n        /* \"#utility.yul\":3379:3385   */\n      dup3\n        /* \"#utility.yul\":3368:3377   */\n      dup9\n        /* \"#utility.yul\":3364:3386   */\n      add\n        /* \"#utility.yul\":3334:3396   */\n      tag_251\n      jump\t// in\n    tag_277:\n        /* \"#utility.yul\":3324:3396   */\n      swap2\n      pop\n        /* \"#utility.yul\":3186:3406   */\n      pop\n        /* \"#utility.yul\":2730:3413   */\n      swap3\n      swap6\n      swap2\n      swap5\n      pop\n      swap3\n      pop\n      jump\t// out\n        /* \"#utility.yul\":3419:3820   */\n    tag_66:\n        /* \"#utility.yul\":3484:3490   */\n      0x00\n        /* \"#utility.yul\":3492:3498   */\n      dup1\n        /* \"#utility.yul\":3541:3543   */\n      0x40\n        /* \"#utility.yul\":3529:3538   */\n      dup4\n        /* \"#utility.yul\":3520:3527   */\n      dup6\n        /* \"#utility.yul\":3516:3539   */\n      sub\n        /* \"#utility.yul\":3512:3544   */\n      slt\n        /* \"#utility.yul\":3509:3511   */\n      iszero\n      tag_279\n      jumpi\n        /* \"#utility.yul\":3557:3558   */\n      0x00\n        /* \"#utility.yul\":3554:3555   */\n      dup1\n        /* \"#utility.yul\":3547:3559   */\n      revert\n        /* \"#utility.yul\":3509:3511   */\n    tag_279:\n        /* \"#utility.yul\":3600:3601   */\n      0x00\n        /* \"#utility.yul\":3625:3678   */\n      tag_280\n        /* \"#utility.yul\":3670:3677   */\n      dup6\n        /* \"#utility.yul\":3661:3667   */\n      dup3\n        /* \"#utility.yul\":3650:3659   */\n      dup7\n        /* \"#utility.yul\":3646:3668   */\n      add\n        /* \"#utility.yul\":3625:3678   */\n      tag_236\n      jump\t// in\n    tag_280:\n        /* \"#utility.yul\":3615:3678   */\n      swap3\n      pop\n        /* \"#utility.yul\":3571:3688   */\n      pop\n        /* \"#utility.yul\":3727:3729   */\n      0x20\n        /* \"#utility.yul\":3753:3803   */\n      tag_281\n        /* \"#utility.yul\":3795:3802   */\n      dup6\n        /* \"#utility.yul\":3786:3792   */\n      dup3\n        /* \"#utility.yul\":3775:3784   */\n      dup7\n        /* \"#utility.yul\":3771:3793   */\n      add\n        /* \"#utility.yul\":3753:3803   */\n      tag_240\n      jump\t// in\n    tag_281:\n        /* \"#utility.yul\":3743:3803   */\n      swap2\n      pop\n        /* \"#utility.yul\":3698:3813   */\n      pop\n        /* \"#utility.yul\":3499:3820   */\n      swap3\n      pop\n      swap3\n      swap1\n      pop\n      jump\t// out\n        /* \"#utility.yul\":3826:4233   */\n    tag_39:\n        /* \"#utility.yul\":3894:3900   */\n      0x00\n        /* \"#utility.yul\":3902:3908   */\n      dup1\n        /* \"#utility.yul\":3951:3953   */\n      0x40\n        /* \"#utility.yul\":3939:3948   */\n      dup4\n        /* \"#utility.yul\":3930:3937   */\n      dup6\n        /* \"#utility.yul\":3926:3949   */\n      sub\n        /* \"#utility.yul\":3922:3954   */\n      slt\n        /* \"#utility.yul\":3919:3921   */\n      iszero\n      tag_283\n      jumpi\n        /* \"#utility.yul\":3967:3968   */\n      0x00\n        /* \"#utility.yul\":3964:3965   */\n      dup1\n        /* \"#utility.yul\":3957:3969   */\n      revert\n        /* \"#utility.yul\":3919:3921   */\n    tag_283:\n        /* \"#utility.yul\":4010:4011   */\n      0x00\n        /* \"#utility.yul\":4035:4088   */\n      tag_284\n        /* \"#utility.yul\":4080:4087   */\n      dup6\n        /* \"#utility.yul\":4071:4077   */\n      dup3\n        /* \"#utility.yul\":4060:4069   */\n      dup7\n        /* \"#utility.yul\":4056:4078   */\n      add\n        /* \"#utility.yul\":4035:4088   */\n      tag_236\n      jump\t// in\n    tag_284:\n        /* \"#utility.yul\":4025:4088   */\n      swap3\n      pop\n        /* \"#utility.yul\":3981:4098   */\n      pop\n        /* \"#utility.yul\":4137:4139   */\n      0x20\n        /* \"#utility.yul\":4163:4216   */\n      tag_285\n        /* \"#utility.yul\":4208:4215   */\n      dup6\n        /* \"#utility.yul\":4199:4205   */\n      dup3\n        /* \"#utility.yul\":4188:4197   */\n      dup7\n        /* \"#utility.yul\":4184:4206   */\n      add\n        /* \"#utility.yul\":4163:4216   */\n      tag_255\n      jump\t// in\n    tag_285:\n        /* \"#utility.yul\":4153:4216   */\n      swap2\n      pop\n        /* \"#utility.yul\":4108:4226   */\n      pop\n        /* \"#utility.yul\":3909:4233   */\n      swap3\n      pop\n      swap3\n      swap1\n      pop\n      jump\t// out\n        /* \"#utility.yul\":4239:4499   */\n    tag_23:\n        /* \"#utility.yul\":4297:4303   */\n      0x00\n        /* \"#utility.yul\":4346:4348   */\n      0x20\n        /* \"#utility.yul\":4334:4343   */\n      dup3\n        /* \"#utility.yul\":4325:4332   */\n      dup5\n        /* \"#utility.yul\":4321:4344   */\n      sub\n        /* \"#utility.yul\":4317:4349   */\n      slt\n        /* \"#utility.yul\":4314:4316   */\n      iszero\n      tag_287\n      jumpi\n        /* \"#utility.yul\":4362:4363   */\n      0x00\n        /* \"#utility.yul\":4359:4360   */\n      dup1\n        /* \"#utility.yul\":4352:4364   */\n      revert\n        /* \"#utility.yul\":4314:4316   */\n    tag_287:\n        /* \"#utility.yul\":4405:4406   */\n      0x00\n        /* \"#utility.yul\":4430:4482   */\n      tag_288\n        /* \"#utility.yul\":4474:4481   */\n      dup5\n        /* \"#utility.yul\":4465:4471   */\n      dup3\n        /* \"#utility.yul\":4454:4463   */\n      dup6\n        /* \"#utility.yul\":4450:4472   */\n      add\n        /* \"#utility.yul\":4430:4482   */\n      tag_244\n      jump\t// in\n    tag_288:\n        /* \"#utility.yul\":4420:4482   */\n      swap2\n      pop\n        /* \"#utility.yul\":4376:4492   */\n      pop\n        /* \"#utility.yul\":4304:4499   */\n      swap3\n      swap2\n      pop\n      pop\n      jump\t// out\n        /* \"#utility.yul\":4505:4787   */\n    tag_213:\n        /* \"#utility.yul\":4574:4580   */\n      0x00\n        /* \"#utility.yul\":4623:4625   */\n      0x20\n        /* \"#utility.yul\":4611:4620   */\n      dup3\n        /* \"#utility.yul\":4602:4609   */\n      dup5\n        /* \"#utility.yul\":4598:4621   */\n      sub\n        /* \"#utility.yul\":4594:4626   */\n      slt\n        /* \"#utility.yul\":4591:4593   */\n      iszero\n      tag_290\n      jumpi\n        /* \"#utility.yul\":4639:4640   */\n      0x00\n        /* \"#utility.yul\":4636:4637   */\n      dup1\n        /* \"#utility.yul\":4629:4641   */\n      revert\n        /* \"#utility.yul\":4591:4593   */\n    tag_290:\n        /* \"#utility.yul\":4682:4683   */\n      0x00\n        /* \"#utility.yul\":4707:4770   */\n      tag_291\n        /* \"#utility.yul\":4762:4769   */\n      dup5\n        /* \"#utility.yul\":4753:4759   */\n      dup3\n        /* \"#utility.yul\":4742:4751   */\n      dup6\n        /* \"#utility.yul\":4738:4760   */\n      add\n        /* \"#utility.yul\":4707:4770   */\n      tag_248\n      jump\t// in\n    tag_291:\n        /* \"#utility.yul\":4697:4770   */\n      swap2\n      pop\n        /* \"#utility.yul\":4653:4780   */\n      pop\n        /* \"#utility.yul\":4581:4787   */\n      swap3\n      swap2\n      pop\n      pop\n      jump\t// out\n        /* \"#utility.yul\":4793:5055   */\n    tag_33:\n        /* \"#utility.yul\":4852:4858   */\n      0x00\n        /* \"#utility.yul\":4901:4903   */\n      0x20\n        /* \"#utility.yul\":4889:4898   */\n      dup3\n        /* \"#utility.yul\":4880:4887   */\n      dup5\n        /* \"#utility.yul\":4876:4899   */\n      sub\n        /* \"#utility.yul\":4872:4904   */\n      slt\n        /* \"#utility.yul\":4869:4871   */\n      iszero\n      tag_293\n      jumpi\n        /* \"#utility.yul\":4917:4918   */\n      0x00\n        /* \"#utility.yul\":4914:4915   */\n      dup1\n        /* \"#utility.yul\":4907:4919   */\n      revert\n        /* \"#utility.yul\":4869:4871   */\n    tag_293:\n        /* \"#utility.yul\":4960:4961   */\n      0x00\n        /* \"#utility.yul\":4985:5038   */\n      tag_294\n        /* \"#utility.yul\":5030:5037   */\n      dup5\n        /* \"#utility.yul\":5021:5027   */\n      dup3\n        /* \"#utility.yul\":5010:5019   */\n      dup6\n        /* \"#utility.yul\":5006:5028   */\n      add\n        /* \"#utility.yul\":4985:5038   */\n      tag_255\n      jump\t// in\n    tag_294:\n        /* \"#utility.yul\":4975:5038   */\n      swap2\n      pop\n        /* \"#utility.yul\":4931:5048   */\n      pop\n        /* \"#utility.yul\":4859:5055   */\n      swap3\n      swap2\n      pop\n      pop\n      jump\t// out\n        /* \"#utility.yul\":5061:5179   */\n    tag_295:\n        /* \"#utility.yul\":5148:5172   */\n      tag_297\n        /* \"#utility.yul\":5166:5171   */\n      dup2\n        /* \"#utility.yul\":5148:5172   */\n      tag_298\n      jump\t// in\n    tag_297:\n        /* \"#utility.yul\":5143:5146   */\n      dup3\n        /* \"#utility.yul\":5136:5173   */\n      mstore\n        /* \"#utility.yul\":5126:5179   */\n      pop\n      pop\n      jump\t// out\n        /* \"#utility.yul\":5185:5294   */\n    tag_299:\n        /* \"#utility.yul\":5266:5287   */\n      tag_301\n        /* \"#utility.yul\":5281:5286   */\n      dup2\n        /* \"#utility.yul\":5266:5287   */\n      tag_302\n      jump\t// in\n    tag_301:\n        /* \"#utility.yul\":5261:5264   */\n      dup3\n        /* \"#utility.yul\":5254:5288   */\n      mstore\n        /* \"#utility.yul\":5244:5294   */\n      pop\n      pop\n      jump\t// out\n        /* \"#utility.yul\":5300:5660   */\n    tag_303:\n        /* \"#utility.yul\":5386:5389   */\n      0x00\n        /* \"#utility.yul\":5414:5452   */\n      tag_305\n        /* \"#utility.yul\":5446:5451   */\n      dup3\n        /* \"#utility.yul\":5414:5452   */\n      tag_306\n      jump\t// in\n    tag_305:\n        /* \"#utility.yul\":5468:5538   */\n      tag_307\n        /* \"#utility.yul\":5531:5537   */\n      dup2\n        /* \"#utility.yul\":5526:5529   */\n      dup6\n        /* \"#utility.yul\":5468:5538   */\n      tag_308\n      jump\t// in\n    tag_307:\n        /* \"#utility.yul\":5461:5538   */\n      swap4\n      pop\n        /* \"#utility.yul\":5547:5599   */\n      tag_309\n        /* \"#utility.yul\":5592:5598   */\n      dup2\n        /* \"#utility.yul\":5587:5590   */\n      dup6\n        /* \"#utility.yul\":5580:5584   */\n      0x20\n        /* \"#utility.yul\":5573:5578   */\n      dup7\n        /* \"#utility.yul\":5569:5585   */\n      add\n        /* \"#utility.yul\":5547:5599   */\n      tag_310\n      jump\t// in\n    tag_309:\n        /* \"#utility.yul\":5624:5653   */\n      tag_311\n        /* \"#utility.yul\":5646:5652   */\n      dup2\n        /* \"#utility.yul\":5624:5653   */\n      tag_312\n      jump\t// in\n    tag_311:\n        /* \"#utility.yul\":5619:5622   */\n      dup5\n        /* \"#utility.yul\":5615:5654   */\n      add\n        /* \"#utility.yul\":5608:5654   */\n      swap2\n      pop\n        /* \"#utility.yul\":5390:5660   */\n      pop\n      swap3\n      swap2\n      pop\n      pop\n      jump\t// out\n        /* \"#utility.yul\":5666:6030   */\n    tag_313:\n        /* \"#utility.yul\":5754:5757   */\n      0x00\n        /* \"#utility.yul\":5782:5821   */\n      tag_315\n        /* \"#utility.yul\":5815:5820   */\n      dup3\n        /* \"#utility.yul\":5782:5821   */\n      tag_316\n      jump\t// in\n    tag_315:\n        /* \"#utility.yul\":5837:5908   */\n      tag_317\n        /* \"#utility.yul\":5901:5907   */\n      dup2\n        /* \"#utility.yul\":5896:5899   */\n      dup6\n        /* \"#utility.yul\":5837:5908   */\n      tag_318\n      jump\t// in\n    tag_317:\n        /* \"#utility.yul\":5830:5908   */\n      swap4\n      pop\n        /* \"#utility.yul\":5917:5969   */\n      tag_319\n        /* \"#utility.yul\":5962:5968   */\n      dup2\n        /* \"#utility.yul\":5957:5960   */\n      dup6\n        /* \"#utility.yul\":5950:5954   */\n      0x20\n        /* \"#utility.yul\":5943:5948   */\n      dup7\n        /* \"#utility.yul\":5939:5955   */\n      add\n        /* \"#utility.yul\":5917:5969   */\n      tag_310\n      jump\t// in\n    tag_319:\n        /* \"#utility.yul\":5994:6023   */\n      tag_320\n        /* \"#utility.yul\":6016:6022   */\n      dup2\n        /* \"#utility.yul\":5994:6023   */\n      tag_312\n      jump\t// in\n    tag_320:\n        /* \"#utility.yul\":5989:5992   */\n      dup5\n        /* \"#utility.yul\":5985:6024   */\n      add\n        /* \"#utility.yul\":5978:6024   */\n      swap2\n      pop\n        /* \"#utility.yul\":5758:6030   */\n      pop\n      swap3\n      swap2\n      pop\n      pop\n      jump\t// out\n        /* \"#utility.yul\":6036:6413   */\n    tag_321:\n        /* \"#utility.yul\":6142:6145   */\n      0x00\n        /* \"#utility.yul\":6170:6209   */\n      tag_323\n        /* \"#utility.yul\":6203:6208   */\n      dup3\n        /* \"#utility.yul\":6170:6209   */\n      tag_316\n      jump\t// in\n    tag_323:\n        /* \"#utility.yul\":6225:6314   */\n      tag_324\n        /* \"#utility.yul\":6307:6313   */\n      dup2\n        /* \"#utility.yul\":6302:6305   */\n      dup6\n        /* \"#utility.yul\":6225:6314   */\n      tag_325\n      jump\t// in\n    tag_324:\n        /* \"#utility.yul\":6218:6314   */\n      swap4\n      pop\n        /* \"#utility.yul\":6323:6375   */\n      tag_326\n        /* \"#utility.yul\":6368:6374   */\n      dup2\n        /* \"#utility.yul\":6363:6366   */\n      dup6\n        /* \"#utility.yul\":6356:6360   */\n      0x20\n        /* \"#utility.yul\":6349:6354   */\n      dup7\n        /* \"#utility.yul\":6345:6361   */\n      add\n        /* \"#utility.yul\":6323:6375   */\n      tag_310\n      jump\t// in\n    tag_326:\n        /* \"#utility.yul\":6400:6406   */\n      dup1\n        /* \"#utility.yul\":6395:6398   */\n      dup5\n        /* \"#utility.yul\":6391:6407   */\n      add\n        /* \"#utility.yul\":6384:6407   */\n      swap2\n      pop\n        /* \"#utility.yul\":6146:6413   */\n      pop\n      swap3\n      swap2\n      pop\n      pop\n      jump\t// out\n        /* \"#utility.yul\":6419:6785   */\n    tag_327:\n        /* \"#utility.yul\":6561:6564   */\n      0x00\n        /* \"#utility.yul\":6582:6649   */\n      tag_329\n        /* \"#utility.yul\":6646:6648   */\n      0x14\n        /* \"#utility.yul\":6641:6644   */\n      dup4\n        /* \"#utility.yul\":6582:6649   */\n      tag_318\n      jump\t// in\n    tag_329:\n        /* \"#utility.yul\":6575:6649   */\n      swap2\n      pop\n        /* \"#utility.yul\":6658:6751   */\n      tag_330\n        /* \"#utility.yul\":6747:6750   */\n      dup3\n        /* \"#utility.yul\":6658:6751   */\n      tag_331\n      jump\t// in\n    tag_330:\n        /* \"#utility.yul\":6776:6778   */\n      0x20\n        /* \"#utility.yul\":6771:6774   */\n      dup3\n        /* \"#utility.yul\":6767:6779   */\n      add\n        /* \"#utility.yul\":6760:6779   */\n      swap1\n      pop\n        /* \"#utility.yul\":6565:6785   */\n      swap2\n      swap1\n      pop\n      jump\t// out\n        /* \"#utility.yul\":6791:7157   */\n    tag_332:\n        /* \"#utility.yul\":6933:6936   */\n      0x00\n        /* \"#utility.yul\":6954:7021   */\n      tag_334\n        /* \"#utility.yul\":7018:7020   */\n      0x16\n        /* \"#utility.yul\":7013:7016   */\n      dup4\n        /* \"#utility.yul\":6954:7021   */\n      tag_318\n      jump\t// in\n    tag_334:\n        /* \"#utility.yul\":6947:7021   */\n      swap2\n      pop\n        /* \"#utility.yul\":7030:7123   */\n      tag_335\n        /* \"#utility.yul\":7119:7122   */\n      dup3\n        /* \"#utility.yul\":7030:7123   */\n      tag_336\n      jump\t// in\n    tag_335:\n        /* \"#utility.yul\":7148:7150   */\n      0x20\n        /* \"#utility.yul\":7143:7146   */\n      dup3\n        /* \"#utility.yul\":7139:7151   */\n      add\n        /* \"#utility.yul\":7132:7151   */\n      swap1\n      pop\n        /* \"#utility.yul\":6937:7157   */\n      swap2\n      swap1\n      pop\n      jump\t// out\n        /* \"#utility.yul\":7163:7529   */\n    tag_337:\n        /* \"#utility.yul\":7305:7308   */\n      0x00\n        /* \"#utility.yul\":7326:7393   */\n      tag_339\n        /* \"#utility.yul\":7390:7392   */\n      0x1c\n        /* \"#utility.yul\":7385:7388   */\n      dup4\n        /* \"#utility.yul\":7326:7393   */\n      tag_318\n      jump\t// in\n    tag_339:\n        /* \"#utility.yul\":7319:7393   */\n      swap2\n      pop\n        /* \"#utility.yul\":7402:7495   */\n      tag_340\n        /* \"#utility.yul\":7491:7494   */\n      dup3\n        /* \"#utility.yul\":7402:7495   */\n      tag_341\n      jump\t// in\n    tag_340:\n        /* \"#utility.yul\":7520:7522   */\n      0x20\n        /* \"#utility.yul\":7515:7518   */\n      dup3\n        /* \"#utility.yul\":7511:7523   */\n      add\n        /* \"#utility.yul\":7504:7523   */\n      swap1\n      pop\n        /* \"#utility.yul\":7309:7529   */\n      swap2\n      swap1\n      pop\n      jump\t// out\n        /* \"#utility.yul\":7535:7901   */\n    tag_342:\n        /* \"#utility.yul\":7677:7680   */\n      0x00\n        /* \"#utility.yul\":7698:7765   */\n      tag_344\n        /* \"#utility.yul\":7762:7764   */\n      0x19\n        /* \"#utility.yul\":7757:7760   */\n      dup4\n        /* \"#utility.yul\":7698:7765   */\n      tag_318\n      jump\t// in\n    tag_344:\n        /* \"#utility.yul\":7691:7765   */\n      swap2\n      pop\n        /* \"#utility.yul\":7774:7867   */\n      tag_345\n        /* \"#utility.yul\":7863:7866   */\n      dup3\n        /* \"#utility.yul\":7774:7867   */\n      tag_346\n      jump\t// in\n    tag_345:\n        /* \"#utility.yul\":7892:7894   */\n      0x20\n        /* \"#utility.yul\":7887:7890   */\n      dup3\n        /* \"#utility.yul\":7883:7895   */\n      add\n        /* \"#utility.yul\":7876:7895   */\n      swap1\n      pop\n        /* \"#utility.yul\":7681:7901   */\n      swap2\n      swap1\n      pop\n      jump\t// out\n        /* \"#utility.yul\":7907:8273   */\n    tag_347:\n        /* \"#utility.yul\":8049:8052   */\n      0x00\n        /* \"#utility.yul\":8070:8137   */\n      tag_349\n        /* \"#utility.yul\":8134:8136   */\n      0x1e\n        /* \"#utility.yul\":8129:8132   */\n      dup4\n        /* \"#utility.yul\":8070:8137   */\n      tag_318\n      jump\t// in\n    tag_349:\n        /* \"#utility.yul\":8063:8137   */\n      swap2\n      pop\n        /* \"#utility.yul\":8146:8239   */\n      tag_350\n        /* \"#utility.yul\":8235:8238   */\n      dup3\n        /* \"#utility.yul\":8146:8239   */\n      tag_351\n      jump\t// in\n    tag_350:\n        /* \"#utility.yul\":8264:8266   */\n      0x20\n        /* \"#utility.yul\":8259:8262   */\n      dup3\n        /* \"#utility.yul\":8255:8267   */\n      add\n        /* \"#utility.yul\":8248:8267   */\n      swap1\n      pop\n        /* \"#utility.yul\":8053:8273   */\n      swap2\n      swap1\n      pop\n      jump\t// out\n        /* \"#utility.yul\":8279:8645   */\n    tag_352:\n        /* \"#utility.yul\":8421:8424   */\n      0x00\n        /* \"#utility.yul\":8442:8509   */\n      tag_354\n        /* \"#utility.yul\":8506:8508   */\n      0x14\n        /* \"#utility.yul\":8501:8504   */\n      dup4\n        /* \"#utility.yul\":8442:8509   */\n      tag_318\n      jump\t// in\n    tag_354:\n        /* \"#utility.yul\":8435:8509   */\n      swap2\n      pop\n        /* \"#utility.yul\":8518:8611   */\n      tag_355\n        /* \"#utility.yul\":8607:8610   */\n      dup3\n        /* \"#utility.yul\":8518:8611   */\n      tag_356\n      jump\t// in\n    tag_355:\n        /* \"#utility.yul\":8636:8638   */\n      0x20\n        /* \"#utility.yul\":8631:8634   */\n      dup3\n        /* \"#utility.yul\":8627:8639   */\n      add\n        /* \"#utility.yul\":8620:8639   */\n      swap1\n      pop\n        /* \"#utility.yul\":8425:8645   */\n      swap2\n      swap1\n      pop\n      jump\t// out\n        /* \"#utility.yul\":8651:9017   */\n    tag_357:\n        /* \"#utility.yul\":8793:8796   */\n      0x00\n        /* \"#utility.yul\":8814:8881   */\n      tag_359\n        /* \"#utility.yul\":8878:8880   */\n      0x13\n        /* \"#utility.yul\":8873:8876   */\n      dup4\n        /* \"#utility.yul\":8814:8881   */\n      tag_318\n      jump\t// in\n    tag_359:\n        /* \"#utility.yul\":8807:8881   */\n      swap2\n      pop\n        /* \"#utility.yul\":8890:8983   */\n      tag_360\n        /* \"#utility.yul\":8979:8982   */\n      dup3\n        /* \"#utility.yul\":8890:8983   */\n      tag_361\n      jump\t// in\n    tag_360:\n        /* \"#utility.yul\":9008:9010   */\n      0x20\n        /* \"#utility.yul\":9003:9006   */\n      dup3\n        /* \"#utility.yul\":8999:9011   */\n      add\n        /* \"#utility.yul\":8992:9011   */\n      swap1\n      pop\n        /* \"#utility.yul\":8797:9017   */\n      swap2\n      swap1\n      pop\n      jump\t// out\n        /* \"#utility.yul\":9023:9389   */\n    tag_362:\n        /* \"#utility.yul\":9165:9168   */\n      0x00\n        /* \"#utility.yul\":9186:9253   */\n      tag_364\n        /* \"#utility.yul\":9250:9252   */\n      0x14\n        /* \"#utility.yul\":9245:9248   */\n      dup4\n        /* \"#utility.yul\":9186:9253   */\n      tag_318\n      jump\t// in\n    tag_364:\n        /* \"#utility.yul\":9179:9253   */\n      swap2\n      pop\n        /* \"#utility.yul\":9262:9355   */\n      tag_365\n        /* \"#utility.yul\":9351:9354   */\n      dup3\n        /* \"#utility.yul\":9262:9355   */\n      tag_366\n      jump\t// in\n    tag_365:\n        /* \"#utility.yul\":9380:9382   */\n      0x20\n        /* \"#utility.yul\":9375:9378   */\n      dup3\n        /* \"#utility.yul\":9371:9383   */\n      add\n        /* \"#utility.yul\":9364:9383   */\n      swap1\n      pop\n        /* \"#utility.yul\":9169:9389   */\n      swap2\n      swap1\n      pop\n      jump\t// out\n        /* \"#utility.yul\":9395:9761   */\n    tag_367:\n        /* \"#utility.yul\":9537:9540   */\n      0x00\n        /* \"#utility.yul\":9558:9625   */\n      tag_369\n        /* \"#utility.yul\":9622:9624   */\n      0x0f\n        /* \"#utility.yul\":9617:9620   */\n      dup4\n        /* \"#utility.yul\":9558:9625   */\n      tag_318\n      jump\t// in\n    tag_369:\n        /* \"#utility.yul\":9551:9625   */\n      swap2\n      pop\n        /* \"#utility.yul\":9634:9727   */\n      tag_370\n        /* \"#utility.yul\":9723:9726   */\n      dup3\n        /* \"#utility.yul\":9634:9727   */\n      tag_371\n      jump\t// in\n    tag_370:\n        /* \"#utility.yul\":9752:9754   */\n      0x20\n        /* \"#utility.yul\":9747:9750   */\n      dup3\n        /* \"#utility.yul\":9743:9755   */\n      add\n        /* \"#utility.yul\":9736:9755   */\n      swap1\n      pop\n        /* \"#utility.yul\":9541:9761   */\n      swap2\n      swap1\n      pop\n      jump\t// out\n        /* \"#utility.yul\":9767:10133   */\n    tag_372:\n        /* \"#utility.yul\":9909:9912   */\n      0x00\n        /* \"#utility.yul\":9930:9997   */\n      tag_374\n        /* \"#utility.yul\":9994:9996   */\n      0x14\n        /* \"#utility.yul\":9989:9992   */\n      dup4\n        /* \"#utility.yul\":9930:9997   */\n      tag_318\n      jump\t// in\n    tag_374:\n        /* \"#utility.yul\":9923:9997   */\n      swap2\n      pop\n        /* \"#utility.yul\":10006:10099   */\n      tag_375\n        /* \"#utility.yul\":10095:10098   */\n      dup3\n        /* \"#utility.yul\":10006:10099   */\n      tag_376\n      jump\t// in\n    tag_375:\n        /* \"#utility.yul\":10124:10126   */\n      0x20\n        /* \"#utility.yul\":10119:10122   */\n      dup3\n        /* \"#utility.yul\":10115:10127   */\n      add\n        /* \"#utility.yul\":10108:10127   */\n      swap1\n      pop\n        /* \"#utility.yul\":9913:10133   */\n      swap2\n      swap1\n      pop\n      jump\t// out\n        /* \"#utility.yul\":10139:10504   */\n    tag_377:\n        /* \"#utility.yul\":10281:10284   */\n      0x00\n        /* \"#utility.yul\":10302:10368   */\n      tag_379\n        /* \"#utility.yul\":10366:10367   */\n      0x09\n        /* \"#utility.yul\":10361:10364   */\n      dup4\n        /* \"#utility.yul\":10302:10368   */\n      tag_318\n      jump\t// in\n    tag_379:\n        /* \"#utility.yul\":10295:10368   */\n      swap2\n      pop\n        /* \"#utility.yul\":10377:10470   */\n      tag_380\n        /* \"#utility.yul\":10466:10469   */\n      dup3\n        /* \"#utility.yul\":10377:10470   */\n      tag_381\n      jump\t// in\n    tag_380:\n        /* \"#utility.yul\":10495:10497   */\n      0x20\n        /* \"#utility.yul\":10490:10493   */\n      dup3\n        /* \"#utility.yul\":10486:10498   */\n      add\n        /* \"#utility.yul\":10479:10498   */\n      swap1\n      pop\n        /* \"#utility.yul\":10285:10504   */\n      swap2\n      swap1\n      pop\n      jump\t// out\n        /* \"#utility.yul\":10510:10628   */\n    tag_382:\n        /* \"#utility.yul\":10597:10621   */\n      tag_384\n        /* \"#utility.yul\":10615:10620   */\n      dup2\n        /* \"#utility.yul\":10597:10621   */\n      tag_385\n      jump\t// in\n    tag_384:\n        /* \"#utility.yul\":10592:10595   */\n      dup3\n        /* \"#utility.yul\":10585:10622   */\n      mstore\n        /* \"#utility.yul\":10575:10628   */\n      pop\n      pop\n      jump\t// out\n        /* \"#utility.yul\":10634:11069   */\n    tag_157:\n        /* \"#utility.yul\":10814:10817   */\n      0x00\n        /* \"#utility.yul\":10836:10931   */\n      tag_387\n        /* \"#utility.yul\":10927:10930   */\n      dup3\n        /* \"#utility.yul\":10918:10924   */\n      dup6\n        /* \"#utility.yul\":10836:10931   */\n      tag_321\n      jump\t// in\n    tag_387:\n        /* \"#utility.yul\":10829:10931   */\n      swap2\n      pop\n        /* \"#utility.yul\":10948:11043   */\n      tag_388\n        /* \"#utility.yul\":11039:11042   */\n      dup3\n        /* \"#utility.yul\":11030:11036   */\n      dup5\n        /* \"#utility.yul\":10948:11043   */\n      tag_321\n      jump\t// in\n    tag_388:\n        /* \"#utility.yul\":10941:11043   */\n      swap2\n      pop\n        /* \"#utility.yul\":11060:11063   */\n      dup2\n        /* \"#utility.yul\":11053:11063   */\n      swap1\n      pop\n        /* \"#utility.yul\":10818:11069   */\n      swap4\n      swap3\n      pop\n      pop\n      pop\n      jump\t// out\n        /* \"#utility.yul\":11075:11297   */\n    tag_36:\n        /* \"#utility.yul\":11168:11172   */\n      0x00\n        /* \"#utility.yul\":11206:11208   */\n      0x20\n        /* \"#utility.yul\":11195:11204   */\n      dup3\n        /* \"#utility.yul\":11191:11209   */\n      add\n        /* \"#utility.yul\":11183:11209   */\n      swap1\n      pop\n        /* \"#utility.yul\":11219:11290   */\n      tag_390\n        /* \"#utility.yul\":11287:11288   */\n      0x00\n        /* \"#utility.yul\":11276:11285   */\n      dup4\n        /* \"#utility.yul\":11272:11289   */\n      add\n        /* \"#utility.yul\":11263:11269   */\n      dup5\n        /* \"#utility.yul\":11219:11290   */\n      tag_295\n      jump\t// in\n    tag_390:\n        /* \"#utility.yul\":11173:11297   */\n      swap3\n      swap2\n      pop\n      pop\n      jump\t// out\n        /* \"#utility.yul\":11303:11943   */\n    tag_209:\n        /* \"#utility.yul\":11498:11502   */\n      0x00\n        /* \"#utility.yul\":11536:11539   */\n      0x80\n        /* \"#utility.yul\":11525:11534   */\n      dup3\n        /* \"#utility.yul\":11521:11540   */\n      add\n        /* \"#utility.yul\":11513:11540   */\n      swap1\n      pop\n        /* \"#utility.yul\":11550:11621   */\n      tag_392\n        /* \"#utility.yul\":11618:11619   */\n      0x00\n        /* \"#utility.yul\":11607:11616   */\n      dup4\n        /* \"#utility.yul\":11603:11620   */\n      add\n        /* \"#utility.yul\":11594:11600   */\n      dup8\n        /* \"#utility.yul\":11550:11621   */\n      tag_295\n      jump\t// in\n    tag_392:\n        /* \"#utility.yul\":11631:11703   */\n      tag_393\n        /* \"#utility.yul\":11699:11701   */\n      0x20\n        /* \"#utility.yul\":11688:11697   */\n      dup4\n        /* \"#utility.yul\":11684:11702   */\n      add\n        /* \"#utility.yul\":11675:11681   */\n      dup7\n        /* \"#utility.yul\":11631:11703   */\n      tag_295\n      jump\t// in\n    tag_393:\n        /* \"#utility.yul\":11713:11785   */\n      tag_394\n        /* \"#utility.yul\":11781:11783   */\n      0x40\n        /* \"#utility.yul\":11770:11779   */\n      dup4\n        /* \"#utility.yul\":11766:11784   */\n      add\n        /* \"#utility.yul\":11757:11763   */\n      dup6\n        /* \"#utility.yul\":11713:11785   */\n      tag_382\n      jump\t// in\n    tag_394:\n        /* \"#utility.yul\":11832:11841   */\n      dup2\n        /* \"#utility.yul\":11826:11830   */\n      dup2\n        /* \"#utility.yul\":11822:11842   */\n      sub\n        /* \"#utility.yul\":11817:11819   */\n      0x60\n        /* \"#utility.yul\":11806:11815   */\n      dup4\n        /* \"#utility.yul\":11802:11820   */\n      add\n        /* \"#utility.yul\":11795:11843   */\n      mstore\n        /* \"#utility.yul\":11860:11936   */\n      tag_395\n        /* \"#utility.yul\":11931:11935   */\n      dup2\n        /* \"#utility.yul\":11922:11928   */\n      dup5\n        /* \"#utility.yul\":11860:11936   */\n      tag_303\n      jump\t// in\n    tag_395:\n        /* \"#utility.yul\":11852:11936   */\n      swap1\n      pop\n        /* \"#utility.yul\":11503:11943   */\n      swap6\n      swap5\n      pop\n      pop\n      pop\n      pop\n      pop\n      jump\t// out\n        /* \"#utility.yul\":11949:12159   */\n    tag_26:\n        /* \"#utility.yul\":12036:12040   */\n      0x00\n        /* \"#utility.yul\":12074:12076   */\n      0x20\n        /* \"#utility.yul\":12063:12072   */\n      dup3\n        /* \"#utility.yul\":12059:12077   */\n      add\n        /* \"#utility.yul\":12051:12077   */\n      swap1\n      pop\n        /* \"#utility.yul\":12087:12152   */\n      tag_397\n        /* \"#utility.yul\":12149:12150   */\n      0x00\n        /* \"#utility.yul\":12138:12147   */\n      dup4\n        /* \"#utility.yul\":12134:12151   */\n      add\n        /* \"#utility.yul\":12125:12131   */\n      dup5\n        /* \"#utility.yul\":12087:12152   */\n      tag_299\n      jump\t// in\n    tag_397:\n        /* \"#utility.yul\":12041:12159   */\n      swap3\n      swap2\n      pop\n      pop\n      jump\t// out\n        /* \"#utility.yul\":12165:12478   */\n    tag_30:\n        /* \"#utility.yul\":12278:12282   */\n      0x00\n        /* \"#utility.yul\":12316:12318   */\n      0x20\n        /* \"#utility.yul\":12305:12314   */\n      dup3\n        /* \"#utility.yul\":12301:12319   */\n      add\n        /* \"#utility.yul\":12293:12319   */\n      swap1\n      pop\n        /* \"#utility.yul\":12365:12374   */\n      dup2\n        /* \"#utility.yul\":12359:12363   */\n      dup2\n        /* \"#utility.yul\":12355:12375   */\n      sub\n        /* \"#utility.yul\":12351:12352   */\n      0x00\n        /* \"#utility.yul\":12340:12349   */\n      dup4\n        /* \"#utility.yul\":12336:12353   */\n      add\n        /* \"#utility.yul\":12329:12376   */\n      mstore\n        /* \"#utility.yul\":12393:12471   */\n      tag_399\n        /* \"#utility.yul\":12466:12470   */\n      dup2\n        /* \"#utility.yul\":12457:12463   */\n      dup5\n        /* \"#utility.yul\":12393:12471   */\n      tag_313\n      jump\t// in\n    tag_399:\n        /* \"#utility.yul\":12385:12471   */\n      swap1\n      pop\n        /* \"#utility.yul\":12283:12478   */\n      swap3\n      swap2\n      pop\n      pop\n      jump\t// out\n        /* \"#utility.yul\":12484:12903   */\n    tag_120:\n        /* \"#utility.yul\":12650:12654   */\n      0x00\n        /* \"#utility.yul\":12688:12690   */\n      0x20\n        /* \"#utility.yul\":12677:12686   */\n      dup3\n        /* \"#utility.yul\":12673:12691   */\n      add\n        /* \"#utility.yul\":12665:12691   */\n      swap1\n      pop\n        /* \"#utility.yul\":12737:12746   */\n      dup2\n        /* \"#utility.yul\":12731:12735   */\n      dup2\n        /* \"#utility.yul\":12727:12747   */\n      sub\n        /* \"#utility.yul\":12723:12724   */\n      0x00\n        /* \"#utility.yul\":12712:12721   */\n      dup4\n        /* \"#utility.yul\":12708:12725   */\n      add\n        /* \"#utility.yul\":12701:12748   */\n      mstore\n        /* \"#utility.yul\":12765:12896   */\n      tag_401\n        /* \"#utility.yul\":12891:12895   */\n      dup2\n        /* \"#utility.yul\":12765:12896   */\n      tag_327\n      jump\t// in\n    tag_401:\n        /* \"#utility.yul\":12757:12896   */\n      swap1\n      pop\n        /* \"#utility.yul\":12655:12903   */\n      swap2\n      swap1\n      pop\n      jump\t// out\n        /* \"#utility.yul\":12909:13328   */\n    tag_113:\n        /* \"#utility.yul\":13075:13079   */\n      0x00\n        /* \"#utility.yul\":13113:13115   */\n      0x20\n        /* \"#utility.yul\":13102:13111   */\n      dup3\n        /* \"#utility.yul\":13098:13116   */\n      add\n        /* \"#utility.yul\":13090:13116   */\n      swap1\n      pop\n        /* \"#utility.yul\":13162:13171   */\n      dup2\n        /* \"#utility.yul\":13156:13160   */\n      dup2\n        /* \"#utility.yul\":13152:13172   */\n      sub\n        /* \"#utility.yul\":13148:13149   */\n      0x00\n        /* \"#utility.yul\":13137:13146   */\n      dup4\n        /* \"#utility.yul\":13133:13150   */\n      add\n        /* \"#utility.yul\":13126:13173   */\n      mstore\n        /* \"#utility.yul\":13190:13321   */\n      tag_403\n        /* \"#utility.yul\":13316:13320   */\n      dup2\n        /* \"#utility.yul\":13190:13321   */\n      tag_332\n      jump\t// in\n    tag_403:\n        /* \"#utility.yul\":13182:13321   */\n      swap1\n      pop\n        /* \"#utility.yul\":13080:13328   */\n      swap2\n      swap1\n      pop\n      jump\t// out\n        /* \"#utility.yul\":13334:13753   */\n    tag_169:\n        /* \"#utility.yul\":13500:13504   */\n      0x00\n        /* \"#utility.yul\":13538:13540   */\n      0x20\n        /* \"#utility.yul\":13527:13536   */\n      dup3\n        /* \"#utility.yul\":13523:13541   */\n      add\n        /* \"#utility.yul\":13515:13541   */\n      swap1\n      pop\n        /* \"#utility.yul\":13587:13596   */\n      dup2\n        /* \"#utility.yul\":13581:13585   */\n      dup2\n        /* \"#utility.yul\":13577:13597   */\n      sub\n        /* \"#utility.yul\":13573:13574   */\n      0x00\n        /* \"#utility.yul\":13562:13571   */\n      dup4\n        /* \"#utility.yul\":13558:13575   */\n      add\n        /* \"#utility.yul\":13551:13598   */\n      mstore\n        /* \"#utility.yul\":13615:13746   */\n      tag_405\n        /* \"#utility.yul\":13741:13745   */\n      dup2\n        /* \"#utility.yul\":13615:13746   */\n      tag_337\n      jump\t// in\n    tag_405:\n        /* \"#utility.yul\":13607:13746   */\n      swap1\n      pop\n        /* \"#utility.yul\":13505:13753   */\n      swap2\n      swap1\n      pop\n      jump\t// out\n        /* \"#utility.yul\":13759:14178   */\n    tag_100:\n        /* \"#utility.yul\":13925:13929   */\n      0x00\n        /* \"#utility.yul\":13963:13965   */\n      0x20\n        /* \"#utility.yul\":13952:13961   */\n      dup3\n        /* \"#utility.yul\":13948:13966   */\n      add\n        /* \"#utility.yul\":13940:13966   */\n      swap1\n      pop\n        /* \"#utility.yul\":14012:14021   */\n      dup2\n        /* \"#utility.yul\":14006:14010   */\n      dup2\n        /* \"#utility.yul\":14002:14022   */\n      sub\n        /* \"#utility.yul\":13998:13999   */\n      0x00\n        /* \"#utility.yul\":13987:13996   */\n      dup4\n        /* \"#utility.yul\":13983:14000   */\n      add\n        /* \"#utility.yul\":13976:14023   */\n      mstore\n        /* \"#utility.yul\":14040:14171   */\n      tag_407\n        /* \"#utility.yul\":14166:14170   */\n      dup2\n        /* \"#utility.yul\":14040:14171   */\n      tag_342\n      jump\t// in\n    tag_407:\n        /* \"#utility.yul\":14032:14171   */\n      swap1\n      pop\n        /* \"#utility.yul\":13930:14178   */\n      swap2\n      swap1\n      pop\n      jump\t// out\n        /* \"#utility.yul\":14184:14603   */\n    tag_104:\n        /* \"#utility.yul\":14350:14354   */\n      0x00\n        /* \"#utility.yul\":14388:14390   */\n      0x20\n        /* \"#utility.yul\":14377:14386   */\n      dup3\n        /* \"#utility.yul\":14373:14391   */\n      add\n        /* \"#utility.yul\":14365:14391   */\n      swap1\n      pop\n        /* \"#utility.yul\":14437:14446   */\n      dup2\n        /* \"#utility.yul\":14431:14435   */\n      dup2\n        /* \"#utility.yul\":14427:14447   */\n      sub\n        /* \"#utility.yul\":14423:14424   */\n      0x00\n        /* \"#utility.yul\":14412:14421   */\n      dup4\n        /* \"#utility.yul\":14408:14425   */\n      add\n        /* \"#utility.yul\":14401:14448   */\n      mstore\n        /* \"#utility.yul\":14465:14596   */\n      tag_409\n        /* \"#utility.yul\":14591:14595   */\n      dup2\n        /* \"#utility.yul\":14465:14596   */\n      tag_347\n      jump\t// in\n    tag_409:\n        /* \"#utility.yul\":14457:14596   */\n      swap1\n      pop\n        /* \"#utility.yul\":14355:14603   */\n      swap2\n      swap1\n      pop\n      jump\t// out\n        /* \"#utility.yul\":14609:15028   */\n    tag_178:\n        /* \"#utility.yul\":14775:14779   */\n      0x00\n        /* \"#utility.yul\":14813:14815   */\n      0x20\n        /* \"#utility.yul\":14802:14811   */\n      dup3\n        /* \"#utility.yul\":14798:14816   */\n      add\n        /* \"#utility.yul\":14790:14816   */\n      swap1\n      pop\n        /* \"#utility.yul\":14862:14871   */\n      dup2\n        /* \"#utility.yul\":14856:14860   */\n      dup2\n        /* \"#utility.yul\":14852:14872   */\n      sub\n        /* \"#utility.yul\":14848:14849   */\n      0x00\n        /* \"#utility.yul\":14837:14846   */\n      dup4\n        /* \"#utility.yul\":14833:14850   */\n      add\n        /* \"#utility.yul\":14826:14873   */\n      mstore\n        /* \"#utility.yul\":14890:15021   */\n      tag_411\n        /* \"#utility.yul\":15016:15020   */\n      dup2\n        /* \"#utility.yul\":14890:15021   */\n      tag_352\n      jump\t// in\n    tag_411:\n        /* \"#utility.yul\":14882:15021   */\n      swap1\n      pop\n        /* \"#utility.yul\":14780:15028   */\n      swap2\n      swap1\n      pop\n      jump\t// out\n        /* \"#utility.yul\":15034:15453   */\n    tag_96:\n        /* \"#utility.yul\":15200:15204   */\n      0x00\n        /* \"#utility.yul\":15238:15240   */\n      0x20\n        /* \"#utility.yul\":15227:15236   */\n      dup3\n        /* \"#utility.yul\":15223:15241   */\n      add\n        /* \"#utility.yul\":15215:15241   */\n      swap1\n      pop\n        /* \"#utility.yul\":15287:15296   */\n      dup2\n        /* \"#utility.yul\":15281:15285   */\n      dup2\n        /* \"#utility.yul\":15277:15297   */\n      sub\n        /* \"#utility.yul\":15273:15274   */\n      0x00\n        /* \"#utility.yul\":15262:15271   */\n      dup4\n        /* \"#utility.yul\":15258:15275   */\n      add\n        /* \"#utility.yul\":15251:15298   */\n      mstore\n        /* \"#utility.yul\":15315:15446   */\n      tag_413\n        /* \"#utility.yul\":15441:15445   */\n      dup2\n        /* \"#utility.yul\":15315:15446   */\n      tag_357\n      jump\t// in\n    tag_413:\n        /* \"#utility.yul\":15307:15446   */\n      swap1\n      pop\n        /* \"#utility.yul\":15205:15453   */\n      swap2\n      swap1\n      pop\n      jump\t// out\n        /* \"#utility.yul\":15459:15878   */\n    tag_131:\n        /* \"#utility.yul\":15625:15629   */\n      0x00\n        /* \"#utility.yul\":15663:15665   */\n      0x20\n        /* \"#utility.yul\":15652:15661   */\n      dup3\n        /* \"#utility.yul\":15648:15666   */\n      add\n        /* \"#utility.yul\":15640:15666   */\n      swap1\n      pop\n        /* \"#utility.yul\":15712:15721   */\n      dup2\n        /* \"#utility.yul\":15706:15710   */\n      dup2\n        /* \"#utility.yul\":15702:15722   */\n      sub\n        /* \"#utility.yul\":15698:15699   */\n      0x00\n        /* \"#utility.yul\":15687:15696   */\n      dup4\n        /* \"#utility.yul\":15683:15700   */\n      add\n        /* \"#utility.yul\":15676:15723   */\n      mstore\n        /* \"#utility.yul\":15740:15871   */\n      tag_415\n        /* \"#utility.yul\":15866:15870   */\n      dup2\n        /* \"#utility.yul\":15740:15871   */\n      tag_362\n      jump\t// in\n    tag_415:\n        /* \"#utility.yul\":15732:15871   */\n      swap1\n      pop\n        /* \"#utility.yul\":15630:15878   */\n      swap2\n      swap1\n      pop\n      jump\t// out\n        /* \"#utility.yul\":15884:16303   */\n    tag_149:\n        /* \"#utility.yul\":16050:16054   */\n      0x00\n        /* \"#utility.yul\":16088:16090   */\n      0x20\n        /* \"#utility.yul\":16077:16086   */\n      dup3\n        /* \"#utility.yul\":16073:16091   */\n      add\n        /* \"#utility.yul\":16065:16091   */\n      swap1\n      pop\n        /* \"#utility.yul\":16137:16146   */\n      dup2\n        /* \"#utility.yul\":16131:16135   */\n      dup2\n        /* \"#utility.yul\":16127:16147   */\n      sub\n        /* \"#utility.yul\":16123:16124   */\n      0x00\n        /* \"#utility.yul\":16112:16121   */\n      dup4\n        /* \"#utility.yul\":16108:16125   */\n      add\n        /* \"#utility.yul\":16101:16148   */\n      mstore\n        /* \"#utility.yul\":16165:16296   */\n      tag_417\n        /* \"#utility.yul\":16291:16295   */\n      dup2\n        /* \"#utility.yul\":16165:16296   */\n      tag_367\n      jump\t// in\n    tag_417:\n        /* \"#utility.yul\":16157:16296   */\n      swap1\n      pop\n        /* \"#utility.yul\":16055:16303   */\n      swap2\n      swap1\n      pop\n      jump\t// out\n        /* \"#utility.yul\":16309:16728   */\n    tag_181:\n        /* \"#utility.yul\":16475:16479   */\n      0x00\n        /* \"#utility.yul\":16513:16515   */\n      0x20\n        /* \"#utility.yul\":16502:16511   */\n      dup3\n        /* \"#utility.yul\":16498:16516   */\n      add\n        /* \"#utility.yul\":16490:16516   */\n      swap1\n      pop\n        /* \"#utility.yul\":16562:16571   */\n      dup2\n        /* \"#utility.yul\":16556:16560   */\n      dup2\n        /* \"#utility.yul\":16552:16572   */\n      sub\n        /* \"#utility.yul\":16548:16549   */\n      0x00\n        /* \"#utility.yul\":16537:16546   */\n      dup4\n        /* \"#utility.yul\":16533:16550   */\n      add\n        /* \"#utility.yul\":16526:16573   */\n      mstore\n        /* \"#utility.yul\":16590:16721   */\n      tag_419\n        /* \"#utility.yul\":16716:16720   */\n      dup2\n        /* \"#utility.yul\":16590:16721   */\n      tag_372\n      jump\t// in\n    tag_419:\n        /* \"#utility.yul\":16582:16721   */\n      swap1\n      pop\n        /* \"#utility.yul\":16480:16728   */\n      swap2\n      swap1\n      pop\n      jump\t// out\n        /* \"#utility.yul\":16734:17153   */\n    tag_166:\n        /* \"#utility.yul\":16900:16904   */\n      0x00\n        /* \"#utility.yul\":16938:16940   */\n      0x20\n        /* \"#utility.yul\":16927:16936   */\n      dup3\n        /* \"#utility.yul\":16923:16941   */\n      add\n        /* \"#utility.yul\":16915:16941   */\n      swap1\n      pop\n        /* \"#utility.yul\":16987:16996   */\n      dup2\n        /* \"#utility.yul\":16981:16985   */\n      dup2\n        /* \"#utility.yul\":16977:16997   */\n      sub\n        /* \"#utility.yul\":16973:16974   */\n      0x00\n        /* \"#utility.yul\":16962:16971   */\n      dup4\n        /* \"#utility.yul\":16958:16975   */\n      add\n        /* \"#utility.yul\":16951:16998   */\n      mstore\n        /* \"#utility.yul\":17015:17146   */\n      tag_421\n        /* \"#utility.yul\":17141:17145   */\n      dup2\n        /* \"#utility.yul\":17015:17146   */\n      tag_377\n      jump\t// in\n    tag_421:\n        /* \"#utility.yul\":17007:17146   */\n      swap1\n      pop\n        /* \"#utility.yul\":16905:17153   */\n      swap2\n      swap1\n      pop\n      jump\t// out\n        /* \"#utility.yul\":17159:17381   */\n    tag_60:\n        /* \"#utility.yul\":17252:17256   */\n      0x00\n        /* \"#utility.yul\":17290:17292   */\n      0x20\n        /* \"#utility.yul\":17279:17288   */\n      dup3\n        /* \"#utility.yul\":17275:17293   */\n      add\n        /* \"#utility.yul\":17267:17293   */\n      swap1\n      pop\n        /* \"#utility.yul\":17303:17374   */\n      tag_423\n        /* \"#utility.yul\":17371:17372   */\n      0x00\n        /* \"#utility.yul\":17360:17369   */\n      dup4\n        /* \"#utility.yul\":17356:17373   */\n      add\n        /* \"#utility.yul\":17347:17353   */\n      dup5\n        /* \"#utility.yul\":17303:17374   */\n      tag_382\n      jump\t// in\n    tag_423:\n        /* \"#utility.yul\":17257:17381   */\n      swap3\n      swap2\n      pop\n      pop\n      jump\t// out\n        /* \"#utility.yul\":17387:17516   */\n    tag_232:\n        /* \"#utility.yul\":17421:17427   */\n      0x00\n        /* \"#utility.yul\":17448:17468   */\n      tag_425\n      tag_426\n      jump\t// in\n    tag_425:\n        /* \"#utility.yul\":17438:17468   */\n      swap1\n      pop\n        /* \"#utility.yul\":17477:17510   */\n      tag_427\n        /* \"#utility.yul\":17505:17509   */\n      dup3\n        /* \"#utility.yul\":17497:17503   */\n      dup3\n        /* \"#utility.yul\":17477:17510   */\n      tag_428\n      jump\t// in\n    tag_427:\n        /* \"#utility.yul\":17428:17516   */\n      swap2\n      swap1\n      pop\n      jump\t// out\n        /* \"#utility.yul\":17522:17597   */\n    tag_426:\n        /* \"#utility.yul\":17555:17561   */\n      0x00\n        /* \"#utility.yul\":17588:17590   */\n      0x40\n        /* \"#utility.yul\":17582:17591   */\n      mload\n        /* \"#utility.yul\":17572:17591   */\n      swap1\n      pop\n        /* \"#utility.yul\":17562:17597   */\n      swap1\n      jump\t// out\n        /* \"#utility.yul\":17603:17910   */\n    tag_231:\n        /* \"#utility.yul\":17664:17668   */\n      0x00\n        /* \"#utility.yul\":17754:17772   */\n      0xffffffffffffffff\n        /* \"#utility.yul\":17746:17752   */\n      dup3\n        /* \"#utility.yul\":17743:17773   */\n      gt\n        /* \"#utility.yul\":17740:17742   */\n      iszero\n      tag_431\n      jumpi\n        /* \"#utility.yul\":17776:17794   */\n      tag_432\n      tag_433\n      jump\t// in\n    tag_432:\n        /* \"#utility.yul\":17740:17742   */\n    tag_431:\n        /* \"#utility.yul\":17814:17843   */\n      tag_434\n        /* \"#utility.yul\":17836:17842   */\n      dup3\n        /* \"#utility.yul\":17814:17843   */\n      tag_312\n      jump\t// in\n    tag_434:\n        /* \"#utility.yul\":17806:17843   */\n      swap1\n      pop\n        /* \"#utility.yul\":17898:17902   */\n      0x20\n        /* \"#utility.yul\":17892:17896   */\n      dup2\n        /* \"#utility.yul\":17888:17903   */\n      add\n        /* \"#utility.yul\":17880:17903   */\n      swap1\n      pop\n        /* \"#utility.yul\":17669:17910   */\n      swap2\n      swap1\n      pop\n      jump\t// out\n        /* \"#utility.yul\":17916:18014   */\n    tag_306:\n        /* \"#utility.yul\":17967:17973   */\n      0x00\n        /* \"#utility.yul\":18001:18006   */\n      dup2\n        /* \"#utility.yul\":17995:18007   */\n      mload\n        /* \"#utility.yul\":17985:18007   */\n      swap1\n      pop\n        /* \"#utility.yul\":17974:18014   */\n      swap2\n      swap1\n      pop\n      jump\t// out\n        /* \"#utility.yul\":18020:18119   */\n    tag_316:\n        /* \"#utility.yul\":18072:18078   */\n      0x00\n        /* \"#utility.yul\":18106:18111   */\n      dup2\n        /* \"#utility.yul\":18100:18112   */\n      mload\n        /* \"#utility.yul\":18090:18112   */\n      swap1\n      pop\n        /* \"#utility.yul\":18079:18119   */\n      swap2\n      swap1\n      pop\n      jump\t// out\n        /* \"#utility.yul\":18125:18293   */\n    tag_308:\n        /* \"#utility.yul\":18208:18219   */\n      0x00\n        /* \"#utility.yul\":18242:18248   */\n      dup3\n        /* \"#utility.yul\":18237:18240   */\n      dup3\n        /* \"#utility.yul\":18230:18249   */\n      mstore\n        /* \"#utility.yul\":18282:18286   */\n      0x20\n        /* \"#utility.yul\":18277:18280   */\n      dup3\n        /* \"#utility.yul\":18273:18287   */\n      add\n        /* \"#utility.yul\":18258:18287   */\n      swap1\n      pop\n        /* \"#utility.yul\":18220:18293   */\n      swap3\n      swap2\n      pop\n      pop\n      jump\t// out\n        /* \"#utility.yul\":18299:18468   */\n    tag_318:\n        /* \"#utility.yul\":18383:18394   */\n      0x00\n        /* \"#utility.yul\":18417:18423   */\n      dup3\n        /* \"#utility.yul\":18412:18415   */\n      dup3\n        /* \"#utility.yul\":18405:18424   */\n      mstore\n        /* \"#utility.yul\":18457:18461   */\n      0x20\n        /* \"#utility.yul\":18452:18455   */\n      dup3\n        /* \"#utility.yul\":18448:18462   */\n      add\n        /* \"#utility.yul\":18433:18462   */\n      swap1\n      pop\n        /* \"#utility.yul\":18395:18468   */\n      swap3\n      swap2\n      pop\n      pop\n      jump\t// out\n        /* \"#utility.yul\":18474:18622   */\n    tag_325:\n        /* \"#utility.yul\":18576:18587   */\n      0x00\n        /* \"#utility.yul\":18613:18616   */\n      dup2\n        /* \"#utility.yul\":18598:18616   */\n      swap1\n      pop\n        /* \"#utility.yul\":18588:18622   */\n      swap3\n      swap2\n      pop\n      pop\n      jump\t// out\n        /* \"#utility.yul\":18628:18933   */\n    tag_174:\n        /* \"#utility.yul\":18668:18671   */\n      0x00\n        /* \"#utility.yul\":18687:18707   */\n      tag_441\n        /* \"#utility.yul\":18705:18706   */\n      dup3\n        /* \"#utility.yul\":18687:18707   */\n      tag_385\n      jump\t// in\n    tag_441:\n        /* \"#utility.yul\":18682:18707   */\n      swap2\n      pop\n        /* \"#utility.yul\":18721:18741   */\n      tag_442\n        /* \"#utility.yul\":18739:18740   */\n      dup4\n        /* \"#utility.yul\":18721:18741   */\n      tag_385\n      jump\t// in\n    tag_442:\n        /* \"#utility.yul\":18716:18741   */\n      swap3\n      pop\n        /* \"#utility.yul\":18875:18876   */\n      dup3\n        /* \"#utility.yul\":18807:18873   */\n      0xffffffffffffffffffffffffffffffffffffffffffffffffffffffffffffffff\n        /* \"#utility.yul\":18803:18877   */\n      sub\n        /* \"#utility.yul\":18800:18801   */\n      dup3\n        /* \"#utility.yul\":18797:18878   */\n      gt\n        /* \"#utility.yul\":18794:18796   */\n      iszero\n      tag_443\n      jumpi\n        /* \"#utility.yul\":18881:18899   */\n      tag_444\n      tag_445\n      jump\t// in\n    tag_444:\n        /* \"#utility.yul\":18794:18796   */\n    tag_443:\n        /* \"#utility.yul\":18925:18926   */\n      dup3\n        /* \"#utility.yul\":18922:18923   */\n      dup3\n        /* \"#utility.yul\":18918:18927   */\n      add\n        /* \"#utility.yul\":18911:18927   */\n      swap1\n      pop\n        /* \"#utility.yul\":18672:18933   */\n      swap3\n      swap2\n      pop\n      pop\n      jump\t// out\n        /* \"#utility.yul\":18939:19124   */\n    tag_195:\n        /* \"#utility.yul\":18979:18980   */\n      0x00\n        /* \"#utility.yul\":18996:19016   */\n      tag_447\n        /* \"#utility.yul\":19014:19015   */\n      dup3\n        /* \"#utility.yul\":18996:19016   */\n      tag_385\n      jump\t// in\n    tag_447:\n        /* \"#utility.yul\":18991:19016   */\n      swap2\n      pop\n        /* \"#utility.yul\":19030:19050   */\n      tag_448\n        /* \"#utility.yul\":19048:19049   */\n      dup4\n        /* \"#utility.yul\":19030:19050   */\n      tag_385\n      jump\t// in\n    tag_448:\n        /* \"#utility.yul\":19025:19050   */\n      swap3\n      pop\n        /* \"#utility.yul\":19069:19070   */\n      dup3\n        /* \"#utility.yul\":19059:19061   */\n      tag_449\n      jumpi\n        /* \"#utility.yul\":19074:19092   */\n      tag_450\n      tag_451\n      jump\t// in\n    tag_450:\n        /* \"#utility.yul\":19059:19061   */\n    tag_449:\n        /* \"#utility.yul\":19116:19117   */\n      dup3\n        /* \"#utility.yul\":19113:19114   */\n      dup3\n        /* \"#utility.yul\":19109:19118   */\n      div\n        /* \"#utility.yul\":19104:19118   */\n      swap1\n      pop\n        /* \"#utility.yul\":18981:19124   */\n      swap3\n      swap2\n      pop\n      pop\n      jump\t// out\n        /* \"#utility.yul\":19130:19321   */\n    tag_172:\n        /* \"#utility.yul\":19170:19174   */\n      0x00\n        /* \"#utility.yul\":19190:19210   */\n      tag_453\n        /* \"#utility.yul\":19208:19209   */\n      dup3\n        /* \"#utility.yul\":19190:19210   */\n      tag_385\n      jump\t// in\n    tag_453:\n        /* \"#utility.yul\":19185:19210   */\n      swap2\n      pop\n        /* \"#utility.yul\":19224:19244   */\n      tag_454\n        /* \"#utility.yul\":19242:19243   */\n      dup4\n        /* \"#utility.yul\":19224:19244   */\n      tag_385\n      jump\t// in\n    tag_454:\n        /* \"#utility.yul\":19219:19244   */\n      swap3\n      pop\n        /* \"#utility.yul\":19263:19264   */\n      dup3\n        /* \"#utility.yul\":19260:19261   */\n      dup3\n        /* \"#utility.yul\":19257:19265   */\n      lt\n        /* \"#utility.yul\":19254:19256   */\n      iszero\n      tag_455\n      jumpi\n        /* \"#utility.yul\":19268:19286   */\n      tag_456\n      tag_445\n      jump\t// in\n    tag_456:\n        /* \"#utility.yul\":19254:19256   */\n    tag_455:\n        /* \"#utility.yul\":19313:19314   */\n      dup3\n        /* \"#utility.yul\":19310:19311   */\n      dup3\n        /* \"#utility.yul\":19306:19315   */\n      sub\n        /* \"#utility.yul\":19298:19315   */\n      swap1\n      pop\n        /* \"#utility.yul\":19175:19321   */\n      swap3\n      swap2\n      pop\n      pop\n      jump\t// out\n        /* \"#utility.yul\":19327:19423   */\n    tag_298:\n        /* \"#utility.yul\":19364:19371   */\n      0x00\n        /* \"#utility.yul\":19393:19417   */\n      tag_458\n        /* \"#utility.yul\":19411:19416   */\n      dup3\n        /* \"#utility.yul\":19393:19417   */\n      tag_459\n      jump\t// in\n    tag_458:\n        /* \"#utility.yul\":19382:19417   */\n      swap1\n      pop\n        /* \"#utility.yul\":19372:19423   */\n      swap2\n      swap1\n      pop\n      jump\t// out\n        /* \"#utility.yul\":19429:19519   */\n    tag_302:\n        /* \"#utility.yul\":19463:19470   */\n      0x00\n        /* \"#utility.yul\":19506:19511   */\n      dup2\n        /* \"#utility.yul\":19499:19512   */\n      iszero\n        /* \"#utility.yul\":19492:19513   */\n      iszero\n        /* \"#utility.yul\":19481:19513   */\n      swap1\n      pop\n        /* \"#utility.yul\":19471:19519   */\n      swap2\n      swap1\n      pop\n      jump\t// out\n        /* \"#utility.yul\":19525:19674   */\n    tag_461:\n        /* \"#utility.yul\":19561:19568   */\n      0x00\n        /* \"#utility.yul\":19601:19667   */\n      0xffffffff00000000000000000000000000000000000000000000000000000000\n        /* \"#utility.yul\":19594:19599   */\n      dup3\n        /* \"#utility.yul\":19590:19668   */\n      and\n        /* \"#utility.yul\":19579:19668   */\n      swap1\n      pop\n        /* \"#utility.yul\":19569:19674   */\n      swap2\n      swap1\n      pop\n      jump\t// out\n        /* \"#utility.yul\":19680:19806   */\n    tag_459:\n        /* \"#utility.yul\":19717:19724   */\n      0x00\n        /* \"#utility.yul\":19757:19799   */\n      0xffffffffffffffffffffffffffffffffffffffff\n        /* \"#utility.yul\":19750:19755   */\n      dup3\n        /* \"#utility.yul\":19746:19800   */\n      and\n        /* \"#utility.yul\":19735:19800   */\n      swap1\n      pop\n        /* \"#utility.yul\":19725:19806   */\n      swap2\n      swap1\n      pop\n      jump\t// out\n        /* \"#utility.yul\":19812:19889   */\n    tag_385:\n        /* \"#utility.yul\":19849:19856   */\n      0x00\n        /* \"#utility.yul\":19878:19883   */\n      dup2\n        /* \"#utility.yul\":19867:19883   */\n      swap1\n      pop\n        /* \"#utility.yul\":19857:19889   */\n      swap2\n      swap1\n      pop\n      jump\t// out\n        /* \"#utility.yul\":19895:20049   */\n    tag_235:\n        /* \"#utility.yul\":19979:19985   */\n      dup3\n        /* \"#utility.yul\":19974:19977   */\n      dup2\n        /* \"#utility.yul\":19969:19972   */\n      dup4\n        /* \"#utility.yul\":19956:19986   */\n      calldatacopy\n        /* \"#utility.yul\":20041:20042   */\n      0x00\n        /* \"#utility.yul\":20032:20038   */\n      dup4\n        /* \"#utility.yul\":20027:20030   */\n      dup4\n        /* \"#utility.yul\":20023:20039   */\n      add\n        /* \"#utility.yul\":20016:20043   */\n      mstore\n        /* \"#utility.yul\":19946:20049   */\n      pop\n      pop\n      pop\n      jump\t// out\n        /* \"#utility.yul\":20055:20362   */\n    tag_310:\n        /* \"#utility.yul\":20123:20124   */\n      0x00\n        /* \"#utility.yul\":20133:20246   */\n    tag_467:\n        /* \"#utility.yul\":20147:20153   */\n      dup4\n        /* \"#utility.yul\":20144:20145   */\n      dup2\n        /* \"#utility.yul\":20141:20154   */\n      lt\n        /* \"#utility.yul\":20133:20246   */\n      iszero\n      tag_469\n      jumpi\n        /* \"#utility.yul\":20232:20233   */\n      dup1\n        /* \"#utility.yul\":20227:20230   */\n      dup3\n        /* \"#utility.yul\":20223:20234   */\n      add\n        /* \"#utility.yul\":20217:20235   */\n      mload\n        /* \"#utility.yul\":20213:20214   */\n      dup2\n        /* \"#utility.yul\":20208:20211   */\n      dup5\n        /* \"#utility.yul\":20204:20215   */\n      add\n        /* \"#utility.yul\":20197:20236   */\n      mstore\n        /* \"#utility.yul\":20169:20171   */\n      0x20\n        /* \"#utility.yul\":20166:20167   */\n      dup2\n        /* \"#utility.yul\":20162:20172   */\n      add\n        /* \"#utility.yul\":20157:20172   */\n      swap1\n      pop\n        /* \"#utility.yul\":20133:20246   */\n      jump(tag_467)\n    tag_469:\n        /* \"#utility.yul\":20264:20270   */\n      dup4\n        /* \"#utility.yul\":20261:20262   */\n      dup2\n        /* \"#utility.yul\":20258:20271   */\n      gt\n        /* \"#utility.yul\":20255:20257   */\n      iszero\n      tag_470\n      jumpi\n        /* \"#utility.yul\":20344:20345   */\n      0x00\n        /* \"#utility.yul\":20335:20341   */\n      dup5\n        /* \"#utility.yul\":20330:20333   */\n      dup5\n        /* \"#utility.yul\":20326:20342   */\n      add\n        /* \"#utility.yul\":20319:20346   */\n      mstore\n        /* \"#utility.yul\":20255:20257   */\n    tag_470:\n        /* \"#utility.yul\":20104:20362   */\n      pop\n      pop\n      pop\n      pop\n      jump\t// out\n        /* \"#utility.yul\":20368:20688   */\n    tag_88:\n        /* \"#utility.yul\":20412:20418   */\n      0x00\n        /* \"#utility.yul\":20449:20450   */\n      0x02\n        /* \"#utility.yul\":20443:20447   */\n      dup3\n        /* \"#utility.yul\":20439:20451   */\n      div\n        /* \"#utility.yul\":20429:20451   */\n      swap1\n      pop\n        /* \"#utility.yul\":20496:20497   */\n      0x01\n        /* \"#utility.yul\":20490:20494   */\n      dup3\n        /* \"#utility.yul\":20486:20498   */\n      and\n        /* \"#utility.yul\":20517:20535   */\n      dup1\n        /* \"#utility.yul\":20507:20509   */\n      tag_472\n      jumpi\n        /* \"#utility.yul\":20573:20577   */\n      0x7f\n        /* \"#utility.yul\":20565:20571   */\n      dup3\n        /* \"#utility.yul\":20561:20578   */\n      and\n        /* \"#utility.yul\":20551:20578   */\n      swap2\n      pop\n        /* \"#utility.yul\":20507:20509   */\n    tag_472:\n        /* \"#utility.yul\":20635:20637   */\n      0x20\n        /* \"#utility.yul\":20627:20633   */\n      dup3\n        /* \"#utility.yul\":20624:20638   */\n      lt\n        /* \"#utility.yul\":20604:20622   */\n      dup2\n        /* \"#utility.yul\":20601:20639   */\n      eq\n        /* \"#utility.yul\":20598:20600   */\n      iszero\n      tag_473\n      jumpi\n        /* \"#utility.yul\":20654:20672   */\n      tag_474\n      tag_475\n      jump\t// in\n    tag_474:\n        /* \"#utility.yul\":20598:20600   */\n    tag_473:\n        /* \"#utility.yul\":20419:20688   */\n      pop\n      swap2\n      swap1\n      pop\n      jump\t// out\n        /* \"#utility.yul\":20694:20975   */\n    tag_428:\n        /* \"#utility.yul\":20777:20804   */\n      tag_477\n        /* \"#utility.yul\":20799:20803   */\n      dup3\n        /* \"#utility.yul\":20777:20804   */\n      tag_312\n      jump\t// in\n    tag_477:\n        /* \"#utility.yul\":20769:20775   */\n      dup2\n        /* \"#utility.yul\":20765:20805   */\n      add\n        /* \"#utility.yul\":20907:20913   */\n      dup2\n        /* \"#utility.yul\":20895:20905   */\n      dup2\n        /* \"#utility.yul\":20892:20914   */\n      lt\n        /* \"#utility.yul\":20871:20889   */\n      0xffffffffffffffff\n        /* \"#utility.yul\":20859:20869   */\n      dup3\n        /* \"#utility.yul\":20856:20890   */\n      gt\n        /* \"#utility.yul\":20853:20915   */\n      or\n        /* \"#utility.yul\":20850:20852   */\n      iszero\n      tag_478\n      jumpi\n        /* \"#utility.yul\":20918:20936   */\n      tag_479\n      tag_433\n      jump\t// in\n    tag_479:\n        /* \"#utility.yul\":20850:20852   */\n    tag_478:\n        /* \"#utility.yul\":20958:20968   */\n      dup1\n        /* \"#utility.yul\":20954:20956   */\n      0x40\n        /* \"#utility.yul\":20947:20969   */\n      mstore\n        /* \"#utility.yul\":20737:20975   */\n      pop\n      pop\n      pop\n      jump\t// out\n        /* \"#utility.yul\":20981:21214   */\n    tag_193:\n        /* \"#utility.yul\":21020:21023   */\n      0x00\n        /* \"#utility.yul\":21043:21067   */\n      tag_481\n        /* \"#utility.yul\":21061:21066   */\n      dup3\n        /* \"#utility.yul\":21043:21067   */\n      tag_385\n      jump\t// in\n    tag_481:\n        /* \"#utility.yul\":21034:21067   */\n      swap2\n      pop\n        /* \"#utility.yul\":21089:21155   */\n      0xffffffffffffffffffffffffffffffffffffffffffffffffffffffffffffffff\n        /* \"#utility.yul\":21082:21087   */\n      dup3\n        /* \"#utility.yul\":21079:21156   */\n      eq\n        /* \"#utility.yul\":21076:21078   */\n      iszero\n      tag_482\n      jumpi\n        /* \"#utility.yul\":21159:21177   */\n      tag_483\n      tag_445\n      jump\t// in\n    tag_483:\n        /* \"#utility.yul\":21076:21078   */\n    tag_482:\n        /* \"#utility.yul\":21206:21207   */\n      0x01\n        /* \"#utility.yul\":21199:21204   */\n      dup3\n        /* \"#utility.yul\":21195:21208   */\n      add\n        /* \"#utility.yul\":21188:21208   */\n      swap1\n      pop\n        /* \"#utility.yul\":21024:21214   */\n      swap2\n      swap1\n      pop\n      jump\t// out\n        /* \"#utility.yul\":21220:21396   */\n    tag_202:\n        /* \"#utility.yul\":21252:21253   */\n      0x00\n        /* \"#utility.yul\":21269:21289   */\n      tag_485\n        /* \"#utility.yul\":21287:21288   */\n      dup3\n        /* \"#utility.yul\":21269:21289   */\n      tag_385\n      jump\t// in\n    tag_485:\n        /* \"#utility.yul\":21264:21289   */\n      swap2\n      pop\n        /* \"#utility.yul\":21303:21323   */\n      tag_486\n        /* \"#utility.yul\":21321:21322   */\n      dup4\n        /* \"#utility.yul\":21303:21323   */\n      tag_385\n      jump\t// in\n    tag_486:\n        /* \"#utility.yul\":21298:21323   */\n      swap3\n      pop\n        /* \"#utility.yul\":21342:21343   */\n      dup3\n        /* \"#utility.yul\":21332:21334   */\n      tag_487\n      jumpi\n        /* \"#utility.yul\":21347:21365   */\n      tag_488\n      tag_451\n      jump\t// in\n    tag_488:\n        /* \"#utility.yul\":21332:21334   */\n    tag_487:\n        /* \"#utility.yul\":21388:21389   */\n      dup3\n        /* \"#utility.yul\":21385:21386   */\n      dup3\n        /* \"#utility.yul\":21381:21390   */\n      mod\n        /* \"#utility.yul\":21376:21390   */\n      swap1\n      pop\n        /* \"#utility.yul\":21254:21396   */\n      swap3\n      swap2\n      pop\n      pop\n      jump\t// out\n        /* \"#utility.yul\":21402:21582   */\n    tag_445:\n        /* \"#utility.yul\":21450:21527   */\n      0x4e487b7100000000000000000000000000000000000000000000000000000000\n        /* \"#utility.yul\":21447:21448   */\n      0x00\n        /* \"#utility.yul\":21440:21528   */\n      mstore\n        /* \"#utility.yul\":21547:21551   */\n      0x11\n        /* \"#utility.yul\":21544:21545   */\n      0x04\n        /* \"#utility.yul\":21537:21552   */\n      mstore\n        /* \"#utility.yul\":21571:21575   */\n      0x24\n        /* \"#utility.yul\":21568:21569   */\n      0x00\n        /* \"#utility.yul\":21561:21576   */\n      revert\n        /* \"#utility.yul\":21588:21768   */\n    tag_451:\n        /* \"#utility.yul\":21636:21713   */\n      0x4e487b7100000000000000000000000000000000000000000000000000000000\n        /* \"#utility.yul\":21633:21634   */\n      0x00\n        /* \"#utility.yul\":21626:21714   */\n      mstore\n        /* \"#utility.yul\":21733:21737   */\n      0x12\n        /* \"#utility.yul\":21730:21731   */\n      0x04\n        /* \"#utility.yul\":21723:21738   */\n      mstore\n        /* \"#utility.yul\":21757:21761   */\n      0x24\n        /* \"#utility.yul\":21754:21755   */\n      0x00\n        /* \"#utility.yul\":21747:21762   */\n      revert\n        /* \"#utility.yul\":21774:21954   */\n    tag_475:\n        /* \"#utility.yul\":21822:21899   */\n      0x4e487b7100000000000000000000000000000000000000000000000000000000\n        /* \"#utility.yul\":21819:21820   */\n      0x00\n        /* \"#utility.yul\":21812:21900   */\n      mstore\n        /* \"#utility.yul\":21919:21923   */\n      0x22\n        /* \"#utility.yul\":21916:21917   */\n      0x04\n        /* \"#utility.yul\":21909:21924   */\n      mstore\n        /* \"#utility.yul\":21943:21947   */\n      0x24\n        /* \"#utility.yul\":21940:21941   */\n      0x00\n        /* \"#utility.yul\":21933:21948   */\n      revert\n        /* \"#utility.yul\":21960:22140   */\n    tag_433:\n        /* \"#utility.yul\":22008:22085   */\n      0x4e487b7100000000000000000000000000000000000000000000000000000000\n        /* \"#utility.yul\":22005:22006   */\n      0x00\n        /* \"#utility.yul\":21998:22086   */\n      mstore\n        /* \"#utility.yul\":22105:22109   */\n      0x41\n        /* \"#utility.yul\":22102:22103   */\n      0x04\n        /* \"#utility.yul\":22095:22110   */\n      mstore\n        /* \"#utility.yul\":22129:22133   */\n      0x24\n        /* \"#utility.yul\":22126:22127   */\n      0x00\n        /* \"#utility.yul\":22119:22134   */\n      revert\n        /* \"#utility.yul\":22146:22248   */\n    tag_312:\n        /* \"#utility.yul\":22187:22193   */\n      0x00\n        /* \"#utility.yul\":22238:22240   */\n      0x1f\n        /* \"#utility.yul\":22234:22241   */\n      not\n        /* \"#utility.yul\":22229:22231   */\n      0x1f\n        /* \"#utility.yul\":22222:22227   */\n      dup4\n        /* \"#utility.yul\":22218:22232   */\n      add\n        /* \"#utility.yul\":22214:22242   */\n      and\n        /* \"#utility.yul\":22204:22242   */\n      swap1\n      pop\n        /* \"#utility.yul\":22194:22248   */\n      swap2\n      swap1\n      pop\n      jump\t// out\n        /* \"#utility.yul\":22254:22424   */\n    tag_331:\n        /* \"#utility.yul\":22394:22416   */\n      0x746f6b656e4964206f7574206f662072616e6765000000000000000000000000\n        /* \"#utility.yul\":22390:22391   */\n      0x00\n        /* \"#utility.yul\":22382:22388   */\n      dup3\n        /* \"#utility.yul\":22378:22392   */\n      add\n        /* \"#utility.yul\":22371:22417   */\n      mstore\n        /* \"#utility.yul\":22360:22424   */\n      pop\n      jump\t// out\n        /* \"#utility.yul\":22430:22602   */\n    tag_336:\n        /* \"#utility.yul\":22570:22594   */\n      0x6e6f74206f776e6572206e6f7220617070726f76656400000000000000000000\n        /* \"#utility.yul\":22566:22567   */\n      0x00\n        /* \"#utility.yul\":22558:22564   */\n      dup3\n        /* \"#utility.yul\":22554:22568   */\n      add\n        /* \"#utility.yul\":22547:22595   */\n      mstore\n        /* \"#utility.yul\":22536:22602   */\n      pop\n      jump\t// out\n        /* \"#utility.yul\":22608:22786   */\n    tag_341:\n        /* \"#utility.yul\":22748:22778   */\n      0x7472616e7366657220746f20746865207a65726f206164647265737300000000\n        /* \"#utility.yul\":22744:22745   */\n      0x00\n        /* \"#utility.yul\":22736:22742   */\n      dup3\n        /* \"#utility.yul\":22732:22746   */\n      add\n        /* \"#utility.yul\":22725:22779   */\n      mstore\n        /* \"#utility.yul\":22714:22786   */\n      pop\n      jump\t// out\n        /* \"#utility.yul\":22792:22967   */\n    tag_346:\n        /* \"#utility.yul\":22932:22959   */\n      0x617070726f76616c20746f2063757272656e74206f776e657200000000000000\n        /* \"#utility.yul\":22928:22929   */\n      0x00\n        /* \"#utility.yul\":22920:22926   */\n      dup3\n        /* \"#utility.yul\":22916:22930   */\n      add\n        /* \"#utility.yul\":22909:22960   */\n      mstore\n        /* \"#utility.yul\":22898:22967   */\n      pop\n      jump\t// out\n        /* \"#utility.yul\":22973:23153   */\n    tag_351:\n        /* \"#utility.yul\":23113:23145   */\n      0x6e6f74206f776e6572206e6f7220617070726f76656420666f7220616c6c0000\n        /* \"#utility.yul\":23109:23110   */\n      0x00\n        /* \"#utility.yul\":23101:23107   */\n      dup3\n        /* \"#utility.yul\":23097:23111   */\n      add\n        /* \"#utility.yul\":23090:23146   */\n      mstore\n        /* \"#utility.yul\":23079:23153   */\n      pop\n      jump\t// out\n        /* \"#utility.yul\":23159:23329   */\n    tag_356:\n        /* \"#utility.yul\":23299:23321   */\n      0x6d696e7420746f207a65726f2061646472657373000000000000000000000000\n        /* \"#utility.yul\":23295:23296   */\n      0x00\n        /* \"#utility.yul\":23287:23293   */\n      dup3\n        /* \"#utility.yul\":23283:23297   */\n      add\n        /* \"#utility.yul\":23276:23322   */\n      mstore\n        /* \"#utility.yul\":23265:23329   */\n      pop\n      jump\t// out\n        /* \"#utility.yul\":23335:23504   */\n    tag_361:\n        /* \"#utility.yul\":23475:23496   */\n      0x746f6b656e20646f65736e277420657869737400000000000000000000000000\n        /* \"#utility.yul\":23471:23472   */\n      0x00\n        /* \"#utility.yul\":23463:23469   */\n      dup3\n        /* \"#utility.yul\":23459:23473   */\n      add\n        /* \"#utility.yul\":23452:23497   */\n      mstore\n        /* \"#utility.yul\":23441:23504   */\n      pop\n      jump\t// out\n        /* \"#utility.yul\":23510:23680   */\n    tag_366:\n        /* \"#utility.yul\":23650:23672   */\n      0x6f776e6572203d207a65726f2061646472657373000000000000000000000000\n        /* \"#utility.yul\":23646:23647   */\n      0x00\n        /* \"#utility.yul\":23638:23644   */\n      dup3\n        /* \"#utility.yul\":23634:23648   */\n      add\n        /* \"#utility.yul\":23627:23673   */\n      mstore\n        /* \"#utility.yul\":23616:23680   */\n      pop\n      jump\t// out\n        /* \"#utility.yul\":23686:23851   */\n    tag_371:\n        /* \"#utility.yul\":23826:23843   */\n      0x546f6b656e204e6f742045786973740000000000000000000000000000000000\n        /* \"#utility.yul\":23822:23823   */\n      0x00\n        /* \"#utility.yul\":23814:23820   */\n      dup3\n        /* \"#utility.yul\":23810:23824   */\n      add\n        /* \"#utility.yul\":23803:23844   */\n      mstore\n        /* \"#utility.yul\":23792:23851   */\n      pop\n      jump\t// out\n        /* \"#utility.yul\":23857:24027   */\n    tag_376:\n        /* \"#utility.yul\":23997:24019   */\n      0x746f6b656e20616c7265616479206d696e746564000000000000000000000000\n        /* \"#utility.yul\":23993:23994   */\n      0x00\n        /* \"#utility.yul\":23985:23991   */\n      dup3\n        /* \"#utility.yul\":23981:23995   */\n      add\n        /* \"#utility.yul\":23974:24020   */\n      mstore\n        /* \"#utility.yul\":23963:24027   */\n      pop\n      jump\t// out\n        /* \"#utility.yul\":24033:24192   */\n    tag_381:\n        /* \"#utility.yul\":24173:24184   */\n      0x6e6f74206f776e65720000000000000000000000000000000000000000000000\n        /* \"#utility.yul\":24169:24170   */\n      0x00\n        /* \"#utility.yul\":24161:24167   */\n      dup3\n        /* \"#utility.yul\":24157:24171   */\n      add\n        /* \"#utility.yul\":24150:24185   */\n      mstore\n        /* \"#utility.yul\":24139:24192   */\n      pop\n      jump\t// out\n        /* \"#utility.yul\":24198:24320   */\n    tag_239:\n        /* \"#utility.yul\":24271:24295   */\n      tag_506\n        /* \"#utility.yul\":24289:24294   */\n      dup2\n        /* \"#utility.yul\":24271:24295   */\n      tag_298\n      jump\t// in\n    tag_506:\n        /* \"#utility.yul\":24264:24269   */\n      dup2\n        /* \"#utility.yul\":24261:24296   */\n      eq\n        /* \"#utility.yul\":24251:24253   */\n      tag_507\n      jumpi\n        /* \"#utility.yul\":24310:24311   */\n      0x00\n        /* \"#utility.yul\":24307:24308   */\n      dup1\n        /* \"#utility.yul\":24300:24312   */\n      revert\n        /* \"#utility.yul\":24251:24253   */\n    tag_507:\n        /* \"#utility.yul\":24241:24320   */\n      pop\n      jump\t// out\n        /* \"#utility.yul\":24326:24442   */\n    tag_243:\n        /* \"#utility.yul\":24396:24417   */\n      tag_509\n        /* \"#utility.yul\":24411:24416   */\n      dup2\n        /* \"#utility.yul\":24396:24417   */\n      tag_302\n      jump\t// in\n    tag_509:\n        /* \"#utility.yul\":24389:24394   */\n      dup2\n        /* \"#utility.yul\":24386:24418   */\n      eq\n        /* \"#utility.yul\":24376:24378   */\n      tag_510\n      jumpi\n        /* \"#utility.yul\":24432:24433   */\n      0x00\n        /* \"#utility.yul\":24429:24430   */\n      dup1\n        /* \"#utility.yul\":24422:24434   */\n      revert\n        /* \"#utility.yul\":24376:24378   */\n    tag_510:\n        /* \"#utility.yul\":24366:24442   */\n      pop\n      jump\t// out\n        /* \"#utility.yul\":24448:24568   */\n    tag_247:\n        /* \"#utility.yul\":24520:24543   */\n      tag_512\n        /* \"#utility.yul\":24537:24542   */\n      dup2\n        /* \"#utility.yul\":24520:24543   */\n      tag_461\n      jump\t// in\n    tag_512:\n        /* \"#utility.yul\":24513:24518   */\n      dup2\n        /* \"#utility.yul\":24510:24544   */\n      eq\n        /* \"#utility.yul\":24500:24502   */\n      tag_513\n      jumpi\n        /* \"#utility.yul\":24558:24559   */\n      0x00\n        /* \"#utility.yul\":24555:24556   */\n      dup1\n        /* \"#utility.yul\":24548:24560   */\n      revert\n        /* \"#utility.yul\":24500:24502   */\n    tag_513:\n        /* \"#utility.yul\":24490:24568   */\n      pop\n      jump\t// out\n        /* \"#utility.yul\":24574:24696   */\n    tag_258:\n        /* \"#utility.yul\":24647:24671   */\n      tag_515\n        /* \"#utility.yul\":24665:24670   */\n      dup2\n        /* \"#utility.yul\":24647:24671   */\n      tag_385\n      jump\t// in\n    tag_515:\n        /* \"#utility.yul\":24640:24645   */\n      dup2\n        /* \"#utility.yul\":24637:24672   */\n      eq\n        /* \"#utility.yul\":24627:24629   */\n      tag_516\n      jumpi\n        /* \"#utility.yul\":24686:24687   */\n      0x00\n        /* \"#utility.yul\":24683:24684   */\n      dup1\n        /* \"#utility.yul\":24676:24688   */\n      revert\n        /* \"#utility.yul\":24627:24629   */\n    tag_516:\n        /* \"#utility.yul\":24617:24696   */\n      pop\n      jump\t// out\n    stop\n    data_8382b382247cd07401a2ef2f394137c3f3b0972798bae0a9c78b0c261acbb56b 697066733a2f2f516d65536a53696e4870506e6d586d73704d6a776958794e367a533445397a63636172694752336a7863615774712f\n\n    auxdata: 0xa2646970667358221220ffd81c1474ab0ed5d42848981454118c46e1aba7f03dffd38aaa891dbef93bb764736f6c63430008040033\n}\n",
				"bytecode": {
					"linkReferences": {},
					"object": "60806040526103e86006553480156200001757600080fd5b506040518060400160405280600a81526020017f70656e63696c206e6674000000000000000000000000000000000000000000008152506040518060400160405280600781526020017f50454e5f4e46540000000000000000000000000000000000000000000000000081525081600090805190602001906200009c929190620000be565b508060019080519060200190620000b5929190620000be565b505050620001d3565b828054620000cc906200016e565b90600052602060002090601f016020900481019282620000f057600085556200013c565b82601f106200010b57805160ff19168380011785556200013c565b828001600101855582156200013c579182015b828111156200013b5782518255916020019190600101906200011e565b5b5090506200014b91906200014f565b5090565b5b808211156200016a57600081600090555060010162000150565b5090565b600060028204905060018216806200018757607f821691505b602082108114156200019e576200019d620001a4565b5b50919050565b7f4e487b7100000000000000000000000000000000000000000000000000000000600052602260045260246000fd5b61251680620001e36000396000f3fe608060405234801561001057600080fd5b50600436106100f55760003560e01c80636352211e11610097578063b88d4fde11610066578063b88d4fde14610282578063bb8a16bd1461029e578063c87b56dd146102bc578063e985e9c5146102ec576100f5565b80636352211e146101e857806370a082311461021857806395d89b4114610248578063a22cb46514610266576100f5565b8063095ea7b3116100d3578063095ea7b31461017857806323b872dd1461019457806340c10f19146101b057806342842e0e146101cc576100f5565b806301ffc9a7146100fa57806306fdde031461012a578063081812fc14610148575b600080fd5b610114600480360381019061010f91906119c8565b61031c565b6040516101219190611d1f565b60405180910390f35b610132610456565b60405161013f9190611d3a565b60405180910390f35b610162600480360381019061015d9190611a1a565b6104e4565b60405161016f9190611cb8565b60405180910390f35b610192600480360381019061018d919061198c565b6105c3565b005b6101ae60048036038101906101a99190611886565b610779565b005b6101ca60048036038101906101c5919061198c565b6107e2565b005b6101e660048036038101906101e19190611886565b610841565b005b61020260048036038101906101fd9190611a1a565b610861565b60405161020f9190611cb8565b60405180910390f35b610232600480360381019061022d9190611821565b61090e565b60405161023f9190611ebc565b60405180910390f35b6102506109c6565b60405161025d9190611d3a565b60405180910390f35b610280600480360381019061027b9190611950565b610a54565b005b61029c600480360381019061029791906118d5565b610b51565b005b6102a6610bbc565b6040516102b39190611ebc565b60405180910390f35b6102d660048036038101906102d19190611a1a565b610bc2565b6040516102e39190611d3a565b60405180910390f35b6103066004803603810190610301919061184a565b610cc4565b6040516103139190611d1f565b60405180910390f35b60007f80ac58cd000000000000000000000000000000000000000000000000000000007bffffffffffffffffffffffffffffffffffffffffffffffffffffffff1916827bffffffffffffffffffffffffffffffffffffffffffffffffffffffff191614806103e757507f01ffc9a7000000000000000000000000000000000000000000000000000000007bffffffffffffffffffffffffffffffffffffffffffffffffffffffff1916827bffffffffffffffffffffffffffffffffffffffffffffffffffffffff1916145b8061044f57507f5b5e139f000000000000000000000000000000000000000000000000000000007bffffffffffffffffffffffffffffffffffffffffffffffffffffffff1916827bffffffffffffffffffffffffffffffffffffffffffffffffffffffff1916145b9050919050565b60008054610463906120e1565b80601f016020809104026020016040519081016040528092919081815260200182805461048f906120e1565b80156104dc5780601f106104b1576101008083540402835291602001916104dc565b820191906000526020600020905b8154815290600101906020018083116104bf57829003601f168201915b505050505081565b60008073ffffffffffffffffffffffffffffffffffffffff166002600084815260200190815260200160002060009054906101000a900473ffffffffffffffffffffffffffffffffffffffff1673ffffffffffffffffffffffffffffffffffffffff161415610588576040517f08c379a000000000000000000000000000000000000000000000000000000000815260040161057f90611e1c565b60405180910390fd5b6004600083815260200190815260200160002060009054906101000a900473ffffffffffffffffffffffffffffffffffffffff169050919050565b60006002600083815260200190815260200160002060009054906101000a900473ffffffffffffffffffffffffffffffffffffffff1690508073ffffffffffffffffffffffffffffffffffffffff168373ffffffffffffffffffffffffffffffffffffffff16141561066a576040517f08c379a000000000000000000000000000000000000000000000000000000000815260040161066190611dbc565b60405180910390fd5b8073ffffffffffffffffffffffffffffffffffffffff163373ffffffffffffffffffffffffffffffffffffffff16148061072a5750600560008273ffffffffffffffffffffffffffffffffffffffff1673ffffffffffffffffffffffffffffffffffffffff16815260200190815260200160002060003373ffffffffffffffffffffffffffffffffffffffff1673ffffffffffffffffffffffffffffffffffffffff16815260200190815260200160002060009054906101000a900460ff165b610769576040517f08c379a000000000000000000000000000000000000000000000000000000000815260040161076090611ddc565b60405180910390fd5b610774818484610d58565b505050565b600061078482610861565b9050610791813384610e0a565b6107d0576040517f08c379a00000000000000000000000000000000000000000000000000000000081526004016107c790611d7c565b60405180910390fd5b6107dc81858585610f3e565b50505050565b600081101580156107f4575060065481105b610833576040517f08c379a000000000000000000000000000000000000000000000000000000000815260040161082a90611d5c565b60405180910390fd5b61083d8282611189565b5050565b61085c83838360405180602001604052806000815250610b51565b505050565b60006002600083815260200190815260200160002060009054906101000a900473ffffffffffffffffffffffffffffffffffffffff169050600073ffffffffffffffffffffffffffffffffffffffff168173ffffffffffffffffffffffffffffffffffffffff161415610909576040517f08c379a000000000000000000000000000000000000000000000000000000000815260040161090090611e1c565b60405180910390fd5b919050565b60008073ffffffffffffffffffffffffffffffffffffffff168273ffffffffffffffffffffffffffffffffffffffff16141561097f576040517f08c379a000000000000000000000000000000000000000000000000000000000815260040161097690611e3c565b60405180910390fd5b600360008373ffffffffffffffffffffffffffffffffffffffff1673ffffffffffffffffffffffffffffffffffffffff168152602001908152602001600020549050919050565b600180546109d3906120e1565b80601f01602080910402602001604051908101604052809291908181526020018280546109ff906120e1565b8015610a4c5780601f10610a2157610100808354040283529160200191610a4c565b820191906000526020600020905b815481529060010190602001808311610a2f57829003601f168201915b505050505081565b80600560003373ffffffffffffffffffffffffffffffffffffffff1673ffffffffffffffffffffffffffffffffffffffff16815260200190815260200160002060008473ffffffffffffffffffffffffffffffffffffffff1673ffffffffffffffffffffffffffffffffffffffff16815260200190815260200160002060006101000a81548160ff0219169083151502179055508173ffffffffffffffffffffffffffffffffffffffff163373ffffffffffffffffffffffffffffffffffffffff167f17307eab39ab6107e8899845ad3d59bd9653f200f220920489ca2b5937696c3183604051610b459190611d1f565b60405180910390a35050565b6000610b5c83610861565b9050610b69813385610e0a565b610ba8576040517f08c379a0000000000000000000000000000000000000000000000000000000008152600401610b9f90611d7c565b60405180910390fd5b610bb581868686866113a4565b5050505050565b60065481565b6060600073ffffffffffffffffffffffffffffffffffffffff166002600084815260200190815260200160002060009054906101000a900473ffffffffffffffffffffffffffffffffffffffff1673ffffffffffffffffffffffffffffffffffffffff161415610c67576040517f08c379a0000000000000000000000000000000000000000000000000000000008152600401610c5e90611e5c565b60405180910390fd5b6000610c716113c3565b90506000815111610c915760405180602001604052806000815250610cbc565b80610c9b846113e3565b604051602001610cac929190611c94565b6040516020818303038152906040525b915050919050565b6000600560008473ffffffffffffffffffffffffffffffffffffffff1673ffffffffffffffffffffffffffffffffffffffff16815260200190815260200160002060008373ffffffffffffffffffffffffffffffffffffffff1673ffffffffffffffffffffffffffffffffffffffff16815260200190815260200160002060009054906101000a900460ff16905092915050565b816004600083815260200190815260200160002060006101000a81548173ffffffffffffffffffffffffffffffffffffffff021916908373ffffffffffffffffffffffffffffffffffffffff160217905550808273ffffffffffffffffffffffffffffffffffffffff168473ffffffffffffffffffffffffffffffffffffffff167f8c5be1e5ebec7d5bd14f71427d1e84f3dd0314c0f7b2291e5b200ac8c7c3b92560405160405180910390a4505050565b60008373ffffffffffffffffffffffffffffffffffffffff168373ffffffffffffffffffffffffffffffffffffffff161480610ea457508273ffffffffffffffffffffffffffffffffffffffff166004600084815260200190815260200160002060009054906101000a900473ffffffffffffffffffffffffffffffffffffffff1673ffffffffffffffffffffffffffffffffffffffff16145b80610f355750600560008573ffffffffffffffffffffffffffffffffffffffff1673ffffffffffffffffffffffffffffffffffffffff16815260200190815260200160002060008473ffffffffffffffffffffffffffffffffffffffff1673ffffffffffffffffffffffffffffffffffffffff16815260200190815260200160002060009054906101000a900460ff165b90509392505050565b8373ffffffffffffffffffffffffffffffffffffffff168373ffffffffffffffffffffffffffffffffffffffff1614610fac576040517f08c379a0000000000000000000000000000000000000000000000000000000008152600401610fa390611e9c565b60405180910390fd5b600073ffffffffffffffffffffffffffffffffffffffff168273ffffffffffffffffffffffffffffffffffffffff16141561101c576040517f08c379a000000000000000000000000000000000000000000000000000000000815260040161101390611d9c565b60405180910390fd5b61102884600083610d58565b6001600360008573ffffffffffffffffffffffffffffffffffffffff1673ffffffffffffffffffffffffffffffffffffffff16815260200190815260200160002060008282546110789190611ff7565b925050819055506001600360008473ffffffffffffffffffffffffffffffffffffffff1673ffffffffffffffffffffffffffffffffffffffff16815260200190815260200160002060008282546110cf9190611f70565b92505081905550816002600083815260200190815260200160002060006101000a81548173ffffffffffffffffffffffffffffffffffffffff021916908373ffffffffffffffffffffffffffffffffffffffff160217905550808273ffffffffffffffffffffffffffffffffffffffff168473ffffffffffffffffffffffffffffffffffffffff167fddf252ad1be2c89b69c2b068fc378daa952ba7f163c4a11628f55a4df523b3ef60405160405180910390a450505050565b600073ffffffffffffffffffffffffffffffffffffffff168273ffffffffffffffffffffffffffffffffffffffff1614156111f9576040517f08c379a00000000000000000000000000000000000000000000000000000000081526004016111f090611dfc565b60405180910390fd5b600073ffffffffffffffffffffffffffffffffffffffff166002600083815260200190815260200160002060009054906101000a900473ffffffffffffffffffffffffffffffffffffffff1673ffffffffffffffffffffffffffffffffffffffff161461129b576040517f08c379a000000000000000000000000000000000000000000000000000000000815260040161129290611e7c565b60405180910390fd5b6001600360008473ffffffffffffffffffffffffffffffffffffffff1673ffffffffffffffffffffffffffffffffffffffff16815260200190815260200160002060008282546112eb9190611f70565b92505081905550816002600083815260200190815260200160002060006101000a81548173ffffffffffffffffffffffffffffffffffffffff021916908373ffffffffffffffffffffffffffffffffffffffff160217905550808273ffffffffffffffffffffffffffffffffffffffff16600073ffffffffffffffffffffffffffffffffffffffff167fddf252ad1be2c89b69c2b068fc378daa952ba7f163c4a11628f55a4df523b3ef60405160405180910390a45050565b6113b085858585610f3e565b6113bc84848484611590565b5050505050565b60606040518060600160405280603681526020016124ab60369139905090565b6060600082141561142b576040518060400160405280600181526020017f3000000000000000000000000000000000000000000000000000000000000000815250905061158b565b600082905060005b6000821461145d57808061144690612144565b915050600a826114569190611fc6565b9150611433565b60008167ffffffffffffffff81111561149f577f4e487b7100000000000000000000000000000000000000000000000000000000600052604160045260246000fd5b6040519080825280601f01601f1916602001820160405280156114d15781602001600182028036833780820191505090505b5090505b60008514611584576001826114ea9190611ff7565b9150600a856114f9919061218d565b60306115059190611f70565b60f81b818381518110611541577f4e487b7100000000000000000000000000000000000000000000000000000000600052603260045260246000fd5b60200101907effffffffffffffffffffffffffffffffffffffffffffffffffffffffffffff1916908160001a905350600a8561157d9190611fc6565b94506114d5565b8093505050505b919050565b60008373ffffffffffffffffffffffffffffffffffffffff163b111561174a578273ffffffffffffffffffffffffffffffffffffffff1663150b7a02338685856040518563ffffffff1660e01b81526004016115ef9493929190611cd3565b602060405180830381600087803b15801561160957600080fd5b505af192505050801561163a57506040513d601f19601f8201168201806040525081019061163791906119f1565b60015b6116bf573d806000811461166a576040519150601f19603f3d011682016040523d82523d6000602084013e61166f565b606091505b506000815114156116b757836040517f64a0ae920000000000000000000000000000000000000000000000000000000081526004016116ae9190611cb8565b60405180910390fd5b805181602001fd5b63150b7a0260e01b7bffffffffffffffffffffffffffffffffffffffffffffffffffffffff1916817bffffffffffffffffffffffffffffffffffffffffffffffffffffffff19161461174857836040517f64a0ae9200000000000000000000000000000000000000000000000000000000815260040161173f9190611cb8565b60405180910390fd5b505b50505050565b600061176361175e84611efc565b611ed7565b90508281526020810184848401111561177b57600080fd5b61178684828561209f565b509392505050565b60008135905061179d8161244e565b92915050565b6000813590506117b281612465565b92915050565b6000813590506117c78161247c565b92915050565b6000815190506117dc8161247c565b92915050565b600082601f8301126117f357600080fd5b8135611803848260208601611750565b91505092915050565b60008135905061181b81612493565b92915050565b60006020828403121561183357600080fd5b60006118418482850161178e565b91505092915050565b6000806040838503121561185d57600080fd5b600061186b8582860161178e565b925050602061187c8582860161178e565b9150509250929050565b60008060006060848603121561189b57600080fd5b60006118a98682870161178e565b93505060206118ba8682870161178e565b92505060406118cb8682870161180c565b9150509250925092565b600080600080608085870312156118eb57600080fd5b60006118f98782880161178e565b945050602061190a8782880161178e565b935050604061191b8782880161180c565b925050606085013567ffffffffffffffff81111561193857600080fd5b611944878288016117e2565b91505092959194509250565b6000806040838503121561196357600080fd5b60006119718582860161178e565b9250506020611982858286016117a3565b9150509250929050565b6000806040838503121561199f57600080fd5b60006119ad8582860161178e565b92505060206119be8582860161180c565b9150509250929050565b6000602082840312156119da57600080fd5b60006119e8848285016117b8565b91505092915050565b600060208284031215611a0357600080fd5b6000611a11848285016117cd565b91505092915050565b600060208284031215611a2c57600080fd5b6000611a3a8482850161180c565b91505092915050565b611a4c8161202b565b82525050565b611a5b8161203d565b82525050565b6000611a6c82611f2d565b611a768185611f43565b9350611a868185602086016120ae565b611a8f8161227a565b840191505092915050565b6000611aa582611f38565b611aaf8185611f54565b9350611abf8185602086016120ae565b611ac88161227a565b840191505092915050565b6000611ade82611f38565b611ae88185611f65565b9350611af88185602086016120ae565b80840191505092915050565b6000611b11601483611f54565b9150611b1c8261228b565b602082019050919050565b6000611b34601683611f54565b9150611b3f826122b4565b602082019050919050565b6000611b57601c83611f54565b9150611b62826122dd565b602082019050919050565b6000611b7a601983611f54565b9150611b8582612306565b602082019050919050565b6000611b9d601e83611f54565b9150611ba88261232f565b602082019050919050565b6000611bc0601483611f54565b9150611bcb82612358565b602082019050919050565b6000611be3601383611f54565b9150611bee82612381565b602082019050919050565b6000611c06601483611f54565b9150611c11826123aa565b602082019050919050565b6000611c29600f83611f54565b9150611c34826123d3565b602082019050919050565b6000611c4c601483611f54565b9150611c57826123fc565b602082019050919050565b6000611c6f600983611f54565b9150611c7a82612425565b602082019050919050565b611c8e81612095565b82525050565b6000611ca08285611ad3565b9150611cac8284611ad3565b91508190509392505050565b6000602082019050611ccd6000830184611a43565b92915050565b6000608082019050611ce86000830187611a43565b611cf56020830186611a43565b611d026040830185611c85565b8181036060830152611d148184611a61565b905095945050505050565b6000602082019050611d346000830184611a52565b92915050565b60006020820190508181036000830152611d548184611a9a565b905092915050565b60006020820190508181036000830152611d7581611b04565b9050919050565b60006020820190508181036000830152611d9581611b27565b9050919050565b60006020820190508181036000830152611db581611b4a565b9050919050565b60006020820190508181036000830152611dd581611b6d565b9050919050565b60006020820190508181036000830152611df581611b90565b9050919050565b60006020820190508181036000830152611e1581611bb3565b9050919050565b60006020820190508181036000830152611e3581611bd6565b9050919050565b60006020820190508181036000830152611e5581611bf9565b9050919050565b60006020820190508181036000830152611e7581611c1c565b9050919050565b60006020820190508181036000830152611e9581611c3f565b9050919050565b60006020820190508181036000830152611eb581611c62565b9050919050565b6000602082019050611ed16000830184611c85565b92915050565b6000611ee1611ef2565b9050611eed8282612113565b919050565b6000604051905090565b600067ffffffffffffffff821115611f1757611f1661224b565b5b611f208261227a565b9050602081019050919050565b600081519050919050565b600081519050919050565b600082825260208201905092915050565b600082825260208201905092915050565b600081905092915050565b6000611f7b82612095565b9150611f8683612095565b9250827fffffffffffffffffffffffffffffffffffffffffffffffffffffffffffffffff03821115611fbb57611fba6121be565b5b828201905092915050565b6000611fd182612095565b9150611fdc83612095565b925082611fec57611feb6121ed565b5b828204905092915050565b600061200282612095565b915061200d83612095565b9250828210156120205761201f6121be565b5b828203905092915050565b600061203682612075565b9050919050565b60008115159050919050565b60007fffffffff0000000000000000000000000000000000000000000000000000000082169050919050565b600073ffffffffffffffffffffffffffffffffffffffff82169050919050565b6000819050919050565b82818337600083830152505050565b60005b838110156120cc5780820151818401526020810190506120b1565b838111156120db576000848401525b50505050565b600060028204905060018216806120f957607f821691505b6020821081141561210d5761210c61221c565b5b50919050565b61211c8261227a565b810181811067ffffffffffffffff8211171561213b5761213a61224b565b5b80604052505050565b600061214f82612095565b91507fffffffffffffffffffffffffffffffffffffffffffffffffffffffffffffffff821415612182576121816121be565b5b600182019050919050565b600061219882612095565b91506121a383612095565b9250826121b3576121b26121ed565b5b828206905092915050565b7f4e487b7100000000000000000000000000000000000000000000000000000000600052601160045260246000fd5b7f4e487b7100000000000000000000000000000000000000000000000000000000600052601260045260246000fd5b7f4e487b7100000000000000000000000000000000000000000000000000000000600052602260045260246000fd5b7f4e487b7100000000000000000000000000000000000000000000000000000000600052604160045260246000fd5b6000601f19601f8301169050919050565b7f746f6b656e4964206f7574206f662072616e6765000000000000000000000000600082015250565b7f6e6f74206f776e6572206e6f7220617070726f76656400000000000000000000600082015250565b7f7472616e7366657220746f20746865207a65726f206164647265737300000000600082015250565b7f617070726f76616c20746f2063757272656e74206f776e657200000000000000600082015250565b7f6e6f74206f776e6572206e6f7220617070726f76656420666f7220616c6c0000600082015250565b7f6d696e7420746f207a65726f2061646472657373000000000000000000000000600082015250565b7f746f6b656e20646f65736e277420657869737400000000000000000000000000600082015250565b7f6f776e6572203d207a65726f2061646472657373000000000000000000000000600082015250565b7f546f6b656e204e6f742045786973740000000000000000000000000000000000600082015250565b7f746f6b656e20616c7265616479206d696e746564000000000000000000000000600082015250565b7f6e6f74206f776e65720000000000000000000000000000000000000000000000600082015250565b6124578161202b565b811461246257600080fd5b50565b61246e8161203d565b811461247957600080fd5b50565b61248581612049565b811461249057600080fd5b50565b61249c81612095565b81146124a757600080fd5b5056fe697066733a2f2f516d65536a53696e4870506e6d586d73704d6a776958794e367a533445397a63636172694752336a7863615774712fa2646970667358221220ffd81c1474ab0ed5d42848981454118c46e1aba7f03dffd38aaa891dbef93bb764736f6c63430008040033",
					"opcodes": "PUSH1 0x80 PUSH1 0x40 MSTORE PUSH2 0x3E8 PUSH1 0x6 SSTORE CALLVALUE DUP1 ISZERO PUSH3 0x17 JUMPI PUSH1 0x0 DUP1 REVERT JUMPDEST POP PUSH1 0x40 MLOAD DUP1 PUSH1 0x40 ADD PUSH1 0x40 MSTORE DUP1 PUSH1 0xA DUP2 MSTORE PUSH1 0x20 ADD PUSH32 0x70656E63696C206E667400000000000000000000000000000000000000000000 DUP2 MSTORE POP PUSH1 0x40 MLOAD DUP1 PUSH1 0x40 ADD PUSH1 0x40 MSTORE DUP1 PUSH1 0x7 DUP2 MSTORE PUSH1 0x20 ADD PUSH32 0x50454E5F4E465400000000000000000000000000000000000000000000000000 DUP2 MSTORE POP DUP2 PUSH1 0x0 SWAP1 DUP1 MLOAD SWAP1 PUSH1 0x20 ADD SWAP1 PUSH3 0x9C SWAP3 SWAP2 SWAP1 PUSH3 0xBE JUMP JUMPDEST POP DUP1 PUSH1 0x1 SWAP1 DUP1 MLOAD SWAP1 PUSH1 0x20 ADD SWAP1 PUSH3 0xB5 SWAP3 SWAP2 SWAP1 PUSH3 0xBE JUMP JUMPDEST POP POP POP PUSH3 0x1D3 JUMP JUMPDEST DUP3 DUP1 SLOAD PUSH3 0xCC SWAP1 PUSH3 0x16E JUMP JUMPDEST SWAP1 PUSH1 0x0 MSTORE PUSH1 0x20 PUSH1 0x0 KECCAK256 SWAP1 PUSH1 0x1F ADD PUSH1 0x20 SWAP1 DIV DUP2 ADD SWAP3 DUP3 PUSH3 0xF0 JUMPI PUSH1 0x0 DUP6 SSTORE PUSH3 0x13C JUMP JUMPDEST DUP3 PUSH1 0x1F LT PUSH3 0x10B JUMPI DUP1 MLOAD PUSH1 0xFF NOT AND DUP4 DUP1 ADD OR DUP6 SSTORE PUSH3 0x13C JUMP JUMPDEST DUP3 DUP1 ADD PUSH1 0x1 ADD DUP6 SSTORE DUP3 ISZERO PUSH3 0x13C JUMPI SWAP2 DUP3 ADD JUMPDEST DUP3 DUP2 GT ISZERO PUSH3 0x13B JUMPI DUP3 MLOAD DUP3 SSTORE SWAP2 PUSH1 0x20 ADD SWAP2 SWAP1 PUSH1 0x1 ADD SWAP1 PUSH3 0x11E JUMP JUMPDEST JUMPDEST POP SWAP1 POP PUSH3 0x14B SWAP2 SWAP1 PUSH3 0x14F JUMP JUMPDEST POP SWAP1 JUMP JUMPDEST JUMPDEST DUP1 DUP3 GT ISZERO PUSH3 0x16A JUMPI PUSH1 0x0 DUP2 PUSH1 0x0 SWAP1 SSTORE POP PUSH1 0x1 ADD PUSH3 0x150 JUMP JUMPDEST POP SWAP1 JUMP JUMPDEST PUSH1 0x0 PUSH1 0x2 DUP3 DIV SWAP1 POP PUSH1 0x1 DUP3 AND DUP1 PUSH3 0x187 JUMPI PUSH1 0x7F DUP3 AND SWAP2 POP JUMPDEST PUSH1 0x20 DUP3 LT DUP2 EQ ISZERO PUSH3 0x19E JUMPI PUSH3 0x19D PUSH3 0x1A4 JUMP JUMPDEST JUMPDEST POP SWAP2 SWAP1 POP JUMP JUMPDEST PUSH32 0x4E487B7100000000000000000000000000000000000000000000000000000000 PUSH1 0x0 MSTORE PUSH1 0x22 PUSH1 0x4 MSTORE PUSH1 0x24 PUSH1 0x0 REVERT JUMPDEST PUSH2 0x2516 DUP1 PUSH3 0x1E3 PUSH1 0x0 CODECOPY PUSH1 0x0 RETURN INVALID PUSH1 0x80 PUSH1 0x40 MSTORE CALLVALUE DUP1 ISZERO PUSH2 0x10 JUMPI PUSH1 0x0 DUP1 REVERT JUMPDEST POP PUSH1 0x4 CALLDATASIZE LT PUSH2 0xF5 JUMPI PUSH1 0x0 CALLDATALOAD PUSH1 0xE0 SHR DUP1 PUSH4 0x6352211E GT PUSH2 0x97 JUMPI DUP1 PUSH4 0xB88D4FDE GT PUSH2 0x66 JUMPI DUP1 PUSH4 0xB88D4FDE EQ PUSH2 0x282 JUMPI DUP1 PUSH4 0xBB8A16BD EQ PUSH2 0x29E JUMPI DUP1 PUSH4 0xC87B56DD EQ PUSH2 0x2BC JUMPI DUP1 PUSH4 0xE985E9C5 EQ PUSH2 0x2EC JUMPI PUSH2 0xF5 JUMP JUMPDEST DUP1 PUSH4 0x6352211E EQ PUSH2 0x1E8 JUMPI DUP1 PUSH4 0x70A08231 EQ PUSH2 0x218 JUMPI DUP1 PUSH4 0x95D89B41 EQ PUSH2 0x248 JUMPI DUP1 PUSH4 0xA22CB465 EQ PUSH2 0x266 JUMPI PUSH2 0xF5 JUMP JUMPDEST DUP1 PUSH4 0x95EA7B3 GT PUSH2 0xD3 JUMPI DUP1 PUSH4 0x95EA7B3 EQ PUSH2 0x178 JUMPI DUP1 PUSH4 0x23B872DD EQ PUSH2 0x194 JUMPI DUP1 PUSH4 0x40C10F19 EQ PUSH2 0x1B0 JUMPI DUP1 PUSH4 0x42842E0E EQ PUSH2 0x1CC JUMPI PUSH2 0xF5 JUMP JUMPDEST DUP1 PUSH4 0x1FFC9A7 EQ PUSH2 0xFA JUMPI DUP1 PUSH4 0x6FDDE03 EQ PUSH2 0x12A JUMPI DUP1 PUSH4 0x81812FC EQ PUSH2 0x148 JUMPI JUMPDEST PUSH1 0x0 DUP1 REVERT JUMPDEST PUSH2 0x114 PUSH1 0x4 DUP1 CALLDATASIZE SUB DUP2 ADD SWAP1 PUSH2 0x10F SWAP2 SWAP1 PUSH2 0x19C8 JUMP JUMPDEST PUSH2 0x31C JUMP JUMPDEST PUSH1 0x40 MLOAD PUSH2 0x121 SWAP2 SWAP1 PUSH2 0x1D1F JUMP JUMPDEST PUSH1 0x40 MLOAD DUP1 SWAP2 SUB SWAP1 RETURN JUMPDEST PUSH2 0x132 PUSH2 0x456 JUMP JUMPDEST PUSH1 0x40 MLOAD PUSH2 0x13F SWAP2 SWAP1 PUSH2 0x1D3A JUMP JUMPDEST PUSH1 0x40 MLOAD DUP1 SWAP2 SUB SWAP1 RETURN JUMPDEST PUSH2 0x162 PUSH1 0x4 DUP1 CALLDATASIZE SUB DUP2 ADD SWAP1 PUSH2 0x15D SWAP2 SWAP1 PUSH2 0x1A1A JUMP JUMPDEST PUSH2 0x4E4 JUMP JUMPDEST PUSH1 0x40 MLOAD PUSH2 0x16F SWAP2 SWAP1 PUSH2 0x1CB8 JUMP JUMPDEST PUSH1 0x40 MLOAD DUP1 SWAP2 SUB SWAP1 RETURN JUMPDEST PUSH2 0x192 PUSH1 0x4 DUP1 CALLDATASIZE SUB DUP2 ADD SWAP1 PUSH2 0x18D SWAP2 SWAP1 PUSH2 0x198C JUMP JUMPDEST PUSH2 0x5C3 JUMP JUMPDEST STOP JUMPDEST PUSH2 0x1AE PUSH1 0x4 DUP1 CALLDATASIZE SUB DUP2 ADD SWAP1 PUSH2 0x1A9 SWAP2 SWAP1 PUSH2 0x1886 JUMP JUMPDEST PUSH2 0x779 JUMP JUMPDEST STOP JUMPDEST PUSH2 0x1CA PUSH1 0x4 DUP1 CALLDATASIZE SUB DUP2 ADD SWAP1 PUSH2 0x1C5 SWAP2 SWAP1 PUSH2 0x198C JUMP JUMPDEST PUSH2 0x7E2 JUMP JUMPDEST STOP JUMPDEST PUSH2 0x1E6 PUSH1 0x4 DUP1 CALLDATASIZE SUB DUP2 ADD SWAP1 PUSH2 0x1E1 SWAP2 SWAP1 PUSH2 0x1886 JUMP JUMPDEST PUSH2 0x841 JUMP JUMPDEST STOP JUMPDEST PUSH2 0x202 PUSH1 0x4 DUP1 CALLDATASIZE SUB DUP2 ADD SWAP1 PUSH2 0x1FD SWAP2 SWAP1 PUSH2 0x1A1A JUMP JUMPDEST PUSH2 0x861 JUMP JUMPDEST PUSH1 0x40 MLOAD PUSH2 0x20F SWAP2 SWAP1 PUSH2 0x1CB8 JUMP JUMPDEST PUSH1 0x40 MLOAD DUP1 SWAP2 SUB SWAP1 RETURN JUMPDEST PUSH2 0x232 PUSH1 0x4 DUP1 CALLDATASIZE SUB DUP2 ADD SWAP1 PUSH2 0x22D SWAP2 SWAP1 PUSH2 0x1821 JUMP JUMPDEST PUSH2 0x90E JUMP JUMPDEST PUSH1 0x40 MLOAD PUSH2 0x23F SWAP2 SWAP1 PUSH2 0x1EBC JUMP JUMPDEST PUSH1 0x40 MLOAD DUP1 SWAP2 SUB SWAP1 RETURN JUMPDEST PUSH2 0x250 PUSH2 0x9C6 JUMP JUMPDEST PUSH1 0x40 MLOAD PUSH2 0x25D SWAP2 SWAP1 PUSH2 0x1D3A JUMP JUMPDEST PUSH1 0x40 MLOAD DUP1 SWAP2 SUB SWAP1 RETURN JUMPDEST PUSH2 0x280 PUSH1 0x4 DUP1 CALLDATASIZE SUB DUP2 ADD SWAP1 PUSH2 0x27B SWAP2 SWAP1 PUSH2 0x1950 JUMP JUMPDEST PUSH2 0xA54 JUMP JUMPDEST STOP JUMPDEST PUSH2 0x29C PUSH1 0x4 DUP1 CALLDATASIZE SUB DUP2 ADD SWAP1 PUSH2 0x297 SWAP2 SWAP1 PUSH2 0x18D5 JUMP JUMPDEST PUSH2 0xB51 JUMP JUMPDEST STOP JUMPDEST PUSH2 0x2A6 PUSH2 0xBBC JUMP JUMPDEST PUSH1 0x40 MLOAD PUSH2 0x2B3 SWAP2 SWAP1 PUSH2 0x1EBC JUMP JUMPDEST PUSH1 0x40 MLOAD DUP1 SWAP2 SUB SWAP1 RETURN JUMPDEST PUSH2 0x2D6 PUSH1 0x4 DUP1 CALLDATASIZE SUB DUP2 ADD SWAP1 PUSH2 0x2D1 SWAP2 SWAP1 PUSH2 0x1A1A JUMP JUMPDEST PUSH2 0xBC2 JUMP JUMPDEST PUSH1 0x40 MLOAD PUSH2 0x2E3 SWAP2 SWAP1 PUSH2 0x1D3A JUMP JUMPDEST PUSH1 0x40 MLOAD DUP1 SWAP2 SUB SWAP1 RETURN JUMPDEST PUSH2 0x306 PUSH1 0x4 DUP1 CALLDATASIZE SUB DUP2 ADD SWAP1 PUSH2 0x301 SWAP2 SWAP1 PUSH2 0x184A JUMP JUMPDEST PUSH2 0xCC4 JUMP JUMPDEST PUSH1 0x40 MLOAD PUSH2 0x313 SWAP2 SWAP1 PUSH2 0x1D1F JUMP JUMPDEST PUSH1 0x40 MLOAD DUP1 SWAP2 SUB SWAP1 RETURN JUMPDEST PUSH1 0x0 PUSH32 0x80AC58CD00000000000000000000000000000000000000000000000000000000 PUSH28 0xFFFFFFFFFFFFFFFFFFFFFFFFFFFFFFFFFFFFFFFFFFFFFFFFFFFFFFFF NOT AND DUP3 PUSH28 0xFFFFFFFFFFFFFFFFFFFFFFFFFFFFFFFFFFFFFFFFFFFFFFFFFFFFFFFF NOT AND EQ DUP1 PUSH2 0x3E7 JUMPI POP PUSH32 0x1FFC9A700000000000000000000000000000000000000000000000000000000 PUSH28 0xFFFFFFFFFFFFFFFFFFFFFFFFFFFFFFFFFFFFFFFFFFFFFFFFFFFFFFFF NOT AND DUP3 PUSH28 0xFFFFFFFFFFFFFFFFFFFFFFFFFFFFFFFFFFFFFFFFFFFFFFFFFFFFFFFF NOT AND EQ JUMPDEST DUP1 PUSH2 0x44F JUMPI POP PUSH32 0x5B5E139F00000000000000000000000000000000000000000000000000000000 PUSH28 0xFFFFFFFFFFFFFFFFFFFFFFFFFFFFFFFFFFFFFFFFFFFFFFFFFFFFFFFF NOT AND DUP3 PUSH28 0xFFFFFFFFFFFFFFFFFFFFFFFFFFFFFFFFFFFFFFFFFFFFFFFFFFFFFFFF NOT AND EQ JUMPDEST SWAP1 POP SWAP2 SWAP1 POP JUMP JUMPDEST PUSH1 0x0 DUP1 SLOAD PUSH2 0x463 SWAP1 PUSH2 0x20E1 JUMP JUMPDEST DUP1 PUSH1 0x1F ADD PUSH1 0x20 DUP1 SWAP2 DIV MUL PUSH1 0x20 ADD PUSH1 0x40 MLOAD SWAP1 DUP2 ADD PUSH1 0x40 MSTORE DUP1 SWAP3 SWAP2 SWAP1 DUP2 DUP2 MSTORE PUSH1 0x20 ADD DUP3 DUP1 SLOAD PUSH2 0x48F SWAP1 PUSH2 0x20E1 JUMP JUMPDEST DUP1 ISZERO PUSH2 0x4DC JUMPI DUP1 PUSH1 0x1F LT PUSH2 0x4B1 JUMPI PUSH2 0x100 DUP1 DUP4 SLOAD DIV MUL DUP4 MSTORE SWAP2 PUSH1 0x20 ADD SWAP2 PUSH2 0x4DC JUMP JUMPDEST DUP3 ADD SWAP2 SWAP1 PUSH1 0x0 MSTORE PUSH1 0x20 PUSH1 0x0 KECCAK256 SWAP1 JUMPDEST DUP2 SLOAD DUP2 MSTORE SWAP1 PUSH1 0x1 ADD SWAP1 PUSH1 0x20 ADD DUP1 DUP4 GT PUSH2 0x4BF JUMPI DUP3 SWAP1 SUB PUSH1 0x1F AND DUP3 ADD SWAP2 JUMPDEST POP POP POP POP POP DUP2 JUMP JUMPDEST PUSH1 0x0 DUP1 PUSH20 0xFFFFFFFFFFFFFFFFFFFFFFFFFFFFFFFFFFFFFFFF AND PUSH1 0x2 PUSH1 0x0 DUP5 DUP2 MSTORE PUSH1 0x20 ADD SWAP1 DUP2 MSTORE PUSH1 0x20 ADD PUSH1 0x0 KECCAK256 PUSH1 0x0 SWAP1 SLOAD SWAP1 PUSH2 0x100 EXP SWAP1 DIV PUSH20 0xFFFFFFFFFFFFFFFFFFFFFFFFFFFFFFFFFFFFFFFF AND PUSH20 0xFFFFFFFFFFFFFFFFFFFFFFFFFFFFFFFFFFFFFFFF AND EQ ISZERO PUSH2 0x588 JUMPI PUSH1 0x40 MLOAD PUSH32 0x8C379A000000000000000000000000000000000000000000000000000000000 DUP2 MSTORE PUSH1 0x4 ADD PUSH2 0x57F SWAP1 PUSH2 0x1E1C JUMP JUMPDEST PUSH1 0x40 MLOAD DUP1 SWAP2 SUB SWAP1 REVERT JUMPDEST PUSH1 0x4 PUSH1 0x0 DUP4 DUP2 MSTORE PUSH1 0x20 ADD SWAP1 DUP2 MSTORE PUSH1 0x20 ADD PUSH1 0x0 KECCAK256 PUSH1 0x0 SWAP1 SLOAD SWAP1 PUSH2 0x100 EXP SWAP1 DIV PUSH20 0xFFFFFFFFFFFFFFFFFFFFFFFFFFFFFFFFFFFFFFFF AND SWAP1 POP SWAP2 SWAP1 POP JUMP JUMPDEST PUSH1 0x0 PUSH1 0x2 PUSH1 0x0 DUP4 DUP2 MSTORE PUSH1 0x20 ADD SWAP1 DUP2 MSTORE PUSH1 0x20 ADD PUSH1 0x0 KECCAK256 PUSH1 0x0 SWAP1 SLOAD SWAP1 PUSH2 0x100 EXP SWAP1 DIV PUSH20 0xFFFFFFFFFFFFFFFFFFFFFFFFFFFFFFFFFFFFFFFF AND SWAP1 POP DUP1 PUSH20 0xFFFFFFFFFFFFFFFFFFFFFFFFFFFFFFFFFFFFFFFF AND DUP4 PUSH20 0xFFFFFFFFFFFFFFFFFFFFFFFFFFFFFFFFFFFFFFFF AND EQ ISZERO PUSH2 0x66A JUMPI PUSH1 0x40 MLOAD PUSH32 0x8C379A000000000000000000000000000000000000000000000000000000000 DUP2 MSTORE PUSH1 0x4 ADD PUSH2 0x661 SWAP1 PUSH2 0x1DBC JUMP JUMPDEST PUSH1 0x40 MLOAD DUP1 SWAP2 SUB SWAP1 REVERT JUMPDEST DUP1 PUSH20 0xFFFFFFFFFFFFFFFFFFFFFFFFFFFFFFFFFFFFFFFF AND CALLER PUSH20 0xFFFFFFFFFFFFFFFFFFFFFFFFFFFFFFFFFFFFFFFF AND EQ DUP1 PUSH2 0x72A JUMPI POP PUSH1 0x5 PUSH1 0x0 DUP3 PUSH20 0xFFFFFFFFFFFFFFFFFFFFFFFFFFFFFFFFFFFFFFFF AND PUSH20 0xFFFFFFFFFFFFFFFFFFFFFFFFFFFFFFFFFFFFFFFF AND DUP2 MSTORE PUSH1 0x20 ADD SWAP1 DUP2 MSTORE PUSH1 0x20 ADD PUSH1 0x0 KECCAK256 PUSH1 0x0 CALLER PUSH20 0xFFFFFFFFFFFFFFFFFFFFFFFFFFFFFFFFFFFFFFFF AND PUSH20 0xFFFFFFFFFFFFFFFFFFFFFFFFFFFFFFFFFFFFFFFF AND DUP2 MSTORE PUSH1 0x20 ADD SWAP1 DUP2 MSTORE PUSH1 0x20 ADD PUSH1 0x0 KECCAK256 PUSH1 0x0 SWAP1 SLOAD SWAP1 PUSH2 0x100 EXP SWAP1 DIV PUSH1 0xFF AND JUMPDEST PUSH2 0x769 JUMPI PUSH1 0x40 MLOAD PUSH32 0x8C379A000000000000000000000000000000000000000000000000000000000 DUP2 MSTORE PUSH1 0x4 ADD PUSH2 0x760 SWAP1 PUSH2 0x1DDC JUMP JUMPDEST PUSH1 0x40 MLOAD DUP1 SWAP2 SUB SWAP1 REVERT JUMPDEST PUSH2 0x774 DUP2 DUP5 DUP5 PUSH2 0xD58 JUMP JUMPDEST POP POP POP JUMP JUMPDEST PUSH1 0x0 PUSH2 0x784 DUP3 PUSH2 0x861 JUMP JUMPDEST SWAP1 POP PUSH2 0x791 DUP2 CALLER DUP5 PUSH2 0xE0A JUMP JUMPDEST PUSH2 0x7D0 JUMPI PUSH1 0x40 MLOAD PUSH32 0x8C379A000000000000000000000000000000000000000000000000000000000 DUP2 MSTORE PUSH1 0x4 ADD PUSH2 0x7C7 SWAP1 PUSH2 0x1D7C JUMP JUMPDEST PUSH1 0x40 MLOAD DUP1 SWAP2 SUB SWAP1 REVERT JUMPDEST PUSH2 0x7DC DUP2 DUP6 DUP6 DUP6 PUSH2 0xF3E JUMP JUMPDEST POP POP POP POP JUMP JUMPDEST PUSH1 0x0 DUP2 LT ISZERO DUP1 ISZERO PUSH2 0x7F4 JUMPI POP PUSH1 0x6 SLOAD DUP2 LT JUMPDEST PUSH2 0x833 JUMPI PUSH1 0x40 MLOAD PUSH32 0x8C379A000000000000000000000000000000000000000000000000000000000 DUP2 MSTORE PUSH1 0x4 ADD PUSH2 0x82A SWAP1 PUSH2 0x1D5C JUMP JUMPDEST PUSH1 0x40 MLOAD DUP1 SWAP2 SUB SWAP1 REVERT JUMPDEST PUSH2 0x83D DUP3 DUP3 PUSH2 0x1189 JUMP JUMPDEST POP POP JUMP JUMPDEST PUSH2 0x85C DUP4 DUP4 DUP4 PUSH1 0x40 MLOAD DUP1 PUSH1 0x20 ADD PUSH1 0x40 MSTORE DUP1 PUSH1 0x0 DUP2 MSTORE POP PUSH2 0xB51 JUMP JUMPDEST POP POP POP JUMP JUMPDEST PUSH1 0x0 PUSH1 0x2 PUSH1 0x0 DUP4 DUP2 MSTORE PUSH1 0x20 ADD SWAP1 DUP2 MSTORE PUSH1 0x20 ADD PUSH1 0x0 KECCAK256 PUSH1 0x0 SWAP1 SLOAD SWAP1 PUSH2 0x100 EXP SWAP1 DIV PUSH20 0xFFFFFFFFFFFFFFFFFFFFFFFFFFFFFFFFFFFFFFFF AND SWAP1 POP PUSH1 0x0 PUSH20 0xFFFFFFFFFFFFFFFFFFFFFFFFFFFFFFFFFFFFFFFF AND DUP2 PUSH20 0xFFFFFFFFFFFFFFFFFFFFFFFFFFFFFFFFFFFFFFFF AND EQ ISZERO PUSH2 0x909 JUMPI PUSH1 0x40 MLOAD PUSH32 0x8C379A000000000000000000000000000000000000000000000000000000000 DUP2 MSTORE PUSH1 0x4 ADD PUSH2 0x900 SWAP1 PUSH2 0x1E1C JUMP JUMPDEST PUSH1 0x40 MLOAD DUP1 SWAP2 SUB SWAP1 REVERT JUMPDEST SWAP2 SWAP1 POP JUMP JUMPDEST PUSH1 0x0 DUP1 PUSH20 0xFFFFFFFFFFFFFFFFFFFFFFFFFFFFFFFFFFFFFFFF AND DUP3 PUSH20 0xFFFFFFFFFFFFFFFFFFFFFFFFFFFFFFFFFFFFFFFF AND EQ ISZERO PUSH2 0x97F JUMPI PUSH1 0x40 MLOAD PUSH32 0x8C379A000000000000000000000000000000000000000000000000000000000 DUP2 MSTORE PUSH1 0x4 ADD PUSH2 0x976 SWAP1 PUSH2 0x1E3C JUMP JUMPDEST PUSH1 0x40 MLOAD DUP1 SWAP2 SUB SWAP1 REVERT JUMPDEST PUSH1 0x3 PUSH1 0x0 DUP4 PUSH20 0xFFFFFFFFFFFFFFFFFFFFFFFFFFFFFFFFFFFFFFFF AND PUSH20 0xFFFFFFFFFFFFFFFFFFFFFFFFFFFFFFFFFFFFFFFF AND DUP2 MSTORE PUSH1 0x20 ADD SWAP1 DUP2 MSTORE PUSH1 0x20 ADD PUSH1 0x0 KECCAK256 SLOAD SWAP1 POP SWAP2 SWAP1 POP JUMP JUMPDEST PUSH1 0x1 DUP1 SLOAD PUSH2 0x9D3 SWAP1 PUSH2 0x20E1 JUMP JUMPDEST DUP1 PUSH1 0x1F ADD PUSH1 0x20 DUP1 SWAP2 DIV MUL PUSH1 0x20 ADD PUSH1 0x40 MLOAD SWAP1 DUP2 ADD PUSH1 0x40 MSTORE DUP1 SWAP3 SWAP2 SWAP1 DUP2 DUP2 MSTORE PUSH1 0x20 ADD DUP3 DUP1 SLOAD PUSH2 0x9FF SWAP1 PUSH2 0x20E1 JUMP JUMPDEST DUP1 ISZERO PUSH2 0xA4C JUMPI DUP1 PUSH1 0x1F LT PUSH2 0xA21 JUMPI PUSH2 0x100 DUP1 DUP4 SLOAD DIV MUL DUP4 MSTORE SWAP2 PUSH1 0x20 ADD SWAP2 PUSH2 0xA4C JUMP JUMPDEST DUP3 ADD SWAP2 SWAP1 PUSH1 0x0 MSTORE PUSH1 0x20 PUSH1 0x0 KECCAK256 SWAP1 JUMPDEST DUP2 SLOAD DUP2 MSTORE SWAP1 PUSH1 0x1 ADD SWAP1 PUSH1 0x20 ADD DUP1 DUP4 GT PUSH2 0xA2F JUMPI DUP3 SWAP1 SUB PUSH1 0x1F AND DUP3 ADD SWAP2 JUMPDEST POP POP POP POP POP DUP2 JUMP JUMPDEST DUP1 PUSH1 0x5 PUSH1 0x0 CALLER PUSH20 0xFFFFFFFFFFFFFFFFFFFFFFFFFFFFFFFFFFFFFFFF AND PUSH20 0xFFFFFFFFFFFFFFFFFFFFFFFFFFFFFFFFFFFFFFFF AND DUP2 MSTORE PUSH1 0x20 ADD SWAP1 DUP2 MSTORE PUSH1 0x20 ADD PUSH1 0x0 KECCAK256 PUSH1 0x0 DUP5 PUSH20 0xFFFFFFFFFFFFFFFFFFFFFFFFFFFFFFFFFFFFFFFF AND PUSH20 0xFFFFFFFFFFFFFFFFFFFFFFFFFFFFFFFFFFFFFFFF AND DUP2 MSTORE PUSH1 0x20 ADD SWAP1 DUP2 MSTORE PUSH1 0x20 ADD PUSH1 0x0 KECCAK256 PUSH1 0x0 PUSH2 0x100 EXP DUP2 SLOAD DUP2 PUSH1 0xFF MUL NOT AND SWAP1 DUP4 ISZERO ISZERO MUL OR SWAP1 SSTORE POP DUP2 PUSH20 0xFFFFFFFFFFFFFFFFFFFFFFFFFFFFFFFFFFFFFFFF AND CALLER PUSH20 0xFFFFFFFFFFFFFFFFFFFFFFFFFFFFFFFFFFFFFFFF AND PUSH32 0x17307EAB39AB6107E8899845AD3D59BD9653F200F220920489CA2B5937696C31 DUP4 PUSH1 0x40 MLOAD PUSH2 0xB45 SWAP2 SWAP1 PUSH2 0x1D1F JUMP JUMPDEST PUSH1 0x40 MLOAD DUP1 SWAP2 SUB SWAP1 LOG3 POP POP JUMP JUMPDEST PUSH1 0x0 PUSH2 0xB5C DUP4 PUSH2 0x861 JUMP JUMPDEST SWAP1 POP PUSH2 0xB69 DUP2 CALLER DUP6 PUSH2 0xE0A JUMP JUMPDEST PUSH2 0xBA8 JUMPI PUSH1 0x40 MLOAD PUSH32 0x8C379A000000000000000000000000000000000000000000000000000000000 DUP2 MSTORE PUSH1 0x4 ADD PUSH2 0xB9F SWAP1 PUSH2 0x1D7C JUMP JUMPDEST PUSH1 0x40 MLOAD DUP1 SWAP2 SUB SWAP1 REVERT JUMPDEST PUSH2 0xBB5 DUP2 DUP7 DUP7 DUP7 DUP7 PUSH2 0x13A4 JUMP JUMPDEST POP POP POP POP POP JUMP JUMPDEST PUSH1 0x6 SLOAD DUP2 JUMP JUMPDEST PUSH1 0x60 PUSH1 0x0 PUSH20 0xFFFFFFFFFFFFFFFFFFFFFFFFFFFFFFFFFFFFFFFF AND PUSH1 0x2 PUSH1 0x0 DUP5 DUP2 MSTORE PUSH1 0x20 ADD SWAP1 DUP2 MSTORE PUSH1 0x20 ADD PUSH1 0x0 KECCAK256 PUSH1 0x0 SWAP1 SLOAD SWAP1 PUSH2 0x100 EXP SWAP1 DIV PUSH20 0xFFFFFFFFFFFFFFFFFFFFFFFFFFFFFFFFFFFFFFFF AND PUSH20 0xFFFFFFFFFFFFFFFFFFFFFFFFFFFFFFFFFFFFFFFF AND EQ ISZERO PUSH2 0xC67 JUMPI PUSH1 0x40 MLOAD PUSH32 0x8C379A000000000000000000000000000000000000000000000000000000000 DUP2 MSTORE PUSH1 0x4 ADD PUSH2 0xC5E SWAP1 PUSH2 0x1E5C JUMP JUMPDEST PUSH1 0x40 MLOAD DUP1 SWAP2 SUB SWAP1 REVERT JUMPDEST PUSH1 0x0 PUSH2 0xC71 PUSH2 0x13C3 JUMP JUMPDEST SWAP1 POP PUSH1 0x0 DUP2 MLOAD GT PUSH2 0xC91 JUMPI PUSH1 0x40 MLOAD DUP1 PUSH1 0x20 ADD PUSH1 0x40 MSTORE DUP1 PUSH1 0x0 DUP2 MSTORE POP PUSH2 0xCBC JUMP JUMPDEST DUP1 PUSH2 0xC9B DUP5 PUSH2 0x13E3 JUMP JUMPDEST PUSH1 0x40 MLOAD PUSH1 0x20 ADD PUSH2 0xCAC SWAP3 SWAP2 SWAP1 PUSH2 0x1C94 JUMP JUMPDEST PUSH1 0x40 MLOAD PUSH1 0x20 DUP2 DUP4 SUB SUB DUP2 MSTORE SWAP1 PUSH1 0x40 MSTORE JUMPDEST SWAP2 POP POP SWAP2 SWAP1 POP JUMP JUMPDEST PUSH1 0x0 PUSH1 0x5 PUSH1 0x0 DUP5 PUSH20 0xFFFFFFFFFFFFFFFFFFFFFFFFFFFFFFFFFFFFFFFF AND PUSH20 0xFFFFFFFFFFFFFFFFFFFFFFFFFFFFFFFFFFFFFFFF AND DUP2 MSTORE PUSH1 0x20 ADD SWAP1 DUP2 MSTORE PUSH1 0x20 ADD PUSH1 0x0 KECCAK256 PUSH1 0x0 DUP4 PUSH20 0xFFFFFFFFFFFFFFFFFFFFFFFFFFFFFFFFFFFFFFFF AND PUSH20 0xFFFFFFFFFFFFFFFFFFFFFFFFFFFFFFFFFFFFFFFF AND DUP2 MSTORE PUSH1 0x20 ADD SWAP1 DUP2 MSTORE PUSH1 0x20 ADD PUSH1 0x0 KECCAK256 PUSH1 0x0 SWAP1 SLOAD SWAP1 PUSH2 0x100 EXP SWAP1 DIV PUSH1 0xFF AND SWAP1 POP SWAP3 SWAP2 POP POP JUMP JUMPDEST DUP2 PUSH1 0x4 PUSH1 0x0 DUP4 DUP2 MSTORE PUSH1 0x20 ADD SWAP1 DUP2 MSTORE PUSH1 0x20 ADD PUSH1 0x0 KECCAK256 PUSH1 0x0 PUSH2 0x100 EXP DUP2 SLOAD DUP2 PUSH20 0xFFFFFFFFFFFFFFFFFFFFFFFFFFFFFFFFFFFFFFFF MUL NOT AND SWAP1 DUP4 PUSH20 0xFFFFFFFFFFFFFFFFFFFFFFFFFFFFFFFFFFFFFFFF AND MUL OR SWAP1 SSTORE POP DUP1 DUP3 PUSH20 0xFFFFFFFFFFFFFFFFFFFFFFFFFFFFFFFFFFFFFFFF AND DUP5 PUSH20 0xFFFFFFFFFFFFFFFFFFFFFFFFFFFFFFFFFFFFFFFF AND PUSH32 0x8C5BE1E5EBEC7D5BD14F71427D1E84F3DD0314C0F7B2291E5B200AC8C7C3B925 PUSH1 0x40 MLOAD PUSH1 0x40 MLOAD DUP1 SWAP2 SUB SWAP1 LOG4 POP POP POP JUMP JUMPDEST PUSH1 0x0 DUP4 PUSH20 0xFFFFFFFFFFFFFFFFFFFFFFFFFFFFFFFFFFFFFFFF AND DUP4 PUSH20 0xFFFFFFFFFFFFFFFFFFFFFFFFFFFFFFFFFFFFFFFF AND EQ DUP1 PUSH2 0xEA4 JUMPI POP DUP3 PUSH20 0xFFFFFFFFFFFFFFFFFFFFFFFFFFFFFFFFFFFFFFFF AND PUSH1 0x4 PUSH1 0x0 DUP5 DUP2 MSTORE PUSH1 0x20 ADD SWAP1 DUP2 MSTORE PUSH1 0x20 ADD PUSH1 0x0 KECCAK256 PUSH1 0x0 SWAP1 SLOAD SWAP1 PUSH2 0x100 EXP SWAP1 DIV PUSH20 0xFFFFFFFFFFFFFFFFFFFFFFFFFFFFFFFFFFFFFFFF AND PUSH20 0xFFFFFFFFFFFFFFFFFFFFFFFFFFFFFFFFFFFFFFFF AND EQ JUMPDEST DUP1 PUSH2 0xF35 JUMPI POP PUSH1 0x5 PUSH1 0x0 DUP6 PUSH20 0xFFFFFFFFFFFFFFFFFFFFFFFFFFFFFFFFFFFFFFFF AND PUSH20 0xFFFFFFFFFFFFFFFFFFFFFFFFFFFFFFFFFFFFFFFF AND DUP2 MSTORE PUSH1 0x20 ADD SWAP1 DUP2 MSTORE PUSH1 0x20 ADD PUSH1 0x0 KECCAK256 PUSH1 0x0 DUP5 PUSH20 0xFFFFFFFFFFFFFFFFFFFFFFFFFFFFFFFFFFFFFFFF AND PUSH20 0xFFFFFFFFFFFFFFFFFFFFFFFFFFFFFFFFFFFFFFFF AND DUP2 MSTORE PUSH1 0x20 ADD SWAP1 DUP2 MSTORE PUSH1 0x20 ADD PUSH1 0x0 KECCAK256 PUSH1 0x0 SWAP1 SLOAD SWAP1 PUSH2 0x100 EXP SWAP1 DIV PUSH1 0xFF AND JUMPDEST SWAP1 POP SWAP4 SWAP3 POP POP POP JUMP JUMPDEST DUP4 PUSH20 0xFFFFFFFFFFFFFFFFFFFFFFFFFFFFFFFFFFFFFFFF AND DUP4 PUSH20 0xFFFFFFFFFFFFFFFFFFFFFFFFFFFFFFFFFFFFFFFF AND EQ PUSH2 0xFAC JUMPI PUSH1 0x40 MLOAD PUSH32 0x8C379A000000000000000000000000000000000000000000000000000000000 DUP2 MSTORE PUSH1 0x4 ADD PUSH2 0xFA3 SWAP1 PUSH2 0x1E9C JUMP JUMPDEST PUSH1 0x40 MLOAD DUP1 SWAP2 SUB SWAP1 REVERT JUMPDEST PUSH1 0x0 PUSH20 0xFFFFFFFFFFFFFFFFFFFFFFFFFFFFFFFFFFFFFFFF AND DUP3 PUSH20 0xFFFFFFFFFFFFFFFFFFFFFFFFFFFFFFFFFFFFFFFF AND EQ ISZERO PUSH2 0x101C JUMPI PUSH1 0x40 MLOAD PUSH32 0x8C379A000000000000000000000000000000000000000000000000000000000 DUP2 MSTORE PUSH1 0x4 ADD PUSH2 0x1013 SWAP1 PUSH2 0x1D9C JUMP JUMPDEST PUSH1 0x40 MLOAD DUP1 SWAP2 SUB SWAP1 REVERT JUMPDEST PUSH2 0x1028 DUP5 PUSH1 0x0 DUP4 PUSH2 0xD58 JUMP JUMPDEST PUSH1 0x1 PUSH1 0x3 PUSH1 0x0 DUP6 PUSH20 0xFFFFFFFFFFFFFFFFFFFFFFFFFFFFFFFFFFFFFFFF AND PUSH20 0xFFFFFFFFFFFFFFFFFFFFFFFFFFFFFFFFFFFFFFFF AND DUP2 MSTORE PUSH1 0x20 ADD SWAP1 DUP2 MSTORE PUSH1 0x20 ADD PUSH1 0x0 KECCAK256 PUSH1 0x0 DUP3 DUP3 SLOAD PUSH2 0x1078 SWAP2 SWAP1 PUSH2 0x1FF7 JUMP JUMPDEST SWAP3 POP POP DUP2 SWAP1 SSTORE POP PUSH1 0x1 PUSH1 0x3 PUSH1 0x0 DUP5 PUSH20 0xFFFFFFFFFFFFFFFFFFFFFFFFFFFFFFFFFFFFFFFF AND PUSH20 0xFFFFFFFFFFFFFFFFFFFFFFFFFFFFFFFFFFFFFFFF AND DUP2 MSTORE PUSH1 0x20 ADD SWAP1 DUP2 MSTORE PUSH1 0x20 ADD PUSH1 0x0 KECCAK256 PUSH1 0x0 DUP3 DUP3 SLOAD PUSH2 0x10CF SWAP2 SWAP1 PUSH2 0x1F70 JUMP JUMPDEST SWAP3 POP POP DUP2 SWAP1 SSTORE POP DUP2 PUSH1 0x2 PUSH1 0x0 DUP4 DUP2 MSTORE PUSH1 0x20 ADD SWAP1 DUP2 MSTORE PUSH1 0x20 ADD PUSH1 0x0 KECCAK256 PUSH1 0x0 PUSH2 0x100 EXP DUP2 SLOAD DUP2 PUSH20 0xFFFFFFFFFFFFFFFFFFFFFFFFFFFFFFFFFFFFFFFF MUL NOT AND SWAP1 DUP4 PUSH20 0xFFFFFFFFFFFFFFFFFFFFFFFFFFFFFFFFFFFFFFFF AND MUL OR SWAP1 SSTORE POP DUP1 DUP3 PUSH20 0xFFFFFFFFFFFFFFFFFFFFFFFFFFFFFFFFFFFFFFFF AND DUP5 PUSH20 0xFFFFFFFFFFFFFFFFFFFFFFFFFFFFFFFFFFFFFFFF AND PUSH32 0xDDF252AD1BE2C89B69C2B068FC378DAA952BA7F163C4A11628F55A4DF523B3EF PUSH1 0x40 MLOAD PUSH1 0x40 MLOAD DUP1 SWAP2 SUB SWAP1 LOG4 POP POP POP POP JUMP JUMPDEST PUSH1 0x0 PUSH20 0xFFFFFFFFFFFFFFFFFFFFFFFFFFFFFFFFFFFFFFFF AND DUP3 PUSH20 0xFFFFFFFFFFFFFFFFFFFFFFFFFFFFFFFFFFFFFFFF AND EQ ISZERO PUSH2 0x11F9 JUMPI PUSH1 0x40 MLOAD PUSH32 0x8C379A000000000000000000000000000000000000000000000000000000000 DUP2 MSTORE PUSH1 0x4 ADD PUSH2 0x11F0 SWAP1 PUSH2 0x1DFC JUMP JUMPDEST PUSH1 0x40 MLOAD DUP1 SWAP2 SUB SWAP1 REVERT JUMPDEST PUSH1 0x0 PUSH20 0xFFFFFFFFFFFFFFFFFFFFFFFFFFFFFFFFFFFFFFFF AND PUSH1 0x2 PUSH1 0x0 DUP4 DUP2 MSTORE PUSH1 0x20 ADD SWAP1 DUP2 MSTORE PUSH1 0x20 ADD PUSH1 0x0 KECCAK256 PUSH1 0x0 SWAP1 SLOAD SWAP1 PUSH2 0x100 EXP SWAP1 DIV PUSH20 0xFFFFFFFFFFFFFFFFFFFFFFFFFFFFFFFFFFFFFFFF AND PUSH20 0xFFFFFFFFFFFFFFFFFFFFFFFFFFFFFFFFFFFFFFFF AND EQ PUSH2 0x129B JUMPI PUSH1 0x40 MLOAD PUSH32 0x8C379A000000000000000000000000000000000000000000000000000000000 DUP2 MSTORE PUSH1 0x4 ADD PUSH2 0x1292 SWAP1 PUSH2 0x1E7C JUMP JUMPDEST PUSH1 0x40 MLOAD DUP1 SWAP2 SUB SWAP1 REVERT JUMPDEST PUSH1 0x1 PUSH1 0x3 PUSH1 0x0 DUP5 PUSH20 0xFFFFFFFFFFFFFFFFFFFFFFFFFFFFFFFFFFFFFFFF AND PUSH20 0xFFFFFFFFFFFFFFFFFFFFFFFFFFFFFFFFFFFFFFFF AND DUP2 MSTORE PUSH1 0x20 ADD SWAP1 DUP2 MSTORE PUSH1 0x20 ADD PUSH1 0x0 KECCAK256 PUSH1 0x0 DUP3 DUP3 SLOAD PUSH2 0x12EB SWAP2 SWAP1 PUSH2 0x1F70 JUMP JUMPDEST SWAP3 POP POP DUP2 SWAP1 SSTORE POP DUP2 PUSH1 0x2 PUSH1 0x0 DUP4 DUP2 MSTORE PUSH1 0x20 ADD SWAP1 DUP2 MSTORE PUSH1 0x20 ADD PUSH1 0x0 KECCAK256 PUSH1 0x0 PUSH2 0x100 EXP DUP2 SLOAD DUP2 PUSH20 0xFFFFFFFFFFFFFFFFFFFFFFFFFFFFFFFFFFFFFFFF MUL NOT AND SWAP1 DUP4 PUSH20 0xFFFFFFFFFFFFFFFFFFFFFFFFFFFFFFFFFFFFFFFF AND MUL OR SWAP1 SSTORE POP DUP1 DUP3 PUSH20 0xFFFFFFFFFFFFFFFFFFFFFFFFFFFFFFFFFFFFFFFF AND PUSH1 0x0 PUSH20 0xFFFFFFFFFFFFFFFFFFFFFFFFFFFFFFFFFFFFFFFF AND PUSH32 0xDDF252AD1BE2C89B69C2B068FC378DAA952BA7F163C4A11628F55A4DF523B3EF PUSH1 0x40 MLOAD PUSH1 0x40 MLOAD DUP1 SWAP2 SUB SWAP1 LOG4 POP POP JUMP JUMPDEST PUSH2 0x13B0 DUP6 DUP6 DUP6 DUP6 PUSH2 0xF3E JUMP JUMPDEST PUSH2 0x13BC DUP5 DUP5 DUP5 DUP5 PUSH2 0x1590 JUMP JUMPDEST POP POP POP POP POP JUMP JUMPDEST PUSH1 0x60 PUSH1 0x40 MLOAD DUP1 PUSH1 0x60 ADD PUSH1 0x40 MSTORE DUP1 PUSH1 0x36 DUP2 MSTORE PUSH1 0x20 ADD PUSH2 0x24AB PUSH1 0x36 SWAP2 CODECOPY SWAP1 POP SWAP1 JUMP JUMPDEST PUSH1 0x60 PUSH1 0x0 DUP3 EQ ISZERO PUSH2 0x142B JUMPI PUSH1 0x40 MLOAD DUP1 PUSH1 0x40 ADD PUSH1 0x40 MSTORE DUP1 PUSH1 0x1 DUP2 MSTORE PUSH1 0x20 ADD PUSH32 0x3000000000000000000000000000000000000000000000000000000000000000 DUP2 MSTORE POP SWAP1 POP PUSH2 0x158B JUMP JUMPDEST PUSH1 0x0 DUP3 SWAP1 POP PUSH1 0x0 JUMPDEST PUSH1 0x0 DUP3 EQ PUSH2 0x145D JUMPI DUP1 DUP1 PUSH2 0x1446 SWAP1 PUSH2 0x2144 JUMP JUMPDEST SWAP2 POP POP PUSH1 0xA DUP3 PUSH2 0x1456 SWAP2 SWAP1 PUSH2 0x1FC6 JUMP JUMPDEST SWAP2 POP PUSH2 0x1433 JUMP JUMPDEST PUSH1 0x0 DUP2 PUSH8 0xFFFFFFFFFFFFFFFF DUP2 GT ISZERO PUSH2 0x149F JUMPI PUSH32 0x4E487B7100000000000000000000000000000000000000000000000000000000 PUSH1 0x0 MSTORE PUSH1 0x41 PUSH1 0x4 MSTORE PUSH1 0x24 PUSH1 0x0 REVERT JUMPDEST PUSH1 0x40 MLOAD SWAP1 DUP1 DUP3 MSTORE DUP1 PUSH1 0x1F ADD PUSH1 0x1F NOT AND PUSH1 0x20 ADD DUP3 ADD PUSH1 0x40 MSTORE DUP1 ISZERO PUSH2 0x14D1 JUMPI DUP2 PUSH1 0x20 ADD PUSH1 0x1 DUP3 MUL DUP1 CALLDATASIZE DUP4 CALLDATACOPY DUP1 DUP3 ADD SWAP2 POP POP SWAP1 POP JUMPDEST POP SWAP1 POP JUMPDEST PUSH1 0x0 DUP6 EQ PUSH2 0x1584 JUMPI PUSH1 0x1 DUP3 PUSH2 0x14EA SWAP2 SWAP1 PUSH2 0x1FF7 JUMP JUMPDEST SWAP2 POP PUSH1 0xA DUP6 PUSH2 0x14F9 SWAP2 SWAP1 PUSH2 0x218D JUMP JUMPDEST PUSH1 0x30 PUSH2 0x1505 SWAP2 SWAP1 PUSH2 0x1F70 JUMP JUMPDEST PUSH1 0xF8 SHL DUP2 DUP4 DUP2 MLOAD DUP2 LT PUSH2 0x1541 JUMPI PUSH32 0x4E487B7100000000000000000000000000000000000000000000000000000000 PUSH1 0x0 MSTORE PUSH1 0x32 PUSH1 0x4 MSTORE PUSH1 0x24 PUSH1 0x0 REVERT JUMPDEST PUSH1 0x20 ADD ADD SWAP1 PUSH31 0xFFFFFFFFFFFFFFFFFFFFFFFFFFFFFFFFFFFFFFFFFFFFFFFFFFFFFFFFFFFFFF NOT AND SWAP1 DUP2 PUSH1 0x0 BYTE SWAP1 MSTORE8 POP PUSH1 0xA DUP6 PUSH2 0x157D SWAP2 SWAP1 PUSH2 0x1FC6 JUMP JUMPDEST SWAP5 POP PUSH2 0x14D5 JUMP JUMPDEST DUP1 SWAP4 POP POP POP POP JUMPDEST SWAP2 SWAP1 POP JUMP JUMPDEST PUSH1 0x0 DUP4 PUSH20 0xFFFFFFFFFFFFFFFFFFFFFFFFFFFFFFFFFFFFFFFF AND EXTCODESIZE GT ISZERO PUSH2 0x174A JUMPI DUP3 PUSH20 0xFFFFFFFFFFFFFFFFFFFFFFFFFFFFFFFFFFFFFFFF AND PUSH4 0x150B7A02 CALLER DUP7 DUP6 DUP6 PUSH1 0x40 MLOAD DUP6 PUSH4 0xFFFFFFFF AND PUSH1 0xE0 SHL DUP2 MSTORE PUSH1 0x4 ADD PUSH2 0x15EF SWAP5 SWAP4 SWAP3 SWAP2 SWAP1 PUSH2 0x1CD3 JUMP JUMPDEST PUSH1 0x20 PUSH1 0x40 MLOAD DUP1 DUP4 SUB DUP2 PUSH1 0x0 DUP8 DUP1 EXTCODESIZE ISZERO DUP1 ISZERO PUSH2 0x1609 JUMPI PUSH1 0x0 DUP1 REVERT JUMPDEST POP GAS CALL SWAP3 POP POP POP DUP1 ISZERO PUSH2 0x163A JUMPI POP PUSH1 0x40 MLOAD RETURNDATASIZE PUSH1 0x1F NOT PUSH1 0x1F DUP3 ADD AND DUP3 ADD DUP1 PUSH1 0x40 MSTORE POP DUP2 ADD SWAP1 PUSH2 0x1637 SWAP2 SWAP1 PUSH2 0x19F1 JUMP JUMPDEST PUSH1 0x1 JUMPDEST PUSH2 0x16BF JUMPI RETURNDATASIZE DUP1 PUSH1 0x0 DUP2 EQ PUSH2 0x166A JUMPI PUSH1 0x40 MLOAD SWAP2 POP PUSH1 0x1F NOT PUSH1 0x3F RETURNDATASIZE ADD AND DUP3 ADD PUSH1 0x40 MSTORE RETURNDATASIZE DUP3 MSTORE RETURNDATASIZE PUSH1 0x0 PUSH1 0x20 DUP5 ADD RETURNDATACOPY PUSH2 0x166F JUMP JUMPDEST PUSH1 0x60 SWAP2 POP JUMPDEST POP PUSH1 0x0 DUP2 MLOAD EQ ISZERO PUSH2 0x16B7 JUMPI DUP4 PUSH1 0x40 MLOAD PUSH32 0x64A0AE9200000000000000000000000000000000000000000000000000000000 DUP2 MSTORE PUSH1 0x4 ADD PUSH2 0x16AE SWAP2 SWAP1 PUSH2 0x1CB8 JUMP JUMPDEST PUSH1 0x40 MLOAD DUP1 SWAP2 SUB SWAP1 REVERT JUMPDEST DUP1 MLOAD DUP2 PUSH1 0x20 ADD REVERT JUMPDEST PUSH4 0x150B7A02 PUSH1 0xE0 SHL PUSH28 0xFFFFFFFFFFFFFFFFFFFFFFFFFFFFFFFFFFFFFFFFFFFFFFFFFFFFFFFF NOT AND DUP2 PUSH28 0xFFFFFFFFFFFFFFFFFFFFFFFFFFFFFFFFFFFFFFFFFFFFFFFFFFFFFFFF NOT AND EQ PUSH2 0x1748 JUMPI DUP4 PUSH1 0x40 MLOAD PUSH32 0x64A0AE9200000000000000000000000000000000000000000000000000000000 DUP2 MSTORE PUSH1 0x4 ADD PUSH2 0x173F SWAP2 SWAP1 PUSH2 0x1CB8 JUMP JUMPDEST PUSH1 0x40 MLOAD DUP1 SWAP2 SUB SWAP1 REVERT JUMPDEST POP JUMPDEST POP POP POP POP JUMP JUMPDEST PUSH1 0x0 PUSH2 0x1763 PUSH2 0x175E DUP5 PUSH2 0x1EFC JUMP JUMPDEST PUSH2 0x1ED7 JUMP JUMPDEST SWAP1 POP DUP3 DUP2 MSTORE PUSH1 0x20 DUP2 ADD DUP5 DUP5 DUP5 ADD GT ISZERO PUSH2 0x177B JUMPI PUSH1 0x0 DUP1 REVERT JUMPDEST PUSH2 0x1786 DUP5 DUP3 DUP6 PUSH2 0x209F JUMP JUMPDEST POP SWAP4 SWAP3 POP POP POP JUMP JUMPDEST PUSH1 0x0 DUP2 CALLDATALOAD SWAP1 POP PUSH2 0x179D DUP2 PUSH2 0x244E JUMP JUMPDEST SWAP3 SWAP2 POP POP JUMP JUMPDEST PUSH1 0x0 DUP2 CALLDATALOAD SWAP1 POP PUSH2 0x17B2 DUP2 PUSH2 0x2465 JUMP JUMPDEST SWAP3 SWAP2 POP POP JUMP JUMPDEST PUSH1 0x0 DUP2 CALLDATALOAD SWAP1 POP PUSH2 0x17C7 DUP2 PUSH2 0x247C JUMP JUMPDEST SWAP3 SWAP2 POP POP JUMP JUMPDEST PUSH1 0x0 DUP2 MLOAD SWAP1 POP PUSH2 0x17DC DUP2 PUSH2 0x247C JUMP JUMPDEST SWAP3 SWAP2 POP POP JUMP JUMPDEST PUSH1 0x0 DUP3 PUSH1 0x1F DUP4 ADD SLT PUSH2 0x17F3 JUMPI PUSH1 0x0 DUP1 REVERT JUMPDEST DUP2 CALLDATALOAD PUSH2 0x1803 DUP5 DUP3 PUSH1 0x20 DUP7 ADD PUSH2 0x1750 JUMP JUMPDEST SWAP2 POP POP SWAP3 SWAP2 POP POP JUMP JUMPDEST PUSH1 0x0 DUP2 CALLDATALOAD SWAP1 POP PUSH2 0x181B DUP2 PUSH2 0x2493 JUMP JUMPDEST SWAP3 SWAP2 POP POP JUMP JUMPDEST PUSH1 0x0 PUSH1 0x20 DUP3 DUP5 SUB SLT ISZERO PUSH2 0x1833 JUMPI PUSH1 0x0 DUP1 REVERT JUMPDEST PUSH1 0x0 PUSH2 0x1841 DUP5 DUP3 DUP6 ADD PUSH2 0x178E JUMP JUMPDEST SWAP2 POP POP SWAP3 SWAP2 POP POP JUMP JUMPDEST PUSH1 0x0 DUP1 PUSH1 0x40 DUP4 DUP6 SUB SLT ISZERO PUSH2 0x185D JUMPI PUSH1 0x0 DUP1 REVERT JUMPDEST PUSH1 0x0 PUSH2 0x186B DUP6 DUP3 DUP7 ADD PUSH2 0x178E JUMP JUMPDEST SWAP3 POP POP PUSH1 0x20 PUSH2 0x187C DUP6 DUP3 DUP7 ADD PUSH2 0x178E JUMP JUMPDEST SWAP2 POP POP SWAP3 POP SWAP3 SWAP1 POP JUMP JUMPDEST PUSH1 0x0 DUP1 PUSH1 0x0 PUSH1 0x60 DUP5 DUP7 SUB SLT ISZERO PUSH2 0x189B JUMPI PUSH1 0x0 DUP1 REVERT JUMPDEST PUSH1 0x0 PUSH2 0x18A9 DUP7 DUP3 DUP8 ADD PUSH2 0x178E JUMP JUMPDEST SWAP4 POP POP PUSH1 0x20 PUSH2 0x18BA DUP7 DUP3 DUP8 ADD PUSH2 0x178E JUMP JUMPDEST SWAP3 POP POP PUSH1 0x40 PUSH2 0x18CB DUP7 DUP3 DUP8 ADD PUSH2 0x180C JUMP JUMPDEST SWAP2 POP POP SWAP3 POP SWAP3 POP SWAP3 JUMP JUMPDEST PUSH1 0x0 DUP1 PUSH1 0x0 DUP1 PUSH1 0x80 DUP6 DUP8 SUB SLT ISZERO PUSH2 0x18EB JUMPI PUSH1 0x0 DUP1 REVERT JUMPDEST PUSH1 0x0 PUSH2 0x18F9 DUP8 DUP3 DUP9 ADD PUSH2 0x178E JUMP JUMPDEST SWAP5 POP POP PUSH1 0x20 PUSH2 0x190A DUP8 DUP3 DUP9 ADD PUSH2 0x178E JUMP JUMPDEST SWAP4 POP POP PUSH1 0x40 PUSH2 0x191B DUP8 DUP3 DUP9 ADD PUSH2 0x180C JUMP JUMPDEST SWAP3 POP POP PUSH1 0x60 DUP6 ADD CALLDATALOAD PUSH8 0xFFFFFFFFFFFFFFFF DUP2 GT ISZERO PUSH2 0x1938 JUMPI PUSH1 0x0 DUP1 REVERT JUMPDEST PUSH2 0x1944 DUP8 DUP3 DUP9 ADD PUSH2 0x17E2 JUMP JUMPDEST SWAP2 POP POP SWAP3 SWAP6 SWAP2 SWAP5 POP SWAP3 POP JUMP JUMPDEST PUSH1 0x0 DUP1 PUSH1 0x40 DUP4 DUP6 SUB SLT ISZERO PUSH2 0x1963 JUMPI PUSH1 0x0 DUP1 REVERT JUMPDEST PUSH1 0x0 PUSH2 0x1971 DUP6 DUP3 DUP7 ADD PUSH2 0x178E JUMP JUMPDEST SWAP3 POP POP PUSH1 0x20 PUSH2 0x1982 DUP6 DUP3 DUP7 ADD PUSH2 0x17A3 JUMP JUMPDEST SWAP2 POP POP SWAP3 POP SWAP3 SWAP1 POP JUMP JUMPDEST PUSH1 0x0 DUP1 PUSH1 0x40 DUP4 DUP6 SUB SLT ISZERO PUSH2 0x199F JUMPI PUSH1 0x0 DUP1 REVERT JUMPDEST PUSH1 0x0 PUSH2 0x19AD DUP6 DUP3 DUP7 ADD PUSH2 0x178E JUMP JUMPDEST SWAP3 POP POP PUSH1 0x20 PUSH2 0x19BE DUP6 DUP3 DUP7 ADD PUSH2 0x180C JUMP JUMPDEST SWAP2 POP POP SWAP3 POP SWAP3 SWAP1 POP JUMP JUMPDEST PUSH1 0x0 PUSH1 0x20 DUP3 DUP5 SUB SLT ISZERO PUSH2 0x19DA JUMPI PUSH1 0x0 DUP1 REVERT JUMPDEST PUSH1 0x0 PUSH2 0x19E8 DUP5 DUP3 DUP6 ADD PUSH2 0x17B8 JUMP JUMPDEST SWAP2 POP POP SWAP3 SWAP2 POP POP JUMP JUMPDEST PUSH1 0x0 PUSH1 0x20 DUP3 DUP5 SUB SLT ISZERO PUSH2 0x1A03 JUMPI PUSH1 0x0 DUP1 REVERT JUMPDEST PUSH1 0x0 PUSH2 0x1A11 DUP5 DUP3 DUP6 ADD PUSH2 0x17CD JUMP JUMPDEST SWAP2 POP POP SWAP3 SWAP2 POP POP JUMP JUMPDEST PUSH1 0x0 PUSH1 0x20 DUP3 DUP5 SUB SLT ISZERO PUSH2 0x1A2C JUMPI PUSH1 0x0 DUP1 REVERT JUMPDEST PUSH1 0x0 PUSH2 0x1A3A DUP5 DUP3 DUP6 ADD PUSH2 0x180C JUMP JUMPDEST SWAP2 POP POP SWAP3 SWAP2 POP POP JUMP JUMPDEST PUSH2 0x1A4C DUP2 PUSH2 0x202B JUMP JUMPDEST DUP3 MSTORE POP POP JUMP JUMPDEST PUSH2 0x1A5B DUP2 PUSH2 0x203D JUMP JUMPDEST DUP3 MSTORE POP POP JUMP JUMPDEST PUSH1 0x0 PUSH2 0x1A6C DUP3 PUSH2 0x1F2D JUMP JUMPDEST PUSH2 0x1A76 DUP2 DUP6 PUSH2 0x1F43 JUMP JUMPDEST SWAP4 POP PUSH2 0x1A86 DUP2 DUP6 PUSH1 0x20 DUP7 ADD PUSH2 0x20AE JUMP JUMPDEST PUSH2 0x1A8F DUP2 PUSH2 0x227A JUMP JUMPDEST DUP5 ADD SWAP2 POP POP SWAP3 SWAP2 POP POP JUMP JUMPDEST PUSH1 0x0 PUSH2 0x1AA5 DUP3 PUSH2 0x1F38 JUMP JUMPDEST PUSH2 0x1AAF DUP2 DUP6 PUSH2 0x1F54 JUMP JUMPDEST SWAP4 POP PUSH2 0x1ABF DUP2 DUP6 PUSH1 0x20 DUP7 ADD PUSH2 0x20AE JUMP JUMPDEST PUSH2 0x1AC8 DUP2 PUSH2 0x227A JUMP JUMPDEST DUP5 ADD SWAP2 POP POP SWAP3 SWAP2 POP POP JUMP JUMPDEST PUSH1 0x0 PUSH2 0x1ADE DUP3 PUSH2 0x1F38 JUMP JUMPDEST PUSH2 0x1AE8 DUP2 DUP6 PUSH2 0x1F65 JUMP JUMPDEST SWAP4 POP PUSH2 0x1AF8 DUP2 DUP6 PUSH1 0x20 DUP7 ADD PUSH2 0x20AE JUMP JUMPDEST DUP1 DUP5 ADD SWAP2 POP POP SWAP3 SWAP2 POP POP JUMP JUMPDEST PUSH1 0x0 PUSH2 0x1B11 PUSH1 0x14 DUP4 PUSH2 0x1F54 JUMP JUMPDEST SWAP2 POP PUSH2 0x1B1C DUP3 PUSH2 0x228B JUMP JUMPDEST PUSH1 0x20 DUP3 ADD SWAP1 POP SWAP2 SWAP1 POP JUMP JUMPDEST PUSH1 0x0 PUSH2 0x1B34 PUSH1 0x16 DUP4 PUSH2 0x1F54 JUMP JUMPDEST SWAP2 POP PUSH2 0x1B3F DUP3 PUSH2 0x22B4 JUMP JUMPDEST PUSH1 0x20 DUP3 ADD SWAP1 POP SWAP2 SWAP1 POP JUMP JUMPDEST PUSH1 0x0 PUSH2 0x1B57 PUSH1 0x1C DUP4 PUSH2 0x1F54 JUMP JUMPDEST SWAP2 POP PUSH2 0x1B62 DUP3 PUSH2 0x22DD JUMP JUMPDEST PUSH1 0x20 DUP3 ADD SWAP1 POP SWAP2 SWAP1 POP JUMP JUMPDEST PUSH1 0x0 PUSH2 0x1B7A PUSH1 0x19 DUP4 PUSH2 0x1F54 JUMP JUMPDEST SWAP2 POP PUSH2 0x1B85 DUP3 PUSH2 0x2306 JUMP JUMPDEST PUSH1 0x20 DUP3 ADD SWAP1 POP SWAP2 SWAP1 POP JUMP JUMPDEST PUSH1 0x0 PUSH2 0x1B9D PUSH1 0x1E DUP4 PUSH2 0x1F54 JUMP JUMPDEST SWAP2 POP PUSH2 0x1BA8 DUP3 PUSH2 0x232F JUMP JUMPDEST PUSH1 0x20 DUP3 ADD SWAP1 POP SWAP2 SWAP1 POP JUMP JUMPDEST PUSH1 0x0 PUSH2 0x1BC0 PUSH1 0x14 DUP4 PUSH2 0x1F54 JUMP JUMPDEST SWAP2 POP PUSH2 0x1BCB DUP3 PUSH2 0x2358 JUMP JUMPDEST PUSH1 0x20 DUP3 ADD SWAP1 POP SWAP2 SWAP1 POP JUMP JUMPDEST PUSH1 0x0 PUSH2 0x1BE3 PUSH1 0x13 DUP4 PUSH2 0x1F54 JUMP JUMPDEST SWAP2 POP PUSH2 0x1BEE DUP3 PUSH2 0x2381 JUMP JUMPDEST PUSH1 0x20 DUP3 ADD SWAP1 POP SWAP2 SWAP1 POP JUMP JUMPDEST PUSH1 0x0 PUSH2 0x1C06 PUSH1 0x14 DUP4 PUSH2 0x1F54 JUMP JUMPDEST SWAP2 POP PUSH2 0x1C11 DUP3 PUSH2 0x23AA JUMP JUMPDEST PUSH1 0x20 DUP3 ADD SWAP1 POP SWAP2 SWAP1 POP JUMP JUMPDEST PUSH1 0x0 PUSH2 0x1C29 PUSH1 0xF DUP4 PUSH2 0x1F54 JUMP JUMPDEST SWAP2 POP PUSH2 0x1C34 DUP3 PUSH2 0x23D3 JUMP JUMPDEST PUSH1 0x20 DUP3 ADD SWAP1 POP SWAP2 SWAP1 POP JUMP JUMPDEST PUSH1 0x0 PUSH2 0x1C4C PUSH1 0x14 DUP4 PUSH2 0x1F54 JUMP JUMPDEST SWAP2 POP PUSH2 0x1C57 DUP3 PUSH2 0x23FC JUMP JUMPDEST PUSH1 0x20 DUP3 ADD SWAP1 POP SWAP2 SWAP1 POP JUMP JUMPDEST PUSH1 0x0 PUSH2 0x1C6F PUSH1 0x9 DUP4 PUSH2 0x1F54 JUMP JUMPDEST SWAP2 POP PUSH2 0x1C7A DUP3 PUSH2 0x2425 JUMP JUMPDEST PUSH1 0x20 DUP3 ADD SWAP1 POP SWAP2 SWAP1 POP JUMP JUMPDEST PUSH2 0x1C8E DUP2 PUSH2 0x2095 JUMP JUMPDEST DUP3 MSTORE POP POP JUMP JUMPDEST PUSH1 0x0 PUSH2 0x1CA0 DUP3 DUP6 PUSH2 0x1AD3 JUMP JUMPDEST SWAP2 POP PUSH2 0x1CAC DUP3 DUP5 PUSH2 0x1AD3 JUMP JUMPDEST SWAP2 POP DUP2 SWAP1 POP SWAP4 SWAP3 POP POP POP JUMP JUMPDEST PUSH1 0x0 PUSH1 0x20 DUP3 ADD SWAP1 POP PUSH2 0x1CCD PUSH1 0x0 DUP4 ADD DUP5 PUSH2 0x1A43 JUMP JUMPDEST SWAP3 SWAP2 POP POP JUMP JUMPDEST PUSH1 0x0 PUSH1 0x80 DUP3 ADD SWAP1 POP PUSH2 0x1CE8 PUSH1 0x0 DUP4 ADD DUP8 PUSH2 0x1A43 JUMP JUMPDEST PUSH2 0x1CF5 PUSH1 0x20 DUP4 ADD DUP7 PUSH2 0x1A43 JUMP JUMPDEST PUSH2 0x1D02 PUSH1 0x40 DUP4 ADD DUP6 PUSH2 0x1C85 JUMP JUMPDEST DUP2 DUP2 SUB PUSH1 0x60 DUP4 ADD MSTORE PUSH2 0x1D14 DUP2 DUP5 PUSH2 0x1A61 JUMP JUMPDEST SWAP1 POP SWAP6 SWAP5 POP POP POP POP POP JUMP JUMPDEST PUSH1 0x0 PUSH1 0x20 DUP3 ADD SWAP1 POP PUSH2 0x1D34 PUSH1 0x0 DUP4 ADD DUP5 PUSH2 0x1A52 JUMP JUMPDEST SWAP3 SWAP2 POP POP JUMP JUMPDEST PUSH1 0x0 PUSH1 0x20 DUP3 ADD SWAP1 POP DUP2 DUP2 SUB PUSH1 0x0 DUP4 ADD MSTORE PUSH2 0x1D54 DUP2 DUP5 PUSH2 0x1A9A JUMP JUMPDEST SWAP1 POP SWAP3 SWAP2 POP POP JUMP JUMPDEST PUSH1 0x0 PUSH1 0x20 DUP3 ADD SWAP1 POP DUP2 DUP2 SUB PUSH1 0x0 DUP4 ADD MSTORE PUSH2 0x1D75 DUP2 PUSH2 0x1B04 JUMP JUMPDEST SWAP1 POP SWAP2 SWAP1 POP JUMP JUMPDEST PUSH1 0x0 PUSH1 0x20 DUP3 ADD SWAP1 POP DUP2 DUP2 SUB PUSH1 0x0 DUP4 ADD MSTORE PUSH2 0x1D95 DUP2 PUSH2 0x1B27 JUMP JUMPDEST SWAP1 POP SWAP2 SWAP1 POP JUMP JUMPDEST PUSH1 0x0 PUSH1 0x20 DUP3 ADD SWAP1 POP DUP2 DUP2 SUB PUSH1 0x0 DUP4 ADD MSTORE PUSH2 0x1DB5 DUP2 PUSH2 0x1B4A JUMP JUMPDEST SWAP1 POP SWAP2 SWAP1 POP JUMP JUMPDEST PUSH1 0x0 PUSH1 0x20 DUP3 ADD SWAP1 POP DUP2 DUP2 SUB PUSH1 0x0 DUP4 ADD MSTORE PUSH2 0x1DD5 DUP2 PUSH2 0x1B6D JUMP JUMPDEST SWAP1 POP SWAP2 SWAP1 POP JUMP JUMPDEST PUSH1 0x0 PUSH1 0x20 DUP3 ADD SWAP1 POP DUP2 DUP2 SUB PUSH1 0x0 DUP4 ADD MSTORE PUSH2 0x1DF5 DUP2 PUSH2 0x1B90 JUMP JUMPDEST SWAP1 POP SWAP2 SWAP1 POP JUMP JUMPDEST PUSH1 0x0 PUSH1 0x20 DUP3 ADD SWAP1 POP DUP2 DUP2 SUB PUSH1 0x0 DUP4 ADD MSTORE PUSH2 0x1E15 DUP2 PUSH2 0x1BB3 JUMP JUMPDEST SWAP1 POP SWAP2 SWAP1 POP JUMP JUMPDEST PUSH1 0x0 PUSH1 0x20 DUP3 ADD SWAP1 POP DUP2 DUP2 SUB PUSH1 0x0 DUP4 ADD MSTORE PUSH2 0x1E35 DUP2 PUSH2 0x1BD6 JUMP JUMPDEST SWAP1 POP SWAP2 SWAP1 POP JUMP JUMPDEST PUSH1 0x0 PUSH1 0x20 DUP3 ADD SWAP1 POP DUP2 DUP2 SUB PUSH1 0x0 DUP4 ADD MSTORE PUSH2 0x1E55 DUP2 PUSH2 0x1BF9 JUMP JUMPDEST SWAP1 POP SWAP2 SWAP1 POP JUMP JUMPDEST PUSH1 0x0 PUSH1 0x20 DUP3 ADD SWAP1 POP DUP2 DUP2 SUB PUSH1 0x0 DUP4 ADD MSTORE PUSH2 0x1E75 DUP2 PUSH2 0x1C1C JUMP JUMPDEST SWAP1 POP SWAP2 SWAP1 POP JUMP JUMPDEST PUSH1 0x0 PUSH1 0x20 DUP3 ADD SWAP1 POP DUP2 DUP2 SUB PUSH1 0x0 DUP4 ADD MSTORE PUSH2 0x1E95 DUP2 PUSH2 0x1C3F JUMP JUMPDEST SWAP1 POP SWAP2 SWAP1 POP JUMP JUMPDEST PUSH1 0x0 PUSH1 0x20 DUP3 ADD SWAP1 POP DUP2 DUP2 SUB PUSH1 0x0 DUP4 ADD MSTORE PUSH2 0x1EB5 DUP2 PUSH2 0x1C62 JUMP JUMPDEST SWAP1 POP SWAP2 SWAP1 POP JUMP JUMPDEST PUSH1 0x0 PUSH1 0x20 DUP3 ADD SWAP1 POP PUSH2 0x1ED1 PUSH1 0x0 DUP4 ADD DUP5 PUSH2 0x1C85 JUMP JUMPDEST SWAP3 SWAP2 POP POP JUMP JUMPDEST PUSH1 0x0 PUSH2 0x1EE1 PUSH2 0x1EF2 JUMP JUMPDEST SWAP1 POP PUSH2 0x1EED DUP3 DUP3 PUSH2 0x2113 JUMP JUMPDEST SWAP2 SWAP1 POP JUMP JUMPDEST PUSH1 0x0 PUSH1 0x40 MLOAD SWAP1 POP SWAP1 JUMP JUMPDEST PUSH1 0x0 PUSH8 0xFFFFFFFFFFFFFFFF DUP3 GT ISZERO PUSH2 0x1F17 JUMPI PUSH2 0x1F16 PUSH2 0x224B JUMP JUMPDEST JUMPDEST PUSH2 0x1F20 DUP3 PUSH2 0x227A JUMP JUMPDEST SWAP1 POP PUSH1 0x20 DUP2 ADD SWAP1 POP SWAP2 SWAP1 POP JUMP JUMPDEST PUSH1 0x0 DUP2 MLOAD SWAP1 POP SWAP2 SWAP1 POP JUMP JUMPDEST PUSH1 0x0 DUP2 MLOAD SWAP1 POP SWAP2 SWAP1 POP JUMP JUMPDEST PUSH1 0x0 DUP3 DUP3 MSTORE PUSH1 0x20 DUP3 ADD SWAP1 POP SWAP3 SWAP2 POP POP JUMP JUMPDEST PUSH1 0x0 DUP3 DUP3 MSTORE PUSH1 0x20 DUP3 ADD SWAP1 POP SWAP3 SWAP2 POP POP JUMP JUMPDEST PUSH1 0x0 DUP2 SWAP1 POP SWAP3 SWAP2 POP POP JUMP JUMPDEST PUSH1 0x0 PUSH2 0x1F7B DUP3 PUSH2 0x2095 JUMP JUMPDEST SWAP2 POP PUSH2 0x1F86 DUP4 PUSH2 0x2095 JUMP JUMPDEST SWAP3 POP DUP3 PUSH32 0xFFFFFFFFFFFFFFFFFFFFFFFFFFFFFFFFFFFFFFFFFFFFFFFFFFFFFFFFFFFFFFFF SUB DUP3 GT ISZERO PUSH2 0x1FBB JUMPI PUSH2 0x1FBA PUSH2 0x21BE JUMP JUMPDEST JUMPDEST DUP3 DUP3 ADD SWAP1 POP SWAP3 SWAP2 POP POP JUMP JUMPDEST PUSH1 0x0 PUSH2 0x1FD1 DUP3 PUSH2 0x2095 JUMP JUMPDEST SWAP2 POP PUSH2 0x1FDC DUP4 PUSH2 0x2095 JUMP JUMPDEST SWAP3 POP DUP3 PUSH2 0x1FEC JUMPI PUSH2 0x1FEB PUSH2 0x21ED JUMP JUMPDEST JUMPDEST DUP3 DUP3 DIV SWAP1 POP SWAP3 SWAP2 POP POP JUMP JUMPDEST PUSH1 0x0 PUSH2 0x2002 DUP3 PUSH2 0x2095 JUMP JUMPDEST SWAP2 POP PUSH2 0x200D DUP4 PUSH2 0x2095 JUMP JUMPDEST SWAP3 POP DUP3 DUP3 LT ISZERO PUSH2 0x2020 JUMPI PUSH2 0x201F PUSH2 0x21BE JUMP JUMPDEST JUMPDEST DUP3 DUP3 SUB SWAP1 POP SWAP3 SWAP2 POP POP JUMP JUMPDEST PUSH1 0x0 PUSH2 0x2036 DUP3 PUSH2 0x2075 JUMP JUMPDEST SWAP1 POP SWAP2 SWAP1 POP JUMP JUMPDEST PUSH1 0x0 DUP2 ISZERO ISZERO SWAP1 POP SWAP2 SWAP1 POP JUMP JUMPDEST PUSH1 0x0 PUSH32 0xFFFFFFFF00000000000000000000000000000000000000000000000000000000 DUP3 AND SWAP1 POP SWAP2 SWAP1 POP JUMP JUMPDEST PUSH1 0x0 PUSH20 0xFFFFFFFFFFFFFFFFFFFFFFFFFFFFFFFFFFFFFFFF DUP3 AND SWAP1 POP SWAP2 SWAP1 POP JUMP JUMPDEST PUSH1 0x0 DUP2 SWAP1 POP SWAP2 SWAP1 POP JUMP JUMPDEST DUP3 DUP2 DUP4 CALLDATACOPY PUSH1 0x0 DUP4 DUP4 ADD MSTORE POP POP POP JUMP JUMPDEST PUSH1 0x0 JUMPDEST DUP4 DUP2 LT ISZERO PUSH2 0x20CC JUMPI DUP1 DUP3 ADD MLOAD DUP2 DUP5 ADD MSTORE PUSH1 0x20 DUP2 ADD SWAP1 POP PUSH2 0x20B1 JUMP JUMPDEST DUP4 DUP2 GT ISZERO PUSH2 0x20DB JUMPI PUSH1 0x0 DUP5 DUP5 ADD MSTORE JUMPDEST POP POP POP POP JUMP JUMPDEST PUSH1 0x0 PUSH1 0x2 DUP3 DIV SWAP1 POP PUSH1 0x1 DUP3 AND DUP1 PUSH2 0x20F9 JUMPI PUSH1 0x7F DUP3 AND SWAP2 POP JUMPDEST PUSH1 0x20 DUP3 LT DUP2 EQ ISZERO PUSH2 0x210D JUMPI PUSH2 0x210C PUSH2 0x221C JUMP JUMPDEST JUMPDEST POP SWAP2 SWAP1 POP JUMP JUMPDEST PUSH2 0x211C DUP3 PUSH2 0x227A JUMP JUMPDEST DUP2 ADD DUP2 DUP2 LT PUSH8 0xFFFFFFFFFFFFFFFF DUP3 GT OR ISZERO PUSH2 0x213B JUMPI PUSH2 0x213A PUSH2 0x224B JUMP JUMPDEST JUMPDEST DUP1 PUSH1 0x40 MSTORE POP POP POP JUMP JUMPDEST PUSH1 0x0 PUSH2 0x214F DUP3 PUSH2 0x2095 JUMP JUMPDEST SWAP2 POP PUSH32 0xFFFFFFFFFFFFFFFFFFFFFFFFFFFFFFFFFFFFFFFFFFFFFFFFFFFFFFFFFFFFFFFF DUP3 EQ ISZERO PUSH2 0x2182 JUMPI PUSH2 0x2181 PUSH2 0x21BE JUMP JUMPDEST JUMPDEST PUSH1 0x1 DUP3 ADD SWAP1 POP SWAP2 SWAP1 POP JUMP JUMPDEST PUSH1 0x0 PUSH2 0x2198 DUP3 PUSH2 0x2095 JUMP JUMPDEST SWAP2 POP PUSH2 0x21A3 DUP4 PUSH2 0x2095 JUMP JUMPDEST SWAP3 POP DUP3 PUSH2 0x21B3 JUMPI PUSH2 0x21B2 PUSH2 0x21ED JUMP JUMPDEST JUMPDEST DUP3 DUP3 MOD SWAP1 POP SWAP3 SWAP2 POP POP JUMP JUMPDEST PUSH32 0x4E487B7100000000000000000000000000000000000000000000000000000000 PUSH1 0x0 MSTORE PUSH1 0x11 PUSH1 0x4 MSTORE PUSH1 0x24 PUSH1 0x0 REVERT JUMPDEST PUSH32 0x4E487B7100000000000000000000000000000000000000000000000000000000 PUSH1 0x0 MSTORE PUSH1 0x12 PUSH1 0x4 MSTORE PUSH1 0x24 PUSH1 0x0 REVERT JUMPDEST PUSH32 0x4E487B7100000000000000000000000000000000000000000000000000000000 PUSH1 0x0 MSTORE PUSH1 0x22 PUSH1 0x4 MSTORE PUSH1 0x24 PUSH1 0x0 REVERT JUMPDEST PUSH32 0x4E487B7100000000000000000000000000000000000000000000000000000000 PUSH1 0x0 MSTORE PUSH1 0x41 PUSH1 0x4 MSTORE PUSH1 0x24 PUSH1 0x0 REVERT JUMPDEST PUSH1 0x0 PUSH1 0x1F NOT PUSH1 0x1F DUP4 ADD AND SWAP1 POP SWAP2 SWAP1 POP JUMP JUMPDEST PUSH32 0x746F6B656E4964206F7574206F662072616E6765000000000000000000000000 PUSH1 0x0 DUP3 ADD MSTORE POP JUMP JUMPDEST PUSH32 0x6E6F74206F776E6572206E6F7220617070726F76656400000000000000000000 PUSH1 0x0 DUP3 ADD MSTORE POP JUMP JUMPDEST PUSH32 0x7472616E7366657220746F20746865207A65726F206164647265737300000000 PUSH1 0x0 DUP3 ADD MSTORE POP JUMP JUMPDEST PUSH32 0x617070726F76616C20746F2063757272656E74206F776E657200000000000000 PUSH1 0x0 DUP3 ADD MSTORE POP JUMP JUMPDEST PUSH32 0x6E6F74206F776E6572206E6F7220617070726F76656420666F7220616C6C0000 PUSH1 0x0 DUP3 ADD MSTORE POP JUMP JUMPDEST PUSH32 0x6D696E7420746F207A65726F2061646472657373000000000000000000000000 PUSH1 0x0 DUP3 ADD MSTORE POP JUMP JUMPDEST PUSH32 0x746F6B656E20646F65736E277420657869737400000000000000000000000000 PUSH1 0x0 DUP3 ADD MSTORE POP JUMP JUMPDEST PUSH32 0x6F776E6572203D207A65726F2061646472657373000000000000000000000000 PUSH1 0x0 DUP3 ADD MSTORE POP JUMP JUMPDEST PUSH32 0x546F6B656E204E6F742045786973740000000000000000000000000000000000 PUSH1 0x0 DUP3 ADD MSTORE POP JUMP JUMPDEST PUSH32 0x746F6B656E20616C7265616479206D696E746564000000000000000000000000 PUSH1 0x0 DUP3 ADD MSTORE POP JUMP JUMPDEST PUSH32 0x6E6F74206F776E65720000000000000000000000000000000000000000000000 PUSH1 0x0 DUP3 ADD MSTORE POP JUMP JUMPDEST PUSH2 0x2457 DUP2 PUSH2 0x202B JUMP JUMPDEST DUP2 EQ PUSH2 0x2462 JUMPI PUSH1 0x0 DUP1 REVERT JUMPDEST POP JUMP JUMPDEST PUSH2 0x246E DUP2 PUSH2 0x203D JUMP JUMPDEST DUP2 EQ PUSH2 0x2479 JUMPI PUSH1 0x0 DUP1 REVERT JUMPDEST POP JUMP JUMPDEST PUSH2 0x2485 DUP2 PUSH2 0x2049 JUMP JUMPDEST DUP2 EQ PUSH2 0x2490 JUMPI PUSH1 0x0 DUP1 REVERT JUMPDEST POP JUMP JUMPDEST PUSH2 0x249C DUP2 PUSH2 0x2095 JUMP JUMPDEST DUP2 EQ PUSH2 0x24A7 JUMPI PUSH1 0x0 DUP1 REVERT JUMPDEST POP JUMP INVALID PUSH10 0x7066733A2F2F516D6553 PUSH11 0x53696E4870506E6D586D73 PUSH17 0x4D6A776958794E367A533445397A636361 PUSH19 0x694752336A7863615774712FA2646970667358 0x22 SLT KECCAK256 SELFDESTRUCT 0xD8 SHR EQ PUSH21 0xAB0ED5D42848981454118C46E1ABA7F03DFFD38AAA DUP10 SAR 0xBE 0xF9 EXTCODESIZE 0xB7 PUSH5 0x736F6C6343 STOP ADDMOD DIV STOP CALLER "
				},
				"gasEstimates": {
					"creation": {
						"codeDepositCost": "1898800",
						"executionCost": "infinite",
						"totalCost": "infinite"
					},
					"external": {
						"MAX_APES()": "1173",
						"approve(address,uint256)": "25594",
						"balanceOf(address)": "1624",
						"getApproved(uint256)": "2585",
						"isApprovedForAll(address,address)": "infinite",
						"mint(address,uint256)": "infinite",
						"name()": "infinite",
						"ownerOf(uint256)": "1679",
						"safeTransferFrom(address,address,uint256)": "infinite",
						"safeTransferFrom(address,address,uint256,bytes)": "infinite",
						"setApprovalForAll(address,bool)": "infinite",
						"supportsInterface(bytes4)": "754",
						"symbol()": "infinite",
						"tokenURI(uint256)": "infinite",
						"transferFrom(address,address,uint256)": "infinite"
					},
					"internal": {
						"_baseURI()": "infinite"
					}
				},
				"methodIdentifiers": {
					"MAX_APES()": "bb8a16bd",
					"approve(address,uint256)": "095ea7b3",
					"balanceOf(address)": "70a08231",
					"getApproved(uint256)": "081812fc",
					"isApprovedForAll(address,address)": "e985e9c5",
					"mint(address,uint256)": "40c10f19",
					"name()": "06fdde03",
					"ownerOf(uint256)": "6352211e",
					"safeTransferFrom(address,address,uint256)": "42842e0e",
					"safeTransferFrom(address,address,uint256,bytes)": "b88d4fde",
					"setApprovalForAll(address,bool)": "a22cb465",
					"supportsInterface(bytes4)": "01ffc9a7",
					"symbol()": "95d89b41",
					"tokenURI(uint256)": "c87b56dd",
					"transferFrom(address,address,uint256)": "23b872dd"
				}
			},
			"storageLayout": {
				"storage": [
					{
						"astId": 16,
						"contract": "contracts/PenERC721.sol:PenERC721",
						"label": "name",
						"offset": 0,
						"slot": "0",
						"type": "t_string_storage"
					},
					{
						"astId": 19,
						"contract": "contracts/PenERC721.sol:PenERC721",
						"label": "symbol",
						"offset": 0,
						"slot": "1",
						"type": "t_string_storage"
					},
					{
						"astId": 23,
						"contract": "contracts/PenERC721.sol:PenERC721",
						"label": "_owners",
						"offset": 0,
						"slot": "2",
						"type": "t_mapping(t_uint256,t_address)"
					},
					{
						"astId": 27,
						"contract": "contracts/PenERC721.sol:PenERC721",
						"label": "_balances",
						"offset": 0,
						"slot": "3",
						"type": "t_mapping(t_address,t_uint256)"
					},
					{
						"astId": 31,
						"contract": "contracts/PenERC721.sol:PenERC721",
						"label": "_tokenApprovals",
						"offset": 0,
						"slot": "4",
						"type": "t_mapping(t_uint256,t_address)"
					},
					{
						"astId": 37,
						"contract": "contracts/PenERC721.sol:PenERC721",
						"label": "_operatorApprovals",
						"offset": 0,
						"slot": "5",
						"type": "t_mapping(t_address,t_mapping(t_address,t_bool))"
					},
					{
						"astId": 707,
						"contract": "contracts/PenERC721.sol:PenERC721",
						"label": "MAX_APES",
						"offset": 0,
						"slot": "6",
						"type": "t_uint256"
					}
				],
				"types": {
					"t_address": {
						"encoding": "inplace",
						"label": "address",
						"numberOfBytes": "20"
					},
					"t_bool": {
						"encoding": "inplace",
						"label": "bool",
						"numberOfBytes": "1"
					},
					"t_mapping(t_address,t_bool)": {
						"encoding": "mapping",
						"key": "t_address",
						"label": "mapping(address => bool)",
						"numberOfBytes": "32",
						"value": "t_bool"
					},
					"t_mapping(t_address,t_mapping(t_address,t_bool))": {
						"encoding": "mapping",
						"key": "t_address",
						"label": "mapping(address => mapping(address => bool))",
						"numberOfBytes": "32",
						"value": "t_mapping(t_address,t_bool)"
					},
					"t_mapping(t_address,t_uint256)": {
						"encoding": "mapping",
						"key": "t_address",
						"label": "mapping(address => uint256)",
						"numberOfBytes": "32",
						"value": "t_uint256"
					},
					"t_mapping(t_uint256,t_address)": {
						"encoding": "mapping",
						"key": "t_uint256",
						"label": "mapping(uint256 => address)",
						"numberOfBytes": "32",
						"value": "t_address"
					},
					"t_string_storage": {
						"encoding": "bytes",
						"label": "string",
						"numberOfBytes": "32"
					},
					"t_uint256": {
						"encoding": "inplace",
						"label": "uint256",
						"numberOfBytes": "32"
					}
				}
			},
			"userdoc": {
				"kind": "user",
				"methods": {
					"safeTransferFrom(address,address,uint256,bytes)": {
						"notice": "实现IERC721的safeTransferFrom，安全转账，调用了_safeTransfer函数。"
					},
					"tokenURI(uint256)": {
						"notice": "实现IERC721Metadata的tokenURI函数，查询metadata。"
					}
				},
				"version": 1
			}
		}
	}
}